:020000040001F9
:10800000AA82AB837C00BC0800502AEC2CFDFE90B9
:1080100083FD93CEA393FFED90840D93CDA393F8AE
:10802000EA5205EB5200EEB50508EFB50004758283
:1080300001220C80D175820022C018E581F5182438
:1080400008F581E5182404F87600087600E5182480
:1080500006F87600900030E003540790841D93905A
:10806000661DF0900034E00303543F90661EF090CC
:108070000034E003540190661FF0783579817A026C
:108080001200B3AD829022B6EDF0906008E0FEBE23
:1080900001047E0880027E01A818080876BC0876D4
:1080A000029022B5EEF030165CED6009906614E0A7
:1080B0002401F08009906614E014906614F0906634
:1080C00014E0FC700CFD90E643E0FF906614F08035
:1080D00034C00690E643E0FFE4CF25E0CF33FE7ADC
:1080E00000C3EC9FEA64808EF063F08095F0D006C8
:1080F000400D7D0190E643E0FA906614F08006752D
:108100008201028224BD0111C00678A679817A021B
:108110001200B3AA82D0068011C006784D79827A07
:10812000021200B3AB82D0068B02EA600302821D0A
:10813000C00678A579837A011200B3D00630160AFA
:10814000E5182406F8760102821DC006783579818B
:108150007A021200B3AA82D0068A059022B6EDF008
:10816000A81808E6B505028011A81808A605BE08DB
:10817000047E028005BE02027E01E5182404F80890
:10818000E618C625E0C63308F68D027B00E5182404
:1081900004F8EA46F6EB0846F6E5182404F8E51874
:1081A0002407F9E6F70809E6F77C00BC0800503B15
:1081B000C006EC2CFFFE9083FD93CEA393FAEFFB59
:1081C00090840D93CBA393FFE5182407F8E65203A0
:1081D00008E65207EEB50306EAB507028004D006AA
:1081E0008006D0067A0180050C80C07A00EA601013
:1081F000E5182406F87601906006E04408F0801D3A
:1082000090E649E020E00AA818080816B6FF020820
:1082100016A8180808E6084660030280A1E518249D
:1082200006F88682851881D0180200C590A316E052
:108230005407FABA03079067ADE0FA80129067AD71
:10824000E0FB7401B5030050047A0080028B0290B9
:108250002230740FF0900228E003035407FB53030D
:1082600004E4BB000104FB906006E054F7F090606A
:1082700001E054FDF090E60AE003035401FCBC0168
:1082800002800A906003E05401FCBC0144EA2AFC2D
:1082900024CCFDE43464FEEB2DF582E43EF583E06E
:1082A00090661EF0EC24D8FDE43464FEEB2DF582DC
:1082B000E43EF583E0906620F0EC24C0FCE43464F6
:1082C000FDEB2CF582E43DF583E0FC90661FF08029
:1082D0001290661E7431F09066207405F090661F4F
:1082E0007401F0906620E090841D9390661DF0C0AC
:1082F00002C00378A579837A011200B3D003D002BB
:10830000906008E0600302839290E60AE030E203A6
:10831000028392C002C003783979807A011200B3D7
:10832000AC82D003D002906005EC13E092E1F090B3
:108330000030E0035407FCEA2433FDE43466FEEC2D
:1083400090841D938D828E83F0EA2AFA24CCFCE47B
:108350003464FDEB2CFCE43DFD90661EE08C828DC8
:1083600083F0EA24D8FCE43464FDEB2CFCE43DFD0E
:10837000906620E0FE8C828D83F0EA24C0FAE4341B
:1083800064FCEB2AFBE43CFD90661FE0FA8B828DD7
:1083900083F0906001E04402F090E643E0FA9066DA
:1083A00014F00200C590661EE090003425E025E040
:1083B00054FCF5F0E0540345F0F090661FE09000A7
:1083C0003413E092E1F090661DE0FAC3136202906C
:1083D0006620EAF0900030EA2A540EF5F0E054F1FD
:1083E00045F0F0900034E04401F0780579C07A025D
:1083F0001200B3900034E054FEF00200C505000AFC
:10840000003300CC00C701380E0F0FF0F00F000F43
:1084100000FF00FF00FF0FFF0FFFFFFFFF00010342
:0584200002070604053F
:020000040002F8
:10800000900218E04402F090E60AE030E216906038
:1080100014E0FA900030C454F0F5F0E0540F45F04D
:10802000F00281329022307410F0906006E054FB30
:10803000F0906002E054F7F07A0090002CE04401E8
:10804000F0900030E0540F4480F090000AC00278B5
:108050001679BC7A021200B3D0027B007C30C002D9
:10806000C003C004783579817A021200B3AD82D0A2
:1080700004D003D002BD011A900030E0C4540FFEBA
:108080000E900030EEC454F0F5F0E0540F45F0F0DF
:108090008018900030E0C4540FFE1E900030EEC4F3
:1080A00054F0F5F0E0540F45F0F090000AC002C023
:1080B00003C004C005781679BC7A021200B3D0055B
:1080C000D004D003D002EA2AFAED42020BC002C06B
:1080D00003C004C0038A8278CD79BD7A021200B34E
:1080E0001581D004D003D00292285009906006E098
:1080F0004404F08023900030E0C4540FFDBD0F0213
:108100008016900030E054F0600E90E649E020E0E8
:10811000011CEC600302805E90002CE054FEF090A5
:108120000030E0C4540FFA906014F0906002E04414
:1081300008F00200C5902152E054FEF0E04401F046
:10814000E054FEF0902150E05401FAF5820200C59F
:1081500090661EE090003425E025E054FCF5F0E048
:10816000540345F0F090661FE090003413E092E174
:10817000F090661DE0FAC3136202900030EA2A54C0
:108180000EF5F0E054F145F0F0900034E04401F0D9
:10819000900002781679BC7A021200B3900034E0A5
:1081A00054FEF00200C57A0090661EE0FBBB312E43
:1081B00090661DE0FCBC060E90661E7433F090665F
:1081C0001FE4F0028232BC070890661E7430F08013
:1081D0006190661E7432F090661FE4F08054BB32EA
:1081E000028003BB332F90661DE0FCBC0614906632
:1081F0001E7431F090661D7407F090661F7401F0D4
:10820000803090661EE4F090661DEC04F090661FCE
:108210007401F0801D90661DE0FCBC070FEB70043C
:108220007A018024EB1490661EF0800690661EEBA7
:1082300004F09022B5E0FBFC1B9022B5EBF074013A
:10824000B5040050030281A88A820200C57A00901A
:10825000661DE0FBBB072390661EE0FCBC3113905B
:10826000661E7433F090661D7406F090661FE4F08D
:10827000804A90661EEC04F0804290661EE0FCBCD2
:1082800032028003BC330E90661E7431F090661F7C
:108290007401F08027EC701E7401B503005013EBDD
:1082A0001490661DF090661E7433F090661FE4F023
:1082B000800A7A01801CEC1490661EF09022B5E0D2
:1082C000FBFC1B9022B5EBF07401B50400500302D7
:0782D000824F8A820200C503
:020000040001F9
:10842500C018E581F5182404F581A8180876009090
:108435002606E0FBA3E053033F902670E0FC5304BF
:108445003FA818080874305BF6E5182403F8740C87
:108455005BF6E5182404F874035BF674305CFF746E
:108465000C5CFA74035CFB902606E0FEA3E0FDBEFF
:108475000005BD04028010BE0005BD0802801FBEB8
:10848500002ABD0C278017EC700C902671E0FD5476
:108495003F7003028554A818087601028554BC155F
:1084A50003028554A818087601028554902671E0C8
:1084B500FD540C6005A818087601EC7005A818088D
:1084C5007601E5182404F8B60108BB0202801EEB0C
:1084D500601BE5182404F8B60208BB0302800EEB06
:1084E500600BE5182404F8E67008EB6005A8180889
:1084F5007601E5182403F8B60408BA0802801EEAD6
:10850500601BE5182403F8B60808BA0C02800EEAC9
:10851500600BE5182403F8E67008EA6005A818085A
:108525007601A8180808B61008BF2002801CEF6065
:1085350019A8180808B62008BF3002800DEF600A98
:10854500A8180808E67008EF6005A818087601A8BD
:1085550018088682851881D0180200C59022B47447
:1085650003F07A00902678E020E00302865A9026F0
:1085750021E020E20302865A90E607E030E64290C9
:1085850022E4E030E03B906033E020E0349022D8F4
:10859500E04420F0E054DFF090601FE0FBBB601C7E
:1085A50090601CE0FBA3E0FC9022B47401F0BB0DCD
:1085B5000040057A0202865A7A01803C7A020286D8
:1085C5005A90E607E020E5030286749022B474040D
:1085D500F09067A2E0FC90869F93FDFB9067A2EC6C
:1085E50004F09067A2E090869F93FCBCFF02800395
:1085F500BC0C059067A2E4F0EB2BFB90868393CB34
:10860500A393FC902665E04401F0E054FEF08B82D4
:108615008C83C002785579E87A011200B3D00290B4
:10862500265DE030E0F9902670E0FB53033FBB3F49
:10863500079067A2E4F0801DC002782579847A014D
:108645001200B3E582D002600C9067A27406F09028
:1086550060097403F0EA6017BA020890602E74018D
:10866500F0800590602EE4F0906033E04401F090D6
:1086750022B47402F0902230742BF00200C500047D
:108685000A0005002800140008000400020001008B
:10869500200010000008000C00000001030A080B70
:0286A5000CFFC8
:020000040002F8
:1082D7009060087401F0902200E0FA90E650E0FB0D
:1082E700EAB5036D90661CE0FA706690833CE02067
:1082F700E10B9082D8E054034480F0803890E63256
:10830700E0C4540125E024CCFAE434E5FB90E61EF2
:10831700E0FC2AF582E43BF583E0FA90E63CE0FBDB
:1083270090660DF09082D8EA2A25E054FCF5F0E03B
:10833700540345F0F09082D8E04401F090822CE09D
:108347004480F09082D8E054FEF090822CE0547F75
:10835700F0A20EE4332404F582E43466F583E0905A
:10836700001CC4035438F5F0E054C745F0F090E61C
:1083770032E003540125E02406FBE43466FCA20E38
:10838700E4332BF582E43CF583E0F58278DA79ADC6
:108397007A021200B3A20EE433240AF582E43466AB
:1083A700F583E0900024C42354E0F5F0E0541F4522
:1083B700F0F090E632E00303540125E0240CFBE4DF
:1083C7003466FCA20EE4332BF582E43CF583E0F53A
:1083D7008278A579AF7A021200B3900038E054038F
:1083E7004478F0900228E003035407FA530204E4A8
:1083F700BA000104FAA20EE43325E0241AFBE434A0
:1084070066FCEA2BF582E43CF583E090003425E036
:1084170025E054FCF5F0E0540345F0F0A20EE433F8
:1084270025E02422FBE43466FCEA2BF582E43CF5E4
:1084370083E090003025E0540EF5F0E054F145F06C
:10844700F0A20EE43325E02412FBE43466FCEA2BA9
:10845700F582E43CF583E090003413E092E1F0907C
:108467000034E04401F0E054FEF090E631E023549C
:108477000125E024E0FAE43465FBA20EE433FC2A8C
:10848700F582E43BF583E090021C25E025E054FCEF
:10849700F5F0E0540345F0F090E647E090660AF007
:1084A700A20EE43324E4F582E43465F583E0900218
:1084B7001C13E092E1F0900044E04410F090022099
:1084C700E04401F0900044E054EFF0900220E054C3
:1084D700FEF0906616E0FA90A316E05407FBBB0483
:1084E700027A0090E633E003540175F005A424E610
:1084F700FBE43465FCEA2BF582E43CF583E090026B
:108507002025E025E054FCF5F0E0540345F0F09019
:10851700E639E0906609F0EA24F0F582E43465F57F
:1085270083E090022013E092E1F0900044E04410D1
:10853700F0900220E04401F0900044E054EFF09006
:108547000220E054FEF090E633E0540175F005A4F4
:1085570024F5FBE43465FCEA2BF582E43CF583E083
:1085670090004025E025E054FCF5F0E0540345F089
:10857700F090E638E0906608F0EA24FFF582E434EC
:1085870065F583E090004013E092E1F0900044E04D
:108597004410F0900220E04401F0900044E054EFD2
:1085A700F0900220E054FEF090E632E023540125DB
:1085B700E024DAFAE43465FBA20FE433FC2AF582FF
:1085C700E43BF583E090024C25E0547EF5F0E0545F
:1085D7008145F0F090E63FE0FA906610F0900220B7
:1085E700E04401F0E054FEF0900258E05407604385
:1085F70090E632E02323540125E024D4FAE43465DD
:10860700FBA20FE433FC2AF582E43BF583E09002FA
:108617005C25E025E054FCF5F0E0540345F0F090CC
:10862700E63EE0FA90660FF0900220E04401F0E0A9
:1086370054FEF0906008E4F00200C59060087401F1
:10864700F0A20EE4332404F582E43466F583E09067
:10865700001CC4035438F5F0E054C745F0F090E629
:1086670032E003540125E02406FAE43466FBA20E47
:10867700E4332AF582E43BF583E0F58278DA79ADD5
:108687007A021200B3A20EE433240AF582E43466B8
:10869700F583E0900024C42354E0F5F0E0541F452F
:1086A700F0F090E632E00303540125E0240CFBE4EC
:1086B7003466FCA20EE4332BF582E43CF583E0F547
:1086C7008278A579AF7A021200B3900228E00303FB
:1086D7005407FA530204E4BA000104FAA20EE43381
:1086E70025E0241AFBE43466FCEA2BF582E43CF52A
:1086F70083E090003425E025E054FCF5F0E05403D6
:1087070045F0F0A20EE43325E02422FBE43466FCB6
:10871700EA2BF582E43CF583E090003025E0540E27
:10872700F5F0E054F145F0F0A20EE43325E0241211
:10873700FBE43466FCEA2BF582E43CF583E0FA902F
:10874700003413E092E1F0900034E04401F0E0548B
:10875700FEF0906008E4F00200C5E582FA25E0FB30
:1087670024D0FCE434E5FD90E61FE02CFCE43DFD5D
:10877700908300E0C423541FFE53061F8C828D8311
:10878700EEF0EB24D4FBE434E5FC90E61FE02BFB92
:10879700E43CFC908304E0540FFD53050F8B828C5F
:1087A70083EDF0EA2A25E024D8FAE434E5FB90E6E5
:1087B7001FE025E02AFAE43BFB906621E0FCA3E0FA
:1087C700FD8A828B83ECF0A3EDF00200C5E582FA07
:1087D70025E0FB24D0FCE434E5FD90E61FE0FE2C09
:1087E700F582E43DF583E0908300C40354F8F5F087
:1087F700E0540745F0F0EB24D4FBE434E5FC90E6C5
:108807001FE0FD2BF582E43CF583E0908304540FD1
:10881700F5F0E054F045F0F0EA2A25E024D8FAE430
:1088270034E5FB90E61FE025E02AF582E43BF5837B
:10883700E0FAA3E0FB906621EAF0A3EBF08B04904B
:108847008308ECC42354E0F5F0E0541F45F0F090A2
:10885700830CEAF00200C5C2AF906621E0FAA3E0FC
:10886700FBFC908308ECC42354E0F5F0E0541F456B
:10887700F0F090830CEAF0908304E04440F0E05479
:07888700BFF0D2AF0200C5F3
:020000040001F9
:1086A700906003E054FEF0758200782D79927A018C
:1086B7001200B3902401E054DFF0902402E054FE4E
:1086C700F0902033E0C4540FFA906615F090E62C32
:1086D700E0540FFBC0038A82783B79C07A0212000C
:1086E700B3AA821581906615EAF0902117E0C45469
:1086F7000FFA906616F090E62CE0540FFBC0038A41
:1087070082783B79C07A021200B3AA8215819066FB
:1087170016EAF0906301E0FAFB906300E0FCB50312
:1087270000403AEB75F050A4FCADF02404FEED34A4
:1087370063FF8E828F83A3E0FEBE01028016EC24C6
:1087470004FCED3463FD74162CF582E43DF583E0FB
:10875700FCBC0104D2128002D2110B80BC906615BA
:10876700E0FA90A316E05407FBBB042A90E62CE03E
:10877700540FFB902033E0C4540FF582C003783BBD
:1087870079C07A021200B3AB8215818B028A8212FA
:108797004230AB828B02EA75F050A4FBACF02404A4
:1087A700F582EC3463F583E0FD90678CF07401B5D6
:1087B7000500400A90A316E05407FEBE0409C20F45
:1087C7009067AEE4F0800AED24FF920F9067AEED5C
:1087D700F0EB2404FBEC3463FC8B828C83A3E02452
:1087E700FF921090A316E05407FBBB04028003021C
:1087F7008881902238E0FB530301BB01028002808D
:108807007990678DE0FBB5050474018001E4FDB440
:108817000100E433FDFB6057906623E0FC60259080
:108827006624E0FC600FC003788F79D47A021200C7
:10883700B3D003803AC003787779D47A021200B3B1
:10884700D003802B902200E0FC90E650E0FDECB5D1
:10885700051DC003787779D47A021200B3D00330AC
:10886700120DC003788F79D47A021200B3D0038B2C
:1088770082782879D47A011200B3902200E0FB9025
:10888700E650E0FCEBB50402800E90E604E030E42D
:108897003890A329E020E33190831CE054F9440485
:1088A700F090A3417408F07409F0740DF090A329B7
:1088B700E04408F090E607E030E40E90A32BE04494
:1088C70002F090A32BE04404F078B979BE7A021243
:1088D70000B330141C90E60874FCF0A374FFF0A3F7
:1088E700F0A3740FF078A179927A011200B3028E87
:1088F7004F902102E054F7F0902003E04404F090F9
:108907002003E04401F0900218E04404F090024490
:10891700E0547FF090600AE054DFF09022B47431A5
:10892700F090678CE0FB9022B7F0A212E43390221C
:10893700B9F0A210E4339022BAF0906624E09022B6
:10894700BCF090661CE09022BDF090678DE0FCEBD8
:10895700B50402800D902238E0FB530301BB0102EE
:108967008018902238E0FB530301BB010D90A3163A
:10897700E05407FBBB0403028B61902200E0FB90ED
:10898700E650E0FCEBB5042D90E608E054FEF090CD
:108997002238E0FB530301BB01028009783B79D5FC
:1089A7007A021200B3A212B39228E433FB90A324F5
:1089B70013E092E0F075820A784979927A01120001
:1089C700B3902200E0FB90E650E0FCEBB504028098
:1089D70003028AD8787779D47A021200B390A31663
:1089E700E05407FBBB0302801390A316E05407FB78
:1089F700C374818BF063F08095F040047B018002A3
:108A07007B007C00BC02004003028AC49022B4743D
:108A170010F074702B9022BAF08B82C00412398642
:108A2700787B79D17A021200B3D00490661CE0FDFE
:108A37007053C004787779D47A021200B390A319DF
:108A4700E054EFF078CC79CC7A011200B37847790B
:108A5700D47A021200B3D00490833CE020E119904D
:108A670082D8E054034480F090E64CE04402F09052
:108A7700E64DE04404F0800DC004787479C97A02A9
:108A87001200B3D00420153590A316E05407FDBD9E
:108A97000402802990A316E05407FDBD030280134A
:108AA70090A316E05407FDC374818DF063F08095A1
:108AB700F040047B0080027B010C028A0B90661C4D
:108AC700E0FB700D902238E0FB430302902238EB65
:108AD700F075820B784979927A011200B390662477
:108AE700E0FB607630126C788F79D47A021200B38B
:108AF7007B00BB020050518B82C003123D5990A3EB
:108B070024E04420F0900005781679BC7A02120020
:108B1700B390A34DE04404F0900005781679BC7A31
:108B2700021200B390A333E054F7F0782D79D87A86
:108B3700011200B3D00320150F90A316E05407FCD1
:108B4700BC040280030B80AA78A779D47A021200AA
:108B5700B3800790A324E04401F075820C7849792B
:108B6700927A011200B3906301E0FBFA906300E090
:108B7700FBB502005003028CFA906616EAF0906685
:108B870015EAF090A316E05407FBBB0409C00212D4
:108B97004341D0028007C002124FE6D0029022382C
:108BA700E0FB530301BB01028070758214C0027899
:108BB7004979927A011200B3D00290E6BEE06029AB
:108BC700902200E0701BC002784579E77A02120014
:108BD700B3758201782D79927A011200B3D00280A1
:108BE7000890E6B6E0FBBB01F890E6C2E0602B9088
:108BF7002200E0FBBB011BC002784579E77A02122D
:108C070000B3758201782D79927A011200B3D002F0
:108C1700800890E6BAE0FBBB01F8902238E0FB53EE
:108C27000301BB01028070758215C00278497992F1
:108C37007A011200B3D00290E6BEE06029902200CC
:108C4700E0701BC002781C79E67A021200B37582C5
:108C570002782D79927A011200B3D002800890E64B
:108C6700B6E0FBBB02F890E6C2E0602B902200E082
:108C7700FBBB011BC002781C79E67A021200B375B0
:108C87008202782D79927A011200B3D0028008907F
:108C9700E6BAE0FBBB02F8C0027809799F7A0212B4
:108CA70000B3780C79AC7A011200B3785F79A27AB5
:108CB700021200B3782879A67A021200B3780079F5
:108CC700807A021200B3782C79827A011200B37885
:108CD700E579977A021200B378A5799B7A02120098
:108CE700B3D00290A316E05407FBBB040280040A2A
:108CF700028B73902238E0FA530201BA0103028E05
:108D07004F789479D97A021200B378F479E07A022D
:108D17001200B3758216784979927A011200B390DE
:108D27002200E0FA90E650E0FBEAB50309908200E2
:108D3700E04404F08007908200E030E2F990E6BE5C
:108D4700E06025902200E07017788E79BA7A0212D7
:108D570000B3758203782D79927A011200B38008E7
:108D670090E6B6E0FABA03F890E6C2E060279022F0
:108D770000E0FABA0117788E79BA7A021200B37551
:108D87008203782D79927A011200B3800890E6BAAF
:108D9700E0FABA03F8902200E0FA90E650E0FBEA26
:108DA700B50309908200E054FBF08007908200E051
:108DB70020E2F9758218784979927A011200B39006
:108DC7002200E0FA90E650E0FBEAB5030990820042
:108DD700E04408F08007908200E030E3F990E6BEB7
:108DE700E06025902200E0701778D779B37A0212F5
:108DF70000B3758205782D79927A011200B3800845
:108E070090E6B6E0FABA05F890E6C2E0602790224D
:108E170000E0FABA011778D779B37A021200B3756E
:108E27008205782D79927A011200B3800890E6BA0C
:108E3700E0FABA05F8908200E054F7F075820078FE
:108E47004979927A011200B3902003E054FBF09025
:108E57002003E054FEF090216AE054FBF090216378
:108E6700E054BFF0900244E04480F090024CE0549C
:108E77007FF090600AE04420F0906638E4F0906656
:108E870039F090822CE054EFF090E6B1E4F0906076
:108E970003E04401F090A318E030E52C90E650E0A1
:108EA7007006902200E0601090E650E0FABA0111D7
:108EB700902200E0FABA010990A318E054DFF0808D
:108EC7000790A318E020E5F990A316E05407FABA33
:108ED700031190E61FE090678FF090E61EE0FA908E
:108EE700678EF090662BE4F0906623E0FA700890A6
:108EF70022307419F08015902007E030E5089022A1
:108F0700307419F08006902230741AF00200C59070
:108F1700E607E030E00302922AD2167A007407B51A
:108F270002005003029217EA2A2A908F3573028FA4
:108F37004D028F9502901902903302905002906D66
:108F47000291470291E2C00278B979BE7A02120013
:108F5700B3E5828583F0D002906617F0A3E5F0F0C1
:108F6700906624E0FB700302921790A34EE020E581
:108F77000302921790E60DE020E503029217C00264
:108F8700787979DF7A011200B3D0020292179060E4
:108F97000AE020E303029217906638E0FBBB011D4D
:108FA70090E60EE030E016902002E030E20FC002BB
:108FB700781C79E67A021200B3D0028037906638BF
:108FC700E0FBBB03005007902007E020E413906606
:108FD70038E0FB7402B50300501A902102E030E636
:108FE70013906638E0F582C002788479EC7A021231
:108FF70000B3D002906638E02401F0906638E0FBB9
:109007007405B503004003029217906638E4F00236
:10901700921790E60EE020E303029217C002783918
:1090270079807A011200B3D00202921790E60EE01F
:1090370020E103029217758200C00278AD79AD7AFC
:10904700011200B3D00202921790E60EE020E2036D
:10905700029217758200C002787279AE7A01120007
:10906700B3D002029217906639E0FB7404B503008F
:109077005003029129EB2B2B90908373029092025D
:1090870090A20290B20290C10290EEC002780979D4
:109097009F7A021200B3D002029129C002785F7949
:1090A700A27A021200B3D002029129C0027828796D
:1090B700A67A021200B3D0028068902007E030E45D
:1090C70061900258E05407700FC00278E579977AEB
:1090D700021200B3D002804AC00278A5799B7A02B7
:1090E7001200B3D002803B902200E0FB90E650E0F4
:1090F700FCEBB5042D90661CE0FB702690E60EE0B5
:1091070030E41F90A34FE030E01890833CE0035415
:1091170001FBBB010DC002787479C97A021200B352
:10912700D002906639E02401F0906639E0FB7404C0
:10913700B503004003029217906639E4F0029217D4
:10914700A203E433FB9022B4EBF0902200E0FB9003
:10915700E650E0FCEBB50402800302921790661C10
:10916700E0FB600302921790A34FE020E003029216
:109177001720030302921790E60DE020E603029200
:1091870017C00278D679CD7A021200B3D00290E6E2
:1091970006E0541C7041906626E0FB74F05BFCBC53
:1091A700100C758BFB758DFFD28EC203806274F035
:1091B7005BFCBC200C758BD8758DFFD28EC20380EB
:1091C7004F5303F0BB300C758B9C758DFFD28EC24D
:1091D70003803DD2038039D2038035902200E0FB23
:1091E70090E650E0FCEBB5042790661CE0FB70208E
:1091F70090A319E030E61990E60EE0C4035401FB92
:10920700BB010DC00278CA79C67A021200B3D00238
:10921700902231E0700B8A030ABB08005003028FCB
:1092270024C2160200C5AA82902232EAF0902200D8
:10923700E0700790E6B6EAF0800590E6BAEAF00239
:1092470000C5AA8290A316E05407FBBB040D902229
:1092570038E0FB530301BB0102803C8A82C00278DD
:109267002D79927A011200B3D00290E6B6E0FBB5F1
:10927700020A90E6BAE0FBB50202801B90E6BEE068
:10928700601590E6C2E0600FC002780579C07A02E7
:109297001200B3D00280D30200C5C018858118051B
:1092A7008112434190A316E05407FABA041190675C
:1092B7008CE0FA90678DE0FBEAB5030302944F90C8
:1092C7002200E0FA90E650E0FBEAB50302800302D1
:1092D700935F787779D47A021200B39082B4E0541E
:1092E700074480F09082B4E054F84402F09082C8BA
:1092F700E0540FF090A316E05407FABA0406C22808
:10930700C229802B30111D30100DA20FB3922A9263
:1093170028A20F92298018A20F9228A20FB3922A8F
:109327009229800BA20FB3922A9228A20F9229A208
:109337000FE43390E61EF0A228E433F582C025122D
:109347003986D02590A319E054EFF0C025784779E6
:10935700D47A021200B3D0259022B47432F090660A
:1093670015E09022B5F0906616E09022B6F090676F
:109377008CE09022B7F0906300E09022B8F0A21240
:10938700E4339022B9F0A210E4339022BAF0A20F8E
:10939700E4339022BBF0906624E0FA9022BCF0A25E
:1093A70012B39228E433FB90A32413E092E0F0EA8F
:1093B700700302943F90A316E05407FABA0402C25E
:1093C70029301274C025788F79D47A021200B3D06D
:1093D70025A229E433F582123D59908300E0540712
:1093E7004480F0908304E054F04408F0908308E050
:1093F700541F4460F090830C7484F0908304E0540D
:10940700CFF090A324E04420F0900005781679BCB3
:109417007A021200B390A34DE04404F0900005785F
:109427001679BC7A021200B390A333E054F7F078B0
:10943700A779D47A021200B3906623E0FA7009780C
:10944700D779D47A021200B3851881D0180200C5E3
:109457009026647403F0A3F0A37404F0A3E4F090DF
:109467002664F0A3F0A3F0A3F090215B7460F0E40E
:10947700F0902102E030E607902002E020E22E90F3
:1094870026647408F0E4F0902678E0FAA3E0A3E0FD
:10949700FCA3E0FD5302027B0053041F5305A09079
:1094A7002678EAF0A3EBF0A3ECF0A3EDF09022E42A
:1094B700E030E00D90602E7402F0906033E04401DC
:1094C700F0201603029565C216902200E0FA90E696
:1094D70050E0FBEAB50309788879CC7A021200B329
:1094E700900034E054FEF0900044E054EFF0900216
:1094F70020E054FEF0900218E054FEF090021CE0C9
:1095070054FEF090003CE054FDF090021CE054FD46
:10951700F0900220E054FDF0900040E054FDF09000
:10952700822CE0547FF09082D8E054FEF090004007
:10953700E054FEF090024CE0547FF090025CE0545F
:10954700FDF0900060E054FDF09082DCE0547FF085
:10955700908304E054BFF0908310E0547FF0020042
:10956700C5C018858118058105819061707401F067
:109577009066F7E0FABA0102800B90E607E0035421
:1095870001FABA0106200803029D159060A2E4F0D3
:109597009060A3F0906797E0FA906174E0FBA3E016
:1095A700FCEB20E0030296569060A27401F0902134
:1095B70063E0547FF090240CE0547FF0902102E0A8
:1095C7004480F0E0547FF0C002780579C07A021237
:1095D70000B3902403E054BFF0758E07902410E089
:1095E7004404F0E054FBF0758E009022D0E04480F4
:1095F700F09022D4E04480F09022D0E0547FF090A5
:1096070022D4E0547FF0781D799D7A011200B3D0FF
:10961700029060A27402F09060A0E030E131C002D5
:1096270078A5798C7A021200B375820078CF798C8D
:109637007A021200B375821078CF798C7A02120001
:10964700B375821278CF798C7A021200B3D0029068
:109657006174E0FBA3E0FCEB30E12A9060A27403A5
:10966700F0C00274FFC0E0900000785479937A024A
:109677001200B31581D002902163E04480F090245A
:109687000CE04480F0906174E0FBA3E0FCEB20E287
:10969700030297B09060A27404F0758201C002784B
:1096A7004479927A021200B375820078D879967A53
:1096B700021200B3D002906174E0FBA3E0FCEB3030
:1096C700E51B9060A27405F0C002E4C0E0900A01B7
:1096D700785479937A021200B31581D002758B18EA
:1096E700758DFCD28EC2039060A27406F0C002741E
:1096F70001C0E0900A01785479937A021200B315F9
:1097070081D002906661E0FBB50202806E9060A294
:109717007408F0EBFC3395E0FDEC24FEFEED34FF1E
:10972700FFA81808A602EA3395E008F6A81808C3A8
:10973700E69E08E664808FF063F08095F050040A97
:109747000A802074022CFCE43DFDA81808C3EC969F
:10975700ED64800886F063F08095F050041A1A8053
:10976700028B02906662E0FBC002C0038A82122E5F
:10977700071581D0022003030296EE30030F906095
:10978700A3E0FA4302029060A3EAF0C203C28EC2CA
:109797008F75820078CF798C7A021200B3758210A8
:1097A70078CF798C7A021200B3906174E0FAA3E063
:1097B700FBEA20E4030299739060A2740AF09024F4
:1097C70001E054FDF0902401E054FEF0906174E054
:1097D700FAA3E0FBEA30E53A9060A2740BF07582D9
:1097E70001784479927A021200B375820078D879A9
:1097F700967A021200B390240BE04480F0E054BF45
:10980700F0E4C0E0900A01785479937A021200B329
:109817001581906174E0FAA3E0FBEA30E6499060B5
:10982700A2740CF0202718758201784479927A0285
:109837001200B375820078D879967A021200B39035
:10984700240BE04480F0E054BFF0902402E0440889
:10985700F0E054FBF07402C0E0900A017854799369
:109867007A021200B31581906174E0FAA3E0FBEA73
:1098770030E7609060A2740DF02027187582007899
:109887004479927A021200B375820278D879967A6F
:10989700021200B390240BE04480F0E054BFF09034
:1098A7002402E04408F0E054FBF03008147402C0CE
:1098B700E0900000785479937A021200B315818002
:1098C700127402C0E0900302785479937A0212006E
:1098D700B31581906174E0FAA3E0FB20E0030299DD
:1098E700739060A2740EF02027187582007844796F
:1098F700927A021200B375820278D879967A0212A8
:1099070000B390240BE0547FF090240BE054BFF099
:10991700902402E054F7F0902402E054FBF09067A3
:1099270015E0FA60147404C0E09002047854799347
:109937007A021200B3158180127402C0E09002040B
:10994700785479937A021200B3158178A5798C7AC5
:10995700021200B375821078CF798C7A021200B3A5
:1099670075820078CF798C7A021200B3906174E027
:10997700FAA3E0FB20E103029A099060A27410F0B9
:10998700902401E054FDF0902401E054FEF0906033
:10999700A27411F090240BE0547FF0E04440F09063
:1099A7002402E054F7F0E04404F07403C0E0900AA6
:1099B70001785479937A021200B315819060A274EA
:1099C70012F090240BE0547FF090240BE054BFF08A
:1099D700902402E054F7F0902402E054FBF0740363
:1099E700C0E0900302785479937A021200B315818C
:1099F7009060A27413F075821278CF798C7A021274
:109A070000B3906174E0FAA3E0FB20E203029A96A8
:109A17009060A27414F0758200784479927A0212E9
:109A270000B375820278D879967A021200B39060F3
:109A3700A27415F0902401E04402F090240BE04456
:109A470080F0E054BFF0E4C0E090080278547993C6
:109A57007A021200B315819060A27416F090240B5D
:109A6700E0547FF090240BE054BFF0E4C0E0900492
:109A770004785479937A021200B3158175820178BC
:109A8700CF798C7A021200B3902401E054FDF09054
:109A97006174E0FAA3E0FB20E403029C3D9060A21E
:109AA7007418F0202718758200784479927A021288
:109AB70000B375820278D879967A021200B390249F
:109AC70004E054BFF0902401E04401F07A007B00E9
:109AD700758202C002C0037897798B7A021200B3AD
:109AE700D003D0029060A27419F090240BE0448058
:109AF700F0E054BFF020271BC002C003E4C0E09091
:109B07000A02785479937A021200B31581D003D0F0
:109B1700028019C002C003E4C0E0900802785479BB
:109B2700937A021200B31581D003D0029060A27419
:109B37001AF090240BE0547FF0E04440F020271BFC
:109B4700C002C003E4C0E0900804785479937A0215
:109B57001200B31581D003D0028019C002C003E4FC
:109B6700C0E0900604785479937A021200B3158105
:109B7700D003D0029060A2741CF0EB7016758202BD
:109B8700C002C00378CF798C7A021200B3D003D019
:109B970002802DEA7016758203C002C00378CF7960
:109BA7008C7A021200B3D003D0028014758204C0ED
:109BB70002C00378CF798C7A021200B3D003D002A7
:109BC7009060A2741BF09060A0E030E35BEB701F25
:109BD7007B01906661E0FCC002C003906700E0C0B3
:109BE700E08C82122E071581D003D002029AD7EAA1
:109BF700701F7A01906661E0FCC002C003906702A3
:109C0700E0C0E08C82122E071581D003D002029AA1
:109C1700D7906701E0FA906662F0906661E0FBC05A
:109C2700028B82122E071581902401E054FEF090DA
:109C37002404E04440F0906174E0FAA3E0FB20E6DE
:109C470003029CEC90604FE030E603029CEC9060CE
:109C5700A27421F0902580E04401F090605AE02042
:109C6700E2207582017897798B7A021200B37862C5
:109C7700799D7A011200B37812798B7A021200B3B8
:109C8700800F906039E0F5827812798B7A021200A2
:109C9700B39060A27422F0902580E04404F0E05471
:109CA700FBF090605AE030E21474FFC0E0902008A7
:109CB700785479937A021200B31581801274FFC029
:109CC700E0900A05785479937A021200B3158190CF
:109CD70060A27423F078CA79887A021200B3AA8244
:109CE700906170EAF090605AE020E21C2008199019
:109CF70060A27424F07582017897798B7A0212003A
:109D0700B3902580E054FEF09060A27425F085188A
:109D170081D0180200C5902403E04420F0E054DF0E
:109D2700F0E04402F0902403E054FDF0E04401F039
:109D3700E054FEF0758B9C758DFFD28EC203200315
:109D47001790240BE030E5F6780579C07A02120007
:109D5700B390240BE030E5E60200C5906158E0FAC5
:109D6700906159E0FBC0038A82783B79C07A02127E
:109D770000B3AB8215818B0290615AE0FBC0038A66
:109D870082783B79C07A021200B3AB8215818B02CD
:109D970090615BE0FBC0038A82783B79C07A02124C
:109DA70000B3AB8215818B0290615CE0FBC0038A34
:109DB70082783B79C07A021200B3AB8215818B029D
:109DC70090615DE0FBC0038A82783B79C07A02121A
:109DD70000B3AB8215818B0290615EE0FBC0038A02
:109DE70082783B79C07A021200B3AB8215818B026D
:109DF70090615FE0FBC0038A82783B79C07A0212E8
:109E070000B3AB8215818B0290E6AFE0C4540FFB21
:109E17008BF005F0EA8002C313D5F0FBFA90E6AFAA
:0B9E2700E0540FFB2AFAF5820200C590
:020000040000FA
:1000DE00D315D3111003D77590550040000280013F
:0A00EE000010D3019300D755D3058D
:020000040001F9
:109E3200902402E054EFF0900054E04408F09000C7
:109E420054E04404F0900054E04402F0900054E0E6
:109E52004401F0900058E04480F0902401E0440472
:109E6200F0902418E054EFF0902418E054DFF090C2
:109E72002405E054FEF0902405E054F7F00200C5FA
:109E820090604CE020E403029F6390604CE030E37A
:109E920003029F6390604CE030E503029F6390668B
:109EA200F7E0FA6003029F63906725E0FA6003021D
:109EB2009F6390663AE02401F090663AE0FA7403F8
:109EC200B502004003029F6390663AE4F075820196
:109ED2007897798B7A021200B378F979907A021224
:109EE20000B3902409E4F0902408E0FA53020D90A4
:109EF2002408EAF090240AE04440F0902405E0545B
:109F0200FDF0902405E054FEF0902405E054F7F0B3
:109F1200902400E044F0F07404C0E09010107854F3
:109F220079937A021200B3158178F979907A021244
:109F320000B3902408E0FA5302F0902408EAF0906B
:109F4200240AE054BFF07404C0E090100178547900
:109F5200937A021200B3158178A5798C7A021200E5
:109F6200B30200C590604CE030E02B900264E03018
:109F7200E209900264E054FBF0802D900264E04418
:109F820004F07882799E7A011200B378B179DF7A8F
:109F9200021200B380127882799E7A011200B3789D
:0B9FA200B179DF7A021200B30200C5A3
:020000040002F8
:10888E00C018858118AA82AB83ACF0FDE51824F9D7
:10889E00F8C3E69A08E69B08E69C08E69D50098A0E
:1088AE00828B838CF0ED800FE51824F9F886820810
:1088BE0086830886F008E6D0180200C5C018E58148
:1088CE00F5182408F581902560E0FAA3E0FBA3E0FB
:1088DE00FCA3E0FDE5182405F8A60208A60308A6E9
:1088EE000408A605902564E0FEA3E0FFA3E0FAA32A
:1088FE00E0FBC006C007C002C003E5182405F886D9
:10890E00820886830886F008E6788E79887A0212C5
:10891E0000B3AA82AB83ACF0FDE58124FCF581E5C2
:10892E00182405F8A60208A60308A60408A60590B2
:10893E002568E0FAA3E0FBA3E0FCA3E0FDC002C0C3
:10894E0003C004C005E5182405F88682088683084E
:10895E0086F008E6788E79887A021200B3AA82AB86
:10896E0083ACF0FDE58124FCF581E5182405F8A61D
:10897E000208A60308A60408A60590256CE0FAA333
:10898E00E0FBA3E0FCA3E0FDC002C003C004C005F1
:10899E00E5182405F886820886830886F008E678AE
:1089AE008E79887A021200B3AA82AB83ACF0FDE511
:1089BE008124FCF581E5182405F8A60208A6030813
:1089CE00A60408A605902570E0FAA3E0FBA3E0FC40
:1089DE00A3E0FDA81808A60208A60308A60408A688
:1089EE0005902574E0FEA3E0FFA3E0FAA3E0FBC030
:1089FE0006C007C002C003A818088682088683082E
:108A0E0086F008E6788E79887A021200B3AA82ABD5
:108A1E0083ACF0FDE58124FCF581A81808A60208B8
:108A2E00A60308A60408A605902578E0FAA3E0FBA5
:108A3E00A3E0FCA3E0FDC002C003C004C005A8185B
:108A4E000886820886830886F008E6788E79887A0A
:108A5E00021200B3AA82AB83ACF0FDE58124FCF5D3
:108A6E0081A81808A60208A60308A60408A6059061
:108A7E00257CE0FAA3E0FBA3E0FCA3E0FDC002C06E
:108A8E0003C004C005A8180886820886830886F0ED
:108A9E0008E6788E79887A021200B3AA82AB83AC8C
:108AAE00F0FDE58124FCF581A81808A60208A603AE
:108ABE0008A60408A60590E6AEE0FAE4FBFCFDE588
:108ACE00182405F8C3E69A08E69B08E69C08E69D7E
:108ADE005005758200802590E6ACE0FAA3E0FB7CA1
:108AEE00007D00A81808C3EA96EB0896EC0896EDF0
:108AFE00089650057582008003758201851881D015
:108B0E00180200C5AA82902440EA543FF5F0E054C2
:108B1E00C045F0F0902441EA543FF5F0E054C045D2
:108B2E00F0F0902442EA543FF5F0E054C045F0F0E6
:108B3E00902443EA543FF5F0E054C045F0F0902401
:108B4E0060EA543FF5F0E054C045F0F0902461EA3D
:108B5E00543FF5F0E054C045F0F0902462EA543FE3
:108B6E00F5F0E054C045F0F0902463EA543FF5F080
:108B7E00E054C045F0F0902430740FF0E4F09024EF
:108B8E0034740FF0E4F00200C5AA82BA0102800824
:108B9E00BA0202805F028C9B7440C0E0E4C0E074B5
:108BAE0078C0E07461C0E0E4C0E090244075F0004D
:108BBE00787879C17A021200B3E58124FBF58190B1
:108BCE00243074FFF0A3F0A3F0A3747FF090243050
:108BDE00E4F0A3F0A3F0A3F090243474FFF0A3F01C
:108BEE00A3F0A3747FF0902434E4F0A3F0A3F0A3D9
:108BFE00F0028C9B906178E0902440543FF5F0E0B9
:108C0E0054C045F0F0906179E0902441543FF5F066
:108C1E00E054C045F0F090617AE0902442543FF564
:108C2E00F0E054C045F0F090617BE0902443543F57
:108C3E00F5F0E054C045F0F0906198E09024605457
:108C4E003FF5F0E054C045F0F0906199E09024615A
:108C5E00543FF5F0E054C045F0F090619AE0902456
:108C6E0062543FF5F0E054C045F0F090619BE0FA9D
:108C7E00902463543FF5F0E054C045F0F09024305A
:108C8E00740FF0E4F0902434740FF0E4F090240BA1
:108C9E00E030E5F90200C57440C0E0E4C0E0748045
:108CAE00C0E07424C0E0E4C0E090617875F0007814
:108CBE007879C17A021200B3E58124FBF5810200B6
:108CCE00C5AA82BA00028027BA0103028D53BA02E6
:108CDE0003028D97BA0303028DDBBA0403028E1FC3
:108CEE00BA1003028E63BA1203028E8D028F669043
:108CFE0024D0E0906148F09024D1E0906149F0904A
:108D0E0024D2E090614AF09024D3E090614BF09031
:108D1E0024F0E090614CF09024F1E090614DF090E1
:108D2E0024F2E090614EF09024F3E0FA90614FF05F
:108D3E0090240BE030E2047A0180027A0090617197
:108D4E00EAF0028F669024D0E0906150F09024D12A
:108D5E00E0906151F09024D2E0906152F09024D3D3
:108D6E00E0906153F09024F0E0906154F09024F183
:108D7E00E0906155F09024F2E0906156F09024F36B
:108D8E00E0FA906157F0028F669024D0E09061581F
:108D9E00F09024D1E0906159F09024D2E090615A85
:108DAE00F09024D3E090615BF09024F0E090615C51
:108DBE00F09024F1E090615DF09024F2E090615E1D
:108DCE00F09024F3E0FA90615FF0028F669024D069
:108DDE00E0906160F09024D1E0906161F09024D237
:108DEE00E0906162F09024D3E0906163F09024F003
:108DFE00E0906164F09024F1E0906165F09024F2CF
:108E0E00E0906166F09024F3E0FA906167F0028FD3
:108E1E00669024D0E0906168F09024D1E090616972
:108E2E00F09024D2E090616AF09024D3E090616BD0
:108E3E00F09024F0E090616CF09024F1E090616D80
:108E4E00F09024F2E090616EF09024F3E0FA9061DD
:108E5E006FF0028F667440C0E0E4C0E074D0C0E0F2
:108E6E007424C0E0E4C0E090610075F00078787979
:108E7E00C17A021200B3E58124FBF581028F669060
:108E8E0024C0E0547F9061B8547FF5F0E0548045E3
:108E9E00F0F09024C1E0547F9061B9547FF5F0E07A
:108EAE00548045F0F09024C2E0547F9061BA547F14
:108EBE00F5F0E0548045F0F09024C3E0547F9061CB
:108ECE00BB547FF5F0E0548045F0F09024C4E0549C
:108EDE007F9061BC547FF5F0E0548045F0F0902413
:108EEE00C5E0547F9061BD547FF5F0E0548045F0AD
:108EFE00F09024C6E0547F9061BE547FF5F0E054AC
:108F0E008045F0F09024C7E0547F9061BF547FF508
:108F1E00F0E0548045F0F0902510E0906140F09024
:108F2E002511E0906141F0902512E0906142F090A1
:108F3E002513E0906143F0902514E0906144F09089
:108F4E002515E0906145F0902516E0906146F09071
:108F5E002517E0FA906147F00200C5AA82BA000216
:108F6E008009BA020302900502908E906148E0904B
:108F7E002440543FF5F0E054C045F0F0906149E0D4
:108F8E00902441543FF5F0E054C045F0F090614A12
:108F9E00E0902442543FF5F0E054C045F0F090616B
:108FAE004BE0902443543FF5F0E054C045F0F09070
:108FBE00614CE0902460543FF5F0E054C045F0F071
:108FCE0090614DE0902461543FF5F0E054C045F0BF
:108FDE00F090614EE0902462543FF5F0E054C045AD
:108FEE00F0F090614FE0FA902463543FF5F0E054B6
:108FFE00C045F0F002908E906158E0902440543FAE
:10900E00F5F0E054C045F0F0906159E090244154E1
:10901E003FF5F0E054C045F0F090615AE0902442E4
:10902E00543FF5F0E054C045F0F090615BE09024C1
:10903E0043543FF5F0E054C045F0F090615CE09091
:10904E002460543FF5F0E054C045F0F090615DE0CF
:10905E00902461543FF5F0E054C045F0F090615E0D
:10906E00E0902462543FF5F0E054C045F0F090617A
:10907E005FE0FA902463543FF5F0E054C045F0F001
:10908E00902430740FF0E4F0902434740FF0E4F078
:10909E0090240BE030E5F90200C5E582FA602B90D2
:1090AE00604CE030E010900264E054E7F090020C67
:1090BE00E0548FF08026900264E054E74408F0906C
:1090CE00020CE0548F4430F08012900264E054E7BA
:1090DE004410F090020CE0548F4420F090000A7877
:1090EE001679BC7A021200B30200C59060A4E0307B
:1090FE00E4119024087455F0A3F090240AE054C0B3
:10910E00F0800F90240874FFF0A3F090240AE0443E
:10911E003FF0902401E054FDF0902401E054FEF065
:10912E0090240AE054BFF0902402E054F7F090240B
:10913E0002E054FBF090240BE0547FF090240BE0FF
:10914E0054BFF00200C5902401E0C4035401FABAE2
:10915E000126758B18758DFCD28EC203902401E00A
:10916E0054DFF0902402E020E1033003F690240255
:10917E00E054FEF0C28EC28F0200C590E607E030CA
:10918E00E203029241902401E030E5030292419005
:10919E0066F7E0FABA010302924190604CE020E4D7
:1091AE000790604CE030E30302924175820178979C
:1091BE00798B7A021200B3902406E0543F4480F07B
:1091CE009024077405F078F979907A021200B39022
:1091DE002408E0FA5302FD902408EAF090240AE0F5
:1091EE004440F0902405E054FDF0902405E054FE38
:1091FE00F0902405E054F7F0D20DD20C7582007871
:10920E004479927A021200B3902401E04420F09047
:10921E002402E054FEF0E04401F090604EE030E7AE
:10922E0012902401E054FBF0E04410F0902401E091
:10923E004401F00200C5AA82300C07200D047B0CFD
:10924E008013200C07300D047B038009BA01047BC8
:10925E000C80027B0F9060A4E0540FF4FA5203903E
:10926E002400EBC454F0F5F0E0540F45F0F002008A
:10927E00C5900228E003035407FA5302039060A43A
:10928E00E054EFF09067947420F09060A4E054DF07
:10929E00F0BA0313902402E0547FF0E04440F090C3
:1092AE0067937408F0804EBA0213902402E0448053
:1092BE00F0E054BFF09067937404F08038BA012147
:1092CE00902402E0547FF0E04440F09067937402E3
:1092DE00F09060A4E04410F09060A4E04420F08090
:1092EE0014902402E04480F0902402E04440F09078
:1092FE0067937401F0900228E003035407FB30E2F9
:10930E000B906793E025E0FB906793F09066F7E093
:10931E00FB700D906793E0C42354E0FB906794F0CC
:10932E00EA7010902402E04420F09060A4E054F023
:10933E00F08010902402E054DFF09060A4E054F02E
:10934E004405F00200C5C018858118AA82AB83902F
:10935E006038E023235401FCBC010280119066F7B3
:10936E00E0FCBC01028007902411E020E10302958D
:10937E00EC90604FE030E71C902405E0540FF09025
:10938E002406E054C0F0902406E0543FF0902407E9
:10939E00E4F0804A8B04740F5C902405C454F0F5FD
:1093AE00F0E0540F45F0F0ECC4540FFC53043F9022
:1093BE002406EC543FF5F0E054C045F0F074035A27
:1093CE00FB902406030354C0F5F0E0543F45F0F043
:1093DE00EA0303543FFA53023F902407EAF0E518DC
:1093EE0024FCF8E624F950030294D0E51824FCF886
:1093FE00E625E0269094067302941B02943702949D
:10940E005402946D02948302949C0294B5902408A5
:10941E007401F0902409E4F090240AE054C0F09016
:10942E00240AE054BFF00294E790240874FFF090F1
:10943E00240974FFF090240AE054C0F090240AE04E
:10944E0054BFF00294E790240874FFF0902409743E
:10945E00FFF090240AE0443FF0E054BFF0807A9091
:10946E002408E4F0902409F090240AE054C0F0E0BF
:10947E004440F0806490240874FDF090240974FF39
:10948E00F090240AE0443FF0E054BFF0804B90246B
:10949E000874F0F090240974FFF090240AE0443F21
:1094AE00F0E054BFF08032902408740DF09024093F
:1094BE00E4F090240AE0443FF090240AE04440F0A7
:1094CE008017902408E4F0902409F090240AE054C8
:1094DE00C0F090240AE054BFF0E51824FCF8B6FF63
:1094EE0002804D9060A0E030E21B902408E0FA5319
:1094FE000201902408EAF0902409E4F090240AE096
:10950E0054C0F0802B9060A4E030E50790240AE070
:10951E0054C0F09060A4E030E416902408E0FAA362
:10952E00E0FB530255530355902408EAF0A3EBF0E9
:10953E00900264E0C4235403FABA0202800D902410
:10954E0008E0FA5302FD902408EAF0902402E05459
:10955E00FEF0E04401F0780579C07A021200B39073
:10956E006098E020E45330080C758BF8758DFFD2AF
:10957E008EC203800A758B18758DFCD28EC2039035
:10958E002402E020E1033003F6902402E054FEF0C2
:10959E003003209022C2E0FA0A9022C2EAF09060D4
:1095AE00A3E0FA4302019060A3EAF0C20390679928
:1095BE007401F0C28EC28F800E902402E030E1F969
:1095CE00902402E054FEF0902408E4F0902409F078
:1095DE0090240AE054C0F090240AE054BFF0D01852
:1095EE000200C5AA82906016E0FB900224C42354A8
:1095FE0060F5F0E0549F45F0F0BA01028003029648
:10960E00A1902403E04440F09061B8E090243854D7
:10961E007FF5F0E0548045F0F09061B9E090243988
:10962E00547FF5F0E0548045F0F09061BAE090245C
:10963E003A547FF5F0E0548045F0F09061BBE09035
:10964E00243B547FF5F0E0548045F0F09061BCE08F
:10965E0090243C547FF5F0E0548045F0F09061BDCD
:10966E00E090243D547FF5F0E0548045F0F0906199
:10967E00BEE090243E547FF5F0E0548045F0F0902B
:10968E0061BFE0FA90243F547FF5F0E0548045F03E
:10969E00F08007902403E054BFF0902403E04420B0
:1096AE00F0E054DFF0758B9C758DFFD28EC20320D7
:1096BE00031590240BE0C4035401FA90240BE0C46C
:1096CE00035401FB5A60E80200C5AA82BA00028068
:1096DE0005BA012D8017902405E04408F09024056A
:1096EE00E04401F0902405E04402F0803D90240512
:1096FE00E04408F0E054FEF0902405E054FDF080C4
:10970E0029902405E054F7F0902400E0C4540FFA99
:10971E00BA0F09902405E054FDF08007902405E06F
:10972E004402F0902405E054FEF00200C59066F865
:10973E00E0FA7403B502004072EA2A2A90974E733B
:10974E0002975A0297710297930297A7900058E0DA
:10975E0054DFF0900058E054BFF0900058E054EF02
:10976E00F08048A20DE43390005813E092E5F0A289
:10977E000CE433FA90005813E092E6F0900058E0B3
:10978E0054EFF08026900058E04420F0900058E00E
:10979E004440F0E054EFF08012900058E054DFF0B7
:0E97AE00900058E054BFF0E04410F00200C5F7
:020000040000FA
:1000F800906099E0FABA17028005BA2310800B784D
:100108000C79B07A021200B38003127BE7906098F2
:05011800E054FEF0229E
:10022200C018858118058105819022D8E04420F00C
:10023200E054DFF09022B47414F09022E4E020E065
:100242000A906033E054FEF00204F07A0290601FDC
:10025200E0FBA81808A60390601CE0FC906023E075
:10026200FD530580A8180808E4BD800104F69060DB
:1002720020E0FEA3E0FFA3E0FDA3E0FB906024EEFC
:10028200F0A3EFF0A3EDF0A3EBF0906023E0FB53BB
:10029200030F90A316E05407FDBD043290E62CE054
:1002A200540FFD902033E0C4540FF582C002C00405
:1002B200C005783B79C07A021200B3AD8215818DF8
:1002C200038B82124230AD82D004D0028D03BB0573
:1002D2000040057A040204BAA8180808E660027B06
:1002E20080C0029022B47413F09022B5A81808E6D8
:1002F200F09022B6ECF0906020E0FDA3E0FEA3E0D7
:10030200FFA3E0FA9022C4EDF0A3EEF0A3EFF0A376
:10031200EAF0A81808B660028004D002800FD0026A
:10032200902678E020E0030204BA0204F0A818083C
:10033200B68071740BB5040050030204BAEC2C2C85
:100342009003467302036A02036A0203A30203A331
:100352000203A30203A302037A02037A02038A02BC
:10036200038A02039A02039AC0048B821204F6AD36
:100372008215818D020204BAC0048B8212096AAD11
:100382008215818D020204BAC0048B82120E06AD60
:100392008215818D020204BA8C82120C9AAD828D72
:1003A200020204BAA81808B681477405B5040050C1
:1003B200030204BAEC2C2C9003BD730203CF020398
:1003C200CF0203DB0203DB0203E70203E78C8212A4
:1003D2000CD3AD828D020204BA8C82120D1FAD8243
:1003E2008D020204BA8C82120DB1AD828D0202041A
:1003F200BAA81808B682667407B50400500302044E
:10040200BAEC2C2C90040A73020422020422020485
:100412003202043202044102044102045002045036
:10042200C0048B82120AF3AD8215818D020204BAD6
:10043200C0048B82120792AD8215818D028079C031
:10044200048B82120674AD8215818D02806AC0040B
:100452008B82120884AB8215818B02805BA81808FC
:10046200B68313BC00028003BC014D8C82120ACDFC
:10047200AB828B028042A81808B6843CBC00028082
:1004820005BC0134801A906020E0FB5303039022E4
:1004920000E0FCEBB50421120F8CAB828B028018BA
:1004A200906020E0FB530303902200E0FCEBB504D4
:1004B20007120FBDAB828B0290602EEAF090603380
:1004C200E04401F09022B4740FF090602EE090228C
:1004D200B5F0906024E0FAA3E0FBA3E0FCA3E0FD0A
:1004E2009022C4EAF0A3EBF0A3ECF0A3EDF08518A0
:1004F20081D01822C018858118AA82BA800280038E
:100502000205FBE51824FDF8B60167902650E0903D
:100512006024F0902651E0FB906025F0902652E096
:1005220030E70D906024E0FB430308906024EBF079
:10053200902652E030E60D906024E0FB43030490E5
:100542006024EBF0902652E030E50D906024E0FB51
:10055200430302906024EBF09067A4E0FB70030277
:10056200066E906024E0FB430301906024EBF002EE
:10057200066E902653E04480F0906020E090265072
:10058200F0906021E0902651F090E628E0035401BB
:10059200FBBB0152906020E0FB530308BB0803D36E
:1005A2008001C39228E43390265213E092E7F09040
:1005B2006020E0FB530304BB0403D38001C39228F1
:1005C200E43390265213E092E6F0906020E0FB5371
:1005D2000302BB0203D38001C39228E433FB9026BB
:1005E2005213E092E5F0906020E0FB530301906724
:1005F200A4E4BB010104F08073E51824FDF8B60100
:1006020026EA2AFB24D0F582E43460F583E0906088
:1006120024F0EB24D0FBE43460FC8B828C83A3E0D7
:10062200FB906025F08045EA2AFB24D0FCE434608C
:10063200FD906020E0FE8C828D83F0EB24D0FBE401
:100642003460FC0BBB00010C906021E0FD8B828CBE
:1006520083F09060CFE0FB8AF005F0740180022500
:10066200E0D5F0FBFA42039060CFEBF0758200D048
:100672001822C018858118AA82BA80028003020655
:10068200FEE51824FDF8B60528900050E09060249D
:10069200F0E0FB900054E0FC74E05C4203906024C4
:1006A200EBF0902411E0035401FB906025F0020767
:1006B2008C906020E0900050F0900054E0FB5303D7
:1006C2001F900054EBF0E0FB906020E0FC74E05CD3
:1006D2004203900054EBF0906021E054019024100A
:1006E20013E092E4F0902410E0C4540190240CE052
:1006F20023235401FB9066F7F002078CE51824FDD2
:10070200F8B60536EA2A25E024B4F582E43460F529
:1007120083E0906024F0EA75F050A42404FB746333
:1007220035F0FC74412BF582E43CF583E0FBE4BB3D
:10073200000104FB906025F08050EA2A25E024B4F1
:10074200FBE43460FC906020E08B828C83F0EA75DD
:10075200F050A42404FB746335F0FC74412BFBE4D9
:100762003CFC906021E0FD530501E4BD000104FD65
:100772008B828C83F08AF005F07401800225E0D52B
:10078200F0FBFA9067A8E0FB4AF0758200D01822CD
:10079200C018858118AA82BA8040E51824FDF8B6EF
:1007A2000317900200E0FB906024EBF0900204E05B
:1007B200FB906026EBF002087E906020E0FB900246
:1007C20000EBF0906022E0FB900000EBF0906022E2
:1007D200E0FB900204EBF002087EE51824FDF8B677
:1007E2000330EA2A25E0FB24B4FCE43460FD8C8269
:1007F2008D83A3E0FC906024ECF0EB24B4FBE434A2
:1008020060FC8B828C83A3A3A3E0FB906026EBF0B9
:10081200806AEA2A25E0FB24B4FCE43460FD0CBCC7
:1008220000010D906020E0FE8C828D83EEF0EB24BF
:10083200B4FCE43460FD74022CFCE43DFD906022C3
:10084200E0FE8C828D83EEF0EB24B4FBE43460FC9A
:1008520074032BFBE43CFC906022E0FD8B828C83D2
:10086200EDF09060CDE0FB8AF005F0740180022586
:10087200E0D5F0FBFA42039060CDEBF0758200D038
:100882001822C018858118AA82BA80028003020940
:100892001FE51824FDF8B6070C9067A6E0FB9060F0
:1008A20024F0020964906013E0FB53031F7C009064
:1008B2006020E0FD53051F9067A6EDF0ED701990E2
:1008C2006013E0FE90001025E025E054FCF5F0E016
:1008D200540345F0F00209647E00C005C0068B8215
:1008E2008C83127CE3AD82AE83158115818D03EE7C
:1008F200C403CBC40354076BCB5407CB6BCBFC9024
:100902006013E0FD530520EB4205900010ED2D250C
:10091200E054FCF5F0E0540345F0F08045E518247E
:10092200FDF8B60712EA247CF582E43460F583E030
:10093200FB906024F0802BEA247CFBE43460FC9082
:100942006020E0FD53051F8B828C83EDF08AF00559
:10095200F07401800225E0D5F0FBFA9067A7E0FB76
:100962004AF0758200D01822C018858118AA82BA6E
:1009720080028003020A10E51824FDF8B6072C90C5
:10098200004CE0C45403FB906024EBF090004CE078
:1009920003035403FB906025EBF090004CE023230B
:1009A2005403FB906026EBF0020AC7906022E0FB42
:1009B200BB01028008906022E0FBBB020675820444
:1009C200020ACA906020E0FB53030390004CEBC480
:1009D2005430F5F0E054CF45F0F0906021E0FB5345
:1009E200030390004CEB2B25E0540CF5F0E054F39C
:1009F20045F0F0906022E0FB53030390004CEB03C0
:100A02000354C0F5F0E0543F45F0F0020AC7E51880
:100A120024FDF8B6065FEA75F050A4FBACF0EB24B7
:100A220004FDEC3463FE740E2DFDE43EFE90602066
:100A3200E0FF5307038D828E83EFF0EB2404FDEC7D
:100A42003463FE740D2DFDE43EFE906021E0FF5301
:100A520007038D828E83EFF0EB2404FBEC3463FCFE
:100A6200740C2BFBE43CFC906022E0FD5305038BED
:100A7200828C83EDF0EA75F050A4FAABF0EA24041C
:100A8200FCEB3463FD740E2CF582E43DF583E0FC4F
:100A9200906024ECF0EA2404FCEB3463FD740D2C2A
:100AA200F582E43DF583E0FC906025ECF0EA240455
:100AB200FAEB3463FB740C2AF582E43BF583E0FA2B
:100AC200906026EAF0758200D01822AA82BA010E3E
:100AD200906098E0235401FA906024F0800F9060B7
:100AE20020E05401FA90609813E092E7F0758200DA
:100AF20022C018858118AA82BA80028003020BA63E
:100B0200E51824FDF8B6013A902165E00303540785
:100B1200FB902165E0C4035407C454F0FCEB42048B
:100B2200906024ECF090022CE0540FFB900230E035
:100B3200C4540FC454F0FCEB4204906025ECF00264
:100B42000C94906020E0FB530307902165EB2B256A
:100B5200E0541CF5F0E054E345F0F0906020E054DE
:100B620070C4540F902165C42354E0F5F0E0541F83
:100B720045F0F0906021E0FB53030F90022CEB5400
:100B82000FF5F0E054F045F0F0906021E054F0C42D
:100B9200540FFB900230C454F0F5F0E0540F45F0CE
:100BA200F0020C94E51824FDF8E6707CEA75F0502A
:100BB200A4FBACF02404FDEC3463FE74222DFDE4AE
:100BC2003EFE906020E0FF5307078D828E83EFF098
:100BD200EB2404FDEC3463FE74232DFDE43EFE9011
:100BE2006020E05470C4540F8D828E83F0EB240495
:100BF200FDEC3463FE74242DFDE43EFE906021E0A2
:100C0200FF53070F8D828E83EFF0EB2404FBEC344D
:100C120063FC74252BFBE43CFC906021E054F0C49F
:100C2200540FFD8B828C83F0EA75F050A4FAABF07E
:100C32002404FCEB3463FD74222CFCE43DFDEA2425
:100C420004FEEB3463FF74232EF582E43FF583E068
:100C5200C454F0FE8C828D83E04206906024EEF054
:100C6200EA2404FCEB3463FD74242CFCE43DFDEA2D
:100C72002404FAEB3463FB74252AF582E43BF58302
:100C8200E0C454F0FA8C828D83E0FC42029060252D
:100C9200EAF0758200D01822AA8290A316E05407C7
:100CA200FBBB030475820222BA0A16906020E0FAA6
:100CB200530207902658EA5407F5F0E054F845F03D
:100CC200F0902658E05407FA906024EAF07582000A
:100CD20022AA8290A316E05407FBBB0302800A906B
:100CE200A316E05407FBBB05047582022290602024
:100CF200E0FB7405B503004006906020E0700475C7
:100D0200820422EA7009906020E0FA906666F09010
:100D12006666E0FA906024EAF075820022AA829068
:100D2200A316E05407FBBB0302800A90A316E0540B
:100D320007FBBB050475820122906022E0FB53038E
:100D42000F7405B503004003EB700475820422BAE8
:100D5200022DEB2BFA24B0FCE434E6FD0CBC0001BE
:100D62000D906021E0FE8C828D83EEF0EA24B0FAD1
:100D7200E434E6FC906020E0FD8A828C83EDF09002
:100D82006026EBF0EB2BFB24B0FAE434E6FC8A821B
:100D92008C83A3E0FA906025EAF0EB24B0F582E4BC
:100DA20034E6F583E0FA906024EAF075820022AA24
:100DB2008290A316E05407FBBB0302800A90A3169D
:100DC200E05407FBBB050475820222906020E0FB21
:100DD2007405B503004006906020E070047582043B
:100DE20022BA0412906020E0FA90E62B540FF5F03C
:100DF200E054F045F0F090E62BE0540F906024F0C0
:100E020075820022C018858118AA82BA80028003E6
:100E1200020ECCE51824FDF8B6094590200CE0033B
:100E2200035401FB906026F030101B90A013E023C6
:100E3200235401906025F090A01BE003547FFB90A7
:100E42006024F0020F8690A00BE0232354019060EF
:100E520025F090A012E0547FFB906024F0020F86F0
:100E620090200CE04402F0906022E0FB30E0099018
:100E7200200CE04404F0800790200CE054FBF0309A
:100E82001025906021E0540190A01313E092E6F047
:100E9200906020E0FB90A01B25E054FEF5F0E054AA
:100EA2000145F0F0020F86906021E0540190A00B02
:100EB20013E092E6F0906020E0FB90A012547FF5E0
:100EC200F0E0548045F0F0020F86E51824FDF8B6F4
:100ED200086E90E613E04410F0EA2A25E0FB24981D
:100EE200FCE434E6FD906022E0FE530601BE0103FD
:100EF200D38001C39228E4338C828D8313E092E085
:100F0200F0EB2484FCE434E6FD74032CFCE43DFDA8
:100F1200906020E0FE8C828D83547FF5F0E0548057
:100F220045F0F0EB2484FBE434E6FC74032BFBE491
:100F32003CFC906021E0FD8B828C8313E092E7F011
:100F4200EA2A25E0FA2484FBE434E6FC8B828C83D3
:100F5200A3A3A3E0547F906024F0EA2484FBE4344A
:100F6200E6FC8B828C83A3A3A3E0235401FB906055
:100F720025F0EA2498F582E434E6F583E05401FA98
:100F8200906026F0758200D018227A00902102E04B
:100F920020E6047A028021908200E04404F0C0023C
:100FA200788E79BA7A021200B3D002908200E054AD
:100FB200FBF0902230742BF08A82227A0090210278
:100FC200E020E6047A028021908200E04408F0C02A
:100FD2000278D779B37A021200B3D002908200E08D
:100FE20054F7F0902230742BF08A822275880575AE
:100FF200895175A91C75B906D2ABD2ADD2A8D2AAB5
:10100200C2A975B83F75C878759A3EC205C206C2B4
:1010120007C208906711E4F0C209C20AD203D204DF
:0A102200C21DC21E9067A5E4F02273
:020000040002F8
:1097BC00900220E04401F090001E781679BC7A02E9
:1097CC001200B3900220E054FEF090001E7816793F
:1097DC00BC7A021200B30200C5C018E581F518244A
:1097EC0007F5819022307415F0906002E054FEF081
:1097FC00E5182405F87600E5182406F8E4F6FCFDD7
:10980C00E5182404F87600E5182407F87600906033
:10981C0003E030E0030298C090E606E020E10B90F4
:10982C00E60BE020E1047A0080027A01C0048A048D
:10983C00ECD0046030C004A20FE43324DAF582E4E7
:10984C003465F583E0FCA81808A604A20FE43324C1
:10985C00DEF582E43465F583E090025013E092E784
:10986C00F0D0048039906006E054EFF090024CE0A8
:10987C004480F0900044E0541F4480F0900250E08B
:10988C00547FF0900258E05407FAFCE5182406F8CF
:10989C007601900258E054F8F0A818087620C0041D
:1098AC00900248E04401F090E63FE0906610F0D062
:1098BC0004029953906008E06047C00490E632E0DF
:1098CC0023540125E024DAFCE43465FFA20FE433D1
:1098DC002CF582E43FF583E0FAA81808A60290E67E
:1098EC003FE0906610F0A20FE43324DEF582E434FE
:1098FC0065F583E0FA90025013E092E7F0D0048013
:10990C004690E60EE030E735900258E05407702D93
:10991C0090024CE04480F0900044E0541F4480F0EE
:10992C00A20FE43324DCF582E43465F583E0FAA875
:10993C001808A602E5182405F87601800A90600242
:10994C00E04401F0029B9DA81808860290024CEAA4
:10995C002A547EF5F0E0548145F0F0C004C005783F
:10996C00BC79977A021200B3D005D0040D90024C4A
:10997C00E020E703029B31906003E05401FABA0146
:10998C000A7401B505005003029B31906003E0207E
:10999C00E02DED14FAC004C005C002E5182404F84B
:1099AC00868278CD79BD7A021200B31581D005D0AC
:1099BC00049228500A906006E04410F0029B31900B
:1099CC006003E020E00FBD4000400A90E648E02034
:1099DC00E403029B31902040E05401FAE518240383
:1099EC00F87600A81808087600E5182405F8E66053
:1099FC0072EA600B906610E014906610F08007908D
:109A0C006610E02401F0906610E0FA701BC004E5CB
:109A1C00182403F87600A8180808760190E63FE0B1
:109A2C00906610F0D004805AC00490E63FE0FCE44D
:109A3C00CC25E0CC33FF8A037E00C3EB9CEE648024
:109A4C008FF063F08095F0D0044037E5182403F8CC
:109A5C007601A8180808760090E63FE0FB906610A7
:109A6C00F0801FEA600FE5182403F87600A81808A8
:109A7C00087601800DE5182403F87601A81808086B
:109A8C007600A8180808B6011FA818088682C0041A
:109A9C00C005785579BD7A021200B3AA82D005D0E0
:109AAC0004A81808A602802EE5182403F8B601268F
:109ABC00E5182404F8E64401F6A818088682C004C8
:109ACC00C005783379BD7A021200B3AA82D005D0D2
:109ADC0004A81808A602E5182404F8E625E0F6E523
:109AEC00182404F8E6543FF6E5182406F8E670034B
:109AFC00029953A81808741F56FABA180280030268
:109B0C009953E5182407F8E6600302995390025024
:109B1C00E04480F0E5182407F87601A818087620B0
:109B2C007D00029953E5182406F8B6010E900258F0
:109B3C00EC5407F5F0E054F845F0F0906003E020A9
:109B4C00E02EA20FE43324DAF582E43465F583A821
:109B5C001808E6F0A20FE43324DEFAE43465FB9037
:109B6C000250E0235401FC5304018A828B83ECF0F5
:109B7C00A20FE433FA24DCF582E43465F583A818EB
:109B8C0008E6F090024CE0547FF0906002E0440153
:109B9C00F0851881D0180200C5C018E581F518248D
:109BAC0006F5819022307439F0906002E054FDF09B
:109BBC00900258E05407700A906002E04402F002F0
:109BCC009EA6E5182405F87600E5182406F8E4F6B8
:109BDC00FCE5182403F87600906003E020E0729016
:109BEC00E606E020E10B90E60BE020E0047E00802E
:109BFC00027E01EE6011A20FE43324D4F582E4342A
:109C0C0065F583E0FE8038906007E054DFF0900249
:109C1C005CE04402F090024CE04480F0900044E0A0
:109C2C00541F4480F0900258E05407FFFCE51824C0
:109C3C0006F87601900258E054F84401F07E20902A
:109C4C000248E04401F090E63EE0FF90660FF080A1
:109C5C0074906008E0602DC00490E632E023235439
:109C6C000125E024D4FFE43465FCA20FE4332FF586
:109C7C0082E43CF583E0FE90E63EE0FB90660FF05C
:109C8C00D004804190E60EE030E63090025CE04477
:109C9C0002F090024CE04480F0900044E0541F44E9
:109CAC0080F0A20FE43324D6F582E43465F583E02A
:109CBC00FBFEE5182405F87601800A906002E0446A
:109CCC0002F0029EA6E5182404F876008E07900296
:109CDC005CEF2F25E054FCF5F0E0540345F0F0C0A8
:109CEC0004C00678BC79977A021200B3D006D0046F
:109CFC00E5182404F80690025CE020E103029E546F
:109D0C00906003E05401FFBF010DE5182404F8E650
:109D1C0024FE5003029E54906003E020E032E518CC
:109D2C002404F8E614FFC004C006C007E518240399
:109D3C00F8868278CD79BD7A021200B31581D006EF
:109D4C00D0049228500A906007E04420F0029E5400
:109D5C00906003E020E014E5182404F8B6400040BD
:109D6C000A90E648E020E303029E54902040E05421
:109D7C0001FFA81808087600A818087600E5182432
:109D8C0005F8E6606CEF600B90660FE01490660FC0
:109D9C00F0800790660FE02401F090660FE0FB70F6
:109DAC0019C004A81808087600A81808760190E6CF
:109DBC003FE090660FF0D0048052C00490E63FE084
:109DCC00FCE4CC25E0CC33FA7D00C3EB9CED648045
:109DDC008AF063F08095F0D0044031A8180808761A
:109DEC0001A81808760090E63FE0FA90660FF08024
:109DFC001BEF600DA81808087600A81808760180DB
:109E0C000BA81808087601A818087600A81808B638
:109E1C000109EE7003FE801B1E8018A8180808B6F6
:109E2C000111E5182403F8E64401F6BE3F047E3F19
:109E3C0080010EE5182403F8E625E0F6E518240366
:109E4C00F8E6543FF6029CD8E5182406F8E6600EB6
:109E5C00900258EC5407F5F0E054F845F0F090609F
:109E6C0003E020E010A20FE433FA24D4F582E434AA
:109E7C0065F583EEF0A20FE433FA24D6F582E434D0
:109E8C0065F583EEF090025CE054FDF090024CE03E
:109E9C00547FF0906002E04402F0851881D01802E3
:109EAC0000C5900005781679BC7A021200B39000B8
:109EBC0044E04410F0900005781679BC7A02120048
:109ECC00B3900220E04401F0900019781679BC7A26
:109EDC00021200B3900044E054EFF09000057816A5
:109EEC0079BC7A021200B3900220E054FEF090008C
:109EFC0019781679BC7A021200B30200C5C018E5B5
:109F0C0081F5182406F5819022307408F0906000D9
:109F1C00E054BFF0E5182405F87600E5182406F89F
:109F2C007600E5182404F87600E5182403F876008A
:109F3C007E00906003E030E003029FC590E606E0EF
:109F4C0020E10B90E609E020E7047F0080027F010E
:109F5C00EF602BC006A20EE43324E0F582E43465F6
:109F6C00F583E0FFA20EE43324E4F582E43465F5D6
:109F7C0083E090021C13E092E1F0D0068025906003
:109F8C0004E054BFF0900040E04401F0900044E045
:109F9C00541FF090021CE054FDF07F20E5182406BD
:109FAC00F87601C006900218E04401F090E647E014
:109FBC0090660AF0D00602A045906008E06042C0AE
:109FCC000690E631E023540125E024E0FEE43465FC
:109FDC00FBA20EE4332EF582E43BF583E0FF90E622
:109FEC0047E090660AF0A20EE43324E4F582E434F0
:109FFC0065F583E0FA90021C13E092E1F0D0068044
:10A00C003890E60DE030E727900040E04401F090F6
:10A01C000044E0541FF0A20EE43324E2F582E43451
:10A02C0065F583E0FAFFE5182405F87601800A90BF
:10A03C006000E04440F002A2578F0290021CEA2A12
:10A04C0025E054FCF5F0E0540345F0F0C006C007E1
:10A05C0078AE799E7A021200B3D007D006E51824A8
:10A06C0004F806900040E020E00302A20790600391
:10A07C00E05401FABA010DE5182404F8E624FE5068
:10A08C000302A207906003E020E032E5182404F8F4
:10A09C00E614FAC006C007C002E5182403F886824D
:10A0AC0078CD79BD7A021200B31581D007D0069213
:10A0BC0028500A906004E04440F002A2079060032C
:10A0CC00E020E014E5182404F8B64000400A90E6BD
:10A0DC0048E020E20302A207902040E05401FAA8D5
:10A0EC001808087600A818087600E5182405F8E684
:10A0FC00606CEA600B90660AE01490660AF08007C8
:10A10C0090660AE02401F090660AE0FB7019C00624
:10A11C00A81808087600A81808760190E647E09081
:10A12C00660AF0D0068052C00690E647E0FEE4CE08
:10A13C0025E0CE33FD7C00C3EB9EEC64808DF06398
:10A14C00F08095F0D0064031A81808087601A818C0
:10A15C0008760090E647E0FB90660AF0801BEA6008
:10A16C000DA81808087600A818087601800BA81806
:10A17C0008087601A818087600A81808B601158FEB
:10A18C0082C006785579BD7A021200B3AA82D00635
:10A19C008A078023A8180808B6011CE5182403F8C0
:10A1AC00E64401F68F82C006783379BD7A0212003C
:10A1BC00B3AA82D0068A07E5182403F8E625E0F650
:10A1CC00E5182403F8E6543FF6E5182406F8E67083
:10A1DC000302A045741F5FFABA1802800302A0455F
:10A1EC00EE600302A04590021CE04402F07E017F69
:10A1FC0020E5182404F8760002A045906003E020C6
:10A20C00E02BA20EE43324E0F582E43465F583EF11
:10A21C00F0A20EE43324E4FAE43465FB90021CE073
:10A22C00035401FC5304018A828B83ECF0A20EE4EC
:10A23C0033FA24E2F582E43465F583EFF0900040C4
:10A24C00E054FEF0906000E04440F0851881D01896
:10A25C000200C5C018E581F5182406F5819022305E
:10A26C00740EF0906000E0547FF0E5182405F8E4DB
:10A27C00F6FBFCE5182403F87600906616E0FEE584
:10A28C00182404F8A60690A316E05407FFBF040791
:10A29C00E5182404F87600906003E030E00302A394
:10A2AC002B90E606E020E10B90E60AE020E0047F2C
:10A2BC000080027F01EF602FC003E5182404F8E64C
:10A2CC0024E6F582E43465F583E0FFE5182404F810
:10A2DC00E624F0F582E43465F583E090022013E087
:10A2EC0092E1F0D0038022906004E0547FF0900063
:10A2FC0040E04401F0900044E0541F4420F09002F0
:10A30C0020E054FDF07F207B01C00390021CE04450
:10A31C0001F090E639E0906609F0D00302A3DD90DD
:10A32C006008E06048C00390E633E003540175F028
:10A33C0005A424E6FBE43465FAE5182404F8E62BBE
:10A34C00F582E43AF583E0FF90E639E0906609F097
:10A35C00E5182404F8E624F0F582E43465F583E08E
:10A36C00FA90022013E092E1F0D003806490E60FA3
:10A37C00E030E153900228E003035407FAC36480F1
:10A38C0094845043900040E04401F0900044E05429
:10A39C001F4420F0E5182404F8E624EBF582E4349D
:10A3AC0065F583E0FFE5182404F8E624F0F582E473
:10A3BC003465F583E0FA90022013E092E1F0E518A1
:10A3CC002405F87601800A906000E04480F002A633
:10A3DC0020900220E0035401FAE5182406F8A602A6
:10A3EC008F02900220EA2A25E054FCF5F0E0540399
:10A3FC0045F0F0C003C004C00778AE799E7A021213
:10A40C0000B3D007D004D0030C900040E020E00350
:10A41C0002A5CB906003E020E018900228E0030333
:10A42C005407FAC374838AF063F08095F0500302EA
:10A43C00A5CB906003E05401FABA010A7401B5048B
:10A44C0000500302A5CB906003E020E031EC14FA3D
:10A45C00C003C004C007C002E5182403F886827844
:10A46C00CD79BD7A021200B31581D007D004D00388
:10A47C009228500A906004E04480F002A5CB9060D2
:10A48C0003E020E00FBC4000400A90E648E020E1E9
:10A49C000302A5CB902040E05401FAA818080876D6
:10A4AC0000A818087600E5182405F8E6606CEA6048
:10A4BC000B906609E014906609F08007906609E03D
:10A4CC002401F0906609E0FA7019C003A818080876
:10A4DC007600A81808760190E639E0906609F0D06D
:10A4EC00038052C00390E639E0FBE4CB25E0CB338C
:10A4FC00FE7D00C3EA9BED64808EF063F08095F0E6
:10A50C00D0034031A81808087601A81808760090E6
:10A51C00E639E0FA906609F0801BEA600DA818088D
:10A52C00087600A818087601800BA8180808760190
:10A53C00A818087600A81808B601198F82C003C0A5
:10A54C0004785579BD7A021200B3AA82D004D003E4
:10A55C008A078027A8180808B60120E5182403F8F4
:10A56C00E64401F68F82C003C004783379BD7A02C9
:10A57C001200B3AA82D004D0038A07E5182403F88A
:10A58C00E625E0F6E5182403F8E6543FF6EB7003F5
:10A59C0002A3EC741F5FFABA1802800302A3ECE565
:10A5AC00182406F8E6600302A3EC900220E04402B3
:10A5BC00F0E5182406F876017F207C0002A3EC90CD
:10A5CC006003E020E02FE5182404F8E624E6F58289
:10A5DC00E43465F583EFF0E5182404F8E624F0FA8A
:10A5EC00E43465FB900220E0035401FC5304018A1F
:10A5FC00828B83ECF0E5182404F8E624EBF582E476
:10A60C003465F583EFF0900040E054FEF09060006C
:10A61C00E04480F0851881D0180200C5C018E5818F
:10A62C00F5182407F5819022307411F0906001E048
:10A63C0054FEF0E5182406F87600E5182405F876A3
:10A64C00007C007D01E5182403F87600906616E086
:10A65C00FFE5182404F8A60790A316E05407FBBBEB
:10A66C000407E5182404F87600906003E030E0035A
:10A67C0002A71390E606E020E10B90E60AE020E149
:10A68C00047B0080027B01EB602FC005E5182404DD
:10A69C00F8E624F5F582E43465F583E0FBE518244F
:10A6AC0004F8E624FFF582E43465F583E09000407D
:10A6BC0013E092E1F0D0058038906005E054FEF094
:10A6CC00900218E003035401FAFD900218E04404D0
:10A6DC00F0900040E04401F0900044E0541F4440EE
:10A6EC00F0900040E054FDF07B20E5182405F8764E
:10A6FC0001C00590003CE04402F090E638E0906622
:10A70C0008F0D00502A7D0906008E06047C0059023
:10A71C00E633E0540175F005A424F5FDE43465FA44
:10A72C00E5182404F8E62DF582E43AF583E0FB9075
:10A73C00E638E0906608F0E5182404F8E624FFF506
:10A74C0082E43465F583E0FA90004013E092E1F086
:10A75C00D005807090E60FE030E05F900218E003C7
:10A76C00035401FABA0153900228E003035407FA88
:10A77C00C3648094845043900040E04401F0900006
:10A78C0044E0541F4440F0E5182404F8E624FAF59C
:10A79C0082E43465F583E0FBE5182404F8E624FF35
:10A7AC00F582E43465F583E0FA90004013E092E121
:10A7BC00F0E5182406F87601800A906001E0440167
:10A7CC00F002AA45900040E0035401FAE518240772
:10A7DC00F8A602C0058B05900040ED2D25E054FC39
:10A7EC00F5F0E0540345F0F0C003C004C00578AEAA
:10A7FC00799E7A021200B3D005D004D0030C9000DD
:10A80C0040E0D00520E00302A9E6906003E020E0E0
:10A81C001CC005900228E003035407FDC374838D0C
:10A82C00F063F08095F0D005500302A9E6C00590C6
:10A83C006003E05401FDBD01028004D005800CD002
:10A84C00057401B50400500302A9E6906003E020F2
:10A85C00E03CC005EC14FDC003C004C0057402C08C
:10A86C00E0C005E5182403F88682787979BD7A0270
:10A87C001200B315811581D005D004D0039228D0D5
:10A88C000530280A906005E04401F002A9E69060CA
:10A89C0003E020E00FBC4000400A90E648E020E0D6
:10A8AC000302A9E6C005902040E05401FAA818085C
:10A8BC00087600A818087600D005E5182406F8E6F6
:10A8CC00606EEA600B906608E014906608F08007F2
:10A8DC00906608E02401F0906608E0FE7019C0054F
:10A8EC00A81808087600A81808760190E638E090B9
:10A8FC006608F0D0058054C00590E638E0FDE4CD44
:10A90C0025E0CD33FA8E077E00C3EF9DEE64808A7E
:10A91C00F063F08095F0D0054031A8180808760156
:10A92C00A81808760090E638E0FA906608F0801BCC
:10A93C00EA600DA81808087600A818087601800BA4
:10A94C00A81808087601A818087600A81808B601F7
:10A95C00198B82C004C005785579BD7A021200B3F8
:10A96C00AA82D005D0048A038027A8180808B6014B
:10A97C0020E5182403F8E64401F68B82C004C005D8
:10A98C00783379BD7A021200B3AA82D005D0048A3A
:10A99C0003E5182403F8E625E0F6E5182403F8E6A9
:10A9AC00543FF6E5182405F8E6700302A7DF741F80
:10A9BC005BFABA1802800302A7DFE5182407F8E651
:10A9CC00600302A7DF900040E04402F0E518240782
:10A9DC00F876017B207C0002A7DF906003E020E08A
:10A9EC002FE5182404F8E624F5F582E43465F583A4
:10A9FC00EBF0E5182404F8E624FFFAE43465FC9047
:10AA0C000040E0035401FE5306018A828C83EEF071
:10AA1C00E5182404F8E624FAF582E43465F583EBB2
:10AA2C00F0ED7007900218E054FBF0900040E054F9
:10AA3C00FEF0906001E04401F0851881D01802000E
:01AA4C00C544
:020000040001F9
:109FAD00906038E0547FF0906098E030E110906060
:109FBD009CE0FAA3E0FB906174EAF0A3EBF09067EC
:109FCD0099E4F07A03C002786879957A011200B3AA
:109FDD00D002906799E0FB6027906037E0FBBB01F2
:109FED00109060407401F0906040E0FBBB01028076
:109FFD00F68A031AC374808BF063F08095F040C528
:10A00D00784879A57A011200B378F779AA7A011206
:10A01D0000B3906038E04480F0906658E0FA9060AC
:10A02D004AEAF0906659E0FA906049EAF090665F6E
:10A03D00E0FA906048EAF090665AE0FA90604BEAD8
:10A04D00F00200C590614AE0FA90614BE0FBC0025E
:10A05D008B82781279C07A021200B3AB8215818B94
:10A06D000290614EE0FBC0028B82781279C07A02B9
:10A07D001200B3AB8215818B0290614FE0FBC002E1
:10A08D008B82781279C07A021200B3AB821581905F
:10A09D006643EBF0906148E0FA906149E0FBC00245
:10A0AD008B82781279C07A021200B3AB8215818B44
:10A0BD000290614CE0FBC0028B82781279C07A026B
:10A0CD001200B3AB8215818B0290614DE0FBC00293
:10A0DD008B82781279C07A021200B3AA8215819010
:10A0ED006642EAF090614AE0FA7B0090614BE0FC39
:10A0FD007D00EC2AFAED3BFB90614EE0FC7D00EC1F
:10A10D002AFAED3BFB90614FE0FC7D00EC2AFAED65
:10A11D003BA2E713CA13CAA2E713CA13CA9066413A
:10A12D00EAF0906148E0FA7B00906149E0FC7D0027
:10A13D00EC2AFAED3BFB90614CE0FC7D00EC2AFA39
:10A14D00ED3BFB90614DE0FC7D00EC2AFAED3BA26E
:10A15D00E713CA13CAA2E713CA13CA906640EAF0FE
:10A16D00906152E0FA7B00906153E0FC7D00EC2A97
:10A17D00FAED3BFB906156E0FC7D00EC2AFAED3BDD
:10A18D00FB906157E0FC7D00EC2AFAED3BA2E71352
:10A19D00CA13CAA2E713CA13CA906645EAF09061C2
:10A1AD0050E0FA7B00906151E0FC7D00EC2AFAED65
:10A1BD003BFB906154E0FC7D00EC2AFAED3BFB90FB
:10A1CD006155E0FC7D00EC2AFAED3BA2E713CA13C2
:10A1DD00CAA2E713CA13CA906644EAF090610CE074
