:020000040001F9
:10800000AA82AB837C00BC0800502AEC2CFDFE90B9
:1080100083FD93CEA393FFED90840D93CDA393F8AE
:10802000EA5205EB5200EEB50508EFB50004758283
:1080300001220C80D175820022C018E581F5182438
:1080400008F581E5182404F87600087600E5182480
:1080500006F87600900030E003540790841D93905A
:10806000661DF0900034E00303543F90661EF090CC
:108070000034E003540190661FF0783579817A026C
:108080001200B3AD829022B6EDF0906008E0FEBE23
:1080900001047E0880027E01A818080876BC0876D4
:1080A000029022B5EEF030165CED6009906614E0A7
:1080B0002401F08009906614E014906614F0906634
:1080C00014E0FC700CFD90E643E0FF906614F08035
:1080D00034C00690E643E0FFE4CF25E0CF33FE7ADC
:1080E00000C3EC9FEA64808EF063F08095F0D006C8
:1080F000400D7D0190E643E0FA906614F08006752D
:108100008201028224BD0111C00678A679817A021B
:108110001200B3AA82D0068011C006784D79827A07
:10812000021200B3AB82D0068B02EA600302821D0A
:10813000C00678A579837A011200B3D00630160AFA
:10814000E5182406F8760102821DC006783579818B
:108150007A021200B3AA82D0068A059022B6EDF008
:10816000A81808E6B505028011A81808A605BE08DB
:10817000047E028005BE02027E01E5182404F80890
:10818000E618C625E0C63308F68D027B00E5182404
:1081900004F8EA46F6EB0846F6E5182404F8E51874
:1081A0002407F9E6F70809E6F77C00BC0800503B15
:1081B000C006EC2CFFFE9083FD93CEA393FAEFFB59
:1081C00090840D93CBA393FFE5182407F8E65203A0
:1081D00008E65207EEB50306EAB507028004D006AA
:1081E0008006D0067A0180050C80C07A00EA601013
:1081F000E5182406F87601906006E04408F0801D3A
:1082000090E649E020E00AA818080816B6FF020820
:1082100016A8180808E6084660030280A1E518249D
:1082200006F88682851881D0180200C590A316E052
:108230005407FABA03079067ADE0FA80129067AD71
:10824000E0FB7401B5030050047A0080028B0290B9
:108250002230740FF0900228E003035407FB53030D
:1082600004E4BB000104FB906006E054F7F090606A
:1082700001E054FDF090E60AE003035401FCBC0168
:1082800002800A906003E05401FCBC0144EA2AFC2D
:1082900024AAFDE43465FEEB2DF582E43EF583E08F
:1082A00090661EF0EC24B2FDE43465FEEB2DF58201
:1082B000E43EF583E0906620F0EC24A2FCE4346513
:1082C000FDEB2CF582E43DF583E0FC90661FF08029
:1082D0001290661E7431F09066207405F090661F4F
:1082E0007401F0906620E090841D9390661DF0C0AC
:1082F00002C00378A579837A011200B3D003D002BB
:10830000906008E0600302839290E60AE030E203A6
:10831000028392C002C003783979807A011200B3D7
:10832000AC82D003D002906005EC13E092E1F090B3
:108330000030E0035407FCEA2433FDE43466FEEC2D
:1083400090841D938D828E83F0EA2AFA24AAFCE49D
:108350003465FDEB2CFCE43DFD90661EE08C828DC7
:1083600083F0EA24B2FCE43465FDEB2CFCE43DFD33
:10837000906620E0FE8C828D83F0EA24A2FAE43439
:1083800065FCEB2AFBE43CFD90661FE0FA8B828DD6
:1083900083F0906001E04402F090E643E0FA9066DA
:1083A00014F00200C590661EE090003425E025E040
:1083B00054FCF5F0E0540345F0F090661FE09000A7
:1083C0003413E092E1F090661DE0FAC3136202906C
:1083D0006620EAF0900030EA2A540EF5F0E054F1FD
:1083E00045F0F0900034E04401F078F179BF7A0272
:1083F0001200B3900034E054FEF00200C505000AFC
:10840000003300CC00C701380E0F0FF0F00F000F43
:1084100000FF00FF00FF0FFF0FFFFFFFFF00010342
:0584200002070604053F
:020000040002F8
:10800000900218E04402F090E60AE030E216906038
:1080100014E0FA900030C454F0F5F0E0540F45F04D
:10802000F00281329022307410F0906006E054FB30
:10803000F0906002E054F7F07A0090002CE04401E8
:10804000F0900030E0540F4480F090000AC00278B5
:108050000279BC7A021200B3D0027B007C30C002ED
:10806000C003C004783579817A021200B3AD82D0A2
:1080700004D003D002BD011A900030E0C4540FFEBA
:108080000E900030EEC454F0F5F0E0540F45F0F0DF
:108090008018900030E0C4540FFE1E900030EEC4F3
:1080A00054F0F5F0E0540F45F0F090000AC002C023
:1080B00003C004C005780279BC7A021200B3D0056F
:1080C000D004D003D002EA2AFAED42020BC002C06B
:1080D00003C004C0038A8278B979BD7A021200B362
:1080E0001581D004D003D00292285009906006E098
:1080F0004404F08023900030E0C4540FFDBD0F0213
:108100008016900030E054F0600E90E649E020E0E8
:10811000011CEC600302805E90002CE054FEF090A5
:108120000030E0C4540FFA906014F0906002E04414
:1081300008F00200C5902152E054FEF0E04401F046
:10814000E054FEF0902150E05401FAF5820200C59F
:1081500090661EE090003425E025E054FCF5F0E048
:10816000540345F0F090661FE090003413E092E174
:10817000F090661DE0FAC3136202900030EA2A54C0
:108180000EF5F0E054F145F0F0900034E04401F0D9
:10819000900002780279BC7A021200B3900034E0B9
:1081A00054FEF00200C57A0090661EE0FBBB312E43
:1081B00090661DE0FCBC060E90661E7433F090665F
:1081C0001FE4F0028232BC070890661E7430F08013
:1081D0006190661E7432F090661FE4F08054BB32EA
:1081E000028003BB332F90661DE0FCBC0614906632
:1081F0001E7431F090661D7407F090661F7401F0D4
:10820000803090661EE4F090661DEC04F090661FCE
:108210007401F0801D90661DE0FCBC070FEB70043C
:108220007A018024EB1490661EF0800690661EEBA7
:1082300004F09022B5E0FBFC1B9022B5EBF074013A
:10824000B5040050030281A88A820200C57A00901A
:10825000661DE0FBBB072390661EE0FCBC3113905B
:10826000661E7433F090661D7406F090661FE4F08D
:10827000804A90661EEC04F0804290661EE0FCBCD2
:1082800032028003BC330E90661E7431F090661F7C
:108290007401F08027EC701E7401B503005013EBDD
:1082A0001490661DF090661E7433F090661FE4F023
:1082B000800A7A01801CEC1490661EF09022B5E0D2
:1082C000FBFC1B9022B5EBF07401B50400500302D7
:0782D000824F8A820200C503
:020000040001F9
:10842500C018E581F5182404F581A8180876009090
:108435002606E0FBA3E053033F902608E0FC530427
:108445003FA818080874305BF6E5182403F8740C87
:108455005BF6E5182404F874035BF674305CFF746E
:108465000C5CFA74035CFB902606E0FEA3E0FDBEFF
:108475000005BD04028010BE0005BD0802801FBEB8
:10848500002ABD0C278017EC700C902609E0FD54DE
:108495003F7003028554A818087601028554BC155F
:1084A50003028554A818087601028554902609E030
:1084B500FD540C6005A818087601EC7005A818088D
:1084C5007601E5182404F8B60108BB0202801EEB0C
:1084D500601BE5182404F8B60208BB0302800EEB06
:1084E500600BE5182404F8E67008EB6005A8180889
:1084F5007601E5182403F8B60408BA0802801EEAD6
:10850500601BE5182403F8B60808BA0C02800EEAC9
:10851500600BE5182403F8E67008EA6005A818085A
:108525007601A8180808B61008BF2002801CEF6065
:1085350019A8180808B62008BF3002800DEF600A98
:10854500A8180808E67008EF6005A818087601A8BD
:1085550018088682851881D0180200C59022B47447
:1085650003F07A00902600E020E00302865A902668
:1085750000E020E40302865A90E607E030E64290E8
:1085850022E4E030E03B906033E020E0349022D8F4
:10859500E04420F0E054DFF090601FE0FBBB601C7E
:1085A50090601CE0FBA3E0FC9022B47401F0BB0DCD
:1085B5000040057A0202865A7A01803C7A020286D8
:1085C5005A90E607E020E5030286749022B474040D
:1085D500F09067A2E0FC90869F93FDFB9067A2EC6C
:1085E50004F09067A2E090869F93FCBCFF02800395
:1085F500BC0C059067A2E4F0EB2BFB90868393CB34
:10860500A393FC902645E04401F0E054FEF08B82F4
:108615008C83C00278D579E77A011200B3D0029035
:108625002621E030E0F9902608E0FB53033FBB3FED
:10863500079067A2E4F0801DC002782579847A014D
:108645001200B3E582D002600C9067A27406F09028
:1086550060097403F0EA6017BA020890602E74018D
:10866500F0800590602EE4F0906033E04401F090D6
:1086750022B47402F0902230742BF00200C500047D
:108685000A0005002800140008000400020001008B
:10869500200010000008000C00000001030A080B70
:0286A5000CFFC8
:020000040002F8
:1082D7009060087401F0902200E0FA90E6D8E0FB85
:1082E700EAB5035B90661CE0FA705490E632E0C48E
:1082F700540125E024CCFAE434E5FB90E61EE0FCCB
:108307002AF582E43BF583E0FA90E63CE0FB9066D1
:108317000DF09082D8EA2A25E054FCF5F0E05403EA
:1083270045F0F09082D8E04401F090822CE0448040
:10833700F09082D8E054FEF090822CE0547FF0A2B7
:108347000EE4332494F582E43465F583E090001C51
:10835700C4035438F5F0E054C745F0F090E632E036
:1083670003540125E02496FBE43465FCA20EE433B4
:108377002BF582E43CF583E0F58278C879AD7A0283
:108387001200B3A20EE433249AF582E43465F58330
:10839700E0900024C42354E0F5F0E0541F45F0F0CA
:1083A70090E632E00303540125E0249CFBE43465A6
:1083B700FCA20EE4332BF582E43CF583E0F58278EA
:1083C7009379AF7A021200B3900038E054034478EF
:1083D700F0900228E003035407FA530204E4BA00BA
:1083E7000104FAA20EE43325E024AAFBE43465FC79
:1083F700EA2BF582E43CF583E090003425E025E0A4
:1084070054FCF5F0E0540345F0F0A20EE43325E008
:1084170024B2FBE43465FCEA2BF582E43CF583E007
:1084270090003025E0540EF5F0E054F145F0F0A24D
:108437000EE43325E024A2FBE43465FCEA2BF58245
:10844700E43CF583E090003413E092E1F0900034CF
:10845700E04401F0E054FEF090E631E023540125BA
:10846700E02470FAE43465FBA20EE433FC2AF582BB
:10847700E43BF583E090021C25E025E054FCF5F091
:10848700E0540345F0F090E647E090660AF0A20E4C
:10849700E4332474F582E43465F583E090021C1319
:1084A700E092E1F0900044E04410F0900220E044B4
:1084B70001F0900044E054EFF0900220E054FEF009
:1084C700906616E0FA90A316E05407FBBB04027A05
:1084D7000090E633E003540175F005A42476FBE42D
:1084E7003465FCEA2BF582E43CF583E09002202515
:1084F700E025E054FCF5F0E0540345F0F090E63950
:10850700E0906609F0EA2480F582E43465F583E0BB
:1085170090022013E092E1F0900044E04410F090C4
:108527000220E04401F0900044E054EFF090022074
:10853700E054FEF090E633E0540175F005A424857D
:10854700FBE43465FCEA2BF582E43CF583E090001C
:108557004025E025E054FCF5F0E0540345F0F090A9
:10856700E638E0906608F0EA248FF582E43465F592
:1085770083E090004013E092E1F0900044E0441063
:10858700F0900220E04401F0900044E054EFF090B6
:108597000220E054FEF090E632E023540125E02467
:1085A7006AFAE43465FBA20FE433FC2AF582E43B64
:1085B700F583E090024C25E0547EF5F0E0548145C8
:1085C700F0F090E63FE0FA906610F0900220E04469
:1085D70001F0E054FEF0900258E05407604390E643
:1085E70032E02323540125E02464FAE43465FBA236
:1085F7000FE433FC2AF582E43BF583E090025C2527
:10860700E025E054FCF5F0E0540345F0F090E63E39
:10861700E0FA90660FF0900220E04401F0E054FE8B
:10862700F0906008E4F00200C59060087401F0A2C1
:108637000EE4332494F582E43465F583E090001C5E
:10864700C4035438F5F0E054C745F0F090E632E043
:1086570003540125E02496FAE43465FBA20EE433C3
:108667002AF582E43BF583E0F58278C879AD7A0292
:108677001200B3A20EE433249AF582E43465F5833D
:10868700E0900024C42354E0F5F0E0541F45F0F0D7
:1086970090E632E00303540125E0249CFBE43465B3
:1086A700FCA20EE4332BF582E43CF583E0F58278F7
:1086B7009379AF7A021200B3900228E003035407BC
:1086C700FA530204E4BA000104FAA20EE43325E0E7
:1086D70024AAFBE43465FCEA2BF582E43CF583E04D
:1086E70090003425E025E054FCF5F0E0540345F014
:1086F700F0A20EE43325E024B2FBE43465FCEA2B58
:10870700F582E43CF583E090003025E0540EF5F067
:10871700E054F145F0F0A20EE43325E024A2FBE497
:108727003465FCEA2BF582E43CF583E0FA900034EB
:1087370013E092E1F0900034E04401F0E054FEF0E1
:10874700906008E4F00200C5E582FA25E0FB24F713
:10875700FCE43465FD90E61FE02CFCE43DFD901041
:1087670010E0C423541FFE53061F8C828D83EEF046
:10877700EB24FBFBE43465FC90E61FE02BFBE43CB9
:10878700FC901014E0540FFD53050F8B828C83ED82
:10879700F0EA2A25E024FFFAE43465FB90E61FE0BF
:1087A70025E02AFAE43BFB906621E0FCA3E0FD8A82
:1087B700828B83ECF0A3EDF00200C5E582FA25E099
:1087C700FB24F7FCE43465FD90E61FE0FE2CF58200
:1087D700E43DF583E0901010C40354F8F5F0E0543D
:1087E7000745F0F0EB24FBFBE43465FC90E61FE063
:1087F700FD2BF582E43CF583E0901014540FF5F05F
:10880700E054F045F0F0EA2A25E024FFFAE4346565
:10881700FB90E61FE025E02AF582E43BF583E0FACA
:10882700A3E0FB906621EAF0A3EBF08B049010180D
:10883700ECC42354E0F5F0E0541F45F0F090101C11
:10884700EAF00200C5C2AF906621E0FAA3E0FBFCA4
:10885700901018ECC42354E0F5F0E0541F45F0F0F5
:1088670090101CEAF0901014E04440F0E054BFF080
:05887700D2AF0200C5B4
:020000040001F9
:1086A700902206E0FA430202902206EAF090220B9B
:1086B700E0547FF090205774C0F0E4F0906003E03E
:1086C70054FEF0758200783B79937A011200B390DB
:1086D7002401E054DFF0902402E054FEF0902033B0
:1086E700E0C4540FFA906615F090E62CE0540FFBA7
:1086F700C0038A82782779C07A021200B3AA82154A
:1087070081906615EAF0902117E0C4540FFA90663D
:1087170016F090E62CE0540FFBC0038A8278277985
:10872700C07A021200B3AA821581906616EAF09009
:108737006301E0FAFB906300E0FCB50300403AEB0D
:1087470075F050A4FCADF02404FEED3463FF8E8277
:108757008F83A3E0FEBE01028016EC2404FCED34F7
:1087670063FD74162CF582E43DF583E0FCBC01043F
:10877700D2128002D2110B80BCD212906615E0FA99
:1087870090A316E05407FBBB042A90E62CE0540F95
:10879700FB902033E0C4540FF582C003782779C0DB
:1087A7007A021200B3AB8215818B028A8212423D94
:1087B700AB828B02EA75F050A4FBACF02404F5827F
:1087C700EC3463F583E0FD90678CF07401B5050028
:1087D700400A90A316E05407FEBE0409C20F906733
:1087E700AEE4F0800AED24FF920F9067AEEDF0EB58
:1087F7002404FBEC3463FC8B828C83A3E024FF927C
:1088070010902238E0FB530301BB0102801790222E
:1088170000E0FB90E6D8E0FCEBB50409780479CAE0
:108827007A011200B390A316E05407FBBB04028041
:10883700030288CC90678CE0FBBB04005043D21046
:108847009066247401F0902200E0FB7403B50300E6
:108857004073EB2B2B9088607302886C028873023D
:10886700887A02888190E6D7E4F0805990E6D6E4CA
:10887700F0805290E6D5E4F0804B90E6D4E4F080A7
:1088870044C210906624E4F0902200E0FB7403B524
:1088970003004031EB2B2B9088A2730288AE02882D
:1088A700B60288BE0288C690E6D77401F08016909B
:1088B700E6D67401F0800E90E6D57401F08006903C
:1088C700E6D47401F090A316E05407FBBB046D9047
:1088D7002238E0FB530301BB016290678DE0FB90F8
:1088E700678CE0FCEBB5040474018001E4FBB40180
:1088F70000E433FB603B906623E0FC60169066243F
:10890700E0FC602DC003788979D47A021200B3D0D5
:1089170003801E902200E0FC90E6D8E0FDECB50550
:108927001030120DC003788979D47A021200B3D0BF
:10893700038B8278BF79D57A011200B3902200E0C9
:10894700FB90E6D8E0FCEBB50402800E90E604E06D
:1089570030E43E90A329E020E33790831CE054F9EC
:108967004404F090A341E054FDF0E04401F090A3EB
:1089770041E04404F090A329E04408F090E607E0C2
:1089870030E40E90A32BE04402F090A32BE04404C4
:10899700F078A579BE7A021200B3E5828583F0905C
:1089A7006617F0A3E5F0F030142590E60874FCF0A4
:1089B700A374FFF0A3F0A3740FF078B579937A014D
:1089C7001200B3784779CA7A011200B3028F529026
:1089D7002102E054F7F0902003E04404F0902003D4
:1089E700E04401F0900218E04404F0900244E0549F
:1089F7007FF090600AE054DFF09022B47431F09079
:108A0700678CE0FB9022B7F0A212E4339022B9F012
:108A1700A210E4339022BAF0906624E0FC9022BCC6
:108A2700F090661CE09022BDF090678DE0FDEBB5FD
:108A37000502800E902238E0FB530301BB0103ECD3
:108A47007018902238E0FB530301BB010D90A31669
:108A5700E05407FBBB0403028BAE902200E0FB90BF
:108A6700E6D8E0FCEBB5042D90E608E054FEF09064
:108A77002238E0FB530301BB01028009783579D521
:108A87007A021200B3A212B39228E433FB90A32414
:108A970013E092E0F075820A785D79937A0112000B
:108AA700B3902200E0FB90E6D8E0FCEBB50402802F
:108AB70003028BA2902238E0FB530301BB010302A0
:108AC7008BA2787179D47A021200B390A316E0547E
:108AD70007FBBB0302801390A316E05407FBC37484
:108AE700818BF063F08095F040047B0180027B006E
:108AF7007C00BC02004003028B8E9022B47410F0FD
:108B070074702B9022BAF08B82C004123A227867D5
:108B170079D17A021200B3D00490661CE0FD702F61
:108B2700C004787179D47A021200B390A319E05483
:108B3700EFF0786979CA7A011200B3784179D47A6B
:108B4700021200B3786079C97A021200B3D0042008
:108B5700153590A316E05407FDBD0402802990A3A4
:108B670016E05407FDBD0302801390A316E05407D7
:108B7700FDC374818DF063F08095F040047B008025
:108B8700027B010C028AF990661CE0FB700D9022B3
:108B970038E0FB430302902238EBF075820B785DD7
:108BA70079937A011200B3906624E0FB6076301265
:108BB7006C788979D47A021200B37B00BB0200502B
:108BC700518B82C003123DBA902082E04402F0909C
:108BD7000005780279BC7A021200B3902082E04443
:108BE70001F0900005780279BC7A021200B3902058
:108BF7007EE054FEF0782C79D97A011200B3D003C5
:108C070020150F90A316E05407FCBC040280030B49
:108C170080AA78A179D47A021200B3800790A3249E
:108C2700E04401F075820C785D79937A011200B304
:108C3700906301E0FBFA906300E0FBB5020050038C
:108C4700028DDA906616EAF0906615EAF090A316A0
:108C5700E05407FBBB0409C00212434ED002800751
:108C6700C002125032D002902238E0FB530301BBFE
:108C770001028072758214C002785D79937A0112BD
:108C870000B3D00290A200E030E029902200E0700B
:108C97001BC002783F79E77A021200B37582017828
:108CA7003B79937A011200B3D002800890E6B6E0D0
:108CB700FBBB01F890A200E030E12B902200E0FB23
:108CC700BB011BC002783F79E77A021200B37582B5
:108CD70001783B79937A011200B3D002800890E6BD
:108CE700BAE0FBBB01F8902238E0FB530301BB015C
:108CF700028072758215C002785D79937A0112003D
:108D0700B3D00290A200E030E029902200E0701B6F
:108D1700C002781679E67A021200B3758202783BB0
:108D270079937A011200B3D002800890E6B6E0FB8F
:108D3700BB02F890A200E030E12B902200E0FBBBE1
:108D4700011BC002781679E67A021200B375820217
:108D5700783B79937A011200B3D002800890E6BA83
:108D6700E0FBBB02F8C00278F7799E7A021200B3E3
:108D770078AD79AD7A011200B3784D79A27A0212F3
:108D870000B3781679A67A021200B3900038E0543F
:108D9700034478F0780079807A021200B378477933
:108DA700CA7A011200B3782C79827A011200B3785B
:108DB700D379977A021200B37893799B7A021200DB
:108DC700B3D00290A316E05407FBBB040280040A49
:108DD700028C3D902238E0FA530201BA0103028F58
:108DE7005290A316E05407FABA040790004CE054D7
:108DF700FDF0900264E054DFF0788E79D97A0212A0
:108E070000B3900264E04420F078EE79E07A021231
:108E170000B3758216785D79937A011200B39022B8
:108E270000E0FA90E6D8E0FBEAB50309908200E09B
:108E37004404F08007908200E030E2F990A200E05D
:108E470030E025902200E07017787A79BA7A02121A
:108E570000B3758203783B79937A011200B38008D7
:108E670090E6B6E0FABA03F890A200E030E1279066
:108E77002200E0FABA0117787A79BA7A021200B3B7
:108E8700758203783B79937A011200B3800890E6E4
:108E9700BAE0FABA03F8902200E0FA90E6D8E0FBCD
:108EA700EAB50309908200E054FBF0800790820046
:108EB700E020E2F9758218785D79937A011200B3A0
:108EC700902200E0FA90E6D8E0FBEAB50309908229
:108ED70000E04408F08007908200E030E3F990A2B8
:108EE70000E030E025902200E0701778C579B37A6A
:108EF700021200B3758205783B79937A011200B3A9
:108F0700800890E6B6E0FABA05F890A200E030E1F2
:108F170027902200E0FABA011778C579B37A0212CE
:108F270000B3758205783B79937A011200B3800804
:108F370090E6BAE0FABA05F8908200E054F7F075C7
:108F47008200785D79937A011200B3902003E05490
:108F5700FBF0902003E054FEF090216AE054FBF010
:108F6700902163E054BFF0900244E04480F0900207
:108F77004CE0547FF090600AE04420F0906638E4BB
:108F8700F0906639F090822CE054EFF090E6B1E46F
:108F9700F0906003E04401F0902206E0FA5302FBF0
:108FA700902206EAF090A318E030E52C90E6D8E08E
:108FB7007006902200E0601090E6D8E0FABA01113E
:108FC700902200E0FABA010990A318E054DFF0807C
:108FD7000790A318E020E5F990A316E05407FABA22
:108FE700031190E61FE090678FF090E61EE0FA907D
:108FF700678EF0902033E0C4540F9067CBF09066F3
:109007002BE4F090220BE04480F0D2AF906623E08F
:10901700FA70089022307419F08015902007E0301C
:10902700E5089022307419F08006902230741AF007
:109037000200C590E607E030E003029338D21690AD
:1090470067B8E0FA7407B50200500302931EEA2AD4
:109057002A90905C730290740290B402912202915C
:10906700420291650291880292560292ED78A579A3
:10907700BE7A021200B3E5828583F0906617F0A3EB
:10908700E5F0F0906624E0FA700302931E90207ECC
:10909700E020E10302931E90E60DE020E503029332
:1090A7001E789379E07A011200B302931E90600A4A
:1090B700E020E30302931E906638E0FABA011990A4
:1090C700E60EE030E012902002E030E20B781679ED
:1090D700E67A021200B38025BA03005007902007F2
:1090E700E020E40E7402B502005012902102E03035
:1090F700E60B8A82787E79EC7A021200B3906638A2
:10910700E02401F0906638E0FA7405B502004003E8
:1091170002931E906638E4F002931E90E60EE0205C
:10912700E30302931E9067CAE0FA700302931E7866
:109137003979807A011200B302931E90E60EE0207F
:10914700E10302931E9067CAE0FA700302931E754B
:109157008200784E79AF7A011200B302931E90E62F
:109167000EE020E20302931E9067CAE0FA70030242
:10917700931E758200784579B17A011200B3029384
:109187001E906639E0FA7404B50200500302923863
:10919700EA2A2A90919E730291AD0291C30291D55A
:1091A7000291E702920C9067CAE0FA7003029238C4
:1091B70078F7799E7A021200B30292389067CAE074
:1091C700FA606E784D79A27A021200B380639067D5
:1091D700CAE0FA605C781679A67A021200B3805169
:1091E700902007E030E44A900258E05407700B786B
:1091F700D379977A021200B380377893799B7A02F2
:109207001200B3802C902200E0FA90E6D8E0FBEA47
:10921700B5031E90661CE0FA701790E60EE030E486
:109227001090A34FE030E009786079C97A02120004
:10923700B3906639E02401F0906639E0FA7404B51A
:109247000200400302931E906639E4F002931EA2C7
:1092570003E433FA9022B4EAF0902200E0FA90E6B1
:10926700D8E0FBEAB50302800302931E90661CE078
:10927700FA600302931E90A34FE020E00302931EBF
:1092870020030302931E90E60DE020E60302931EDF
:1092970078C279CD7A021200B390E606E0541C70CA
:1092A70041906626E0FA74F05AFBBB100C758BFBF5
:1092B700758DFFD28EC203805E74F05AFBBB200C03
:1092C700758BD8758DFFD28EC203804B5302F0BACF
:1092D700300C758B9C758DFFD28EC2038039D203FB
:1092E7008035D2038031902200E0FA90E6D8E0FB87
:1092F700EAB5032390661CE0FA701C90A319E030CE
:10930700E61590E60EE0C4035401FABA010978B6EF
:1093170079C67A021200B39067B8E02401F090672B
:10932700B8E0FA7407B5020050059067B8E4F0C2D8
:10933700160200C5AA82902232EAF0902200E0705D
:109347000590E6B6EAF0902200E0FBBB010590E647
:10935700BAEAF00200C5AA8290A316E05407FBBB45
:10936700040D902238E0FB530301BB0102803C8AC5
:1093770082C002783B79937A011200B3D00290E65B
:10938700B6E0FBB5020A90E6BAE0FBB50202801B25
:1093970090E6C6E0601590E6CAE0600FC00278F17B
:1093A70079BF7A021200B3D00280D30200C51243FC
:1093B7004E90A316E05407FABA041190678CE0FAAE
:1093C70090678DE0FBEAB5030302959F902200E0CA
:1093D700FA90E6D8E0FBEAB503028003029488908E
:1093E7002238E0FA530201BA01028009787179D470
:1093F7007A021200B39082B4E054074480F090825E
:10940700B4E054F84402F09082C8E0540FF090A3FF
:1094170016E05407FABA0406C228C229802B301175
:109427001D30100DA20FB3922A9228A20F92298005
:1094370018A20F9228A20FB3922A9229800BA20F8B
:10944700B3922A9228A20F9229A20FE43390E61E24
:10945700F0A228E433F582C025123A22D02590A342
:1094670019E054EFF0902238E0FA530201BA0102F2
:109477008036C025784179D47A021200B3D025808E
:109487002790A316E05407FABA0404C229801930BA
:109497001112301006A20F9229800DA20FB3922845
:1094A70092298004A20F92299022B47432F0906618
:1094B70015E09022B5F0906616E09022B6F090671E
:1094C7008CE09022B7F0906300E09022B8F0A212EF
:1094D700E4339022B9F0A210E4339022BAF0A20F3D
:1094E700E4339022BBF0906624E0FA9022BCF0A20D
:1094F70012B39228E433FB90A32413E092E0F0EA3E
:10950700700302958F90A316E05407FABA0402C2BB
:1095170029301274C025788979D47A021200B3D021
:1095270025A229E433F582123DBA901010E05407C2
:109537004480F0901014E054F04408F0901018E0C4
:10954700541F4460F090101C7484F0901014E05481
:10955700CFF0902082E04402F0900005780279BCB9
:109567007A021200B3902082E04401F0900005785F
:109577000279BC7A021200B390207EE054FEF078A4
:10958700A179D47A021200B3906623E0FA700978C1
:10959700D179D47A021200B30200C590264474032D
:1095A700F0A3F0A37404F0A3E4F0902644F0A3F032
:1095B700A3F0A3F090215B7460F0E4F030065590BF
:1095C700A316E05407FABA044BC206906602E0906D
:1095D700230313E092E7F0906600E0902302030371
:1095E70054C0F5F0E0543F45F0F0906601E0902359
:1095F70003540FF5F0E054F045F0F09067B0E090B9
:10960700203713E092E7F09067B1E0FA9021071353
:10961700E092E7F0902102E030E607902002E02098
:10962700E22E9026447408F0E4F0902600E0FAA3B6
:10963700E0A3E0FCA3E0FD5302027B0053041F53A9
:1096470005A0902600EAF0A3EBF0A3ECF0A3EDF061
:109657009022E4E030E00D90602E7402F0906033C9
:10966700E04401F0101603029706902200E0FA90FA
:10967700E6D8E0FBEAB50309787479CC7A021200E0
:10968700B3900034E054FEF0900044E054EFF090C3
:109697000220E054FEF0900218E054FEF090021C05
:1096A700E054FEF090003CE054FDF090021CE054C2
:1096B700FDF0900220E054FDF0900040E054FDF0F2
:1096C70090822CE0547FF09082D8E054FEF0900016
:1096D70040E054FEF090024CE0547FF090025CE0D2
:1096E70054FDF0900060E054FDF09082DCE0547F80
:1096F700F0901014E054BFF0901020E0547FF00277
:1097070000C5C018858118058105819061707401B5
:10971700F09066F7E0FABA0102800B90E607E003E3
:109727005401FABA0106200803029EB69060A2E42B
:10973700F09060A3F0906797E0FA906174E0FBA364
:10974700E0FCEB20E0030297F79060A27401F09031
:109757002163E0547FF090240CE0547FF0902102C5
:10976700E04480F0E0547FF0C00278F179BF7A02DC
:109777001200B3902403E054BFF0758E07902410B5
:10978700E04404F0E054FBF0758E009022D0E044F2
:1097970080F09022D4E04480F09022D0E0547FF013
:1097A7009022D4E0547FF078BE799E7A011200B3FC
:1097B700D0029060A27402F09060A0E030E131C066
:1097C700027893798C7A021200B375820078BD799A
:1097D7008C7A021200B375821078BD798C7A0212E6
:1097E70000B375821278BD798C7A021200B3D00269
:1097F700906174E0FBA3E0FCEB30E12A9060A27477
:1098070003F0C00274FFC0E0900000784279937AB9
:10981700021200B31581D002902163E04480F090DA
:10982700240CE04480F0906174E0FBA3E0FCEB20A3
:10983700E2030299519060A27404F0758201C0029C
:10984700783279927A021200B375820078C67996D7
:109857007A021200B3D002906174E0FBA3E0FCEB44
:1098670030E51B9060A27405F0C002E4C0E0900AE6
:1098770001784279937A021200B31581D002758B71
:10988700F0758DD8D28EC2039060A27406F0C00224
:109897007401C0E0900A01784279937A021200B30A
:1098A7001581D002906661E0FBB50202806E906080
:1098B700A27408F0EBFC3395E0FDEC24FEFEED34DA
:1098C700FFFFA81808A602EA3395E008F6A81808CB
:1098D700C3E69E08E664808FF063F08095F050043D
:1098E7000A0A802074022CFCE43DFDA81808C3EC8A
:1098F70096ED64800886F063F08095F050041A1A9C
:1099070080028B02906662E0FBC002C0038A82126B
:109917002D251581D00220030302988F30030F9065
:1099270060A3E0FA4302029060A3EAF0C203C28E8A
:10993700C28F75820078BD798C7A021200B3758266
:109947001078BD798C7A021200B3906174E0FAA3A3
:10995700E0FBEA20E403029B149060A2740AF090F3
:109967002401E054FDF0902401E054FEF09061746E
:10997700E0FAA3E0FBEA30E53A9060A2740BF075D9
:109987008201783279927A021200B375820078C622
:1099970079967A021200B390240BE04480F0E054E9
:1099A700BFF0E4C0E0900A01784279937A0212008E
:1099B700B31581906174E0FAA3E0FBEA30E64990C1
:1099C70060A2740CF0202718758201783279927A98
:1099D700021200B375820078C679967A021200B334
:1099E70090240BE04480F0E054BFF0902402E04460
:1099F70008F0E054FBF07402C0E0900A0178427965
:109A0700937A021200B31581906174E0FAA3E0FB28
:109A1700EA30E7609060A2740DF020271875820085
:109A2700783279927A021200B375820278C67996F3
:109A37007A021200B390240BE04480F0E054BFF0A8
:109A4700902402E04408F0E054FBF030081474025C
:109A5700C0E0900000784279937A021200B3158132
:109A670080127402C0E0900302784279937A02125E
:109A770000B31581906174E0FAA3E0FB20E00302D4
:109A87009B149060A2740EF020271875820078321C
:109A970079927A021200B375820278C679967A02B1
:109AA7001200B390240BE0547FF090240BE054BFD6
:109AB700F0902402E054F7F0902402E054FBF09079
:109AC7006715E0FA60147404C0E0900204784279E4
:109AD700937A021200B3158180127402C0E09002DB
:109AE70004784279937A021200B315817893798CBE
:109AF7007A021200B375821078BD798C7A0212004F
:109B0700B375820078BD798C7A021200B3906174C4
:109B1700E0FAA3E0FB20E103029BAA9060A2741085
:109B2700F0902401E054FDF0902401E054FEF09001
:109B370060A27411F090240BE0547FF0E04440F0F1
:109B4700902402E054F7F0E04404F07403C0E0907E
:109B57000A01784279937A021200B315819060A2C4
:109B67007412F090240BE0547FF090240BE054BF64
:109B7700F0902402E054F7F0902402E054FBF074D4
:109B870003C0E0900302784279937A021200B3157A
:109B9700819060A27413F075821278BD798C7A0275
:109BA7001200B3906174E0FAA3E0FB20E203029C89
:109BB700379060A27414F0758200783279927A0235
:109BC7001200B375820278C679967A021200B390B2
:109BD70060A27415F0902401E04402F090240BE099
:109BE7004480F0E054BFF0E4C0E090080278427986
:109BF700937A021200B315819060A27416F0902434
:109C07000BE0547FF090240BE054BFF0E4C0E090E9
:109C17000404784279937A021200B31581758201A0
:109C270078BD798C7A021200B3902401E054FDF0DC
:109C3700906174E0FAA3E0FB20E403029DDE9060EC
:109C4700A27418F0202718758200783279927A0268
:109C57001200B375820278C679967A021200B39021
:109C67002404E054BFF0902401E04401F07A007B23
:109C770000758202C002C0037885798B7A021200D0
:109C8700B3D003D0029060A27419F090240BE04483
:109C970080F0E054BFF020271BC002C003E4C0E0FF
:109CA700900A02784279937A021200B31581D003A1
:109CB700D0028019C002C003E4C0E09008027842D5
:109CC70079937A021200B31581D003D0029060A273
:109CD700741AF090240BE0547FF0E04440F0202702
:109CE7001BC002C003E4C0E0900804784279937A6D
:109CF700021200B31581D003D0028019C002C0033D
:109D0700E4C0E0900604784279937A021200B31512
:109D170081D003D0029060A2741CF0EB701675829C
:109D270002C002C00378BD798C7A021200B3D00357
:109D3700D002802DEA7016758203C002C00378BD79
:109D4700798C7A021200B3D003D002801475820492
:109D5700C002C00378BD798C7A021200B3D003D059
:109D6700029060A2741BF09060A0E030E35BEB70A0
:109D77001F7B01906661E0FCC002C003906700E0B2
:109D8700C0E08C82122D251581D003D002029C7869
:109D9700EA701F7A01906661E0FCC002C003906719
:109DA70002E0C0E08C82122D251581D003D002027B
:109DB7009C78906701E0FA906662F0906661E0FB3C
:109DC700C0028B82122D251581902401E054FEF0EC
:109DD700902404E04440F0906174E0FAA3E0FB2093
:109DE700E603029E8D90604FE030E603029E8D9061
:109DF70060A27421F0902580E04401F090605AE061
:109E070020E2207582017885798B7A021200B37877
:109E170003799F7A011200B37800798B7A021200D6
:109E2700B3800F906039E0F5827800798B7A02125F
:109E370000B39060A27422F0902580E04404F0E023
:109E470054FBF090605AE030E21474FFC0E09020B9
:109E570008784279937A021200B31581801274FF51
:109E6700C0E0900A05784279937A021200B315810F
:109E77009060A27423F078B879887A021200B3AAA6
:109E870082906170EAF090605AE020E21C20081985
:109E97009060A27424F07582017885798B7A02121A
:109EA70000B3902580E054FEF09060A27425F08501
:109EB7001881D0180200C5902403E04420F0E05434
:109EC700DFF0E04402F0902403E054FDF0E04401A9
:109ED700F0E054FEF0758B9C758DFFD28EC2032087
:109EE700031790240BE030E5F678F179BF7A021278
:109EF70000B390240BE030E5E60200C5906158E01E
:109F0700FA906159E0FBC0038A82782779C07A0208
:109F17001200B3AB8215818B0290615AE0FBC0033C
:109F27008A82782779C07A021200B3AB8215818BB7
:109F37000290615BE0FBC0038A82782779C07A02CE
:109F47001200B3AB8215818B0290615CE0FBC0030A
:109F57008A82782779C07A021200B3AB8215818B87
:109F67000290615DE0FBC0038A82782779C07A029C
:109F77001200B3AB8215818B0290615EE0FBC003D8
:109F87008A82782779C07A021200B3AB8215818B57
:109F97000290615FE0FBC0038A82782779C07A026A
:109FA7001200B3AB8215818B0290E6AFE0C4540F69
:109FB700FB8BF005F0EA8002C313D5F0FBFA90E6BD
:0C9FC700AFE0540FFB2AFAF5820200C53F
:020000040000FA
:1000DE00D315D3111003D77590550040000280013F
:0A00EE000010D3019300D755D3058D
:020000040001F9
:109FD300902402E054EFF0900054E04408F0900025
:109FE30054E04404F0900054E04402F0900054E044
:109FF3004401F0900058E04480F0902401E04404D0
:10A00300F0902418E054EFF0902418E054DFF0901F
:10A013002405E054FEF0902405E054F7F00200C557
:10A0230090604CE020E40302A10490604CE030E334
:10A033000302A10490604CE030E50302A1049066A2
:10A04300F7E0FA600302A104906725E0FA600302D7
:10A05300A10490663AE02401F090663AE0FA7403B2
:10A06300B50200400302A10490663AE4F075820150
:10A073007885798B7A021200B378E779907A0212A5
:10A0830000B3902409E4F0902408E0FA53020D9001
:10A093002408EAF090240AE04440F0902405E054B8
:10A0A300FDF0902405E054FEF0902405E054F7F011
:10A0B300902400E044F0F07404C0E0901010784263
:10A0C30079937A021200B3158178E779907A0212B4
:10A0D30000B3902408E0FA5302F0902408EAF090C9
:10A0E300240AE054BFF07404C0E090100178427970
:10A0F300937A021200B315817893798C7A02120055
:10A10300B30200C590604CE030E02B900264E03075
:10A11300E209900264E054FBF0802D900264E04475
:10A1230004F0782379A07A011200B378AB79DF7A4F
:10A13300021200B38012782379A07A011200B37857
:0BA14300AB79DF7A021200B30200C506
:020000040002F8
:10887C00C018858118AA82AB83ACF0FDE51824F9E9
:10888C00F8C3E69A08E69B08E69C08E69D50098A20
:10889C00828B838CF0ED800FE51824F9F886820822
:1088AC0086830886F008E6D0180200C5C018E5815A
:1088BC00F5182408F581902560E0FAA3E0FBA3E00D
:1088CC00FCA3E0FDE5182405F8A60208A60308A6FB
:1088DC000408A605902564E0FEA3E0FFA3E0FAA33C
:1088EC00E0FBC006C007C002C003E5182405F886EB
:1088FC00820886830886F008E6787C79887A0212EA
:10890C0000B3AA82AB83ACF0FDE58124FCF581E5D4
:10891C00182405F8A60208A60308A60408A60590C4
:10892C002568E0FAA3E0FBA3E0FCA3E0FDC002C0D5
:10893C0003C004C005E5182405F886820886830860
:10894C0086F008E6787C79887A021200B3AA82ABAA
:10895C0083ACF0FDE58124FCF581E5182405F8A62F
:10896C000208A60308A60408A60590256CE0FAA345
:10897C00E0FBA3E0FCA3E0FDC002C003C004C00503
:10898C00E5182405F886820886830886F008E678C0
:10899C007C79887A021200B3AA82AB83ACF0FDE535
:1089AC008124FCF581E5182405F8A60208A6030825
:1089BC00A60408A605902570E0FAA3E0FBA3E0FC52
:1089CC00A3E0FDA81808A60208A60308A60408A69A
:1089DC0005902574E0FEA3E0FFA3E0FAA3E0FBC042
:1089EC0006C007C002C003A8180886820886830840
:1089FC0086F008E6787C79887A021200B3AA82ABFA
:108A0C0083ACF0FDE58124FCF581A81808A60208CA
:108A1C00A60308A60408A605902578E0FAA3E0FBB7
:108A2C00A3E0FCA3E0FDC002C003C004C005A8186D
:108A3C000886820886830886F008E6787C79887A2E
:108A4C00021200B3AA82AB83ACF0FDE58124FCF5E5
:108A5C0081A81808A60208A60308A60408A6059073
:108A6C00257CE0FAA3E0FBA3E0FCA3E0FDC002C080
:108A7C0003C004C005A8180886820886830886F0FF
:108A8C0008E6787C79887A021200B3AA82AB83ACB0
:108A9C00F0FDE58124FCF581A81808A60208A603C0
:108AAC0008A60408A60590E6AEE0FAE4FBFCFDE59A
:108ABC00182405F8C3E69A08E69B08E69C08E69D90
:108ACC005005758200802590E6ACE0FAA3E0FB7CB3
:108ADC00007D00A81808C3EA96EB0896EC0896ED02
:108AEC00089650057582008003758201851881D027
:108AFC00180200C5AA82902440EA543FF5F0E054D5
:108B0C00C045F0F0902441EA543FF5F0E054C045E4
:108B1C00F0F0902442EA543FF5F0E054C045F0F0F8
:108B2C00902443EA543FF5F0E054C045F0F0902413
:108B3C0060EA543FF5F0E054C045F0F0902461EA4F
:108B4C00543FF5F0E054C045F0F0902462EA543FF5
:108B5C00F5F0E054C045F0F0902463EA543FF5F092
:108B6C00E054C045F0F0902430740FF0E4F0902401
:108B7C0034740FF0E4F00200C5AA82BA0102800836
:108B8C00BA0202805F028C897440C0E0E4C0E074D9
:108B9C0078C0E07461C0E0E4C0E090244075F0005F
:108BAC00786479C17A021200B3E58124FBF58190D7
:108BBC00243074FFF0A3F0A3F0A3747FF090243062
:108BCC00E4F0A3F0A3F0A3F090243474FFF0A3F02E
:108BDC00A3F0A3747FF0902434E4F0A3F0A3F0A3EB
:108BEC00F0028C89906178E0902440543FF5F0E0DD
:108BFC0054C045F0F0906179E0902441543FF5F079
:108C0C00E054C045F0F090617AE0902442543FF576
:108C1C00F0E054C045F0F090617BE0902443543F69
:108C2C00F5F0E054C045F0F0906198E09024605469
:108C3C003FF5F0E054C045F0F0906199E09024616C
:108C4C00543FF5F0E054C045F0F090619AE0902468
:108C5C0062543FF5F0E054C045F0F090619BE0FAAF
:108C6C00902463543FF5F0E054C045F0F09024306C
:108C7C00740FF0E4F0902434740FF0E4F090240BB3
:108C8C00E030E5F90200C57440C0E0E4C0E0748057
:108C9C00C0E07424C0E0E4C0E090617875F0007826
:108CAC006479C17A021200B3E58124FBF5810200DC
:108CBC00C5AA82BA00028027BA0103028D41BA020A
:108CCC0003028D85BA0303028DC9BA0403028E0D0B
:108CDC00BA1003028E51BA1203028E7B028F54908B
:108CEC0024D0E0906148F09024D1E0906149F0905C
:108CFC0024D2E090614AF09024D3E090614BF09044
:108D0C0024F0E090614CF09024F1E090614DF090F3
:108D1C0024F2E090614EF09024F3E0FA90614FF071
:108D2C0090240BE030E2047A0180027A00906171A9
:108D3C00EAF0028F549024D0E0906150F09024D14E
:108D4C00E0906151F09024D2E0906152F09024D3E5
:108D5C00E0906153F09024F0E0906154F09024F195
:108D6C00E0906155F09024F2E0906156F09024F37D
:108D7C00E0FA906157F0028F549024D0E090615843
:108D8C00F09024D1E0906159F09024D2E090615A97
:108D9C00F09024D3E090615BF09024F0E090615C63
:108DAC00F09024F1E090615DF09024F2E090615E2F
:108DBC00F09024F3E0FA90615FF0028F549024D08D
:108DCC00E0906160F09024D1E0906161F09024D249
:108DDC00E0906162F09024D3E0906163F09024F015
:108DEC00E0906164F09024F1E0906165F09024F2E1
:108DFC00E0906166F09024F3E0FA906167F0028FE6
:108E0C00549024D0E0906168F09024D1E090616996
:108E1C00F09024D2E090616AF09024D3E090616BE2
:108E2C00F09024F0E090616CF09024F1E090616D92
:108E3C00F09024F2E090616EF09024F3E0FA9061EF
:108E4C006FF0028F547440C0E0E4C0E074D0C0E016
:108E5C007424C0E0E4C0E090610075F0007864799F
:108E6C00C17A021200B3E58124FBF581028F549084
:108E7C0024C0E0547F9061B8547FF5F0E0548045F5
:108E8C00F0F09024C1E0547F9061B9547FF5F0E08C
:108E9C00548045F0F09024C2E0547F9061BA547F26
:108EAC00F5F0E0548045F0F09024C3E0547F9061DD
:108EBC00BB547FF5F0E0548045F0F09024C4E054AE
:108ECC007F9061BC547FF5F0E0548045F0F0902425
:108EDC00C5E0547F9061BD547FF5F0E0548045F0BF
:108EEC00F09024C6E0547F9061BE547FF5F0E054BE
:108EFC008045F0F09024C7E0547F9061BF547FF51B
:108F0C00F0E0548045F0F0902510E0906140F09036
:108F1C002511E0906141F0902512E0906142F090B3
:108F2C002513E0906143F0902514E0906144F0909B
:108F3C002515E0906145F0902516E0906146F09083
:108F4C002517E0FA906147F00200C5AA82BA000228
:108F5C008009BA0203028FF302907C906148E09082
:108F6C002440543FF5F0E054C045F0F0906149E0E6
:108F7C00902441543FF5F0E054C045F0F090614A24
:108F8C00E0902442543FF5F0E054C045F0F090617D
:108F9C004BE0902443543FF5F0E054C045F0F09082
:108FAC00614CE0902460543FF5F0E054C045F0F083
:108FBC0090614DE0902461543FF5F0E054C045F0D1
:108FCC00F090614EE0902462543FF5F0E054C045BF
:108FDC00F0F090614FE0FA902463543FF5F0E054C8
:108FEC00C045F0F002907C906158E0902440543FD2
:108FFC00F5F0E054C045F0F0906159E090244154F4
:10900C003FF5F0E054C045F0F090615AE0902442F6
:10901C00543FF5F0E054C045F0F090615BE09024D3
:10902C0043543FF5F0E054C045F0F090615CE090A3
:10903C002460543FF5F0E054C045F0F090615DE0E1
:10904C00902461543FF5F0E054C045F0F090615E1F
:10905C00E0902462543FF5F0E054C045F0F090618C
:10906C005FE0FA902463543FF5F0E054C045F0F013
:10907C00902430740FF0E4F0902434740FF0E4F08A
:10908C0090240BE030E5F90200C5E582FA602B90E4
:10909C00604CE030E010900264E054E7F090020C79
:1090AC00E0548FF08026900264E054E74408F0907E
:1090BC00020CE0548F4430F08012900264E054E7CC
:1090CC004410F090020CE0548F4420F090000A7889
:1090DC000279BC7A021200B30200C59060A4E030A1
:1090EC00E4119024087455F0A3F090240AE054C0C5
:1090FC00F0800F90240874FFF0A3F090240AE04451
:10910C003FF0902401E054FDF0902401E054FEF077
:10911C0090240AE054BFF0902402E054F7F090241D
:10912C0002E054FBF090240BE0547FF090240BE011
:10913C0054BFF00200C5902401E0C4035401FABAF4
:10914C000126758B18758DFCD28EC203902401E01C
:10915C0054DFF0902402E020E1033003F690240267
:10916C00E054FEF0C28EC28F0200C590E607E030DC
:10917C00E20302922F902401E030E50302922F903B
:10918C0066F7E0FABA010302922F90604CE020E4FB
:10919C000790604CE030E30302922F7582017885D2
:1091AC00798B7A021200B3902406E0543F4480F08D
:1091BC009024077405F078E779907A021200B39046
:1091CC002408E0FA5302FD902408EAF090240AE007
:1091DC004440F0902405E054FDF0902405E054FE4A
:1091EC00F0902405E054F7F0D20DD20C7582007883
:1091FC003279927A021200B3902401E04420F0906C
:10920C002402E054FEF0E04401F090604EE030E7C0
:10921C0012902401E054FBF0E04410F0902401E0A3
:10922C004401F00200C5AA82300C07200D047B0C0F
:10923C008013200C07300D047B038009BA01047BDA
:10924C000C80027B0F9060A4E0540FF4FA52039050
:10925C002400EBC454F0F5F0E0540F45F0F002009C
:10926C00C5900228E003035407FA5302039060A44C
:10927C00E054EFF09067947420F09060A4E054DF19
:10928C00F0BA0313902402E0547FF0E04440F090D5
:10929C0067937408F0804EBA0213902402E0448065
:1092AC00F0E054BFF09067937404F08038BA012159
:1092BC00902402E0547FF0E04440F09067937402F5
:1092CC00F09060A4E04410F09060A4E04420F080A2
:1092DC0014902402E04480F0902402E04440F0908A
:1092EC0067937401F0900228E003035407FB30E20B
:1092FC000B906793E025E0FB906793F09066F7E0A6
:10930C00FB700D906793E0C42354E0FB906794F0DE
:10931C00EA7010902402E04420F09060A4E054F035
:10932C00F08010902402E054DFF09060A4E054F040
:10933C004405F00200C5C018858118AA82AB839041
:10934C006038E023235401FCBC010280119066F7C5
:10935C00E0FCBC01028007902411E020E10302959F
:10936C00DA90604FE030E71C902405E0540FF09049
:10937C002406E054C0F0902406E0543FF0902407FB
:10938C00E4F0804A8B04740F5C902405C454F0F50F
:10939C00F0E0540F45F0F0ECC4540FFC53043F9034
:1093AC002406EC543FF5F0E054C045F0F074035A39
:1093BC00FB902406030354C0F5F0E0543F45F0F055
:1093CC00EA0303543FFA53023F902407EAF0E518EE
:1093DC0024FCF8E624F950030294BEE51824FCF8AA
:1093EC00E625E0269093F4730294090294250294E6
:1093FC004202945B02947102948A0294A390240812
:10940C007401F0902409E4F090240AE054C0F09028
:10941C00240AE054BFF00294D590240874FFF09015
:10942C00240974FFF090240AE054C0F090240AE060
:10943C0054BFF00294D590240874FFF09024097462
:10944C00FFF090240AE0443FF0E054BFF0807A90A3
:10945C002408E4F0902409F090240AE054C0F0E0D1
:10946C004440F0806490240874FDF090240974FF4B
:10947C00F090240AE0443FF0E054BFF0804B90247D
:10948C000874F0F090240974FFF090240AE0443F33
:10949C00F0E054BFF08032902408740DF090240951
:1094AC00E4F090240AE0443FF090240AE04440F0B9
:1094BC008017902408E4F0902409F090240AE054DA
:1094CC00C0F090240AE054BFF0E51824FCF8B6FF75
:1094DC0002804D9060A0E030E21B902408E0FA532B
:1094EC000201902408EAF0902409E4F090240AE0A8
:1094FC0054C0F0802B9060A4E030E50790240AE083
:10950C0054C0F09060A4E030E416902408E0FAA374
:10951C00E0FB530255530355902408EAF0A3EBF0FB
:10952C00900264E0C4235403FABA0202800D902422
:10953C0008E0FA5302FD902408EAF0902402E0546B
:10954C00FEF0E04401F078F179BF7A021200B3909A
:10955C006098E020E45330080C758BF8758DFFD2C1
:10956C008EC203800A758B18758DFCD28EC2039047
:10957C002402E020E1033003F6902402E054FEF0D4
:10958C003003209022C2E0FA0A9022C2EAF09060E6
:10959C00A3E0FA4302019060A3EAF0C2039067993A
:1095AC007401F0C28EC28F800E902402E030E1F97B
:1095BC00902402E054FEF0902408E4F0902409F08A
:1095CC0090240AE054C0F090240AE054BFF0D01864
:1095DC000200C5AA82906016E0FB900224C42354BA
:1095EC0060F5F0E0549F45F0F0BA0102800302965A
:1095FC008F902403E04440F09061B8E090243854FC
:10960C007FF5F0E0548045F0F09061B9E09024399A
:10961C00547FF5F0E0548045F0F09061BAE090246E
:10962C003A547FF5F0E0548045F0F09061BBE09047
:10963C00243B547FF5F0E0548045F0F09061BCE0A1
:10964C0090243C547FF5F0E0548045F0F09061BDDF
:10965C00E090243D547FF5F0E0548045F0F09061AB
:10966C00BEE090243E547FF5F0E0548045F0F0903D
:10967C0061BFE0FA90243F547FF5F0E0548045F050
:10968C00F08007902403E054BFF0902403E04420C2
:10969C00F0E054DFF0758B9C758DFFD28EC20320E9
:1096AC00031590240BE0C4035401FA90240BE0C47E
:1096BC00035401FB5A60E80200C5AA82BA0002807A
:1096CC0005BA012D8017902405E04408F09024057C
:1096DC00E04401F0902405E04402F0803D90240524
:1096EC00E04408F0E054FEF0902405E054FDF080D6
:1096FC0029902405E054F7F0902400E0C4540FFAAC
:10970C00BA0F09902405E054FDF08007902405E081
:10971C004402F0902405E054FEF00200C59066F877
:10972C00E0FA7403B502004072EA2A2A90973C735F
:10973C0002974802975F029781029795900058E034
:10974C0054DFF0900058E054BFF0900058E054EF14
:10975C00F08048A20DE43390005813E092E5F0A29B
:10976C000CE433FA90005813E092E6F0900058E0C5
:10977C0054EFF08026900058E04420F0900058E020
:10978C004440F0E054EFF08012900058E054DFF0C9
:0E979C00900058E054BFF0E04410F00200C509
:020000040000FA
:1000F800906099E0FABA170978FA79AF7A02120093
:09010800B3906098E054FEF0226F
:10021600C018858118058105819022D8E04420F018
:10022600E054DFF09022B47414F09022E4E020E071
:100236000A906033E054FEF00204E47A0290601FF4
:10024600E0FBA81808A60390601CE0FC906023E081
:10025600FD530580A8180808E4BD800104F69060E7
:1002660020E0FEA3E0FFA3E0FDA3E0FB906024EE08
:10027600F0A3EFF0A3EDF0A3EBF0906023E0FB53C7
:10028600030F90A316E05407FDBD043290E62CE060
:10029600540FFD902033E0C4540FF582C002C00411
:1002A600C005782779C07A021200B3AD8215818D18
:1002B600038B8212423DAD82D004D0028D03BB0572
:1002C6000040057A040204AEA8180808E660027B1E
:1002D60080C0029022B47413F09022B5A81808E6E4
:1002E600F09022B6ECF0906020E0FDA3E0FEA3E0E3
:1002F600FFA3E0FA9022C4EDF0A3EEF0A3EFF0A383
:10030600EAF0A81808B660028004D002800FD00276
:10031600902600E020E0030204AE0204E4A81808D8
:10032600B68071740BB5040050030204AEEC2C2C9D
:1003360090033A7302035E02035E02039702039779
:1003460002039702039702036E02036E02037E0204
:10035600037E02038E02038EC0048B821204EAAD72
:100366008215818D020204AEC0048B82120952AD41
:100376008215818D020204AEC0048B82120DEEAD91
:100386008215818D020204AE8C82120C82AD828DA2
:10039600020204AEA81808B681477405B5040050D9
:1003A600030204AEEC2C2C9003B1730203C30203C8
:1003B600C30203CF0203CF0203DB0203DB8C8212EC
:1003C6000CBBAD828D020204AE8C82120D07AD828B
:1003D6008D020204AE8C82120D99AD828D0202044A
:1003E600AEA81808B682667407B504005003020466
:1003F600AEEC2C2C9003FE730204160204160204C3
:10040600260204260204350204350204440204448A
:10041600C0048B82120ADBAD8215818D020204AE06
:10042600C0048B8212077AAD8215818D028079C055
:10043600048B8212065CAD8215818D02806AC0042F
:100446008B8212086CAB8215818B02805BA8180820
:10045600B68313BC00028003BC014D8C82120AB520
:10046600AB828B028042A81808B6843CBC0002808E
:1004760005BC0134801A906020E0FB5303039022F0
:1004860000E0FCEBB50421120F74AB828B028018DE
:10049600906020E0FB530303902200E0FCEBB504E0
:1004A60007120FA5AB828B0290602EEAF0906033A4
:1004B600E04401F09022B4740FF090602EE0902298
:1004C600B5F0906024E0FAA3E0FBA3E0FCA3E0FD16
:1004D6009022C4EAF0A3EBF0A3ECF0A3EDF08518AC
:1004E60081D01822C018858118AA82BA800280039A
:1004F6000205E3E51824FDF8B60167902634E0907E
:100506006024F0902635E0FB906025F0902636E0DA
:1005160030E70D906024E0FB430308906024EBF085
:10052600902636E030E60D906024E0FB430304900D
:100536006024EBF0902636E030E50D906024E0FB79
:10054600430302906024EBF09067A4E0FB70030283
:100556000656906024E0FB430301906024EBF00212
:100566000656902637E04420F0906020E09026342E
:10057600F0906021E0902635F0906020E0FB530378
:1005860008BB0803D38001C39228E43390263613B0
:10059600E092E7F0906020E0FB530304BB0403D332
:1005A6008001C39228E43390263613E092E6F09059
:1005B6006020E0FB530302BB0203D38001C39228F1
:1005C600E43390263613E092E5F0906020E0FB538A
:1005D60003019067A4E4BB010104F08073E51824CD
:1005E600FDF8B60126EA2AFB24D0F582E43460F54C
:1005F60083E0906024F0EB24D0FBE43460FC8B8233
:100606008C83A3E0FB906025F08045EA2AFB24D08A
:10061600FCE43460FD906020E0FE8C828D83F0EB7C
:1006260024D0FBE43460FC0BBB00010C906021E09D
:10063600FD8B828C83F09060CFE0FB8AF005F0742E
:1006460001800225E0D5F0FBFA42039060CFEBF083
:10065600758200D01822C018858118AA82BA800235
:1006660080030206E6E51824FDF8B605289000503A
:10067600E0906024F0E0FB900054E0FC74E05C4203
:1006860003906024EBF0902411E0035401FB90608A
:1006960025F0020774906020E0900050F09000541E
:1006A600E0FB53031F900054EBF0E0FB906020E06A
:1006B600FC74E05C4203900054EBF0906021E0543F
:1006C6000190241013E092E4F0902410E0C4540149
:1006D60090240CE023235401FB9066F7F002077484
:1006E600E51824FDF8B60536EA2A25E024B4F58295
:1006F600E43460F583E0906024F0EA75F050A424B9
:1007060004FB746335F0FC74412BF582E43CF583FD
:10071600E0FBE4BB000104FB906025F08050EA2A70
:1007260025E024B4FBE43460FC906020E08B828CEE
:1007360083F0EA75F050A42404FB746335F0FC746E
:10074600412BFBE43CFC906021E0FD530501E4BD38
:10075600000104FD8B828C83F08AF005F074018021
:100766000225E0D5F0FBFA9067A8E0FB4AF0758217
:1007760000D01822C018858118AA82BA8040E518D0
:1007860024FDF8B60317900200E0FB906024EBF01E
:10079600900204E0FB906026EBF002086690602071
:1007A600E0FB900200EBF0906022E0FB900000EB93
:1007B600F0906022E0FB900204EBF0020866E51878
:1007C60024FDF8B60330EA2A25E0FB24B4FCE43421
:1007D60060FD8C828D83A3E0FC906024ECF0EB241A
:1007E600B4FBE43460FC8B828C83A3A3A3E0FB9070
:1007F6006026EBF0806AEA2A25E0FB24B4FCE434A8
:1008060060FD0CBC00010D906020E0FE8C828D83A3
:10081600EEF0EB24B4FCE43460FD74022CFCE43D01
:10082600FD906022E0FE8C828D83EEF0EB24B4FB1B
:10083600E43460FC74032BFBE43CFC906022E0FD96
:100846008B828C83EDF09060CDE0FB8AF005F0742E
:1008560001800225E0D5F0FBFA42039060CDEBF073
:10086600758200D01822C018858118AA82BA800223
:100876008003020907E51824FDF8B6070C9067A661
:10088600E0FB906024F002094C906013E0FB5303F8
:100896001F7C00906020E0FD53053F9067A6EDF0B9
:1008A600ED7019906013E0FE90001025E025E054ED
:1008B600FCF5F0E0540345F0F002094C7E00C0055B
:1008C600C0068B828C83127B83AD82AE8315811525
:1008D600818D03EEC403CBC40354076BCB5407CB03
:1008E6006BCBFC906013E0FD530520EB42059000B6
:1008F60010ED2D25E054FCF5F0E0540345F0F080B2
:1009060045E51824FDF8B60712EA247CF582E4349E
:1009160060F583E0FB906024F0802BEA247CFBE406
:100926003460FC906020E0FD53053F8B828C83EDA4
:10093600F08AF005F07401800225E0D5F0FBFA900C
:1009460067A7E0FB4AF0758200D01822C01885819F
:1009560018AA82BA800280030209F8E51824FDF875
:10096600B6072C90004CE0C45403FB906024EBF0D7
:1009760090004CE003035403FB906025EBF09000DD
:100986004CE023235403FB906026EBF0020AAF9061
:100996006022E0FBBB01028008906022E0FBBB0204
:1009A60006758204020AB2906020E0FB53030390AE
:1009B600004CEBC45430F5F0E054CF45F0F09060B5
:1009C60021E0FB53030390004CEB2B25E0540CF580
:1009D600F0E054F345F0F0906022E0FB53030390FF
:1009E600004CEB030354C0F5F0E0543F45F0F00231
:1009F6000AAFE51824FDF8B6065FEA75F050A4FBC9
:100A0600ACF0EB2404FDEC3463FE740E2DFDE43EE5
:100A1600FE906020E0FF5307038D828E83EFF0EB9C
:100A26002404FDEC3463FE740D2DFDE43EFE90605F
:100A360021E0FF5307038D828E83EFF0EB2404FB46
:100A4600EC3463FC740C2BFBE43CFC906022E0FD70
:100A56005305038B828C83EDF0EA75F050A4FAAB54
:100A6600F0EA2404FCEB3463FD740E2CF582E43DBD
:100A7600F583E0FC906024ECF0EA2404FCEB34639C
:100A8600FD740D2CF582E43DF583E0FC906025ECC9
:100A9600F0EA2404FAEB3463FB740C2AF582E43B97
:100AA600F583E0FA906026EAF0758200D01822AA53
:100AB60082BA010E906098E0235401FA906024F007
:100AC600800F906020E05401FA90609813E092E75E
:100AD600F075820022C018858118AA82BA80028029
:100AE60003020B8EE51824FDF8B6013A902165E065
:100AF60003035407FB902165E0C4035407C454F074
:100B0600FCEB4204906024ECF090022CE0540FFBC6
:100B1600900230E0C4540FC454F0FCEB42049060E1
:100B260025ECF0020C7C906020E0FB53030790213B
:100B360065EB2B25E0541CF5F0E054E345F0F0900E
:100B46006020E05470C4540F902165C42354E0F52E
:100B5600F0E0541F45F0F0906021E0FB53030F9046
:100B6600022CEB540FF5F0E054F045F0F0906021C4
:100B7600E054F0C4540FFB900230C454F0F5F0E09A
:100B8600540F45F0F0020C7CE51824FDF8E6707C65
:100B9600EA75F050A4FBACF02404FDEC3463FE745B
:100BA600222DFDE43EFE906020E0FF5307078D8274
:100BB6008E83EFF0EB2404FDEC3463FE74232DFDED
:100BC600E43EFE906020E05470C4540F8D828E8304
:100BD600F0EB2404FDEC3463FE74242DFDE43EFEAC
:100BE600906021E0FF53070F8D828E83EFF0EB2498
:100BF60004FBEC3463FC74252BFBE43CFC90602185
:100C0600E054F0C4540FFD8B828C83F0EA75F050EB
:100C1600A4FAABF02404FCEB3463FD74222CFCE450
:100C26003DFDEA2404FEEB3463FF74232EF582E4D3
:100C36003FF583E0C454F0FE8C828D83E04206903B
:100C46006024EEF0EA2404FCEB3463FD74242CFCEF
:100C5600E43DFDEA2404FAEB3463FB74252AF582AD
:100C6600E43BF583E0C454F0FA8C828D83E0FC42C9
:100C760002906025EAF0758200D01822AA8290A31D
:100C860016E05407FBBB030475820222BA0A1690CB
:100C96006020E0FA530207902640EA5407F5F0E098
:100CA60054F845F0F0902640E05407FA906024EAA4
:100CB600F075820022AA8290A316E05407FBBB03BC
:100CC60002800A90A316E05407FBBB050475820256
:100CD60022906020E0FB7403B5030040069060207C
:100CE600E0700475820422EA7009906020E0FA90B0
:100CF60065F6F09065F6E0FA906024EAF0758200F9
:100D060022AA8290A316E05407FBBB0302800A9036
:100D1600A316E05407FBBB050475820122906022EE
:100D2600E0FB53030F7405B503004003EB70047535
:100D3600820422BA022DEB2BFA24B0FCE434E6FD41
:100D46000CBC00010D906021E0FE8C828D83EEF0DC
:100D5600EA24B0FAE434E6FC906020E0FD8A828C56
:100D660083EDF0906026EBF0EB2BFB24B0FAE43435
:100D7600E6FC8A828C83A3E0FA906025EAF0EB24F5
:100D8600B0F582E434E6F583E0FA906024EAF07583
:100D9600820022AA8290A316E05407FBBB030280BE
:100DA6000A90A316E05407FBBB0504758202229045
:100DB6006020E0FB7405B503004006906020E070FB
:100DC6000475820422BA0412906020E0FA90E62BA1
:100DD600540FF5F0E054F045F0F090E62BE0540F98
:100DE600906024F075820022C018858118AA82BA04
:100DF60080028003020EB4E51824FDF8B60945907A
:100E0600200CE003035401FB906026F030101B9089
:100E16002067E023235401906025F0902065E003CD
:100E2600547FFB906024F0020F6E90A00BE023230A
:100E36005401906025F090A012E0547FFB9060244E
:100E4600F0020F6E90200CE04402F0906022E0FB6E
:100E560030E00990200CE04404F0800790200CE07C
:100E660054FBF0301025906021E054019020671368
:100E7600E092E6F0906020E0FB90206525E054FECD
:100E8600F5F0E0540145F0F0020F6E906021E05459
:100E96000190A00B13E092E6F0906020E0FB90A09A
:100EA60012547FF5F0E0548045F0F0020F6EE5181D
:100EB60024FDF8B6086E90E613E04410F0EA2A2501
:100EC600E0FB2498FCE434E6FD906022E0FE530645
:100ED60001BE0103D38001C39228E4338C828D8343
:100EE60013E092E0F0EB2484FCE434E6FD74032C7A
:100EF600FCE43DFD906020E0FE8C828D83547FF5FE
:100F0600F0E0548045F0F0EB2484FBE434E6FC7416
:100F1600032BFBE43CFC906021E0FD8B828C831369
:100F2600E092E7F0EA2A25E0FA2484FBE434E6FCC2
:100F36008B828C83A3A3A3E0547F906024F0EA24E1
:100F460084FBE434E6FC8B828C83A3A3A3E02354C6
:100F560001FB906025F0EA2498F582E434E6F583F7
:100F6600E05401FA906026F0758200D018227A00CB
:100F7600902102E020E6047A028021908200E0447B
:100F860004F0C002787A79BA7A021200B3D00290DD
:100F96008200E054FBF0902230742BF08A82227A91
:100FA60000902102E020E6047A028021908200E08F
:100FB6004408F0C00278C579B37A021200B3D002B1
:100FC600908200E054F7F0902230742BF08A82224F
:100FD60075880575895175A91C75B906D2ABD2AD50
:100FE600D2A8D2AAC2A975B83F75C878759A3EC26A
:100FF60005C206C207C208906711E4F0C209C20A18
:0E100600D203D204C21DC21E9067A5E4F022E0
:020000040002F8
:1097AA00900220E04401F090001E780279BC7A020F
:1097BA001200B3900220E054FEF090001E78027965
:1097CA00BC7A021200B30200C5C018E581F518245C
:1097DA0007F5819022307415F0906002E054FEF093
:1097EA00E5182405F87600E5182406F8E4F6FCFDE9
:1097FA00E5182404F87600E5182407F87600906046
:10980A0003E030E0030298AE90E606E020E10B9018
:10981A00E60BE020E1047A0080027A01C0048A049F
:10982A00ECD0046030C004A20FE433246AF582E469
:10983A003465F583E0FCA81808A604A20FE43324D3
:10984A006EF582E43465F583E090025013E092E706
:10985A00F0D0048039906006E054EFF090024CE0BA
:10986A004480F0900044E0541F4480F0900250E09D
:10987A00547FF0900258E05407FAFCE5182406F8E1
:10988A007601900258E054F8F0A818087620C0042F
:10989A00900248E04401F090E63FE0906610F0D074
:1098AA0004029941906008E06047C00490E632E003
:1098BA0023540125E0246AFCE43465FFA20FE43353
:1098CA002CF582E43FF583E0FAA81808A60290E690
:1098DA003FE0906610F0A20FE433246EF582E43480
:1098EA0065F583E0FA90025013E092E7F0D0048025
:1098FA004690E60EE030E735900258E05407702DA6
:10990A0090024CE04480F0900044E0541F4480F000
:10991A00A20FE433246CF582E43465F583E0FAA8F7
:10992A001808A602E5182405F87601800A90600254
:10993A00E04401F0029B8BA81808860290024CEAC8
:10994A002A547EF5F0E0548145F0F0C004C0057851
:10995A00AA79977A021200B3D005D0040D90024C6E
:10996A00E020E703029B1F906003E05401FABA016A
:10997A000A7401B505005003029B1F906003E020A2
:10998A00E02DED14FAC004C005C002E5182404F85D
:10999A00868278B979BD7A021200B31581D005D0D2
:1099AA00049228500A906006E04410F0029B1F902F
:1099BA006003E020E00FBD4000400A90E648E02046
:1099CA00E403029B1F902040E05401FAE5182403A7
:1099DA00F87600A81808087600E5182405F8E66065
:1099EA0072EA600B906610E014906610F08007909F
:1099FA006610E02401F0906610E0FA701BC004E5DE
:109A0A00182403F87600A8180808760190E63FE0C3
:109A1A00906610F0D004805AC00490E63FE0FCE45F
:109A2A00CC25E0CC33FF8A037E00C3EB9CEE648036
:109A3A008FF063F08095F0D0044037E5182403F8DE
:109A4A007601A8180808760090E63FE0FB906610B9
:109A5A00F0801FEA600FE5182403F87600A81808BA
:109A6A00087601800DE5182403F87601A81808087D
:109A7A007600A8180808B6011FA818088682C0042C
:109A8A00C005784179BD7A021200B3AA82D005D006
:109A9A0004A81808A602802EE5182403F8B60126A1
:109AAA00E5182404F8E64401F6A818088682C004DA
:109ABA00C005781F79BD7A021200B3AA82D005D0F8
:109ACA0004A81808A602E5182404F8E625E0F6E535
:109ADA00182404F8E6543FF6E5182406F8E670035D
:109AEA00029941A81808741F56FABA18028003028C
:109AFA009941E5182407F8E660030299419002505B
:109B0A00E04480F0E5182407F87601A818087620C2
:109B1A007D00029941E5182406F8B6010E90025814
:109B2A00EC5407F5F0E054F845F0F0906003E020BB
:109B3A00E02EA20FE433246AF582E43465F583A8A3
:109B4A001808E6F0A20FE433246EFAE43465FB90B9
:109B5A000250E0235401FC5304018A828B83ECF007
:109B6A00A20FE433FA246CF582E43465F583A8186D
:109B7A0008E6F090024CE0547FF0906002E0440165
:109B8A00F0851881D0180200C5C018E581F518249F
:109B9A0006F5819022307439F0906002E054FDF0AD
:109BAA00900258E05407700A906002E04402F00202
:109BBA009E94E5182405F87600E5182406F8E4F6DC
:109BCA00FCE5182403F87600906003E020E0729028
:109BDA00E606E020E10B90E60BE020E0047E008040
:109BEA00027E01EE6011A20FE4332464F582E434AC
:109BFA0065F583E0FE8038906007E054DFF090025C
:109C0A005CE04402F090024CE04480F0900044E0B2
:109C1A00541F4480F0900258E05407FFFCE51824D2
:109C2A0006F87601900258E054F84401F07E20903C
:109C3A000248E04401F090E63EE0FF90660FF080B3
:109C4A0074906008E0602DC00490E632E02323544B
:109C5A000125E02464FFE43465FCA20FE4332FF508
:109C6A0082E43CF583E0FE90E63EE0FB90660FF06E
:109C7A00D004804190E60EE030E63090025CE04489
:109C8A0002F090024CE04480F0900044E0541F44FB
:109C9A0080F0A20FE4332466F582E43465F583E0AC
:109CAA00FBFEE5182405F87601800A906002E0447C
:109CBA0002F0029E94E5182404F876008E079002BA
:109CCA005CEF2F25E054FCF5F0E0540345F0F0C0BA
:109CDA0004C00678AA79977A021200B3D006D00493
:109CEA00E5182404F80690025CE020E103029E4293
:109CFA00906003E05401FFBF010DE5182404F8E663
:109D0A0024FE5003029E42906003E020E032E518F0
:109D1A002404F8E614FFC004C006C007E5182403AB
:109D2A00F8868278B979BD7A021200B31581D00615
:109D3A00D0049228500A906007E04420F0029E4224
:109D4A00906003E020E014E5182404F8B6400040CF
:109D5A000A90E648E020E303029E42902040E05445
:109D6A0001FFA81808087600A818087600E5182444
:109D7A0005F8E6606CEF600B90660FE01490660FD2
:109D8A00F0800790660FE02401F090660FE0FB7008
:109D9A0019C004A81808087600A81808760190E6E1
:109DAA003FE090660FF0D0048052C00490E63FE096
:109DBA00FCE4CC25E0CC33FA7D00C3EB9CED648057
:109DCA008AF063F08095F0D0044031A8180808762C
:109DDA0001A81808760090E63FE0FA90660FF08036
:109DEA001BEF600DA81808087600A81808760180ED
:109DFA000BA81808087601A818087600A81808B64B
:109E0A000109EE7003FE801B1E8018A8180808B608
:109E1A000111E5182403F8E64401F6BE3F047E3F2B
:109E2A0080010EE5182403F8E625E0F6E518240378
:109E3A00F8E6543FF6029CC6E5182406F8E6600EDA
:109E4A00900258EC5407F5F0E054F845F0F09060B1
:109E5A0003E020E010A20FE433FA2464F582E4342C
:109E6A0065F583EEF0A20FE433FA2466F582E43452
:109E7A0065F583EEF090025CE054FDF090024CE050
:109E8A00547FF0906002E04402F0851881D01802F5
:109E9A0000C5900005780279BC7A021200B39000DE
:109EAA0044E04410F0900005780279BC7A0212006E
:109EBA00B3900220E04401F0900019780279BC7A4C
:109ECA00021200B3900044E054EFF09000057802CB
:109EDA0079BC7A021200B3900220E054FEF090009E
:109EEA0019780279BC7A021200B30200C5C018E5DB
:109EFA0081F5182406F5819022307408F0906000EC
:109F0A00E054BFF0E5182405F87600E5182406F8B1
:109F1A007600E5182404F87600E5182403F876009C
:109F2A007E00906003E030E003029FB390E606E013
:109F3A0020E10B90E609E020E7047F0080027F0120
:109F4A00EF602BC006A20EE4332470F582E4346578
:109F5A00F583E0FFA20EE4332474F582E43465F558
:109F6A0083E090021C13E092E1F0D0068025906015
:109F7A0004E054BFF0900040E04401F0900044E057
:109F8A00541FF090021CE054FDF07F20E5182406CF
:109F9A00F87601C006900218E04401F090E647E026
:109FAA0090660AF0D00602A033906008E06042C0D2
:109FBA000690E631E023540125E02470FEE434657E
:109FCA00FBA20EE4332EF582E43BF583E0FF90E634
:109FDA0047E090660AF0A20EE4332474F582E43472
:109FEA0065F583E0FA90021C13E092E1F0D0068056
:109FFA003890E60DE030E727900040E04401F09009
:10A00A000044E0541FF0A20EE4332472F582E434D3
:10A01A0065F583E0FAFFE5182405F87601800A90D1
:10A02A006000E04440F002A2458F0290021CEA2A36
:10A03A0025E054FCF5F0E0540345F0F0C006C007F3
:10A04A00789C799E7A021200B3D007D006E51824CC
:10A05A0004F806900040E020E00302A1F5906003B6
:10A06A00E05401FABA010DE5182404F8E624FE507A
:10A07A000302A1F5906003E020E032E5182404F819
:10A08A00E614FAC006C007C002E5182403F886825F
:10A09A0078B979BD7A021200B31581D007D0069239
:10A0AA0028500A906004E04440F002A1F590600351
:10A0BA00E020E014E5182404F8B64000400A90E6CF
:10A0CA0048E020E20302A1F5902040E05401FAA8FA
:10A0DA001808087600A818087600E5182405F8E696
:10A0EA00606CEA600B90660AE01490660AF08007DA
:10A0FA0090660AE02401F090660AE0FB7019C00637
:10A10A00A81808087600A81808760190E647E09093
:10A11A00660AF0D0068052C00690E647E0FEE4CE1A
:10A12A0025E0CE33FD7C00C3EB9EEC64808DF063AA
:10A13A00F08095F0D0064031A81808087601A818D2
:10A14A0008760090E647E0FB90660AF0801BEA601A
:10A15A000DA81808087600A818087601800BA81818
:10A16A0008087601A818087600A81808B601158FFD
:10A17A0082C006784179BD7A021200B3AA82D0065B
:10A18A008A078023A8180808B6011CE5182403F8D2
:10A19A00E64401F68F82C006781F79BD7A02120062
:10A1AA00B3AA82D0068A07E5182403F8E625E0F662
:10A1BA00E5182403F8E6543FF6E5182406F8E67095
:10A1CA000302A033741F5FFABA1802800302A03395
:10A1DA00EE600302A03390021CE04402F07E017F8D
:10A1EA0020E5182404F8760002A033906003E020EA
:10A1FA00E02BA20EE4332470F582E43465F583EF94
:10A20A00F0A20EE4332474FAE43465FB90021CE0F5
:10A21A00035401FC5304018A828B83ECF0A20EE4FE
:10A22A0033FA2472F582E43465F583EFF090004046
:10A23A00E054FEF0906000E04440F0851881D018A8
:10A24A000200C5C018E581F5182406F58190223070
:10A25A00740EF0906000E0547FF0E5182405F8E4ED
:10A26A00F6FBFCE5182403F87600906616E0FEE596
:10A27A00182404F8A60690A316E05407FFBF0407A3
:10A28A00E5182404F87600906003E030E00302A3A6
:10A29A001990E606E020E10B90E60AE020E0047F50
:10A2AA000080027F01EF602FC003E5182404F8E65E
:10A2BA002476F582E43465F583E0FFE5182404F892
:10A2CA00E62480F582E43465F583E090022013E009
:10A2DA0092E1F0D0038022906004E0547FF0900075
:10A2EA0040E04401F0900044E0541F4420F0900202
:10A2FA0020E054FDF07F207B01C00390021CE04463
:10A30A0001F090E639E0906609F0D00302A3CB9001
:10A31A006008E06048C00390E633E003540175F03A
:10A32A0005A42476FBE43465FAE5182404F8E62B40
:10A33A00F582E43AF583E0FF90E639E0906609F0A9
:10A34A00E5182404F8E62480F582E43465F583E010
:10A35A00FA90022013E092E1F0D003806490E60FB5
:10A36A00E030E153900228E003035407FAC3648003
:10A37A0094845043900040E04401F0900044E0543B
:10A38A001F4420F0E5182404F8E6247BF582E4341F
:10A39A0065F583E0FFE5182404F8E62480F582E4F5
:10A3AA003465F583E0FA90022013E092E1F0E518B3
:10A3BA002405F87601800A906000E04480F002A645
:10A3CA000E900220E0035401FAE5182406F8A602CA
:10A3DA008F02900220EA2A25E054FCF5F0E05403AB
:10A3EA0045F0F0C003C004C007789C799E7A021237
:10A3FA0000B3D007D004D0030C900040E020E00363
:10A40A0002A5B9906003E020E018900228E0030357
:10A41A005407FAC374838AF063F08095F0500302FC
:10A42A00A5B9906003E05401FABA010A7401B504AF
:10A43A0000500302A5B9906003E020E031EC14FA61
:10A44A00C003C004C007C002E5182403F886827856
:10A45A00B979BD7A021200B31581D007D004D003AE
:10A46A009228500A906004E04480F002A5B99060F6
:10A47A0003E020E00FBC4000400A90E648E020E1FB
:10A48A000302A5B9902040E05401FAA818080876FA
:10A49A0000A818087600E5182405F8E6606CEA605A
:10A4AA000B906609E014906609F08007906609E04F
:10A4BA002401F0906609E0FA7019C003A818080888
:10A4CA007600A81808760190E639E0906609F0D07F
:10A4DA00038052C00390E639E0FBE4CB25E0CB339E
:10A4EA00FE7D00C3EA9BED64808EF063F08095F0F8
:10A4FA00D0034031A81808087601A81808760090F9
:10A50A00E639E0FA906609F0801BEA600DA818089F
:10A51A00087600A818087601800BA81808087601A2
:10A52A00A818087600A81808B601198F82C003C0B7
:10A53A0004784179BD7A021200B3AA82D004D0030A
:10A54A008A078027A8180808B60120E5182403F806
:10A55A00E64401F68F82C003C004781F79BD7A02EF
:10A56A001200B3AA82D004D0038A07E5182403F89C
:10A57A00E625E0F6E5182403F8E6543FF6EB700307
:10A58A0002A3DA741F5FFABA1802800302A3DAE59B
:10A59A00182406F8E6600302A3DA900220E04402D7
:10A5AA00F0E5182406F876017F207C0002A3DA90F1
:10A5BA006003E020E02FE5182404F8E62476F5820B
:10A5CA00E43465F583EFF0E5182404F8E62480FA0C
:10A5DA00E43465FB900220E0035401FC5304018A31
:10A5EA00828B83ECF0E5182404F8E6247BF582E4F8
:10A5FA003465F583EFF0900040E054FEF09060007F
:10A60A00E04480F0851881D0180200C5C018E581A1
:10A61A00F5182407F5819022307411F0906001E05A
:10A62A0054FEF0E5182406F87600E5182405F876B5
:10A63A00007C007D01E5182403F87600906616E098
:10A64A00FFE5182404F8A60790A316E05407FBBBFD
:10A65A000407E5182404F87600906003E030E0036C
:10A66A0002A70190E606E020E10B90E60AE020E16D
:10A67A00047B0080027B01EB602FC005E5182404EF
:10A68A00F8E62485F582E43465F583E0FBE51824D1
:10A69A0004F8E6248FF582E43465F583E0900040FF
:10A6AA0013E092E1F0D0058038906005E054FEF0A6
:10A6BA00900218E003035401FAFD900218E04404E2
:10A6CA00F0900040E04401F0900044E0541F444000
:10A6DA00F0900040E054FDF07B20E5182405F87660
:10A6EA0001C00590003CE04402F090E638E0906634
:10A6FA0008F0D00502A7BE906008E06047C0059048
:10A70A00E633E0540175F005A42485FDE43465FAC6
:10A71A00E5182404F8E62DF582E43AF583E0FB9087
:10A72A00E638E0906608F0E5182404F8E6248FF588
:10A73A0082E43465F583E0FA90004013E092E1F098
:10A74A00D005807090E60FE030E05F900218E003D9
:10A75A00035401FABA0153900228E003035407FA9A
:10A76A00C3648094845043900040E04401F0900018
:10A77A0044E0541F4440F0E5182404F8E6248AF51E
:10A78A0082E43465F583E0FBE5182404F8E6248FB7
:10A79A00F582E43465F583E0FA90004013E092E133
:10A7AA00F0E5182406F87601800A906001E0440179
:10A7BA00F002AA33900040E0035401FAE518240796
:10A7CA00F8A602C0058B05900040ED2D25E054FC4B
:10A7DA00F5F0E0540345F0F0C003C004C005789CCE
:10A7EA00799E7A021200B3D005D004D0030C9000EF
:10A7FA0040E0D00520E00302A9D4906003E020E005
:10A80A001CC005900228E003035407FDC374838D1E
:10A81A00F063F08095F0D005500302A9D4C00590EA
:10A82A006003E05401FDBD01028004D005800CD014
:10A83A00057401B50400500302A9D4906003E02016
:10A84A00E03CC005EC14FDC003C004C0057402C09E
:10A85A00E0C005E5182403F88682786579BD7A0296
:10A86A001200B315811581D005D004D0039228D0E7
:10A87A000530280A906005E04401F002A9D49060EE
:10A88A0003E020E00FBC4000400A90E648E020E0E8
:10A89A000302A9D4C005902040E05401FAA8180880
:10A8AA00087600A818087600D005E5182406F8E608
:10A8BA00606EEA600B906608E014906608F0800704
:10A8CA00906608E02401F0906608E0FE7019C00561
:10A8DA00A81808087600A81808760190E638E090CB
:10A8EA006608F0D0058054C00590E638E0FDE4CD56
:10A8FA0025E0CD33FA8E077E00C3EF9DEE64808A91
:10A90A00F063F08095F0D0054031A8180808760168
:10A91A00A81808760090E638E0FA906608F0801BDE
:10A92A00EA600DA81808087600A818087601800BB6
:10A93A00A81808087601A818087600A81808B60109
:10A94A00198B82C004C005784179BD7A021200B31E
:10A95A00AA82D005D0048A038027A8180808B6015D
:10A96A0020E5182403F8E64401F68B82C004C005EA
:10A97A00781F79BD7A021200B3AA82D005D0048A60
:10A98A0003E5182403F8E625E0F6E5182403F8E6BB
:10A99A00543FF6E5182405F8E6700302A7CD741FA4
:10A9AA005BFABA1802800302A7CDE5182407F8E675
:10A9BA00600302A7CD900040E04402F0E5182407A6
:10A9CA00F876017B207C0002A7CD906003E020E0AE
:10A9DA002FE5182404F8E62485F582E43465F58326
:10A9EA00EBF0E5182404F8E6248FFAE43465FC90C9
:10A9FA000040E0035401FE5306018A828C83EEF084
:10AA0A00E5182404F8E6248AF582E43465F583EB34
:10AA1A00F0ED7007900218E054FBF0900040E0540B
:10AA2A00FEF0906001E04401F0851881D018020020
:01AA3A00C556
:020000040001F9
:10A14E00906038E0547FF0906098E030E1109060BD
:10A15E009CE0FAA3E0FB906174EAF0A3EBF0906749
:10A16E0099E4F07A03C002780979977A011200B364
:10A17E00D002906799E0FB6027906037E0FBBB014F
:10A18E00109060407401F0906040E0FBBB010280D3
:10A19E00F68A031AC374808BF063F08095F040C585
:10A1AE0078E979A67A011200B3789879AC7A01121F
:10A1BE0000B3906038E04480F0906658E0FA90600A
:10A1CE004AEAF0906659E0FA906049EAF090665FCC
:10A1DE00E0FA906048EAF090665AE0FA90604BEA36
:10A1EE00F00200C590614AE0FA90614BE0FBC002BC
:10A1FE008B8278FE79BF7A021200B3AB8215818B07
:10A20E000290614EE0FBC0028B8278FE79BF7A022B
