:020000040001F9
:10800000AA82AB837C00BC0800502AEC2CFDFE90B9
:1080100083DF93CEA393FFED9083EF93CDA393F8EB
:10802000EA5205EB5200EEB50508EFB50004758283
:1080300001220C80D175820022C018E581F5182438
:1080400008F581E5182404F87600087600E5182480
:1080500006F87600900030E00354079083FF939079
:10806000661DF0900034E00303543F90661EF090CC
:108070000034E003540190661FF078EB79897A02AE
:108080001200B3AD829022B6EDF0906008E0FEBE23
:1080900001047E0880027E01A818080876BC0876D4
:1080A000029022B5EEF030165CED6009906614E0A7
:1080B0002401F08009906614E014906614F0906634
:1080C00014E0FC700CFD90E643E0FF906614F08035
:1080D00034C00690E643E0FFE4CF25E0CF33FE7ADC
:1080E00000C3EC9FEA64808EF063F08095F0D006C8
:1080F000400D7D0190E643E0FA906614F08006752D
:108100008201028224BD0111C006785C798A7A025C
:108110001200B3AA82D0068011C0067803798B7A48
:10812000021200B3AB82D0068B02EA600302821D0A
:10813000C006788779837A011200B3D00630160A18
:10814000E5182406F8760102821DC00678EB7989CD
:108150007A021200B3AA82D0068A059022B6EDF008
:10816000A81808E6B505028011A81808A605BE08DB
:10817000047E028005BE02027E01E5182404F80890
:10818000E618C625E0C63308F68D027B00E5182404
:1081900004F8EA46F6EB0846F6E5182404F8E51874
:1081A0002407F9E6F70809E6F77C00BC0800503B15
:1081B000C006EC2CFFFE9083DF93CEA393FAEFFB77
:1081C0009083EF93CBA393FFE5182407F8E65203BF
:1081D00008E65207EEB50306EAB507028004D006AA
:1081E0008006D0067A0180050C80C07A00EA601013
:1081F000E5182406F87601906006E04408F0801D3A
:1082000090E649E020E00AA818080816B6FF020820
:1082100016A8180808E6084660030280A1E518249D
:1082200006F88682851881D0180200C5A20EE433B4
:10823000FA902230740FF0900228E003035407FBF9
:10824000530304E4BB000104FB906006E054F7F024
:10825000906001E054FDF090E60AE003035401FC55
:10826000BC0102800A906003E05401FCBC0144EAB6
:108270002AFC24AAFDE43465FEEB2DF582E43EF5EC
:1082800083E090661EF0EC24B2FDE43465FEEB2D35
:10829000F582E43EF583E0906620F0EC24A2FCE455
:1082A0003465FDEB2CF582E43DF583E0FC90661F20
:1082B000F0801290661E7431F09066207405F09084
:1082C000661F7401F0906620E09083FF9390661D16
:1082D000F0C002C003788779837A011200B3D0031B
:1082E000D002906008E0600302837490E60AE030F8
:1082F000E203028374C002C003783979807A0112E4
:1083000000B3AC82D003D002906005EC13E092E1A0
:10831000F0900030E0035407FCEA2433FDE43466B7
:10832000FEEC9083FF938D828E83F0EA2AFA24AAD2
:10833000FCE43465FDEB2CFCE43DFD90661EE08C16
:10834000828D83F0EA24B2FCE43465FDEB2CFCE47E
:108350003DFD906620E0FE8C828D83F0EA24A2FA37
:10836000E43465FCEB2AFBE43CFD90661FE0FA8BED
:10837000828D83F0906001E04402F090E643E0FAE1
:10838000906614F00200C590661EE090003425E06F
:1083900025E054FCF5F0E0540345F0F090661FE052
:1083A00090003413E092E1F090661DE0FAC313628E
:1083B00002906620EAF0900030EA2A540EF5F0E0D0
:1083C00054F145F0F0900034E04401F0786479B95C
:1083D0007A021200B3900034E054FEF00200C505AA
:1083E000000A003300CC00C701380E0F0FF0F00F69
:1083F000000F00FF00FF00FF0FFF0FFFFFFFFF0058
:1084000001030207060405C018858118058105814E
:108410009061707401F09066F7E0FABA0102800B87
:1084200090E607E0035401FABA0106200803028B24
:10843000B49060A2E4F09060A3F0906799E0FA90A5
:108440006174E0FBA3E0FCEB20E0030284F59060A4
:10845000A27401F0902163E0547FF090240CE0546A
:108460007FF0902102E04480F0E0547FF0C0027879
:108470006479B97A021200B3902403E054BFF07516
:108480008E07902410E04404F0E054FBF0758E0059
:108490009022D0E04480F09022D4E04480F09022FA
:1084A000D0E0547FF09022D4E0547FF0781F798C94
:1084B0007A011200B3D0029060A27402F09060A022
:1084C000E030E131C002780779847A021200B37596
:1084D0008200783179847A021200B3758210783183
:1084E00079847A021200B3758212783179847A0223
:1084F0001200B3D002906174E0FBA3E0FCEB30E12A
:108500002A9060A27403F0C00274FFC0E0900000E3
:1085100078EF798E7A011200B31581D00290216331
:10852000E04480F090240CE04480F0906174E0FB23
:10853000A3E0FCEB20E20302864F9060A27404F0FB
:10854000758201C002785379947A011200B3758262
:108550000078BC798B7A011200B3D002906174E08C
:10856000FBA3E0FCEB30E51B9060A27405F0C002B9
:10857000E4C0E0900A0178EF798E7A011200B31519
:1085800081D002758B18758DFCD28EC2039060A2CB
:108590007406F0C0027401C0E0900A0178EF798E91
:1085A0007A011200B31581D002906661E0FBB5023A
:1085B00002806E9060A27408F0EBFC3395E0FDEC55
:1085C00024FEFEED34FFFFA81808A602EA3395E06A
:1085D00008F6A81808C3E69E08E664808FF063F0EA
:1085E0008095F050040A0A802074022CFCE43DFDC2
:1085F000A81808C3EC96ED64800886F063F08095B7
:10860000F050041A1A80028B02906662E0FBC002EE
:10861000C0038A82121D5A1581D0022003030285ED
:108620008D30030F9060A3E0FA4302029060A3EA4A
:10863000F0C203C28EC28F758200783179847A02CB
:108640001200B3758210783179847A021200B390E7
:108650006174E0FAA3E0FBEA20E403028812906070
:10866000A2740AF0902401E054FDF0902401E0543B
:10867000FEF0906174E0FAA3E0FBEA30E53A906026
:10868000A2740BF0758201785379947A011200B3C9
:1086900075820078BC798B7A011200B390240BE0CC
:1086A0004480F0E054BFF0E4C0E0900A0178EF7934
:1086B0008E7A011200B31581906174E0FAA3E0FB99
:1086C000EA30E6499060A2740CF020271875820108
:1086D000785379947A011200B375820078BC798B53
:1086E0007A011200B390240BE04480F0E054BFF014
:1086F000902402E04408F0E054FBF07402C0E090E3
:108700000A0178EF798E7A011200B31581906174B5
:10871000E0FAA3E0FBEA30E7609060A2740DF0207D
:108720002718758200785379947A011200B3758204
:108730000278BC798B7A011200B390240BE044805C
:10874000F0E054BFF0902402E04408F0E054FBF065
:108750003008147402C0E090000078EF798E7A013E
:108760001200B3158180127402C0E090030278EF0A
:10877000798E7A011200B31581906174E0FAA3E05A
:10878000FB20E0030288129060A2740EF0202718EC
:10879000758200785379947A011200B37582027859
:1087A000BC798B7A011200B390240BE0547FF090D7
:1087B000240BE054BFF0902402E054F7F090240220
:1087C000E054FBF0906715E0FA60147404C0E09088
:1087D000020478EF798E7A011200B3158180127449
:1087E00002C0E090020478EF798E7A011200B3158E
:1087F00081780779847A021200B375821078317912
:10880000847A021200B3758200783179847A021278
:1088100000B3906174E0FAA3E0FB20E1030288A8B2
:108820009060A27410F0902401E054FDF0902401B7
:10883000E054FEF09060A27411F090240BE0547F9D
:10884000F0E04440F0902402E054F7F0E04404F0FB
:108850007403C0E0900A0178EF798E7A011200B3B8
:1088600015819060A27412F090240BE0547FF09078
:10887000240BE054BFF0902402E054F7F09024025F
:10888000E054FBF07403C0E090030278EF798E7A35
:10889000011200B315819060A27413F075821278F2
:1088A0003179847A021200B3906174E0FAA3E0FB9C
:1088B00020E2030289359060A27414F0758200787A
:1088C0005379947A011200B375820278BC798B7A5D
:1088D000011200B39060A27415F0902401E04402EC
:1088E000F090240BE04480F0E054BFF0E4C0E0904E
:1088F000080278EF798E7A011200B315819060A298
:108900007416F090240BE0547FF090240BE054BFD9
:10891000F0E4C0E090040478EF798E7A011200B39D
:108920001581758201783179847A021200B390241E
:1089300001E054FDF0906174E0FAA3E0FB20E40351
:10894000028ADC9060A27418F020271875820078E3
:108950005379947A011200B375820278BC798B7ACC
:10896000011200B3902404E054BFF0902401E044CD
:1089700001F07A007B00758202C002C00378F979A9
:10898000827A021200B3D003D0029060A27419F070
:1089900090240BE04480F0E054BFF020271BC0027D
:1089A000C003E4C0E0900A0278EF798E7A011200E9
:1089B000B31581D003D0028019C002C003E4C0E027
:1089C00090080278EF798E7A011200B31581D003F6
:1089D000D0029060A2741AF090240BE0547FF0E073
:1089E0004440F020271BC002C003E4C0E09008040C
:1089F00078EF798E7A011200B31581D003D002800E
:108A000019C002C003E4C0E090060478EF798E7AC2
:108A1000011200B31581D003D0029060A2741CF043
:108A2000EB7016758202C002C003783179847A0235
:108A30001200B3D003D002802DEA7016758203C0F5
:108A400002C003783179847A021200B3D003D002D5
:108A50008014758204C002C003783179847A0212CE
:108A600000B3D003D0029060A2741BF09060A0E02D
:108A700030E35BEB701F7B01906661E0FCC002C0DD
:108A800003906700E0C0E08C82121D5A1581D0036C
:108A9000D002028976EA701F7A01906661E0FCC01C
:108AA00002C003906702E0C0E08C82121D5A15815B
:108AB000D003D002028976906701E0FA906662F0F6
:108AC000906661E0FBC0028B82121D5A15819024D2
:108AD00001E054FEF0902404E04440F0906174E022
:108AE000FAA3E0FB20E603028B8B90604FE030E6B8
:108AF00003028B8B9060A27421F0902580E04401EA
:108B0000F090605AE020E22075820178F979827A4B
:108B1000021200B3781F798E7A011200B37874794B
:108B2000827A021200B3800F906039E0F582787487
:108B300079827A021200B39060A27422F0902580AC
:108B4000E04404F0E054FBF090605AE030E214742A
:108B5000FFC0E090200878EF798E7A011200B315FB
:108B600081801274FFC0E0900A0578EF798E7A0157
:108B70001200B315819060A27423F0780B79927A79
:108B8000011200B3AA82906170EAF090605AE0206E
:108B9000E21C2008199060A27424F075820178F913
:108BA00079827A021200B3902580E054FEF0906042
:108BB000A27425F0851881D0180200C5AA82BA00D7
:108BC000028005BA012D8017902405E04408F0903A
:108BD0002405E04401F0902405E04402F0803D903B
:108BE0002405E04408F0E054FEF0902405E054FD34
:108BF000F08029902405E054F7F0902400E0C4545C
:108C00000FFABA0F09902405E054FDF08007902474
:108C100005E04402F0902405E054FEF00200C59007
:108C20002403E04420F0E054DFF0E04402F090241C
:108C300003E054FDF0E04401F0E054FEF0758B9C3D
:108C4000758DFFD28EC20320031790240BE030E510
:108C5000F6786479B97A021200B390240BE030E51B
:108C6000E60200C5AA82906016E0FB900224C423AD
:108C70005460F5F0E0549F45F0F0BA010280030221
:108C80008D14902403E04440F09061B8E0902438C3
:108C9000547FF5F0E0548045F0F09061B9E0902405
:108CA00039547FF5F0E0548045F0F09061BAE090DF
:108CB000243A547FF5F0E0548045F0F09061BBE039
:108CC00090243B547FF5F0E0548045F0F09061BC77
:108CD000E090243C547FF5F0E0548045F0F0906142
:108CE000BDE090243D547FF5F0E0548045F0F090D5
:108CF00061BEE090243E547FF5F0E0548045F0F0F2
:108D00009061BFE0FA90243F547FF5F0E054804535
:108D1000F0F08007902403E054BFF0902403E04477
:108D200020F0E054DFF0758B9C758DFFD28EC2036E
:108D300020031590240BE0C4035401FA90240BE0A7
:108D4000C4035401FB5A60E80200C59066F7E0FADC
:108D50006003028E1C7440C0E0E4C0E07480C0E098
:108D60007424C0E0E4C0E090244075F00078D77926
:108D7000BA7A021200B3E58124FBF5819024C0E0A9
:108D8000547F902438547FF5F0E0548045F0F09003
:108D900024C1E0547F902439547FF5F0E05480459D
:108DA000F0F09024C2E0547F90243A547FF5F0E034
:108DB000548045F0F09024C3E0547F90243B547FCE
:108DC000F5F0E0548045F0F09024C4E0547F902406
:108DD0003C547FF5F0E0548045F0F09024C5E05419
:108DE0007F90243D547FF5F0E0548045F0F09024CE
:108DF000C6E0547F90243E547FF5F0E0548045F067
:108E0000F09024C7E0547FFA90243F547FF5F0E0BF
:108E1000548045F0F0902403E04440F00200C590F7
:108E20006158E0FA906159E0FBC0038A82789A7930
:108E3000B97A021200B3AB8215818B0290615AE0BD
:108E4000FBC0038A82789A79B97A021200B3AB82A6
:108E500015818B0290615BE0FBC0038A82789A796E
:108E6000B97A021200B3AB8215818B0290615CE08B
:108E7000FBC0038A82789A79B97A021200B3AB8276
:108E800015818B0290615DE0FBC0038A82789A793C
:108E9000B97A021200B3AB8215818B0290615EE059
:108EA000FBC0038A82789A79B97A021200B3AB8246
:108EB00015818B0290615FE0FBC0038A82789A790A
:108EC000B97A021200B3AB8215818B0290E6AFE053
:108ED000C4540FFB8BF005F0EA8002C313D5F0FBFE
:108EE000FA90E6AFE0540FFB2AFAF5820200C5C003
:108EF00018858118AA82AB83906038E0232354013F
:108F0000FCBC010280119066F7E0FCBC0102800706
:108F1000902411E020E10302913190604FE030E7AE
:108F20001C902405E0540FF0902406E054C0F0900B
:108F30002406E0543FF0902407E4F0804A8B047448
:108F40000F5C902405C454F0F5F0E0540F45F0F0A8
:108F5000ECC4540FFC53043F902406EC543FF5F04E
:108F6000E054C045F0F074035AFB90240603035408
:108F7000C0F5F0E0543F45F0F0EA0303543FFA53E4
:108F8000023F902407EAF0E51824FCF8B6010280BD
:108F90001EE51824FCF8B602028030E51824FCF81F
:108FA000B60302803FE51824FCF8B60466804B90B7
:108FB000240874FFF090240974FFF090240AE05410
:108FC000C0F090240AE054BFF0806190240874FF40
:108FD000F090240974FFF090240AE0443FF0E0543C
:108FE000BFF08048902408E4F0902409F090240A0F
:108FF000E054C0F0E04440F0803290240874FDF06A
:1090000090240974FFF090240AE0443FF0E054BF3C
:10901000F080199024087401F0902409E4F0902461
:109020000AE054C0F090240AE054BFF0E51824FC94
:10903000F8B6FF02804D9060A0E030E21B9024085B
:10904000E0FA530201902408EAF0902409E4F09039
:10905000240AE054C0F0802B9060A4E030E5079033
:10906000240AE054C0F09060A4E030E41690240894
:10907000E0FAA3E0FB530255530355902408EAF0AD
:10908000A3EBF0900264E0C4235403FABA02028016
:109090000D902408E0FA5302FD902408EAF0902491
:1090A00002E054FEF0E04401F0786479B97A0212EB
:1090B00000B3906098E020E45330080C758BF8758D
:1090C0008DFFD28EC203800A758B18758DFCD28EEF
:1090D000C203902402E020E1033003F6902402E072
:1090E00054FEF03003209022C2E0FA0A9022C2EA35
:1090F000F09060A3E0FA4302019060A3EAF0C2039B
:1091000090679B7401F0C28EC28F800E902402E0A3
:1091100030E1F9902402E054FEF0902408E4F0904D
:109120002409F090240AE054C0F090240AE054BFCF
:10913000F0D0180200C5900228E003035407FA5348
:1091400002039060A4E054EFF09067967420F090D2
:1091500060A4E054DFF0BA0313902402E0547FF0DF
:10916000E04440F09067957408F0804EBA02139086
:109170002402E04480F0E054BFF09067957404F05E
:109180008038BA0121902402E0547FF0E04440F09E
:109190009067957402F09060A4E04410F09060A491
:1091A000E04420F08014902402E04480F0902402F7
:1091B000E04440F09067957401F0900228E00303CA
:1091C0005407FB30E20B906795E025E0FB90679534
:1091D000F09066F7E0FB700D906795E0C42354E0D3
:1091E000FB906796F0EA7010902402E04420F09023
:1091F00060A4E054F0F08010902402E054DFF0907E
:1092000060A4E054F04405F00200C5C018E581F503
:10921000182408F581902560E0FAA3E0FBA3E0FCA8
:10922000A3E0FDE5182405F8A60208A60308A60495
:1092300008A605902564E0FEA3E0FFA3E0FAA3E002
:10924000FBC006C007C002C003E5182405F88682EB
:109250000886830886F008E6780079807A02120092
:10926000B3AA82AB83ACF0FDE58124FCF581E5185F
:109270002405F8A60208A60308A60408A60590255A
:1092800068E0FAA3E0FBA3E0FCA3E0FDC002C0039A
:10929000C004C005E5182405F88682088683088680
:1092A000F008E6780079807A021200B3AA82AB83D4
:1092B000ACF0FDE58124FCF581E5182405F8A60253
:1092C00008A60308A60408A60590256CE0FAA3E00A
:1092D000FBA3E0FCA3E0FDC002C003C004C005E5A1
:1092E000182405F886820886830886F008E6780048
:1092F00079807A021200B3AA82AB83ACF0FDE581DB
:1093000024FCF581E5182405F8A60208A60308A6A2
:109310000408A605902570E0FAA3E0FBA3E0FCA3F7
:10932000E0FDA81808A60208A60308A60408A605DA
:10933000902574E0FEA3E0FFA3E0FAA3E0FBC006E3
:10934000C007C002C003A818088682088683088662
:10935000F008E6780079807A021200B3AA82AB8323
:10936000ACF0FDE58124FCF581A81808A60208A64A
:109370000308A60408A605902578E0FAA3E0FBA35D
:10938000E0FCA3E0FDC002C003C004C005A81808AB
:1093900086820886830886F008E6780079807A025B
:1093A0001200B3AA82AB83ACF0FDE58124FCF58109
:1093B000A81808A60208A60308A60408A605902572
:1093C0007CE0FAA3E0FBA3E0FCA3E0FDC002C00345
:1093D000C004C005A8180886820886830886F0089D
:1093E000E6780079807A021200B3AA82AB83ACF0EF
:1093F000FDE58124FCF581A81808A60208A603084B
:10940000A60408A60590E6AEE0FAE4FBFCFDE5182C
:109410002405F8C3E69A08E69B08E69C08E69D50FA
:1094200005758200802590E6ACE0FAA3E0FB7C00A5
:109430007D00A81808C3EA96EB0896EC0896ED089C
:109440009650057582008003758201851881D018B9
:039450000200C552
:020000040000FA
:1000DE00D315D3111003D77590550040000280013F
:0C00EE000010D3019300D755D305330058
:020000040001F9
:10945300AA82300C07200D047B0C8013200C0730EC
:109463000D047B038009BA01047B0C80027B0F90FF
:1094730060A4E0540FF4FA5203902400EBC454F0B8
:10948300F5F0E0540F45F0F00200C5902402E054DB
:10949300EFF0900054E04408F0900054E04404F0EE
:1094A300900054E04402F0900054E04401F0900036
:1094B30058E04480F0902401E04404F0902418E044
:1094C30054EFF0902418E054DFF0902405E054FEAC
:1094D300F0902405E054F7F0302710902400E05476
:1094E3000F44C0F0902405E04402F00200C590E66A
:1094F30007E030E2030295B4902401E030E5030273
:1095030095B49066F7E0FABA01030295B49067BD8B
:10951300E0FABA01030295B490604CE020E40790AE
:10952300604CE030E3030295B4902406E0543F44DA
:1095330080F09024077405F075820178F979827AB6
:10954300021200B3785B79887A021200B390240880
:10955300E0FA5302FD902408EAF090240AE0444024
:10956300F0902405E054FDF0902405E054FEF090C3
:109573002405E054F7F0D20DD20C758200785379AC
:10958300947A011200B3902401E04420F090240265
:10959300E054FEF0E04401F090604EE030E71290BA
:1095A3002401E054FBF0E04410F0902401E0440176
:1095B300F00200C5902401E0C4035401FABA012665
:1095C300758B18758DFCD28EC203902401E054DF95
:1095D300F0902402E020E1033003F6902402E054EB
:1095E300FEF0C28EC28F0200C590604CE020E403FF
:1095F3000296CD90604CE030E3030296CD90604C30
:10960300E030E5030296CD9066F7E0FA6003029638
:10961300CD906727E0FA60030296CD90663AE02486
:1096230001F090663AE0FA7403B502004003029633
:10963300CD90663AE4F075820178F979827A021264
:1096430000B3785B79887A021200B3902409E4F0BE
:10965300902408E0FA53020D902408EAF090240ABB
:10966300E04440F0902405E054FDF0902405E054DC
:10967300FEF0902405E054F7F0902400E044F0F06D
:109683007404C0E090101078EF798E7A011200B361
:109693001581785B79887A021200B3902408E0FA86
:1096A3005302F0902408EAF090240AE054BFF074C7
:1096B30004C0E090100178EF798E7A011200B3159F
:1096C30081780779847A021200B30200C590604C56
:1096D300E030E02B900264E030E209900264E05451
:1096E300FBF0802D900264E04404F078EC79957AE5
:1096F300011200B3788179C97A011200B38012781C
:10970300EC79957A011200B3788179C97A01120054
:04971300B30200C5D8
:020000040002F8
:10800000C018858118AA82AB83ACF0FDE51824F96D
:10801000F8C3E69A08E69B08E69C08E69D50098AA4
:10802000828B838CF0ED800FE51824F9F8868208A6
:1080300086830886F008E6D0180200C5C018E581DE
:10804000F5182408F581902560E0FAA3E0FBA3E091
:10805000FCA3E0FDE5182405F8A60208A60308A67F
:108060000408A605902564E0FEA3E0FFA3E0FAA3C0
:10807000E0FBC006C007C002C003E5182405F8866F
:10808000820886830886F008E6780079807A0212F2
:1080900000B3AA82AB83ACF0FDE58124FCF581E559
:1080A000182405F8A60208A60308A60408A6059049
:1080B0002568E0FAA3E0FBA3E0FCA3E0FDC002C05A
:1080C00003C004C005E5182405F8868208868308E5
:1080D00086F008E6780079807A021200B3AA82ABB3
:1080E00083ACF0FDE58124FCF581E5182405F8A6B4
:1080F0000208A60308A60408A60590256CE0FAA3CA
:10810000E0FBA3E0FCA3E0FDC002C003C004C00587
:10811000E5182405F886820886830886F008E67844
:108120000079807A021200B3AA82AB83ACF0FDE53D
:108130008124FCF581E5182405F8A60208A60308A9
:10814000A60408A605902570E0FAA3E0FBA3E0FCD6
:10815000A3E0FDA81808A60208A60308A60408A61E
:1081600005902574E0FEA3E0FFA3E0FAA3E0FBC0C6
:1081700006C007C002C003A81808868208868308C4
:1081800086F008E6780079807A021200B3AA82AB02
:1081900083ACF0FDE58124FCF581A81808A602084F
:1081A000A60308A60408A605902578E0FAA3E0FB3C
:1081B000A3E0FCA3E0FDC002C003C004C005A818F2
:1081C0000886820886830886F008E6780079807A37
:1081D000021200B3AA82AB83ACF0FDE58124FCF56A
:1081E00081A81808A60208A60308A60408A60590F8
:1081F000257CE0FAA3E0FBA3E0FCA3E0FDC002C005
:1082000003C004C005A8180886820886830886F083
:1082100008E6780079807A021200B3AA82AB83ACB8
:10822000F0FDE58124FCF581A81808A60208A60344
:1082300008A60408A605E5182405F8C3E694640812
:10824000E6940008E6940008E69400500575820064
:10825000801AA81808C3E49674040896E40896E403
:10826000089650057582008003758201851881D0BB
:10827000180200C5AA82902440EA543FF5F0E05469
:10828000C045F0F0902441EA543FF5F0E054C04579
:10829000F0F0902442EA543FF5F0E054C045F0F08D
:1082A000902443EA543FF5F0E054C045F0F09024A8
:1082B00060EA543FF5F0E054C045F0F0902461EAE4
:1082C000543FF5F0E054C045F0F0902462EA543F8A
:1082D000F5F0E054C045F0F0902463EA543FF5F027
:1082E000E054C045F0F0902430740FF0E4F0902496
:1082F00034740FF0E4F00200C5AA82BA01028008CB
:10830000BA0202805F0283FD7440C0E0E4C0E07402
:1083100078C0E07461C0E0E4C0E090244075F000F3
:1083200078D779BA7A021200B3E58124FBF58190FF
:10833000243074FFF0A3F0A3F0A3747FF0902430F6
:10834000E4F0A3F0A3F0A3F090243474FFF0A3F0C2
:10835000A3F0A3747FF0902434E4F0A3F0A3F0A37F
:10836000F00283FD906178E0902440543FF5F0E006
:1083700054C045F0F0906179E0902441543FF5F00D
:10838000E054C045F0F090617AE0902442543FF50B
:10839000F0E054C045F0F090617BE0902443543FFE
:1083A000F5F0E054C045F0F0906198E090246054FE
:1083B0003FF5F0E054C045F0F0906199E090246101
:1083C000543FF5F0E054C045F0F090619AE09024FD
:1083D00062543FF5F0E054C045F0F090619BE0FA44
:1083E000902463543FF5F0E054C045F0F090243001
:1083F000740FF0E4F0902434740FF0E4F090240B48
:10840000E030E5F90200C57440C0E0E4C0E07480EB
:10841000C0E07424C0E0E4C0E090617875F00078BA
:10842000D779BA7A021200B3E58124FBF581020004
:10843000C5AA82BA00028027BA01030284B5BA0233
:10844000030284F9BA030302853DBA04030285815D
:10845000BA10030285C5BA12030285EF0286C890DE
:1084600024D0E0906148F09024D1E0906149F090F0
:1084700024D2E090614AF09024D3E090614BF090D8
:1084800024F0E090614CF09024F1E090614DF09088
:1084900024F2E090614EF09024F3E0FA90614FF006
:1084A00090240BE030E2047A0180027A009061713E
:1084B000EAF00286C89024D0E0906150F09024D178
:1084C000E0906151F09024D2E0906152F09024D37A
:1084D000E0906153F09024F0E0906154F09024F12A
:1084E000E0906155F09024F2E0906156F09024F312
:1084F000E0FA906157F00286C89024D0E09061586D
:10850000F09024D1E0906159F09024D2E090615A2B
:10851000F09024D3E090615BF09024F0E090615CF7
:10852000F09024F1E090615DF09024F2E090615EC3
:10853000F09024F3E0FA90615FF00286C89024D0B6
:10854000E0906160F09024D1E0906161F09024D2DD
:10855000E0906162F09024D3E0906163F09024F0A9
:10856000E0906164F09024F1E0906165F09024F275
:10857000E0906166F09024F3E0FA906167F0028683
:10858000C89024D0E0906168F09024D1E0906169B7
:10859000F09024D2E090616AF09024D3E090616B77
:1085A000F09024F0E090616CF09024F1E090616D27
:1085B000F09024F2E090616EF09024F3E0FA906184
:1085C0006FF00286C87440C0E0E4C0E074D0C0E040
:1085D0007424C0E0E4C0E090610075F00078D779C1
:1085E000BA7A021200B3E58124FBF5810286C890B5
:1085F00024C0E0547F9061B8547FF5F0E05480458A
:10860000F0F09024C1E0547F9061B9547FF5F0E020
:10861000548045F0F09024C2E0547F9061BA547FBA
:10862000F5F0E0548045F0F09024C3E0547F906171
:10863000BB547FF5F0E0548045F0F09024C4E05442
:108640007F9061BC547FF5F0E0548045F0F09024B9
:10865000C5E0547F9061BD547FF5F0E0548045F053
:10866000F09024C6E0547F9061BE547FF5F0E05452
:108670008045F0F09024C7E0547F9061BF547FF5AF
:10868000F0E0548045F0F0902510E0906140F090CB
:108690002511E0906141F0902512E0906142F09048
:1086A0002513E0906143F0902514E0906144F09030
:1086B0002515E0906145F0902516E0906146F09018
:1086C0002517E0FA906147F00200C5AA82BA0002BD
:1086D0008009BA02030287670287F0906148E09040
:1086E0002440543FF5F0E054C045F0F0906149E07B
:1086F000902441543FF5F0E054C045F0F090614AB9
:10870000E0902442543FF5F0E054C045F0F0906111
:108710004BE0902443543FF5F0E054C045F0F09016
:10872000614CE0902460543FF5F0E054C045F0F017
:1087300090614DE0902461543FF5F0E054C045F065
:10874000F090614EE0902462543FF5F0E054C04553
:10875000F0F090614FE0FA902463543FF5F0E0545C
:10876000C045F0F00287F0906158E0902440543FFB
:10877000F5F0E054C045F0F0906159E09024415488
:108780003FF5F0E054C045F0F090615AE09024428B
:10879000543FF5F0E054C045F0F090615BE0902468
:1087A00043543FF5F0E054C045F0F090615CE09038
:1087B0002460543FF5F0E054C045F0F090615DE076
:1087C000902461543FF5F0E054C045F0F090615EB4
:1087D000E0902462543FF5F0E054C045F0F0906121
:1087E0005FE0FA902463543FF5F0E054C045F0F0A8
:1087F000902430740FF0E4F0902434740FF0E4F01F
:1088000090240BE030E5F90200C5E582FA602B9078
:10881000604CE030E010900264E054E7F090020C0D
:10882000E0548FF08026900264E054E74408F09012
:10883000020CE0548F4430F08012900264E054E760
:108840004410F090020CE0548F4420F090000A781D
:108850008A79B57A021200B30200C59060A4E030B4
:10886000E4119024087455F0A3F090240AE054C059
:10887000F0800F90240874FFF0A3F090240AE044E5
:108880003FF0902401E054FDF0902401E054FEF00C
:1088900090240AE054BFF0902402E054F7F09024B2
:1088A00002E054FBF090240BE0547FF090240BE0A6
:0688B00054BFF00200C5F8
:020000040000FA
:1000FA00906099E0FABA1709788279A97A0212000F
:10010A00B3906098E054FEF0902230742BF0227580
:10011A00880575895175A91C75B906D2ABD2ADD2BD
:10012A00A8D2AAC2A975B83F75C878759A3EC20501
:10013A00C206C207C208906711E4F0C209C20AD215
:0D014A0003D204C21DC21E9067A7E4F0227C
:020000040001F9
:10971700906038E0547FF0906098E030E1109060FE
:109727009CE0FAA3E0FB906174EAF0A3EBF090678A
:109737009BE4F07A03C002780779847A011200B3B8
:10974700D00290679BE0FB6027906037E0FBBB018E
:10975700109060407401F0906040E0FBBB01028014
:10976700F68A031AC374808BF063F08095F040C5C6
:1097770078B2799C7A011200B3786179A27A0112E2
:1097870000B3906038E04480F0906658E0FA90604B
:109797004AEAF0906659E0FA906049EAF090665F0D
:1097A700E0FA906048EAF090665AE0FA90604BEA77
:1097B700F00200C590614AE0FA90614BE0FBC002FD
:1097C7008B82787179B97A021200B3AB8215818BDB
:1097D7000290614EE0FBC0028B82787179B97A0200
:1097E7001200B3AB8215818B0290614FE0FBC00280
:1097F7008B82787179B97A021200B3AB82158190A6
:109807006643EBF0906148E0FA906149E0FBC002E3
:109817008B82787179B97A021200B3AB8215818B8A
:109827000290614CE0FBC0028B82787179B97A02B1
:109837001200B3AB8215818B0290614DE0FBC00231
:109847008B82787179B97A021200B3AA8215819056
:109857006642EAF090614AE0FA7B0090614BE0FCD7
:109867007D00EC2AFAED3BFB90614EE0FC7D00ECBD
:109877002AFAED3BFB90614FE0FC7D00EC2AFAED04
:109887003BA2E713CA13CAA2E713CA13CA906641D9
:10989700EAF0906148E0FA7B00906149E0FC7D00C6
:1098A700EC2AFAED3BFB90614CE0FC7D00EC2AFAD8
:1098B700ED3BFB90614DE0FC7D00EC2AFAED3BA20D
:1098C700E713CA13CAA2E713CA13CA906640EAF09D
:1098D700906152E0FA7B00906153E0FC7D00EC2A36
:1098E700FAED3BFB906156E0FC7D00EC2AFAED3B7C
:1098F700FB906157E0FC7D00EC2AFAED3BA2E713F1
:10990700CA13CAA2E713CA13CA906645EAF0906160
:1099170050E0FA7B00906151E0FC7D00EC2AFAED03
:109927003BFB906154E0FC7D00EC2AFAED3BFB9099
:109937006155E0FC7D00EC2AFAED3BA2E713CA1360
:10994700CAA2E713CA13CA906644EAF090610CE012
:10995700FA3395E0FB90612CE0FC3395E0FDEC2AAF
:10996700FAED3BA2E713CA13CA906646EAF0906184
:1099770004E0FA3395E0FB906105E0FC3395E0FDE8
:10998700EC2AFAED3BFB906124E0FC3395E0FDEC1B
:109997002AFAED3BFB906125E0FC3395E0FDEC2ACC
:1099A700FAED3BA2E713CA13CAA2E713CA13CA9078
:1099B7006647EAF0906106E0FA3395E0FB906107AD
:1099C700E0FC3395E0FDEC2AFAED3BFB906126E0E5
:1099D700FC3395E0FDEC2AFAED3BFB906127E0FCB8
:1099E7003395E0FDEC2AFAED3BA2E713CA13CAA2AE
:1099F700E713CA13CA906648EAF0906108E0FA33A1
:109A070095E0FB906109E0FC3395E0FDEC2AFAED67
:109A17003BFB906128E0FC3395E0FDEC2AFAED3B37
:109A2700FB906129E0FC3395E0FDEC2AFAED3BA2BF
:109A3700E713CA13CAA2E713CA13CA906649EAF022
:109A470090610AE0FA3395E0FB90610BE0FC3395F7
:109A5700E0FDEC2AFAED3BFB90612AE0FC3395E050
:109A6700FDEC2AFAED3BFB90612BE0FC3395E0FD22
:109A7700EC2AFAED3BA2E713CA13CAA2E713CA13EB
:109A8700CA90664AEAF090610DE0FA3395E0FB90E0
:109A9700612DE0FC3395E0FDEC2AFAED3BA2E713DC
:109AA700CA13CA90664BEAF090610EE0FA3395E06C
:109AB700FB90612EE0FC3395E0FDEC2AFAED3BA22A
:109AC700E713CA13CA90664CEAF090610FE0FA33C5
:109AD70095E0FB90612FE0FC3395E0FDEC2AFAED71
:109AE7003BA2E713CA13CA90664DEAF0906110E0F3
:109AF700FA3395E0FB906130E0FC3395E0FDEC2A0A
:109B0700FAED3BA2E713CA13CA90664EEAF09061DA
:109B17005AE0FA7B0090615BE0FC7D00EC2AFAEDED
:109B27003BFB90615EE0FC7D00EC2AFAED3BFB908D
:109B3700615FE0FC7D00EC2AFAED3BA2E713CA1354
:109B4700CAA2E713CA13CA906650EAF0906158E0B8
:109B5700FA7B00906159E0FC7D00EC2AFAED3BFBB3
:109B670090615CE0FC7D00EC2AFAED3BFB90615DC7
:109B7700E0FC7D00EC2AFAED3BA2E713CA13CAA268
:109B8700E713CA13CAFB90664FEAF09060A0E02083
:109B9700E303029C19906162E0FA7B00906163E045
:109BA700FC7D00EC2AFAED3BFB906166E0FC7D0052
:109BB700EC2AFAED3BFB906167E0FC7D00EC2AFAAA
:109BC700ED3BA2E713CA13CAA2E713CA13CA9066EA
:109BD70052EAF090616AE0FA7B0090616BE0FC7DED
:109BE70000EC2AFAED3BFB90616EE0FC7D00EC2A6D
:109BF700FAED3BFB90616FE0FC7D00EC2AFAED3B50
:109C0700A2E713CA13CAA2E713CA13CAFB90665482
:109C1700EAF0906170E0906655F0906174E0FAA305
:109C2700E0FB20E103029CAF902510E0FA3395E0BA
:109C3700FB902511E0FC3395E0FDEAC39CFAEB9D10
:109C4700FB902514E0FC3395E0FDEC2AFAED3BFB95
:109C5700902515E0FC3395E0FDEAC39CFAEB9D8A5D
:109C670004906656ECF0902512E0FA3395E0FB90ED
:109C77002513E0FC3395E0FDEAC39CFAEB9DFB90CE
:109C87002516E0FC3395E0FDEC2AFAED3BFB902529
:109C970017E0FC3395E0FDEAC39CFAEB9DFB906669
:109CA70057EAF0906798E4F00200C5C0188581185C
:109CB700058178BB79977A011200B3300D37200CF4
:109CC70034906644E090665AF0906640E09066599A
:109CD700F0906642E0906658F0906647E090665BC9
:109CE700F0906649E090665CF090664FE0FA906607
:109CF7005FF0029E15200D37300C34906645E090DA
:109D0700665AF0906641E0906659F0906643E0909D
:109D17006658F0906648E090665BF090664AE0907F
:109D2700665CF0906650E0FA90665FF0029E1590D0
:109D37006644E0FA7B00906645E0FC7D002AFAED78
:109D47003BFB0ABA00010BEBA2E713CA13CA9066E2
:109D57005AEAF0906640E0FA7B00906641E0FC7DAD
:109D6700002AFAED3BFB0ABA00010BEBA2E713CA84
:109D770013CA906659EAF0906643E0FA906642E0AB
:109D8700FBC0028B82787179B97A021200B3AA827A
:109D97001581906658EAF0906647E0FA3395E0FB44
:109DA700906648E0FC3395E0FDEC2AFAED3BFB0AB0
:109DB700BA00010BEBA2E713CA13CA90665BEAF07D
:109DC700906649E0FA3395E0FB90664AE0FC3395EC
:109DD700E0FDEC2AFAED3BFB0ABA00010BEBA2E728
:109DE70013CA13CA90665CEAF090664FE0FA7B00EC
:109DF700906650E0FC7D002AFAED3BFB0ABA0001B1
:109E07000BEBA2E713CA13CAFB90665FEAF09066F2
:109E17005AE0FA906659E0FBEAC39B90665DF090C2
:109E2700665DE0FA74C1C0E0743FC0E08A8278C31F
:109E370079B97A021200B3AA821581158190665DFD
:109E4700EAF0906646E0F58278A079BA7A021200C5
:109E5700B3E582FA3395E0FB90665BE0F582C002DA
:109E6700C00378A079BA7A021200B3AC82D003D0CB
:109E770002EC3395E0FDEC2AFAED3BFB90665CE0E3
:109E8700F582C002C00378A079BA7A021200B3AC97
:109E970082D003D002EC3395E0FDEC2AFAED3BFBD0
:109EA70090664BE0F582C002C00378A079BA7A02C7
:109EB7001200B3AC82D003D002EC3395E0FDEC2A5C
:109EC700FAED3BFB90664CE0F582C002C00378A038
:109ED70079BA7A021200B3AC82D003D002EC339580
:109EE700E0FDEC2AFAED3BFB90604DE023235401A3
:109EF700FCB40100E433FC604A906658E0FC9060D3
:109F070067E0FDECB50500B3E433FD703190606E9A
:109F1700E0FDECB50500B3E433FC601690606DE03E
:109F2700FC7D00C3EA9CEB64808DF063F08095F0C4
:109F370040047A0080027A01EA7003FA80027A010B
:109F4700EA70047A0080027A01906666EAF090600F
:109F57004DE023235401FAB40100E433FA6048903A
:109F67006646E0F58278A079BA7A021200B3AA822F
:109F7700906066E0FBEAB50300B3E433FB7023901F
:109F8700665BE0F58278A079BA7A021200B3AA82FA
:109F970090606FE0FBEAB50300B3E433FB7003FAAC
:109FA70080027A01EA70047A0080027A019066677B
:109FB700EAF0906666E07009906667E07003FA80E1
:109FC700027A01906668EAF090665FE0FA90604F67
:109FD700E0543FFB8A04C3EB64808CF063F0809508
:109FE700F05006906655E070047B0080027B01907C
:109FF7006669EBF090604DE0541FFB8A04C3EC6484
:10A00700808BF063F08095F0B3E433FC60069066D4
:10A0170055E070047B0080027B0190666AEBF0904C
:10A02700665AE0FB906659E0FCEBB5040040048CEF
:10A03700058007EB2BFBC39CFCFD906655E0601089
:10A0470090600AE020E2028D0290665EEAF08005E9
:10A0570090665EE4F0900050E0C423540390666D70
:10A06700E4F0A3F090666DE0FAA3E0FB906088A8A7
:10A077001808E0035401F6906646E0FD3395E0FECC
:10A08700900050E003540390A36A93FF3395E0FCDC
:10A09700C002C003C007C0048D828E83126D99ACC5
:10A0A70082AD8315811581A8180886067F00C00434
:10A0B700C0058E828F83126D99AC82AD8315811591
:10A0C70081D003D002EC2AFAED3BFB90666DEAF0F3
:10A0D700A3EBF0900050E0540190A36E93FC3395EE
:10A0E700E0FD90665BE0FE3395E0FFC002C003C071
:10A0F70006C0078C828D83126D99AC82AD83158162
:10A107001581D003D002EC2AFAED3BFB90666DEA8D
:10A11700F0A3EBF0900050E0540190A37093FC3350
:10A1270095E0FD90665CE0FE3395E0FFC002C0035A
:10A13700C006C0078C828D83126D99AC82AD8315E2
:10A14700811581D003D002EC2AFAED3BFB90666DB6
:10A15700EAF0A3EBF0900050E0540190A37293FC57
:10A167003395E0FD90664BE0FE3395E0FFC002C0FB
:10A1770003C006C0078C828D83126D99AC82AD83B4
:10A1870015811581D003D002EC2AFAED3BFB9066CE
:10A197006DEAF0A3EBF0900054E023540190A37410
:10A1A70093FC3395E0FD90664CE0FE3395E0FFC0ED
:10A1B70002C003C006C0078C828D83126D99AC82E2
:10A1C700AD8315811581D003D002EC2AFAED3BFB54
:10A1D70090666DEAF0A3EBF0900054E023540190F1
:10A1E700666DEAF0A3EBF0900054E023540190660B
:10A1F7006DEAF0A3EBF0E4C0E074FCC0E0E4C0E07B
:10A207007404C0E08A828B83784479BA7A02120098
:10A21700B3AA82AB83E58124FCF58190666DEAF0F1
:10A22700A3EBF090666DE0FAA3E0FB9066CAE0FC52
:10A237003395E0FDEAC39CF582EB9DF58378B7790A
:10A24700BA7A021200B3AA82AB8390666BEAF0A3D4
:10A25700EBF0851881D0180200C5906655E07003B1
:10A26700FA804D90665FE0FB90604EE05407FC8BF0
:10A2770005C3ED64808CF063F08095F050047A019B
:10A28700802E90604DE0541FFCC3EB64808CF0631C
:10A29700F08095F050047A028016906668E06004BA
:10A2A7007A03800C906669E070047A0480027A056C
:10A2B700906663EAF00200C5906727E0FABA0102E8
:10A2C70080089066F7E0FABA010302A36390604C36
:10A2D700E030E30302A36390604CE020E50790675A
:10A2E70015E0FA600302A363906047E020E1028073
:10A2F7006B78B779957A011200B39000EEE493FA80
:10A30700A3E493FB906174EAF0A3EBF078077984F8
:10A317007A011200B3906158E0FA7B00906159E02E
:10A32700FC7D00EC2AFAED3BFB90615CE0FC7D00D4
:10A33700EC2AFAED3BFB90615DE0FC7D00EC2AFA2C
:10A34700ED3BA2E713CA13CAA2E713CA13CA906068
:10A35700A1EAF078F179947A011200B30200C503FB
:0FA36700040607030406070305030502030102AA
:020000040000FA
:10021C00C018E581F5182407F581900228E0030346
:10022C005407FA53020390605AE003035401FBBBDA
:10023C00010280030203D6906038E030E30302032E
:10024C00D6C00278B779957A011200B3D00290002B
:10025C0060E0C403540190671DF090005CE003540F
:10026C000190671EF0902400E0C4540F906724F0B6
:10027C00902406E0543FFBE4CBC4CB6BCB54F0CBC7
:10028C006BFC902405E0C4540FFD7E00906725EDB7
:10029C004BF0EE4CA3F0900058E0232354019067F0
:1002AC0021F0900058E0C4035401906722F0902490
:1002BC0010E0C45401906723F09066F7E0FB906760
:1002CC009CF09066F7E4F0BA0309900060E04420DB
:1002DC00F0800ABA020790005CE04402F090605A89
:1002EC00E030E01DD20CC20DEA700B902400E054FB
:1002FC000F44C0F08026902400E0540F4480F0801E
:10030C001BC20CD20DEA700B902400E0540F443049
:10031C00F08009902400E0540F4420F0902408E46D
:10032C00F0A3F090240AE054C0F090240AE054BFEB
:10033C00F0902406E0543F4480F09024077402F0BF
:10034C00902405E0540F4450F0902406E054C0F083
:10035C00780779847A021200B3788279A97A02122A
:10036C0000B3900028E003547F906045F090223059
:10037C00742BF0A20DE43390005813E092E5F0A238
:10038C000CE43390005813E092E6F0900058E054DF
:10039C00EFF078C579A77A011200B3902580E0447C
:1003AC0001F0906059E054FCF0906058E4F09067D4
:1003BC000EF0A3F09067277401F0906038E04408C9
:1003CC00F0902230742BF00207C490605AE00303C3
:1003DC005401FABA010280030206DB906038E0C4D3
:1003EC00235401FABA010280030206DB906038E064
:1003FC00C45401FABA010280030206DB906059E092
:10040C005403FA30E11A906059E05403FB7A00432C
:10041C0003FC906058E0FC7D004202ED4203801921
:10042C00906059E05403FD7C00906058E0FE7F0022
:10043C004204EF42058C028D0390670EE0FCA3E0B2
:10044C00FDEAC39CF582EB9DF583C002C00312202C
:10045C00E9D003D00290670EEAF0A3EBF09060B005
:10046C00E4F09060ACF0A3F0A3F0A3F09060B2E4E1
:10047C00F09060A8F0A3F0A3F0A3F09060B1E4F0CA
:10048C009060E0F0A3F0A3F0A3F09060B3E4F090E0
:10049C0060DCF0A3F0A3F0A3F09060A5E0540FFA99
:1004AC00BA030050047B03800F740CB50200500497
:1004BC007C0C80028A048C038B021A1A1AEA2A25F5
:1004CC00E0248AFAE43408FB9000E8E493FCA3E40B
:1004DC0093FD906174ECF0A3EDF0C002C0037807BB
:1004EC0079847A011200B3D003D002A818087600E0
:1004FC00A81808B602004003020659C002C00390B7
:10050C0060B0E0FDA81808E675F002A4FEE5F0CE98
:10051C0025E0CE33CE25E0CE33FFEE2470FAEF3457
:10052C0025FB7C00C003C005C006C007C002C00389
:10053C00C0049060AC75F0001207CAAA8215811530
:10054C00811581D007D006D005D003EA2D9060B07C
:10055C00F09060B2E0FAEE2460FBEF3425FC7D00F5
:10056C00C002C006C007C003C004C0059060A875D7
:10057C00F0001207CAAB82158115811581D007D006
:10058C0006D002EB2A9060B2F0E0FCA81808E5183F
:10059C002406F9E6F7E4C725E0C733C725E0C733DF
:1005AC0009F7E5182406F8E624F0FD08E63425FAE8
:1005BC008D828A83A3A3A3A3E02C9060B2F09060F9
:1005CC00B1E0FCEE2474FDEF3425FA7B00C003C0CF
:1005DC0004C006C007C005C002C0039060E075F0FF
:1005EC00001207CAAA82158115811581D007D00681
:1005FC00D004D003EA2C9060B1F09060B3E0FAEE36
:10060C002464FEEF3425FF7B00C002C006C007C087
:10061C00039060DC75F0001207CAAB82158115815E
:10062C001581D002EB2A9060B3F0E0FAE5182406AD
:10063C00F8E624F0F58208E63425F583E02A90608C
:10064C00B3F0A8180806D003D0020204FC9060B2E4
:10065C00E0FCA8180808A6040876000876000876BE
:10066C0000A8180808E6080808F6181818760008F4
:10067C0076000876009060A8E0A3E0FDA3E0FEA35E
:10068C00E0FF8D048E058F067F00A8180808EC4645
:10069C00F6ED0846F6EE0846F6EF0846F68A828B2B
:1006AC0083E493FCA3E493FDA3E493FEA3E493FF00
:1006BC00A8180808C3E69C08E69D08E69E08E69F75
:1006CC0050030204D4906038E054EFF00207C49059
:1006DC006727E0FABA010280030207C490605AE06F
:1006EC0030E2030207C4902580E054FEF09060389D
:1006FC00E054F7F0906038E054EFF0906727E4F0A6
:10070C00906721E090005813E092E6F0906722E0A9
:10071C0090005813E092E5F0788279A97A021200E1
:10072C00B390671DE090006013E092E5F090671EB7
:10073C00E090005C13E092E1F0906724E0902400DC
:10074C00C454F0F5F0E0540F45F0F0906725E0FA52
:10075C00A3E0FB740F5A902405C454F0F5F0E05458
:10076C000F45F0F0EBC4CAC4540F6ACA540FCA6ADE
:10077C00CA53023F902406EA543FF5F0E054C045BA
:10078C00F0F0906723E090241013E092E4F090676F
:10079C009CE09066F7F075820278F979827A021201
:1007AC0000B3902230742BF090604CE020E5097877
:1007BC00F179947A011200B3851881D01822C018EF
:1007CC00858118C082C083C0F0E581240BF581A817
:1007DC00180886820886830886F0E5182404F91226
:1007EC006E7EF7A3126E7E09F7A3126E7E09F7A335
:1007FC00126E7E09F7E51824FBF8860308860408B8
:10080C0086028B828C838AF0E5182408F8126E7E9F
:10081C00F6A3126E7E08F6A3126E7E08F6A3126E75
:10082C007E08F6E5182404F8E5182408F9E726FEF6
:10083C0009E70836FF09E70836FA09E70836FBA886
:10084C00180886820886830886F0EE126D80A3EF66
:10085C00126D80A3EA126D80A3EB126D80E5182453
:10086C0008F8C3EE96EF0896EA0896EB0896500542
:10087C007582018003758200851881D018220400CE
:10088C0000002800000087010000430F000096982C
:10089C000000E2F50500CB9A3B00E50B5402E8762C
:1008AC00481711A5D4E87A0E7B0000000000000068
:1008BC00000000001ABAFF011BEA4B60030208B6E5
:1008CC002290223374FFF090220BE0547FF075F7E6
:1008DC000175F70122C0E0C082C083C0D075D01072
:1008EC00C2AF90223374F0F0C28DC28C902233745C
:1008FC00FFF0D2AFD0D0D083D082D0E032C0D07550
:10090C00D010C2AFC28EC28FD203D2AFD0D032C001
:10091C00E0C082C083C0D075D010C2AF90223374B7
:10092C00F2F075C878C2C6D204906033E020E503BB
:10093C000209D92006030209D99066CCE0FA7003AB
:10094C000209D9902603E020E410902600E0547FA1
:10095C00F0902601E04401F08032902609E0FA2064
:10096C00E71C90A316E05407FABA030280109026F5
:10097C0000E04480F0902601E04401F0800E9026C7
:10098C0000E04480F0902601E054FEF0902603E055
:10099C0020E71C902126E020E215906083E0448043
:1009AC00F0902600E0547FF0902601E054FEF09089
:1009BC006083E04440F0906083E04402F0902603B2
:1009CC00E04408F0906083E04408F0802D9026030A
:1009DC00E020E0263007239066CCE0FA601C9026DD
:1009EC0002E04480F0906083E04401F0906083E08A
:1009FC004410F0906083E04420F090223374FFF0B8
:100A0C00D2AFD0D0D083D082D0E032C0E0C082C090
:100A1C0083C0D075D010902233740DF074FFF0D0D9
:100A2C00D0D083D082D0E032C0E0C082C083C0D0AE
:100A3C0075D010C2AF9022337403F090201BE030BD
:100A4C00E1089020537402F0E4F090201BE030E2B7
:100A5C00369020537404F0E4F090A31BE020E527BB
:100A6C00902007E020E520902200E0FA90E650E08C
:100A7C00FBEAB5131290A34E740EF0740CF07408CC
:100A8C00F0E4F0902236F090223374FFF0D2AFD025
:100A9C00D0D083D082D0E032C0E0C082C083C0D03E
:100AAC0075D0107A00C2AF9022337401F090201AE6
:100ABC00E030E1679020527402F0E4F0902200E004
:100ACC00700E902034E05401FB90E651EBF0800C5A
:100ADC00902034E05401FB90E652EBF0902034E08F
:100AEC0020E01790A02FE054EFF090A02FE054DFFF
:100AFC00F090A327E054F7F0802190E651E0601BC2
:100B0C0090E652E0601590A02FE04410F090A02FDA
:100B1C00E04420F090A327E04408F090201BE03044
:100B2C00E010902200E0FB90E650E0FCEBB51402E4
:100B3C007A0190201BE020E403020D2B90205374CB
:100B4C001BF0E4F0902007E0C4035401FBBB010848
:100B5C009022367401F08005902236E4F090662BDA
:100B6C00E0FB600B90223374FFF0D2AF020D339098
:100B7C002230E0FBBB1B02802BBB2002805FBB2121
:100B8C00028021BB2202806BBB23028066BB240245
:100B9C00804BBB25028046BB26028041BB330280C2
:100BAC0052020C56902007E0C4035401FBBB010B0E
:100BBC00D20590A2B67401F0020D2BEA7003020D5F
:100BCC002B9022317421F090223374FFF090220B81
:100BDC00E0547FF075F70175F701020D2B9020079B
:100BEC00E0C4035401FABA01028003020D2BD205B2
:100BFC00020D2B902007E020E523902002E054FB0F
:100C0C00F09022317421F090223374FFF090220B7B
:100C1C00E0547FF075F70175F701020D2B9021025E
:100C2C00E003035401FABA0105D205020D2B902200
:100C3C00317422F090223374FFF090220BE0547F39
:100C4C00F075F70175F701020D2B902007E030E5E8
:100C5C0007902007E020E42A902002E054FBF0905B
:100C6C002102E054BFF09022317421F090223374B1
:100C7C00FFF090220BE0547FF075F70175F701023D
:100C8C000D2B902102E020E254902102E054BFF0A1
:100C9C0090E604E020E31B9022317422F090223382
:100CAC0074FFF090220BE0547FF075F70175F7019B
:100CBC00806D902007E030E31C902007E04440F06A
:100CCC00902007E04440F0902007E04440F0902052
:100CDC0007E04480F090223A7401F08042902102A7
:100CEC00E030E23B90E604E030E334902007E02073
:100CFC00E323902007E030E71C902007E0547FF0BE
:100D0C00902007E0547FF0902007E0547FF0902073
:100D1C0007E054BFF0902102E04440F075260190AA
:100D2C00223374FFF0D2AFD0D0D083D082D0E03257
:100D3C00C0E0C082C083C0D075D010C2AFC29B903F
:100D4C0022337408F090201AE020E703020DDB90A8
:100D5C0020527480F0E4F0902007E05401FABA01BC
:100D6C006E902230E0FABA1B02800FBA2102800A80
:100D7C00BA22028022BA233C801D9022317420F0CA
:100D8C00D29B90223374FFF090220BE0547FF075CD
:100D9C00F70175F70180239022317433F0D29B90C8
:100DAC00223374FFF090220BE0547FF075F701753D
:100DBC00F7018006902231741FF0D29B902233747D
:100DCC00FFF090220BE0547FF075F70175F701905E
:100DDC00201AE030E6339020527440F0E4F090207A
:100DEC0007E020E514902236E4F0902006E023542E
:100DFC0001FABA01028002D205902006E0235401C8
:100E0C00FA90200013E092E6F090223374FFF0D2B7
:100E1C009BD2AFD0D0D083D082D0E032C0D075D0AE
:100E2C0010D0D032C0E0C082C083C0D075D010C208
:100E3C00AF9022337402F090202BE030E60F90201C
:100E4C00577440F0E4F0902102E054BFF090202B56
:100E5C00E030E70F9020577480F0E4F0902002E02F
:100E6C0054FBF0902053E04408F0E054F7F090A3CA
:100E7C0016E05407FABA04239022317403F090223E
:100E8C0038E0FA431201902238EAF0902003E04453
:100E9C0004F0902003E04401F08006902231741994
:100EAC00F090223374FFF090220BE0547FF075F732
:100EBC000175F70190223374FFF0D2AFD0D0D083FC
:100ECC00D082D0E032C0E0C082C083C0D075D010D8
:100EDC00C2AFC29E902233740BF0902620E020E02B
:100EEC0003020F639026447401F0E4F0A207E4338C
:100EFC00FA9022B4EAF0902002E030E25A20072463
:100F0C00902601E030E550902603E04404F0D2072F
:100F1C009066CCE4F0C20375C860C2C690223174EE
:100F2C0028F08033902231E0FABA2910C2079026BB
:100F3C0003E054FEF0902603E054FBF09022317451
:100F4C002AF0D29E90223374FFF090220BE0547F53
:100F5C00F075F70175F701902143E030E52B9021F6
:100F6C005BE04420F0E054DFF0902603E020E7192A
:100F7C00902601E030E612902126E020E20B902230
:100F8C0074E054F7F0E04408F090223374FFF0D290
:100F9C009ED2AFD0D0D083D082D0E032C0E0C0821D
:100FAC00C083C0D075D010C2AF9022337405F090BE
:100FBC0026447402F0E4F0A206E433FA9022B4EA78
:100FCC00F0902601E030E67220066F902603E04494
:100FDC0002F09022317428F0D20690A316E0540748
:100FEC00FABA03028007902636E04480F09067112D
:100FFC00E4F0C20375C860C2C6902250E054DFF022
:10100C009066CCE4F0902143E054DFF0902143E073
:10101C0054BFF09022D8E04408F0E054F7F090264A
:10102C0003E030E707902604E4F0A3F0902602E0FA
:10103C004420F0E054DFF0021142902601E030E64B
:10104C003E30063B902603E0C45401FABA013090BE
:10105C0022317428F0906711E4F0C20375C860C2A5
:10106C00C6902600E054FBF0902603E054EFF020ED
:10107C002603021142902601E0547FF002114290A7
:10108C002601E020E64E30064B902603E020E44497
:10109C00902231E0FABA2A21C206902600E054FBD5
:1010AC00F0902603E054EFF0302607902601E05430
:1010BC007FF0902603E054FDF09022317429F090DB
:1010CC00223374FFF090220BE0547FF075F701751A
:1010DC00F7018062902601E030E65B30065890679D
:1010EC0011E4F0C20375C860C2C6902250E054DF10
:1010FC00F0902274E054F7F0902600E054FBF0904E
:10110C002603E054EFF0302607902601E0547FF0E0
:10111C00902603E054FDF09067107401F09022319A
:10112C007429F090223374FFF090220BE0547FF07E
:10113C0075F70175F70190223374FFF0D2AFD0D060
:10114C00D083D082D0E032C0E0C082C083C0D075E2
:10115C00D010C2AF902102E054F7F0902233740A01
:10116C00F090223AE0600E90223AE4F0902102E0F6
:10117C004408F08008D208902231742CF09022336D
:10118C0074FFF0D2AFD0D0D083D082D0E032C02563
:10119C00C0E0C0F0C082C083C0D075D010C018852C
:1011AC0081180581058105817A00C2AF90223374C4
:1011BC0007F0902621E020E1030217C0902645E0BD
:1011CC004402F0E054FDF0D2AF902603E020E10A97
:1011DC00902600E020E0030217C090260BE0FB9065
:1011EC00260AE0FC90260AE0A3E0902609E0FD9098
:1011FC002608E0A3E030060E902601E023235401DC
:10120C00FEBE0102801F200A030217C0902601E0D7
:10121C0030E6030217C0902600E05401FEBE010226
:10122C0080030217C0C012ECC4540FFE531603EC1B
:10123C000303543FFFA8180874035FF6A8180808A6
:10124C0074035CF67F0090A316E05407FABA04020C
:10125C008004D0128038D012C016EBC4540FFEE5B7
:10126C00182403F874035EF6E5182403F8E6D01688
:10127C0030E009E5182403F876048039E5182403D6
:10128C00F8E630E130E5182403F876058027EB54B6
:10129C00E06013C01774E05BFFBFE005D0170217C6
:1012AC00C0D017021764EB0303543FFBE51824036B
:1012BC00F874035BF6E5182403F8E670030213A533
:1012CC00ED30E7030217C0ED30E60F90A316E054A3
:1012DC0007FBBB040280030217C09067A6E0FB600B
:1012EC0003021764E5182403F8E625E0FA24B0F5A8
:1012FC0082E434E6F583E0FB902634EBF0EA24B08C
:10130C00FAE434E6FB8A828B83A3E0FB902635EB70
:10131C00F0902634E0C4540FFA90600FE0540FFBA9
:10132C00EAB5130040047F20800E902634E054F080
:10133C0070047F3080027F10C017902635E0C454B3
:10134C000FFB90600EE0540FFFEBB51700D0174069
:10135C00054317088010902635E054F070054317AC
:10136C000C8003431704C017902635E0540FFB90F4
:10137C00600FE0C4540FFFEBB51700D017400643C5
:10138C001702021764902635E0540F7006431703BA
:10139C00021764431701021764E5182403F8743F1D
:1013AC005CF6E5182403F8E670030217647B00BBB7
:1013BC000B005014EB90198893FCE5182403F8E605
:1013CC00B5140280030B80E7BB0B004003021764CB
:1013DC00ED30E7030217C0ED30E60F90A316E05492
:1013EC0007FBBB040280030217C09067A6E0FB60FA
:1013FC000302167A902635E0C4540FFB90600EE081
:10140C00540FFCEBB514009228B39217902635E0DC
:10141C00C4540FFBB401009218902635E0540FFB16
:10142C0090600FE0C4540FFCEBB514009228B392FB
:10143C0019902635E0540FFBB40100921A90263413
:10144C00E0C4540FFB90600FE0540FFCEBB514009C
:10145C009228B3921B902634E0C4540FFBB40100C5
:10146C00921CE5182403F8B601030215D3E51824E1
:10147C0003F8B60203021599E5182403F8B6040321
:10148C00021578E5182403F8B605028060E51824E7
:10149C0003F8B60803021557E5182403F8B60A0238
:1014AC00802DE5182403F8B61003021644E5182421
:1014BC0003F8B614028074E5182403F8B62003026E
:1014CC00160CE5182403F8B62802803F02167A2081
:1014DC001916902635E0540FFB0B902635EB540F64
:1014EC00F5F0E054F045F0F07A0102167A201A1665
:1014FC00902635E0540FFB1B902635EB540FF5F07E
:10150C00E054F045F0F07A0102167A201B18902670
:10151C0034E0C4540FFB0B902634EBC454F0F5F0BC
:10152C00E0540F45F0F07A0202167A201C1890262F
:10153C0034E0C4540FFB1B902634EBC454F0F5F08C
:10154C00E0540F45F0F07A0202167A3017030216B7
:10155C007A902635E0C4540FFB0B902635EBC4541F
:10156C00F0F5F0E0540F45F0F002167A3018030253
:10157C00167A902635E0C4540FFB1B902635EBC42D
:10158C0054F0F5F0E0540F45F0F002167A301903E0
:10159C0002167A201818902635E0C4540FFB1B90C5
:1015AC002635EBC454F0F5F0E0540F45F0F09026DE
:1015BC0035E0540FFB0B902635EB540FF5F0E0544F
:1015CC00F045F0F002167A301A0302167A2017183A
:1015DC00902635E0C4540FFB0B902635EBC454F029
:1015EC00F5F0E0540F45F0F0902635E0540FFB1B5E
:1015FC00902635EB540FF5F0E054F045F0F0806E8A
:10160C00201B6B902634E0C4540FFB0B902634EB5C
:10161C00C454F0F5F0E0540F45F0F020185090262B
:10162C0035E0C4540FFB1B902635EBC454F0F5F099
:10163C00E0540F45F0F08036201C33902634E0C483
:10164C00540FFB1B902634EBC454F0F5F0E0540F10
:10165C0045F0F0201718902635E0C4540FFB0B9082
:10166C002635EBC454F0F5F0E0540F45F0F090261D
:10167C0035E0C4540FFB90600EE0540FFCEBB51436
:10168C00009228B39217902635E0C4540FFBB40196
:10169C00009218902635E0540FFB90600FE0C45474
:1016AC000FFCEBB514009228B39219902635E05438
:1016BC000FFBB40100921A902634E0C4540FFB9037
:1016CC00600FE0540FFCEBB514009228B3921B9002
:1016DC002634E0C4540FFBB40100921CBE010B3045
:1016EC001C047F3080107F10800CBE0209301B045C
:1016FC007F2080027F10EA7024A81808B6010D30F4
:10170C00180543170C80164317048011A81808B647
:10171C00020B3017054317088003431704A8180859
:10172C0008B6010D301A05431703801743170180C3
:10173C0012A8180808B6020B3019054317028003CB
:10174C00431701BA0107EF2F25E0FB4217BA020835
:10175C00EF0303543FFA42177A00902604EFF0A3EC
:10176C00EAF0902603E020E740200A3D906711E064
:10177C00FA600F902605E0FA431280902605EAF0F5
:10178C008027906710E0FA602090A316E05407FAC7
:10179C00C374818AF063F08095F0400D902605E0CB
:1017AC00FA431240902605EAF0902602E04420F01D
:1017BC00E054DFF090223374FFF0D2AF851881D063
:1017CC0018D0D0D083D082D0F0D0E0D02532C0D089
:1017DC0075D010C2AFD2AFD0D032C0D075D010C23D
:1017EC00AFC29FD29FD2AFD0D032C0E0C0F0C08287
:1017FC00C083C0D075D010C2AFD2BB90223374045A
:10180C00F0902288E030E3609022D8E04408F0E0C9
:10181C0054F7F0906033E030E44E30064B9066CCD9
:10182C00E0FA6044902603E020E73D902126E0207A
:10183C00E23690A316E05407FAC374818AF063F081
:10184C008095F04015906083E04480F0902600E095
:10185C00547FF0902601E054FEF0902603E04408FB
:10186C00F0906083E04440F0902288E030E51990DD
:10187C0022D8E04420F0E054DFF09022E4E020E0B5
:10188C0007906033E054FEF090A2E4E020E2030203
:10189C00195D90A2F4E04404F0E054FBF090A2FC3B
:1018AC00E0700890A2FAE4F0021947902007E020BB
:1018BC00E50D90A2FCE0FA90A2FAEAF0021947902A
:1018CC00A2FCE0FABA020790A31BE020E25B90A214
:1018DC00FCE0FABA030790A34FE020E04C90A2FC86
:1018EC00E0FABA040790A319E020E63D90A2FCE0D0
:1018FC00FABA050790A34EE020E52E90A2FCE0FA80
:10190C00BA0608902238E0FA20E11E90A2FCE0FA18
:10191C00BA07079067BAE0FA700F90A2FCE0FABA27
:10192C0008139067BAE0FA700C90A2FCE0FA90A24F
:10193C00FAEAF0800690A2FA7401F090A2FCE06042
:10194C000990A2FBE04401F0800790A2FBE054FE5A
:10195C00F090223374FFF0D2BBD2AFD0D0D083D072
:10196C0082D0F0D0E032C0D075D010C2AF10980247
:10197C0080001099028000D2AFD0D032000405084C
:07198C000A142802012010DB
:020000040001F9
:10A37600C018858118058105810581902401E0C4F6
:10A38600035401FA902400E0C4540F906724F0901F
:10A396002402E023540190671FF0902402E0232357
:10A3A6005401906720F0900058E0232354019067F1
:10A3B60021F0900058E0C4035401906722F09024E5
:10A3C60010E0C45401906723F0902580E05401FB0F
:10A3D60090604FE0235401FC900218E003035401FF
:10A3E600FD90604FE023235401FE9024A2E0543FE9
:10A3F600FFA81808A607902482E0543FFFA8180873
:10A4060008A6079024A3E0543FFFE5182403F8A606
:10A4160007902483E0543FFFEA603D902401E05416
:10A42600DFF0C002C003C004C005C006C0077864E0
:10A4360079B97A021200B3D007D006D005D004D07D
:10A4460003D002902401E04440F0902402E030E181
:10A45600F9902402E054FEF0C007902580E054F7FE
:10A46600F0902405E0540FF0902406E054C0F090DC
:10A476000218E04404F090604FE054BFF090E60A02
:10A48600E054F7F0C002C003C004C005C006C00710
:10A49600788279A97A021200B3900058E054DFF06E
:10A4A600E04440F0E054EFF078C579A77A01120055
:10A4B600B3D0079067A7E0FF4401F0902230743BC9
:10A4C600F0902580E04408F0C007789C79A67A01D0
:10A4D6001200B3D007D006D005D004D003D002D0E6
:10A4E600079025F5E030E0679025F5E030E4F2903E
:10A4F6002401E054DFF0C002C003C004C005C0065A
:10A50600C007786479B97A021200B3D007D006D0B2
:10A5160005D004D003D002902401E04440F09024FA
:10A5260002E030E1F9902402E054FEF0C002C003DC
:10A53600C004C005C006C007789C79A67A0112003F
:10A54600B3D007D006D005D004D003D002809290B5
:10A5560025F4E030E70B906662E4F09066F874014B
:10A56600F0902430740CF0902434740CF090243065
:10A57600EF13E092E3F0902430A8180808E613E001
:10A5860092E2F0902434E5182403F8E613E092E30F
:10A59600F0902434A81808E613E092E2F0902430F4
:10A5A600E4F0902434F0902401E054DFF09024028B
:10A5B600E030E1F9902402E054FEF0902401EA1321
:10A5C600E092E5F0906721E090005813E092E6F003
:10A5D600906722E090005813E092E5F0906724E03F
:10A5E600902400C454F0F5F0E0540F45F0F0906765
:10A5F6001FE090240213E092E7F0906720E0902499
:10A606000213E092E6F0906723E090241013E092A4
:10A61600E4F0902580EB13E092E0F090604FEC13AD
:10A62600E092E7F0900218ED13E092E2F090604FAE
:10A63600EE13E092E6F0906662E4F0E0FB9066616D
:10A64600E0FCC002C0038C82121D5A1581D0029014
:10A6560025F5E04408F09025F5E030E2F99025F57F
:10A66600E054F7F0EA6012902401E04420F09024D0
:10A6760002E054FEF0E04401F0902580E054F7F04B
:10A686009067A7E0FA54FEF0902230742BF08518FC
:10A6960081D0180200C578DC79A67A011200B39041
:10A6A6002401E054BFF0E04420F0786479B97A02DE
:10A6B6001200B3902402E054FEF0E04401F090252D
:10A6C600F5E04408F09025F5E030E2F99025F5E054
:10A6D60054F7F00200C5C20DD20C9025F4E030E725
:10A6E6005F902430740CF0902434740CF090244362
:10A6F600E054C0F0902442E054C0F0902463E0544B
:10A70600C0F0902462E054C0F0902430E4F090242D
:10A7160034F09066F87401F09025F5E030E10D9084
:10A7260025F4E0547FFA906662F0800F9025F4E0FD
:10A73600547FFAC3E49AFA906662F0121D46805777
:10A74600902430740CF0902434740CF09025F4E0CE
:10A75600547F0303543FFA902443543FF5F0E054EA
:10A76600C045F0F0902442EA543FF5F0E054C0456D
:10A77600F0F0902463EA543FF5F0E054C045F0F061
:10A78600902462EA543FF5F0E054C045F0F090247E
:10A7960030E4F0902434F0902400E0540F44C0F0EC
:10A7A600902408E4F0A3F090240AE054C0F090242A
:0FA7B6000AE054BFF0902580E04401F00200C596
:020000040000FA
:060000000200C8020A170D
:03000B000208E107
:03001300020AA43A
:03001B00020909CE
:030023000219724D
:03002B0002091BAC
:01003300329A
:01003B003292
:0300430002119A0D
:03004B00020E3072
:03005300020A346A
:03005B000217F693
:03006300020FA8E1
:03006B000217DA9F
:01007300325A
:01007B003252
:01008300324A
:03008B00020D3C27
:03009300020E2832
:03009B00021153FC
:0300A300020ED179
:0300AB000217E653
:0300DB000200AE72
:0500AE0012199780FE0D
:1019930090000122758E00C2AF75260112011990C5
:1019A3002231E0902230F0902231E4F0902234F0A2
:1019B30090E649E0035401FA9067B8F090A320E061
:1019C30030E66490223CE0FA530201BA013B90A353
:1019D30018E04420F090662B7401F0785579B37ABF
:1019E300011200B3782D79C87A021200B390E64948
:1019F300E04402F090E651E4F090E652F090E62ED7
:101A0300E030E6059060CDE4F0902200E0FA90E645
:101A130050E0FBEAB5030B90A320E04480F0E054D0
:101A23007FF0902230E4F090223CE0FA43020190F0
:101A3300223CEAF0902230E07014789F79AB7A016F
:101A43001200B3786479E97A011200B38009783E11
:101A530079DA7A011200B390220BE04480F0D2AF1E
:101A6300902230E0FABA0303021B5FBA19028064C2
:101A7300BA1B03021B0DBA1E03021B18BA1F030273
:101A83001B23BA2003021B39BA21028071BA220236
:101A93008048BA2302804FBA2603021B44BA2703A5
:101AA300021B93BA2803021B4FBA2903021B4FBA26
:101AB3002A03021B4FBA2B03021B75BA2C03021B0A
:101AC30054BA3202802CBA33028060BA3B03021B41
:101AD3006A021B931255C9021B93788B79ED7A0125
:101AE3001200B3021B9378C179F07A011200B3029A
:101AF3001B93783079F17A011200B3021B93789427
:101B030079EE7A011200B3021B93786579EF7A01BB
:101B13001200B3807B784979F67A011200B38070A2
:101B230078E879F47A011200B38065782779F57A39
:101B3300011200B3805A78C679F57A011200B38096
:101B43004F780C79F27A011200B3804412259D80FC
:101B53003F784B79C07A011200B3803478AC79CDE9
:101B63007A011200B38029787679A37A011200B33F
:101B7300801E781179D57A011200B3902231E0707A
:101B83000F78D079967A011200B3902230742BF03B
:101B930020080790201BE030E34890223AE06039A8
:101BA300902102E054F7F0902053E04408F0E05411
:101BB300F7F090A316E05407FABA030C9000647888
:101BC3008A79B57A021200B390223AE4F0C20890FF
:101BD3002102E04408F0021C64902230742CF002CD
:101BE3001C64A206720750089022307428F080719A
:101BF300200618902601E030E6119022B47498F084
:101C0300784E79CD7A011200B3805620072A9026A8
:101C130001E030E5239022B47499F0C2AF902644DA
:101C23007401F0E4F09022307428F0902603E0442D
:101C330004F0D207D2AF80299025F5E030E00F9071
:101C43006714E0FA6008902230743BF0801390E64A
:101C530008E030E00C9022307403F09067B1740117
:101C6300F090603AE023235401FABA0103123A10C8
:101C7300902231E06013902231E0FA902230F0900C
:101C83002231E4F0C205021A6312021C78BF79A262
:101C93007A011200B3906098E05401FABA0103127A
:101CA30000FA902297E0235401FAB40100E433FAD6
:0B1CB30090229713E092E7F0021A6302
:050200000200000001F6
:101CBE00AA829066F8E0FBEAB50301229066F8EA84
:101CCE00F07403B50200500122EA2A2A901CDE733A
:101CDE00021CEA021D00021D20021D33900058E076
:101CEE0054DFF0900058E054BFF0900058E054EFED
:101CFE00F022A20DE43390005813E092E5F0A20C0E
:101D0E00E43390005813E092E6F0900058E054EF60
:101D1E00F022900058E04420F0900058E04440F04B
:101D2E00E054EFF022900058E054DFF0900058E0BD
:101D3E0054BFF0E04410F022906662E0FA906661C3
:101D4E00E0FBC0028B82121D5A158122C0188581BC
:101D5E001805810581AA8290604FE030E703021ECC
:101D6E00F5906799EAF0E51824FDF8860390679AD6
:101D7E00EBF090600AE054DFF09066F8E0FC70271C
:101D8E00906046E0C39AC39BFDA81808A605906014
:101D9E0045E0FE900028E003547FFFC003EEC39F92
:101DAE00FEFDD003021E90BC016B9067A7E0FE53B0
:101DBE000601BE0030900058E0C4035401FE9000AE
:101DCE0058E023235401FFEEB507028018906715E3
:101DDE00E0FE7011C002C00378C579A77A01120027
:101DEE00B3D003D002906046E0C39AFEA81808A6AE
:101DFE0006906045E0FEC002EBFF3395E0EEC39F18
:101E0E00FE900028E003547FFA7F00EEC39AFEFD99
:101E1E00D002021E90BC0232906046E0FEA8180866
:101E2E00A606906045E0FEEAFF3395E0EEC39FFE06
:101E3E00EBFD3395E0EEC39DFE900028E003547F4A
:101E4E00FD7F00EEC39DFEFD8038BC0335906046DD
:101E5E00E0FCA81808A604906045E0FC906796E0A8
:101E6E00FDEAFE3395E0EE2DFDEBFE3395E0FFEE41
:101E7E002D2CFC900028E003547FFD7E00ECC39DCA
:101E8E00FCFDA81808C3E6648094C04007A8180893
:101E9E00E624C0F6A818088682C002C003C0051248
:101EAE00202DD005D003D002C3ED648094C6400629
:101EBE00ED2480FD800CC3ED6480943A5004748050
:101ECE002DFDEDFC3395E0FD8C828D83C002C003A9
:101EDE001220E9D003D002C0038A82121EFB1581A4
:101EEE0090600AE04420F0851881D01822C0188531
:101EFE008118AA829066F8E0FB7403B503005003C4
:101F0E0002202AEB2B2B901F1873021F24021F2472
:101F1E00021F4F021FBB900038E00303543FFBC368
:101F2E0074A28BF063F08095F0500A900224E05476
:101F3E00F3F002202A900224E054F34404F002202D
:101F4E002AE51824FDF8E62AFB902173E493FCC3DE
:101F5E00EB64808CF063F08095F0500A900224E0E0
:101F6E0054F3F002202A902174E493FCC3EB6480B6
:101F7E008CF063F08095F0500C900224E054F34402
:101F8E0004F002202A902175E493FCC3EB64808C4C
:101F9E00F063F08095F0500C900224E054F3440866
:101FAE00F002202A900224E0440CF0806F90679695
:101FBE00E0FCEA2CFAE51824FDF8E62AFB902176DF
:101FCE00E493FAC3EB64808AF063F08095F05009D5
:101FDE00900224E054F3F08043902177E493FAC307
:101FEE00EB64808AF063F08095F0500B900224E051
:101FFE0054F34404F08025902178E493FAC3EB6403
:10200E00808AF063F08095F0500B900224E054F338
:10201E004408F08007900224E0440CF0D01822C04F
:10202E001885811805810581AA82900038E0030386
:10203E00543FFBC003740CC0E0743AC0E08A82784F
:10204E00C379B97A021200B3AA8215811581D00321
:10205E00EBB502030220E3EAFC3395E0FDEC24FE2F
:10206E00FEED34FFFFA81808A603EB3395E008F643
:10207E00A81808C3E69E08E664808FF063F080958A
:10208E00F050040B0B802074022CFCE43DFDA818CC
:10209E0008C3EC96ED64800886F063F08095F050EE
:1020AE00041B1B80028A03900038EB2B25E054FCA6
:1020BE00F5F0E0540345F0F0C002C003786479B93E
:1020CE007A021200B3783979807A011200B3D00304
:1020DE00D00202205E851881D01822AA82AB83EA34
:1020EE004B700122900028E003547FFC7D00C3EA70
:1020FE009402EB648094804011EA24FEFAEB34FFE4
:10210E00FB74022CFCE43DFD802AC374FE9A747F9E
:10211E008BF063F08095F0401174022AFAE43BFBD9
:10212E00EC24FEFCED34FFFD800AEA2CFCEB3DFDB9
:10213E007A007B0053047F900028EC2C54FEF5F0BF
:10214E00E0540145F0F0C002C003786479B97A0218
:10215E001200B3D003D002900028E04401F0E05406
:0B216E00FEF00220EDFD111E192D3ABD
:020000040001F9
:10A7C500758201785379947A011200B3902405E0DB
:10A7D50054FDF0906795E0FA7B1C7C029000E8E45C
:10A7E50093FDA3E493FE906174EDF0A3EEF0C00237
:10A7F500C003C004780779847A011200B3D004D06D
:10A8050003D002906170E0702DFDEDB50200501986
:10A81500900040C002C003C004C0051220E9D00565
:10A82500D004D003D0020D80E18B058C061BBBFF45
:10A83500011CED4E70A6906170E0FABA0103D38059
:10A8450001C3B39228E433FA90604E13E092E5F029
:10A855000200C50200C5C01885811805810581055E
:10A865008190E607E030E20302AB7490608EE03041
:10A87500E0069067947401F07A007B007C01C002C9
:10A88500C003C004787C79AB7A011200B3AD82D0E5
:10A8950004D003D002EDFE3395E0FFEE2AFAEF3B3C
:10A8A500FB8C060CBE100040D5EBC4CAC4540F6A1D
:10A8B500CA540FCA6ACA30E30244F09066F8E0FB56
:10A8C500B40100E433FC7009BB010280047E008002
:10A8D500027E01EE60047EE480027EC49066BAEEDC
:10A8E500F0EC7009BB010280047B0080027B01EB68
:10A8F50060047B1280027B3C9066BBEBF0758200A6
:10A90500C002121CBED20DD20C906661E0FB9066AF
:10A91500B7F09066BAE0FC9066BBE0FEC004C006E6
:10A925008B8278C379B97A021200B3AB821581158F
:10A93500819066F9EBF0906662E4F0121D46D00254
:10A94500A81808087600087600A818087600C0023E
:10A95500787C79AB7A011200B3AF82D0028F05C340
:10A96500ED64808AF063F08095F0500CA818080813
:10A9750016B6FF0208168017C3EA64808DF063F0EF
:10A985008095F0500AA818080806B600020806A81F
:10A99500180808C3E49674800886F063F08095F083
:10A9A5005011A8180808860708E6A2E713CF13CFA9
:10A9B500FE802FA818080808E630E722C002A8186C
:10A9C5000808E6F4FA08E6F4A2E713CA13CAFBC3BB
:10A9D500E49AFAE49BFB8A078B06D00280047F0089
:10A9E5007E00EF4E6052C0028F039066F9E0FC9046
:10A9F50066F9EB2CF09066F9E0906661F09066BA26
:10AA0500E0FB9066BBE0FC906661E0FAC003C00421
:10AA15008A8278C379B97A021200B3AA82158115A0
:10AA250081906661EAF0C002121D46D002A818089E
:10AA3500087600087600D002A818088603A818082A
:10AA450006BB2000500302A953A818080876000881
:10AA550076007B00C002C003787C79AB7A011200D6
:10AA6500B3AC82D003D0028C05C3ED64808AF06359
:10AA7500F08095F0500CA818080816B6FF020816C5
:10AA85008017C3EA64808DF063F08095F0500AA8C2
:10AA950018080806B600020806A8180808C3E496B0
:10AAA50074800886F063F08095F0501CA81808089B
:10AAB500860708E6C4CFC4540F6FCF540FCF6FCFAE
:10AAC50030E30244F0FE8037A818080808E630E7AE
:10AAD5002AA8180808E6F4FC08E6F4FDC4CCC4541A
:10AAE5000F6CCC540FCC6CCC30E30244F0FDC3E4C6
:10AAF5009CFCE49DFD8C078D0680047F007E00EFA5
:10AB05004E60509066F9E0FC9066F9EF2CF0906687
:10AB1500F9E0906661F09066BAE0FC9066BBE0FDF6
:10AB2500906661E0FEC002C003C004C0058E827855
:10AB3500C379B97A021200B3AC821581158190668A
:10AB450061ECF0121D46D003D002A8180808760063
:10AB55000876008B040BBC8000500302AA5990674D
:10AB650094E0FB7005906069EAF0906794E4F085E5
:10AB75001881D0180200C5781779977A011200B3A9
:10AB8500906794E0FA6009906657E0FAF5828007CD
:10AB9500906646E0FAF5820200C59060F8E0FA900A
:10ABA50022B4EAF09060F8E0FABAAAF890E6DCE0A0
:10ABB500FABAAAF09060F8E0FA9022B4EAF090E6CA
:10ABC50050E0FA7401B50200500590E650E4F090AB
:10ABD5002234E4F0902200E0FA90E650E0FBEAB57A
:10ABE500030C90A2B4E4F090E605E04402F0C20242
:10ABF500C20EC20F90678EE4F090678F74FFF0C2AB
:10AC050010C212C213C214C20CC20DC215C211C2A7
:10AC150000C201C227C226C224906710E4F090E664
:10AC25001E74FFF090E61F74FFF0906792E4F00247
:10AC350000C590E650E0FA7401B50200500590E6B3
:10AC450050E4F090A316E05407FABA03028010907E
:10AC5500A316E05407FABA050280047A0080027A46
:10AC650001EA60027401FA906714EAF090E607E0E1
:10AC750030E40D90E606E0FB43033090E606EBF08A
:10AC850090A234E0FB90E606E0420390A234EBF09C
:10AC950090A238E0FB90E606E0420390A238EBF084
:10ACA500902210E0035401FB90E606E0035401FCFA
:10ACB500D3EC4B7001C39214902200E0FB90E65058
:10ACC500E0FCEBB5045B9066257401F090E603E4C7
:10ACD500F090E602F090E601F090E6007402F09044
:10ACE50022B47460F09022B5E4F09022B6F0902280
:10ACF500B7F09022B87402F090A316E05407FBBB9E
:10AD0500030790E628E04401F090E6DB741EF0901E
:10AD1500E6DA7401F090E6D97414F090A2B774FFE6
:10AD2500F0C2169067B1E4F09067ACF0EA60249049
:10AD3500605AE0547FF0E04440F090605AE04420CF
:10AD4500F0906028740AF0A3E4F090602C7417F07A
:10AD5500A3E4F0906713E4F09065F6E090E62B54D9
:10AD65000FF5F0E054F045F0F090671C7401F09099
:10AD75006044E0C4235401FA9067A2F090E64EE0E7
:10AD850054FEF090E64FE04401F09060777406F0D1
:10AD95009060CDE4F09060CFF09061787420F090F1
:10ADA50061797420F090617A7420F090617B742051
:10ADB500F09061987420F09061997420F090619AF8
:10ADC5007420F090619B7420F00200C5902620E06D
:10ADD50054FDF0902620E054FEF0902143E054BF4E
:10ADE500F0902621E054FDF090201BE054F7F09000
:10ADF500202BE4F090201BF090201AF0902288F090
:10AE050090A2E4E4F090A316E05407FABA03028096
:10AE15000A90A316E05407FABA052190214BE044A5
:10AE250040F090201E743CF090201F74E5F09020B7
:10AE35001EE0547FF090201EE054BFF090224EE0BB
:10AE45004408F090224EE04404F090A316E0540725
:10AE5500FABA0302800A90A316E05407FABA051C51
:10AE6500902264E054FEF0902246E04402F09022E5
:10AE750047E04401F0902261E04440F0902248E030
:10AE85004402F090226DE04401F0902255E0440226
:10AE9500F090226AE04401F090A316E05407FABA54
:10AEA500030790A316E030E70790225DE04408F021
:10AEB50090A314E020E307902247E04408F0902295
:10AEC500CAE04410F0902200E0FA90E650E0FBEA78
:10AED500B50307902253E04410F0902253E044401C
:10AEE500F00200C590A3FCE0FA530203E4BA0201A4
:10AEF50004FB6009908344E04440F0800ABA0307EC
:10AF0500908344E054BFF0908348E04401F090E61C
:10AF15002CE0540FFA906300E0FCC3EA64808CF0E7
:10AF250063F08095F0500B90E62CE0540FFA906397
:10AF350000F090A316E05407FABA0502D21590A3C3
:10AF450016E05407FABA0327D226D22790604DE0BF
:10AF55004480F0902636E04420F0902003E04480C1
:10AF6500F0902103E04480F090400FE04410F09011
:10AF7500A316E05407FABA0302800890A316E0541A
:10AF850007703E90603AE054FDF090608EE054EF1B
:10AF9500F090608EE054DFF090608FE0540F44C075
:10AFA500F090608EE054F7F0906044E054CFF0905C
:10AFB5006044E054BFF0E04480F0906088E04402D3
:10AFC500F09082D4E0235401FABA011A90A316E056
:10AFD5005407FAC374818AF063F08095F0400790B6
:10AFE500A318E04404F0906046741EF09082BCE023
:10AFF50054F04407F09082BCE0540F4460F0900296
:10B0050064E054E74408F0900050E04418F09000E4
:10B0150050E04406F0900050E04401F0900054E008
:10B025004480F0902421E054F04402F0902421E083
:10B03500540F4420F0902422E054F04402F0902470
:10B0450026E0540F4440F0902427E054F04404F0E7
:10B05500902427E0540F4440F0902424E054F04419
:10B0650006F0902424E0540F44A0F0902423E054EB
:10B07500F04408F0902425E054F04406F090241F95
:10B08500E054F04405F090241CE054F04406F090A0
:10B095002420E054F0F0902420E0540F4470F09008
:10B0A5002425E0540F4430F0902426E054F0440564
:10B0B500F090A110E054E04405F090A110E044E0C8
:10B0C500F090A111E054FCF090A119E04410F0902B
:10B0D500A316E05407700E902026E04401F090215D
:10B0E5004BE04410F090A00BE023235401FA90A00C
:10B0F5003713E092E6F0900258E04420F090830484
:10B10500E0547FF090833CE04402F0908224E054C8
:10B11500E34418F090E613E020E15990821CE044E6
:10B1250018F0EB60269082D0E0541F44A0F0908286
:10B13500B0E0541F4460F09082CCE054E34410F03A
:10B145009082CCE0541F44A0F080209082D0E0444F
:10B15500E0F09082B0E0541FF09082CCE054E344DC
