:020000040001F9
:10800000AA82AB837C00BC0800502AEC2CFDFE90B9
:1080100083DF93CEA393FFED9083EF93CDA393F8EB
:10802000EA5205EB5200EEB50508EFB50004758283
:1080300001220C80D175820022C018E581F5182438
:1080400008F581E5182404F87600087600E5182480
:1080500006F87600900030E00354079083FF939079
:10806000661DF0900034E00303543F90661EF090CC
:108070000034E003540190661FF078EB79897A02AE
:108080001200B3AD829022B6EDF0906008E0FEBE23
:1080900001047E0880027E01A818080876BC0876D4
:1080A000029022B5EEF030165CED6009906614E0A7
:1080B0002401F08009906614E014906614F0906634
:1080C00014E0FC700CFD90E643E0FF906614F08035
:1080D00034C00690E643E0FFE4CF25E0CF33FE7ADC
:1080E00000C3EC9FEA64808EF063F08095F0D006C8
:1080F000400D7D0190E643E0FA906614F08006752D
:108100008201028224BD0111C006785C798A7A025C
:108110001200B3AA82D0068011C0067803798B7A48
:10812000021200B3AB82D0068B02EA600302821D0A
:10813000C006788779837A011200B3D00630160A18
:10814000E5182406F8760102821DC00678EB7989CD
:108150007A021200B3AA82D0068A059022B6EDF008
:10816000A81808E6B505028011A81808A605BE08DB
:10817000047E028005BE02027E01E5182404F80890
:10818000E618C625E0C63308F68D027B00E5182404
:1081900004F8EA46F6EB0846F6E5182404F8E51874
:1081A0002407F9E6F70809E6F77C00BC0800503B15
:1081B000C006EC2CFFFE9083DF93CEA393FAEFFB77
:1081C0009083EF93CBA393FFE5182407F8E65203BF
:1081D00008E65207EEB50306EAB507028004D006AA
:1081E0008006D0067A0180050C80C07A00EA601013
:1081F000E5182406F87601906006E04408F0801D3A
:1082000090E649E020E00AA818080816B6FF020820
:1082100016A8180808E6084660030280A1E518249D
:1082200006F88682851881D0180200C5A20EE433B4
:10823000FA902230740FF0900228E003035407FBF9
:10824000530304E4BB000104FB906006E054F7F024
:10825000906001E054FDF090E60AE003035401FC55
:10826000BC0102800A906003E05401FCBC0144EAB6
:108270002AFC24AAFDE43465FEEB2DF582E43EF5EC
:1082800083E090661EF0EC24B2FDE43465FEEB2D35
:10829000F582E43EF583E0906620F0EC24A2FCE455
:1082A0003465FDEB2CF582E43DF583E0FC90661F20
:1082B000F0801290661E7431F09066207405F09084
:1082C000661F7401F0906620E09083FF9390661D16
:1082D000F0C002C003788779837A011200B3D0031B
:1082E000D002906008E0600302837490E60AE030F8
:1082F000E203028374C002C003783979807A0112E4
:1083000000B3AC82D003D002906005EC13E092E1A0
:10831000F0900030E0035407FCEA2433FDE43466B7
:10832000FEEC9083FF938D828E83F0EA2AFA24AAD2
:10833000FCE43465FDEB2CFCE43DFD90661EE08C16
:10834000828D83F0EA24B2FCE43465FDEB2CFCE47E
:108350003DFD906620E0FE8C828D83F0EA24A2FA37
:10836000E43465FCEB2AFBE43CFD90661FE0FA8BED
:10837000828D83F0906001E04402F090E643E0FAE1
:10838000906614F00200C590661EE090003425E06F
:1083900025E054FCF5F0E0540345F0F090661FE052
:1083A00090003413E092E1F090661DE0FAC313628E
:1083B00002906620EAF0900030EA2A540EF5F0E0D0
:1083C00054F145F0F0900034E04401F0786479B95C
:1083D0007A021200B3900034E054FEF00200C505AA
:1083E000000A003300CC00C701380E0F0FF0F00F69
:1083F000000F00FF00FF00FF0FFF0FFFFFFFFF0058
:1084000001030207060405C018858118058105814E
:108410009061707401F09066F7E0FABA0102800B87
:1084200090E607E0035401FABA0106200803028C23
:108430003C9060A2E4F09060A3F0906799E0FA901D
:108440006174E0FBA3E0FCEB20E00302853990605F
:10845000A27401F0902163E0547FF090240CE0546A
:108460007FF0902102E04480F0E0547FF0C0027879
:108470006479B97A021200B3902403E054BFF07516
:108480008E07902410E04404F0E054FBF0758E0059
:108490009022D0E04480F09022D4E04480F09022FA
:1084A000D0E0547FF09022D4E0547FF078A7798C0C
:1084B0007A011200B3D0029060A27402F09060A022
:1084C000E030E175C002780779847A021200B37552
:1084D0008200783179847A021200B3758210783183
:1084E00079847A021200B3758212783179847A0223
:1084F0001200B3D00290049CE0541FFB900498E05B
:10850000541FFC2BFB9067C1F0900498E020E50716
:108510009067C174402BF090089CE0541FFB9008BA
:1085200098E0541FFC2BFB9067C2F0900898E02065
:10853000E5079067C274402BF0906174E0FBA3E004
:10854000FCEB30E12A9060A27403F0C00274FFC01B
:10855000E090000078FF798F7A011200B31581D086
:1085600002902163E04480F090240CE04480F0907D
:108570006174E0FBA3E0FCEB20E2030286939060D1
:10858000A27404F0758201C002785879957A0112BC
:1085900000B37582007844798C7A011200B3D0025E
:1085A000906174E0FBA3E0FCEB30E51B9060A274EB
:1085B00005F0C002E4C0E0900A0178FF798F7A01EB
:1085C0001200B31581D002758BF0758DD8D28EC292
:1085D000039060A27406F0C0027401C0E0900A012A
:1085E00078FF798F7A011200B31581D0029066610D
:1085F000E0FBB50202806E9060A27408F0EBFC33E1
:1086000095E0FDEC24FEFEED34FFFFA81808A6025D
:10861000EA3395E008F6A81808C3E69E08E66480E9
:108620008FF063F08095F050040A0A802074022CC9
:10863000FCE43DFDA81808C3EC96ED64800886F0C4
:1086400063F08095F050041A1A80028B02906662E3
:10865000E0FBC002C0038A82121C901581D0022068
:1086600003030285D130030F9060A3E0FA430202B6
:108670009060A3EAF0C203C28EC28F758200783187
:1086800079847A021200B3758210783179847A0283
:108690001200B3906174E0FAA3E0FBEA20E4030265
:1086A00088569060A2740AF0902401E054FDF09086
:1086B0002401E054FEF0906174E0FAA3E0FBEA309C
:1086C000E53A9060A2740BF0758201785879957A3A
:1086D000011200B37582007844798C7A011200B3DC
:1086E00090240BE04480F0E054BFF0E4C0E0900A36
:1086F0000178FF798F7A011200B31581906174E0DF
:10870000FAA3E0FBEA30E6499060A2740CF020275F
:1087100018758201785879957A011200B375820034
:108720007844798C7A011200B390240BE04480F0F5
:10873000E054BFF0902402E04408F0E054FBF074F1
:1087400002C0E0900A0178FF798F7A011200B31518
:1087500081906174E0FAA3E0FBEA30E7609060A2E8
:10876000740DF0202718758200785879957A0112D7
:1087700000B37582027844798C7A011200B3902498
:108780000BE04480F0E054BFF0902402E04408F095
:10879000E054FBF03008147402C0E090000078FF51
:1087A000798F7A011200B3158180127402C0E090B3
:1087B000030278FF798F7A011200B31581906174FA
:1087C000E0FAA3E0FB20E0030288569060A2740E5A
:1087D000F0202718758200785879957A011200B335
:1087E0007582027844798C7A011200B390240BE0F0
:1087F000547FF090240BE054BFF0902402E054F733
:10880000F0902402E054FBF0906715E0FA601474D5
:1088100004C0E090020478FF798F7A011200B3154A
:108820008180127402C0E090020478FF798F7A018F
:108830001200B31581780779847A021200B3758229
:1088400010783179847A021200B375820078317918
:10885000847A021200B3906174E0FAA3E0FB20E195
:10886000030289309060A27410F0902401E054FD5E
:10887000F0902401E054FEF09060A27411F0902476
:108880000BE0547FF0E04440F0902402E054F7F015
:10889000E04404F07403C0E0900A0178FF798F7A15
:1088A000011200B315819060A27412F090240BE0C5
:1088B000547FF090240BE054BFF0902402E054F772
:1088C000F0902402E054FBF07403C0E090030278BF
:1088D000FF798F7A011200B315819060A27413F0B2
:1088E00090049CE0541FFA900498E0541FFB2AFA6D
:1088F0009067C1F0900498E020E5079067C174404C
:108900002AF090089CE0541FFA900898E0541FFB4E
:108910002AFA9067C2F0900898E020E5079067C2B5
:1089200074402AF0758212783179847A021200B389
:10893000906174E0FAA3E0FB20E2030289BD90603D
:10894000A27414F0758200785879957A011200B3F8
:108950007582027844798C7A011200B39060A27417
:1089600015F0902401E04402F090240BE04480F0E4
:10897000E054BFF0E4C0E090080278FF798F7A01FC
:108980001200B315819060A27416F090240BE0548D
:108990007FF090240BE054BFF0E4C0E09004047832
:1089A000FF798F7A011200B31581758201783179D0
:1089B000847A021200B3902401E054FDF0906174B7
:1089C000E0FAA3E0FB20E403028B649060A2741839
:1089D000F0202718758200785879957A011200B333
:1089E0007582027844798C7A011200B3902404E0F5
:1089F00054BFF0902401E04401F07A007B007582BE
:108A000002C002C00378F979827A021200B3D0035F
:108A1000D0029060A27419F090240BE04480F0E042
:108A200054BFF020271BC002C003E4C0E0900A023C
:108A300078FF798F7A011200B31581D003D00280BC
:108A400019C002C003E4C0E090080278FF798F7A71
:108A5000011200B31581D003D0029060A2741AF005
:108A600090240BE0547FF0E04440F020271BC0022C
:108A7000C003E4C0E090080478FF798F7A01120007
:108A8000B31581D003D0028019C002C003E4C0E056
:108A900090060478FF798F7A011200B31581D00314
:108AA000D0029060A2741CF0EB7016758202C002B6
:108AB000C003783179847A021200B3D003D00280E7
:108AC0002DEA7016758203C002C003783179847A6A
:108AD000021200B3D003D0028014758204C002C019
:108AE00003783179847A021200B3D003D002906007
:108AF000A2741BF09060A0E030E35BEB701F7B0181
:108B0000906661E0FCC002C003906700E0C0E08CAA
:108B100082121C901581D003D0020289FEEA701FD8
:108B20007A01906661E0FCC002C003906702E0C079
:108B3000E08C82121C901581D003D0020289FE9035
:108B40006701E0FA906662F0906661E0FBC0028B1C
:108B500082121C901581902401E054FEF0902404B0
:108B6000E04440F0906174E0FAA3E0FB20E60302E9
:108B70008C1390604FE030E603028C139060A27477
:108B800021F0902580E04401F090605AE020E2203E
:108B900075820178F979827A021200B3782F798F81
:108BA0007A011200B3787479827A021200B3800FCE
:108BB000906039E0F582787479827A021200B3907D
:108BC00060A27422F0902580E04404F0E054FBF0B1
:108BD00090605AE030E21474FFC0E090200878FF03
:108BE000798F7A011200B31581801274FFC0E09072
:108BF0000A0578FF798F7A011200B315819060A27F
:108C00007423F0781079937A011200B3AA829061EC
:108C100070EAF090605AE020E21C2008199060A2EF
:108C20007424F075820178F979827A021200B39087
:108C30002580E054FEF09060A27425F0851881D064
:108C4000180200C5AA82BA00028005BA012D801759
:108C5000902405E04408F0902405E04401F09024BD
:108C600005E04402F0803D902405E04408F0E05423
:108C7000FEF0902405E054FDF08029902405E05496
:108C8000F7F0902400E0C4540FFABA0F09902405BD
:108C9000E054FDF08007902405E04402F0902405A4
:108CA000E054FEF00200C5902403E04420F0E054BC
:108CB000DFF0E04402F0902403E054FDF0E04401D2
:108CC000F0E054FEF0758B9C758DFFD28EC20320B0
:108CD000031790240BE030E5F6786479B97A021234
:108CE00000B390240BE030E5E60200C5AA82906054
:108CF00016E0FB900224C4235460F5F0E0549F4535
:108D0000F0F0BA01028003028DBE902403E04440DB
:108D1000F09061B8E0902438547FF5F0E05480453D
:108D2000F0F09061B9E0902439547FF5F0E0548080
:108D300045F0F09061BAE090243A547FF5F0E054A9
:108D40008045F0F09061BBE090243B547FF5F0E06B
:108D5000548045F0F09061BCE090243C547FF5F0E5
:108D6000E0548045F0F09061BDE090243D547FF5E3
:108D7000F0E0548045F0F09061BEE090243E547FD6
:108D8000F5F0E0548045F0F09061BFE090243F544E
:108D90007FF5F0E0548045F0F09067C1E090253019
:108DA000547FF5F0E0548045F0F09067C2E0FA900F
:108DB0002531547FF5F0E0548045F0F08007902491
:108DC00003E054BFF0902403E04420F0E054DFF0CF
:108DD000758B9C758DFFD28EC20320031590240BDA
:108DE000E0C4035401FA90240BE0C4035401FB5A7D
:108DF00060E80200C59066F7E0FA6003028F2C7409
:108E000040C0E0E4C0E07480C0E07424C0E0E4C08E
:108E1000E090244075F00078D779BA7A021200B356
:108E2000E58124FBF5819024C0E0547F90243854E0
:108E30007FF5F0E0548045F0F09024C1E0547F903D
:108E40002439547FF5F0E0548045F0F09024C2E0DE
:108E5000547F90243A547FF5F0E0548045F0F09030
:108E600024C3E0547F90243B547FF5F0E0548045C8
:108E7000F0F09024C4E0547F90243C547FF5F0E05F
:108E8000548045F0F09024C5E0547F90243D547FF9
:108E9000F5F0E0548045F0F09024C6E0547F902433
:108EA0003E547FF5F0E0548045F0F09024C7E05444
:108EB0007F90243F547FF5F0E0548045F0F090041B
:108EC0009CE0541FFA900498E0541FFB2AFA906724
:108ED000C1F0900498E020E5079067C174402AF043
:108EE00090089CE0541FFA900898E0541FFB2AFA5F
:108EF0009067C2F0900898E020E5079067C2744040
:108F00002AF09067C1E0902530547FF5F0E054805E
:108F100045F0F09067C2E0FA902531547FF5F0E01B
:108F2000548045F0F0902403E04440F00200C590E6
:108F30006158E0FA906159E0FBC0038A82789A791F
:108F4000B97A021200B3AB8215818B0290615AE0AC
:108F5000FBC0038A82789A79B97A021200B3AB8295
:108F600015818B0290615BE0FBC0038A82789A795D
:108F7000B97A021200B3AB8215818B0290615CE07A
:108F8000FBC0038A82789A79B97A021200B3AB8265
:108F900015818B0290615DE0FBC0038A82789A792B
:108FA000B97A021200B3AB8215818B0290615EE048
:108FB000FBC0038A82789A79B97A021200B3AB8235
:108FC00015818B0290615FE0FBC0038A82789A79F9
:108FD000B97A021200B3AB8215818B0290E6AFE042
:108FE000C4540FFB8BF005F0EA8002C313D5F0FBED
:108FF000FA90E6AFE0540FFB2AFAF5820200C5C0F2
:1090000018858118AA82AB83906038E0232354012D
:10901000FCBC010280119066F7E0FCBC01028007F5
:10902000902411E020E10302923690604FE030E797
:109030001C902405E0540FF0902406E054C0F090FA
:109040002406E0543FF0902407E4F0804A8B047437
:109050000F5C902405C454F0F5F0E0540F45F0F097
:10906000ECC4540FFC53043F902406EC543FF5F03D
:10907000E054C045F0F074035AFB902406030354F7
:10908000C0F5F0E0543F45F0F0EA0303543FFA53D3
:10909000023F902407EAF0E51824FCF8B6010280AC
:1090A0001EE51824FCF8B602028030E51824FCF80E
:1090B000B60302803FE51824FCF8B60466804B90A6
:1090C000240874FFF090240974FFF090240AE054FF
:1090D000C0F090240AE054BFF0806190240874FF2F
:1090E000F090240974FFF090240AE0443FF0E0542B
:1090F000BFF08048902408E4F0902409F090240AFE
:10910000E054C0F0E04440F0803290240874FDF058
:1091100090240974FFF090240AE0443FF0E054BF2B
:10912000F080199024087401F0902409E4F0902450
:109130000AE054C0F090240AE054BFF0E51824FC83
:10914000F8B6FF02804D9060A0E030E21B9024084A
:10915000E0FA530201902408EAF0902409E4F09028
:10916000240AE054C0F0802B9060A4E030E5079022
:10917000240AE054C0F09060A4E030E41690240883
:10918000E0FAA3E0FB530255530355902408EAF09C
:10919000A3EBF0900264E0C4235403FABA02028005
:1091A0000D902408E0FA5302FD902408EAF0902480
:1091B00002E054FEF0E04401F0786479B97A0212DA
:1091C00000B3906098E020E44830080C758BF87587
:1091D0008DFFD28EC203800A758B18758DFCD28EDE
:1091E000C203902402E020E1033003F6902402E061
:1091F00054FEF03003159060A3E0FA430201906042
:10920000A3EAF0C20390679B7401F0C28EC28F8004
:109210000E902402E030E1F9902402E054FEF09038
:109220002408E4F0902409F090240AE054C0F0905F
:10923000240AE054BFF0D0180200C5900228E003D1
:10924000035407FA5302039060A4E054EFF09067D0
:10925000967420F09060A4E054DFF0BA03139024D9
:1092600002E0547FF0E04440F09067957408F0808D
:109270004EBA0213902402E04480F0E054BFF09014
:1092800067957404F08038BA0121902402E0547F7D
:10929000F0E04440F09067957402F09060A4E044E0
:1092A00010F09060A4E04420F08014902402E04488
:1092B00080F0902402E04440F09067957401F090B3
:1092C0000228E003035407FB30E20B906795E0258A
:1092D000E0FB906795F09066F7E0FB700D90679566
:1092E000E0C42354E0FB906796F0EA7010902402EB
:1092F000E04420F09060A4E054F0F080109024024C
:10930000E054DFF09060A4E054F04405F00200C5A2
:10931000C018E581F5182408F581902560E0FAA3CE
:10932000E0FBA3E0FCA3E0FDE5182405F8A6020895
:10933000A60308A60408A605902564E0FEA3E0FFA6
:10934000A3E0FAA3E0FBC006C007C002C003E51813
:109350002405F886820886830886F008E678007976
:10936000807A021200B3AA82AB83ACF0FDE58124BF
:10937000FCF581E5182405F8A60208A60308A60452
:1093800008A605902568E0FAA3E0FBA3E0FCA3E0B3
:10939000FDC002C003C004C005E5182405F886829C
:1093A0000886830886F008E6780079807A02120041
:1093B000B3AA82AB83ACF0FDE58124FCF581E5180E
:1093C0002405F8A60208A60308A60408A605902509
:1093D0006CE0FAA3E0FBA3E0FCA3E0FDC002C00345
:1093E000C004C005E5182405F8868208868308862F
:1093F000F008E6780079807A021200B3AA82AB8383
:10940000ACF0FDE58124FCF581E5182405F8A60201
:1094100008A60308A60408A605902570E0FAA3E0B4
:10942000FBA3E0FCA3E0FDA81808A60208A6030819
:10943000A60408A605902574E0FEA3E0FFA3E0FAC9
:10944000A3E0FBC006C007C002C003A818088682BC
:109450000886830886F008E6780079807A02120090
:10946000B3AA82AB83ACF0FDE58124FCF581A8189A
:1094700008A60208A60308A60408A605902578E019
:10948000FAA3E0FBA3E0FCA3E0FDC002C003C0041C
:10949000C005A8180886820886830886F008E67842
:1094A0000079807A021200B3AA82AB83ACF0FDE5AA
:1094B0008124FCF581A81808A60208A60308A604C2
:1094C00008A60590257CE0FAA3E0FBA3E0FCA3E05E
:1094D000FDC002C003C004C005A818088682088623
:1094E000830886F008E6780079807A021200B3AA31
:1094F00082AB83ACF0FDE58124FCF581A81808A6B9
:109500000208A60308A60408A60590E6AEE0FAE461
:10951000FBFCFDE5182405F8C3E69A08E69B08E67F
:109520009C08E69D5005758200802590E6ACE0FA27
:10953000A3E0FB7C007D00A81808C3EA96EB089620
:10954000EC0896ED0896500575820080037582013F
:08955000851881D0180200C546
:020000040000FA
:1000DE00D315D3111003D77590550040000280013F
:0C00EE000010D3019300D755D305330058
:020000040001F9
:10955800AA82300C07200D047B0C8013200C0730E6
:109568000D047B038009BA01047B0C80027B0F90F9
:1095780060A4E0540FF4FA5203902400EBC454F0B2
:10958800F5F0E0540F45F0F00200C5902402E054D5
:10959800EFF0900054E04408F0900054E04404F0E8
:1095A800900054E04402F0900054E04401F0900030
:1095B80058E04480F0902401E04404F0902418E03E
:1095C80054EFF0902418E054DFF0902405E054FEA6
:1095D800F0902405E054F7F0302710902400E05470
:1095E8000F44C0F0902405E04402F00200C590E664
:1095F80007E030E2030296B9902401E030E5030267
:1096080096B99066F7E0FABA01030296B99067BE78
:10961800E0FABA01030296B990604CE020E40790A2
:10962800604CE030E3030296B9902406E0543F44CE
:1096380080F09024077405F075820178F979827AB0
:10964800021200B3785B79887A021200B39024087A
:10965800E0FA5302FD902408EAF090240AE044401E
:10966800F0902405E054FDF0902405E054FEF090BD
:109678002405E054F7F0D20DD20C758200785879A1
:10968800957A011200B3902401E04420F09024025E
:10969800E054FEF0E04401F090604EE030E71290B4
:1096A8002401E054FBF0E04410F0902401E0440170
:1096B800F00200C5902401E0C4035401FABA01265F
:1096C800758B18758DFCD28EC203902401E054DF8F
:1096D800F0902402E020E1033003F6902402E054E5
:1096E800FEF0C28EC28F0200C590604CE020E403F9
:1096F8000297D290604CE030E3030297D290604C1E
:10970800E030E5030297D29066F7E0FA600302972B
:10971800D2906727E0FA60030297D290663AE02475
:1097280001F090663AE0FA7403B50200400302972C
:10973800D290663AE4F075820178F979827A021259
:1097480000B3785B79887A021200B3902409E4F0B8
:10975800902408E0FA53020D902408EAF090240AB5
:10976800E04440F0902405E054FDF0902405E054D6
:10977800FEF0902405E054F7F0902400E044F0F067
:109788007404C0E090101078FF798F7A011200B34A
:109798001581785B79887A021200B3902408E0FA80
:1097A8005302F0902408EAF090240AE054BFF074C1
:1097B80004C0E090100178FF798F7A011200B31588
:1097C80081780779847A021200B30200C590604C50
:1097D800E030E022900264E030E209900264E05454
:1097E800FBF0801B900264E04404F078F179967AEB
:1097F800011200B3800978F179967A011200B30258
:0298080000C599
:020000040002F8
:10800000C018858118AA82AB83ACF0FDE51824F96D
:10801000F8C3E69A08E69B08E69C08E69D50098AA4
:10802000828B838CF0ED800FE51824F9F8868208A6
:1080300086830886F008E6D0180200C5C018E581DE
:10804000F5182408F581902560E0FAA3E0FBA3E091
:10805000FCA3E0FDE5182405F8A60208A60308A67F
:108060000408A605902564E0FEA3E0FFA3E0FAA3C0
:10807000E0FBC006C007C002C003E5182405F8866F
:10808000820886830886F008E6780079807A0212F2
:1080900000B3AA82AB83ACF0FDE58124FCF581E559
:1080A000182405F8A60208A60308A60408A6059049
:1080B0002568E0FAA3E0FBA3E0FCA3E0FDC002C05A
:1080C00003C004C005E5182405F8868208868308E5
:1080D00086F008E6780079807A021200B3AA82ABB3
:1080E00083ACF0FDE58124FCF581E5182405F8A6B4
:1080F0000208A60308A60408A60590256CE0FAA3CA
:10810000E0FBA3E0FCA3E0FDC002C003C004C00587
:10811000E5182405F886820886830886F008E67844
:108120000079807A021200B3AA82AB83ACF0FDE53D
:108130008124FCF581E5182405F8A60208A60308A9
:10814000A60408A605902570E0FAA3E0FBA3E0FCD6
:10815000A3E0FDA81808A60208A60308A60408A61E
:1081600005902574E0FEA3E0FFA3E0FAA3E0FBC0C6
:1081700006C007C002C003A81808868208868308C4
:1081800086F008E6780079807A021200B3AA82AB02
:1081900083ACF0FDE58124FCF581A81808A602084F
:1081A000A60308A60408A605902578E0FAA3E0FB3C
:1081B000A3E0FCA3E0FDC002C003C004C005A818F2
:1081C0000886820886830886F008E6780079807A37
:1081D000021200B3AA82AB83ACF0FDE58124FCF56A
:1081E00081A81808A60208A60308A60408A60590F8
:1081F000257CE0FAA3E0FBA3E0FCA3E0FDC002C005
:1082000003C004C005A8180886820886830886F083
:1082100008E6780079807A021200B3AA82AB83ACB8
:10822000F0FDE58124FCF581A81808A60208A60344
:1082300008A60408A605E5182405F8C3E694640812
:10824000E6940008E6940008E69400500575820064
:10825000801AA81808C3E49674040896E40896E403
:10826000089650057582008003758201851881D0BB
:10827000180200C5AA82902440EA543FF5F0E05469
:10828000C045F0F0902441EA543FF5F0E054C04579
:10829000F0F0902442EA543FF5F0E054C045F0F08D
:1082A000902443EA543FF5F0E054C045F0F09024A8
:1082B00060EA543FF5F0E054C045F0F0902461EAE4
:1082C000543FF5F0E054C045F0F0902462EA543F8A
:1082D000F5F0E054C045F0F0902463EA543FF5F027
:1082E000E054C045F0F0902430740FF0E4F0902496
:1082F00034740FF0E4F00200C5AA82BA01028008CB
:10830000BA0202805F0283FD7440C0E0E4C0E07402
:1083100078C0E07461C0E0E4C0E090244075F000F3
:1083200078D779BA7A021200B3E58124FBF58190FF
:10833000243074FFF0A3F0A3F0A3747FF0902430F6
:10834000E4F0A3F0A3F0A3F090243474FFF0A3F0C2
:10835000A3F0A3747FF0902434E4F0A3F0A3F0A37F
:10836000F00283FD906178E0902440543FF5F0E006
:1083700054C045F0F0906179E0902441543FF5F00D
:10838000E054C045F0F090617AE0902442543FF50B
:10839000F0E054C045F0F090617BE0902443543FFE
:1083A000F5F0E054C045F0F0906198E090246054FE
:1083B0003FF5F0E054C045F0F0906199E090246101
:1083C000543FF5F0E054C045F0F090619AE09024FD
:1083D00062543FF5F0E054C045F0F090619BE0FA44
:1083E000902463543FF5F0E054C045F0F090243001
:1083F000740FF0E4F0902434740FF0E4F090240B48
:10840000E030E5F90200C57440C0E0E4C0E07480EB
:10841000C0E07424C0E0E4C0E090617875F00078BA
:10842000D779BA7A021200B3E58124FBF581020004
:10843000C5AA82BA00028027BA01030284B5BA0233
:10844000030284F9BA030302853DBA04030285815D
:10845000BA10030285C5BA12030285EF0286C890DE
:1084600024D0E0906148F09024D1E0906149F090F0
:1084700024D2E090614AF09024D3E090614BF090D8
:1084800024F0E090614CF09024F1E090614DF09088
:1084900024F2E090614EF09024F3E0FA90614FF006
:1084A00090240BE030E2047A0180027A009061713E
:1084B000EAF00286C89024D0E0906150F09024D178
:1084C000E0906151F09024D2E0906152F09024D37A
:1084D000E0906153F09024F0E0906154F09024F12A
:1084E000E0906155F09024F2E0906156F09024F312
:1084F000E0FA906157F00286C89024D0E09061586D
:10850000F09024D1E0906159F09024D2E090615A2B
:10851000F09024D3E090615BF09024F0E090615CF7
:10852000F09024F1E090615DF09024F2E090615EC3
:10853000F09024F3E0FA90615FF00286C89024D0B6
:10854000E0906160F09024D1E0906161F09024D2DD
:10855000E0906162F09024D3E0906163F09024F0A9
:10856000E0906164F09024F1E0906165F09024F275
:10857000E0906166F09024F3E0FA906167F0028683
:10858000C89024D0E0906168F09024D1E0906169B7
:10859000F09024D2E090616AF09024D3E090616B77
:1085A000F09024F0E090616CF09024F1E090616D27
:1085B000F09024F2E090616EF09024F3E0FA906184
:1085C0006FF00286C87440C0E0E4C0E074D0C0E040
:1085D0007424C0E0E4C0E090610075F00078D779C1
:1085E000BA7A021200B3E58124FBF5810286C890B5
:1085F00024C0E0547F9061B8547FF5F0E05480458A
:10860000F0F09024C1E0547F9061B9547FF5F0E020
:10861000548045F0F09024C2E0547F9061BA547FBA
:10862000F5F0E0548045F0F09024C3E0547F906171
:10863000BB547FF5F0E0548045F0F09024C4E05442
:108640007F9061BC547FF5F0E0548045F0F09024B9
:10865000C5E0547F9061BD547FF5F0E0548045F053
:10866000F09024C6E0547F9061BE547FF5F0E05452
:108670008045F0F09024C7E0547F9061BF547FF5AF
:10868000F0E0548045F0F0902510E0906140F090CB
:108690002511E0906141F0902512E0906142F09048
:1086A0002513E0906143F0902514E0906144F09030
:1086B0002515E0906145F0902516E0906146F09018
:1086C0002517E0FA906147F00200C5AA82BA0002BD
:1086D0008009BA02030287670287F0906148E09040
:1086E0002440543FF5F0E054C045F0F0906149E07B
:1086F000902441543FF5F0E054C045F0F090614AB9
:10870000E0902442543FF5F0E054C045F0F0906111
:108710004BE0902443543FF5F0E054C045F0F09016
:10872000614CE0902460543FF5F0E054C045F0F017
:1087300090614DE0902461543FF5F0E054C045F065
:10874000F090614EE0902462543FF5F0E054C04553
:10875000F0F090614FE0FA902463543FF5F0E0545C
:10876000C045F0F00287F0906158E0902440543FFB
:10877000F5F0E054C045F0F0906159E09024415488
:108780003FF5F0E054C045F0F090615AE09024428B
:10879000543FF5F0E054C045F0F090615BE0902468
:1087A00043543FF5F0E054C045F0F090615CE09038
:1087B0002460543FF5F0E054C045F0F090615DE076
:1087C000902461543FF5F0E054C045F0F090615EB4
:1087D000E0902462543FF5F0E054C045F0F0906121
:1087E0005FE0FA902463543FF5F0E054C045F0F0A8
:1087F000902430740FF0E4F0902434740FF0E4F01F
:1088000090240BE030E5F90200C5E582FA602B9078
:10881000604CE030E010900264E054E7F090020C0D
:10882000E0548FF08026900264E054E74408F09012
:10883000020CE0548F4430F08012900264E054E760
:108840004410F090020CE0548F4420F090000A781D
:108850008A79B57A021200B30200C59060A4E030B4
:10886000E4119024087455F0A3F090240AE054C059
:10887000F0800F90240874FFF0A3F090240AE044E5
:108880003FF0902401E054FDF0902401E054FEF00C
:1088900090240AE054BFF0902402E054F7F09024B2
:1088A00002E054FBF090240BE0547FF090240BE0A6
:0688B00054BFF00200C5F8
:020000040000FA
:1000FA00906099E0FABA1709788279A97A0212000F
:10010A00B3906098E054FEF0902230742BF0227580
:10011A00880575895175A91C75B906D2ABD2ADD2BD
:10012A00A8D2AAC2A975B83F75C878759A3EC20501
:10013A00C206C207C208906711E4F0C209C20AD215
:0D014A0003D204C21DC21E9067A7E4F0227C
:020000040001F9
:10980A00906038E0547FF0906098E030E11090600A
:10981A009CE0FAA3E0FB906174EAF0A3EBF0906796
:10982A009BE4F07A03C002780779847A011200B3C4
:10983A00D00290679BE0FB6027906037E0FBBB019A
:10984A00109060407401F0906040E0FBBB01028020
:10985A00F68A031AC374808BF063F08095F040C5D2
:10986A0078A5799D7A011200B3787279A37A0112E8
:10987A0000B3906038E04480F0906658E0FA906057
:10988A004AEAF0906659E0FA906049EAF090665F19
:10989A00E0FA906048EAF090665AE0FA90604BEA83
:1098AA00F00200C590614AE0FA90614BE0FBC00209
:1098BA008B82787179B97A021200B3AB8215818BE7
:1098CA000290614EE0FBC0028B82787179B97A020C
:1098DA001200B3AB8215818B0290614FE0FBC0028C
:1098EA008B82787179B97A021200B3AB82158190B2
:1098FA006643EBF0906148E0FA906149E0FBC002F0
:10990A008B82787179B97A021200B3AB8215818B96
:10991A000290614CE0FBC0028B82787179B97A02BD
:10992A001200B3AB8215818B0290614DE0FBC0023D
:10993A008B82787179B97A021200B3AA8215819062
:10994A006642EAF090614AE0FA7B0090614BE0FCE3
:10995A007D00EC2AFAED3BFB90614EE0FC7D00ECC9
:10996A002AFAED3BFB90614FE0FC7D00EC2AFAED10
:10997A003BA2E713CA13CAA2E713CA13CA906641E5
:10998A00EAF0906148E0FA7B00906149E0FC7D00D2
:10999A00EC2AFAED3BFB90614CE0FC7D00EC2AFAE4
:1099AA00ED3BFB90614DE0FC7D00EC2AFAED3BA219
:1099BA00E713CA13CAA2E713CA13CA906640EAF0A9
:1099CA00906152E0FA7B00906153E0FC7D00EC2A42
:1099DA00FAED3BFB906156E0FC7D00EC2AFAED3B88
:1099EA00FB906157E0FC7D00EC2AFAED3BA2E713FD
:1099FA00CA13CAA2E713CA13CA906645EAF090616D
:109A0A0050E0FA7B00906151E0FC7D00EC2AFAED0F
:109A1A003BFB906154E0FC7D00EC2AFAED3BFB90A5
:109A2A006155E0FC7D00EC2AFAED3BA2E713CA136C
:109A3A00CAA2E713CA13CA906644EAF090610CE01E
:109A4A00FA3395E0FB90612CE0FC3395E0FDEC2ABB
:109A5A00FAED3BA2E713CA13CA906646EAF0906190
:109A6A0004E0FA3395E0FB906105E0FC3395E0FDF4
:109A7A00EC2AFAED3BFB906124E0FC3395E0FDEC27
:109A8A002AFAED3BFB906125E0FC3395E0FDEC2AD8
:109A9A00FAED3BA2E713CA13CAA2E713CA13CA9084
:109AAA006647EAF0906106E0FA3395E0FB906107B9
:109ABA00E0FC3395E0FDEC2AFAED3BFB906126E0F1
:109ACA00FC3395E0FDEC2AFAED3BFB906127E0FCC4
:109ADA003395E0FDEC2AFAED3BA2E713CA13CAA2BA
:109AEA00E713CA13CA906648EAF0906108E0FA33AD
:109AFA0095E0FB906109E0FC3395E0FDEC2AFAED74
:109B0A003BFB906128E0FC3395E0FDEC2AFAED3B43
:109B1A00FB906129E0FC3395E0FDEC2AFAED3BA2CB
:109B2A00E713CA13CAA2E713CA13CA906649EAF02E
:109B3A0090610AE0FA3395E0FB90610BE0FC339503
:109B4A00E0FDEC2AFAED3BFB90612AE0FC3395E05C
:109B5A00FDEC2AFAED3BFB90612BE0FC3395E0FD2E
:109B6A00EC2AFAED3BA2E713CA13CAA2E713CA13F7
:109B7A00CA90664AEAF090610DE0FA3395E0FB90EC
:109B8A00612DE0FC3395E0FDEC2AFAED3BA2E713E8
:109B9A00CA13CA90664BEAF090610EE0FA3395E078
:109BAA00FB90612EE0FC3395E0FDEC2AFAED3BA236
:109BBA00E713CA13CA90664CEAF090610FE0FA33D1
:109BCA0095E0FB90612FE0FC3395E0FDEC2AFAED7D
:109BDA003BA2E713CA13CA90664DEAF0906110E0FF
:109BEA00FA3395E0FB906130E0FC3395E0FDEC2A16
:109BFA00FAED3BA2E713CA13CA90664EEAF09061E7
:109C0A005AE0FA7B0090615BE0FC7D00EC2AFAEDF9
:109C1A003BFB90615EE0FC7D00EC2AFAED3BFB9099
:109C2A00615FE0FC7D00EC2AFAED3BA2E713CA1360
:109C3A00CAA2E713CA13CA906650EAF0906158E0C4
:109C4A00FA7B00906159E0FC7D00EC2AFAED3BFBBF
:109C5A0090615CE0FC7D00EC2AFAED3BFB90615DD3
:109C6A00E0FC7D00EC2AFAED3BA2E713CA13CAA274
:109C7A00E713CA13CAFB90664FEAF09060A0E0208F
:109C8A00E303029D0C906162E0FA7B00906163E05D
:109C9A00FC7D00EC2AFAED3BFB906166E0FC7D005E
:109CAA00EC2AFAED3BFB906167E0FC7D00EC2AFAB6
:109CBA00ED3BA2E713CA13CAA2E713CA13CA9066F6
:109CCA0052EAF090616AE0FA7B0090616BE0FC7DF9
:109CDA0000EC2AFAED3BFB90616EE0FC7D00EC2A79
:109CEA00FAED3BFB90616FE0FC7D00EC2AFAED3B5C
:109CFA00A2E713CA13CAA2E713CA13CAFB9066548F
:109D0A00EAF0906170E0906655F0906174E0FAA311
:109D1A00E0FB20E103029DA2902510E0FA3395E0D2
:109D2A00FB902511E0FC3395E0FDEAC39CFAEB9D1C
:109D3A00FB902514E0FC3395E0FDEC2AFAED3BFBA1
:109D4A00902515E0FC3395E0FDEAC39CFAEB9D8A69
:109D5A0004906656ECF0902512E0FA3395E0FB90F9
:109D6A002513E0FC3395E0FDEAC39CFAEB9DFB90DA
:109D7A002516E0FC3395E0FDEC2AFAED3BFB902535
:109D8A0017E0FC3395E0FDEAC39CFAEB9DFB906675
:109D9A0057EAF0906798E4F00200C5C01885811868
:109DAA00058178AE79987A011200B3300D37200C0C
:109DBA0034906644E090665AF0906640E0906659A6
:109DCA00F0906642E0906658F0906647E090665BD5
:109DDA00F0906649E090665CF090664FE0FA906613
:109DEA005FF0029F08200D37300C34906645E090F2
:109DFA00665AF0906641E0906659F0906643E090AA
:109E0A006658F0906648E090665BF090664AE0908B
:109E1A00665CF0906650E0FA90665FF0029F0890E8
:109E2A006644E0FA7B00906645E0FC7D002AFAED84
:109E3A003BFB0ABA00010BEBA2E713CA13CA9066EE
:109E4A005AEAF0906640E0FA7B00906641E0FC7DB9
:109E5A00002AFAED3BFB0ABA00010BEBA2E713CA90
:109E6A0013CA906659EAF0906643E0FA906642E0B7
:109E7A00FBC0028B82787179B97A021200B3AA8286
:109E8A001581906658EAF0906647E0FA3395E0FB50
:109E9A00906648E0FC3395E0FDEC2AFAED3BFB0ABC
:109EAA00BA00010BEBA2E713CA13CA90665BEAF089
:109EBA00906649E0FA3395E0FB90664AE0FC3395F8
:109ECA00E0FDEC2AFAED3BFB0ABA00010BEBA2E734
:109EDA0013CA13CA90665CEAF090664FE0FA7B00F8
:109EEA00906650E0FC7D002AFAED3BFB0ABA0001BD
:109EFA000BEBA2E713CA13CAFB90665FEAF09066FF
:109F0A005AE0FA906659E0FBEAC39B90665DF090CE
:109F1A00665DE0FA74C1C0E0743FC0E08A8278C32B
:109F2A0079B97A021200B3AA821581158190665D09
:109F3A00EAF0906646E0F58278A079BA7A021200D1
:109F4A00B3E582FA3395E0FB90665BE0F582C002E6
:109F5A00C00378A079BA7A021200B3AC82D003D0D7
:109F6A0002EC3395E0FDEC2AFAED3BFB90665CE0EF
:109F7A00F582C002C00378A079BA7A021200B3ACA3
:109F8A0082D003D002EC3395E0FDEC2AFAED3BFBDC
:109F9A0090664BE0F582C002C00378A079BA7A02D3
:109FAA001200B3AC82D003D002EC3395E0FDEC2A68
:109FBA00FAED3BFB90664CE0F582C002C00378A044
:109FCA0079BA7A021200B3AC82D003D002EC33958C
:109FDA00E0FDEC2AFAED3BFB90604DE023235401AF
:109FEA00FCB40100E433FC604A906658E0FC9060DF
:109FFA0067E0FDECB50500B3E433FD703190606EA7
:10A00A00E0FDECB50500B3E433FC601690606DE04A
:10A01A00FC7D00C3EA9CEB64808DF063F08095F0D0
:10A02A0040047A0080027A01EA7003FA80027A0117
:10A03A00EA70047A0080027A01906666EAF090601B
:10A04A004DE023235401FAB40100E433FA60489046
:10A05A006646E0F58278A079BA7A021200B3AA823B
:10A06A00906066E0FBEAB50300B3E433FB7023902B
:10A07A00665BE0F58278A079BA7A021200B3AA8206
:10A08A0090606FE0FBEAB50300B3E433FB7003FAB8
:10A09A0080027A01EA70047A0080027A0190666787
:10A0AA00EAF0906666E07009906667E07003FA80ED
:10A0BA00027A01906668EAF0E0FA90240BE020E365
:10A0CA000B90240BE020E4047B0080027B01EB422E
:10A0DA0002906668EAF090665FE0FA90604FE0549A
:10A0EA003FFB8A04C3EB64808CF063F08095F050E8
:10A0FA0006906655E070047B0080027B01906669D9
:10A10A00EBF090604DE0541FFB8A04C3EC64808B33
:10A11A00F063F08095F0B3E433FC6006906655E096
:10A12A0070047B0080027B0190666AEBF090665AAD
:10A13A00E0FB906659E0FCEBB5040040048C058016
:10A14A0007EB2BFBC39CFCFD906655E0601090600A
:10A15A000AE020E2028D0290665EEAF080059066CF
:10A16A005EE4F0900050E0C423540390666DE4F07E
:10A17A00A3F090666DE0FAA3E0FB906088A8180847
:10A18A00E0035401F6906646E0FD3395E0FE900048
:10A19A0050E003540390A47B93FF3395E0FCC00284
:10A1AA00C003C007C0048D828E83126DA6AC82AD37
:10A1BA008315811581A8180886067F00C004C0058A
:10A1CA008E828F83126DA6AC82AD8315811581D0E4
:10A1DA0003D002EC2AFAED3BFB90666DEAF0A3EBA2
:10A1EA00F0900050E0540190A47F93FC3395E0FD79
:10A1FA0090665BE0FE3395E0FFC002C003C006C074
:10A20A00078C828D83126DA6AC82AD831581158170
:10A21A00D003D002EC2AFAED3BFB90666DEAF0A37C
:10A22A00EBF0900050E0540190A48193FC3395E048
:10A23A00FD90665CE0FE3395E0FFC002C003C006F5
:10A24A00C0078C828D83126DA6AC82AD83158115F1
:10A25A0081D003D002EC2AFAED3BFB90666DEAF05E
:10A26A00A3EBF0900050E0540190A48393FC339543
:10A27A00E0FD90664BE0FE3395E0FFC002C003C0EC
:10A28A0006C0078C828D83126DA6AC82AD831581C0
:10A29A001581D003D002EC2AFAED3BFB90666DEAF9
:10A2AA00F0A3EBF0900054E023540190A48593FCB2
:10A2BA003395E0FD90664CE0FE3395E0FFC002C0A6
:10A2CA0003C006C0078C828D83126DA6AC82AD8353
:10A2DA0015811581D003D002EC2AFAED3BFB90667A
:10A2EA006DEAF0A3EBF0900054E023540190666D00
:10A2FA00EAF0A3EBF0900054E023540190666DEA73
:10A30A00F0A3EBF0E4C0E074FCC0E0E4C0E0740445
:10A31A00C0E08A828B83784479BA7A021200B3AA9F
:10A32A0082AB83E58124FCF58190666DEAF0A3EBAC
:10A33A00F090666DE0FAA3E0FB9066CAE0FC339504
:10A34A00E0FDEAC39CF582EB9DF58378B779BA7A8A
:10A35A00021200B3AA82AB8390666BEAF0A3EBF019
:10A36A00851881D0180200C5906655E07003FA80FE
:10A37A004D90665FE0FB90604EE05407FC8B05C38E
:10A38A00ED64808CF063F08095F050047A01802EA1
:10A39A0090604DE0541FFCC3EB64808CF063F08046
:10A3AA0095F050047A028016906668E060047A0399
:10A3BA00800C906669E070047A0480027A059066DF
:10A3CA0063EAF00200C5906727E0FABA0102800842
:10A3DA009066F7E0FABA010302A47490604CE03088
:10A3EA00E30302A47490604CE020E507906715E04F
:10A3FA00FA600302A474906047E020E102806B785F
:10A40A00BC79967A011200B39000EEE493FAA3E4C1
:10A41A0093FB906174EAF0A3EBF0780779847A01F0
:10A42A001200B3906158E0FA7B00906159E0FC7D1C
:10A43A0000EC2AFAED3BFB90615CE0FC7D00EC2A23
:10A44A00FAED3BFB90615DE0FC7D00EC2AFAED3B06
:10A45A00A2E713CA13CAA2E713CA13CA9060A1EAF1
:10A46A00F078F679957A011200B30200C503040662
:0DA47A0007030406070305030502030102A2
:020000040000FA
:10021C00C018E581F5182407F581900228E0030346
:10022C005407FA53020390605AE003035401FBBBDA
:10023C00010280030203D6906038E030E30302032E
:10024C00D6C00278BC79967A011200B3D002900025
:10025C0060E0C403540190671DF090005CE003540F
:10026C000190671EF0902400E0C4540F906724F0B6
:10027C00902406E0543FFBE4CBC4CB6BCB54F0CBC7
:10028C006BFC902405E0C4540FFD7E00906725EDB7
:10029C004BF0EE4CA3F0900058E0232354019067F0
:1002AC0021F0900058E0C4035401906722F0902490
:1002BC0010E0C45401906723F09066F7E0FB906760
:1002CC009CF09066F7E4F0BA0309900060E04420DB
:1002DC00F0800ABA020790005CE04402F090605A89
:1002EC00E030E01DD20CC20DEA700B902400E054FB
:1002FC000F44C0F08026902400E0540F4480F0801E
:10030C001BC20CD20DEA700B902400E0540F443049
:10031C00F08009902400E0540F4420F0902408E46D
:10032C00F0A3F090240AE054C0F090240AE054BFEB
:10033C00F0902406E0543F4480F09024077402F0BF
:10034C00902405E0540F4450F0902406E054C0F083
:10035C00780779847A021200B3788279A97A02122A
:10036C0000B3900028E003547F906045F090223059
:10037C00742BF0A20DE43390005813E092E5F0A238
:10038C000CE43390005813E092E6F0900058E054DF
:10039C00EFF0788779A47A011200B3902580E044BD
:1003AC0001F0906059E054FCF0906058E4F09067D4
:1003BC000EF0A3F09067277401F0906038E04408C9
:1003CC00F0902230742BF00207CE90605AE00303B9
:1003DC005401FABA010280030206E5906038E0C4C9
:1003EC00235401FABA010280030206E5906038E05A
:1003FC00C45401FABA010280030206E5906059E088
:10040C005403FA30E11A906059E05403FB7A00432C
:10041C0003FC906058E0FC7D004202ED4203801921
:10042C00906059E05403FD7C00906058E0FE7F0022
:10043C004204EF42058C028D0390670EE0FCA3E0B2
:10044C00FDEAC39CF582EB9DF583C002C00312202C
:10045C001FD003D00290670EEAF0A3EBF09060B0CF
:10046C00E4F09060ACF0A3F0A3F0A3F09060B2E4E1
:10047C00F09060A8F0A3F0A3F0A3F09060B1E4F0CA
:10048C009060E0F0A3F0A3F0A3F09060B3E4F090E0
:10049C0060DCF0A3F0A3F0A3F09060A5E0540FFA99
:1004AC00BA030050047B03800F740CB50200500497
:1004BC007C0C80028A048C038B021A1A1AEA2A25F5
:1004CC00E02494FAE43408FB90605AE020E2030242
:1004DC0006DB9000E8E493FCA3E493FD906174ECDC
:1004EC00F0A3EDF0C002C003780779847A01120002
:1004FC00B3D003D002A818087600A81808B60200DA
:10050C004003020663C002C0039060B0E0FDA8186F
:10051C0008E675F002A4FEE5F0CE25E0CE33CE253C
:10052C00E0CE33FFEE2470FAEF3425FB7C00C003E1
:10053C00C005C006C007C002C003C0049060AC7503
:10054C00F0001207D4AA82158115811581D007D02D
:10055C0006D005D003EA2D9060B0F09060B2E0FABE
:10056C00EE2460FBEF3425FC7D00C002C006C00702
:10057C00C003C004C0059060A875F0001207D4AB8E
:10058C0082158115811581D007D006D002EB2A90F7
:10059C0060B2F0E0FCA81808E5182406F9E6F7E4C8
:1005AC00C725E0C733C725E0C73309F7E51824068C
:1005BC00F8E624F0FD08E63425FA8D828A83A3A39D
:1005CC00A3A3E02C9060B2F09060B1E0FCEE247438
:1005DC00FDEF3425FA7B00C003C004C006C007C081
:1005EC0005C002C0039060E075F0001207D4AA8227
:1005FC00158115811581D007D006D004D003EA2CC3
:10060C009060B1F09060B3E0FAEE2464FEEF342514
:10061C00FF7B00C002C006C007C0039060DC75F011
:10062C00001207D4AB82158115811581D002EB2AFB
:10063C009060B3F0E0FAE5182406F8E624F0F582B1
:10064C0008E63425F583E02A9060B3F0A818080674
:10065C00D003D0020205069060B2E0FCA81808088E
:10066C00A604087600087600087600A8180808E6A4
:10067C00080808F618181876000876000876009016
:10068C0060A8E0A3E0FDA3E0FEA3E0FF8D048E05CF
:10069C008F067F00A8180808EC46F6ED0846F6EE23
:1006AC000846F6EF0846F68A828B83E493FCA3E4B3
:1006BC0093FDA3E493FEA3E493FFA8180808C3E6F4
:1006CC009C08E69D08E69E08E69F50030204D49021
:1006DC006038E054EFF00207CE906727E0FABA01D9
:1006EC000280030207CE90605AE030E2030207CE8C
:1006FC00902580E054FEF0906038E054F7F0906064
:10070C0038E054EFF0906727E4F0906721E0900018
:10071C005813E092E6F0906722E090005813E092B4
:10072C00E5F0788279A97A021200B390671DE09007
:10073C00006013E092E5F090671EE090005C13E01F
:10074C0092E1F0906724E0902400C454F0F5F0E0BE
:10075C00540F45F0F0906725E0FAA3E0FB740F5AB4
:10076C00902405C454F0F5F0E0540F45F0F0EBC4C0
:10077C00CAC4540F6ACA540FCA6ACA53023F90249F
:10078C0006EA543FF5F0E054C045F0F0906723E0E2
:10079C0090241013E092E4F090679CE09066F7F0E0
:1007AC0075820278F979827A021200B39022307441
:1007BC002BF090604CE020E50978F679957A0112DF
:1007CC0000B3851881D01822C018858118C082C04A
:1007DC0083C0F0E581240BF581A818088682088671
:1007EC00830886F0E5182404F9126E8BF7A3126EB9
:1007FC008B09F7A3126E8B09F7A3126E8B09F7E521
:10080C001824FBF886030886040886028B828C83E6
:10081C008AF0E5182408F8126E8BF6A3126E8B087A
:10082C00F6A3126E8B08F6A3126E8B08F6E518244D
:10083C0004F8E5182408F9E726FE09E70836FF094D
:10084C00E70836FA09E70836FBA8180886820886F6
:10085C00830886F0EE126D8DA3EF126D8DA3EA1254
:10086C006D8DA3EB126D8DE5182408F8C3EE96EF91
:10087C000896EA0896EB0896500575820180037578
:10088C008200851881D01822040000002800000086
:10089C0087010000430F000096980000E2F5050068
:1008AC00CB9A3B00E50B5402E876481711A5D4E827
:1008BC007A0E7B00000000000000000000001ABA55
:1008CC00FF011BEA4B60030208C02290223374FF25
:1008DC00F090220BE0547FF075F70175F70122C000
:1008EC00E0C082C083C0D075D010C2AF90223374E8
:1008FC00F0F0C28DC28C90223374FFF0D2AFD0D006
:10090C00D083D082D0E032C0D075D010C2AFC28EAE
:10091C00C28FD203D2AFD0D032C0E0C082C083C06D
:10092C00D075D010C2AF90223374F2F075C878C273
:10093C00C6D204906033E020E5030209E3200603ED
:10094C000209E39066CCE0FA70030209E3902603F7
:10095C00E020E410902600E0547FF0902601E04463
:10096C0001F08032902609E0FA20E71C90A316E0F3
:10097C005407FABA03028010902600E04480F090ED
:10098C002601E04401F0800E902600E04480F090B7
:10099C002601E054FEF0902603E020E71C9021266F
:1009AC00E020E215906083E04480F0902600E05453
:1009BC007FF0902601E054FEF0906083E04440F01C
:1009CC00906083E04402F0902603E04408F09060CD
:1009DC0083E04408F0802D902603E020E0263007C9
:1009EC00239066CCE0FA601C902602E04480F090E4
:1009FC006083E04401F0906083E04410F0906083E9
:100A0C00E04420F090223374FFF0D2AFD0D0D083EA
:100A1C00D082D0E032C0E0C082C083C0D075D0108C
:100A2C00902233740DF074FFF0D0D0D083D082D0EC
:100A3C00E032C0E0C082C083C0D075D010C2AF908D
:100A4C0022337403F090201BE030E10890205374A3
:100A5C0002F0E4F090201BE030E236902053740456
:100A6C00F0E4F090A31BE020E527902007E020E5C0
:100A7C0020902200E0FA90E650E0FBEAB5131290C9
:100A8C00A34E740EF0740CF07408F0E4F09022365F
:100A9C00F090223374FFF0D2AFD0D0D083D082D07C
:100AAC00E032C0D075D010D0D032C0D075D010D0BC
:100ABC00D032C0E0C082C083C0D075D0107A00C2E2
:100ACC00AF9022337409F090201BE030E01090229C
:100ADC0000E0FB90E650E0FCEBB514027A019020AC
:100AEC001BE0FB54E17003020C8B90205374FBF061
:100AFC00E4F090662BE0FB600B90223374FFF0D295
:100B0C00AF020C93902230E0FBBB1A028012BB1D8B
:100B1C00028046BB2F028008BB30028003020BE12F
:100B2C00902007E0C4035401FBBB010B90223674E8
:100B3C0001F0D205020C8BEA7003020C8B9022316F
:100B4C00741AF090223374FFF090220BE0547FF073
:100B5C0075F70175F701020C8B902007E020E52C4E
:100B6C00902231741AF0902236E4F0902002E05476
:100B7C00FBF0902102E054BFF090223374FFF09010
:100B8C00220BE0547FF075F70175F701902007E018
:100B9C0020E41E902002E054FBF0902002E054FB75
:100BAC00F0902002E054FBF0902003E054BFF08062
:100BBC000E902003E04440F0902002E04404F090BA
:100BCC002102E003035401FABA01028003020C8BE8
:100BDC00D205020C8B902007E020E52A902231747C
:100BEC001AF0902002E054FBF0902102E054BFF088
:100BFC0090223374FFF090220BE0547FF075F701D4
:100C0C0075F701020C8B902007E020E41E90200267
:100C1C00E054FBF0902002E054FBF0902002E054F2
:100C2C00FBF0902003E054BFF0800E902003E044D2
:100C3C0040F0902002E04404F0902102E020E227F2
:100C4C0090E604E020E720902102E054BFF09022CF
:100C5C0031741DF090223374FFF090220BE0547F1E
:100C6C00F075F70175F701902102E020E21190E692
:100C7C0004E0235401FABA010690223A7401F09070
:100C8C00223374FFF0D2AFD0D0D083D082D0E032F8
:100C9C00C0E0C082C083C0D075D010C2AF902233E8
:100CAC007402F090202BE030E60F9020577440F047
:100CBC00E4F0902102E054BFF090202BE030E70FDD
:100CCC009020577480F0E4F0902002E054FBF090F8
:100CDC002053E04408F0E054F7F090A316E05407DA
:100CEC00FABA040E902003E04404F0902003E04490
:100CFC0001F090214CE030E03F902003E030E638EA
:100D0C0090A316E05407FABA04159022317403F03C
:100D1C00902238E0FA431201902238EAF0800690D3
:100D2C0022317419F090223374FFF090220BE054AE
:100D3C007FF075F70175F70190223374FFF0D2AF95
:100D4C00D0D0D083D082D0E032C0E0C082C083C08B
:100D5C00D075D010C2AFC29E902233740BF0902687
:100D6C0020E020E003020DE79026447401F0E4F04B
:100D7C00A207E433FA9022B4EAF0902002E030E2C9
:100D8C005A200724902601E030E550902603E044D9
:100D9C0004F0D2079066CCE4F0C20375C860C2C6FA
:100DAC009022317428F08033902231E0FABA291065
:100DBC00C207902603E054FEF0902603E054FBF0AB
:100DCC00902231742AF0D29E90223374FFF090223C
:100DDC000BE0547FF075F70175F701902143E0307B
:100DEC00E52B90215BE04420F0E054DFF0902603EB
:100DFC00E020E719902601E030E612902126E02051
:100E0C00E20B902274E054F7F0E04408F0902233A7
:100E1C0074FFF0D29ED2AFD0D0D083D082D0E0324B
:100E2C00C0E0C082C083C0D075D010C2AF90223356
:100E3C007405F09026447402F0E4F0A206E433FA50
:100E4C009022B4EAF0902601E020E603020F8F30E6
:100E5C000603020F8F90A316E05407FABA0402801F
:100E6C0003020EE3902302E023235403906600F068
:100E7C00902303E0540F906601F0902303E0235479
:100E8C0001906602F0902300E0C45403FABA0114F6
:100E9C00902302E0543F4480F0902303E054F0444C
:100EAC0004F08033902300E0C45403FABA02289073
:100EBC002200E07012902302E044C0F0902303E083
:100ECC0054F04404F08010902302E0543FF090233F
:100EDC0003E054F04405F0902603E04402F0902225
:100EEC00317428F0D20690A316E05407FABA030224
:100EFC008007902636E04480F0906711E4F0C2033E
:100F0C0075C860C2C6902250E054DFF09066CCE405
:100F1C00F0902143E054DFF0902143E054BFF09077
:100F2C0022D8E04408F0E054F7F0902603E030E7D4
:100F3C0009902604E4F0A3F0803B9067107401F054
:100F4C0090A316E05407FABA0410902604E4F0A318
:100F5C00F0902606E4F0A3F08010902604E4F0A3B1
:100F6C007440F0902606E4F0A3F0902602E0444092
:100F7C00F0E054BFF0902602E04420F0E054DFF0A3
:100F8C0002106A902601E030E63130062E902603DE
:100F9C00E0C45401FABA01239022317428F090670E
:100FAC0011E4F0C20375C860C2C6902600E054FB81
:100FBC00F0902603E054EFF002106A902601E02036
:100FCC00E644300641902603E020E43A902231E0DA
:100FDC00FABA2A17C206902600E054FBF0902603BA
:100FEC00E054EFF0902603E054FDF0902231742988
:100FFC00F090223374FFF090220BE0547FF075F7E1
:10100C000175F7018058902601E030E65130064E0C
:10101C00906711E4F0C20375C860C2C6902250E01C
:10102C0054DFF0902274E054F7F0902600E054FB6B
:10103C00F0902603E054EFF0902603E054FDF0907E
:10104C0067107401F09022317429F090223374FFF0
:10105C00F090220BE0547FF075F70175F7019022A8
:10106C003374FFF0D2AFD0D0D083D082D0E032C076
:10107C00E0C082C083C0D075D010C2AF902102E016
:10108C0054F7F0902233740AF090223AE0600E90FC
:10109C00223AE4F0902102E04408F08008D2089053
:1010AC002231742CF090223374FFF0D2AFD0D0D018
:1010BC0083D082D0E032C025C0E0C0F0C082C083B3
:1010CC00C0D075D010C018858118058105810581A7
:1010DC007A00C2AF9022337407F0902621E020E111
:1010EC00030216E8902645E04402F0E054FDF0D2ED
:1010FC00AF902603E020E10A902600E020E00302F6
:10110C0016E890260BE0FB90260AE0FC90260AE0FD
:10111C00A3E0902609E0FD902608E0A3E030060E3F
:10112C00902601E023235401FEBE0102801F200AF9
:10113C00030216E8902601E030E6030216E890263A
:10114C0000E05401FEBE010280030216E8C012EC5E
:10115C00C4540FFE531603EC0303543FFFA81808A6
:10116C0074035FF6A818080874035CF67F0090A35C
:10117C0016E05407FABA04028004D0128038D01258
:10118C00C016EBC4540FFEE5182403F874035EF686
:10119C00E5182403F8E6D01630E009E5182403F826
:1011AC0076048039E5182403F8E630E130E518249C
:1011BC0003F876058027EB54E06013C01774E05BEE
:1011CC00FFBFE005D0170216E8D01702168CEB0310
:1011DC0003543FFBE5182403F874035BF6E518246D
:1011EC0003F8E670030212CDED30E7030216E8EDCA
:1011FC0030E60F90A316E05407FBBB0402800302F9
:10120C0016E89067A6E0FB600302168CE518240331
:10121C00F8E625E0FA24B0F582E434E6F583E0FB49
:10122C00902634EBF0EA24B0FAE434E6FB8A828BA5
:10123C0083A3E0FB902635EBF0902634E0C4540FEA
:10124C00FA90600FE0540FFBEAB5130040047F20C6
:10125C00800E902634E054F070047F3080027F10B2
:10126C00C017902635E0C4540FFB90600EE0540F6D
:10127C00FFEBB51700D017400543170880109026D8
:10128C0035E054F0700543170C8003431704C01766
:10129C00902635E0540FFB90600FE0C4540FFFEB29
:1012AC00B51700D017400643170202168C9026354E
:1012BC00E0540F700643170302168C4317010216F5
:1012CC008CE5182403F8743F5CF6E5182403F8E663
:1012DC00700302168C7B00BB0B005014EB9018EFC4
:1012EC0093FCE5182403F8E6B5140280030B80E7A1
:1012FC00BB0B00400302168CED30E7030216E8ED41
:10130C0030E60F90A316E05407FBBB0402800302E7
:10131C0016E89067A6E0FB60030215A2902635E064
:10132C00C4540FFB90600EE0540FFCEBB51400920C
:10133C0028B39217902635E0C4540FFBB4010092E9
:10134C0018902635E0540FFB90600FE0C4540FFC4E
:10135C00EBB514009228B39219902635E0540FFB8C
:10136C00B40100921A902634E0C4540FFB90600F25
:10137C00E0540FFCEBB514009228B3921B9026346A
:10138C00E0C4540FFBB40100921CE5182403F8B61A
:10139C0001030214FBE5182403F8B602030214C17E
:1013AC00E5182403F8B604030214A0E5182403F886
:1013BC00B605028060E5182403F8B6080302147F12
:1013CC00E5182403F8B60A02802DE5182403F8B6B4
:1013DC00100302156CE5182403F8B614028074E5AA
:1013EC00182403F8B62003021534E5182403F8B6C4
:1013FC002802803F0215A2201916902635E0540FC2
:10140C00FB0B902635EB540FF5F0E054F045F0F063
:10141C007A010215A2201A16902635E0540FFB1BF8
:10142C00902635EB540FF5F0E054F045F0F07A01CE
:10143C000215A2201B18902634E0C4540FFB0B900D
:10144C002634EBC454F0F5F0E0540F45F0F07A027A
:10145C000215A2201C18902634E0C4540FFB1B90DC
:10146C002634EBC454F0F5F0E0540F45F0F07A025A
:10147C000215A23017030215A2902635E0C4540FB2
:10148C00FB0B902635EBC454F0F5F0E0540F45F00F
:10149C00F00215A23018030215A2902635E0C454B0
:1014AC000FFB1B902635EBC454F0F5F0E0540F45C0
:1014BC00F0F00215A23019030215A220181890267C
:1014CC0035E0C4540FFB1B902635EBC454F0F5F0FB
:1014DC00E0540F45F0F0902635E0540FFB0B9026AE
:1014EC0035EB540FF5F0E054F045F0F00215A23056
:1014FC001A030215A2201718902635E0C4540FFBCE
:10150C000B902635EBC454F0F5F0E0540F45F0F099
:10151C00902635E0540FFB1B902635EB540FF5F05D
:10152C00E054F045F0F0806E201B6B902634E0C444
:10153C00540FFB0B902634EBC454F0F5F0E0540F31
:10154C0045F0F0201850902635E0C4540FFB1B904A
:10155C002635EBC454F0F5F0E0540F45F0F080362E
:10156C00201C33902634E0C4540FFB1B902634EB24
:10157C00C454F0F5F0E0540F45F0F0201718902605
:10158C0035E0C4540FFB0B902635EBC454F0F5F04A
:10159C00E0540F45F0F0902635E0C4540FFB9060FA
:1015AC000EE0540FFCEBB514009228B39217902662
:1015BC0035E0C4540FFBB401009218902635E0546A
:1015CC000FFB90600FE0C4540FFCEBB51400922895
:1015DC00B39219902635E0540FFBB40100921A9087
:1015EC002634E0C4540FFB90600FE0540FFCEBB5B5
:1015FC0014009228B3921B902634E0C4540FFBB411
:10160C000100921CBE010B301C047F3080107F1037
:10161C00800CBE0209301B047F2080027F10EA7010
:10162C0024A81808B6010D30180543170C80164372
:10163C0017048011A81808B6020B301705431708B9
:10164C008003431704A8180808B6010D301A054387
:10165C00170380174317018012A8180808B6020B4D
:10166C003019054317028003431701BA0107EF2F06
:10167C0025E0FB4217BA0208EF0303543FFA421766
:10168C007A00902604EFF0A3EAF0902603E020E71E
:10169C0040200A3D906711E0FA600F902605E0FAB1
:1016AC00431280902605EAF08027906710E0FA60DC
:1016BC002090A316E05407FAC374818AF063F0807B
:1016CC0095F0400D902605E0FA431240902605EA6D
:1016DC00F0902602E04420F0E054DFF090223374C6
:1016EC00FFF0D2AF851881D018D0D0D083D082D063
:1016FC00F0D0E0D02532C0D075D010C2AFD2AFD070
:10170C00D032C0E0C082C083C0D075D010C2AFC28E
:10171C009F902233740CF0902143E030E62090210E
:10172C005BE04440F0E054BFF0902601E030E60E60
:10173C00902126E030E207902274E054F7F09022DA
:10174C003374FFF0D29FD2AFD0D0D083D082D0E010
:10175C0032C0E0C0F0C082C083C0D075D010C2AF20
:10176C00D2BB9022337404F0902288E030E3609076
:10177C0022D8E04408F0E054F7F0906033E030E415
:10178C004E30064B9066CCE0FA6044902603E02085
:10179C00E73D902126E020E23690A316E05407FAAC
:1017AC00C374818AF063F08095F04015906083E0FB
:1017BC004480F0902600E0547FF0902601E054FE27
:1017CC00F0902603E04408F0906083E04440F090F1
:1017DC002288E030E5199022D8E04420F0E054DF74
:1017EC00F09022E4E020E007906033E054FEF090AB
:1017FC00A2E4E020E2030218C490A2F4E04404F056
:10180C00E054FBF090A2FCE0700890A2FAE4F00225
:10181C0018AE902007E020E50D90A2FCE0FA90A213
:10182C00FAEAF00218AE90A2FCE0FABA020790A312
:10183C001BE020E25B90A2FCE0FABA030790A34FF6
:10184C00E020E04C90A2FCE0FABA040790A319E067
:10185C0020E63D90A2FCE0FABA050790A34EE020EA
:10186C00E52E90A2FCE0FABA0608902238E0FA20A5
:10187C00E11E90A2FCE0FABA07079067BAE0FA7092
:10188C000F90A2FCE0FABA08139067BAE0FA700C59
:10189C0090A2FCE0FA90A2FAEAF0800690A2FA7408
:1018AC0001F090A2FCE0600990A2FBE04401F08002
:1018BC000790A2FBE054FEF090223374FFF0D2BBF1
:1018CC00D2AFD0D0D083D082D0F0D0E032C0D0759F
:1018DC00D010C2AF10980280001099028000D2AFD5
:0E18EC00D0D032000405080A14280201201092
:060000000200C8020A2103
:03000B000208EBFD
:03001300020AAE30
:03001B00020913C4
:030023000218D9E7
:03002B00020925A2
:01003300329A
:01003B003292
:030043000210C2E6
:03004B00020C9C08
:03005300020A3E60
:03005B0002175D2C
:03006300020E2C5E
:03006B0002170277
:01007300325A
:01007B003252
:01008300324A
:03008B00020AB6B0
:03009300020ABEA0
:03009B0002107BD5
:0300A300020D55F6
:0300AB0002170E2B
:0300DB000200AE72
:0500AE001218FE80FEA7
:1018FA0090000122758E00C2AF120119902231E0C8
:10190A00902230F0902231E4F0902234F090E649AF
:10191A00E0035401FA9067B8F090A320E030E6792A
:10192A0090223CE0FA530201BA015090A318E04415
:10193A0020F090662B7401F078F179B77A011200E1
:10194A00B3782D79C87A021200B390E649E04402CE
:10195A00F090E651E4F090E652F090A02FE054EFB8
:10196A00F090A02FE054DFF090A327E054F7F09016
:10197A00E62EE030E6059060CDE4F0902200E0FA31
:10198A0090E650E0FBEAB5030B90A320E04480F018
:10199A00E0547FF0902230E4F090223CE0FA4302D7
:1019AA000190223CEAF0902230E07014782079B05D
:1019BA007A011200B3788679E27A011200B38009BB
:1019CA00786479D37A011200B390662BE0FA700931
:1019DA0090220BE04480F0D2AF902230E0FABA03B2
:1019EA00028069BA1902802EBA1A02802EBA1D0222
:1019FA00803FBA2703021A7FBA2802803FBA290217
:101A0A00803ABA2A028035BA2B02804BBA2C02805D
:101A1A0030BA2F6180101252F9805A785679E77AD3
:101A2A00011200B3804F78EE79E77A011200B38091
:101A3A0044785879EA7A011200B380391226018073
:101A4A0034780C79B97A011200B38029788279C680
:101A5A007A011200B3801E781679CE7A011200B389
:101A6A00902231E0700F78D579977A011200B390FD
:101A7A002230742BF0902033E0C4540FFA9067C3DD
:101A8A00E0FBEAB50302803790214CE030E0309069
:101A9A002003E030E62990A316E05407FABA0416A8
:101AAA009022307403F0902238E0FA430201902227
:101ABA0038EAF00219E39022307419F00219E3208F
:101ACA00080790201BE030E34890223AE060399002
:101ADA002102E054F7F0902053E04408F0E054F774
:101AEA00F090A316E05407FABA030C900064788ABF
:101AFA0079B57A021200B390223AE4F0C208902132
:101B0A0002E04408F0021B9A902230742CF0021B67
:101B1A009AA206720750089022307428F080712029
:101B2A000618902601E030E6119022B47498F078F5
:101B3A008079C57A011200B3805620072A902601BF
:101B4A00E030E5239022B47499F0C2AF9026447431
:101B5A0001F0E4F09022307428F0902603E0440467
:101B6A00F0D207D2AF80299025F5E030E00F9067D8
:101B7A0014E0FA6008902230743BF0801390E60873
:101B8A00E030E00C9022307403F09067B17401F0F9
:101B9A0090603AE023235401FABA0103123BB99048
:101BAA002231E06013902231E0FA902230F0902244
:101BBA0031E4F0C2050219E312021C78D079A37A43
:101BCA00011200B3906098E05401FABA01031200BE
:101BDA00FA902297E0235401FAB40100E433FA9010
:0A1BEA00229713E092E7F00219E3DE
:0502000030170C0002A4
:101BF400AA829066F8E0FBEAB50301229066F8EA4F
:101C0400F07403B50200500122EA2A2A901C1473CE
:101C1400021C20021C36021C56021C69900058E06B
:101C240054DFF0900058E054BFF0900058E054EFB7
:101C3400F022A20DE43390005813E092E5F0A20CD8
:101C4400E43390005813E092E6F0900058E054EF2B
:101C5400F022900058E04420F0900058E04440F016
:101C6400E054EFF022900058E054DFF0900058E088
:101C740054BFF0E04410F022906662E0FA9066618E
:101C8400E0FBC0028B82121C90158122C018858152
:101C94001805810581AA8290604FE030E703021E97
:101CA4002B906799EAF0E51824FDF8860390679A6B
:101CB400EBF090600AE054DFF09066F8E0FC7027E7
:101CC400906046E0C39AC39BFDA81808A6059060DF
:101CD40045E0FE900028E003547FFFC003EEC39F5D
:101CE400FEFDD003021DC6BC016B9067A7E0FE5346
:101CF4000601BE0030900058E0C4035401FE900079
:101D040058E023235401FFEEB507028018906715AD
:101D1400E0FE7011C002C003788779A47A01120032
:101D2400B3D003D002906046E0C39AFEA81808A678
:101D340006906045E0FEC002EBFF3395E0EEC39FE2
:101D4400FE900028E003547FFA7F00EEC39AFEFD64
:101D5400D002021DC6BC0232906046E0FEA81808FC
:101D6400A606906045E0FEEAFF3395E0EEC39FFED1
:101D7400EBFD3395E0EEC39DFE900028E003547F15
:101D8400FD7F00EEC39DFEFD8038BC0335906046A8
:101D9400E0FCA81808A604906045E0FC906796E073
:101DA400FDEAFE3395E0EE2DFDEBFE3395E0FFEE0C
:101DB4002D2CFC900028E003547FFD7E00ECC39D95
:101DC400FCFDA81808C3E6648094C04007A818085E
:101DD400E624C0F6A818088682C002C003C0051213
:101DE4001F63D005D003D002C3ED648094C64006BF
:101DF400ED2480FD800CC3ED6480943A500474801B
:101E04002DFDEDFC3395E0FD8C828D83C002C00373
:101E140012201FD003D002C0038A82121E31158102
:101E240090600AE04420F0851881D01822C01885FB
:101E34008118AA829066F8E0FB7403B5030050038E
:101E4400021F60EB2B2B901E4E73021E5A021E5A69
:101E5400021E85021EF1900038E00303543FFBC3C9
:101E640074A28BF063F08095F0500A900224E05441
:101E7400F3F0021F60900224E054F34404F0021FC4
:101E840060E51824FDF8E62AFB9020A9E493FCC33E
:101E9400EB64808CF063F08095F0500A900224E0AB
:101EA40054F3F0021F609020AAE493FCC3EB648017
:101EB4008CF063F08095F0500C900224E054F344CD
:101EC40004F0021F609020ABE493FCC3EB64808CAD
:101ED400F063F08095F0500C900224E054F3440831
:101EE400F0021F60900224E0440CF0806F9067962B
:101EF400E0FCEA2CFAE51824FDF8E62AFB9020AC75
:101F0400E493FAC3EB64808AF063F08095F050099F
:101F1400900224E054F3F080439020ADE493FAC39C
:101F2400EB64808AF063F08095F0500B900224E01B
:101F340054F34404F080259020AEE493FAC3EB6498
:101F4400808AF063F08095F0500B900224E054F303
:101F54004408F08007900224E0440CF0D01822C01A
:101F64001885811805810581AA82900038E0030351
:101F7400543FFBC003740CC0E0743AC0E08A82781A
:101F8400C379B97A021200B3AA8215811581D003EC
:101F9400EBB50203022019EAFC3395E0FDEC24FEC4
:101FA400FEED34FFFFA81808A603EB3395E008F60E
:101FB400A81808C3E69E08E664808FF063F0809555
:101FC400F050040B0B802074022CFCE43DFDA81897
:101FD40008C3EC96ED64800886F063F08095F050B9
:101FE400041B1B80028A03900038EB2B25E054FC71
:101FF400F5F0E0540345F0F0C002C003786479B909
:102004007A021200B3783979807A011200B3D003CE
:10201400D002021F94851881D01822AA82AB83EAC9
:102024004B700122900028E003547FFC7D00C3EA3A
:102034009402EB648094804011EA24FEFAEB34FFAE
:10204400FB74022CFCE43DFD802AC374FE9A747F69
:102054008BF063F08095F0401174022AFAE43BFBA4
:10206400EC24FEFCED34FFFD800AEA2CFCEB3DFD84
:102074007A007B0053047F900028EC2C54FEF5F08A
:10208400E0540145F0F0C002C003786479B97A02E3
:102094001200B3D003D002900028E04401F0E054D1
:0B20A400FEF0022023FD111E192D3A52
:020000040001F9
:10A487007A1C7B02758201C002C003785879957ADD
:10A49700011200B3D003D002902405E054FDF090E0
:10A4A7006795E0FC900228E003035407FDC364802E
:10A4B700948640067C017A887B13906039E4F0909B
:10A4C70000E8E493FDA3E493FE906174EDF0A3EE3E
:10A4D700F0C002C003C004780779847A011200B380
:10A4E700D004D003D002906170E07043FDFEC0023B
:10A4F700C0038C077A00C3ED9FEE9AD003D00250B9
:10A5070021900040C002C003C004C005C00612204D
:10A517001FD006D005D004D003D0020DBD00CF0E4A
:10A5270080CC8A058B061ABAFF011BED4E709090FE
:10A537006170E0FABA0103D38001C3B39228E43310
:10A5470090604E13E092E5F0900228E00303540771
:10A55700FAC364809486500302A700906170E0FA02
:10A56700BA0102800302A7007A017B00C3EA9401C3
:10A57700EB9404503690FFFFC002C00312201F90D7
:10A5870000E8E493FCA3E493FD906174ECF0A3ED81
:10A59700F0780779847A011200B3D003D002906172
:10A5A70070E060070ABA00C40B80C18A048B057E7D
:10A5B700017F00C3EE9CEF9D5060C002C003900076
:10A5C70001C002C003C004C005C006C00712201F97
:10A5D700D007D006D005D004D003D0029000E8E41D
:10A5E70093FAA3E493FB906174EAF0A3EBF0C00243
:10A5F700C003C004C005C006C007780779847A0184
:10A607001200B3D007D006D005D004D003D0020E75
:10A61700BE00010FD003D00280997C017D00C3ECFE
:10A627009401ED9404503E900001C002C003C004A1
:10A63700C00512201F9000E8E493FEA3E493FF9067
:10A647006174EEF0A3EFF0780779847A011200B312
:10A65700D005D004D003D002906170E060070CBC35
:10A6670000BC0D80B9EC2AFAED3BFB7402C0E0E4B4
:10A67700C0E08A828B83126F17AA82AB831581157C
:10A68700817C017D00C3EC9AED9B503890FFFFC0A1
:10A6970002C003C004C00512201F9000E8E493FE27
:10A6A700A3E493FF906174EEF0A3EFF07807798449
:10A6B7007A011200B3D005D004D003D0020CBC003D
:10A6C700C40D80C19000E8E493FAA3E493FB906182
:10A6D70074EAF0A3EBF0780779847A011200B3905B
:10A6E7006170E0FABA0103D38001C3B39228E4335F
:10A6F700FA90604E13E092E5F00200C5906663E0C1
:10A70700FABA0500500C90665FE0FA743FB5020094
:10A7170050028064788279A77A011200B39060A012
:10A72700E030E609780779A87A011200B39060381B
:10A73700E030E0207A018A031AC374808BF063F05B
:10A747008095F0500FC002787979A97A011200B389
:10A75700D00280E2783679AC7A011200B390604774
:10A76700E030E014906090E0906661F0121C7C7815
:10A777000A79987A011200B30200C578C379AC7AD6
:10A78700011200B39066B1E4F09066B2F09066BC37
:10A79700F0906661E0FA9066B7F09066B3E0FB90E0
:10A7A70066B9F0906663E0FC9066B8F09066B6EA2A
:10A7B700F09066B5EBF09066B4ECF09066F8E0FACE
:10A7C700B40100E433FB7009BA010280047C008005
:10A7D700027C01EC60047CE480027CC49066BAECE5
:10A7E700F0EB7009BA010280047A0080027A01EA6C
:10A7F70060047A1280027A3C9066BBEAF00200C5D8
:10A807009066B2E070509066B1E0FA9060A5E0C43F
:10A81700540FFBC3EA64808BF063F08095F0501E01
:10A82700906661E0FA9066BAE0FBC364808AF063E1
:10A83700F08095F050089066BCE0FABA011890666F
:10A84700B27401F09066B1E4F09066BCF09066B720
:10A85700E0FA906661F09066B1E0FA9060A5E0C416
:10A86700540FFBC3EA64808BF063F08095F0501DB2
:10A87700906661E0FA9066BBE0FBC3EA64808BF008
:10A8870063F08095F050069066BCE0600B9066B26E
:10A89700E0FABA010302A9769066B2E0700E9066FC
:10A8A70061E0FA1A1A906661EAF0800C906661E03E
:10A8B700FA0A0A906661EAF09066BAE0FA9066BB17
:10A8C700E0FB906661E0FCC002C0038C8278C3792C
:10A8D700B97A021200B3AA8215811581906661EADE
:10A8E700F09066B1E0FA0A9066B1EAF0780A7998D2
:10A8F7007A011200B378C379AC7A011200B390667B
:10A90700B3E0FA9066B5E0FB7C0024FBFDEC34FF76
:10A91700FE8A077800C3EF9DE864808EF063F080BD
:10A9270095F040047D0080027D019066BCEDF090BB
:10A937006663E0FD9066B4E0FEB50500401BEDB52B
:10A947000602800302A807C3EB9FEC648088F063CC
:10A95700F08095F0400302A807906661E0FB9066DF
:10A96700B6F09066B5EAF09066B4EDF002A807027B
:10A9770000C59066B2E4F09066BCF09066B6E090D1
:10A987006661F0780A79987A011200B378C379ACD6
:10A997007A011200B39066B3E0FA9066B5F090665C
:10A9A70063E0FB9066B4F09066B6E0FC9066B7F0A3
:10A9B7009066B8EBF09066B9EAF09066BDECF0905F
:10A9C70066BEECF0906098E030E5069067937401FE
:10A9D700F09066BCE07016906661E0FA9066BAE0A7
:10A9E700FBC364808AF063F08095F040389066B2CC
:10A9F700E070329066B27401F09066B1E4F0906650
:10AA0700BCF09066B7E0906661F0906793E4F078E9
:10AA17000A79987A011200B3906098E030E50690C1
:10AA270067937401F09066BCE07017906661E0FA76
:10AA37009066BBE0FBC3EA64808BF063F08095F01F
:10AA4700400B9066B2E0FABA010302ABCF9066B250
:10AA5700E0FABA010E906661E0FA0A0A906661EAC6
:10AA6700F0800C906661E0FA1A1A906661EAF0903D
:10AA770066BAE0FA9066BBE0FB906661E0FCC00254
:10AA8700C0038C8278C379B97A021200B3AA8215FF
:10AA9700811581906661EAF0780A79987A01120047
:10AAA700B378C379AC7A011200B39066B5E0FA9037
:10AAB7006052E0C4540FFB7C007D00C002C004C09C
:10AAC70003C0058A828C83126DA6AB82AD83158184
:10AAD7001581D004D002EDC4CBC4540F6BCB540FF7
:10AAE700CB6BCB30E30244F0906052E0540F2BFB6A
:10AAF700906053E0C4540FFD7E00C003C005C0063C
:10AB07008A828C83126DA6AA82AC8315811581D0A7
:10AB170003ECC4CAC4540F6ACA540FCA6ACA30E3E2
:10AB27000244F0906053E0540F2AFA9066B2E0FCBA
:10AB37006002801B9066B3E0FD7E00EB3395E0FF7B
:10AB4700C3ED9BEE64808FF063F08095F040047B4B
:10AB57000080027B01EB702ABC011B9066B3E0FB0F
:10AB67007D00EA3395E0FEC3EB9AED64808EF063D7
:10AB7700F08095F040047A0080027A01EA7003FAC7
:10AB870080027A01EA700B9066B3E0FA60047A00FB
:10AB970080027A019066BCEAF0E0700FEC700C90CE
:10ABA7006661E0FA9066BDF002A9D89066BCE060E5
:10ABB7000302A9D8BC0102800302A9D8906661E00C
:10ABC700FA9066BEF002A9D89066BDE0FA3395E028
:10ABD700FB9066BEE0FC3395E0FDEC2AFAED3BA264
:10ABE700E713CA13CA9066B6EAF09066BAE0FB901C
:10ABF70066BBE0FCC003C0048A8278C379B97A02D5
:10AC07001200B3AA82158115819066B6EAF09066A4
:10AC1700BDE0FA906073EAF09066BEE0FA90607269
:10AC2700EAF09066B6E0FA906094EAF00200C59008
:10AC370066B6E0FA9066CBE02A906661F0780A790A
:10AC4700987A011200B378C379AC7A011200B390F5
:10AC57006663E0FA9066B8E0FBEAB50300402AEACB
:10AC6700B503239066B3E0FB9066B9E07D0024F856
:10AC7700FCED34FFFD7E00C3EB9CEE64808DF0633A
:10AC8700F08095F04003EA70309066B7E090666117
:10AC9700F0780A79987A011200B3906047E020E2D1
:10ACA7000F9066B8E0FA906663E0FBB502005009C2
:10ACB7009066B8E0FA906663F00200C5906655E0CA
:10ACC700600B90665FE0FA9066B3F080059066B31C
:10ACD700E4F00200C5C0188581180581058105814A
:10ACE70090E607E030E20302AFF590608EE030E0D7
:10ACF700069067947401F07A007B007C01C002C063
:10AD070003C00478FD79AF7A011200B3AD82D00495
:10AD1700D003D002EDFE3395E0FFEE2AFAEF3BFBBE
:10AD27008C060CBE100040D5EBC4CAC4540F6ACAC7
:10AD3700540FCA6ACA30E30244F09066F8E0FBB4E5
:10AD47000100E433FC7009BB010280047E0080022D
:10AD57007E01EE60047EE480027EC49066BAEEF067
:10AD6700EC7009BB010280047B0080027B01EB6071
:10AD7700047B1280027B3C9066BBEBF0758200C0BF
:10AD870002121BF4D20DD20C906661E0FB9066B7FD
:10AD9700F09066BAE0FC9066BBE0FEC004C0068B8C
:10ADA7008278C379B97A021200B3AB821581158113
:10ADB7009066F9EBF0906662E4F0121C7CD002A872
:10ADC7001808087600087600A818087600C00278E8
:10ADD700FD79AF7A011200B3AF82D0028F05C3EDC0
:10ADE70064808AF063F08095F0500CA81808081664
:10ADF700B6FF0208168017C3EA64808DF063F080FF
:10AE070095F0500AA818080806B600020806A81800
:10AE17000808C3E49674800886F063F08095F050C4
:10AE270011A8180808860708E6A2E713CF13CFFE74
:10AE3700802FA818080808E630E722C002A81808DB
:10AE470008E6F4FA08E6F4A2E713CA13CAFBC3E458
:10AE57009AFAE49BFB8A078B06D00280047F007E68
:10AE670000EF4E6052C0028F039066F9E0FC9066D7
:10AE7700F9EB2CF09066F9E0906661F09066BAE025
:10AE8700FB9066BBE0FC906661E0FAC003C0048AF1
:10AE97008278C379B97A021200B3AA821581158123
:10AEA700906661EAF0C002121C7CD002A81808085C
:10AEB7007600087600D002A818088603A8180806A6
:10AEC700BB2000500302ADD4A81808087600087606
:10AED700007B00C002C00378FD79AF7A011200B38E
:10AEE700AC82D003D0028C05C3ED64808AF063F096
:10AEF7008095F0500CA818080816B6FF02081680AF
:10AF070017C3EA64808DF063F08095F0500AA818A3
:10AF1700080806B600020806A8180808C3E49674CD
:10AF2700800886F063F08095F0501CA81808088602
:10AF37000708E6C4CFC4540F6FCF540FCF6FCF307D
:10AF4700E30244F0FE8037A818080808E630E72A2D
:10AF5700A8180808E6F4FC08E6F4FDC4CCC4540FAE
:10AF67006CCC540FCC6CCC30E30244F0FDC3E49CB2
:10AF7700FCE49DFD8C078D0680047F007E00EF4E6C
:10AF870060509066F9E0FC9066F9EF2CF09066F956
:10AF9700E0906661F09066BAE0FC9066BBE0FD90D9
:10AFA7006661E0FEC002C003C004C0058E8278C39C
:10AFB70079B97A021200B3AC821581158190666166
:10AFC700ECF0121C7CD003D002A818080876000801
:10AFD70076008B040BBC8000500302AEDA906794B6
:10AFE700E0FB7005906069EAF0906794E4F08518DB
:10AFF70081D0180200C5780A79987A011200B390B7
:10B007006794E0FA6009906657E0FAF58280079046
:10B017006646E0FAF5820200C59060F8E0FA9022F1
:10B02700B4EAF09060F8E0FABAAAF890E6D4E0FA49
:10B03700BAAAF09060F8E0FA9022B4EAF090E650ED
:10B04700E0FA7401B50200500590E650E4F0902252
:10B0570034E4F0902200E0FA90E650E0FBEAB50312
:10B067000C90A2B4E4F090E605E04402F0C202C2FC
:10B077000EC20F90678EE4F090678F74FFF0C210D6
:10B08700C212C213C214C20CC20DC215C211C20031
:10B09700C201C227C226C224906710E4F090E61EC0
:10B0A70074FFF090E61F74FFF0906792E4F00200DF
:10B0B700C590E650E0FA7401B50200500590E650DD
:10B0C700E4F090A316E05407FABA0302801090A3A5
:10B0D70016E05407FABA050280047A0080027A0162
:10B0E700EA60027401FA906714EAF090E607E0302C
:10B0F700E40D90E606E0FB43033090E606EBF090A4
:10B10700A234E0FB90E606E0420390A234EBF09015
:10B11700A238E0FB90E606E0420390A238EBF090FD
:10B127002210E0035401FB90E606E0035401FCD330
:10B13700EC4B7001C39214902200E0FB90E650E0C4
:10B14700FCEBB504539066257401F090E603E4F038
:10B1570090E602740CF090E6017417F090E6007424
:10B1670030F09022B47460F09022B5E4F09022B6EB
:10B17700740CF09022B77417F09022B87430F090E6
:10B18700A316E05407700B90E60E7432F090E60FAA
:10B19700E4F090A2B774FFF0C2169067B1E4F090A4
:10B1A70067ACF0EA701290605AE04480F090605A01
:10B1B700E04440F0E054DFF0906713E4F09065F668
:10B1C700E090E62B540FF5F0E054F045F0F090676F
:10B1D7001C7401F0906044E0C42354019067A2F00E
:10B1E70090E64EE054FEF090E64FE04401F09060A8
:10B1F700777406F0902037E02354019067B2F090FF
:10B207002107E0235401FA9067B3F09060CDE4F092
:10B217009060CFF09061787420F09061797420F09D
:10B2270090617A7420F090617B7420F0906198743B
:10B2370020F09061997420F090619A7420F09061E9
