:020000040001F9
:10800000900218E04402F090E60AE030E216906038
:1080100014E0FA900030C454F0F5F0E0540F45F04D
:10802000F00281269022307410F0906006E054FB3C
:10803000F0906002E054F7F07A0090002CE04401E8
:10804000F0900030E0540F4480F090000AC002121B
:1080500057C7D0027B007C30C002C003C00478291F
:1080600079817A011200B3AD82D004D003D002BD71
:10807000011A900030E0C4540FFE0E900030EEC4A0
:1080800054F0F5F0E0540F45F0F08018900030E027
:10809000C4540FFE1E900030EEC454F0F5F0E054CE
:1080A0000F45F0F090000AC002C003C004C00512E2
:1080B00057C7D005D004D003D002EA2AFAED420215
:1080C0000BC002C003C004C0038A8278A0799D7AE5
:1080D000021200B31581D004D003D00292285009B7
:1080E000906006E04404F08023900030E0C4540F18
:1080F000FDBD0F028016900030E054F0600E90E657
:1081000049E020E0011CEC600302805890002CE064
:1081100054FEF0900030E0C4540FFA906014F090D8
:108120006002E04408F00200C5902152E054FEF0E5
:10813000E04401F0E054FEF0902150E05401FAF5E3
:10814000820200C57A0090661EE0FBBB312E90666D
:108150001DE0FCBC060E90661E7433F090661FE4B2
:10816000F00281D0BC070890661E7430F0806190E8
:10817000661E7432F090661FE4F08054BB320280B9
:1081800003BB332F90661DE0FCBC061490661E7482
:1081900031F090661D7407F090661F7401F0803016
:1081A00090661EE4F090661DEC04F090661F74016A
:1081B000F0801D90661DE0FCBC070FEB70047A0197
:1081C0008024EB1490661EF0800690661EEB04F08F
:1081D0009022B5E0FBFC1B9022B5EBF07401B504D6
:1081E0000050030281468A820200C57A0090661D13
:1081F000E0FBBB072390661EE0FCBC311390661EBB
:108200007433F090661D7406F090661FE4F0804AA7
:1082100090661EEC04F0804290661EE0FCBC3202C8
:108220008003BC330E90661E7431F090661F74019B
:10823000F08027EC701E7401B503005013EB14900E
:10824000661DF090661E7433F090661FE4F0800A9D
:108250007A01801CEC1490661EF09022B5E0FBFCC5
:108260001B9022B5EBF07401B5040050030281EDC0
:108270008A820200C5AA82AB837C00BC0800502A17
:10828000EC2CFDFE90866C93CEA393FFED90867C44
:1082900093CDA393F8EA5205EB5200EEB50508EF33
:1082A000B50004758201220C80D175820022C0269F
:1082B000E581F5262408F581E5262404F8760008F2
:1082C0007600E5262406F87600900030E003540797
:1082D00090868C9390661DF0900034E00303543F29
:1082E00090661EF0900034E003540190661FF07811
:1082F0002979817A011200B3AD829022B6EDF09017
:108300006008E0FEBE01047E0880027E01A8260807
:108310000876BC0876029022B5EEF030165CED606F
:1083200009906614E02401F08009906614E014902E
:108330006614F0906614E0FC700CFD90E643E0FFDC
:10834000906614F08034C00690E643E0FFE4CF2549
:10835000E0CF33FE7A00C3EC9FEA64808EF063F0D6
:108360008095F0D006400D7D0190E643E0FA9066DE
:1083700014F08006758201028499BD0111C006784F
:108380004479817A011200B3AA82D0068011C00616
:1083900078EB79817A011200B3AB82D0068B02EAC6
:1083A0006003028492C006781A79867A011200B3BB
:1083B000D00630160AE5262406F87601028492C01B
:1083C00006782979817A011200B3AA82D0068A053B
:1083D0009022B6EDF0A82608E6B505028011A82681
:1083E00008A605BE08047E028005BE02027E01E5E5
:1083F000262404F808E618C625E0C63308F68D02E0
:108400007B00E5262404F8EA46F6EB0846F6E52666
:108410002404F8E5262407F9E6F70809E6F77C00C6
:10842000BC0800503BC006EC2CFFFE90866C93CE3F
:10843000A393FAEFFB90867C93CBA393FFE52624CE
:1084400007F8E6520308E65207EEB50306EAB50759
:10845000028004D0068006D0067A0180050C80C018
:108460007A00EA6010E5262406F87601906006E0BE
:108470004408F0801D90E649E020E00AA82608089C
:1084800016B6FF020816A8260808E608466003028A
:108490008316E5262406F88682852681D0260200EA
:1084A000C590A316E05407FABA03079067ADE0FA47
:1084B00080129067ADE0FB7401B5030050047A00B0
:1084C00080028B02902230740FF0900228E00303A8
:1084D0005407FB530304E4BB000104FB906006E077
:1084E00054F7F0906001E054FDF090E60AE00303D9
:1084F0005401FCBC0102800A906003E05401FCBC02
:108500000144EA2AFC24CCFDE43464FEEB2DF58220
:10851000E43EF583E090661EF0EC24D8FDE434647C
:10852000FEEB2DF582E43EF583E0906620F0EC242E
:10853000C0FCE43464FDEB2CF582E43DF583E0FC03
:1085400090661FF0801290661E7431F09066207461
:1085500005F090661F7401F0906620E090868C9381
:1085600090661DF0C002C003781A79867A01120065
:10857000B3D003D002906008E0600302860790E663
:108580000AE030E203028607C002C00378AE7982B7
:108590007A011200B3AC82D003D002906005EC13D4
:1085A000E092E1F0900030E0035407FCEA2433FD50
:1085B000E43466FEEC90868C938D828E83F0EA2AFA
:1085C000FA24CCFCE43464FDEB2CFCE43DFD906625
:1085D0001EE08C828D83F0EA24D8FCE43464FDEB49
:1085E0002CFCE43DFD906620E0FE8C828D83F0EA59
:1085F00024C0FAE43464FCEB2AFBE43CFD90661FE3
:10860000E0FA8B828D83F0906001E04402F090E606
:1086100043E0FA906614F00200C590661EE09000F8
:108620003425E025E054FCF5F0E0540345F0F090EB
:10863000661FE090003413E092E1F090661DE0FACE
:10864000C3136202906620EAF0900030EA2A540ECA
:10865000F5F0E054F145F0F0900034E04401F01200
:1086600058E4900034E054FEF00200C505000A0012
:108670003300CC00C701380E0F0FF0F00F000F00D1
:10868000FF00FF00FF0FFF0FFFFFFFFF00010302CE
:0486900007060405D0
:020000040004F6
:10800000C026858126058105819061707401F090FC
:1080100066F7E0FABA0102800B90E607E00354012C
:10802000FABA01062008030287109060A3E4F090DA
:108030006797E0FA906174E0FBA3E0FCEB20E003BB
:108040000280F9902163E0547FF090240CE0547F8B
:10805000F0902161E054BFF0902102E04420F0E074
:1080600054DFF0C0021258E4D002902161E0444095
:10807000F0758E07902410E04404F0E054FBF07596
:108080008E009022D0E04480F09022D4E04480F032
:108090009022D0E0547FF09022D4E0547FF020086A
:1080A00010758200C0027864798E7A011200B3D014
:1080B00002758200C002789179877A041200B3D0E9
:1080C000029060A0E030E131C00278A7798F7A0198
:1080D0001200B375820078CB798F7A011200B375E4
:1080E000821078CB798F7A011200B375821278CB27
:1080F000798F7A011200B3D002906174E0FBA3E0A3
:10810000FCEB30E124C00274FFC0E0900000785224
:10811000798B7A041200B31581D002902163E04478
:1081200080F090240CE04480F0906174E0FBA3E0C8
:10813000FCEB20E203028235758201C00278B2793D
:10814000887A011200B3758200781879877A041250
:1081500000B3D002906174E0FBA3E0FCEB30E515C6
:10816000C002E4C0E0900A017852798B7A041200D0
:10817000B31581D002758B18758DFCD28EC203C0E9
:10818000027401C0E0900A017852798B7A041200DF
:10819000B31581D002906661E0FBB502028068EB06
:1081A000FC3395E0FDEC24FEFEED34FFFFA826082D
:1081B000A602EA3395E008F6A82608C3E69E08E67C
:1081C00064808FF063F08095F050040A0A80207478
:1081D000022CFCE43DFDA82608C3EC96ED64800863
:1081E00086F063F08095F050041A1A80028B02909A
:1081F0006662E0FBC002C0038A821218231581D098
:108200000220030302817F30030F9060A3E0FA4352
:1082100002029060A3EAF0C203C28EC28F75820090
:1082200078CB798F7A011200B375821078CB798F71
:108230007A011200B3906174E0FAA3E0FBEA20E453
:10824000030283DA902401E054FDF0902401E0540D
:10825000FEF0906174E0FAA3E0FBEA30E534758249
:108260000178B279887A011200B3758200781879A2
:10827000877A041200B390240BE04480F0E054BFEE
:10828000F0E4C0E0900A017852798B7A041200B3CE
:108290001581906174E0FAA3E0FBEA30E643202701
:1082A0001875820178B279887A011200B37582005C
:1082B000781879877A041200B390240BE04480F098
:1082C000E054BFF0902402E04408F0E054FBF07466
:1082D00002C0E0900A017852798B7A041200B3153B
:1082E00081906174E0FAA3E0FBEA30E75A20271896
:1082F00075820078B279887A011200B375820278AB
:108300001879877A041200B390240BE04480F0E0DF
:1083100054BFF0902402E04408F0E054FBF0300831
:10832000147402C0E09000007852798B7A04120035
:10833000B3158180127402C0E09003027852798BE9
:108340007A041200B31581906174E0FAA3E0FB2077
:10835000E0030283DA20271875820078B279887AE0
:10836000011200B3758202781879877A041200B37B
:1083700090240BE0547FF090240BE054BFF0902445
:1083800002E054F7F0902402E054FBF0906715E00F
:10839000FA60147404C0E09002047852798B7A0475
:1083A0001200B3158180127402C0E090020478526A
:1083B000798B7A041200B3158178A7798F7A01122C
:1083C00000B375821078CB798F7A011200B3758271
:1083D0000078CB798F7A011200B3906174E0FAA330
:1083E000E0FB30E170902401E054FDF0902401E0C6
:1083F00054FEF090240BE0547FF0E04440F09024D1
:1084000002E054F7F0E04404F07403C0E0900A0185
:108410007852798B7A041200B3158190240BE054C2
:108420007FF090240BE054BFF0902402E054F7F06A
:10843000902402E054FBF07403C0E09003027852F1
:10844000798B7A041200B3158175821278CB798FFB
:108450007A011200B3906174E0FAA3E0FB30E26DA0
:1084600075820078B279887A011200B37582027839
:108470001879877A041200B3902401E04402F09046
:10848000240BE04480F0E054BFF0E4C0E090080228
:108490007852798B7A041200B3158190240BE05442
:1084A0007FF090240BE054BFF0E4C0E09004047827
:1084B00052798B7A041200B3158175820178CB79D9
:1084C0008F7A011200B3902401E054FDF0906174A2
:1084D000E0FAA3E0FB20E403028656202718758209
:1084E0000078B279887A011200B37582027818791F
:1084F000877A041200B3902404E054BFF090240162
:10850000E04401F07A007B00758202C002C003786B
:1085100064798E7A011200B3D003D00290240BE06C
:108520004480F0E054BFF020271BC002C003E4C029
:10853000E0900A027852798B7A041200B31581D048
:1085400003D0028019C002C003E4C0E090080278A2
:1085500052798B7A041200B31581D003D002902493
:108560000BE0547FF0E04440F020271BC002C00322
:10857000E4C0E09008047852798B7A041200B315B5
:1085800081D003D0028019C002C003E4C0E090068D
:10859000047852798B7A041200B31581D003D0028B
:1085A000EB7016758202C002C00378CB798F7A0116
:1085B0001200B3D003D002802DEA7016758203C07A
:1085C00002C00378CB798F7A011200B3D003D002B6
:1085D0008014758204C002C00378CB798F7A0112AF
:1085E00000B3D003D0029060A0E030E35BEB701FDB
:1085F0007B01906661E0FCC002C003906700E0C0B0
:10860000E08C821218231581D003D002028508EA7B
:10861000701F7A01906661E0FCC002C0039067029F
:10862000E0C0E08C821218231581D003D0020285AD
:1086300008906701E0FA906662F0906661E0FBC026
:10864000028B821218231581902401E054FEF090D1
:108650002404E04440F0906174E0FAA3E0FB20E6DB
:10866000030286F390604FE030E6030286F3902524
:1086700080E04401F090605AE020E22075820178A9
:1086800064798E7A011200B378AC798A7A04120088
:10869000B378DF798D7A011200B3800F906039E0F2
:1086A000F58278DF798D7A011200B3902580E0445D
:1086B00004F0E054FBF090605AE030E21474FFC024
:1086C000E09020087852798B7A041200B3158180EB
:1086D0001274FFC0E0900A057852798B7A04120078
:1086E000B315817868798E7A041200B3AA829061FA
:1086F00070EAF090605AE020E216200813758201BB
:108700007864798E7A011200B3902580E054FEF0EF
:10871000852681D0260200C5AA82BA00028005BA49
:10872000012D8017902405E04408F0902405E044D2
:1087300001F0902405E04402F0803D902405E044DF
:1087400008F0E054FEF0902405E054FDF0802990FC
:108750002405E054F7F0902400E0C4540FFABA0F57
:1087600009902405E054FDF08007902405E04402C0
:10877000F0902405E054FEF00200C5E582FA20E7FF
:108780000674404AFB8005C3E49AFAFB8B82020020
:10879000C5AA82758208C002782179BA7A011200CE
:1087A000B3906024E0F582783179BB7A011200B38E
:1087B000758209782179BA7A011200B3906025E0B8
:1087C000F582783179BB7A011200B3D002EA6008F1
:1087D000BA02028003028928906026E0900224C435
:1087E000235460F5F0E0549F45F0F090601CE0F5F4
:1087F00082C002787B79877A041200B3AB8290241E
:1088000038EB547FF5F0E0548045F0F09061B8EB20
:10881000F090601DE0F582787B79877A041200B3CE
:10882000AC828C03902439EB547FF5F0E054804502
:10883000F0F09061B9EBF090601EE0F582787B7902
:10884000877A041200B3AC828C0390243AEB547FF5
:10885000F5F0E0548045F0F09061BAEBF090601FC5
:10886000E0F582787B79877A041200B3AC828C03BE
:1088700090243BEB547FF5F0E0548045F0F090619C
:10888000BBEBF0906020E0F582787B79877A041268
:1088900000B3AC828C0390243CEB547FF5F0E054A1
:1088A0008045F0F09061BCEBF0906021E0F58278BB
:1088B0007B79877A041200B3AC828C0390243DEB61
:1088C000547FF5F0E0548045F0F09061BDEBF090FE
:1088D0006022E0F582787B79877A041200B3AC825B
:1088E0008C0390243EEB547FF5F0E0548045F0F08B
:1088F0009061BEEBF0906023E0F582787B79877A17
:10890000041200B3AC82D0028C0390243FEB547F5E
:10891000F5F0E0548045F0F09061BFEBF0BA020250
:1089200080030289CB028AA9BA0317906026E0FA75
:10893000900224C4235460F5F0E0549F45F0F00207
:1089400089CB9061B8E0902438547FF5F0E05480F2
:1089500045F0F09061B9E0902439547FF5F0E0548F
:108960008045F0F09061BAE090243A547FF5F0E051
:10897000548045F0F09061BBE090243B547FF5F0CB
:10898000E0548045F0F09061BCE090243C547FF5C9
:10899000F0E0548045F0F09061BDE090243D547FBC
:1089A000F5F0E0548045F0F09061BEE090243E5434
:1089B0007FF5F0E0548045F0F09061BFE0FA90243C
:1089C0003F547FF5F0E0548045F0F0902414E044EB
:1089D00001F0902415E054CF4410F0902438E04486
:1089E00080F0E0547FF090240BE030E5F9902415FE
:1089F000E054CFF0902439E04480F0E0547FF090D0
:108A0000240BE030E5F9902415E04430F090243A4E
:108A1000E04480F0E0547FF090240BE030E5F990E2
:108A20002415E054CF4420F090243BE04480F0E053
:108A3000547FF090240BE030E5F9902415E054CFFA
:108A40004410F090243CE04480F0E0547FF0902407
:108A50000BE030E5F9902415E054CFF090243DE090
:108A60004480F0E0547FF090240BE030E5F990244E
:108A700015E04430F090243EE04480F0E0547FF074
:108A800090240BE030E5F9902415E054CF4420F019
:108A900090243FE04480F0E0547FF090240BE030DD
:108AA000E5F9902414E054FEF00200C5906158E00E
:108AB000FA906159E0FBC0038A82125914AB821507
:108AC000818B0290615AE0FBC0038A82125914AB79
:108AD0008215818B0290615BE0FBC0038A82125990
:108AE00014AB8215818B0290615CE0FBC0038A822B
:108AF000125914AB8215818B0290615DE0FBC003BB
:108B00008A82125914AB8215818B0290615EE0FB60
:108B1000C0038A82125914AB8215818B0290615F67
:108B2000E0FBC0038A82125914AB8215818B02903C
:108B3000E6AFE0C4540FFB8BF005F0EA8002C313EC
:108B4000D5F0FBFA90E6AFE0540FFB2AFAF582026B
:108B500000C5C026858126AA82AB83906038E023B9
:108B6000235401FCBC010280119066F7E0FCBC01BB
:108B7000028007902411E020E103028D8E90604F67
:108B8000E030E71C902405E0540FF0902406E054F8
:108B9000C0F0902406E0543FF0902407E4F0804AAF
:108BA0008B04740F5C902405C454F0F5F0E0540F6E
:108BB00045F0F0ECC4540FFC53043F902406EC54F1
:108BC0003FF5F0E054C045F0F074035AFB902406E2
:108BD000030354C0F5F0E0543F45F0F0EA030354BA
:108BE0003FFA53023F902407EAF0E52624FCF8B64A
:108BF0000102801EE52624FCF8B602028030E5263C
:108C000024FCF8B60302803FE52624FCF8B604668F
:108C1000804B90240874FFF090240974FFF0902496
:108C20000AE054C0F090240AE054BFF08061902420
:108C30000874FFF090240974FFF090240AE0443F88
:108C4000F0E054BFF08048902408E4F0902409F04C
:108C500090240AE054C0F0E04440F08032902408B0
:108C600074FDF090240974FFF090240AE0443FF072
:108C7000E054BFF080199024087401F0902409E4B6
:108C8000F090240AE054C0F090240AE054BFF0E5CC
:108C90002624FCF8B6FF02804D9060A0E030E21B75
:108CA000902408E0FA530201902408EAF090240985
:108CB000E4F090240AE054C0F0802B9060A4E030EF
:108CC000E50790240AE054C0F09060A4E030E41678
:108CD000902408E0FAA3E0FB530255530355902477
:108CE00008EAF0A3EBF0900264E0C4235403FABA5C
:108CF0000202800D902408E0FA5302FD902408EA55
:108D0000F0902402E054FEF0E04401F01258E490A8
:108D10006098E020E45330080C758BF8758DFFD215
:108D20008EC203800A758B18758DFCD28EC203909B
:108D30002402E020E1033003F6902402E054FEF028
:108D40003003209022C2E0FA0A9022C2EAF090603A
:108D5000A3E0FA4302019060A3EAF0C2039067998E
:108D60007401F0C28EC28F800E902402E030E1F9CF
:108D7000902402E054FEF0902408E4F0902409F0DE
:108D800090240AE054C0F090240AE054BFF0D026AA
:108D90000200C5900228E003035407FA530203902F
:108DA00060A4E054EFF09067947420F09060A4E029
:108DB00054DFF0BA0313902402E0547FF0E0444003
:108DC000F09067937408F0804EBA0213902402E08A
:108DD0004480F0E054BFF09067937404F08038BA98
:108DE0000121902402E0547FF0E04440F09067932A
:108DF0007402F09060A4E04410F09060A4E044207D
:108E0000F08014902402E04480F0902402E044407A
:108E1000F09067937401F0900228E003035407FB7D
:108E200030E20B906793E025E0FB906793F090664B
:108E3000F7E0FB700D906793E0C42354E0FB90676C
:108E400094F0EA7010902402E04420F09060A4E0D6
:108E500054F0F08010902402E054DFF09060A4E021
:108E600054F04405F00200C5C026E581F52624082B
:108E7000F581902560E0FAA3E0FBA3E0FCA3E0FD10
:108E8000E5262405F8A60208A60308A60408A605F8
:108E9000902564E0FEA3E0FFA3E0FAA3E0FBC00698
:108EA000C007C002C003E5262405F8868208868331
:108EB0000886F008E6786B798B7A011200B3AA82F3
:108EC000AB83ACF0FDE58124FCF581E5262405F8B3
:108ED000A60208A60308A60408A605902568E0FADD
:108EE000A3E0FBA3E0FCA3E0FDC002C003C004C0FC
:108EF00005E5262405F886820886830886F008E6BC
:108F0000786B798B7A011200B3AA82AB83ACF0FD47
:108F1000E58124FCF581E5262405F8A60208A603D0
:108F200008A60408A60590256CE0FAA3E0FBA3E0E0
:108F3000FCA3E0FDC002C003C004C005E526240573
:108F4000F886820886830886F008E6786B798B7A43
:108F5000011200B3AA82AB83ACF0FDE58124FCF5DD
:108F600081E5262405F8A60208A60308A60408A69B
:108F700005902570E0FAA3E0FBA3E0FCA3E0FDA8C8
:108F80002608A60208A60308A60408A605902574CC
:108F9000E0FEA3E0FFA3E0FAA3E0FBC006C007C029
:108FA00002C003A8260886820886830886F008E6A1
:108FB000786B798B7A011200B3AA82AB83ACF0FD97
:108FC000E58124FCF581A82608A60208A60308A6C8
:108FD0000408A605902578E0FAA3E0FBA3E0FCA333
:108FE000E0FDC002C003C004C005A82608868208B0
:108FF00086830886F008E6786B798B7A011200B3D5
:10900000AA82AB83ACF0FDE58124FCF581A826089B
:10901000A60208A60308A60408A60590257CE0FA87
:10902000A3E0FBA3E0FCA3E0FDC002C003C004C0BA
:1090300005A8260886820886830886F008E6786BED
:10904000798B7A011200B3AA82AB83ACF0FDE58183
:1090500024FCF581A82608A60208A60308A6040891
:10906000A60590E6AEE0FAE4FBFCFDE5262405F853
:10907000C3E69A08E69B08E69C08E69D50057582C3
:1090800000802590E6ACE0FAA3E0FB7C007D00A820
:109090002608C3EA96EB0896EC0896ED089650056C
:1090A0007582008003758201852681D0260200C565
:020000040000FA
:1000DE00D315D3111003D77590550040000280013F
:0A00EE000010D3019300D755D3058D
:020000040001F9
:108694009066F7E0FABA01028046906026E0900204
:1086A40024C4235460F5F0E0549F45F0F0751C1C7D
:1086B400751D607A00BA0A005026851C82851D83C8
:1086C400E0FBC002C0038A8278E779867A0112004F
:1086D400B31581D0020A051CE4B51CD9051D80D54B
:1086E4000200C5C026858126AA82E52624FCF8C39B
:1086F400748086F063F08095F0501EE52624FCF823
:10870400744026FBE52624FCF8E6A2E713FCE526E4
:1087140024FCF8E6C39CFD8024E52624FCF8C3E48D
:1087240096F6E52624FCF886068E03E52624FCF856
:10873400E6A2E713FCEEC39CFE74204EFD7409B55B
:108744000200500302886BEA2A2A90875273028738
:108754007002878D0287E40288010287AA0287C714
:1087640002881D028839028855028861902438EBFA
:10877400F0E04480F0902438E0547FF0900478EDE9
:10878400F090047CECF002886B902439EBF0E04428
:1087940080F0902439E0547FF0900480EDF0900450
:1087A40084ECF002886B90243CEBF0E04480F09081
:1087B400243CE0547FF0900878EDF090087CECF0D5
:1087C40002886B90243DEBF0E04480F090243DE07F
:1087D400547FF0900880EDF0900884ECF002886BF0
:1087E40090243AEBF0E04480F090243AE0547FF097
:1087F400900488EDF090048CECF002886B90243B9C
:10880400EBF0E04480F090243BE0547FF09004903F
:10881400EDF0900494ECF0804E90243EEBF0E044B4
:1088240080F090243EE0547FF0900888EDF09008AA
:108834008CECF0803290243FEBF0E04480F0902404
:108844003FE0547FF0900890EDF0900894ECF080B5
:1088540016900498EDF090049CECF0800A9008982F
:10886400EDF090089CECF0D0260200C5902408E4BA
:10887400F0A3F090240AE054C0F0902401E054FDE9
:10888400F0902401E054FEF090240AE054BFF090EC
:108894002402E054F7F0902402E054FBF090240BFF
:1088A400E0547FF090240BE054BFF00200C5AA828C
:1088B400300C07200D047B0C8013200C07300D04B2
:1088C4007B038009BA01047B0C80027B0F9060A4B7
:1088D400E0540FF4FA5203902400EBC454F0F5F082
:1088E400E0540F45F0F00200C5902402E054EFF08C
:1088F400900054E04408F0900054E04404F09000E8
:1089040054E04402F0900054E04401F0900058E038
:108914004480F0902401E04404F0902418E054EFE3
:10892400F0902418E054DFF0902405E054FEF09019
:108934002405E054F7F0302710902400E0540F444D
:10894400C0F0902405E04402F00200C590E607E080
:1089540030E203028A08902401E030E503028A0829
:108964009066F7E0FABA0103028A0890604CE020AE
:10897400E40790604CE030E303028A0875820178D2
:1089840064798E7A011200B3902406E0543F448047
:10899400F09024077405F078E979937A011200B312
:1089A400902408E0FA5302FD902408EAF090240A87
:1089B400E04440F0902405E054FDF0902405E05498
:1089C400FEF0902405E054F7F0D20DD20C7582002D
:1089D40078B279887A011200B3902401E04420F03F
:1089E400902402E054FEF0E04401F090604EE03048
:1089F400E712902401E054FBF0E04410F0902401CD
:108A0400E04401F00200C5902401E0C4035401FADB
:108A1400BA0126758B18758DFCD28EC20390240181
:108A2400E054DFF0902402E020E1033003F69024C8
:108A340002E054FEF0C28EC28F0200C590604CE08A
:108A440020E403028B2190604CE030E303028B218D
:108A540090604CE030E503028B219066F7E0FA6009
:108A640003028B21906725E0FA6003028B21906654
:108A74003AE02401F090663AE0FA7403B50200404B
:108A840003028B2190663AE4F07582017864798E52
:108A94007A011200B378E979937A011200B3902431
:108AA40009E4F0902408E0FA53020D902408EAF057
:108AB40090240AE04440F0902405E054FDF0902412
:108AC40005E054FEF0902405E054F7F0902400E013
:108AD40044F0F07404C0E09010107852798B7A045A
:108AE4001200B3158178E979937A011200B39024C6
:108AF40008E0FA5302F0902408EAF090240AE054C3
:108B0400BFF07404C0E09010017852798B7A04129B
:108B140000B3158178A7798F7A011200B30200C5DA
:108B240090604CE030E02B900264E030E209900267
:108B340064E054FBF0802D900264E04404F078403B
:108B4400798A7A011200B3784E79C17A011200B39E
:108B540080127840798A7A011200B3784E79C17A0A
:108B6400011200B30200C5C026858126AA82AB8308
:108B7400ACF0FDE52624F9F8C3E69A08E69B08E67E
:108B84009C08E69D50098A828B838CF0ED800FE56A
:108B94002624F9F886820886830886F008E6D0261B
:108BA4000200C5C026E581F5262408F581902560DC
:108BB400E0FAA3E0FBA3E0FCA3E0FDE5262405F82E
:108BC400A60208A60308A60408A605902564E0FEEC
:108BD400A3E0FFA3E0FAA3E0FBC006C007C002C005
:108BE40003E5262405F886820886830886F008E6CD
:108BF400786B798B7A011200B3AA82AB83ACF0FD57
:108C0400E58124FCF581E5262405F8A60208A603DF
:108C140008A60408A605902568E0FAA3E0FBA3E0F3
:108C2400FCA3E0FDC002C003C004C005E526240582
:108C3400F886820886830886F008E6786B798B7A52
:108C4400011200B3AA82AB83ACF0FDE58124FCF5EC
:108C540081E5262405F8A60208A60308A60408A6AA
:108C64000590256CE0FAA3E0FBA3E0FCA3E0FDC0C3
:108C740002C003C004C005E5262405F886820886E0
:108C8400830886F008E6786B798B7A011200B3AA20
:108C940082AB83ACF0FDE58124FCF581E526240557
:108CA400F8A60208A60308A60408A605902570E005
:108CB400FAA3E0FBA3E0FCA3E0FDA82608A60208B3
:108CC400A60308A60408A605902574E0FEA3E0FF09
:108CD400A3E0FAA3E0FBC006C007C002C003A826B5
:108CE4000886820886830886F008E6786B798B7A92
:108CF400011200B3AA82AB83ACF0FDE58124FCF53C
:108D040081A82608A60208A60308A60408A60590BA
:108D14002578E0FAA3E0FBA3E0FCA3E0FDC002C0D9
:108D240003C004C005A8260886820886830886F046
:108D340008E6786B798B7A011200B3AA82AB83AC14
:108D4400F0FDE58124FCF581A82608A60208A60307
:108D540008A60408A60590257CE0FAA3E0FBA3E09E
:108D6400FCA3E0FDC002C003C004C005A826088619
:108D7400820886830886F008E6786B798B7A01127C
:108D840000B3AA82AB83ACF0FDE58124FCF581A895
:108D94002608A60208A60308A60408A605E52624B4
:108DA40005F8C3E6946408E6940008E6940008E62F
:108DB40094005005758200801AA82608C3E49674AE
:108DC400040896E40896E40896500575820080032A
:108DD400758201852681D0260200C5AA829024408E
:108DE400EA543FF5F0E054C045F0F0902441EA54D1
:108DF4003FF5F0E054C045F0F0902442EA543FF5CA
:108E0400F0E054C045F0F0902443EA543FF5F0E01C
:108E140054C045F0F0902460EA543FF5F0E054C0AB
:108E240045F0F0902461EA543FF5F0E054C045F079
:108E3400F0902462EA543FF5F0E054C045F0F0901D
:108E44002463EA543FF5F0E054C045F0F090243038
:108E5400740FF0E4F0902434740FF0E4F00200C5D1
:108E6400AA82BA0002800EBA0102803EBA0203024C
:108E74008F04028F9D90243074FFF0A3F0A3F0A31D
:108E8400747FF090243474FFF0A3F0A3F0A3747FF4
:108E9400F0902430E4F0A3F0A3F0A3F0902434E4A1
:108EA400F0A3F0A3F0A3F0028F9D7440C0E0E4C0EF
:108EB400E07478C0E07461C0E0E4C0E090244075E0
:108EC400F000125A45E58124FBF58190243074FFAB
:108ED400F0A3F0A3F0A3747FF0902430E4F0A3F0A7
:108EE400A3F0A3F090243474FFF0A3F0A3F0A374D0
:108EF4007FF0902434E4F0A3F0A3F0A3F0028F9D5C
:108F0400906178E0902440543FF5F0E054C045F07F
:108F1400F0906179E0902441543FF5F0E054C0456D
:108F2400F0F090617AE0902442543FF5F0E054C0B0
:108F340045F0F090617BE0902443543FF5F0E05419
:108F4400C045F0F0906198E0902460543FF5F0E063
:108F540054C045F0F0906199E0902461543FF5F0DD
:108F6400E054C045F0F090619AE0902462543FF5DB
:108F7400F0E054C045F0F090619BE0FA9024635413
:108F84003FF5F0E054C045F0F0902430740FF0E465
:108F9400F0902434740FF0E4F090240BE030E5F901
:108FA4000200C57440C0E0E4C0E07480C0E07424F2
:108FB400C0E0E4C0E090617875F000125A45E581A4
:108FC40024FBF5810200C5AA82BA00028027BA01F7
:108FD4000302904FBA0203029093BA03030290D79C
:108FE400BA040302911BBA100302915FBA1203027E
:108FF400918302925C9024D0E0906148F09024D157
:10900400E0906149F09024D2E090614AF09024D33A
:10901400E090614BF09024F0E090614CF09024F1EA
:10902400E090614DF09024F2E090614EF09024F3D2
:10903400E0FA90614FF090240BE030E2047A018072
:10904400027A00906171EAF002925C9024D0E09080
:109054006150F09024D1E0906151F09024D2E090DE
:109064006152F09024D3E0906153F09024F0E090AA
:109074006154F09024F1E0906155F09024F2E09076
:109084006156F09024F3E0FA906157F002925C90FC
:1090940024D0E0906158F09024D1E0906159F09090
:1090A40024D2E090615AF09024D3E090615BF09078
:1090B40024F0E090615CF09024F1E090615DF09028
:1090C40024F2E090615EF09024F3E0FA90615FF0A6
:1090D40002925C9024D0E0906160F09024D1E09002
:1090E4006161F09024D2E0906162F09024D3E0902A
:1090F4006163F09024F0E0906164F09024F1E090DA
:109104006165F09024F2E0906166F09024F3E0FA57
:10911400906167F002925C9024D0E0906168F090D6
:1091240024D1E0906169F09024D2E090616AF090DB
:1091340024D3E090616BF09024F0E090616CF090A7
:1091440024F1E090616DF09024F2E090616EF09073
:1091540024F3E0FA90616FF002925C7440C0E0E4A2
:10916400C0E074D0C0E07424C0E0E4C0E0906100CA
:1091740075F000125A45E58124FBF58102925C905A
:1091840024C0E0547F9061B8547FF5F0E0548045EA
:10919400F0F09024C1E0547F9061B9547FF5F0E081
:1091A400548045F0F09024C2E0547F9061BA547F1B
:1091B400F5F0E0548045F0F09024C3E0547F9061D2
:1091C400BB547FF5F0E0548045F0F09024C4E054A3
:1091D4007F9061BC547FF5F0E0548045F0F090241A
:1091E400C5E0547F9061BD547FF5F0E0548045F0B4
:1091F400F09024C6E0547F9061BE547FF5F0E054B3
:109204008045F0F09024C7E0547F9061BF547FF50F
:10921400F0E0548045F0F0902510E0906140F0902B
:109224002511E0906141F0902512E0906142F090A8
:109234002513E0906143F0902514E0906144F09090
:109244002515E0906145F0902516E0906146F09078
:109254002517E0FA906147F00200C5AA82BA00021D
:109264008009BA02030292FB029384906148E09061
:109274002440543FF5F0E054C045F0F0906149E0DB
:10928400902441543FF5F0E054C045F0F090614A19
:10929400E0902442543FF5F0E054C045F0F0906172
:1092A4004BE0902443543FF5F0E054C045F0F09077
:1092B400614CE0902460543FF5F0E054C045F0F078
:1092C40090614DE0902461543FF5F0E054C045F0C6
:1092D400F090614EE0902462543FF5F0E054C045B4
:1092E400F0F090614FE0FA902463543FF5F0E054BD
:1092F400C045F0F0029384906158E0902440543FBC
:10930400F5F0E054C045F0F0906159E090244154E8
:109314003FF5F0E054C045F0F090615AE0902442EB
:10932400543FF5F0E054C045F0F090615BE09024C8
:1093340043543FF5F0E054C045F0F090615CE09098
:109344002460543FF5F0E054C045F0F090615DE0D6
:10935400902461543FF5F0E054C045F0F090615E14
:10936400E0902462543FF5F0E054C045F0F0906181
:109374005FE0FA902463543FF5F0E054C045F0F008
:10938400902430740FF0E4F0902434740FF0E4F07F
:1093940090240BE030E5F90200C5E582FA602B90D9
:1093A400604CE030E010900264E054E7F090020C6E
:1093B400E0548FF08026900264E054E74408F09073
:1093C400020CE0548F4430F08012900264E054E7C1
:1093D4004410F090020CE0548F4420F090000A12E4
:1093E40057C70200C59060A4E030E41190240874CB
:1093F40055F0A3F090240AE054C0F0800F902408A4
:1094040074FFF0A3F090240AE0443FF0902401E0BC
:1094140054FDF0902401E054FEF090240AE054BF7F
:10942400F0902402E054F7F0902402E054FBF09012
:10943400240BE0547FF090240BE054BFF00200C5ED
:020000040004F6
:1090B000C026858126058105819022B47414F09024
:1090C000608CE020E00A906070E054EFF00293CDF5
:1090D0007A02906087E0FBA82608A603906082E0F1
:1090E000FC9060CBE0FD530580A8260808E4BD8015
:1090F0000104F69060C8E0FEA3E0FFA3E0FDA3E05A
:10910000FB906088EEF0A3EFF0A3EDF0A3EBF090FE
:1091100060CBE0FB53030F90A316E05407FDBD04A2
:109120002C90E62CE0540FFD902033E0C4540FF552
:1091300082C002C004C005125914AD8215818D038E
:109140008B821267DDAD82D004D0028D03BB050097
:1091500040057A04029397A8260808E660027B80FF
:10916000C0029022B47413F09022B5A82608E6F04D
:109170009022B6ECF09060C8E0FDA3E0FEA3E0FF13
:10918000A3E0FA9022C4EDF0A3EEF0A3EFF0A3EA7F
:10919000F0A82608B660028004D002800FD00290AA
:1091A0002600E020E0030293970293CDA82608B69C
:1091B00080028003029240740BB5040050030293B6
:1091C00097EC2C2C9091C8730291EC0291EC0292D6
:1091D0003D02923D02923D02923D029202029202B3
:1091E00002921802921802922E02922EC0048B82D2
:1091F00078D579937A041200B3AD8215818D02027D
:109200009397C0048B82784379987A041200B3ADA7
:109210008215818D02029397C0048B8278F6799C27
:109220007A041200B3AD8215818D020293978C826D
:109230007879799B7A041200B3AD828D02029397FC
:10924000A82608B681597405B50400500302939707
:10925000EC2C2C9092577302926902926902927BD5
:1092600002927B02928D02928D8C8278B5799B7AE4
:10927000041200B3AD828D020293978C8278057937
:109280009C7A041200B3AD828D020293978C82788F
:109290009C799C7A041200B3AD828D02029397A848
:1092A0002608B68202800302932A7407B504005090
:1092B00003029397EC2C2C9092BB730292D30292F0
:1092C000D30292E90292E90292FF0292FF02931501
:1092D000029315C0048B8278D079997A041200B376
:1092E000AD8215818D02029397C0048B82786979D3
:1092F000967A041200B3AD8215818D02029397C055
:10930000048B82784979957A041200B3AD82158175
:109310008D02029397C0048B82785D79977A04124C
:1093200000B3AB8215818B02806DA82608B6831925
:10933000BC00028003BC015F8C8278A879997A0412
:109340001200B3AB828B02804EA82608B68448BCBC
:1093500000028005BC014080209060C8E0FB530300
:1093600003902200E0FCEBB5042D7811799F7A047C
:109370001200B3AB828B02801E9060C8E0FB5303E7
:1093800003902200E0FCEBB5040D7844799F7A0449
:109390001200B3AB828B0290602EEAF0906070E016
:1093A0004410F09022B4740FF090602EE09022B53B
:1093B000F0906088E0FAA3E0FBA3E0FCA3E0FD905E
:1093C00022C4EAF0A3EBF0A3ECF0A3EDF085268134
:1093D000D0260200C5C026858126AA82BA800280D6
:1093E000030294CEE52624FCF8B60167902634E00B
:1093F000906088F0902635E0FB906089F0902636EA
:10940000E030E70D906088E0FB430308906088EB54
:10941000F0902636E030E60D906088E0FB430304D0
:10942000906088EBF0902636E030E50D906088E0A3
:10943000FB430302906088EBF09067A4E0FB7003AD
:10944000029541906088E0FB430301906088EBF057
:10945000029541902637E04420F09060C8E09026C5
:1094600034F09060C9E0902635F09060C8E0FB537E
:109470000308BB0803D38001C39228E43390263647
:1094800013E092E7F09060C8E0FB530304BB0403D1
:10949000D38001C39228E43390263613E092E6F09D
:1094A0009060C8E0FB530302BB0203D38001C39268
:1094B00028E43390263613E092E5F09060C8E0FB94
:1094C0005303019067A4E4BB010104F08073E52617
:1094D00024FCF8B60126EA2AFB24D0F582E43460A5
:1094E000F583E0906088F0EB24D0FBE43460FC8BE3
:1094F000828C83A3E0FB906089F08045EA2AFB24FC
:10950000D0FCE43460FD9060C8E0FE8C828D83F076
:10951000EB24D0FBE43460FC0BBB00010C9060C971
:10952000E0FD8B828C83F09060CFE0FB8AF005F049
:109530007401800225E0D5F0FBFA42039060CFEB86
:10954000F0758200D0260200C5C026858126AA8239
:10955000BA800280030295D3E52624FCF8B60528DC
:10956000900050E0906088F0E0FB900054E0FC74C4
:10957000E05C4203906088EBF0902411E00354011A
:10958000FB906089F00296619060C8E0900050F016
:10959000900054E0FB53031F900054EBF0E0FB906D
:1095A00060C8E0FC74E05C4203900054EBF0906013
:1095B000C9E0540190241013E092E4F0902410E0EC
:1095C000C4540190240CE023235401FB9066F7F06F
:1095D000029661E52624FCF8B60536EA2A25E02441
:1095E000B4F582E43460F583E0906088F0EA75F0C9
:1095F00050A42404FB746335F0FC743D2BF582E425
:109600003CF583E0FBE4BB000104FB906089F08043
:1096100050EA2A25E024B4FBE43460FC9060C8E002
:109620008B828C83F0EA75F050A42404FB746335BC
:10963000F0FC743D2BFBE43CFC9060C9E0FD53055D
:1096400001E4BD000104FD8B828C83F08AF005F0FB
:109650007401800225E0D5F0FBFA9067A8E0FB4A90
:10966000F0758200D0260200C5C026858126AA8218
:10967000BA8040E52624FCF8B60317900200E0FB10
:10968000906088EBF0900204E0FB90608AEBF002BF
:1096900097559060C8E0FB900200EBF09060CAE044
:1096A000FB900000EBF09060CAE0FB900204EBF04E
:1096B000029755E52624FCF8B60330EA2A25E0FB9C
:1096C00024B4FCE43460FD8C828D83A3E0FC9060C4
:1096D00088ECF0EB24B4FBE43460FC8B828C83A335
:1096E000A3A3E0FB90608AEBF0806AEA2A25E0FB06
:1096F00024B4FCE43460FD0CBC00010D9060C8E0B3
:10970000FE8C828D83EEF0EB24B4FCE43460FD74B7
:10971000022CFCE43DFD9060CAE0FE8C828D83EE5D
:10972000F0EB24B4FBE43460FC74032BFBE43CFC5E
:109730009060CAE0FD8B828C83EDF09060CDE0FB01
:109740008AF005F07401800225E0D5F0FBFA4203AF
:109750009060CDEBF0758200D0260200C5C0268552
:109760008126AA82BA800280030297F5E52624FCAE
:10977000F8B6070D9067A6E0FB906088EBF00298C2
:109780003B906013E0FB7C009060C8E0FD53051F38
:109790009067A6EDF0ED70168B06900010EE2E256A
:1097A000E054FCF5F0E0540345F0F002983B7E00F5
:1097B000C005C0068B828C831274A0AD82AE831567
:1097C0008115818D038E04906013E0FD530520EC1C
:1097D000C403CBC40354076BCB5407CB6BCBFCEB5C
:1097E0004205900010ED2D25E054FCF5F0E0540307
:1097F00045F0F08046E52624FCF8B60713EA247C01
:10980000F582E43460F583E0FB906088EBF0802B18
:10981000EA247CFBE43460FC9060C8E0FD53051F43
:109820008B828C83EDF08AF005F07401800225E0D4
:10983000D5F0FBFA9067A7E0FB4AF0758200D026CE
:109840000200C5C026858126AA82BA800280030252
:1098500098E9E52624FCF8B6072C90004CE0C454A7
:1098600003FB906088EBF090004CE003035403FB93
:10987000906089EBF090004CE023235403FB906050
:109880008AEBF00299A09060CAE0FBBB010280085D
:109890009060CAE0FBBB02067582040299A3906047
:1098A000C8E0FB53030390004CEBC45430F5F0E0E8
:1098B00054CF45F0F09060C9E0FB53030390004C97
:1098C000EB2B25E0540CF5F0E054F345F0F09060FC
:1098D000CAE0FB53030390004CEB030354C0F5F0C4
:1098E000E0543F45F0F00299A0E52624FCF8B606C6
:1098F0005FEA75F050A4FBACF0EB2404FDEC34639C
:10990000FE740E2DFDE43EFE9060C8E0FF53070399
:109910008D828E83EFF0EB2404FDEC3463FE740D36
:109920002DFDE43EFE9060C9E0FF5307038D828E5B
:1099300083EFF0EB2404FBEC3463FC740C2BFBE4AE
:109940003CFC9060CAE0FD5305038B828C83EDF0F4
:10995000EA75F050A4FAABF0EA2404FCEB3463FDA2
:10996000740E2CF582E43DF583E0FC906088ECF009
:10997000EA2404FCEB3463FD740D2CF582E43DF520
:1099800083E0FC906089ECF0EA2404FAEB3463FB9A
:10999000740C2AF582E43BF583E0FA90608AEAF0E1
:1099A000758200D0260200C5AA82BA010E90609886
:1099B000E0235401FA906088F0800F9060C8E05472
:1099C00001FA90609813E092E7F07582000200C5FA
:1099D000C026858126AA82BA80028003029A83E586
:1099E0002624FCF8B6013A902165E003035407FBF6
:1099F000902165E0C4035407C454F0FCEB4204908A
:109A00006088ECF090022CE0540FFB900230E0C430
:109A1000540FC454F0FCEB4204906089ECF0029BBC
:109A2000719060C8E0FB530307902165EB2B25E0A4
:109A3000541CF5F0E054E345F0F09060C8E0547039
:109A4000C4540F902165C42354E0F5F0E0541F4541
:109A5000F0F09060C9E0FB53030F90022CEB540F21
:109A6000F5F0E054F045F0F09060C9E054F0C454D3
:109A70000FFB900230C454F0F5F0E0540F45F0F0C5
:109A8000029B71E52624FCF8E6707CEA75F050A490
:109A9000FBACF02404FDEC3463FE74222DFDE43EA7
:109AA000FE9060C8E0FF5307078D828E83EFF0EBD6
:109AB0002404FDEC3463FE74232DFDE43EFE90602F
:109AC000C8E05470C4540F8D828E83F0EB2404FDE3
:109AD000EC3463FE74242DFDE43EFE9060C9E0FF8B
:109AE00053070F8D828E83EFF0EB2404FBEC34637D
:109AF000FC74252BFBE43CFC9060C9E054F0C4549A
:109B00000FFD8B828C83F0EA75F050A4FAABF02441
:109B100004FCEB3463FD74222CFCE43DFDEA2404D8
:109B2000FEEB3463FF74232EF582E43FF583E0C43B
:109B300054F0FE8C828D83E04206906088EEF0EA5D
:109B40002404FCEB3463FD74242CFCE43DFDEA2486
:109B500004FAEB3463FB74252AF582E43BF583E0D9
:109B6000C454F0FA8C828D83E0FC4202906089EA52
:109B7000F0758200D0260200C5AA8290A316E05498
:109B800007FBBB03057582028028BA0A169060C8DD
:109B9000E0FA530207902640EA5407F5F0E054F843
:109BA00045F0F0902640E05407FA906088EAF0759E
:109BB00082000200C5AA8290A316E05407FBBB03F3
:109BC00002800A90A316E05407FBBB0505758202CC
:109BD00080309060C8E0FB7405B5030040069060DB
:109BE000C8E070057582048019EA70099060C8E0C9
:109BF000FA9065F6F09065F6E0FA90608BEAF07501
:109C000082000200C5AA8290A316E05407FBBB03A2
:109C100002800A90A316E05407FBBB05067582017B
:109C2000029C999060CBE0FB53030F7405B50300D1
:109C30004003EB7005758204805FBA022DEB2BFAAE
:109C400024B0FCE434E6FD0CBC00010D9060C9E0DA
:109C5000FE8C828D83EEF0EA24B0FAE434E6FC90C8
:109C600060C8E0FD8A828C83EDF090608BEBF0EBB6
:109C70002BFB24B0FAE434E6FC8A828C83A3E0FA5E
:109C8000906089EAF0EB24B0F582E434E6F583E0F5
:109C9000FA906088EAF07582000200C5AA8290A35B
:109CA00016E05407FBBB0302800A90A316E054079A
:109CB000FBBB0505758202803A9060C8E0FB740525
:109CC000B5030040069060C8E070057582048023EB
:109CD000BA04129060C8E0FA90E62B540FF5F0E059
:109CE00054F045F0F090E62BE0540FFA90608BF0C2
:109CF0007582000200C5C02685812605810581AADE
:109D000082BA80028003029DF5E52624FCF8B6099C
:109D10006690200CE003035401FB90608AF0301041
:109D20002B90A013E023235401906089F0E0FB9076
:109D3000A015E05407C454F0FC4203906089EBF096
:109D400090A014E0FB906088F0029F0690A00BE0CA
:109D500023235401906089F0E0FB90A00DE05407AC
:109D6000C454F0FC4203906089EBF090A00CE0FB3F
:109D7000906088F0029F0690200CE04402F0906012
:109D8000CAE0FB30E00990200CE04404F08007902A
:109D9000200CE054FBF030102E9060C9E05401908C
:109DA000A01313E092E6F09060C9E0C4540F90A0B5
:109DB000155407F5F0E054F845F0F09060C8E0FB6A
:109DC00090A014F0029F069060C9E0540190A00B8F
:109DD00013E092E6F09060C9E0C4540F90A00D54D7
:109DE00007F5F0E054F845F0F09060C8E0FB90A073
:109DF0000CF0029F06E52624FCF8B6080280030258
:109E00009EA190E613E04410F0EA2A25E0FB249896
:109E1000FCE434E6FD9060CAE0FE530601BE010397
:109E2000D38001C39228E4338C828D8313E092E0C7
:109E3000F0EB2498FCE434E6FD74022CFCE43DFDD8
:109E40009060C9E0FE7F00A82608A606EFC4035470
:109E5000F8C6C403C666C654F8C66608F6C00290C3
:109E600060C8E0FA7E00A82608E6420208E642063C
:109E70008C828D83EAF0A3EE5407F5F0E054F845A8
:109E8000F0F0EB2484FBE434E6FA74032BFBE43AB1
:109E9000FA9060C9E0FC8B828A8313E092E7F0D0ED
:109EA00002EA2A25E0FA2498FBE434E6FC8B828C53
:109EB00083A3A3E0FBA3E05407906088EBF09060DD
:109EC00089E0FBEA2498FCE434E6FD8C828D83A3D0
:109ED000A3E0FCA3E05407C4CCC4540F6CCC540FD3
:109EE000CC6CCC530470E4FDFEEB4204EE420590D2
:109EF0006089ECF0EA2498F582E434E6F583E054D6
:109F000001FA90608AF0758200852681D0260200D1
:109F1000C57A00902102E020E6047A028021908236
:109F200000E04404F0C0027858799B7A021200B332
:109F3000D002908200E054FBF0902230742BF08A23
:109F4000820200C57A00902102E020E6047A0280B5
:109F500021908200E04408F0C00278A379947A024C
:109F60001200B3D002908200E054F7F090223074D7
:079F70002BF08A820200C5FC
:020000040000FA
:1000F80075880575895175A91C75B906D2ABD2AD3D
:10010800D2A8D2AAC2A975B83F75C878759A3EC256
:1001180005C206C207C208906711E4F0C209C20A04
:0E012800D203D204C21DC21E9067A5E4F022CD
:020000040001F9
:10944400906038E0547FF0906098E030E1109060D4
:109454009CE0FAA3E0FB906174EAF0A3EBF0906760
:1094640099E4F07A03C002780079807A041200B398
:10947400D002906799E0FB6027906037E0FBBB0166
:10948400109060407401F0906040E0FBBB010280EA
:10949400F68A031AC374808BF063F08095F040C59C
:1094A40078BB79997A011200B37828799F7A0112EE
:1094B40000B3906038E04480F0906658E0FA906021
:1094C4004AEAF0906659E0FA906049EAF090665FE3
:1094D400E0FA906048EAF090665AE0FA90604BEA4D
:1094E400F00200C590614AE0FA90614BE0FBC002D3
:1094F4008B821258EDAB8215818B0290614EE0FB9A
:10950400C0028B821258EDAB8215818B0290614FA1
:10951400E0FBC0028B821258EDAB8215819066434A
:10952400EBF0906148E0FA906149E0FBC0028B8265
:109534001258EDAB8215818B0290614CE0FBC002A6
:109544008B821258EDAB8215818B0290614DE0FB4A
:10955400C0028B821258EDAA821581906642EAF00D
:1095640090614AE0FA7B0090614BE0FC7D00EC2ABC
:10957400FAED3BFB90614EE0FC7D00EC2AFAED3BFA
:10958400FB90614FE0FC7D00EC2AFAED3BA2E7136F
:10959400CA13CAA2E713CA13CA906641EAF09061DB
:1095A40048E0FA7B00906149E0FC7D00EC2AFAED8A
:1095B4003BFB90614CE0FC7D00EC2AFAED3BFB9018
:1095C400614DE0FC7D00EC2AFAED3BA2E713CA13DF
:1095D400CAA2E713CA13CA906640EAF0906152E047
:1095E400FA7B00906153E0FC7D00EC2AFAED3BFB32
:1095F400906156E0FC7D00EC2AFAED3BFB9061574C
:10960400E0FC7D00EC2AFAED3BA2E713CA13CAA2E0
:10961400E713CA13CA906645EAF0906150E0FA7BFA
:1096240000906151E0FC7D00EC2AFAED3BFB906177
:1096340054E0FC7D00EC2AFAED3BFB906155E0FC24
:109644007D00EC2AFAED3BA2E713CA13CAA2E71382
:10965400CA13CA906644EAF090610CE0FA3395E0CC
:10966400FB90612CE0FC3395E0FDEC2AFAED3BA283
:10967400E713CA13CA906646EAF0906104E0FA332D
:1096840095E0FB906105E0FC3395E0FDEC2AFAEDF2
:109694003BFB906124E0FC3395E0FDEC2AFAED3BC2
:1096A400FB906125E0FC3395E0FDEC2AFAED3BA24A
:1096B400E713CA13CAA2E713CA13CA906647EAF0AB
:1096C400906106E0FA3395E0FB906107E0FC339586
:1096D400E0FDEC2AFAED3BFB906126E0FC3395E0DB
:1096E400FDEC2AFAED3BFB906127E0FC3395E0FDAD
:1096F400EC2AFAED3BA2E713CA13CAA2E713CA1372
:10970400CA906648EAF0906108E0FA3395E0FB906D
:109714006109E0FC3395E0FDEC2AFAED3BFB906136
:1097240028E0FC3395E0FDEC2AFAED3BFB9061293F
:10973400E0FC3395E0FDEC2AFAED3BA2E713CA13F3
:10974400CAA2E713CA13CA906649EAF090610AE014
:10975400FA3395E0FB90610BE0FC3395E0FDEC2AD5
:10976400FAED3BFB90612AE0FC3395E0FDEC2AFA2C
:10977400ED3BFB90612BE0FC3395E0FDEC2AFAED28
:109784003BA2E713CA13CAA2E713CA13CA90664AD4
:10979400EAF090610DE0FA3395E0FB90612DE0FC76
:1097A4003395E0FDEC2AFAED3BA2E713CA13CA9005
:1097B400664BEAF090610EE0FA3395E0FB90612E7F
:1097C400E0FC3395E0FDEC2AFAED3BA2E713CA1363
:1097D400CA90664CEAF090610FE0FA3395E0FB9092
:1097E400612FE0FC3395E0FDEC2AFAED3BA2E71390
:1097F400CA13CA90664DEAF0906110E0FA3395E01E
:10980400FB906130E0FC3395E0FDEC2AFAED3BA2DD
:10981400E713CA13CA90664EEAF090615AE0FA7BE5
:109824000090615BE0FC7D00EC2AFAED3BFB90616B
:109834005EE0FC7D00EC2AFAED3BFB90615FE0FC0E
:109844007D00EC2AFAED3BA2E713CA13CAA2E71380
:10985400CA13CA906650EAF0906158E0FA7B00900F
:109864006159E0FC7D00EC2AFAED3BFB90615CE081
:10987400FC7D00EC2AFAED3BFB90615DE0FC7D0091
:10988400EC2AFAED3BA2E713CA13CAA2E713CA13E0
:10989400CAFB90664FEAF09060A0E020E3030299CF
:1098A40022906162E0FA7B00906163E0FC7D00EC51
:1098B4002AFAED3BFB906166E0FC7D00EC2AFAEDB0
:1098C4003BFB906167E0FC7D00EC2AFAED3BA2E7EC
:1098D40013CA13CAA2E713CA13CA906652EAF090D5
:1098E400616AE0FA7B0090616BE0FC7D00EC2AFA8F
:1098F400ED3BFB90616EE0FC7D00EC2AFAED3BFB56
:1099040090616FE0FC7D00EC2AFAED3BA2E713CAFC
:1099140013CAA2E713CA13CAFB906654EAF0906113
:1099240070E0906655F0906174E0FAA3E0FB20E1EA
:10993400030299B8902510E0FA3395E0FB902511C5
:10994400E0FC3395E0FDEAC39CFAEB9DFB90251403
:10995400E0FC3395E0FDEC2AFAED3BFB902515E0A5
:10996400FC3395E0FDEAC39CFAEB9D8A04906656AD
:10997400ECF0902512E0FA3395E0FB902513E0FC1F
:109984003395E0FDEAC39CFAEB9DFB902516E0FCC1
:109994003395E0FDEC2AFAED3BFB902517E0FC3310
:1099A40095E0FDEAC39CFAEB9DFB906657EAF090C4
:1099B4006796E4F00200C5C026858126058178E813
:1099C40079947A011200B3300D37200C3490664438
:1099D400E090665AF0906640E0906659F0906642D6
:1099E400E0906658F0906647E090665BF0906649B8
:1099F400E090665CF090664FE0FA90665FF0029B40
:109A040018200D37300C34906645E090665AF0907B
:109A14006641E0906659F0906643E0906658F09095
:109A24006648E090665BF090664AE090665CF09071
:109A34006650E0FA90665FF0029B18906644E0FA84
:109A44007B00906645E0FC7D002AFAED3BFB0ABAF8
:109A540000010BEBA2E713CA13CA90665AEAF0900E
:109A64006640E0FA7B00906641E0FC7D002AFAED56
:109A74003BFB0ABA00010BEBA2E713CA13CA9066B8
:109A840059EAF0906643E0FA906642E0FBC0028B2C
:109A9400821258EDAA821581906658EAF0906647C2
:109AA400E0FA3395E0FB906648E0FC3395E0FDEC8A
:109AB4002AFAED3BFB0ABA00010BEBA2E713CA1327
:109AC400CA90665BEAF0906649E0FA3395E0FB9051
:109AD400664AE0FC3395E0FDEC2AFAED3BFB0ABA5A
:109AE40000010BEBA2E713CA13CA90665CEAF0907C
:109AF400664FE0FA7B00906650E0FC7D002AFAEDA8
:109B04003BFB0ABA00010BEBA2E713CA13CAFB9092
:109B1400665FEAF090665AE0FA906659E0FBEAC3A1
:109B24009B90665DF090665DE0FA74C1C0E0743F9E
:109B3400C0E08A8212593BAA821581158190665D24
:109B4400EAF0906646E0F582125A12E582FA3395FD
:109B5400E0FB90665BE0F582C002C003125A12ACCF
:109B640082D003D002EC3395E0FDEC2AFAED3BFB06
:109B740090665CE0F582C002C003125A12AC82D037
:109B840003D002EC3395E0FDEC2AFAED3BFB906642
:109B94004BE0F582C002C003125A12AC82D003D04B
:109BA40002EC3395E0FDEC2AFAED3BFB90664CE0C9
:109BB400F582C002C003125A12AC82D003D002EC68
:109BC4003395E0FDEC2AFAED3BFB90604DE0232356
:109BD4005401FCB40100E433FC604A906658E0FC94
:109BE400906067E0FDECB50500B3E433FD7031909F
:109BF400606EE0FDECB50500B3E433FC60169060E4
:109C04006DE0FC7D00C3EA9CEB64808DF063F08022
:109C140095F040047A0080027A01EA7003FA800227
:109C24007A01EA70047A0080027A01906666EAF0AA
:109C340090604DE023235401FAB40100E433FA6048
:109C44003C906646E0F582125A12AA82906066E061
:109C5400FBEAB50300B3E433FB701D90665BE0F5EB
:109C640082125A12AA8290606FE0FBEAB50300B335
:109C7400E433FB7003FA80027A01EA70047A00800C
:109C8400027A01906667EAF0906666E07009906671
:109C940067E07003FA80027A01906668EAF09066E1
:109CA4005FE0FA90604FE0543FFB8A04C3EB6480AA
:109CB4008CF063F08095F05006906655E070047B5C
:109CC4000080027B01906669EBF090604DE0541FC8
:109CD400FB8A04C3EC64808BF063F08095F0B3E4FA
:109CE40033FC6006906655E070047B0080027B01C3
:109CF40090666AEBF090665AE0FB906659E0FCEBE4
:109D0400B5040040048C058007EB2BFBC39CFCFDD1
:109D1400906655E0601090600AE020E2028D0290A7
:109D2400665EEAF0800590665EE4F0900050E0C460
:109D340023540390666DE4F0A3F090666DE0FAA3FB
:109D4400E0FB90608CA82608E0035401F690664678
:109D5400E0FD3395E0FE900050E0035403909F8AA9
:109D640093FF3395E0FCC002C003C007C0048D829A
:109D74008E831274A0AC82AD8315811581A8260848
:109D840086067F00C004C0058E828F831274A0AC47
:109D940082AD8315811581D003D002EC2AFAED3B04
:109DA400FB90666DEAF0A3EBF0900050E054019054
:109DB4009F8E93FC3395E0FD90665BE0FE3395E067
:109DC400FFC002C003C006C0078C828D831274A03A
:109DD400AC82AD8315811581D003D002EC2AFAED53
:109DE4003BFB90666DEAF0A3EBF0900050E0540169
:109DF400909F9093FC3395E0FD90665CE0FE339574
:109E0400E0FFC002C003C006C0078C828D831274B9
:109E1400A0AC82AD8315811581D003D002EC2AFA5F
:109E2400ED3BFB90666DEAF0A3EBF0900050E0543C
:109E340001909F9293FC3395E0FD90664BE0FE33D6
:109E440095E0FFC002C003C006C0078C828D831258
:109E540074A0AC82AD8315811581D003D002EC2AA5
:109E6400FAED3BFB90666DEAF0A3EBF0900054E052
:109E7400235401909F9493FC3395E0FD90664CE04D
:109E8400FE3395E0FFC002C003C006C0078C828D7C
:109E9400831274A0AC82AD8315811581D003D002E6
:109EA400EC2AFAED3BFB90666DEAF0A3EBF0900030
:109EB40054E023540190666DEAF0A3EBF090005453
:109EC400E023540190666DEAF0A3EBF0E4C0E07483
:109ED400FCC0E0E4C0E07404C0E08A828B831259C1
:109EE400B8AA82AB83E58124FCF58190666DEAF023
:109EF400A3EBF090666DE0FAA3E0FB9066CAE0FC89
:109F04003395E0FDEAC39CF582EB9DF583125A2755
:109F1400AA82AB8390666BEAF0A3EBF0852681D02E
:109F2400260200C5906655E07003FA804D90665F86
:109F3400E0FB90604EE05407FC8B05C3ED64808C1D
:109F4400F063F08095F050047A01802E90604DE02B
:109F5400541FFCC3EB64808CF063F08095F05004D4
:109F64007A028016906668E060047A03800C90663A
:109F740069E070047A0480027A05906663EAF0026C
:109F840000C50304060703040607030503050203CB
:029F94000102C8
:020000040004F6
:109F7700C026E581F5262407F581900228E0030332
:109F87005407FA53020390605AE003035401FBBBE2
:109F97000102800302A105906038E030E30302A1CB
:109FA70005C002780B798A7A011200B3D0029000BB
:109FB70060E0C403540190671DF090005CE0035417
:109FC7000190671EF0902400E0C4540F90671FF0C3
:109FD700900058E023235401906722F0900058E046
:109FE700C4035401906723F0902410E0C4540190F7
:109FF7006724F09066F7E0FB90679AF09066F7E4C5
:10A00700F0BA0309900060E04420F0800ABA020722
:10A0170090005CE04402F090605AE030E01DD20C02
:10A02700C20DEA700B902400E0540F44C0F0802664
:10A03700902400E0540F4480F0801BC20CD20DEA3C
:10A04700700B902400E0540F4430F08009902400F6
:10A05700E0540F4420F0902408E4F0A3F090240A81
:10A06700E054C0F090240AE054BFF0902406E05476
:10A077003F4480F09024077402F0902405E0540FC9
:10A087004450F0902406E054C0F078A7798F7A0105
:10A097001200B3780379D67A041200B3900028E04F
:10A0A70003547F906045F0902230742BF0A20DE4AA
:10A0B7003390005813E092E5F0A20CE43390005877
:10A0C70013E092E6F0900058E054EFF078AD79ACE9
:10A0D7007A041200B3902580E04401F0906059E0C3
:10A0E70054FCF0906058E4F090670EF0A3F090678E
:10A0F700257401F0906038E04408F002A4CE906027
:10A107005AE003035401FABA0102800302A4229021
:10A117006038E0C4235401FABA0102800302A42282
:10A12700906038E0C45401FABA0102800302A42205
:10A13700906059E05403FA30E11A906059E05403F3
:10A14700FB7A004303FC906058E0FC7D004202ED7F
:10A1570042038019906059E05403FD7C00906058D9
:10A16700E0FE7F004204EF42058C028D0390670EEC
:10A17700E0FCA3E0FDEAC39CF582EB9DF583C002FA
:10A18700C003121BA4D003D00290670EEAF0A3EB22
:10A19700F09060B0E4F09060ACF0A3F0A3F0A3F00F
:10A1A7009060B2E4F09060A8F0A3F0A3F0A3F09061
:10A1B70060B1E4F09060E0F0A3F0A3F0A3F090604A
:10A1C700B3E4F09060DCF0A3F0A3F0A3F09060A5F7
:10A1D700E0540FFABA030050047B03800F740CB5E8
:10A1E700020050047C0C80028A048C038B021A1A2A
:10A1F7001AEA2A25E02436FAE43401FB9000E8E461
:10A2070093FCA3E493FD906174ECF0A3EDF0C0021E
:10A21700C003780079807A041200B3D003D002A873
:10A2270026087600A82608B60200400302A3A0C0AD
:10A2370002C0039060B0E0FDA82608E675F002A40E
:10A24700FEE5F0CE25E0CE33CE25E0CE33FFEE247B
:10A2570070FAEF3425FB7C00C003C005C006C007B9
:10A26700C002C003C0049060AC75F00078D679A432
:10A277007A041200B3AA82158115811581D007D0FF
:10A2870006D005D003EA2D9060B0F09060B2E0FAF6
:10A29700EE2460FBEF3425FC7D00C002C006C0073A
:10A2A700C003C004C0059060A875F00078D679A4F3
:10A2B7007A041200B3AB82158115811581D007D0BE
:10A2C70006D002EB2A9060B2F0E0FCA82608E5264B
:10A2D7002406F9E6F7E4C725E0C733C725E0C73307
:10A2E70009F7E5262406F8E624F0FD08E63425FA02
:10A2F7008D828A83A3A3A3A3E02C9060B2F0906021
:10A30700B1E0FCEE2474FDEF3425FA7B00C003C0F6
:10A3170004C006C007C005C002C0039060E075F026
:10A327000078D679A47A041200B3AA821581158120
:10A337001581D007D006D004D003EA2C9060B1F085
:10A347009060B3E0FAEE2464FEEF3425FF7B00C093
:10A3570002C006C007C0039060DC75F00078D679AC
:10A36700A47A041200B3AB82158115811581D0023E
:10A37700EB2A9060B3F0E0FAE5262406F8E624F02D
:10A38700F58208E63425F583E02A9060B3F0A82625
:10A397000806D003D00202A22B9060B2E0FCA826E8
:10A3A7000808A604087600087600087600A826089C
:10A3B70008E6080808F618181876000876000876E0
:10A3C700009060A8E0A3E0FDA3E0FEA3E0FF8D04FA
:10A3D7008E058F067F00A8260808EC46F6ED08468E
:10A3E700F6EE0846F6EF0846F68A828B83E493FC7E
:10A3F700A3E493FDA3E493FEA3E493FFA826080830
:10A40700C3E69C08E69D08E69E08E69F500302A265
:10A4170003906038E054EFF002A4CE906725E0FA8D
:10A42700BA0102800302A4CE90605AE030E2030230
:10A43700A4CE902580E054FEF0906038E054F7F009
:10A44700906038E054EFF0906725E4F0906722E0E1
:10A4570090005813E092E6F0906723E090005813BD
:10A46700E092E5F0780379D67A041200B390671D7D
:10A47700E090006013E092E5F090671EE090005CCA
:10A4870013E092E1F090671FE0902400C454F0F5C8
:10A49700F0E0540F45F0F0906724E090241013E0AB
:10A4A70092E4F090679AE09066F7F075820278641C
:10A4B700798E7A011200B390604CE020E50978505C
:10A4C70079897A011200B3852681D0260200C5C09A
:10A4D70026858126C082C083C0F0E581240BF581E3
:10A4E700A8260886820886830886F0E5262404F9CC
:10A4F700127585F7A312758509F7A312758509F7F4
:10A50700A312758509F7E52624FAF8860308860459
:10A517000886028B828C838AF0E5262408F8127558
:10A5270085F6A312758508F6A312758508F6A3129A
:10A53700758508F6E5262404F8E5262408F9E726B4
:10A54700FE09E70836FF09E70836FA09E70836FB88
:10A55700A8260886820886830886F0EE127487A3E9
:10A56700EF127487A3EA127487A3EB127487E526A8
:10A577002408F8C3EE96EF0896EA0896EB0896507B
:10A58700057582018003758200852681D026020029
:01A59700C5FE
:020000040000FA
:10013600040000002800000087010000430F0000B3
:1001460096980000E2F50500CB9A3B00E50B5402B9
:08015600E876481711A5D4E872
:1002230090223374FFF090220BE0547FF075F701B6
:1002330075F70122C0E0C082C083C0D075D010C260
:10024300AF90223374F0F0C28DC28C90223374FFCE
:10025300F0D2AFD0D0D083D082D0E032C0D075D02E
:1002630010C2AFC28EC28FD203D2AFD0D032C0E0A1
:10027300C0F0C082C083C0D075D010C2AF9022330B
:1002830074F2F075C878C2C6D204906033E020E5FA
:100293000302032A20060302032A9066CCE0FA70C5
:1002A3000302032A90A316E05407FAC374818AF069
:1002B30063F08095F04060902603E020E4109026E0
:1002C30000E0547FF0902601E04401F08026902660
:1002D30009E0FA20E710902600E04480F090260120
:1002E300E04401F0800E902600E04480F090260167
:1002F300E054FEF0902603E020E71C902126E02046
:10030300E21590605AE04402F0902600E0547FF03A
:10031300902601E054FEF0906059E04480F090266E
:1003230003E04408F08018902603E020E011300732
:100333000E9066CCE0FA6007902602E04480F090CD
:10034300223374FFF0D2AFD0D0D083D082D0F0D09C
:10035300E032C0E0C082C083C0D075D01090223399
:10036300740DF074FFF0D0D0D083D082D0E032C0CF
:10037300E0C082C083C0D075D010C2AF9022337466
:1003830003F090201BE030E10790201BE054FDF0C8
:1003930090201BE030E23590201BE054FBF090A34B
:1003A3001BE020E527902007E020E520902200E0D5
:1003B300FA90E650E0FBEAB5131290A34E740EF0E8
:1003C300740CF07408F0E4F0902236F09022337449
:1003D300FFF0D2AFD0D0D083D082D0E032C0E0C023
:1003E30082C083C0D075D0107A00C2AF902233741C
:1003F30001F090201BE030E017902200E0FB90E634
:1004030050E0FCEBB514097A0190201BE054FEF098
:1004130090201BE020E40302057290201BE4F0907F
:100423002007E0C4035401FBBB010890223674018A
:10043300F08005902236E4F0902230E0FBBB1B02F3
:10044300802BBB2002805FBB21028021BB22028064
:100453006BBB23028066BB2402804BBB2502804614
:10046300BB26028041BB3302805202051490200751
:10047300E0C4035401FBBB010BD20590A2B6740187
:10048300F0020572EA70030205729022317421F0C2
:1004930090223374FFF090220BE0547FF075F70144
:1004A30075F701020572902007E0C4035401FABAFC
:1004B30001028003020572D205020572902007E053
:1004C30020E523902002E054FBF09022317421F0C8
:1004D30090223374FFF090220BE0547FF075F70104
:1004E30075F701020572902102E003035401FABA81
:1004F3000104D20580799022317422F09022337462
:10050300FFF090220BE0547FF075F70175F701803F
:100513005E902007E030E507902007E020E4299073
:100523002002E054FBF0902102E054BFF09022310E
:100533007421F090223374FFF090220BE0547FF08B
:1005430075F70175F7018027902102E020E22090E2
:100553002102E054BFF09022317422F090223374D0
:10056300FFF090220BE0547FF075F70175F70190CF
:10057300223374FFF0D2AFD0D0D083D082D0E03218
:10058300C0E0C082C083C0D075D010C2AFC29B9000
:1005930022337408F090201AE020E703020621902A
:1005A300201AE0547FF0902007E05401FABA016E5C
:1005B300902230E0FABA1B02800FBA2102800ABAF5
:1005C30022028022BA233C801D9022317420F0D273
:1005D3009B90223374FFF090220BE0547FF075F769
:1005E3000175F70180239022317433F0D29B90225E
:1005F3003374FFF090220BE0547FF075F70175F729
:10060300018006902231741FF0D29B90223374FF35
:10061300F090220BE0547FF075F70175F7019020FD
:100623001AE030E64D90201AE054BFF0902007E026
:1006330020E52F902236E4F0902006E0235401FABF
:10064300BA011D902231741EF0D29B90223374FFA5
:10065300F090220BE0547FF075F70175F7018002EB
:10066300D205902006E0235401FA90200013E09273
:10067300E6F090223374FFF0D29BD2AFD0D0D08378
:10068300D082D0E032C0E0C082C083C0D075D01029
:100693007A00C2AF9022337409F090201BE030E05F
:1006A30017902200E0FB90E650E0FCEBB514097ACA
:1006B3000190201BE054FEF090201BE0FB54E170FE
:1006C3000302084E90201BE4F0902230E0FBBB1A9B
:1006D300028012BB1D028046BB2F028008BB300282
:1006E300800302079D902007E0C4035401FBBB0174
:1006F3000B9022367401F0D20502084EEA70030211
:10070300084E902231741AF090223374FFF0902235
:100713000BE0547FF075F70175F70102084E902046
:1007230007E020E52C902231741AF0902236E4F091
:10073300902002E054FBF0902102E054BFF090229D
:100743003374FFF090220BE0547FF075F70175F7D7
:1007530001902007E020E41E902002E054FBF0907B
:100763002002E054FBF0902002E054FBF0902003C1
:10077300E054BFF0800E902003E04440F09020024C
:10078300E04404F0902102E003035401FABA0102A9
:10079300800302084ED20502084E902007E020E5B0
:1007A3002A902231741AF0902002E054FBF0902139
:1007B30002E054BFF090223374FFF090220BE05418
:1007C3007FF075F70175F70102084E90662BE0FA8A
:1007D3007033902007E020E41E902002E054FBF0E9
:1007E300902002E054FBF0902002E054FBF09020B4
:1007F30003E054BFF0800E902003E04440F09020CB
:1008030002E04404F0902102E020E22790E604E0B5
:1008130020E720902102E054BFF0902231741DF0B4
:1008230090223374FFF090220BE0547FF075F701B0
:1008330075F701902102E020E21190E604E02354D1
:1008430001FABA010690223A7401F090223374FF40
:10085300F0D2AFD0D0D083D082D0E032C0E0C0821B
:10086300C083C0D075D010C2AF9022337402F09011
:10087300202BE4F0902102E054BFF0902002E054DA
:10088300FBF090214CE030E03F902003E030E6386D
:1008930090A316E05407FABA04159022317403F0BA
:1008A300902238E0FA431201902238EAF080069051
:1008B30022317419F090223374FFF090220BE0542C
:1008C3007FF075F70175F70190223374FFF0D2AF13
:1008D300D0D0D083D082D0E032C0E0C082C083C009
:1008E300D075D010C2AFC29E902233740BF0902605
:1008F30020E030E072902620E054FEF0A207E433BB
:10090300FA9022B4EAF0902002E030E25A20072461
:10091300902601E030E550902603E04404F0D2072E
:100923009066CCE4F0C20375C860C2C690223174ED
:1009330028F08033902231E0FABA2910C2079026BA
:1009430003E054FEF0902603E054FBF09022317450
:100953002AF0D29E90223374FFF090220BE0547F52
:10096300F075F70175F701902143E030E5279021F9
:1009730043E054DFF0902603E020E719902601E0DE
:1009830030E612902126E020E20B902274E054F727
:10099300F0E04408F090223374FFF0D29ED2AFD03F
:1009A300D0D083D082D0E032C0E0C082C083C0D038
:1009B30075D010C2AF9022337405F0902620E05416
:1009C300FDF0A206E433FA9022B4EAF0902601E0A7
:1009D30020E603020A93300603020A93902603E0FB
:1009E3004402F09022317428F0D20690A316E0540A
:1009F30007FABA03028007902636E04480F0906736
:100A030011E4F0C20375C860C2C6902250E054DFFF
:100A1300F09066CCE4F0902143E054DFF090214362
:100A2300E054BFF0902288E054F7F0902603E030C2
:100A3300E715902604E4F0A3F0902602E04420F0AA
:100A4300E054DFF0020B6E9067107401F090A31670
:100A5300E05407FABA0410902604E4F0A3F09026B9
:100A630006E4F0A3F08010902604E4F0A37440F0B1
:100A7300902606E4F0A3F0902602E04420F0E05430
:100A8300DFF0E04440F0902602E054BFF0020B6E2A
:100A9300902601E030E63130062E902603E0C45460
:100AA30001FABA01239022317428F0906711E4F01F
:100AB300C20375C860C2C6902600E054FBF09026BE
:100AC30003E054EFF0020B6E902601E020E6443081
:100AD3000641902603E020E43A902231E0FABA2A54
:100AE30017C206902600E054FBF0902603E054EF73
:100AF300F0902603E054FDF09022317429F0902207
:100B03003374FFF090220BE0547FF075F70175F713
:100B1300018058902601E030E65130064E9067116F
:100B2300E4F0C20375C860C2C6902250E054DFF0FF
:100B3300902274E054F7F0902600E054FBF09026E6
:100B430003E054EFF0902603E054FDF09067107437
:100B530001F09022317429F090223374FFF0902237
:100B63000BE0547FF075F70175F70190223374FFA2
:100B7300F0D2AFD0D0D083D082D0E032C0E0C082F8
:100B8300C083C0D075D010C2AF902102E054F7F0FB
:100B9300902233740AF090223AE0600E90223AE4F5
:100BA300F0902102E04408F08008D20890223174CA
:100BB3002CF090223374FFF0D2AFD0D0D083D08208
:100BC300D0E032C025C0E0C0F0C082C083C0D07581
:100BD300D010C026E581F526240AF581E4FAFBE569
:100BE30026240AF87600C2AF9022337407F09026C9
:100BF30021E020E1030213B1902621E054FDF0D25D
:100C0300AF902603E020E10A902600E020E00302F3
:100C130013B190260BE0FD90260AE0FE90260AE031
:100C2300FCA3E0FFE5262406F8A61408A6179026E1
:100C330009E0FF902608E5262408F8E0F6A3E0087B
:100C4300F6E5262408F830060E902601E023235407
:100C530001FCBC0102801F200A030213B19026018C
:100C6300E030E6030213B1902600E05401FCBC011E
:100C73000280030213B1EEC4540FFCE5262403F8EB
:100C830074035CF6EE0303543FFCA82608087403C0
:100C93005CF6E5262404F874035EF6A826087600BD
:100CA30090A316E05407FCBC0437EDC4540FFCE5D5
:100CB300262405F874035CF6E5262405F8E630E0FF
:100CC3000AE5262405F87604020DB2E5262405F884
:100CD300E620E103020DB2E5262405F87605020DB0
:100CE300B2ED54E0601CC01674E05DFEBEE005D0BA
:100CF300160213B1D01690605AE04408F07A02024B
:100D030012CEED54E07024E5262406F8E654C070B4
:100D13000608E654136002803BE5262408F8E654EF
:100D2300C0700608E6541F6002802974E05DFCBCB5
:100D3300E027E5262406F8E654C0700608E65413B7
:100D430060028010E5262408F8E654C0700608E621
:100D530054DF60057A030212CEE5262405F8743FBA
:100D63005EF6E5262405F8740356FCBC03027A11EB
:100D7300E5262405F8740C56FCBC0C09EA70047AC9
:100D83001380027A10E5262405F8743056FCBC3033
:100D930009EA70047A1580027A10EA60030212CE1F
:100DA300ED0303543FFCE5262405F874035CF6E5E4
:100DB300262405F8E67003020EA5EE543F60057A7B
:100DC3001A0212CEEF30E7030213B1EF30E60F90B1
:100DD300A316E05407FCBC040280030213B190671E
:100DE300A4E0FC60030212CEC012E5262405F8E657
:100DF30025E0FC24B0F582E434E6F583E090263464
:100E0300F0EC24B0FCE434E6FA8C828A83A3E0900D
:100E13002635F0902634E0C4540FC36480948FD0F9
:100E2300124007A8260876208014902634E054F058
:100E33007007A8260876308005A826087610902625
:100E430035E0C4540FFCC36480948E4009A826087F
:100E5300E64408F68018902635E054F07009A82679
:100E630008E6440CF68007A82608E64404F6902614
:100E730035E0540FFCC36480948F400AA82608E62B
:100E83004402F60212CE902635E0540F700AA826CB
:100E930008E64403F60212CEA82608E64401F60249
:100EA30012CEE5262405F8743F5EF6E5262405F800
:100EB300E670030212CE7C00BC0B00501AC017EC84
:100EC30090144893FFE5262405F8E6B51704D017D8
:100ED3008005D0170C80E1BC0B00400C90605AE0F9
:100EE3004410F07A1A0212CEEF30E7030213B1EF87
:100EF30030E60F90A316E05407FCBC040280030203
:100F030013B19067A4E0FC600302118A902635E0D8
:100F1300C4540FC36480948E9228B39217902635DD
:100F2300E0C4540FFCB401009218902635E0540F2E
:100F3300C36480948F9228B39219902635E0540F9E
:100F4300FCB40100921A902634E0C4540FC36480A9
:100F5300948F9228B3921B902634E0C4540FFCB4B0
:100F63000100921CE5262405F8B601030210E0E512
:100F7300262405F8B602030210A7E5262405F8B6D1
:100F83000403021086E5262405F8B605028066E50B
:100F9300262405F8B60803021065E5262405F8B6ED
:100FA3000A02802EE5262405F8B61003021152E545
:100FB300262405F8B61403021040E5262405F8B6E6
:100FC3002003021118E5262405F8B62802804902F9
:100FD300118A201916902635E0540FFC0C90263503
:100FE300EC540FF5F0E054F045F0F0E526240AF850
:100FF300760102118A201A16902635E0540FFC1C44
:10100300902635EC540FF5F0E054F045F0F0E5266A
:10101300240AF8760102118A201B18902634E0C4B2
:10102300540FFC0C902634ECC454F0F5F0E0540F4C
:1010330045F0F0E526240AF8760202118A201C18EE
:10104300902634E0C4540FFC1C902634ECC454F0B6
:10105300F5F0E0540F45F0F0E526240AF876020295
:10106300118A30170302118A902635E0C4540FFC0D
:101073000C902635ECC454F0F5F0E0540F45F0F035
:1010830002118A30180302118A902635E0C4540FE6
:10109300FC1C902635ECC454F0F5F0E0540F45F0F9
:1010A300F002118A20183120192E902635E0C454FD
:1010B3000FFC1C902635ECC454F0F5F0E0540F45BA
:1010C300F0F0902635E0540FFC0C902635EC540FCD
:1010D300F5F0E054F045F0F07B0102118A2017315E
:1010E300201A2E902635E0C4540FFC0C902635ECC4
:1010F300C454F0F5F0E0540F45F0F0902635E05479
:101103000FFC1C902635EC540FF5F0E054F045F03D
:10111300F07B018072201B33201830902634E0C40A
:10112300540FFC0C902634ECC454F0F5F0E0540F4B
:1011330045F0F0902635E0C4540FFC1C902635ECA6
:10114300C454F0F5F0E0540F45F0F07B01803820F3
:101153001C33201730902634E0C4540FFC1C902617
:1011630034ECC454F0F5F0E0540F45F0F09026351C
:10117300E0C4540FFC0C902635ECC454F0F5F0E0B9
:10118300540F45F0F07B01902635E0C4540FC3643F
:1011930080948E9228B39217902635E0C4540FFCA6
:1011A300B401009218902635E0540FC36480948FE5
:1011B3009228B39219902635E0540FFCB4010092A3
:1011C3001A902634E0C4540FC36480948F9228B3DA
:1011D300921B902634E0C4540FFCB40100921CE52A
:1011E300262403F8B60117201C06EB600A30170704
:1011F300A8260876308024A826087610801DE526C8
:101203002403F8B60215201B06EB600A301807A862
:10121300260876208005A826087610E526240AF8F5
:10122300E67036A8260808B60115301809A826085E
:10123300E6440CF68023A82608E64404F6801AA8A0
:10124300260808B60213301709A82608E64408F64C
:101253008007A82608E64404F6E5262404F8B60128
:101263001B201A06EB600C301709A82608E6440376
:10127300F6802AA82608E64401F68021E526240400
:10128300F8B60219201906EB600C301809A82608D5
:10129300E64402F68007A82608E64401F6E526247C
:1012A3000AF8B6010FA82608E625E025E0FBA826E4
:1012B30008EB46F6E526240AF8B6020FA82608E648
:1012C3000303543FFBA82608EB46F6EA605990A3B4
:1012D30016E05407FBC374818BF063F08095F040F4
:1012E30046902607E0FB5313E0BBE00280109026F4
:1012F30006E0FBA3E0FC90679CEBF0A3ECF0740C1E
:101303005D44E0902607F053163F902606EEF07BEF
:1013130000902604EAF0A3EBF0902602E04420F0CC
:10132300E054DFF00213B1A8260886127B00902652
:1013330004EAF0A3EBF0902603E020E740200A3D07
:10134300906711E0FA600F902605E0FA431280904F
:101353002605EAF08027906710E0FA602090A31634
:10136300E05407FAC374818AF063F08095F0400D6E
:10137300902605E0FA431240902605EAF0902607EE
:10138300E0FA5312E0BAE01B90679CE0FAA3E0FB9B
:10139300902606EAF0A3EBF0902602E04440F0E04A
:1013A30054BFF0902602E04420F0E054DFF0902296
:1013B3003374FFF0D2AF852681D026D0D0D083D02E
:1013C30082D0F0D0E0D02532C0D075D010C2AFD2D9
:1013D300AFD0D032C0E0C082C083C0D075D010C2BD
:1013E300AFC29F902233740CF0902143E030E61C8F
:1013F300902143E054BFF0902601E030E60E9021A7
:1014030026E030E207902274E054F7F09022337420
:10141300FFF0D29FD2AFD0D0D083D082D0E032C001
:10142300D075D010C2AFD2BBD2BBD2AFD0D032C0F6
:10143300D075D010C2AF10980280001099028000BE
:10144300D2AFD0D032000405080A142802012010BC
:020000040001F9
:109F9600C026858126058105810581902401E0C4BE
:109FA600035401FA902400E0C4540F90671FF09008
:109FB6002402E0235401906720F0902402E023233A
:109FC6005401906721F0900058E0232354019067D4
:109FD60022F0900058E0C4035401906723F09024C7
:109FE60010E0C45401906724F0902580E05401FBF2
:109FF60090604FE0235401FC900218E003035401E3
:10A00600FD90604FE023235401FE9024A2E0543FCC
:10A01600FFA82608A607902482E0543FFFA826083A
:10A0260008A6079024A3E0543FFFE5262403F8A6DC
:10A0360007902483E0543FFFEA6019902401E0442E
:10A0460040F0E054DFF0902402E030E1F990240281
:10A05600E054FEF0C007902580E054F7F090240508
:10A06600E0540FF0902406E054C0F0900218E0444B
:10A0760004F090604FE054BFF090E60AE054F7F029
:10A08600C002C003C004C005C006C007780379D665
:10A096007A041200B3900058E054DFF0E04440F038
:10A0A600E054EFF078AD79AC7A041200B3D00790A3
:10A0B60067A5E0FF4401F0902230743BF0902580C4
:10A0C600E04408F0C007786D79A27A011200B3D097
:10A0D60007D006D005D004D003D002D0079025F5CE
:10A0E600E030E0439025F5E030E4F2902401E044CE
:10A0F60040F0E054DFF0902402E030E1F9902402D1
:10A10600E054FEF0C002C003C004C005C006C0078C
:10A11600786D79A27A011200B3D007D006D005D0A7
:10A1260004D003D00280B69025F4E030E70B9066A9
:10A1360062E4F09066F87401F0902430740CF090AC
:10A146002434740CF0902430EF13E092E3F0902462
:10A1560030A8260808E613E092E2F0902434E526BB
:10A166002403F8E613E092E3F0902434A82608E6E8
:10A1760013E092E2F0902430E4F0902434F090243E
:10A1860001E054DFF0902402E030E1F9902402E08F
:10A1960054FEF0902401EA13E092E5F0906722E085
:10A1A60090005813E092E6F0906723E09000581371
:10A1B600E092E5F090671FE0902400C454F0F5F0BB
:10A1C600E0540F45F0F0906720E090240213E092EF
:10A1D600E7F0906721E090240213E092E6F09067A2
:10A1E60024E090241013E092E4F0902580EB13E035
:10A1F60092E0F090604FEC13E092E7F0900218EDD9
:10A2060013E092E2F090604FEE13E092E6F0906673
:10A2160062E4F0E0FB906661E0FCC002C0038C8261
:10A226001218231581D0029025F5E04408F09025F8
:10A23600F5E030E2F99025F5E054F7F0EA60129087
