:020000040001F9
:10800000C01885811805819022307410F090A31655
:10801000E05407FABA03059067AFE0FA900228E04F
:1080200003035407FB530304E4BB000104FB90600B
:1080300002E054F7F0906006E04404F090002CE079
:108040004401F0900C90E04480F0E054BFF0900CBC
:10805000ACE04420F0900C88E04410F0900005C0A3
:1080600002C003782F79B67A011200B3D003D00290
:10807000900C8CE030E7F9EA2A2482FAE43465FCBB
:10808000EB2AFBE43CFD900CA8E0C4540FFA530229
:108090000F8B828D83EAF0900CA4E030E5079060AE
:1080A00006E054FBF0900C88E054EFF0906002E0A2
:1080B0004408F0851881D0180200C5C018858118C1
:1080C0000581902230740FF090A316E05407FABA9D
:1080D00003059067AFE0FA900228E003035407FB22
:1080E000530304E4BB000104FB906001E054FDF085
:1080F00090002CE054FEF0EA2AFA2482FCE4346575
:10810000FDEB2CF582E43DF583E0900CA0540FF5D7
:10811000F0E054F045F0F0900C90E0547FF0900CBB
:1081200090E054BFF0900C88E04410F0900005C03F
:1081300002C003782F79B67A011200B3D003D002BF
:10814000900C8CE030E7F9900C88E054EFF0900C44
:1081500090E04440F0900CACE054DFF0E04480F05C
:10816000E054BFF0900C88E04410F0900005C0028D
:10817000C003782F79B67A011200B3D003D00290F1
:108180000C8CE030E7F9EA249AFCE43465FDEB2C32
:10819000FCE43DFD900CD4E00303543FFE53063F46
:1081A0008C828D83EEF0EA24A6FCE43465FDEB2C92
:1081B000FCE43DFD900CD0E0C4035407FE530607D9
:1081C0008C828D83EEF0EA248EFAE43465FCEB2A8F
:1081D000FBE43CFD900CC8E003035401FA53020198
:1081E0008B828D83EAF0900C88E054EFF090600170
:1081F000E04402F0851881D0180200C5900228E002
:10820000541C600C900228E003035407FABA0422BD
:10821000900C90E04440F0900CACE054DFF0900CF7
:10822000ACE0547FF0E04440F0900C88E04408F06B
:10823000801A900C88E054F7F0900005782F79B6FA
:108240007A011200B3900C8CE030E6F90200C59080
:1082500060087401F09067AFE0FA9067B0E0FB90BF
:108260002200E0FC90E650E0FDECB5056D90661C48
:10827000E0FC706690833CE020E10B9082D8E054F3
:10828000034480F0803890E632E0C4540125E024B5
:10829000CCFCE434E5FD90E61EE0FE2CF582E43DE6
:1082A000F583E0FC90E63CE0FD90660DF09082D80E
:1082B000EC2C25E054FCF5F0E0540345F0F09082FE
:1082C000D8E04401F090822CE04480F09082D8E025
:1082D00054FEF090822CE0547FF0EA246DF582E4A5
:1082E0003465F583E0900C3425E025E0541CF5F06E
:1082F000E054E345F0F090E632E003540175F003FA
:10830000A42470FCE43465FDEA2CF582E43DF58399
:10831000E0900C6825E025E054FCF5F0E0540345BE
:10832000F0F0EA2476F582E43465F583E0900C44BD
:10833000C42354E0F5F0E0541F45F0F090E632E03D
:108340000303540175F003A42479FCE43465FDEAC9
:108350002CF582E43DF583E0900C8025E025E05487
:10836000FCF5F0E0540345F0F0900C24E054BFF02D
:10837000900C24E0547FF0900C4CE054DFF0900C13
:108380004CE0547FF0900C3CE054BFF0900C3CE08B
:10839000547FF0900C70E054DFF0900C70E0547F4C
:1083A000F0900C00E04408F0900228E0030354072A
:1083B000FC530404E4BC000104FC900038E05403C6
:1083C0004478F0EA2AFD249AFEE43465FFEC2EF5A9
:1083D00082E43FF583E0900CCC25E025E054FCF5E9
:1083E000F0E0540345F0F0ED24A6FEE43465FFEC24
:1083F0002EF582E43FF583E0900CC8C42354E0F5E9
:10840000F0E0541F45F0F0ED248EFDE43465FEEC01
:108410002DF582E43EF583E0900CC013E092E0F08D
:10842000900CACE054DFF0900CACE0547FF0900C7A
:1084300088E04410F090E631E023540175F003A485
:108440002446FCE43465FDEA2CF582E43DF583E046
:10845000900E4025E025E054FCF5F0E0540345F093
:10846000F0EA244CF582E43465F583E090021C13B5
:10847000E092E1F0906616E0FA90E633E0035401F2
:1084800075F005A4244FFCE43465FDEA2CF582E484
:108490003DF583E0900E7C25E025E054FCF5F0E00E
:1084A000540345F0F0EA2459F582E43465F583E09D
:1084B00090022013E092E1F090E633E0540175F071
:1084C00005A4245EFCE43465FDEA2CF582E43DF568
:1084D00083E0900E6025E025E054FCF5F0E05403C5
:1084E00045F0F0EA2468F582E43465F583E0900015
:1084F0004013E092E1F090E632E023540175F0037E
:10850000A4243DFAE43465FCEB2AF582E43CF583CF
:10851000E0FA900E2425E025E054FCF5F0E0540349
:1085200045F0F0900258E05407602E90E632E023C8
:1085300023540175F003A42434FAE43465FCEB2AD7
:10854000F582E43CF583E0FA900E9C25E025E054AA
:10855000FCF5F0E0540345F0F0900E2CE054DFF011
:10856000900E2CE0547FF0900E68E054DFF0900EF7
:1085700068E0547FF0900E48E054DFF0900E48E041
:10858000547FF0900258E054077017900E08E054A2
:10859000DFF0900E08E0547FF0900E84E04420F06D
:1085A0008015900E08E04420F0900E84E054DFF037
:1085B000900E84E0547FF0900E00E04402F0900CA6
:1085C00000E030E1F9900C00E054F7F0900C8CE002
:1085D00030E7F9900C88E054EFF0900E04E030E4BE
:1085E000F9900E00E054FDF0906008E4F00200C540
:1085F0009060087401F09067AFE0FA246DF582E4B2
:108600003465F583E0900C3425E025E0541CF5F04A
:10861000E054E345F0F090E632E003540175F003D6
:10862000A42470FBE43465FCEA2BF582E43CF5837A
:10863000E0900C6825E025E054FCF5F0E05403459B
:10864000F0F0EA2476F582E43465F583E0900C449A
:10865000C42354E0F5F0E0541F45F0F090E632E01A
:108660000303540175F003A42479FBE43465FCEAA8
:108670002BF582E43CF583E0900C8025E025E05466
:10868000FCF5F0E0540345F0F0900C24E054BFF00A
:10869000900C24E0547FF0900C4CE054DFF0900CF0
:1086A0004CE0547FF0900C3CE054BFF0900C3CE068
:1086B000547FF0900C70E054DFF0900C70E0547F29
:1086C000F0900C00E04408F0900228E00303540707
:1086D000FB530304E4BB000104FBEA2AFA249AFCDE
:1086E000E43465FDEB2CF582E43DF583E0900CCCA1
:1086F00025E025E054FCF5F0E0540345F0F0EA24D1
:10870000A6FCE43465FDEB2CF582E43DF583E090B6
:108710000CC8C42354E0F5F0E0541F45F0F0EA24FF
:108720008EFAE43465FCEB2AF582E43CF583E0FA4A
:10873000900CC013E092E0F0900CACE054DFF090AD
:108740000CACE0547FF0900C88E04410F0900C00EA
:10875000E030E1F9900C00E054F7F0900C8CE03040
:10876000E7F9900C88E054EFF0906008E4F0020024
:10877000C5E582FA25E0FB24D0FCE434E5FD90E673
:108780001FE02CFCE43DFD908300E0C423541FFE59
:1087900053061F8C828D83EEF0EB24D4FBE434E58A
:1087A000FC90E61FE02BFBE43CFC908304E0540FBC
:1087B000FD53050F8B828C83EDF0EA2A25E024D847
:1087C000FAE434E5FB90E61FE025E02AFAE43BFBFF
:1087D000906621E0FCA3E0FD8A828B83ECF0A3EDA0
:1087E000F00200C5E582FA25E0FB24D0FCE434E584
:1087F000FD90E61FE0FE2CF582E43DF583E09083DA
:1088000000C40354F8F5F0E0540745F0F0EB24D42D
:10881000FBE434E5FC90E61FE0FD2BF582E43CF53B
:1088200083E0908304540FF5F0E054F045F0F0EA53
:108830002A25E024D8FAE434E5FB90E61FE025E0A1
:108840002AF582E43BF583E0FAA3E0FB906621EA97
:10885000F0A3EBF08B04908308ECC42354E0F5F014
:10886000E0541F45F0F090830CEAF00200C5C2AF5F
:10887000906621E0FAA3E0FBFC908308ECC423544B
:10888000E0F5F0E0541F45F0F090830CEAF090839F
:1088900004E04440F0E054BFF0D2AF0200C5906065
:1088A00003E054FEF075820078EA798F7A011200B5
:1088B000B3902401E054DFF0902402E054FEF090E5
:1088C0002033E0C4540FFA906615F090E62CE05483
:1088D0000FFBC0038A8212303BAA82158190661575
:1088E000EAF0902117E0C4540FFA906616F090E673
:1088F0002CE0540FFBC0038A8212303BAA82158100
:10890000906616EAF0906301E0FAFB906300E0FCE9
:10891000B50300403AEB75F050A4FCADF02404FE22
:10892000ED3463FF8E828F83A3E0FEBE01028016CA
:10893000EC2404FCED3463FD74162CF582E43DF563
:1089400083E0FCBC0104D2128002D2110B80BC90E7
:108950006615E0FA75F050A4FBACF02404F582EC47
:108960003463F583E0FD90678EF0BD021390A3168B
:10897000E05407FEBE0309C20F9067B0EDF08024FB
:108980007401B50500400A90A316E05407FEBE042A
:1089900009C20F9067B0E4F0800AED24FF920F90B7
:1089A00067B0EDF0EB2404FBEC3463FC8B828C832A
:1089B000A3E024FF9210902200E0FB90E650E0FC40
:1089C000EBB50402800E90E604E030E43E90A3296B
:1089D000E020E33790831CE054F94404F090A34175
:1089E000E054FDF0E04401F090A341E04404F09035
:1089F000A329E04408F090E607E030E40E90A32BB2
:108A0000E04402F090A32BE04404F078CC79B87AEB
:108A1000011200B3E5828583F0906617F0A3E5F0BC
:108A2000F030141C90E60874FCF0A374FFF0A3F07F
:108A3000A3740FF0783679907A011200B3028DD9C1
:108A4000902102E054F7F0902003E04404F09020DD
:108A500003E04401F0900218E04404F0900244E086
:108A6000547FF090600AE054DFF090678EE0FB9056
:108A7000678FE0FCEBB50402800D902238E0FB53D9
:108A80000301BB01028018902238E0FB530301BBB5
:108A9000010D90A316E05407FBBB0403028C4E901B
:108AA0002200E0FB90E650E0FCEBB5042D90E608D8
:108AB000E054FEF0902238E0FB530301BB0102803A
:108AC0000978D579DE7A011200B3A212B39228E4B4
:108AD00033FB90A32413E092E0F075820A780679C4
:108AE000907A011200B3902200E0FB90E650E0FC87
:108AF000EBB504028003028BD1781179DE7A011282
:108B000000B390A316E05407FBBB0302801390A3AD
:108B100016E05407FBC374818BF063F08095F0403E
:108B2000047B0180027B007C00BC02004003028BBE
:108B3000BD8B82C0041243E8123C78D00490661CBE
:108B4000E0FD704DC004781179DE7A011200B39017
:108B5000A319E054EFF0780679C57A011200B378D2
:108B6000E179DD7A011200B3D00490833CE020E18A
:108B7000199082D8E054034480F090E64CE044021F
:108B8000F090E64DE04404F08007C0041234B3D006
:108B90000420152990A316E05407FDBD030280139D
:108BA00090A316E05407FDC374818DF063F08095A7
:108BB000F040047B0080027B010C028B2990661C34
:108BC000E0FB700D902238E0FB430302902238EB6B
:108BD000F075820B780679907A011200B3906624C2
:108BE000E0FB606A301260782979DE7A011200B306
:108BF0007B00BB020050458B82C00312479E90A3AE
:108C000024E04420F0900005782F79B67A01120014
:108C1000B390A34DE04404F0900005782F79B67A24
:108C2000011200B390A333E054F7F078D879E17AD9
:108C3000011200B3D0032015030B80B6784179DE12
:108C40007A011200B3800790A324E04401F07582FA
:108C50000C780679907A011200B3906301E0FBFA78
:108C6000906300E0FBB502004038906616EAF09091
:108C70006615EAF0C00212576978E279997A011212
:108C800000B3782179AC7A011200B3780079807A48
:108C9000011200B378BB79807A011200B3D0020AC6
:108CA00080BE902238E0FA530201BA0103028DD946
:108CB000789E79F07A011200B31258867582167880
:108CC0000679907A011200B3902200E0FA90E65003
:108CD000E0FBEAB50309908200E04404F0800790CD
:108CE0008200E030E2F990E6DAE0601F902200E0D6
:108CF000701112219075820378EA798F7A0112003F
:108D0000B3800890E6D2E0FABA03F890E6DEE060BD
:108D100021902200E0FABA011112219075820378A5
:108D2000EA798F7A011200B3800890E6D6E0FABAA9
:108D300003F8902200E0FA90E650E0FBEAB5030960
:108D4000908200E054FBF08007908200E020E2F97E
:108D5000758218780679907A011200B3902200E0AB
:108D6000FA90E650E0FBEAB50309908200E044087F
:108D7000F08007908200E030E3F990E6DAE0601FCF
:108D8000902200E07011121B1775820578EA798F26
:108D90007A011200B3800890E6D2E0FABA05F890A2
:108DA000E6DEE06021902200E0FABA0111121B1702
:108DB00075820578EA798F7A011200B3800890E60F
:108DC000D6E0FABA05F8908200E054F7F075820018
:108DD000780679907A011200B3902003E054FBF0FA
:108DE000902003E054FEF090216AE054FBF09021C3
:108DF00063E054BFF0900244E04480F090600AE0E9
:108E00004420F0906638E4F090822CE054EFF0902B
:108E1000E6CDE4F0906003E04401F090A318E03068
:108E2000E52C90E650E07006902200E0601090E69D
:108E300050E0FABA0111902200E0FABA010990A3B9
:108E400018E054DFF0800790A318E020E5F990A324
:108E500016E05407FABA031190E61FE0906791F00C
:108E600090E61EE0FA906790F090662BE4F0902276
:108E70000BE04480F0D2AF906623E0FA70089022B5
:108E8000307419F08015902007E030E5089022300A
:108E90007419F08006902230741AF00200C590E632
:108EA00007E030E003028FE7D2167A007403B502C0
:108EB000005003028FD4EA2A2A908EBD73028EC915
:108EC000028F11028F14028F9FC00278CC79B87A7A
:108ED000011200B3E5828583F0D002906617F0A3FB
:108EE000E5F0F0906624E0FB7003028FD490A34E6F
:108EF000E020E503028FD490E60DE020E503028F29
:108F0000D4C00278FD79E87A011200B3D002028F52
:108F1000D4028FD4902200E0FB90E650E0FCEBB549
:108F200004028003028FD490661CE0FB6003028F72
:108F3000D490A34FE020E003028FD4200303028FDC
:108F4000D490E60DE020E603028FD4C0021238FC74
:108F5000D00290E606E0541C7041906626E0FB7457
:108F6000F05BFCBC100C758BFB758DFFD28EC203C1
:108F7000806274F05BFCBC200C758BD8758DFFD2C1
:108F80008EC203804F5303F0BB300C758B9C758DE4
:108F9000FFD28EC203803DD2038039D20380359048
:108FA0002200E0FB90E650E0FCEBB5042790661C45
:108FB000E0FB702090A319E030E61990E60EE0C4C3
:108FC000035401FBBB010DC002787579CB7A011205
:108FD00000B3D002902231E0700B8A030ABB040078
:108FE0005003028EACC2160200C5AA82902200E095
:108FF000700790E6D2EAF0800590E6D6EAF090227B
:1090000032EAF00200C5AA82C00278EA798F7A01BA
:109010001200B3D00290E6D2E0FBB5020A90E6D689
:10902000E0FBB50202800C90E6DAE0600690E6DE36
:10903000E070E20200C5C0188581180581124C78E5
:10904000902200E0FA90E650E0FBEAB50374781154
:1090500079DE7A011200B39082B4E054074480F0C4
:109060009082B4E054F84402F09082C8E0540FF0CB
:1090700030111B30100BA20FB39228A20F9229803F
:1090800018A20F9228A20FB3922A9229800BA20F46
:10909000B3922A9228A20F9229A20FE43390E61EDF
:1090A000F0A228E433F582C0251243E8D02590A32E
:1090B00019E054EFF0C02578E179DD7A011200B3B0
:1090C000D025A212B39228E43390A32413E092E0B7
:1090D000F0906624E0FA6077301274C02578297920
:1090E000DE7A011200B3D025A229E433F5821247BB
:1090F0009E908300E054074480F0908304E054F095
:109100004408F0908308E0541F4460F090830C748E
:1091100084F0908304E054CFF090A324E04420F046
:10912000900005782F79B67A011200B390A34DE034
:109130004404F0900005782F79B67A011200B390BC
:10914000A333E054F7F0784179DE7A011200B3904E
:109150006623E0FA7009787179DE7A011200B3852E
:109160001881D0180200C59026647403F0A3F0A300
:109170007404F0A3E4F0902664F0A3F0A3F0A3F04D
:1091800090215B7460F0E4F0902102E030E60790FB
:109190002002E020E226902678E0FAA3E0A3E0FC9B
:1091A000A3E0FD5302027B0053041F5305A0902649
:1091B00078EAF0A3EBF0A3ECF0A3EDF090201BE035
:1091C00030E440902007E030E507902007E020E4FD
:1091D00016902002E054FBF0902102E054BFF09082
:1091E00022307421F08014902102E020E20D9021C1
:1091F00002E054BFF09022307422F0902053741398
:10920000F0E4F090201AE030E14F902200E0FA60A4
:1092100005BA011C800E902034E05401FA90E6510A
:10922000EAF0800C902034E05401FA90E652EAF023
:109230009020527402F0E4F090E651E0601B90E65A
:1092400052E0601590A02FE04410F090A02FE04471
:1092500020F090A327E04408F09022E4E030E00DF5
:1092600090602E7402F0906033E04401F02016020A
:109270008021C216902200E0FA90E650E0FBEAB5A9
:1092800003031237B7908304E054BFF0908310E0DB
:10929000547FF00200C57A007B007C00900E00E055
:1092A00030E009900E00E054FEF07A01900C00E0EE
:1092B00030E209900C00E054FBF07B01900C88E058
:1092C00030E309900C88E054F7F07C01EA600790E5
:1092D0000E04E030E3F9EB6007900C00E030E0F9B9
:1092E000EC6007900C8CE030E6F90200C5C01885F0
:1092F0008118058105819061707401F09066F7E036
:10930000FABA0102800B90E607E0035401FABA01B1
:10931000062008030298929060A3E4F0906799E019
:10932000FA906174E0FBA3E0FCEB20E0030293AD54
:10933000902163E0547FF090240CE0547FF0902162
:1093400002E04480F0E0547FF0C00212300C902420
:1093500003E054BFF0758E07902410E04404F0E061
:1093600054FBF0758E009022D0E04480F09022D41F
:10937000E04480F09022D0E0547FF09022D4E0547A
:109380007FF0789A79987A011200B3D0029060A0A9
:10939000E030E119C002120608758200120630752D
:1093A0008210120630758212120630D0029061745B
:1093B000E0FBA3E0FCEB30E11EC00274FFC0E090D4
:1093C0000000120C7D1581D002902163E04480F0F2
:1093D00090240CE04480F0906174E0FBA3E0FCEB8F
:1093E00020E2030294BC758201C002120B737582E5
:1093F00000120FECD002906174E0FBA3E0FCEB30B4
:10940000E50FC002E4C0E0900A01120C7D1581D086
:1094100002758B18758DFCD28EC203C0027401C018
:10942000E0900A01120C7D1581D002906661E0FB8C
:10943000B502028065EBFC3395E0FDEC24FEFEED09
:1094400034FFFFA81808A602EA3395E008F6A8182A
:1094500008C3E69E08E664808FF063F08095F050C4
:10946000040A0A802074022CFCE43DFDA81808C3FD
:10947000EC96ED64800886F063F08095F050041A55
:109480001A80028B02906662E0FBC002C0038A82EF
:109490001230761581D00230038130030F9060A323
:1094A000E0FA4302029060A3EAF0C203C28EC28FC8
:1094B000758200120630758210120630906174E0D9
:1094C000FAA3E0FBEA20E4030295F8902401E054BB
:1094D000FDF0902401E054FEF0906174E0FAA3E006
:1094E000FBEA30E522758201120B73758200120FC0
:1094F000EC90240BE04480F0E054BFF0E4C0E09036
:109500000A01120C7D1581906174E0FAA3E0FBEA78
:1095100030E63120270C758201120B737582001220
:109520000FEC90240BE04480F0E054BFF090240254
:10953000E04408F0E054FBF07402C0E0900A01122D
:109540000C7D1581906174E0FAA3E0FBEA30E742FC
:1095500020270C758200120B73758202120FEC909B
:10956000240BE04480F0E054BFF0902402E0440873
:10957000F0E054FBF030080E7402C0E090000012DE
:109580000C7D1581800C7402C0E0900302120C7DEA
:109590001581906174E0FAA3E0FB30E05B20270CBA
:1095A000758200120B73758202120FEC90240BE08F
:1095B000547FF090240BE054BFF0902402E054F765
:1095C000F0902402E054FBF0906715E0FA600E740E
:1095D00004C0E0900204120C7D1581800C7402C05E
:1095E000E0900204120C7D1581120608758210129B
:1095F0000630758200120630906174E0FAA3E0FB39
:1096000030E15E902401E054FDF0902401E054FE2E
:10961000F090240BE0547FF0E04440F0902402E00E
:1096200054F7F0E04404F07403C0E0900A01120C17
:109630007D158190240BE0547FF090240BE054BF03
:10964000F0902402E054F7F0902402E054FBF07410
:1096500003C0E0900302120C7D1581758212120680
:1096600030906174E0FAA3E0FB30E24F75820012A3
:109670000B73758202120FEC902401E04402F0900B
:10968000240BE04480F0E054BFF0E4C0E090080216
:10969000120C7D158190240BE0547FF090240BE098
:1096A00054BFF0E4C0E0900404120C7D1581758273
:1096B00001120630902401E054FDF0906174E0FA4C
:1096C000A3E0FB20E40302980820270C7582001217
:1096D0000B73758202120FEC902404E054BFF090DB
:1096E0002401E04401F07A007B00758202C002C0D0
:1096F000031204FCD003D00290240BE04480F0E07D
:1097000054BFF0202715C002C003E4C0E0900A0255
:10971000120C7D1581D003D0028013C002C003E477
:10972000C0E0900802120C7D1581D003D002902475
:109730000BE0547FF0E04440F0202715C002C00346
:10974000E4C0E0900804120C7D1581D003D00280A3
:1097500013C002C003E4C0E0900604120C7D158122
:10976000D003D002EB7010758202C002C003120653
:1097700030D003D0028021EA7010758203C002C08D
:1097800003120630D003D002800E758204C002C0DE
:1097900003120630D003D0029060A0E030E35BEB10
:1097A000701F7B01906661E0FCC002C003906700FF
:1097B000E0C0E08C821230761581D003D002029690
:1097C000EAEA701F7A01906661E0FCC002C0039073
:1097D0006702E0C0E08C821230761581D003D0029F
:1097E0000296EA906701E0FA906662F0906661E0A6
:1097F000FBC0028B821230761581902401E054FE6A
:10980000F0902404E04440F0906174E0FAA3E0FB9F
:1098100030E66890604FE020E661902580E04401EA
:10982000F090605AE020E2147582011204FC78D9AD
:1098300079987A011200B31204798009906039E0B6
:10984000F582120479902580E04404F0E054FBF0A6
:1098500090605AE030E20E74FFC0E0902008120CD5
:109860007D1581800C74FFC0E0900A05120C7D15F7
:1098700081120257AA82906170EAF090605AE0204B
:10988000E21020080D7582011204FC902580E0543E
:10989000FEF0851881D0180200C5902403E0442012
:1098A000F0E054DFF0E04402F0902403E054FDF0D7
:1098B000E04401F0E054FEF0758B9C758DFFD28E74
:1098C000C20320031190240BE030E5F612300C9017
:1098D000240BE030E5EC0200C5906158E0FA90619D
:1098E00059E0FBC0038A8212303BAB8215818B02A8
:1098F00090615AE0FBC0038A8212303BAB82158133
:109900008B0290615BE0FBC0038A8212303BAB822A
:1099100015818B0290615CE0FBC0038A8212303BB0
:10992000AB8215818B0290615DE0FBC0038A8212DD
:10993000303BAB8215818B0290615EE0FBC0038AF5
:109940008212303BAB8215818B0290615FE0FBC0DD
:10995000038A8212303BAB8215818B0290E6AFE026
:10996000C4540FFB8BF005F0EA8002C313D5F0FB63
:0F997000FA90E6AFE0540FFB2AFAF5820200C529
:020000040000FA
:1000DE00D315D3111003D77590550040000280013F
:0A00EE000010D3019300D755D3058D
:020000040001F9
:10997F00902402E054EFF0900054E04408F090007F
:10998F0054E04404F0900054E04402F0900054E09E
:10999F004401F0900058E04480F0902401E044042A
:1099AF00F0902418E054EFF0902418E054DFF0907A
:1099BF002405E054FEF0902405E054F7F030271012
:1099CF00902400E0540F44C0F0902405E04402F0CE
:0399DF000200C5BE
:020000040000FA
:10021D00C018858118AA82AB83ACF0FDE51824FACD
:10022D00F8C3E69A08E69B08E69C08E69D50098A05
:10023D00828B838CF0ED800FE51824FAF886820806
:10024D0086830886F008E6D01822C018E581F518D7
:10025D002408F581902560E0FAA3E0FBA3E0FCA360
:10026D00E0FDE5182405F8A60208A60308A6040873
:10027D00A605902564E0FEA3E0FFA3E0FAA3E0FB52
:10028D00C006C007C002C003E5182405F886820821
:10029D0086830886F008E612021DAA82AB83ACF0B5
:1002AD00FDE58124FCF581E5182405F8A60208A6D4
:1002BD000308A60408A605902568E0FAA3E0FBA3B1
:1002CD00E0FCA3E0FDC002C003C004C005E5182496
:1002DD0005F886820886830886F008E612021DAAB4
:1002ED0082AB83ACF0FDE58124FCF581E518240596
:1002FD00F8A60208A60308A60408A60590256CE03A
:10030D00FAA3E0FBA3E0FCA3E0FDC002C003C00420
:10031D00C005E5182405F886820886830886F0084E
:10032D00E612021DAA82AB83ACF0FDE58124FCF53B
:10033D0081E5182405F8A60208A60308A60408A658
:10034D0005902570E0FAA3E0FBA3E0FCA3E0FDA877
:10035D001808A60208A60308A60408A60590257489
:10036D00E0FEA3E0FFA3E0FAA3E0FBC006C007C0D8
:10037D0002C003A8180886820886830886F008E65E
:10038D0012021DAA82AB83ACF0FDE58124FCF58140
:10039D00A81808A60208A60308A60408A605902515
:1003AD0078E0FAA3E0FBA3E0FCA3E0FDC002C003EC
:1003BD00C004C005A8180886820886830886F00840
:1003CD00E612021DAA82AB83ACF0FDE58124FCF59B
:1003DD0081A81808A60208A60308A60408A6059079
:1003ED00257CE0FAA3E0FBA3E0FCA3E0FDC002C086
:1003FD0003C004C005A8180886820886830886F005
:10040D0008E612021DAA82AB83ACF0FDE58124FC47
:10041D00F581A81808A60208A60308A60408A605D3
:10042D0090E6AEE0FAE4FBFCFDE5182405F8C3E622
:10043D009A08E69B08E69C08E69D500575820080AB
:10044D002590E6ACE0FAA3E0FB7C007D00A818083F
:10045D00C3EA96EB0896EC0896ED08965005758262
:10046D00008003758201851881D01822AA829024FC
:10047D0040EA543FF5F0E054C045F0F0902441EAD5
:10048D00543FF5F0E054C045F0F0902442EA543F5B
:10049D00F5F0E054C045F0F0902443EA543FF5F0F8
:1004AD00E054C045F0F0902460EA543FF5F0E0547C
:1004BD00C045F0F0902461EA543FF5F0E054C0459A
:1004CD00F0F0902462EA543FF5F0E054C045F0F0AE
:1004DD00902463EA543FF5F0E054C045F0F09024C9
:1004ED0030740FF0E4F0902434740FF0E4F022AA8D
:1004FD0082BA01028008BA0202805F0206007440CF
:10050D00C0E0E4C0E07478C0E07461C0E0E4C0E035
:10051D0090244075F000782C79BA7A011200B3E579
:10052D008124FBF58190243074FFF0A3F0A3F0A398
:10053D00747FF0902430E4F0A3F0A3F0A3F09024A6
:10054D003474FFF0A3F0A3F0A3747FF0902434E48F
:10055D00F0A3F0A3F0A3F0020600906178E09024E0
:10056D0040543FF5F0E054C045F0F0906179E090D3
:10057D002441543FF5F0E054C045F0F090617AE02D
:10058D00902442543FF5F0E054C045F0F090617B6B
:10059D00E0902443543FF5F0E054C045F0F09061F5
:1005AD0098E0902460543FF5F0E054C045F0F09091
:1005BD006199E0902461543FF5F0E054C045F0F0AE
:1005CD0090619AE0902462543FF5F0E054C045F0FC
:1005DD00F090619BE0FA902463543FF5F0E054C035
:1005ED0045F0F0902430740FF0E4F0902434740F43
:1005FD00F0E4F090240BE030E5F9227440C0E0E423
:10060D00C0E07480C0E07424C0E0E4C0E090617884
:10061D0075F000782C79BA7A011200B3E58124FBCC
:10062D00F58122AA82BA00028024BA01028073BA2F
:10063D0002030206F0BA0303020731BA04030207EC
:10064D0072BA10030207B3BA12030207DB22902419
:10065D00D0E0906148F09024D1E0906149F0902471
:10066D00D2E090614AF09024D3E090614BF0902459
:10067D00F0E090614CF09024F1E090614DF0902409
:10068D00F2E090614EF09024F3E0FA90614FF0901B
:10069D00240BE030E2047A0180027A00906171EA65
:1006AD00F0229024D0E0906150F09024D1E0906140
:1006BD0051F09024D2E0906152F09024D3E09061FB
:1006CD0053F09024F0E0906154F09024F1E09061AB
:1006DD0055F09024F2E0906156F09024F3E0906193
:1006ED0057F0229024D0E0906158F09024D1E09002
:1006FD006159F09024D2E090615AF09024D3E090AB
:10070D00615BF09024F0E090615CF09024F1E0905A
:10071D00615DF09024F2E090615EF09024F3E09042
:10072D00615FF0229024D0E0906160F09024D1E0E0
:10073D00906161F09024D2E0906162F09024D3E05A
:10074D00906163F09024F0E0906164F09024F1E00A
:10075D00906165F09024F2E0906166F09024F3E0F2
:10076D00906167F0229024D0E0906168F09024D1E0
:10077D00E0906169F09024D2E090616AF09024D30A
:10078D00E090616BF09024F0E090616CF09024F1BA
:10079D00E090616DF09024F2E090616EF09024F3A2
:1007AD00E090616FF0227440C0E0E4C0E074D0C00E
:1007BD00E07424C0E0E4C0E090610075F000782C96
:1007CD0079BA7A011200B3E58124FBF581229024D8
:1007DD00C0E0547F9061B8547FF5F0E0548045F04F
:1007ED00F09024C1E0547F9061B9547FF5F0E0544E
:1007FD008045F0F09024C2E0547F9061BA547FF5AB
:10080D00F0E0548045F0F09024C3E0547F9061BB3C
:10081D00547FF5F0E0548045F0F09024C4E0547F0F
:10082D009061BC547FF5F0E0548045F0F09024C504
:10083D00E0547F9061BD547FF5F0E0548045F0F0B9
:10084D009024C6E0547F9061BE547FF5F0E0548053
:10085D0045F0F09024C7E0547F9061BF547FF5F0D0
:10086D00E0548045F0F0902510E0906140F0902527
:10087D0011E0906141F0902512E0906142F09025D9
:10088D0013E0906143F0902514E0906144F09025C1
:10089D0015E0906145F0902516E0906146F09025A9
:1008AD0017E0906147F022AA82BA00028009BA02CD
:1008BD00030209500209D9906148E0902440543F49
:1008CD00F5F0E054C045F0F0906149E090244154BA
:1008DD003FF5F0E054C045F0F090614AE0902442BD
:1008ED00543FF5F0E054C045F0F090614BE090249A
:1008FD0043543FF5F0E054C045F0F090614CE0906A
:10090D002460543FF5F0E054C045F0F090614DE0A7
:10091D00902461543FF5F0E054C045F0F090614EE5
:10092D00E0902462543FF5F0E054C045F0F0906142
:10093D004FE0FA902463543FF5F0E054C045F0F0D9
:10094D000209D9906158E0902440543FF5F0E054ED
:10095D00C045F0F0906159E0902441543FF5F0E02E
:10096D0054C045F0F090615AE0902442543FF5F0A8
:10097D00E054C045F0F090615BE0902443543FF5A6
:10098D00F0E054C045F0F090615CE0902460543F7D
:10099D00F5F0E054C045F0F090615DE090246154B5
:1009AD003FF5F0E054C045F0F090615EE0902462B8
:1009BD00543FF5F0E054C045F0F090615FE0FA90DF
:1009CD002463543FF5F0E054C045F0F090243074AA
:1009DD000FF0E4F0902434740FF0E4F090240BE069
:1009ED0030E5F922E582FA602B90604CE030E010A2
:1009FD00900264E054E7F090020CE0548FF08026F2
:100A0D00900264E054E74408F090020CE0548F44E7
:100A1D0030F08012900264E054E74410F090020C24
:100A2D00E0548F4420F090000A782F79B67A0102B5
:100A3D0000B39060A4E030E4119024087455F0A345
:100A4D00F090240AE054C0F0800F90240874FFF059
:100A5D00A3F090240AE0443FF0902401E054FDF00F
:100A6D00902401E054FEF090240AE054BFF090244D
:100A7D0002E054F7F0902402E054FBF090240BE0D8
:100A8D00547FF090240BE054BFF022902401E0C479
:100A9D00035401FABA0126758B18758DFCD28EC2DE
:100AAD0003902401E054DFF0902402E020E10330B4
:100ABD0003F6902402E054FEF0C28EC28F2290E61F
:100ACD0007E030E20122902401E030E5012290663A
:100ADD00F7E0FABA0101229067CDE0FABA010122DE
:100AED0090604CE020E40790604CE030E30122750B
:100AFD0082011204FC902406E0543F4480F09024BF
:100B0D00077405F0120A3F902408E0FA5302FD9095
:100B1D002408EAF090240AE04440F0902405E054C3
:100B2D00FDF0902405E054FEF0902405E054F7F01C
:100B3D00D20DD20C758200120B73902401E044206B
:100B4D00F0902402E054FEF0E04401F090604EE09D
:100B5D0030E712902401E054FBF0E04410F09024B3
:100B6D0001E04401F022AA82300C07200D047B0C19
:100B7D008013200C07300D047B038009BA01047B20
:100B8D000C80027B0F9060A4E0540FF4520390246C
:100B9D0000EBC454F0F5F0E0540F45F0F022900254
:100BAD0028E003035407FA5302039060A4E054EFC6
:100BBD00F09067967420F09060A4E054DFF0BA03D3
:100BCD0013902402E0547FF0E04440F09067957458
:100BDD0008F0804EBA0213902402E04480F0E054F5
:100BED00BFF09067957404F08038BA01219024020B
:100BFD00E0547FF0E04440F09067957402F090600F
:100C0D00A4E04410F09060A4E04420F080149024FF
:100C1D0002E04480F0902402E04440F09067957427
:100C2D0001F0900228E003035407FB30E20B9067BC
:100C3D0095E025E0FB906795F09066F7E0FB700D71
:100C4D00906795E0C42354E0FB906796F0EA700F2F
:100C5D00902402E04420F09060A4E054F0F0229043
:100C6D002402E054DFF09060A4E054F04405F0223B
:100C7D00C018858118AA82AB83906038E023235475
:100C8D0001FCBC010280119066F7E0FCBC01028002
:100C9D0007902411E020E103020F0490604FE03033
:100CAD00E71C902405E0540FF0902406E054C0F0AA
:100CBD00902406E0543FF0902407E4F0804A8B0422
:100CCD00740F5C902405C454F0F5F0E0540F45F01A
:100CDD00F0ECC4540FFC53043F902406EC543FF544
:100CED00F0E054C045F0F074035AFB902406030362
:100CFD0054C0F5F0E0543F45F0F0EA0303543FFAD9
:100D0D0053023F902407EAF0E51824FDF8E624F994
:100D1D005003020DF9E51824FDF8E625E026900DA7
:100D2D002F73020D44020D60020D7D020D96020D12
:100D3D00AC020DC5020DDE9024087401F09024095B
:100D4D00E4F090240AE054C0F090240AE054BFF07F
:100D5D00020E1090240874FFF090240974FFF09097
:100D6D00240AE054C0F090240AE054BFF0020E10A3
:100D7D0090240874FFF090240974FFF090240AE089
:100D8D00443FF0E054BFF0807A902408E4F09024C2
:100D9D0009F090240AE054C0F0E04440F0806490E3
:100DAD00240874FDF090240974FFF090240AE044A7
:100DBD003FF0E054BFF0804B90240874F0F0902485
:100DCD000974FFF090240AE0443FF0E054BFF08036
:100DDD0032902408740DF0902409E4F090240AE078
:100DED00443FF090240AE04440F08017902408E43A
:100DFD00F0902409F090240AE054C0F090240AE009
:100E0D0054BFF0E51824FDF8B6FF02804D9060A0A8
:100E1D00E030E21B902408E0FA530201902408EA26
:100E2D00F0902409E4F090240AE054C0F0802B9057
:100E3D0060A4E030E50790240AE054C0F09060A46F
:100E4D00E030E416902408E0FAA3E0FB530255537A
:100E5D000355902408EAF0A3EBF0900264E0C4235C
:100E6D005403FABA0202800D902408E0FA5302FDF1
:100E7D00902408EAF0902402E054FEF0E04401F0E2
:100E8D0012300C906098E020E44830080C758BF817
:100E9D00758DFFD28EC203800A758B18758DFCD2AD
:100EAD008EC203902402E020E1033003F690240269
:100EBD00E054FEF03003159060A3E0FA4302019078
:100ECD0060A3EAF0C20390679B7401F0C28EC28FDB
:100EDD00800E902402E030E1F9902402E054FEF0FF
:100EED00902408E4F0902409F090240AE054C0F016
:100EFD0090240AE054BFF0D01822AA82906016E028
:100F0D00FB900224C4235460F5F0E0549F45F0F0AB
:100F1D00BA01028003020FB7902403E04440F09021
:100F2D0061B8E0902438547FF5F0E0548045F0F03E
:100F3D009061B9E0902439547FF5F0E0548045F08C
:100F4D00F09061BAE090243A547FF5F0E05480457A
:100F5D00F0F09061BBE090243B547FF5F0E05480BD
:100F6D0045F0F09061BCE090243C547FF5F0E054E6
:100F7D008045F0F09061BDE090243D547FF5F0E0A8
:100F8D00548045F0F09061BEE090243E547FF5F022
:100F9D00E0548045F0F09061BFE0FA90243F547F1B
:100FAD00F5F0E0548045F0F08007902403E054BF45
:100FBD00F0902403E04420F0E054DFF0758B9C7535
:100FCD008DFFD28EC20320031590240BE0C4035471
:100FDD0001FA90240BE0C4035401FB5A60E822AAE5
:100FED0082BA00028005BA012B8016902405E044D8
:100FFD0008F0902405E04401F0902405E04402F04F
:10100D0022902405E04408F0E054FEF0902405E021
:10101D0054FDF022902405E054F7F0902400E0C434
:10102D00540FFABA0F09902405E054FDF080079093
:10103D002405E04402F0902405E054FEF022906671
:10104D00F8E0FA7403B50200500122EA2A2A901042
:10105D005F7302106B0210810210A10210B4900098
:10106D0058E054DFF0900058E054BFF0900058E085
:10107D0054EFF022A20DE43390005813E092E5F006
:10108D00A20CE43390005813E092E6F0900058E083
:10109D0054EFF022900058E04420F0900058E044C6
:1010AD0040F0E054EFF022900058E054DFF0900053
:1010BD0058E054BFF0E04410F02275880575895151
:1010CD0075A91C75B906D2ABD2ADD2A8D2AAC2A948
:1010DD0075B83F75C878759A3EC205C206C207C27B
:1010ED0008906711E4F0C209C20AD203D204C21DEE
:0810FD00C21E9067A7E4F02277
:020000040001F9
:1099E200902230743CF0906003E054FBF0906007EA
:1099F200E04440F0900248E04401F090024CE04420
:109A020080F0900040E04401F0900218E04401F040
:109A120090021CE04401F090003CE04402F09060AF
:109A220002E054FEF0906002E054FDF0906000E02D
:109A320054BFF0906004E04440F0906000E0547F36
:109A4200F0906004E04480F0906001E054FEF090F9
:109A52006005E04401F0900258E0540770109060F5
:109A620007E054DFF0906006E04410F0800E906052
:109A720007E04420F0906006E054EFF0900228E006
:109A820003035407FA900228E003035407FB30E271
:109A920007900228E054E3F0900218E04404F090AA
:109AA2000E08E054DFF0900E2CE054DFF0900E48E8
:109AB200E054DFF0900E68E054DFF0900E84E05442
:109AC200DFF0900258E05407700B900E24E054032C
:109AD2004480F08007900E24E05403F0900E40E0A2
:109AE20054034480F0900E60E054034480F0900EE2
:109AF2007CE054034480F0900E9CE054034480F0D8
:109B0200900E08E0547FF0900E2CE0547FF0900EFF
:109B120048E0547FF0900E68E0547FF0900E84E0AD
:109B2200547FF0900E00E04402F0900005C00278ED
:109B32002F79B67A011200B3D002900E04E030E41D
:109B4200F9900E00E054FDF0900258E05407701DA9
:109B5200900E84E04420F0900E08E04480F09002E1
:109B620070E0FB5303F7900270EBF0801C900E84C0
:109B7200E04480F0900E08E04420F0900270E0FC97
:109B8200FB430308900270EBF0900E2CE04480F04F
:109B9200900E48E04480F0900E68E04480F0900E11
:109BA20008E054BFF0900E2CE054BFF0900E48E055
:109BB20054BFF0900E68E054BFF0900E84E054BFA2
:109BC200F0900E00E04402F0900005C002782F7978
:109BD200B67A011200B3D002900E04E030E4F9909C
:109BE2000228EA2A25E0541CF5F0E054E345F0F09F
:109BF200906616E0FA900258E05407701F9067B022
:109C0200E0243DFBE43465FC900E28E00303543F5E
:109C1200FD53053F8B828C83EDF0801D9067B0E091
:109C22002434FBE43465FC900EA0E00303543FFDB2
:109C320053053F8B828C83EDF09067AFE0FB2446A7
:109C4200FCE43465FD900E44E00303543FFE5306EA
:109C52003F8C828D83EEF0EB244CFBE43465FC9068
:109C6200021CE0035401FD5305018B828C83EDF04D
:109C7200EA245EFBE43465FC900E64E00303543F87
:109C8200FD53053F8B828C83EDF0EA244FFBE434D5
:109C920065FC900E80E00303543FFD53053F8B8229
:109CA2008C83EDF0EA2459FAE43465FB900220E05B
:109CB200035401FC5304018A828B83ECF0900E0062
:109CC200E054FDF0900258E054077017900E20E027
:109CD20030E107906006E054EFF0906002E044014A
:109CE200F08015900E90E030E107906007E054DFBD
:109CF200F0906002E04402F0900E3CE030E1079008
:109D02006004E054BFF0906000E04440F0900E54D4
:109D1200E030E107906005E054FEF0906001E0441D
:109D220001F0900E70E030E107906004E0547FF0A3
:109D3200906000E04480F0906003E04404F0020090
:109D4200C5900040E04401F0900248E04401F090E8
:109D5200024CE04480F0900218E04401F090021CB2
:109D6200E04401F090003CE04402F0900258E054DC
:109D720007606090653FE0900E2425E025E054FCEA
:109D8200F5F0E0540345F0F0900E08E054DFF09057
:109D92000E08E0547FF0900E2CE04420F0900E4824
:109DA200E04420F0900E68E04420F0900E84E044FD
:109DB20020F0900E00E04402F0900005782F79B672
:109DC2007A011200B3900E04E030E4F9900E00E044
:109DD20054FDF0900228E003035407FA30E27C902D
:109DE2006553E0900E7C25E025E054FCF5F0E0544C
:109DF2000345F0F0906562E0900E6025E025E054A6
:109E0200FCF5F0E0540345F0F0900E48E054DFF02A
:109E1200900E68E054DFF0900E48E0547FF0900E10
:109E220068E0547FF0900E08E04420F0900E84E049
:109E32004420F0900E2CE04420F0900E00E044020A
:109E4200F0900005782F79B67A011200B3900E04D3
:109E5200E030E4F9900E00E054FDF0900E08E0547A
:109E6200DFF0900E2CE054DFF0900E48E054DFF06B
:109E7200900E68E054DFF0900E84E054DFF0900220
:109E820058E054077016900E84E04420F09002705F
:109E9200E0FA5302F7900270EAF08015900E08E0A3
:109EA2004420F0900270E0FBFA430208900270EA4C
:109EB200F0900228E003035407FA30E20E900E48B5
:109EC200E04420F0900E68E04420F090E609E03093
:109ED200E507900E48E04420F0900E08E0547FF031
:109EE200900E2CE0547FF0900E48E0547FF0900EDC
:109EF20068E0547FF0900E84E0547FF0900E48E0CA
:109F02004440F0900E68E04440F0900E08E0444077
:109F1200F0900E2CE04440F0900E84E04440F0902B
:109F22000E00E04401F00200C5906038E0547FF07A
:109F3200906098E030E11090609CE0FAA3E0FB9022
:109F42006174EAF0A3EBF090679BE4F07A03C0023D
:109F520078ED79927A011200B3D00290679BE0FB10
:109F62006027906037E0FBBB01109060407401F005
:109F7200906040E0FBBB010280F68A031AC3748042
:109F82008BF063F08095F040C578A279A47A011233
:109F920000B3784B79AA7A011200B3906038E0449A
:109FA20080F0906658E0FA90604AEAF0906659E0D4
:109FB200FA906049EAF090665FE0FA906048EAF051
:109FC20090665AE0FA90604BEAF00200C590614A4E
:109FD200E0FA90614BE0FBC0028B82123014AB823C
:109FE20015818B0290614EE0FBC0028B821230140D
:109FF200AB8215818B0290614FE0FBC0028B821213
:10A002003014AB821581906643EBF0906148E0FA20
:10A01200906149E0FBC0028B82123014AB82158141
:10A022008B0290614CE0FBC0028B82123014AB8237
:10A0320015818B0290614DE0FBC0028B82123014BD
:10A04200AA821581906642EAF090614AE0FA7B00AA
:10A0520090614BE0FC7D00EC2AFAED3BFB90614EF7
:10A06200E0FC7D00EC2AFAED3BFB90614FE0FC7DC9
:10A0720000EC2AFAED3BA2E713CA13CAA2E713CAFD
:10A0820013CA906641EAF0906148E0FA7B00906161
:10A0920049E0FC7D00EC2AFAED3BFB90614CE0FCD0
:10A0A2007D00EC2AFAED3BFB90614DE0FC7D00EC7B
:10A0B2002AFAED3BA2E713CA13CAA2E713CA13CACC
:10A0C200906640EAF0906152E0FA7B00906153E0C2
:10A0D200FC7D00EC2AFAED3BFB906156E0FC7D0032
:10A0E200EC2AFAED3BFB906157E0FC7D00EC2AFA8A
:10A0F200ED3BA2E713CA13CAA2E713CA13CA9066BA
:10A1020045EAF0906150E0FA7B00906151E0FC7DFD
:10A1120000EC2AFAED3BFB906154E0FC7D00EC2A56
:10A12200FAED3BFB906155E0FC7D00EC2AFAED3B39
:10A13200A2E713CA13CAA2E713CA13CA906644EA73
:10A14200F090610CE0FA3395E0FB90612CE0FC3377
:10A1520095E0FDEC2AFAED3BA2E713CA13CA90661A
:10A1620046EAF0906104E0FA3395E0FB906105E085
:10A17200FC3395E0FDEC2AFAED3BFB906124E0FC18
:10A182003395E0FDEC2AFAED3BFB906125E0FC33D0
:10A1920095E0FDEC2AFAED3BA2E713CA13CAA2E747
:10A1A20013CA13CA906647EAF0906106E0FA339543
:10A1B200E0FB906107E0FC3395E0FDEC2AFAED3B11
:10A1C200FB906126E0FC3395E0FDEC2AFAED3BFBC7
:10A1D200906127E0FC3395E0FDEC2AFAED3BA2E723
:10A1E20013CA13CAA2E713CA13CA906648EAF090C8
:10A1F2006108E0FA3395E0FB906109E0FC3395E0F9
:10A20200FDEC2AFAED3BFB906128E0FC3395E0FD82
:10A21200EC2AFAED3BFB906129E0FC3395E0FDEC82
:10A222002AFAED3BA2E713CA13CAA2E713CA13CA5A
:10A23200906649EAF090610AE0FA3395E0FB90619A
:10A242000BE0FC3395E0FDEC2AFAED3BFB90612A32
:10A25200E0FC3395E0FDEC2AFAED3BFB90612BE04C
:10A26200FC3395E0FDEC2AFAED3BA2E713CA13CAD0
:10A27200A2E713CA13CA90664AEAF090610DE0FAA7
:10A282003395E0FB90612DE0FC3395E0FDEC2AFA7A
:10A29200ED3BA2E713CA13CA90664BEAF090610E37
:10A2A200E0FA3395E0FB90612EE0FC3395E0FDECA3
:10A2B2002AFAED3BA2E713CA13CA90664CEAF09061
:10A2C200610FE0FA3395E0FB90612FE0FC3395E0FB
:10A2D200FDEC2AFAED3BA2E713CA13CA90664DEAD7
:10A2E200F0906110E0FA3395E0FB906130E0FC33CE
:10A2F20095E0FDEC2AFAED3BA2E713CA13CA906679
:10A302004EEAF090615AE0FA7B0090615BE0FC7DDE
:10A3120000EC2AFAED3BFB90615EE0FC7D00EC2A4A
:10A32200FAED3BFB90615FE0FC7D00EC2AFAED3B2D
:10A33200A2E713CA13CAA2E713CA13CA906650EA65
:10A34200F0906158E0FA7B00906159E0FC7D00ECEE
:10A352002AFAED3BFB90615CE0FC7D00EC2AFAED11
:10A362003BFB90615DE0FC7D00EC2AFAED3BA2E74D
:10A3720013CA13CAA2E713CA13CAFB90664FEAF0C4
:10A382009060A0E020E30302A409906162E0FA7BFE
:10A3920000906163E0FC7D00EC2AFAED3BFB9061EA
:10A3A20066E0FC7D00EC2AFAED3BFB906167E0FC85
:10A3B2007D00EC2AFAED3BA2E713CA13CAA2E71307
:10A3C200CA13CA906652EAF090616AE0FA7B009082
:10A3D200616BE0FC7D00EC2AFAED3BFB90616EE0E4
:10A3E200FC7D00EC2AFAED3BFB90616FE0FC7D0006
:10A3F200EC2AFAED3BA2E713CA13CAA2E713CA1367
:10A40200CAFB906654EAF0906170E0906655F09055
:10A412006174E0FAA3E0FB20E10302A49F902510FF
:10A42200E0FA3395E0FB902511E0FC3395E0FDEA7C
:10A43200C39CFAEB9DFB902514E0FC3395E0FDEC08
:10A442002AFAED3BFB902515E0FC3395E0FDEAC3CB
:10A452009CFAEB9D8A04906656ECF0902512E0FA85
:10A462003395E0FB902513E0FC3395E0FDEAC39CB5
:10A47200FAEB9DFB902516E0FC3395E0FDEC2AFA01
:10A48200ED3BFB902517E0FC3395E0FDEAC39CFA17
:10A49200EB9DFB906657EAF0906798E4F00200C5E6
:10A4A200C018858118058178CF799F7A011200B38F
:10A4B200300D37200C34906644E090665AF0906676
:10A4C20040E0906659F0906642E0906658F09066DF
:10A4D20047E090665BF0906649E090665CF09066BB
:10A4E2004FE0FA90665FF002A5FF200D37300C3482
:10A4F200906645E090665AF0906641E0906659F0A9
:10A50200906643E0906658F0906648E090665BF093
:10A5120090664AE090665CF0906650E0FA90665F62
:10A52200F002A5FF906644E0FA7B00906645E0FCED
:10A532007D002AFAED3BFB0ABA00010BEBA2E713FE
:10A54200CA13CA90665AEAF0906640E0FA7B00901D
:10A552006641E0FC7D002AFAED3BFB0ABA00010BE2
:10A56200EBA2E713CA13CA906659EAF0906643E079
:10A57200FA906642E0FBC0028B82123014AA821566
:10A5820081906658EAF0906647E0FA3395E0FB90D6
:10A592006648E0FC3395E0FDEC2AFAED3BFB0ABA93
:10A5A20000010BEBA2E713CA13CA90665BEAF090B4
:10A5B2006649E0FA3395E0FB90664AE0FC3395E0A9
:10A5C200FDEC2AFAED3BFB0ABA00010BEBA2E71302
:10A5D200CA13CA90665CEAF090664FE0FA7B00907C
:10A5E2006650E0FC7D002AFAED3BFB0ABA00010B43
:10A5F200EBA2E713CA13CAFB90665FEAF090665AB1
:10A60200E0FA906659E0FBEAC39B90665DF09066C3
:10A612005DE0FA74C1C0E0743FC0E08A827851798B
:10A62200B97A011200B3AA821581158190665DEA9A
:10A63200F0906646E0F58278F579B97A011200B3B6
:10A64200E582FA3395E0FB90665BE0F582C002C0DA
:10A652000378F579B97A011200B3AC82D003D00243
:10A66200EC3395E0FDEC2AFAED3BFB90665CE0F5FD
:10A6720082C002C00378F579B97A011200B3AC82C4
:10A68200D003D002EC3395E0FDEC2AFAED3BFB90CF
:10A69200664BE0F582C002C00378F579B97A0112FF
:10A6A20000B3AC82D003D002EC3395E0FDEC2AFA81
:10A6B200ED3BFB90664CE0F582C002C00378F57971
:10A6C200B97A011200B3AC82D003D002EC3395E028
:10A6D200FDEC2AFAED3BFB90604DE023235401FC94
:10A6E200B40100E433FC604A906658E0FC90606775
:10A6F200E0FDECB50500B3E433FD703190606EE02F
:10A70200FDECB50500B3E433FC601690606DE0FC2F
:10A712007D00C3EA9CEB64808DF063F08095F0408D
:10A72200047A0080027A01EA7003FA80027A01EA6E
:10A7320070047A0080027A01906666EAF090604DB9
:10A74200E023235401FAB40100E433FA604890662E
:10A7520046E0F58278F579B97A011200B3AA8290BF
:10A762006066E0FBEAB50300B3E433FB7023906656
:10A772005BE0F58278F579B97A011200B3AA82908A
:10A78200606FE0FBEAB50300B3E433FB7003FA80C9
:10A79200027A01EA70047A0080027A01906667EA1E
:10A7A200F0906666E07009906667E07003FA8002D6
:10A7B2007A01906668EAF090665FE0FA90604FE096
:10A7C200543FFB8A04C3EB64808CF063F08095F005
:10A7D2005006906655E070047B0080027B01906613
:10A7E20069EBF090604DE0541FFB8A04C3EC648077
:10A7F2008BF063F08095F0B3E433FC60069066550D
:10A80200E070047B0080027B0190666AEBF0906648
:10A812005AE0FB906659E0FCEBB5040040048C055D
:10A822008007EB2BFBC39CFCFD906655E06010900B
:10A83200600AE020E2028D0290665EEAF0800590F6
:10A84200665EE4F0900050E0C423540390666DE429
:10A85200F0A3F090666DE0FAA3E0FB906088A81880
:10A8620008E0035401F6906646E0FD3395E0FE9061
:10A872000050E003540390AAAD93FF3395E0FCC06F
:10A8820002C003C007C0048D828E83127CF0AC82AA
:10A89200AD8315811581A8180886067F00C004C003
:10A8A200058E828F83127CF0AC82AD831581158177
:10A8B200D003D002EC2AFAED3BFB90666DEAF0A3DE
:10A8C200EBF0900050E0540190AAB193FC3395E074
:10A8D200FD90665BE0FE3395E0FFC002C003C00658
:10A8E200C0078C828D83127CF0AC82AD83158115FA
:10A8F20081D003D002EC2AFAED3BFB90666DEAF0C0
:10A90200A3EBF0900050E0540190AAB393FC33956E
:10A91200E0FD90665CE0FE3395E0FFC002C003C03C
:10A9220006C0078C828D83127CF0AC82AD831581C8
:10A932001581D003D002EC2AFAED3BFB90666DEA5A
:10A94200F0A3EBF0900050E0540190AAB593FC33D1
:10A9520095E0FD90664BE0FE3395E0FFC002C00338
:10A96200C006C0078C828D83127CF0AC82AD831549
:10A97200811581D003D002EC2AFAED3BFB90666D83
:10A98200EAF0A3EBF0900054E023540190AAB793AD
:10A99200FC3395E0FD90664CE0FE3395E0FFC0028B
:10A9A200C003C006C0078C828D83127CF0AC82ADDE
:10A9B2008315811581D003D002EC2AFAED3BFB907E
:10A9C200666DEAF0A3EBF0900054E0235401906628
:10A9D2006DEAF0A3EBF0900054E023540190666D11
:10A9E200EAF0A3EBF0E4C0E074FCC0E0E4C0E07481
:10A9F20004C0E08A828B83789979B97A011200B314
:10AA0200AA82AB83E58124FCF58190666DEAF0A30E
:10AA1200EBF090666DE0FAA3E0FB9066CAE0FC33CF
:10AA220095E0FDEAC39CF582EB9DF583780C79BA3B
:10AA32007A011200B3AA82AB8390666BEAF0A3EBB1
:10AA4200F0851881D0180200C5906655E07003FAAF
:10AA5200804D90665FE0FB90604EE05407FC8B05F2
:10AA6200C3ED64808CF063F08095F050047A01802D
:10AA72002E90604DE0541FFCC3EB64808CF063F0B9
:10AA82008095F050047A028016906668E060047A3D
:10AA920003800C906669E070047A0480027A059063
:10AAA2006663EAF00200C50304060703040607030F
:10AAB20005030502030102C018E581F518240CF50F
:10AAC2008178CC79B87A011200B3AA82E583FB338C
:10AAD20095E0FCFDC002C003C004C00590018AE4F9
:10AAE200F5F0127DF1AA82AB83ACF0FDE58124FC86
:10AAF200F58174782AFA74F93BFB74013CFCE43D5D
:10AB0200FD74E8C0E07403C0E0E4C0E0C0E08A8203
:10AB12008B838CF0ED127D12A81808A68208A683FA
:10AB220008A6F008F6E58124FCF581906637E0FE80
:10AB32007F007A007B00C006C007C002C0039000FD
:10AB4200FAE4F5F0127DF1C8E5182409C8A68208D6
:10AB5200A68308A6F008F6E58124FCF58190663606
:10AB6200E0FE7F007A007B00A81808E6C0E008E655
:10AB7200C0E008E6C0E008E6C0E08E828F838AF07B
:10AB8200EB127DF1AA82AB83ACF0FDE58124FCF5EA
:10AB920081E5182409F8EA26FAEB0836FBEC0836B8
:10ABA200FCED0836FDE5182405F8A60208A6030800
:10ABB200A60408A605E5182405F8745426FE747543
:10ABC2000836FF74FF0836FA74FF0836FB74E8C0D3
:10ABD200E07403C0E0E4C0E0C0E08E828F838AF0BC
:10ABE200EB127D12AA82AB83ACF0FDE58124FCF569
:10ABF20081E5182405F8A60208A60308A60408A6FB
:10AC020005E5182405F88602908220EAC454F0F57E
:10AC1200F0E0540F45F0F0851881D0180200C5907D
:10AC22002230743DF0906003E054F7F0906007E04A
:10AC3200547FF0787F79AC7A011200B3781D79AD38
:10AC42007A011200B378B079AE7A011200B378DAE1
:10AC520079AF7A011200B3906004E030E0159060A1
:10AC620004E030E20E906004E030E107906007E01B
:10AC72004480F0906003E04408F00200C590223066
:10AC82007409F0906000E054FEF0906004E044012A
:10AC9200F090002CE04480F0900C08E054BFF0E00B
:10ACA2004480F0900C24E04440F0900C3CE044409E
:10ACB200F0900C4CE04420F0900C70E04420F090B6
:10ACC2000C00E04408F0900005782F79B67A011262
:10ACD20000B3900C00E030E1F9900C18E030E1078D
:10ACE200906004E054FEF09067AFE0243AFAE43456
:10ACF20065FB900C20E0C4540FFC53040F8A828B36
:10AD020083ECF0900C00E054F7F090002CE0547FBC
:10AD1200F0906000E04401F00200C5902230740B14
:10AD2200F0906000E054FBF0906000E054EFF0908F
:10AD32006004E04404F09067AFE0243AF582E43422
:10AD420065F583E0900C1CC454F0F5F0E0540F4517
:10AD5200F0F0900C08E054BFF0900C08E0547FF043
:10AD620078B979AA7A011200B3900C34E054E34422
:10AD720018F0900C44E0541F44C0F0900C24E054AE
:10AD8200BFF0900C24E0547FF0900C3CE054BFF0F4
:10AD9200900C3CE0547FF0900C00E04408F09000EE
:10ADA20005782F79B67A011200B3900C00E030E1F9
:10ADB200F9900C00E054F7F0900C08E04440F09059
:10ADC2000C24E04440F0900C3CE04440F0900C4CE9
:10ADD200E054DFF0900C70E054DFF0900C4CE04453
:10ADE20080F0E054BFF0900C70E04480F0E054BF7B
:10ADF200F0900080E0FA430201900080EAF0900CAB
:10AE02004CE04401F0900C70E04401F090E609E05F
:10AE120030E507900C70E04420F0900C00E044080C
:10AE2200F0900005782F79B67A011200B3900C00E9
:10AE3200E030E1F99067AFE0FA2470FBE43465FC9E
:10AE4200900C6CE00303543FFD53053F8B828C83CF
:10AE5200EDF090E609E020E51AEA2479FAE4346597
:10AE6200FB900C84E00303543FFC53043F8A828B23
:10AE720083ECF0900C5CE030E107906004E054FB5E
:10AE8200F090E609E020E50E900C7CE030E00790BF
:10AE92006004E054EFF0900C00E054F7F090600092
:10AEA200E04410F0906000E04404F00200C59022FB
:10AEB20030740AF0906000E054FDF0906004E044C9
:10AEC20002F0900C34E0441CF0900C44E044E0F0BA
:10AED200900C24E054BFF0900C24E0547FF0900CCE
:10AEE2003CE054BFF0900C3CE0547FF0900C08E042
:10AEF2004440F0900C4CE04420F0900C70E0442070
:10AF0200F0900C00E04408F0900005782F79B67AB2
:10AF1200011200B3900C00E030E1F9900C00E05413
:10AF2200F7F0900C24E04480F0900C3CE04480F078
:10AF3200900080E0FA5302FE900080EAF090E60969
:10AF4200E030E507900C3CE04440F0900C00E04417
:10AF520008F0900005782F79B67A011200B3900CB0
:10AF620000E030E1F99067AFE0FA246DFBE434656C
:10AF7200FC900C38E0C4235407FD5305078B828CE8
:10AF820083EDF0900C34E030E007906004E054FD73
:10AF9200F090E609E020E52FEA2476FAE43465FB36
:10AFA200900C48E0C4035407FC5304078A828B8345
:10AFB200ECF090E609E020E50E900C44E030E30767
:10AFC200906004E054F7F0900C00E054F7F09060C9
:10AFD20000E04402F00200C5902230740BF0906051
:10AFE20000E054FBF0900C08E04440F0900C24E0A8
:10AFF2004440F0900C3CE04440F0900C4CE054DFB4
:10B00200F0900C70E054DFF0900C4CE04480F0E0E3
:10B0120054BFF0900C70E04480F0E054BFF0900018
:10B0220080E0FA5302FE900080EAF0900C4CE0546B
:10B03200FEF0900C70E054FEF090E609E030E50777
:10B04200900C70E04420F0900C00E04408F0900076
:10B0520005782F79B67A011200B3900C00E030E146
:10B06200F99067AFE0FA2470FBE43465FC900C6C55
:10B07200E00303543FFD53053F8B828C83EDF0EADE
:10B082002479FAE43465FB900C84E00303543FFC1A
:10B0920053043F8A828B83ECF0900C00E054F7F06B
:10B0A200906000E04404F00200C5902230743EF04B
:10B0B200900080E0FA5302FE900080EAF0900C08C3
:10B0C200E04440F0900C24E04440F0900C3CE0441A
:10B0D20040F0900C4CE054DFF0900C70E054DFF044
:10B0E200900C4CE0547FF0E04440F0900C70E0543F
:10B0F2007FF0E04440F0900C4CE054FEF0900C7075
:10B10200E054FEF090E609E030E507900C70E04470
:0CB1120020F0900C00E04404F00200C5A6
:020000040000FA
:10110500C018E581F5182407F581900228E003034E
:101115005407FA53020390605AE003035401FBBBE2
:10112500010280030212AD906038E030E303021241
:10113500ADC002120A98D002900060E0C4035401C9
:1011450090671DF090005CE003540190671EF090DD
:101155002400E0C4540F906724F0902406E0543F27
:10116500FBE4CBC4CB6BCB54F0CB6BFC902405E0FC
:10117500C4540FFD7E00906725ED4BF0EE4CA3F0B7
:10118500900058E023235401906721F0900058E027
:10119500C4035401906722F0902410E0C4540190D8
:1011A5006723F09066F7E0FB90679CF09066F7E4A4
:1011B500F0BA0309900060E04420F0800ABA020703
:1011C50090005CE04402F090605AE030E01DD20CE3
:1011D500C20DEA700B902400E0540F44C0F0802645
:1011E500902400E0540F4480F0801BC20CD20DEA1D
:1011F500700B902400E0540F4430F08009902400D7
:10120500E0540F4420F0902408E4F0A3F090240A61
:10121500E054C0F090240AE054BFF0902406E05456
:101225003F4480F09024077402F0902405E0540FA9
:101235004450F0902406E054C0F0120608121777C7
:10124500900028E003547F906045F0902230742B85
:10125500F0A20DE43390005813E092E5F0A20CE4FF
:101265003390005813E092E6F0900058E054EFF008
:1012750078C979BA7A011200B3902580E04401F06B
:10128500906059E054FCF0906058E4F090670EF0DF
:10129500A3F09067277401F0906038E04408F0905F
:1012A5002230742BF002168990605AE00303540132
:1012B500FABA010280030215B2906038E0C42354E3
:1012C50001FABA010280030215B2906038E0C454F5
:1012D50001FABA010280030215B2906059E0540385
:1012E500FA30E11A906059E05403FB7A004303FC9D
:1012F500906058E0FC7D004202ED42038019906049
:1013050059E05403FD7C00906058E0FE7F004204E4
:10131500EF42058C028D0390670EE0FCA3E0FDEA29
:10132500C39CF582EB9DF583C002C0031233F4D054
:1013350003D00290670EEAF0A3EBF09060B0E4F002
:101345009060ACF0A3F0A3F0A3F09060B2E4F0904D
:1013550060A8F0A3F0A3F0A3F09060B1E4F0906072
:10136500E0F0A3F0A3F0A3F09060B3E4F09060DCAC
:10137500F0A3F0A3F0A3F09060A5E0540FFABA0330
:101385000050047B03800F740CB5020050047C0CE4
:1013950080028A048C038B021A1A1AEA2A25E02491
:1013A5004FFAE43417FB9000E8E493FCA3E493FDC3
:1013B500906174ECF0A3EDF0C002C00378ED799272
:1013C5007A011200B3D003D002A818087600A81835
:1013D50008B602004003021530C002C0039060B099
:1013E500E0FDA81808E675F002A4FEE5F0CE25E0BC
:1013F500CE33CE25E0CE33FFEE2470FAEF3425FB55
:101405007C00C003C005C006C007C002C003C004FD
:101415009060AC75F00012168FAA821581158115A2
:1014250081D007D006D005D003EA2D9060B0F090AA
:1014350060B2E0FAEE2460FBEF3425FC7D00C002CB
:10144500C006C007C003C004C0059060A875F000C1
:1014550012168FAB82158115811581D007D006D064
:1014650002EB2A9060B2F0E0FCA81808E518240603
:10147500F9E6F7E4C725E0C733C725E0C73309F721
:10148500E5182406F8E624F0FD08E63425FA8D82F1
:101495008A83A3A3A3A3E02C9060B2F09060B1E08F
:1014A500FCEE2474FDEF3425FA7B00C003C004C0B4
:1014B50006C007C005C002C0039060E075F00012C9
:1014C500168FAA82158115811581D007D006D00403
:1014D500D003EA2C9060B1F09060B3E0FAEE24649A
:1014E500FEEF3425FF7B00C002C006C007C0039095
:1014F50060DC75F00012168FAB82158115811581A0
:10150500D002EB2A9060B3F0E0FAE5182406F8E67D
:1015150024F0F58208E63425F583E02A9060B3F0DF
:10152500A8180806D003D0020213D39060B2E0FCDD
:10153500A8180808A604087600087600087600A80A
:10154500180808E6080808F618181876000876003E
:101555000876009060A8E0A3E0FDA3E0FEA3E0FF0D
:101565008D048E058F067F00A8180808EC46F6ED59
:101575000846F6EE0846F6EF0846F68A828B83E4BF
:1015850093FCA3E493FDA3E493FEA3E493FFA818BF
:101595000808C3E69C08E69D08E69E08E69F5003FA
:1015A5000213AB906038E054EFF00216899067277C
:1015B500E0FABA0102800302168990605AE030E22F
:1015C50003021689902580E054FEF0906038E054BF
:1015D500F7F0906038E054EFF0906727E4F09067FB
:1015E50021E090005813E092E6F0906722E0900029
:1015F5005813E092E5F012177790671DE0900060B0
:1016050013E092E5F090671EE090005C13E092E134
:10161500F0906724E0902400C454F0F5F0E0540FF6
:1016250045F0F0906725E0FAA3E0FB740F5A90248B
:1016350005C454F0F5F0E0540F45F0F0EBC4CAC40E
:10164500540F6ACA540FCA6ACA53023F902406EA65
:10165500543FF5F0E054C045F0F0906723E0902446
:101665001013E092E4F090679CE09066F7F07582C5
:10167500021204FC902230742BF090604CE020E5BF
:1016850003120ACB851881D01822C018858118C08D
:1016950082C083C0F0E581240BF581A818088682F5
:1016A5000886830886F0E5182404F9127DD5F7A38A
:1016B500127DD509F7A3127DD509F7A3127DD509AA
:1016C500F7E51824FBF886030886040886028B8252
:1016D5008C838AF0E5182408F8127DD5F6A3127DCF
:1016E500D508F6A3127DD508F6A3127DD508F6E533
:1016F500182404F8E5182408F9E726FE09E7083652
:10170500FF09E70836FA09E70836FBA818088682B4
:101715000886830886F0EE127CD7A3EF127CD7A348
:10172500EA127CD7A3EB127CD7E5182408F8C3EEA0
:1017350096EF0896EA0896EB0896500575820180A3
:1017450003758200851881D0182204000000280046
:10175500000087010000430F000096980000E2F5A5
:101765000500CB9A3B00E50B5402E876481711A516
:10177500D4E8900218E020E20122906001E054FBD9
:10178500F090E60AE020E30790E606E030E130A2BB
:101795000EE433247FF582E43465F583E090002878
:1017A50025E054FEF5F0E0540145F0F0900028E006
:1017B5004401F0E054FEF0906001E04404F0229012
:1017C50022307412F0906005E054F7F0906005E067
:1017D50054EFF0906005E054DFF0900228E0541CCF
:1017E50070047A1580027A25900038E04401F09063
:1017F5006005E054FBF090003CE054C34420F090B9
:10180500003CE04480F0C002121ABEAB82D00290C8
:10181500003CE00303540FFC7D0090000AC002C0A9
:1018250003C004C005782F79B67A011200B3121AE5
:10183500BEAE82D005D004D003D002EBB50602803F
:101845001B90003CEC2C25E0543CF5F0E054C345DE
:10185500F0F0906005E04404F00218E68E03BE0146
:101865003B90003CE00303540FFFBF0F0990600558
:10187500E04404F0806B90003CE00303540FFC90BF
:10188500003CE00303540FFF0F90003CEF2F25E0D1
:10189500543CF5F0E054C345F0F0803590003CE051
:1018A500543C7009906005E04404F0803490003C9D
:1018B500E00303540FFC90003CE00303540FFF1FAB
:1018C50090003CEF2F25E0543CF5F0E054C345F083
:1018D500F090E649E020E3010DBD20005003021819
:1018E5001F90000AC002C004782F79B67A01120051
:1018F500B3D004D00290003CE00303540F90601174
:10190500F090003CE0547FF0900028E05401F09006
:10191500003CE054BFF07B3F7D007F0090000AC093
:1019250002C003C004C005C007782F79B67A01123A
:1019350000B3D007D005D004D003D00290E649E02B
:1019450020E3010DC004EB2BFBC002C003C005C0A2
:1019550007121ABEAC82D007D005D003D002EC42E4
:101965000374335BFCBC03028004D0048025D004DF
:10197500900028EC2C54FEF5F0E0540145F0F09071
:101985000028E04401F0E054FEF0906005E04408D2
:10199500F080298F0474082FFF90002825E054FE5D
:1019A500F5F0E0540145F0F0900028E04401F0E046
:1019B50054FEF0EDB502005003021921906005E0D8
:1019C50020E303021A9090003CE04440F0121ABE56
:1019D500AB827A007C00BC44004003021A90900060
:1019E5000AC002C003C004782F79B67A011200B389
:1019F500121ABEAD82D004D003D0028D06EBB50617
:101A05000280030A8E03BA03004009906005E04492
:101A150020F08077EE7032900028E003547FFDC3FC
:101A2500648094FF501A900028E003547FFD0D90C8
:101A35000028ED2D54FEF5F0E0540145F0F080321C
:101A4500900028E05401F08029900028E054FE60C1
:101A55001A900028E003547FFD1D900028ED2D54B9
:101A6500FEF5F0E0540145F0F08007900028E044D1
:101A7500FEF0900028E04401F0E054FEF090E649C5
:101A8500E030E3030219DB0C0219DB900028E003C8
:101A9500547F906045F0A20EE433247FFAE4346568
:101AA500FB906045E08A828B83F090003CE054BF58
:101AB500F0906001E04404F022902152E04404F0EB
:101AC500E054FBF0902150E003035401F582227AA3
:101AD5000090822CE04480F0900032C002782F798B
:101AE500B67A011200B390822CE0547FF090001476
:101AF500782F79B67A011200B3D00290A340E04462
:101B050010F0E054EFF090A340E030E3027A018A50
:101B15008222C018E581F5182407F581906001E05F
:101B250054DFF090E60AE0C4035401FABA0152907A
:101B35006018E0900240540FF5F0E054F045F0F0E5
:101B4500906019E09002545407F5F0E054F845F020
:101B5500F090601AE0900240C454F0F5F0E0540FA4
:101B650045F0F090601BE0FA900254C4035438F538
:101B7500F0E054C745F0F0906001E04420F0022108
:101B85008A9022307418F0906005E0547FF09060E0
:101B95000AE054BFF0758201780779B87A0112001E
:101BA500B390265BE0C4235407908204C42354E019
:101BB500F5F0E0541F45F0F0900064782F79B67A7F
:101BC500011200B3900254E04480F090024CE044CE
:101BD50001F0E5182403F87600087600A8180876C1
:101BE50000A81808B602004003021DB1A81808B6DF
:101BF5000109900254E04440F08007900254E054FB
:101C0500BFF0900240E054F04408F0900254E044E4
:101C150007F0A818080876087E03C006121AD4AF84
:101C250082D006E5182407F8A6077C007A007D0017
:101C3500C002C004C005C006121AD4AB82D006D0BB
:101C450005D004D0028B07E5182407F8E6B5076927
:101C5500A8180808E670030C8008A8180808B60F2D
:101C6500010AEF7010FAEC7007A81808081680161C
:101C7500BC021380447C00EA7007A8180808068097
:101C850005BA02028033C004900240A8180808E68D
:101C9500540FF5F0E054F045F0F08D040DBC100044
:101CA500E433FC90E648E023235401FBE4BB010147
:101CB500044CD0046003021C35BD1000400990603F
:101CC5000AE04440F0801DBF011AEA7017A8180801
:101CD5000806900240A8180808E6540FF5F0E054ED
:101CE500F045F0F07A007C00EE7003021D76C0042A
:101CF500C002C004C006121AD4AB82D006D004D0EC
:101D0500028B07D004EF7006EE60091E8006BE0345
:101D15000050010EEE9000F8939002545407F5F030
:101D2500E054F845F0F0EA2AFDEF42058D02EC0497
:101D3500FDC002C004C006C0058A8278E079B77A82
:101D4500011200B31581D006D004D002922840219B
:101D5500C0028C020CBA1000E433FA90E648E02386
:101D6500235401FBE4BB0101044AD0026003021CB9
:101D7500EDBC1000400790600AE04440F0A8180848
:101D850008E675F006A4FBADF0E5182403F8EB268C
:101D9500F6ED0836F68E037D00E5182403F8EB26EC
:101DA500F6ED0836F6A8180806021BE6E518240322
:101DB500F8860308E6C313CB13CBFD7406C0E0E435
:101DC500C0E08B828D8312230CAB82AD8315811508
:101DD500818B028D04C002C004740CC0E0E4C0E035
:101DE5008A828C83122F96AB82AD8315811581D0A3
:101DF50004D002E5182403F8E6C39BFB08E69DFD25
:101E0500E5182405F8A603EDC313C613C608F67432
:101E15000F5AFB7D00906018EBF0E5182405F8C318
:101E2500740296E4089650067B037D00800AE51847
:101E35002405F88603088605EBFE9000F89390606C
:101E450019F0E09002545407F5F0E054F845F0F02D
:101E5500906018E0FB900240540FF5F0E054F04517
:101E6500F0F090024CE054FEF0E5182403F87600FB
:101E7500087600A818087600A81808B604004003DC
:101E850002208AA81808E4B6010104FDA81808E490
:101E9500B60301044D6009900254E04440F0800708
:101EA500900254E054BFF0A81808E4B6020104FDFE
:101EB500A81808E4B60301044D6009900250E044F7
:101EC50040F08007900250E054BFF0900240E0548B
:101ED5000F4480F0900254E054C7F0A81808087623
:101EE500087E00C006121AD4AD82D006E518240774
:101EF500F8A6057A007B007C00C003C002C004C0C0
:101F050006121AD4AB82D006D004D0028B07E5188E
:101F15002407F8E6B507028004D003806CD003A837
:101F2500180808E670030A8008A8180808B60F0103
:101F35000BEF7010FBEA7007A8180808168016BA90
:101F4500021380457A00EB7007A81808080680057B
:101F5500BB02028034C003900240A8180808E6C4FA
:101F650054F0F5F0E0540F45F0F08C030CBB100075
:101F7500E433FB90E648E023235401FDE4BD010171
:101F8500044BD0036003021EFEBC100040099060A4
:101F95000AE04440F0801EEF701BEA7018A818088C
:101FA5000816900240A8180808E6C454F0F5F0E0B9
:101FB500540F45F0F07A007D00BE030302204FC0A8
:101FC50005C002C006121AD4AD82D006D0028D0714
:101FD500D005EF7006EE60091E8006BE03005001B5
:101FE5000EEE24F8F582E43400F583C006E4939000
:101FF5000254C4035438F5F0E054C745F0F0EA2A1A
:1020050042078F02ED04FEC002C005C006C0068A65
:102015008278E079B77A011200B31581D006D00530
:10202500D0029228D006202821C0028D070DBF10AE
:1020350000E433FF90E648E023235401FAE4BA01B3
:1020450001044FD0026003021FBEBD10004007907F
:10205500600AE04440F0A8180808E675F006A4FDFB
:10206500AFF0E5182403F8ED26F6EF0836F68E05F1
:102075007F00E5182403F8ED26F6EF0836F6A818D4
:102085000806021E7DE5182403F8860508E6C31335
:10209500CD13CDC313CD13CDFF7406C0E0E4C0E06E
:1020A5008D828F8312230CAD82AF83158115818DAF
:1020B500028F04C002C0047418C0E0E4C0E08A8244
:1020C5008C83122F96AD82AF8315811581D004D0F4
:1020D50002E5182403F8E6C39DFD08E69FFFE51811
:1020E5002405F8A605EFC313C613C6C313C613C646
:1020F50008F6740F5AFD7F0090601AEDF0E518247C
:1021050005F8C3740296E4089650067D037F0080A7
:102115000AE5182405F88605088607EDFE9000F8FF
:102125009390601BF090601AE0900240C454F0F563
:10213500F0E0540F45F0F090601BE0FD900254C4B0
:10214500035438F5F0E054C745F0F090600AE020FC
:10215500E607906005E04480F090024CE054FEF004
:10216500900254E054BFF0900250E054BFF090024A
:1021750054E0547FF0788079B87A011200B390600A
:1021850001E04420F0851881D01822C018858118F7
:102195000581906001E054BFF090E60AE0232354E6
:1021A50001FABA0120906015E0FA90000825E025B3
:1021B500E0547CF5F0E0548345F0F0906001E04494
:1021C50040F00223069022307417F0906006E05428
:1021D500FEF090600AE0547FF0900064782F79B6A5
:1021E5007A011200B3900008E04480F0908208E084
:1021F50054074460F07A0C7B007C00A81808760030
:102205007E007F00C003C002C004C006C007121ACA
:10221500D4AB82D007D006D004D0028B05D003EA18
:1022250070030C8007BA1F04A8180806ED7013A8E0
:1022350018087600EC70031A801BBC02030222CD3D
:1022450080137C00A81808E670030A8008A81808FF
:10225500B602028073C003EE2EFBED42038B06EF40
:1022650004FBC002C003C004C005C006C007C0030C
:102275008E8278E079B77A011200B31581D007D044
:1022850006D005D004D003D0029228D0033028060A
:10229500ED70350A8032C006908208EAC40354F80E
:1022A500F5F0E0540745F0F08F060F8F03BE2800C8
:1022B500E433FE90E648E0235401FDE4BD0101044A
:1022C5004ED0066003022209BB2800400990600A2F
:1022D500E04480F08007906006E04401F0906015CE
:1022E500EAF0900008EA2A25E0547CF5F0E05483F2
:1022F50045F0F0900008E0547FF0906001E0444024
:10230500F0851881D01822C018858118AA82AB8360
:102315007C007D007E10EB339228EBCA25E0CA33A2
:10232500FBEDCC25E0CC33FD302803430401E51853
:1023350024FCF8C3EC96ED08964010E51824FCF84B
:10234500ECC396FCED0896FD430201DEC98A828B3B
:0423550083D01822F7
:0400F80000010307F9
:1023590090223374FFF090220BE0547FF075F7015F
:1023690075F70122AA82902236EAF0902200E070E5
:102379000690E6DAEAF02290E6DEEAF022C0E0C052
:1023890082C083C0D075D010C2AF90223374F0F0F0
:10239900C28DC28C90223374FFF0D2AFD0D0D083DB
:1023A900D082D0E032C0D075D010C2AFC28EC28FF9
:1023B900D203D2AFD0D032C0E0C082C083C0D075C2
:1023C900D010C2AF90223374F2F075C878C2C6D269
:1023D90004906033E020E503022470200603022400
:1023E900709066CCE0FA700302247090267BE0209E
:1023F900E41090261CE0547FF090261DE04401F083
:102409008032902671E0FA20E71C90A316E0540769
:10241900FABA0302801090261CE04480F090261D31
:10242900E04401F0800E90261CE04480F090261DC7
:10243900E054FEF090267BE020E71C902126E02066
:10244900E215906083E04480F090261CE0547FF010
:1024590090261DE054FEF0906083E04440F0902601
:102469007BE04408F0801F90267BE020E0183007CD
:10247900159066CCE0FA600E90267AE04480F090E0
:102489006083E04401F090223374FFF0D2AFD0D0E2
:10249900D083D082D0E032C0E0C082C083C0D07582
:1024A900D010902233740DF074FFF0D0D0D083D0C7
:1024B90082D0E032C0E0C082C083C0D075D010C2E3
:1024C900AF9022337403F090201BE030E108902094
:1024D900537402F0E4F090201BE030E2489020535E
:1024E9007404F0E4F090A31BE020E539902007E0A4
:1024F90020E532902200E0FA90E650E0FBEAB513BD
:102509002490A34E740EF0740CF07408F0E4F0906B
:102519002236F0902200E0700790E6DAE4F08005B8
:1025290090E6DEE4F090224EE054F7F090224EE07F
:1025390054FBF0E04408F090224EE04404F090226D
:102549003374FFF0D2AFD0D0D083D082D0E032C084
:10255900E0C082C083C0D075D010C018858118052D
:1025690081C2AF9022337401F090201AE020E10378
:102579000225E99020527402F0E4F0902200E0FA7A
:102589006005BA011C800E902034E05401FA90E6EF
:1025990051EAF0800C902034E05401FA90E652EAB6
:1025A900F0902034E020E01790A02FE054EFF09055
:1025B900A02FE054DFF090A327E054F7F08021909A
:1025C900E651E0601B90E652E0601590A02FE044D0
:1025D90010F090A02FE04420F090A327E04408F0E9
:1025E90090201BE030E010902200E0FA90E650E0E5
:1025F900FBEAB513027A0190201BE020E4030227CD
:1026090088902053741BF0E4F0902007E0C4035431
:1026190001FBBB011C9022367401F0902200E0708E
:102629000890E6DA7401F0801F90E6DE7401F0800C
:1026390017902236E4F0902200E0700790E6DAE481
:10264900F0800590E6DEE4F0902230E0FBBB1B024F
:10265900802BBB2002805FBB21028021BB2202802C
:102669006BBB23028066BB2402804BBB25028046DC
:10267900BB26028041BB3302805202272A902007E1
:10268900E0C4035401FBBB010BD20590E6CE7401F3
:10269900F0022788EA70030227889022317421F01A
:1026A90090223374FFF090220BE0547FF075F7010C
:1026B90075F701022788902007E0C4035401FABA8C
:1026C90001028003022788D205022788902007E0AB
:1026D90020E523902002E054FBF09022317421F090
:1026E90090223374FFF090220BE0547FF075F701CC
:1026F90075F701022788902102E003035401FABA11
:102709000104D20580799022317422F09022337429
:10271900FFF090220BE0547FF075F70175F7018007
:102729005E902007E030E507902007E020E429903B
:102739002002E054FBF0902102E054BFF0902231D6
:102749007421F090223374FFF090220BE0547FF053
:1027590075F70175F7018027902102E020E22090AA
:102769002102E054BFF09022317422F09022337498
:10277900FFF090220BE0547FF075F70175F7019097
:102789002246E054FDF0902247E054FEF0902246A4
:10279900E04402F0902247E04401F090A314E020C5
:1027A900E30B902247E054F7F0E04408F09022331D
:1027B90074FFF0D2AF851881D018D0D0D083D082E1
:1027C900D0E032C0E0C082C083C0D075D010C2AFA3
:1027D9009022337408F090201AE030E77A90205262
:1027E9007480F0E4F0902007E05401FABA0168908F
:1027F9002230E0FABA1B02800FBA2102800ABA22FB
:10280900028020BA2338801B9022317420F0902254
:102819003374FFF090220BE0547FF075F70175F7E0
:102829000180219022317433F090223374FFF090AB
:10283900220BE0547FF075F70175F70180069022AD
:1028490031741FF090223374FFF090220BE0547F13
:10285900F075F70175F70190201AE030E6459020F0
:10286900527440F0E4F0902007E020E526902236EB
:10287900E4F0902200E0700790E6DAE4F080059039
:10288900E6DEE4F0902006E0235401FABA01028062
:1028990002D205902006E0235401FA90200013E0AB
:1028A90092E6F0902261E054BFF0E04440F09022BB
:1028B9003374FFF0D2AFD0D0D083D082D0E032C011
:1028C900D075D010D0D032C0E0C082C083C0D075DE
:1028D900D010C2AF9022337402F090202BE030E682
:1028E9000F9020577440F0E4F0902102E054BFF0BB
:1028F90090202BE030E70F9020577480F0E4F0909F
:102909002002E054FBF090214CE030E020902003BD
:10291900E030E6199022317419F090223374FFF0F7
:1029290090220BE0547FF075F70175F7019022337F
:1029390074FFF0D2AFD0D0D083D082D0E032C0E0E3
:10294900C082C083C0D075D010C2AF902233740B3F
:10295900F090265CE030E0679026647401F0E4F0C2
:10296900902002E030E258200724902679E030E5F3
:102979004E90267BE04404F0D2079066CCE4F0C286
:102989000375C860C2C69022317428F08031902244
:1029990031E0FABA2910C20790267BE054FEF09084
:1029A900267BE054FBF0902231742AF09022337494
:1029B900FFF090220BE0547FF075F70175F7019055
:1029C9002143E030E52B90215BE04420F0E054DF27
:1029D900F090267BE020E719902679E030E6129006
:1029E9002126E020E20B902274E054F7F0E044083D
:1029F900F090223374FFF090226CE030E60B9022C5
:102A09006CE054BFF0E04440F090226DE054FEF0D9
:102A1900E04401F0D2AFD0D0D083D082D0E032C030
:102A2900E0C082C083C0D075D010C2AF9022337489
:102A390005F09026647402F0E4F0902679E030E61F
:102A49004620064390267BE04402F0902231742808
:102A5900F0D206906711E4F0C20375C860C2C6904F
:102A69002250E054DFF09066CCE4F090267BE03011
:102A7900E707902604E4F0A3F090267AE04420F0DA
:102A8900E054DFF0022B2C902679E020E644300652
:102A99004190267BE020E43A902231E0FABA2A17E5
:102AA900C206902678E054FBF090267BE054EFF0C4
:102AB90090267BE054FDF09022317429F090223366
:102AC90074FFF090220BE0547FF075F70175F70160
:102AD9008051902679E030E64A300647906711E444
:102AE900F09067107401F0C20375C860C2C69026E1
:102AF9007BE054FDF09022317429F090267BE02090
:102B0900E421902678E054FBF090267BE054EFF026
:102B190090223374FFF090220BE0547FF075F70197
:102B290075F70190223374FFF0D2AFD0D0D083D0A3
:102B390082D0E032C0E0C082C083C0D075D010C25C
:102B4900AF902102E054F7F0902233740AF09022FA
:102B59003AE0600E90223AE4F0902102E04408F055
:102B69008008D208902231742CF090223374FFF03F
:102B7900D2AFD0D0D083D082D0E032C0D075D010BF
