:020000040001F9
:10800000AA82AB837C00BC0800502AEC2CFDFE90B9
:1080100083FD93CEA393FFED90840D93CDA393F8AE
:10802000EA5205EB5200EEB50508EFB50004758283
:1080300001220C80D175820022C018E581F5182438
:1080400008F581E5182404F87600087600E5182480
:1080500006F87600900030E003540790841D93905A
:10806000661DF0900034E00303543F90661EF090CC
:108070000034E003540190661FF0783579817A026C
:108080001200B3AD829022B6EDF0906008E0FEBE23
:1080900001047E0880027E01A818080876BC0876D4
:1080A000029022B5EEF030165CED6009906614E0A7
:1080B0002401F08009906614E014906614F0906634
:1080C00014E0FC700CFD90E643E0FF906614F08035
:1080D00034C00690E643E0FFE4CF25E0CF33FE7ADC
:1080E00000C3EC9FEA64808EF063F08095F0D006C8
:1080F000400D7D0190E643E0FA906614F08006752D
:108100008201028224BD0111C00678A679817A021B
:108110001200B3AA82D0068011C006784D79827A07
:10812000021200B3AB82D0068B02EA600302821D0A
:10813000C00678A579837A011200B3D00630160AFA
:10814000E5182406F8760102821DC006783579818B
:108150007A021200B3AA82D0068A059022B6EDF008
:10816000A81808E6B505028011A81808A605BE08DB
:10817000047E028005BE02027E01E5182404F80890
:10818000E618C625E0C63308F68D027B00E5182404
:1081900004F8EA46F6EB0846F6E5182404F8E51874
:1081A0002407F9E6F70809E6F77C00BC0800503B15
:1081B000C006EC2CFFFE9083FD93CEA393FAEFFB59
:1081C00090840D93CBA393FFE5182407F8E65203A0
:1081D00008E65207EEB50306EAB507028004D006AA
:1081E0008006D0067A0180050C80C07A00EA601013
:1081F000E5182406F87601906006E04408F0801D3A
:1082000090E649E020E00AA818080816B6FF020820
:1082100016A8180808E6084660030280A1E518249D
:1082200006F88682851881D0180200C590A316E052
:108230005407FABA03079067B3E0FA80129067B365
:10824000E0FB7401B5030050047A0080028B0290B9
:108250002230740FF0900228E003035407FB53030D
:1082600004E4BB000104FB906006E054F7F090606A
:1082700001E054FDF090E60AE003035401FCBC0168
:1082800002800A906003E05401FCBC0144EA2AFC2D
:1082900024AAFDE43465FEEB2DF582E43EF583E08F
:1082A00090661EF0EC24B2FDE43465FEEB2DF58201
:1082B000E43EF583E0906620F0EC24A2FCE4346513
:1082C000FDEB2CF582E43DF583E0FC90661FF08029
:1082D0001290661E7431F09066207405F090661F4F
:1082E0007401F0906620E090841D9390661DF0C0AC
:1082F00002C00378A579837A011200B3D003D002BB
:10830000906008E0600302839290E60AE030E203A6
:10831000028392C002C003783979807A011200B3D7
:10832000AC82D003D002906005EC13E092E1F090B3
:108330000030E0035407FCEA2433FDE43466FEEC2D
:1083400090841D938D828E83F0EA2AFA24AAFCE49D
:108350003465FDEB2CFCE43DFD90661EE08C828DC7
:1083600083F0EA24B2FCE43465FDEB2CFCE43DFD33
:10837000906620E0FE8C828D83F0EA24A2FAE43439
:1083800065FCEB2AFBE43CFD90661FE0FA8B828DD6
:1083900083F0906001E04402F090E643E0FA9066DA
:1083A00014F00200C590661EE090003425E025E040
:1083B00054FCF5F0E0540345F0F090661FE09000A7
:1083C0003413E092E1F090661DE0FAC3136202906C
:1083D0006620EAF0900030EA2A540EF5F0E054F1FD
:1083E00045F0F0900034E04401F0785579C07A020D
:1083F0001200B3900034E054FEF00200C505000AFC
:10840000003300CC00C701380E0F0FF0F00F000F43
:1084100000FF00FF00FF0FFF0FFFFFFFFF00010342
:0584200002070604053F
:020000040002F8
:10800000900218E04402F090E60AE030E216906038
:1080100014E0FA900030C454F0F5F0E0540F45F04D
:10802000F00281329022307410F0906006E054FB30
:10803000F0906002E054F7F07A0090002CE04401E8
:10804000F0900030E0540F4480F090000AC00278B5
:108050006679BC7A021200B3D0027B007C30C00289
:10806000C003C004783579817A021200B3AD82D0A2
:1080700004D003D002BD011A900030E0C4540FFEBA
:108080000E900030EEC454F0F5F0E0540F45F0F0DF
:108090008018900030E0C4540FFE1E900030EEC4F3
:1080A00054F0F5F0E0540F45F0F090000AC002C023
:1080B00003C004C005786679BC7A021200B3D0050B
:1080C000D004D003D002EA2AFAED42020BC002C06B
:1080D00003C004C0038A82781D79BE7A021200B3FD
:1080E0001581D004D003D00292285009906006E098
:1080F0004404F08023900030E0C4540FFDBD0F0213
:108100008016900030E054F0600E90E649E020E0E8
:10811000011CEC600302805E90002CE054FEF090A5
:108120000030E0C4540FFA906014F0906002E04414
:1081300008F00200C5902152E054FEF0E04401F046
:10814000E054FEF0902150E05401FAF5820200C59F
:1081500090661EE090003425E025E054FCF5F0E048
:10816000540345F0F090661FE090003413E092E174
:10817000F090661DE0FAC3136202900030EA2A54C0
:108180000EF5F0E054F145F0F0900034E04401F0D9
:10819000900002786679BC7A021200B3900034E055
:1081A00054FEF00200C57A0090661EE0FBBB312E43
:1081B00090661DE0FCBC060E90661E7433F090665F
:1081C0001FE4F0028232BC070890661E7430F08013
:1081D0006190661E7432F090661FE4F08054BB32EA
:1081E000028003BB332F90661DE0FCBC0614906632
:1081F0001E7431F090661D7407F090661F7401F0D4
:10820000803090661EE4F090661DEC04F090661FCE
:108210007401F0801D90661DE0FCBC070FEB70043C
:108220007A018024EB1490661EF0800690661EEBA7
:1082300004F09022B5E0FBFC1B9022B5EBF074013A
:10824000B5040050030281A88A820200C57A00901A
:10825000661DE0FBBB072390661EE0FCBC3113905B
:10826000661E7433F090661D7406F090661FE4F08D
:10827000804A90661EEC04F0804290661EE0FCBCD2
:1082800032028003BC330E90661E7431F090661F7C
:108290007401F08027EC701E7401B503005013EBDD
:1082A0001490661DF090661E7433F090661FE4F023
:1082B000800A7A01801CEC1490661EF09022B5E0D2
:1082C000FBFC1B9022B5EBF07401B50400500302D7
:1082D000824F8A820200C59060087401F0902200EB
:1082E000E0FA90E6D8E0FBEAB5035B90661CE0FAA2
:1082F000705490E632E0C4540125E024CCFAE43412
:10830000E5FB90E61EE0FC2AF582E43BF583E0FA0B
:1083100090E63CE0FB90660DF09082D8EA2A25E0DA
:1083200054FCF5F0E0540345F0F09082D8E04401AD
:10833000F090822CE04480F09082D8E054FEF090DF
:10834000822CE0547FF0A20EE4332494F582E434CE
:1083500065F583E090001CC4035438F5F0E054C781
:1083600045F0F090E632E003540125E02496FBE46A
:108370003465FCA20EE4332BF582E43CF583E0F592
:108380008278C879AD7A021200B3A20EE433249A3F
:10839000F582E43465F583E0900024C42354E0F5CD
:1083A000F0E0541F45F0F090E632E003035401255D
:1083B000E0249CFBE43465FCA20EE4332BF582E45C
:1083C0003CF583E0F58278F779AF7A021200B3903A
:1083D0000038E054034478F0900228E00303540787
:1083E000FA530204E4BA000104FAA20EE43325E0D1
:1083F00024AAFBE43465FCEA2BF582E43CF583E037
:1084000090003425E025E054FCF5F0E0540345F0FD
:10841000F0A20EE43325E024B2FBE43465FCEA2B41
:10842000F582E43CF583E090003025E0540EF5F051
:10843000E054F145F0F0A20EE43325E024A2FBE481
:108440003465FCEA2BF582E43CF583E090003413BC
:10845000E092E1F0900034E04401F0E054FEF0904E
:10846000E631E023540125E02470FAE43465FBA2F0
:108470000EE433FC2AF582E43BF583E090021C25F0
:10848000E025E054FCF5F0E0540345F0F090E647B9
:10849000E090660AF0A20EE4332474F582E43465B9
:1084A000F583E090021C13E092E1F0900044E04478
:1084B00010F0900220E04401F0900044E054EFF00E
:1084C000900220E054FEF0906616E0FA90A316E0C9
:1084D0005407FBBB04027A0090E633E003540175B5
:1084E000F005A42476FBE43465FCEA2BF582E43C39
:1084F000F583E090022025E025E054FCF5F0E054FF
:108500000345F0F090E639E0906609F0EA2480F542
:1085100082E43465F583E090022013E092E1F0906C
:108520000044E04410F0900220E04401F090004448
:10853000E054EFF0900220E054FEF090E633E05477
:108540000175F005A42485FBE43465FCEA2BF58273
:10855000E43CF583E090004025E025E054FCF5F094
:10856000E0540345F0F090E638E0906608F0EA2425
:108570008FF582E43465F583E090004013E092E1EA
:10858000F0900044E04410F0900220E04401F090AC
:108590000044E054EFF0900220E054FEF090E63208
:1085A000E023540125E0246AFAE43465FBA20FE4D9
:1085B00033FC2AF582E43BF583E090024C25E0543D
:1085C0007EF5F0E0548145F0F090E63FE0FA9066E9
:1085D00010F0900220E04401F0E054FEF0900258C8
:1085E000E05407604390E632E02323540125E02461
:1085F00064FAE43465FBA20FE433FC2AF582E43B21
:10860000F583E090025C25E025E054FCF5F0E054B1
:108610000345F0F090E63EE0FA90660FF0900220FD
:10862000E04401F0E054FEF0906008E4F00200C580
:108630009060087401F0A20EE4332494F582E434CF
:1086400065F583E090001CC4035438F5F0E054C78E
:1086500045F0F090E632E003540125E02496FAE478
:108660003465FBA20EE4332AF582E43BF583E0F5A2
:108670008278C879AD7A021200B3A20EE433249A4C
:10868000F582E43465F583E0900024C42354E0F5DA
:10869000F0E0541F45F0F090E632E003035401256A
:1086A000E0249CFBE43465FCA20EE4332BF582E469
:1086B0003CF583E0F58278F779AF7A021200B39047
:1086C0000228E003035407FA530204E4BA00010449
:1086D000FAA20EE43325E024AAFBE43465FCEA2B7D
:1086E000F582E43CF583E090003425E025E054FC7D
:1086F000F5F0E0540345F0F0A20EE43325E024B297
:10870000FBE43465FCEA2BF582E43CF583E0900061
:108710003025E0540EF5F0E054F145F0F0A20EE4FF
:108720003325E024A2FBE43465FCEA2BF582E43C2B
:10873000F583E0FA90003413E092E1F0900034E029
:108740004401F0E054FEF0906008E4F00200C5E55A
:1087500082FA25E0FB24F7FCE43465FD90E61FE097
:108760002CFCE43DFD901010E0C423541FFE530682
:108770001F8C828D83EEF0EB24FBFBE43465FC90D0
:10878000E61FE02BFBE43CFC901014E0540FFD537B
:10879000050F8B828C83EDF0EA2A25E024FFFAE4B2
:1087A0003465FB90E61FE025E02AFAE43BFB906687
:1087B00021E0FCA3E0FD8A828B83ECF0A3EDF002C4
:1087C00000C5E582FA25E0FB24F7FCE43465FD9062
:1087D000E61FE0FE2CF582E43DF583E0901010C426
:1087E0000354F8F5F0E0540745F0F0EB24FBFBE40C
:1087F0003465FC90E61FE0FD2BF582E43CF583E058
:10880000901014540FF5F0E054F045F0F0EA2A25EA
:10881000E024FFFAE43465FB90E61FE025E02AF54A
:1088200082E43BF583E0FAA3E0FB906621EAF0A343
:10883000EBF08B04901018ECC42354E0F5F0E054F6
:108840001F45F0F090101CEAF00200C5C2AF906620
:1088500021E0FAA3E0FBFC901018ECC42354E0F5EF
:10886000F0E0541F45F0F090101CEAF0901014E076
:0C8870004440F0E054BFF0D2AF0200C55D
:020000040001F9
:10842500902206E0FA430202902206EAF0906003E9
:10843500E054FEF075820078B779907A011200B3A6
:10844500902401E054DFF0902402E054FEF09020E7
:1084550033E0C4540FFA906615F090E62CE0540F03
:10846500FBC0038A82788B79C07A021200B3AA8294
:108475001581906615EAF0902117E0C4540FFA9023
:108485006616F090E62CE0540FFBC0038A82788BC9
:1084950079C07A021200B3AA821581906616EAF0B5
:1084A500906301E0FAFB906300E0FCB50300403AFD
:1084B500EB75F050A4FCADF02404FEED3463FF8EA3
:1084C500828F83A3E0FEBE01028016EC2404FCED3E
:1084D5003463FD74162CF582E43DF583E0FCBC01A4
:1084E50004D2128002D2110B80BCD212906615E024
:1084F500FA75F050A4FBACF02404F582EC3463F576
:1085050083E0FD906792F07401B50500400A90A3E1
:1085150016E05407FEBE0409C20F9067B4E4F0806C
:108525000AED24FF920F9067B4EDF0EB2404FBEC09
:108535003463FC8B828C83A3E024FF921090223855
:10854500E0FB530301BB01028009782179C17A015F
:108555001200B3902200E0FB90E6D8E0FCEBB504F6
:1085650002800E90E604E030E43E90A329E020E38B
:108575003790831CE054F94404F090A345E054FD82
:10858500F0E04401F090A345E04404F090A329E015
:108595004408F090E607E030E40E90A32BE0440297
:1085A500F090A32BE04404F0780979BF7A02120019
:1085B500B330142590E60874FCF0A374FFF0A3F023
:1085C500A3740FF0781279917A011200B378647967
:1085D500C17A011200B3028CB4902102E054F7F085
:1085E500902003E04404F0902003E04401F0900261
:1085F50018E04404F0900244E0547FF090600AE0F3
:1086050054DFF09022B47431F0906792E0FB902231
:10861500B7F0A212E4339022B9F0A210E43390220D
:10862500BAF0906624E0FC9022BCF090661CE090C5
:1086350022BDF0906793E0FDEBB50502800E902218
:1086450038E0FB530301BB0103EC7018902238E0BE
:10865500FB530301BB010D90A316E05407FBBB04BC
:1086650003028833902200E0FB90E6D8E0FCEBB5EE
:10867500042D90E608E054FEF0902238E0FB530309
:1086850001BB01028009789979D57A021200B3A25B
:1086950012B39228E433FB90A32413E092E0F07523
:1086A500820A78D379907A011200B3902200E0FB18
:1086B50090E6D8E0FCEBB5040280030287AA90227D
:1086C50038E0FB530301BB01030287AA78D579D4AF
:1086D5007A021200B390A316E05407FBBB03028095
:1086E5001390A316E05407FBC374818BF063F080ED
:1086F50095F040047B0180027B007C00BC020040B9
:10870500030287969022B47410F074702B9022BAED
:10871500F08B82C00412368978CB79D17A021200A7
:10872500B3D00490661CE0FD702FC00478D579D4D1
:108735007A021200B390A319E054EFF0788679C15C
:108745007A011200B378A579D47A021200B378C4FD
:1087550079C97A021200B3D00420153590A316E02A
:108765005407FDBD0402802990A316E05407FDBD02
:108775000302801390A316E05407FDC374818DF0A6
:1087850063F08095F040047B0080027B010C02873A
:108795000190661CE0FB700D902238E0FB4303025C
:1087A500902238EBF075820B78D379907A0112001C
:1087B500B3906624E0FB607630126C78ED79D47A5C
:1087C500021200B37B00BB020050518B82C0031222
:1087D5003A21902082E04402F0900005786679BC49
:1087E5007A021200B3902082E04401F090000578EF
:1087F5006679BC7A021200B390207EE054FEF078D0
:108805008A79D57A011200B3D00320150F90A316EB
:10881500E05407FCBC040280030B80AA780579D5D7
:108825007A021200B3800790A324E04401F0758218
:108835000C78D379907A011200B3906301E0FBFACA
:10884500906300E0FBB502005003028AA390661610
:10885500EAF0906615EAF090A316E05407FBBB0416
:1088650009C002123EF9D0028007C002124B86D021
:1088750002902238E0FB530301BB010302895A75BC
:108885008214C00278D379907A011200B3D0029095
:10889500A200E030E029902200E0701BC00278FFC2
:1088A50079E77A021200B375820178B779907A0177
:1088B5001200B3D002800890E6B6E0FBBB01F89049
:1088C500A200E030E12B902200E0FBBB011BC002BF
:1088D50078FF79E77A021200B375820178B779904B
:1088E5007A011200B3D002800890E6BAE0FBBB0122
:1088F500F890A200E030E22B902200E0FBBB021BC7
:10890500C00278FF79E77A021200B375820178B761
:1089150079907A011200B3D002800890E6BEE0FBA0
:10892500BB01F890A200E030E32B902200E0FBBBF6
:10893500031BC00278FF79E77A021200B375820142
:1089450078B779907A011200B3D002800890E6C218
:10895500E0FBBB01F8902238E0FB530301BB0103A8
:10896500028A3E758215C00278D379907A01120089
:10897500B3D00290A200E030E029902200E0701B05
:10898500C00278D679E67A021200B375820278B70A
:1089950079907A011200B3D002800890E6B6E0FB28
:1089A500BB02F890A200E030E12B902200E0FBBB77
:1089B500011BC00278D679E67A021200B3758202ED
:1089C50078B779907A011200B3D002800890E6BAA0
:1089D500E0FBBB02F890A200E030E22B902200E021
:1089E500FBBB021BC00278D679E67A021200B3758A
:1089F500820278B779907A011200B3D0028008908C
:108A0500E6BEE0FBBB02F890A200E030E32B90222B
:108A150000E0FBBB031BC00278D679E67A021200A0
:108A2500B375820278B779907A011200B3D00280CB
:108A35000890E6C2E0FBBB02F8C00278F7799E7A9F
:108A4500021200B378F379AA7A011200B3784D794E
:108A5500A27A021200B3781679A67A021200B378C8
:108A65000079807A021200B3786479C17A01120024
:108A7500B3782C79827A011200B378D379977A0288
:108A85001200B37893799B7A021200B3D00290A3B7
:108A950016E05407FBBB040280040A0288459022B5
:108AA50038E0FA530201BA0103028CB478F279D99D
:108AB5007A021200B3785279E17A021200B3758214
:108AC5001678D379907A011200B3902200E0FA90DB
:108AD500E6D8E0FBEAB50309908200E04404F080A3
:108AE50007908200E030E2F990A200E030E02590A6
:108AF5002200E0701778DE79BA7A021200B3758227
:108B05000378B779907A011200B3800890E6B6E051
:108B1500FABA03F890A200E030E127902200E0FACB
:108B2500BA011778DE79BA7A021200B37582037832
:108B3500B779907A011200B3800890E6BAE0FABAE4
:108B450003F890A200E030E227902200E0FABA0292
:108B55001778DE79BA7A021200B375820378B7798D
:108B6500907A011200B3800890E6BEE0FABA03F8E5
:108B750090A200E030E327902200E0FABA031778CC
:108B8500DE79BA7A021200B375820378B779907AE2
:108B9500011200B3800890E6C2E0FABA03F8902209
:108BA50000E0FA90E6D8E0FBEAB50309908200E020
:108BB50054FBF08007908200E020E2F97582187876
:108BC500D379907A011200B3902200E0FA90E6D8AA
:108BD500E0FBEAB50309908200E04408F0800790C5
:108BE5008200E030E3F990A200E030E02590220019
:108BF500E07017782979B47A021200B37582057886
:108C0500B779907A011200B3800890E6B6E0FABA17
:108C150005F890A200E030E127902200E0FABA01C1
:108C250017782979B47A021200B375820578B77975
:108C3500907A011200B3800890E6BAE0FABA05F816
:108C450090A200E030E227902200E0FABA021778FD
:108C55002979B47A021200B375820578B779907ACA
:108C6500011200B3800890E6BEE0FABA05F890A2BA
:108C750000E030E327902200E0FABA03177829795B
:108C8500B47A021200B375820578B779907A011229
:108C950000B3800890E6C2E0FABA05F8908200E0D9
:108CA50054F7F075820078D379907A011200B39069
:108CB5002003E054FBF0902003E054FEF090216A7D
:108CC500E054FBF0902163E054BFF0900244E0448F
:108CD50080F090024CE0547FF090600AE04420F070
:108CE500906638E4F0906639F090822CE054EFF00D
:108CF50090E6B1E4F0906003E04401F0902206E0D4
:108D0500FA5302FB902206EAF090A318E030E550F2
:108D150090E6D8E07006902200E0603490E6D8E056
:108D2500FABA010A902200E0FABA0102802290E61E
:108D3500D8E0FABA020A902200E0FABA02028010DC
:108D450090E6D8E0FABA0311902200E0FABA0309D6
:108D550090A318E054DFF0800790A318E020E5F910
:108D650090A316E05407FABA031190E61FE0906746
:108D750095F090E61EE0FA906794F090662BE4F08B
:108D8500906623E0FA70089022307419F0801590EF
:108D95002007E030E5089022307419F08006902213
:108DA50030741AF00200C590E607E030E003029047
:108DB500B4D2167A007407B5020050030290A1EAF6
:108DC5002A2A908DCB73028DE3028E2B028EAF0281
:108DD5008EC9028EE6028F03028FD102906CC0020B
:108DE500780979BF7A021200B3E5828583F0D00253
:108DF500906617F0A3E5F0F0906624E0FB7003029F
:108E050090A190207EE020E1030290A190E60DE084
:108E150020E5030290A1C00278CF79DC7A01120027
:108E2500B3D0020290A190600AE020E3030290A172
:108E3500906638E0FBBB011D90E60EE030E0169031
:108E45002002E030E20FC00278D679E67A021200FD
:108E5500B3D0028037906638E0FBBB030050079023
:108E65002007E020E413906638E0FB7402B50300A8
:108E7500501A902102E030E613906638E0F582C082
:108E850002780779EF7A021200B3D002906638E0D3
:108E95002401F0906638E0FB7405B5030040030239
:108EA50090A1906638E4F00290A190E60EE020E3F0
:108EB500030290A1C002783979807A011200B3D0FB
:108EC500020290A190E60EE020E1030290A17582D6
:108ED50000C002789479AC7A011200B3D0020290F6
:108EE500A190E60EE020E2030290A1758200C00287
:108EF500785979AD7A011200B3D0020290A190663B
:108F050039E0FB7404B503005003028FB3EB2B2B40
:108F1500908F1973028F28028F38028F47028F5660
:108F2500028F83C00278F7799E7A021200B3D002CD
:108F3500028FB3C002784D79A27A021200B3D00233
:108F4500806CC002781679A67A021200B3D002802E
:108F55005D902007E030E456900258E05407700F0A
:108F6500C00278D379977A021200B3D002803FC04D
:108F7500027893799B7A021200B3D0028030902256
:108F850000E0FB90E6D8E0FCEBB5042290661CE01F
:108F9500FB701B90E60EE030E41490A34FE030E048
:108FA5000DC00278C479C97A021200B3D002906666
:108FB50039E02401F0906639E0FB7404B503004004
:108FC500030290A1906639E4F00290A1A203E43374
:108FD500FB9022B4EBF0902200E0FB90E6D8E0FC99
:108FE500EBB5040280030290A190661CE0FB6003D0
:108FF5000290A190A34FE020E0030290A12003037B
:109005000290A190E60DE020E6030290A1C002784F
:109015002679CE7A021200B3D00290E606E0541CFF
:109025007041906626E0FB74F05BFCBC100C758B00
:10903500FB758DFFD28EC203806274F05BFCBC2091
:109045000C758BD8758DFFD28EC203804F5303F0FC
:10905500BB300C758B9C758DFFD28EC203803DD2C3
:10906500038039D2038035902200E0FB90E6D8E0FA
:10907500FCEBB5042790661CE0FB702090A319E07B
:1090850030E61990E60EE0C4035401FBBB010DC0A8
:1090950002781A79C77A021200B3D002902231E021
:1090A500700B8A030ABB08005003028DBAC2160270
:1090B50000C5AA82902232EAF0902200E070079063
:1090C500E6B6EAF0800590E6BAEAF00200C5AA82A3
:1090D500C00278B779907A011200B3D00290E6B653
:1090E500E0FBB5020A90E6BAE0FBB50202801B90F0
:1090F500E6C6E0601590E6CAE0600FC002785579D3
:10910500C07A021200B3D00280D30200C5123EF924
:1091150090A316E05407FABA0411906792E0FA900A
:109125006793E0FBEAB503030292FC902200E0FAA4
:1091350090E6D8E0FBEAB5030280030291E59022B0
:1091450038E0FA530201BA0102800978D579D47A58
:10915500021200B39082B4E054074480F09082B4C8
:10916500E054F84402F09082C8E0540FF090A31642
:10917500E05407FABA0406C228C229802B30111D13
:1091850030100DA20FB3922A9228A20F92298018AF
:10919500A20F9228A20FB3922A9229800BA20FB395
:1091A500922A9228A20F9229A20FE43390E61EF08C
:1091B500A228E433F582C025123689D02590A3195B
:1091C500E054EFF0902238E0FA530201BA01028030
:1091D50036C02578A579D47A021200B3D025802728
:1091E50090A316E05407FABA0404C2298019301175
:1091F50012301006A20F9229800DA20FB392289269
:10920500298004A20F92299022B47432F090661539
:10921500E09022B5F0906616E09022B6F090679245
:10922500E09022B7F0906300E09022B8F0A212E43B
:10923500339022B9F0A210E4339022BAF0A20FE4E1
:10924500339022BBF0906624E0FA9022BCF0A21283
:10925500B39228E433FB90A32413E092E0F0EA7084
:10926500030292EC90A316E05407FABA0402C2294D
:10927500301274C02578ED79D47A021200B3D02566
:10928500A229E433F582123A21901010E0540744E4
:1092950080F0901014E054F04408F0901018E05459
:1092A5001F4460F090101C7484F0901014E054CFAB
:1092B500F0902082E04402F0900005786679BC7A4F
:1092C500021200B3902082E04401F0900005786618
:1092D50079BC7A021200B390207EE054FEF0780546
:1092E50079D57A021200B3906623E0FA70097835D1
:1092F50079D57A021200B30200C59026447403F0B2
:10930500A3F0A37404F0A3E4F0902644F0A3F0A323
:10931500F0A3F090215B7460F0E4F0902102E0305E
:10932500E607902002E020E226902600E0FAA3E07E
:10933500A3E0FCA3E0FD5302027B0053041F530589
:10934500A0902600EAF0A3EBF0A3ECF0A3EDF090DB
:10935500201BE030E440902007E030E5079020072F
:10936500E020E416902002E054FBF0902102E05446
:10937500BFF09022307421F08014902102E020E2A9
:109385000D902102E054BFF09022307422F090201D
:10939500537413F0E4F090201AE020E10302942FB7
:1093A500902200E0FA7403B502004049EA2A2A90A7
:1093B50093B8730293C40293D20293E00293EE90A2
:1093C5002034E05401FA90E650EAF08028902034E9
:1093D500E05401FA90E651EAF0801A902034E05406
:1093E50001FA90E652EAF0800C902034E05401FA3C
:1093F50090E653EAF09020527402F0E4F090E650C3
:10940500E0602790E651E0602190E652E0601B9015
:10941500E653E0601590A02FE04410F090A02FE0F7
:109425004420F090A327E04408F09022E4E030E0E7
:109435000D90602E7402F0906033E04401F0201628
:10944500030294E0C216902200E0FA90E6D8E0FB11
:10945500EAB5030978D879CC7A021200B3900034C2
:10946500E054FEF0900044E054EFF0900220E05408
:10947500FEF0900218E054FEF090021CE054FEF05D
:1094850090003CE054FDF090021CE054FDF0900289
:1094950020E054FDF0900040E054FDF090822CE077
:1094A500547FF09082D8E054FEF0900040E054FEE6
:1094B500F090024CE0547FF090025CE054FDF09097
:1094C5000060E054FDF09082DCE0547FF0901014D1
:1094D500E054BFF0901020E0547FF00200C5C018A2
:1094E500858118058105819061707401F09066FD94
:1094F500E0FABA0102800B90E607E0035401FABADC
:109505000106200803029C909060A2E4F09060A3FD
:10951500F090679DE0FA906174E0FBA3E0FCEB201E
:10952500E0030295D19060A27401F0902163E054AC
:109535007FF090240CE0547FF0902102E04480F00D
:10954500E0547FF0C002785579C07A021200B390DA
:109555002403E054BFF0758E07902410E04404F016
:10956500E054FBF0758E009022D0E04480F090220C
:10957500D4E04480F09022D0E0547FF09022D4E0F3
:10958500547FF07898799C7A011200B3D0029060EC
:10959500A27402F09060A0E030E131C002789379C6
:1095A5008C7A021200B375820078BD798C7A02122A
:1095B50000B375821078BD798C7A021200B375827A
:1095C5001278BD798C7A021200B3D002906174E0F2
:1095D500FBA3E0FCEB30E12A9060A27403F0C0022B
:1095E50074FFC0E0900000784279937A021200B3CC
:1095F5001581D002902163E04480F090240CE04472
:1096050080F0906174E0FBA3E0FCEB20E20302979D
:109615002B9060A27404F0758201C00278327992B1
:109625007A021200B375820078C679967A02120022
:10963500B3D002906174E0FBA3E0FCEB30E51B9036
:1096450060A27405F0C002E4C0E0900A0178427996
:10965500937A021200B31581D002758B18758DFCB3
:10966500D28EC2039060A27406F0C0027401C0E0FD
:10967500900A01784279937A021200B31581D002DB
:10968500906661E0FBB50202806E9060A27408F0FE
:10969500EBFC3395E0FDEC24FEFEED34FFFFA8184E
:1096A50008A602EA3395E008F6A81808C3E69E085E
:1096B500E664808FF063F08095F050040A0A8020FC
:1096C50074022CFCE43DFDA81808C3EC96ED6480FB
:1096D5000886F063F08095F050041A1A80028B0218
:1096E500906662E0FBC002C0038A82122AD6158109
:1096F500D00220030302966930030F9060A3E0FABD
:109705004302029060A3EAF0C203C28EC28F758243
:109715000078BD798C7A021200B375821078BD7914
:109725008C7A021200B3906174E0FAA3E0FBEA20A0
:10973500E4030298EE9060A2740AF0902401E054CC
:10974500FDF0902401E054FEF0906174E0FAA3E08E
:10975500FBEA30E53A9060A2740BF075820178322D
:1097650079927A021200B375820078C679967A02E8
:109775001200B390240BE04480F0E054BFF0E4C045
:10978500E0900A01784279937A021200B31581902C
:109795006174E0FAA3E0FBEA30E6499060A2740C3C
:1097A500F0202718758201783279927A021200B377
:1097B50075820078C679967A021200B390240BE080
:1097C5004480F0E054BFF0902402E04408F0E054F7
:1097D500FBF07402C0E0900A01784279937A021294
:1097E50000B31581906174E0FAA3E0FBEA30E7600D
:1097F5009060A2740DF02027187582007832799256
:109805007A021200B375820278C679967A0212003E
:10981500B390240BE04480F0E054BFF0902402E0C4
:109825004408F0E054FBF03008147402C0E09000E6
:1098350000784279937A021200B31581801274027E
:10984500C0E0900302784279937A021200B3158141
:10985500906174E0FAA3E0FB20E0030298EE9060CB
:10986500A2740EF0202718758200783279927A0258
:109875001200B375820278C679967A021200B39007
:10988500240BE0547FF090240BE054BFF0902402A9
:10989500E054F7F0902402E054FBF090671BE0FAE7
:1098A50060147404C0E0900204784279937A02123D
:1098B50000B3158180127402C0E0900204784279E9
:1098C500937A021200B315817893798C7A0212008B
:1098D500B375821078BD798C7A021200B375820057
:1098E50078BD798C7A021200B3906174E0FAA3E036
:1098F500FB20E1030299849060A27410F09024018A
:10990500E054FDF0902401E054FEF09060A2741143
:10991500F090240BE0547FF0E04440F0902402E006
:1099250054F7F0E04404F07403C0E0900A01784273
:1099350079937A021200B315819060A27412F090A7
:10994500240BE0547FF090240BE054BFF0902402E8
:10995500E054F7F0902402E054FBF07403C0E0906B
:109965000302784279937A021200B315819060A2BE
:109975007413F075821278BD798C7A021200B39057
:109985006174E0FAA3E0FB20E203029A119060A261
:109995007414F0758200783279927A021200B375E8
:1099A500820278C679967A021200B39060A2741585
:1099B500F0902401E04402F090240BE04480F0E0B4
:1099C50054BFF0E4C0E0900802784279937A02121D
:1099D50000B315819060A27416F090240BE0547FBB
:1099E500F090240BE054BFF0E4C0E090040478420A
:1099F50079937A021200B3158175820178BD798C4D
:109A05007A021200B3902401E054FDF0906174E0F5
:109A1500FAA3E0FB20E403029BB89060A27418F05F
:109A2500202718758200783279927A021200B37570
:109A3500820278C679967A021200B3902404E05423
:109A4500BFF0902401E04401F07A007B00758202AA
:109A5500C002C0037885798B7A021200B3D003D097
:109A6500029060A27419F090240BE04480F0E05459
:109A7500BFF020271BC002C003E4C0E0900A0278B3
:109A85004279937A021200B31581D003D00280196E
:109A9500C002C003E4C0E0900802784279937A02DC
:109AA5001200B31581D003D0029060A2741AF09011
:109AB500240BE0547FF0E04440F020271BC002C097
:109AC50003E4C0E0900804784279937A021200B367
:109AD5001581D003D0028019C002C003E4C0E09014
:109AE5000604784279937A021200B31581D003D027
:109AF500029060A2741CF0EB7016758202C002C061
:109B05000378BD798C7A021200B3D003D002802D80
:109B1500EA7016758203C002C00378BD798C7A029B
:109B25001200B3D003D0028014758204C002C003B2
:109B350078BD798C7A021200B3D003D0029060A26E
:109B4500741BF09060A0E030E35BEB701F7B01902D
:109B55006661E0FCC002C003906706E0C0E08C824D
:109B6500122AD61581D003D002029A52EA701F7AC2
:109B750001906661E0FCC002C003906708E0C0E0A8
:109B85008C82122AD61581D003D002029A52906790
:109B950007E0FA906662F0906661E0FBC0028B8296
:109BA500122AD61581902401E054FEF0902404E099
:109BB5004440F0906174E0FAA3E0FB20E603029CC8
:109BC5006790604FE030E603029C679060A27421C5
:109BD500F0902580E04401F090605AE020E2207585
:109BE50082017885798B7A021200B378DD799C7AC7
:109BF500011200B37800798B7A021200B3800F90BE
:109C05006039E0F5827800798B7A021200B39060B2
:109C1500A27422F0902580E04404F0E054FBF0901B
:109C2500605AE030E21474FFC0E090200878427971
:109C3500937A021200B31581801274FFC0E0900A76
:109C450005784279937A021200B315819060A27467
:109C550023F078B879887A021200B3AA82906170ED
:109C6500EAF090605AE020E21C2008199060A27486
:109C750024F07582017885798B7A021200B39025DC
:109C850080E054FEF09060A27425F0851881D0180C
:109C95000200C5902403E04420F0E054DFF0E044E6
:109CA50002F0902403E054FDF0E04401F0E054FE9E
:109CB500F0758B9C758DFFD28EC2032003179024FF
:109CC5000BE030E5F6785579C07A021200B390249E
:109CD5000BE030E5E60200C5906158E0FA90615965
:109CE500E0FBC0038A82788B79C07A021200B3AB9D
:109CF5008215818B0290615AE0FBC0038A82788BC2
:109D050079C07A021200B3AB8215818B0290615B38
:109D1500E0FBC0038A82788B79C07A021200B3AB6C
:109D25008215818B0290615CE0FBC0038A82788B8F
:109D350079C07A021200B3AB8215818B0290615D06
:109D4500E0FBC0038A82788B79C07A021200B3AB3C
:109D55008215818B0290615EE0FBC0038A82788B5D
:109D650079C07A021200B3AB8215818B0290615FD4
:109D7500E0FBC0038A82788B79C07A021200B3AB0C
:109D85008215818B0290E6AFE0C4540FFB8BF00582
:109D9500F0EA8002C313D5F0FBFA90E6AFE0540F6A
:089DA500FB2AFAF5820200C559
:020000040000FA
:1000DE00D315D3111003D77590550040000280013F
:0A00EE000010D3019300D755D3058D
:020000040001F9
:109DAD00902402E054EFF0900054E04408F090004D
:109DBD0054E04404F0900054E04402F0900054E06C
:109DCD004401F0900058E04480F0902401E04404F8
:109DDD00F0902418E054EFF0902418E054DFF09048
:109DED002405E054FEF0902405E054F7F0302710E0
:109DFD00902400E0540F44C0F0902405E04402F09C
:109E0D000200C590604CE020E403029EF190604C8E
:109E1D00E030E303029EF190604CE030E503029EDA
:109E2D00F19066FDE0FA6003029EF190672BE0FA77
:109E3D006003029EF190663AE02401F090663AE0EC
:109E4D00FA7403B502004003029EF190663AE4F005
:109E5D007582017885798B7A021200B378E7799053
:109E6D007A021200B3902409E4F0902408E0FA532A
:109E7D00020D902408EAF090240AE04440F090246A
:109E8D0005E054FDF0902405E054FEF0902405E02B
:109E9D0054F7F0902400E044F0F07404C0E090100A
:109EAD0010784279937A021200B3158178E7799090
:109EBD007A021200B3902408E0FA5302F0902408BD
:109ECD00EAF090240AE054BFF07404C0E090100151
:109EDD00784279937A021200B315817893798C7A4E
:109EED00021200B30200C590604CE030E02B9002EE
:109EFD0064E030E209900264E054FBF0802D9002A2
:109F0D0064E04404F07810799E7A011200B3780F62
:109F1D0079E07A021200B380127810799E7A0112DC
:0E9F2D0000B3780F79E07A021200B30200C58B
:020000040002F8
:10887C00C018858118AA82AB83ACF0FDE51824F9E9
:10888C00F8C3E69A08E69B08E69C08E69D50098A20
:10889C00828B838CF0ED800FE51824F9F886820822
:1088AC0086830886F008E6D0180200C5C018E5815A
:1088BC00F5182408F581902560E0FAA3E0FBA3E00D
:1088CC00FCA3E0FDE5182405F8A60208A60308A6FB
:1088DC000408A605902564E0FEA3E0FFA3E0FAA33C
:1088EC00E0FBC006C007C002C003E5182405F886EB
:1088FC00820886830886F008E6787C79887A0212EA
:10890C0000B3AA82AB83ACF0FDE58124FCF581E5D4
:10891C00182405F8A60208A60308A60408A60590C4
:10892C002568E0FAA3E0FBA3E0FCA3E0FDC002C0D5
:10893C0003C004C005E5182405F886820886830860
:10894C0086F008E6787C79887A021200B3AA82ABAA
:10895C0083ACF0FDE58124FCF581E5182405F8A62F
:10896C000208A60308A60408A60590256CE0FAA345
:10897C00E0FBA3E0FCA3E0FDC002C003C004C00503
:10898C00E5182405F886820886830886F008E678C0
:10899C007C79887A021200B3AA82AB83ACF0FDE535
:1089AC008124FCF581E5182405F8A60208A6030825
:1089BC00A60408A605902570E0FAA3E0FBA3E0FC52
:1089CC00A3E0FDA81808A60208A60308A60408A69A
:1089DC0005902574E0FEA3E0FFA3E0FAA3E0FBC042
:1089EC0006C007C002C003A8180886820886830840
:1089FC0086F008E6787C79887A021200B3AA82ABFA
:108A0C0083ACF0FDE58124FCF581A81808A60208CA
:108A1C00A60308A60408A605902578E0FAA3E0FBB7
:108A2C00A3E0FCA3E0FDC002C003C004C005A8186D
:108A3C000886820886830886F008E6787C79887A2E
:108A4C00021200B3AA82AB83ACF0FDE58124FCF5E5
:108A5C0081A81808A60208A60308A60408A6059073
:108A6C00257CE0FAA3E0FBA3E0FCA3E0FDC002C080
:108A7C0003C004C005A8180886820886830886F0FF
:108A8C0008E6787C79887A021200B3AA82AB83ACB0
:108A9C00F0FDE58124FCF581A81808A60208A603C0
:108AAC0008A60408A60590E6AEE0FAE4FBFCFDE59A
:108ABC00182405F8C3E69A08E69B08E69C08E69D90
:108ACC005005758200802590E6ACE0FAA3E0FB7CB3
:108ADC00007D00A81808C3EA96EB0896EC0896ED02
:108AEC00089650057582008003758201851881D027
:108AFC00180200C5AA82902440EA543FF5F0E054D5
:108B0C00C045F0F0902441EA543FF5F0E054C045E4
:108B1C00F0F0902442EA543FF5F0E054C045F0F0F8
:108B2C00902443EA543FF5F0E054C045F0F0902413
:108B3C0060EA543FF5F0E054C045F0F0902461EA4F
:108B4C00543FF5F0E054C045F0F0902462EA543FF5
:108B5C00F5F0E054C045F0F0902463EA543FF5F092
:108B6C00E054C045F0F0902430740FF0E4F0902401
:108B7C0034740FF0E4F00200C5AA82BA0102800836
:108B8C00BA0202805F028C897440C0E0E4C0E074D9
:108B9C0078C0E07461C0E0E4C0E090244075F0005F
:108BAC0078C879C17A021200B3E58124FBF5819073
:108BBC00243074FFF0A3F0A3F0A3747FF090243062
:108BCC00E4F0A3F0A3F0A3F090243474FFF0A3F02E
:108BDC00A3F0A3747FF0902434E4F0A3F0A3F0A3EB
:108BEC00F0028C89906178E0902440543FF5F0E0DD
:108BFC0054C045F0F0906179E0902441543FF5F079
:108C0C00E054C045F0F090617AE0902442543FF576
:108C1C00F0E054C045F0F090617BE0902443543F69
:108C2C00F5F0E054C045F0F0906198E09024605469
:108C3C003FF5F0E054C045F0F0906199E09024616C
:108C4C00543FF5F0E054C045F0F090619AE0902468
:108C5C0062543FF5F0E054C045F0F090619BE0FAAF
:108C6C00902463543FF5F0E054C045F0F09024306C
:108C7C00740FF0E4F0902434740FF0E4F090240BB3
:108C8C00E030E5F90200C57440C0E0E4C0E0748057
:108C9C00C0E07424C0E0E4C0E090617875F0007826
:108CAC00C879C17A021200B3E58124FBF581020078
:108CBC00C5AA82BA00028027BA0103028D41BA020A
:108CCC0003028D85BA0303028DC9BA0403028E0D0B
:108CDC00BA1003028E51BA1203028E7B028F54908B
:108CEC0024D0E0906148F09024D1E0906149F0905C
:108CFC0024D2E090614AF09024D3E090614BF09044
:108D0C0024F0E090614CF09024F1E090614DF090F3
:108D1C0024F2E090614EF09024F3E0FA90614FF071
:108D2C0090240BE030E2047A0180027A00906171A9
:108D3C00EAF0028F549024D0E0906150F09024D14E
:108D4C00E0906151F09024D2E0906152F09024D3E5
:108D5C00E0906153F09024F0E0906154F09024F195
:108D6C00E0906155F09024F2E0906156F09024F37D
:108D7C00E0FA906157F0028F549024D0E090615843
:108D8C00F09024D1E0906159F09024D2E090615A97
:108D9C00F09024D3E090615BF09024F0E090615C63
:108DAC00F09024F1E090615DF09024F2E090615E2F
:108DBC00F09024F3E0FA90615FF0028F549024D08D
:108DCC00E0906160F09024D1E0906161F09024D249
:108DDC00E0906162F09024D3E0906163F09024F015
:108DEC00E0906164F09024F1E0906165F09024F2E1
:108DFC00E0906166F09024F3E0FA906167F0028FE6
:108E0C00549024D0E0906168F09024D1E090616996
:108E1C00F09024D2E090616AF09024D3E090616BE2
:108E2C00F09024F0E090616CF09024F1E090616D92
:108E3C00F09024F2E090616EF09024F3E0FA9061EF
:108E4C006FF0028F547440C0E0E4C0E074D0C0E016
:108E5C007424C0E0E4C0E090610075F00078C8793B
:108E6C00C17A021200B3E58124FBF581028F549084
:108E7C0024C0E0547F9061B8547FF5F0E0548045F5
:108E8C00F0F09024C1E0547F9061B9547FF5F0E08C
:108E9C00548045F0F09024C2E0547F9061BA547F26
:108EAC00F5F0E0548045F0F09024C3E0547F9061DD
:108EBC00BB547FF5F0E0548045F0F09024C4E054AE
:108ECC007F9061BC547FF5F0E0548045F0F0902425
:108EDC00C5E0547F9061BD547FF5F0E0548045F0BF
:108EEC00F09024C6E0547F9061BE547FF5F0E054BE
:108EFC008045F0F09024C7E0547F9061BF547FF51B
:108F0C00F0E0548045F0F0902510E0906140F09036
:108F1C002511E0906141F0902512E0906142F090B3
:108F2C002513E0906143F0902514E0906144F0909B
:108F3C002515E0906145F0902516E0906146F09083
:108F4C002517E0FA906147F00200C5AA82BA000228
:108F5C008009BA0203028FF302907C906148E09082
:108F6C002440543FF5F0E054C045F0F0906149E0E6
:108F7C00902441543FF5F0E054C045F0F090614A24
:108F8C00E0902442543FF5F0E054C045F0F090617D
:108F9C004BE0902443543FF5F0E054C045F0F09082
:108FAC00614CE0902460543FF5F0E054C045F0F083
:108FBC0090614DE0902461543FF5F0E054C045F0D1
:108FCC00F090614EE0902462543FF5F0E054C045BF
:108FDC00F0F090614FE0FA902463543FF5F0E054C8
:108FEC00C045F0F002907C906158E0902440543FD2
:108FFC00F5F0E054C045F0F0906159E090244154F4
:10900C003FF5F0E054C045F0F090615AE0902442F6
:10901C00543FF5F0E054C045F0F090615BE09024D3
:10902C0043543FF5F0E054C045F0F090615CE090A3
:10903C002460543FF5F0E054C045F0F090615DE0E1
:10904C00902461543FF5F0E054C045F0F090615E1F
:10905C00E0902462543FF5F0E054C045F0F090618C
:10906C005FE0FA902463543FF5F0E054C045F0F013
:10907C00902430740FF0E4F0902434740FF0E4F08A
:10908C0090240BE030E5F90200C5E582FA602B90E4
:10909C00604CE030E010900264E054E7F090020C79
:1090AC00E0548FF08026900264E054E74408F0907E
:1090BC00020CE0548F4430F08012900264E054E7CC
:1090CC004410F090020CE0548F4420F090000A7889
:1090DC006679BC7A021200B30200C59060A4E0303D
:1090EC00E4119024087455F0A3F090240AE054C0C5
:1090FC00F0800F90240874FFF0A3F090240AE04451
:10910C003FF0902401E054FDF0902401E054FEF077
:10911C0090240AE054BFF0902402E054F7F090241D
:10912C0002E054FBF090240BE0547FF090240BE011
:10913C0054BFF00200C5902401E0C4035401FABAF4
:10914C000126758B18758DFCD28EC203902401E01C
:10915C0054DFF0902402E020E1033003F690240267
:10916C00E054FEF0C28EC28F0200C590E607E030DC
:10917C00E20302922F902401E030E50302922F903B
:10918C0066FDE0FABA010302922F90604CE020E4F5
:10919C000790604CE030E30302922F7582017885D2
:1091AC00798B7A021200B3902406E0543F4480F08D
:1091BC009024077405F078E779907A021200B39046
:1091CC002408E0FA5302FD902408EAF090240AE007
:1091DC004440F0902405E054FDF0902405E054FE4A
:1091EC00F0902405E054F7F0D20DD20C7582007883
:1091FC003279927A021200B3902401E04420F0906C
:10920C002402E054FEF0E04401F090604EE030E7C0
:10921C0012902401E054FBF0E04410F0902401E0A3
:10922C004401F00200C5AA82300C07200D047B0C0F
:10923C008013200C07300D047B038009BA01047BDA
:10924C000C80027B0F9060A4E0540FF4FA52039050
:10925C002400EBC454F0F5F0E0540F45F0F002009C
:10926C00C5900228E003035407FA5302039060A44C
:10927C00E054EFF090679A7420F09060A4E054DF13
:10928C00F0BA0313902402E0547FF0E04440F090D5
:10929C0067997408F0804EBA0213902402E044805F
:1092AC00F0E054BFF09067997404F08038BA012153
:1092BC00902402E0547FF0E04440F09067997402EF
:1092CC00F09060A4E04410F09060A4E04420F080A2
:1092DC0014902402E04480F0902402E04440F0908A
:1092EC0067997401F0900228E003035407FB30E205
:1092FC000B906799E025E0FB906799F09066FDE094
:10930C00FB700D906799E0C42354E0FB90679AF0D2
:10931C00EA7010902402E04420F09060A4E054F035
:10932C00F08010902402E054DFF09060A4E054F040
:10933C004405F00200C5C018858118AA82AB839041
:10934C006038E023235401FCBC010280119066FDBF
:10935C00E0FCBC01028007902411E020E10302959F
:10936C00DA90604FE030E71C902405E0540FF09049
:10937C002406E054C0F0902406E0543FF0902407FB
:10938C00E4F0804A8B04740F5C902405C454F0F50F
:10939C00F0E0540F45F0F0ECC4540FFC53043F9034
:1093AC002406EC543FF5F0E054C045F0F074035A39
:1093BC00FB902406030354C0F5F0E0543F45F0F055
:1093CC00EA0303543FFA53023F902407EAF0E518EE
:1093DC0024FCF8E624F950030294BEE51824FCF8AA
:1093EC00E625E0269093F4730294090294250294E6
:1093FC004202945B02947102948A0294A390240812
:10940C007401F0902409E4F090240AE054C0F09028
:10941C00240AE054BFF00294D590240874FFF09015
:10942C00240974FFF090240AE054C0F090240AE060
:10943C0054BFF00294D590240874FFF09024097462
:10944C00FFF090240AE0443FF0E054BFF0807A90A3
:10945C002408E4F0902409F090240AE054C0F0E0D1
:10946C004440F0806490240874FDF090240974FF4B
:10947C00F090240AE0443FF0E054BFF0804B90247D
:10948C000874F0F090240974FFF090240AE0443F33
:10949C00F0E054BFF08032902408740DF090240951
:1094AC00E4F090240AE0443FF090240AE04440F0B9
:1094BC008017902408E4F0902409F090240AE054DA
:1094CC00C0F090240AE054BFF0E51824FCF8B6FF75
:1094DC0002804D9060A0E030E21B902408E0FA532B
:1094EC000201902408EAF0902409E4F090240AE0A8
:1094FC0054C0F0802B9060A4E030E50790240AE083
:10950C0054C0F09060A4E030E416902408E0FAA374
:10951C00E0FB530255530355902408EAF0A3EBF0FB
:10952C00900264E0C4235403FABA0202800D902422
:10953C0008E0FA5302FD902408EAF0902402E0546B
:10954C00FEF0E04401F0785579C07A021200B39035
:10955C006098E020E45330080C758BF8758DFFD2C1
:10956C008EC203800A758B18758DFCD28EC2039047
:10957C002402E020E1033003F6902402E054FEF0D4
:10958C003003209022C2E0FA0A9022C2EAF09060E6
:10959C00A3E0FA4302019060A3EAF0C20390679F34
:1095AC007401F0C28EC28F800E902402E030E1F97B
:1095BC00902402E054FEF0902408E4F0902409F08A
:1095CC0090240AE054C0F090240AE054BFF0D01864
:1095DC000200C5AA82906016E0FB900224C42354BA
:1095EC0060F5F0E0549F45F0F0BA0102800302965A
:1095FC008F902403E04440F09061B8E090243854FC
:10960C007FF5F0E0548045F0F09061B9E09024399A
:10961C00547FF5F0E0548045F0F09061BAE090246E
:10962C003A547FF5F0E0548045F0F09061BBE09047
:10963C00243B547FF5F0E0548045F0F09061BCE0A1
:10964C0090243C547FF5F0E0548045F0F09061BDDF
:10965C00E090243D547FF5F0E0548045F0F09061AB
:10966C00BEE090243E547FF5F0E0548045F0F0903D
:10967C0061BFE0FA90243F547FF5F0E0548045F050
:10968C00F08007902403E054BFF0902403E04420C2
:10969C00F0E054DFF0758B9C758DFFD28EC20320E9
:1096AC00031590240BE0C4035401FA90240BE0C47E
:1096BC00035401FB5A60E80200C5AA82BA0002807A
:1096CC0005BA012D8017902405E04408F09024057C
:1096DC00E04401F0902405E04402F0803D90240524
:1096EC00E04408F0E054FEF0902405E054FDF080D6
:1096FC0029902405E054F7F0902400E0C4540FFAAC
:10970C00BA0F09902405E054FDF08007902405E081
:10971C004402F0902405E054FEF00200C59066FE71
:10972C00E0FA7403B502004072EA2A2A90973C735F
:10973C0002974802975F029781029795900058E034
:10974C0054DFF0900058E054BFF0900058E054EF14
:10975C00F08048A20DE43390005813E092E5F0A29B
:10976C000CE433FA90005813E092E6F0900058E0C5
:10977C0054EFF08026900058E04420F0900058E020
:10978C004440F0E054EFF08012900058E054DFF0C9
:0E979C00900058E054BFF0E04410F00200C509
:020000040000FA
:1000F800906099E0FABA1709785E79B07A0212002E
:09010800B3906098E054FEF0226F
:10021600C018858118058105819022D8E04420F018
:10022600E054DFF09022B47414F09022E4E020E071
:100236000A906033E054FEF00204AC7A0290601F2C
:10024600E0FBA81808A60390601CE0FC906023E081
:10025600FD530580A8180808E4BD800104F69060E7
:1002660020E0FEA3E0FFA3E0FDA3E0FB906024EE08
:10027600F0A3EFF0A3EDF0A3EBF0906023E0FB53C7
:10028600030FBB050040057A04020474A818080889
:10029600E660027B80C0029022B47413F09022B50F
:1002A600A81808E6F09022B6ECF0906020E0FDA3D6
:1002B600E0FEA3E0FFA3E0FA9022C4EDF0A3EEF087
:1002C600A3EFF0A3EAF0A81808B660028004D002F3
:1002D600800FD002902600E020E00302047402049E
:1002E600ACA81808B68071740BB50400500302045C
:1002F60074EC2C2C9002FE730203220203220203EA
:100306005B02035B02035B02035B020332020332FE
:10031600020342020342020352020352C0048B82CA
:100326001204B2AD8215818D02020474C0048B8260
:1003360012091AAD8215818D02020474C0048B82E3
:10034600120DB6AD8215818D020204748C82120CD8
:100356004AAD828D02020474A81808B68147740556
:10036600B504005003020474EC2C2C900375730240
:10037600038702038702039302039302039F020388
:100386009F8C82120C83AD828D020204748C8212C1
:100396000CCFAD828D020204748C82120D61AD8287
:1003A6008D02020474A81808B682687407B50400A2
:1003B6005003020474EC2C2C9003C2730203DA027D
:1003C60003DA0203EA0203EA0203FA0203FA020468
:1003D6000A02040AC0048B82120AA3AD8215818D1B
:1003E60002020474C0048B82120742AD8215818D0D
:1003F60002020474C0048B82120624AD8215818D1C
:1004060002020474C0048B82120834AB8215818BFD
:1004160002805BA81808B68313BC00028003BC01E7
:100426004D8C82120A7DAB828B028042A81808B6D8
:10043600843CBC00028005BC0134801A906020E038
:10044600FB530303902200E0FCEBB50421120F3CA2
:10045600AB828B028018906020E0FB53030390224E
:1004660000E0FCEBB50407120F6DAB828B029060C7
:100476002EEAF0906033E04401F09022B4740FF05D
:1004860090602EE0FA9022B5EAF0906024E0FAA39C
:10049600E0FBA3E0FCA3E0FD9022C4EAF0A3EBF0AE
:1004A600A3ECF0A3EDF0851881D01822C018858141
:1004B60018AA82BA800280030205ABE51824FDF86B
:1004C600B60167902634E0906024F0902635E0FB74
:1004D600906025F0902636E030E70D906024E0FB32
:1004E600430308906024EBF0902636E030E60D904A
:1004F6006024E0FB430304906024EBF0902636E092
:1005060030E50D906024E0FB430302906024EBF09D
:100516009067AAE0FB700302061E906024E0FB438E
:100526000301906024EBF002061E902637E044207B
:10053600F0906020E0902634F0906021E09026351F
:10054600F0906020E0FB530308BB0803D38001C38F
:100556009228E43390263613E092E7F0906020E08C
:10056600FB530304BB0403D38001C39228E43390F6
:10057600263613E092E6F0906020E0FB530302BBC0
:100586000203D38001C39228E43390263613E09207
:10059600E5F0906020E0FB5303019067AAE4BB01FD
:1005A6000104F08073E51824FDF8B60126EA2AFB5B
:1005B60024D0F582E43460F583E0906024F0EB24E7
:1005C600D0FBE43460FC8B828C83A3E0FB90602537
:1005D600F08045EA2AFB24D0FCE43460FD906020DC
:1005E600E0FE8C828D83F0EB24D0FBE43460FC0BC0
:1005F600BB00010C906021E0FD8B828C83F0906043
:10060600CFE0FB8AF005F07401800225E0D5F0FB0F
:10061600FA42039060CFEBF0758200D01822C01822
:10062600858118AA82BA800280030206AEE51824E4
:10063600FDF8B60528900050E0906024F0E0FB90AD
:100646000054E0FC74E05C4203906024EBF09024DC
:1006560011E0035401FB906025F002073C906020F6
:10066600E0900050F0900054E0FB53031F900054BC
:10067600EBF0E0FB906020E0FC74E05C420390004D
:1006860054EBF0906021E0540190241013E092E4C2
:10069600F0902410E0C4540190240CE0232354016C
:1006A600FB9066FDF002073CE51824FDF8B605361A
:1006B600EA2A25E024B4F582E43460F583E090600C
:1006C60024F0EA75F050A42404FB746335F0FC743E
:1006D600412BF582E43CF583E0FBE4BB000104FB1F
:1006E600906025F08050EA2A25E024B4FBE43460CB
:1006F600FC906020E08B828C83F0EA75F050A42495
:1007060004FB746335F0FC74412BFBE43CFC906005
:1007160021E0FD530501E4BD000104FD8B828C83BD
:10072600F08AF005F07401800225E0D5F0FBFA901E
:1007360067AEE0FB4AF0758200D01822C0188581AA
:1007460018AA82BA8040E51824FDF8B6031790026D
:1007560000E0FB906024EBF0900204E0FB90602642
:10076600EBF002082E906020E0FB900200EBF09088
:100776006022E0FB900000EBF0906022E0FB90022C
:1007860004EBF002082EE51824FDF8B60330EA2A39
:1007960025E0FB24B4FCE43460FD8C828D83A3E069
:1007A600FC906024ECF0EB24B4FBE43460FC8B8218
:1007B6008C83A3A3A3E0FB906026EBF0806AEA2A71
:1007C60025E0FB24B4FCE43460FD0CBC00010D9074
:1007D6006020E0FE8C828D83EEF0EB24B4FCE434E2
:1007E60060FD74022CFCE43DFD906022E0FE8C82EC
:1007F6008D83EEF0EB24B4FBE43460FC74032BFB36
:10080600E43CFC906022E0FD8B828C83EDF09060EE
:10081600CDE0FB8AF005F07401800225E0D5F0FBFF
:10082600FA42039060CDEBF0758200D01822C01812
:10083600858118AA82BA800280030208CFE51824AF
:10084600FDF8B6070C9067ACE0FB906024F0020957
:1008560014906013E0FB53031F7C00906020E0FDC2
:1008660053053F9067ACEDF0ED7019906013E0FE14
:1008760090001025E025E054FCF5F0E0540345F027
:10088600F00209147E00C005C0068B828C831275A7
:1008960082AD82AE83158115818D03EEC403CBC470
:1008A6000354076BCB5407CB6BCBFC906013E0FD76
:1008B600530520EB4205900010ED2D25E054FCF584
:1008C600F0E0540345F0F08045E51824FDF8B6073E
:1008D60012EA247CF582E43460F583E0FB90602420
:1008E600F0802BEA247CFBE43460FC906020E0FD81
:1008F60053053F8B828C83EDF08AF005F0740180FE
:100906000225E0D5F0FBFA9067ADE0FB4AF0758270
:1009160000D01822C018858118AA82BA80028003E6
:100926000209C0E51824FDF8B6072C90004CE0C477
:100936005403FB906024EBF090004CE00303540357
:10094600FB906025EBF090004CE023235403FB90D2
:100956006026EBF0020A77906022E0FBBB01028082
:1009660008906022E0FBBB0206758204020A7A90B8
:100976006020E0FB53030390004CEBC45430F5F0C9
:10098600E054CF45F0F0906021E0FB530303900064
:100996004CEB2B25E0540CF5F0E054F345F0F090C9
:1009A6006022E0FB53030390004CEB030354C0F5B5
:1009B600F0E0543F45F0F0020A77E51824FDF8B65A
:1009C600065FEA75F050A4FBACF0EB2404FDEC34B2
:1009D60063FE740E2DFDE43EFE906020E0FF53079B
:1009E600038D828E83EFF0EB2404FDEC3463FE74FA
:1009F6000D2DFDE43EFE906021E0FF5307038D823E
:100A06008E83EFF0EB2404FBEC3463FC740C2BFBBD
:100A1600E43CFC906022E0FD5305038B828C83ED61
:100A2600F0EA75F050A4FAABF0EA2404FCEB346368
:100A3600FD740E2CF582E43DF583E0FC906024EC19
:100A4600F0EA2404FCEB3463FD740D2CF582E43DDE
:100A5600F583E0FC906025ECF0EA2404FAEB3463BD
:100A6600FB740C2AF582E43BF583E0FA906026EAF3
:100A7600F0758200D01822AA82BA010E906098E022
:100A8600235401FA906024F0800F906020E0540116
:100A9600FA90609813E092E7F075820022C01885FC
:100AA6008118AA82BA80028003020B56E51824FD3B
:100AB600F8B6013A902165E003035407FB902165DF
:100AC600E0C4035407C454F0FCEB4204906024ECE9
:100AD600F090022CE0540FFB900230E0C4540FC497
:100AE60054F0FCEB4204906025ECF0020C4490605C
:100AF60020E0FB530307902165EB2B25E0541CF502
:100B0600F0E054E345F0F0906020E05470C4540FD8
:100B1600902165C42354E0F5F0E0541F45F0F090B1
:100B26006021E0FB53030F90022CEB540FF5F0E02D
:100B360054F045F0F0906021E054F0C4540FFB905F
:100B46000230C454F0F5F0E0540F45F0F0020C44C6
:100B5600E51824FDF8E6707CEA75F050A4FBACF0CD
:100B66002404FDEC3463FE74222DFDE43EFE906009
:100B760020E0FF5307078D828E83EFF0EB2404FD00
:100B8600EC3463FE74232DFDE43EFE906020E054B9
:100B960070C4540F8D828E83F0EB2404FDEC346315
:100BA600FE74242DFDE43EFE906021E0FF53070F06
:100BB6008D828E83EFF0EB2404FBEC3463FC74250A
:100BC6002BFBE43CFC906021E054F0C4540FFD8BF9
:100BD600828C83F0EA75F050A4FAABF02404FCEBA7
:100BE6003463FD74222CFCE43DFDEA2404FEEB3460
:100BF60063FF74232EF582E43FF583E0C454F0FED0
:100C06008C828D83E04206906024EEF0EA2404FC98
:100C1600EB3463FD74242CFCE43DFDEA2404FAEB7A
:100C26003463FB74252AF582E43BF583E0C454F073
:100C3600FA8C828D83E0FC4202906025EAF0758290
:100C460000D01822AA8290A316E05407FBBB030427
:100C560075820222BA0A16906020E0FA53020790C3
:100C66002640EA5407F5F0E054F845F0F0902640A7
:100C7600E05407FA906024EAF075820022AA829076
:100C8600A316E05407FBBB0302800A90A316E054A8
:100C960007FBBB050475820222906020E0FB74030B
:100CA600B503004006906020E0700475820422EAD5
:100CB6007009906020E0FA9065F6F09065F6E0FA2B
:100CC600906024EAF075820022AA8290A316E0546E
:100CD60007FBBB0302800A90A316E05407FBBB0583
:100CE6000475820122906022E0FB53030F7405B560
:100CF60003004003EB700475820422BA022DEB2B2D
:100D0600FA24B0FCE434E6FD0CBC00010D90602131
:100D1600E0FE8C828D83EEF0EA24B0FAE434E6FC41
:100D2600906020E0FD8A828C83EDF0906026EBF0E7
:100D3600EB2BFB24B0FAE434E6FC8A828C83A3E036
:100D4600FA906025EAF0EB24B0F582E434E6F58308
:100D5600E0FA906024EAF075820022AA8290A31637
:100D6600E05407FBBB0302800A90A316E05407FB7E
:100D7600BB050475820222906020E0FB7405B50372
:100D8600004006906020E0700475820422BA0412C6
:100D9600906020E0FA90E62B540FF5F0E054F04511
:100DA600F0F090E62BE0540F906024F0758200225C
:100DB600C018858118AA82BA80028003020E7CE5DB
:100DC6001824FDF8B6094590200CE003035401FBF6
:100DD600906026F030101B902067E023235401908A
:100DE6006025F0902065E003547FFB906024F002BC
:100DF6000F3690A00BE023235401906025F090A0BD
:100E060012E0547FFB906024F0020F3690200CE035
:100E16004402F0906022E0FB30E00990200CE044B0
:100E260004F0800790200CE054FBF0301025906011
:100E360021E0540190206713E092E6F0906020E0F4
:100E4600FB90206525E054FEF5F0E0540145F0F0F6
:100E5600020F36906021E0540190A00B13E092E659
:100E6600F0906020E0FB90A012547FF5F0E05480F3
:100E760045F0F0020F36E51824FDF8B6086E90E648
:100E860013E04410F0EA2A25E0FB2498FCE434E65B
:100E9600FD906022E0FE530601BE0103D38001C32C
:100EA6009228E4338C828D8313E092E0F0EB248465
:100EB600FCE434E6FD74032CFCE43DFD906020E088
:100EC600FE8C828D83547FF5F0E0548045F0F0EB84
:100ED6002484FBE434E6FC74032BFBE43CFC9060C6
:100EE60021E0FD8B828C8313E092E7F0EA2A25E06D
:100EF600FA2484FBE434E6FC8B828C83A3A3A3E070
:100F0600547F906024F0EA2484FBE434E6FC8B8270
:100F16008C83A3A3A3E0235401FB906025F0EA246D
:100F260098F582E434E6F583E05401FA906026F001
:100F3600758200D018227A00902102E020E6047A19
:100F4600028021908200E04404F0C00278DE79BA83
:100F56007A021200B3D002908200E054FBF0902295
:100F660030742BF08A82227A00902102E020E60477
:100F76007A028021908200E04408F0C00278297944
:100F8600B47A021200B3D002908200E054F7F090D7
:100F96002230742BF08A822275880575895175A9CD
:100FA6001C75B906D2ABD2ADD2A8D2AAC2A975B861
:100FB6003F75C878759A3EC205C206C207C2089038
:100FC6006717E4F0C209C20AD203D204C21DC21EC8
:060FD6009067ABE4F0227D
:020000040002F8
:1097AA00900220E04401F090001E786679BC7A02AB
:1097BA001200B3900220E054FEF090001E78667901
:1097CA00BC7A021200B30200C5C018E581F518245C
:1097DA0007F5819022307415F0906002E054FEF093
:1097EA00E5182405F87600E5182406F8E4F6FCFDE9
:1097FA00E5182404F87600E5182407F87600906046
:10980A0003E030E0030298AE90E606E020E10B9018
:10981A00E60BE020E1047A0080027A01C0048A049F
:10982A00ECD0046030C004A20FE433246AF582E469
:10983A003465F583E0FCA81808A604A20FE43324D3
:10984A006EF582E43465F583E090025013E092E706
:10985A00F0D0048039906006E054EFF090024CE0BA
:10986A004480F0900044E0541F4480F0900250E09D
:10987A00547FF0900258E05407FAFCE5182406F8E1
:10988A007601900258E054F8F0A818087620C0042F
:10989A00900248E04401F090E63FE0906610F0D074
:1098AA0004029941906008E06047C00490E632E003
:1098BA0023540125E0246AFCE43465FFA20FE43353
:1098CA002CF582E43FF583E0FAA81808A60290E690
:1098DA003FE0906610F0A20FE433246EF582E43480
:1098EA0065F583E0FA90025013E092E7F0D0048025
:1098FA004690E60EE030E735900258E05407702DA6
:10990A0090024CE04480F0900044E0541F4480F000
:10991A00A20FE433246CF582E43465F583E0FAA8F7
:10992A001808A602E5182405F87601800A90600254
:10993A00E04401F0029B8BA81808860290024CEAC8
:10994A002A547EF5F0E0548145F0F0C004C0057851
:10995A00AA79977A021200B3D005D0040D90024C6E
:10996A00E020E703029B1F906003E05401FABA016A
:10997A000A7401B505005003029B1F906003E020A2
:10998A00E02DED14FAC004C005C002E5182404F85D
:10999A008682781D79BE7A021200B31581D005D06D
:1099AA00049228500A906006E04410F0029B1F902F
:1099BA006003E020E00FBD4000400A90E648E02046
:1099CA00E403029B1F902040E05401FAE5182403A7
:1099DA00F87600A81808087600E5182405F8E66065
:1099EA0072EA600B906610E014906610F08007909F
:1099FA006610E02401F0906610E0FA701BC004E5DE
:109A0A00182403F87600A8180808760190E63FE0C3
:109A1A00906610F0D004805AC00490E63FE0FCE45F
:109A2A00CC25E0CC33FF8A037E00C3EB9CEE648036
:109A3A008FF063F08095F0D0044037E5182403F8DE
:109A4A007601A8180808760090E63FE0FB906610B9
:109A5A00F0801FEA600FE5182403F87600A81808BA
:109A6A00087601800DE5182403F87601A81808087D
:109A7A007600A8180808B6011FA818088682C0042C
:109A8A00C00578A579BD7A021200B3AA82D005D0A2
:109A9A0004A81808A602802EE5182403F8B60126A1
:109AAA00E5182404F8E64401F6A818088682C004DA
:109ABA00C005788379BD7A021200B3AA82D005D094
:109ACA0004A81808A602E5182404F8E625E0F6E535
:109ADA00182404F8E6543FF6E5182406F8E670035D
:109AEA00029941A81808741F56FABA18028003028C
:109AFA009941E5182407F8E660030299419002505B
:109B0A00E04480F0E5182407F87601A818087620C2
:109B1A007D00029941E5182406F8B6010E90025814
:109B2A00EC5407F5F0E054F845F0F0906003E020BB
:109B3A00E02EA20FE433246AF582E43465F583A8A3
:109B4A001808E6F0A20FE433246EFAE43465FB90B9
:109B5A000250E0235401FC5304018A828B83ECF007
:109B6A00A20FE433FA246CF582E43465F583A8186D
:109B7A0008E6F090024CE0547FF0906002E0440165
:109B8A00F0851881D0180200C5C018E581F518249F
:109B9A0006F5819022307439F0906002E054FDF0AD
:109BAA00900258E05407700A906002E04402F00202
:109BBA009E94E5182405F87600E5182406F8E4F6DC
:109BCA00FCE5182403F87600906003E020E0729028
:109BDA00E606E020E10B90E60BE020E0047E008040
:109BEA00027E01EE6011A20FE4332464F582E434AC
:109BFA0065F583E0FE8038906007E054DFF090025C
:109C0A005CE04402F090024CE04480F0900044E0B2
:109C1A00541F4480F0900258E05407FFFCE51824D2
:109C2A0006F87601900258E054F84401F07E20903C
:109C3A000248E04401F090E63EE0FF90660FF080B3
:109C4A0074906008E0602DC00490E632E02323544B
:109C5A000125E02464FFE43465FCA20FE4332FF508
:109C6A0082E43CF583E0FE90E63EE0FB90660FF06E
:109C7A00D004804190E60EE030E63090025CE04489
:109C8A0002F090024CE04480F0900044E0541F44FB
:109C9A0080F0A20FE4332466F582E43465F583E0AC
:109CAA00FBFEE5182405F87601800A906002E0447C
:109CBA0002F0029E94E5182404F876008E079002BA
:109CCA005CEF2F25E054FCF5F0E0540345F0F0C0BA
:109CDA0004C00678AA79977A021200B3D006D00493
:109CEA00E5182404F80690025CE020E103029E4293
:109CFA00906003E05401FFBF010DE5182404F8E663
:109D0A0024FE5003029E42906003E020E032E518F0
:109D1A002404F8E614FFC004C006C007E5182403AB
:109D2A00F88682781D79BE7A021200B31581D006B0
:109D3A00D0049228500A906007E04420F0029E4224
:109D4A00906003E020E014E5182404F8B6400040CF
:109D5A000A90E648E020E303029E42902040E05445
:109D6A0001FFA81808087600A818087600E5182444
:109D7A0005F8E6606CEF600B90660FE01490660FD2
:109D8A00F0800790660FE02401F090660FE0FB7008
:109D9A0019C004A81808087600A81808760190E6E1
:109DAA003FE090660FF0D0048052C00490E63FE096
:109DBA00FCE4CC25E0CC33FA7D00C3EB9CED648057
:109DCA008AF063F08095F0D0044031A8180808762C
:109DDA0001A81808760090E63FE0FA90660FF08036
:109DEA001BEF600DA81808087600A81808760180ED
:109DFA000BA81808087601A818087600A81808B64B
:109E0A000109EE7003FE801B1E8018A8180808B608
:109E1A000111E5182403F8E64401F6BE3F047E3F2B
:109E2A0080010EE5182403F8E625E0F6E518240378
:109E3A00F8E6543FF6029CC6E5182406F8E6600EDA
:109E4A00900258EC5407F5F0E054F845F0F09060B1
:109E5A0003E020E010A20FE433FA2464F582E4342C
:109E6A0065F583EEF0A20FE433FA2466F582E43452
:109E7A0065F583EEF090025CE054FDF090024CE050
:109E8A00547FF0906002E04402F0851881D01802F5
:109E9A0000C5900005786679BC7A021200B390007A
:109EAA0044E04410F0900005786679BC7A0212000A
:109EBA00B3900220E04401F0900019786679BC7AE8
:109ECA00021200B3900044E054EFF0900005786667
:109EDA0079BC7A021200B3900220E054FEF090009E
:109EEA0019786679BC7A021200B30200C5C018E577
:109EFA0081F5182406F5819022307408F0906000EC
:109F0A00E054BFF0E5182405F87600E5182406F8B1
:109F1A007600E5182404F87600E5182403F876009C
:109F2A007E00906003E030E003029FB390E606E013
:109F3A0020E10B90E609E020E7047F0080027F0120
:109F4A00EF602BC006A20EE4332470F582E4346578
:109F5A00F583E0FFA20EE4332474F582E43465F558
:109F6A0083E090021C13E092E1F0D0068025906015
:109F7A0004E054BFF0900040E04401F0900044E057
:109F8A00541FF090021CE054FDF07F20E5182406CF
:109F9A00F87601C006900218E04401F090E647E026
:109FAA0090660AF0D00602A033906008E06042C0D2
:109FBA000690E631E023540125E02470FEE434657E
:109FCA00FBA20EE4332EF582E43BF583E0FF90E634
:109FDA0047E090660AF0A20EE4332474F582E43472
:109FEA0065F583E0FA90021C13E092E1F0D0068056
:109FFA003890E60DE030E727900040E04401F09009
:10A00A000044E0541FF0A20EE4332472F582E434D3
:10A01A0065F583E0FAFFE5182405F87601800A90D1
:10A02A006000E04440F002A2458F0290021CEA2A36
:10A03A0025E054FCF5F0E0540345F0F0C006C007F3
:10A04A00789C799E7A021200B3D007D006E51824CC
:10A05A0004F806900040E020E00302A1F5906003B6
:10A06A00E05401FABA010DE5182404F8E624FE507A
:10A07A000302A1F5906003E020E032E5182404F819
:10A08A00E614FAC006C007C002E5182403F886825F
:10A09A00781D79BE7A021200B31581D007D00692D4
:10A0AA0028500A906004E04440F002A1F590600351
:10A0BA00E020E014E5182404F8B64000400A90E6CF
:10A0CA0048E020E20302A1F5902040E05401FAA8FA
:10A0DA001808087600A818087600E5182405F8E696
:10A0EA00606CEA600B90660AE01490660AF08007DA
:10A0FA0090660AE02401F090660AE0FB7019C00637
:10A10A00A81808087600A81808760190E647E09093
:10A11A00660AF0D0068052C00690E647E0FEE4CE1A
:10A12A0025E0CE33FD7C00C3EB9EEC64808DF063AA
:10A13A00F08095F0D0064031A81808087601A818D2
:10A14A0008760090E647E0FB90660AF0801BEA601A
:10A15A000DA81808087600A818087601800BA81818
:10A16A0008087601A818087600A81808B601158FFD
:10A17A0082C00678A579BD7A021200B3AA82D006F7
:10A18A008A078023A8180808B6011CE5182403F8D2
:10A19A00E64401F68F82C006788379BD7A021200FE
:10A1AA00B3AA82D0068A07E5182403F8E625E0F662
:10A1BA00E5182403F8E6543FF6E5182406F8E67095
:10A1CA000302A033741F5FFABA1802800302A03395
:10A1DA00EE600302A03390021CE04402F07E017F8D
:10A1EA0020E5182404F8760002A033906003E020EA
:10A1FA00E02BA20EE4332470F582E43465F583EF94
:10A20A00F0A20EE4332474FAE43465FB90021CE0F5
:10A21A00035401FC5304018A828B83ECF0A20EE4FE
:10A22A0033FA2472F582E43465F583EFF090004046
:10A23A00E054FEF0906000E04440F0851881D018A8
:10A24A000200C5C018E581F5182406F58190223070
:10A25A00740EF0906000E0547FF0E5182405F8E4ED
:10A26A00F6FBFCE5182403F87600906616E0FEE596
:10A27A00182404F8A60690A316E05407FFBF0407A3
:10A28A00E5182404F87600906003E030E00302A3A6
:10A29A001990E606E020E10B90E60AE020E0047F50
:10A2AA000080027F01EF602FC003E5182404F8E65E
:10A2BA002476F582E43465F583E0FFE5182404F892
:10A2CA00E62480F582E43465F583E090022013E009
:10A2DA0092E1F0D0038022906004E0547FF0900075
:10A2EA0040E04401F0900044E0541F4420F0900202
:10A2FA0020E054FDF07F207B01C00390021CE04463
:10A30A0001F090E639E0906609F0D00302A3CB9001
:10A31A006008E06048C00390E633E003540175F03A
:10A32A0005A42476FBE43465FAE5182404F8E62B40
:10A33A00F582E43AF583E0FF90E639E0906609F0A9
:10A34A00E5182404F8E62480F582E43465F583E010
:10A35A00FA90022013E092E1F0D003806490E60FB5
:10A36A00E030E153900228E003035407FAC3648003
:10A37A0094845043900040E04401F0900044E0543B
:10A38A001F4420F0E5182404F8E6247BF582E4341F
:10A39A0065F583E0FFE5182404F8E62480F582E4F5
:10A3AA003465F583E0FA90022013E092E1F0E518B3
:10A3BA002405F87601800A906000E04480F002A645
:10A3CA000E900220E0035401FAE5182406F8A602CA
:10A3DA008F02900220EA2A25E054FCF5F0E05403AB
:10A3EA0045F0F0C003C004C007789C799E7A021237
:10A3FA0000B3D007D004D0030C900040E020E00363
:10A40A0002A5B9906003E020E018900228E0030357
:10A41A005407FAC374838AF063F08095F0500302FC
:10A42A00A5B9906003E05401FABA010A7401B504AF
:10A43A0000500302A5B9906003E020E031EC14FA61
:10A44A00C003C004C007C002E5182403F886827856
:10A45A001D79BE7A021200B31581D007D004D00349
:10A46A009228500A906004E04480F002A5B99060F6
:10A47A0003E020E00FBC4000400A90E648E020E1FB
:10A48A000302A5B9902040E05401FAA818080876FA
:10A49A0000A818087600E5182405F8E6606CEA605A
:10A4AA000B906609E014906609F08007906609E04F
:10A4BA002401F0906609E0FA7019C003A818080888
:10A4CA007600A81808760190E639E0906609F0D07F
:10A4DA00038052C00390E639E0FBE4CB25E0CB339E
:10A4EA00FE7D00C3EA9BED64808EF063F08095F0F8
:10A4FA00D0034031A81808087601A81808760090F9
:10A50A00E639E0FA906609F0801BEA600DA818089F
:10A51A00087600A818087601800BA81808087601A2
:10A52A00A818087600A81808B601198F82C003C0B7
:10A53A000478A579BD7A021200B3AA82D004D003A6
:10A54A008A078027A8180808B60120E5182403F806
:10A55A00E64401F68F82C003C004788379BD7A028B
:10A56A001200B3AA82D004D0038A07E5182403F89C
:10A57A00E625E0F6E5182403F8E6543FF6EB700307
:10A58A0002A3DA741F5FFABA1802800302A3DAE59B
:10A59A00182406F8E6600302A3DA900220E04402D7
:10A5AA00F0E5182406F876017F207C0002A3DA90F1
:10A5BA006003E020E02FE5182404F8E62476F5820B
:10A5CA00E43465F583EFF0E5182404F8E62480FA0C
:10A5DA00E43465FB900220E0035401FC5304018A31
:10A5EA00828B83ECF0E5182404F8E6247BF582E4F8
:10A5FA003465F583EFF0900040E054FEF09060007F
:10A60A00E04480F0851881D0180200C5C018E581A1
:10A61A00F5182407F5819022307411F0906001E05A
:10A62A0054FEF0E5182406F87600E5182405F876B5
:10A63A00007C007D01E5182403F87600906616E098
:10A64A00FFE5182404F8A60790A316E05407FBBBFD
:10A65A000407E5182404F87600906003E030E0036C
:10A66A0002A70190E606E020E10B90E60AE020E16D
:10A67A00047B0080027B01EB602FC005E5182404EF
:10A68A00F8E62485F582E43465F583E0FBE51824D1
:10A69A0004F8E6248FF582E43465F583E0900040FF
:10A6AA0013E092E1F0D0058038906005E054FEF0A6
:10A6BA00900218E003035401FAFD900218E04404E2
:10A6CA00F0900040E04401F0900044E0541F444000
:10A6DA00F0900040E054FDF07B20E5182405F87660
:10A6EA0001C00590003CE04402F090E638E0906634
:10A6FA0008F0D00502A7BE906008E06047C0059048
:10A70A00E633E0540175F005A42485FDE43465FAC6
:10A71A00E5182404F8E62DF582E43AF583E0FB9087
:10A72A00E638E0906608F0E5182404F8E6248FF588
:10A73A0082E43465F583E0FA90004013E092E1F098
:10A74A00D005807090E60FE030E05F900218E003D9
:10A75A00035401FABA0153900228E003035407FA9A
:10A76A00C3648094845043900040E04401F0900018
:10A77A0044E0541F4440F0E5182404F8E6248AF51E
:10A78A0082E43465F583E0FBE5182404F8E6248FB7
:10A79A00F582E43465F583E0FA90004013E092E133
:10A7AA00F0E5182406F87601800A906001E0440179
:10A7BA00F002AA33900040E0035401FAE518240796
:10A7CA00F8A602C0058B05900040ED2D25E054FC4B
:10A7DA00F5F0E0540345F0F0C003C004C005789CCE
:10A7EA00799E7A021200B3D005D004D0030C9000EF
:10A7FA0040E0D00520E00302A9D4906003E020E005
:10A80A001CC005900228E003035407FDC374838D1E
:10A81A00F063F08095F0D005500302A9D4C00590EA
:10A82A006003E05401FDBD01028004D005800CD014
:10A83A00057401B50400500302A9D4906003E02016
:10A84A00E03CC005EC14FDC003C004C0057402C09E
:10A85A00E0C005E5182403F8868278C979BD7A0232
:10A86A001200B315811581D005D004D0039228D0E7
:10A87A000530280A906005E04401F002A9D49060EE
:10A88A0003E020E00FBC4000400A90E648E020E0E8
:10A89A000302A9D4C005902040E05401FAA8180880
:10A8AA00087600A818087600D005E5182406F8E608
:10A8BA00606EEA600B906608E014906608F0800704
:10A8CA00906608E02401F0906608E0FE7019C00561
:10A8DA00A81808087600A81808760190E638E090CB
:10A8EA006608F0D0058054C00590E638E0FDE4CD56
:10A8FA0025E0CD33FA8E077E00C3EF9DEE64808A91
:10A90A00F063F08095F0D0054031A8180808760168
:10A91A00A81808760090E638E0FA906608F0801BDE
:10A92A00EA600DA81808087600A818087601800BB6
:10A93A00A81808087601A818087600A81808B60109
:10A94A00198B82C004C00578A579BD7A021200B3BA
:10A95A00AA82D005D0048A038027A8180808B6015D
:10A96A0020E5182403F8E64401F68B82C004C005EA
:10A97A00788379BD7A021200B3AA82D005D0048AFC
:10A98A0003E5182403F8E625E0F6E5182403F8E6BB
:10A99A00543FF6E5182405F8E6700302A7CD741FA4
:10A9AA005BFABA1802800302A7CDE5182407F8E675
:10A9BA00600302A7CD900040E04402F0E5182407A6
:10A9CA00F876017B207C0002A7CD906003E020E0AE
:10A9DA002FE5182404F8E62485F582E43465F58326
:10A9EA00EBF0E5182404F8E6248FFAE43465FC90C9
:10A9FA000040E0035401FE5306018A828C83EEF084
:10AA0A00E5182404F8E6248AF582E43465F583EB34
:10AA1A00F0ED7007900218E054FBF0900040E0540B
:10AA2A00FEF0906001E04401F0851881D018020020
:01AA3A00C556
:020000040001F9
:109F3B00906038E0547FF0906098E030E1109060D2
:109F4B009CE0FAA3E0FB906174EAF0A3EBF090675E
:109F5B009FE4F07A03C00278E379947A011200B39C
:109F6B00D00290679FE0FB6027906037E0FBBB015E
:109F7B00109060407401F0906040E0FBBB010280E8
:109F8B00F68A031AC374808BF063F08095F040C59A
:109F9B0078D679A47A011200B3788579AA7A01125E
:109FAB0000B3906038E04480F0906658E0FA90601F
:109FBB004AEAF0906659E0FA906049EAF090665FE1
:109FCB00E0FA906048EAF090665AE0FA90604BEA4B
:109FDB00F00200C590614AE0FA90614BE0FBC002D1
:109FEB008B82786279C07A021200B3AB8215818BB7
:109FFB000290614EE0FBC0028B82786279C07A02DC
:10A00B001200B3AB8215818B0290614FE0FBC00253
:10A01B008B82786279C07A021200B3AB8215819081
:10A02B006643EBF0906148E0FA906149E0FBC002B7
:10A03B008B82786279C07A021200B3AB8215818B66
:10A04B000290614CE0FBC0028B82786279C07A028D
:10A05B001200B3AB8215818B0290614DE0FBC00205
:10A06B008B82786279C07A021200B3AA8215819032
:10A07B006642EAF090614AE0FA7B0090614BE0FCAB
:10A08B007D00EC2AFAED3BFB90614EE0FC7D00EC91
:10A09B002AFAED3BFB90614FE0FC7D00EC2AFAEDD8
:10A0AB003BA2E713CA13CAA2E713CA13CA906641AD
:10A0BB00EAF0906148E0FA7B00906149E0FC7D009A
:10A0CB00EC2AFAED3BFB90614CE0FC7D00EC2AFAAC
:10A0DB00ED3BFB90614DE0FC7D00EC2AFAED3BA2E1
:10A0EB00E713CA13CAA2E713CA13CA906640EAF071
:10A0FB00906152E0FA7B00906153E0FC7D00EC2A0A
:10A10B00FAED3BFB906156E0FC7D00EC2AFAED3B4F
:10A11B00FB906157E0FC7D00EC2AFAED3BA2E713C4
:10A12B00CA13CAA2E713CA13CA906645EAF0906134
:10A13B0050E0FA7B00906151E0FC7D00EC2AFAEDD7
:10A14B003BFB906154E0FC7D00EC2AFAED3BFB906D
:10A15B006155E0FC7D00EC2AFAED3BA2E713CA1334
:10A16B00CAA2E713CA13CA906644EAF090610CE0E6
:10A17B00FA3395E0FB90612CE0FC3395E0FDEC2A83
:10A18B00FAED3BA2E713CA13CA906646EAF0906158
:10A19B0004E0FA3395E0FB906105E0FC3395E0FDBC
:10A1AB00EC2AFAED3BFB906124E0FC3395E0FDECEF
:10A1BB002AFAED3BFB906125E0FC3395E0FDEC2AA0
:10A1CB00FAED3BA2E713CA13CAA2E713CA13CA904C
:10A1DB006647EAF0906106E0FA3395E0FB90610781
:10A1EB00E0FC3395E0FDEC2AFAED3BFB906126E0B9
:10A1FB00FC3395E0FDEC2AFAED3BFB906127E0FC8C
:10A20B003395E0FDEC2AFAED3BA2E713CA13CAA281
:10A21B00E713CA13CA906648EAF0906108E0FA3374
:10A22B0095E0FB906109E0FC3395E0FDEC2AFAED3B
:10A23B003BFB906128E0FC3395E0FDEC2AFAED3B0B
:10A24B00FB906129E0FC3395E0FDEC2AFAED3BA293
:10A25B00E713CA13CAA2E713CA13CA906649EAF0F6
