:020000040001F9
:10800000AA82AB837C00BC0800502AEC2CFDFE90B9
:1080100083DF93CEA393FFED9083EF93CDA393F8EB
:10802000EA5205EB5200EEB50508EFB50004758283
:1080300001220C80D175820022C018E581F5182438
:1080400008F581E5182404F87600087600E5182480
:1080500006F87600900030E00354079083FF939079
:10806000661DF0900034E00303543F90661EF090CC
:108070000034E003540190661FF078EB79897A02AE
:108080001200B3AD829022B6EDF0906008E0FEBE23
:1080900001047E0880027E01A818080876BC0876D4
:1080A000029022B5EEF030165CED6009906614E0A7
:1080B0002401F08009906614E014906614F0906634
:1080C00014E0FC700CFD90E643E0FF906614F08035
:1080D00034C00690E643E0FFE4CF25E0CF33FE7ADC
:1080E00000C3EC9FEA64808EF063F08095F0D006C8
:1080F000400D7D0190E643E0FA906614F08006752D
:108100008201028224BD0111C006785C798A7A025C
:108110001200B3AA82D0068011C0067803798B7A48
:10812000021200B3AB82D0068B02EA600302821D0A
:10813000C006788779837A011200B3D00630160A18
:10814000E5182406F8760102821DC00678EB7989CD
:108150007A021200B3AA82D0068A059022B6EDF008
:10816000A81808E6B505028011A81808A605BE08DB
:10817000047E028005BE02027E01E5182404F80890
:10818000E618C625E0C63308F68D027B00E5182404
:1081900004F8EA46F6EB0846F6E5182404F8E51874
:1081A0002407F9E6F70809E6F77C00BC0800503B15
:1081B000C006EC2CFFFE9083DF93CEA393FAEFFB77
:1081C0009083EF93CBA393FFE5182407F8E65203BF
:1081D00008E65207EEB50306EAB507028004D006AA
:1081E0008006D0067A0180050C80C07A00EA601013
:1081F000E5182406F87601906006E04408F0801D3A
:1082000090E649E020E00AA818080816B6FF020820
:1082100016A8180808E6084660030280A1E518249D
:1082200006F88682851881D0180200C5A20EE433B4
:10823000FA902230740FF0900228E003035407FBF9
:10824000530304E4BB000104FB906006E054F7F024
:10825000906001E054FDF090E60AE003035401FC55
:10826000BC0102800A906003E05401FCBC0144EAB6
:108270002AFC24AAFDE43465FEEB2DF582E43EF5EC
:1082800083E090661EF0EC24B2FDE43465FEEB2D35
:10829000F582E43EF583E0906620F0EC24A2FCE455
:1082A0003465FDEB2CF582E43DF583E0FC90661F20
:1082B000F0801290661E7431F09066207405F09084
:1082C000661F7401F0906620E09083FF9390661D16
:1082D000F0C002C003788779837A011200B3D0031B
:1082E000D002906008E0600302837490E60AE030F8
:1082F000E203028374C002C003783979807A0112E4
:1083000000B3AC82D003D002906005EC13E092E1A0
:10831000F0900030E0035407FCEA2433FDE43466B7
:10832000FEEC9083FF938D828E83F0EA2AFA24AAD2
:10833000FCE43465FDEB2CFCE43DFD90661EE08C16
:10834000828D83F0EA24B2FCE43465FDEB2CFCE47E
:108350003DFD906620E0FE8C828D83F0EA24A2FA37
:10836000E43465FCEB2AFBE43CFD90661FE0FA8BED
:10837000828D83F0906001E04402F090E643E0FAE1
:10838000906614F00200C590661EE090003425E06F
:1083900025E054FCF5F0E0540345F0F090661FE052
:1083A00090003413E092E1F090661DE0FAC313628E
:1083B00002906620EAF0900030EA2A540EF5F0E0D0
:1083C00054F145F0F0900034E04401F078DE79B8E3
:1083D0007A021200B3900034E054FEF00200C505AA
:1083E000000A003300CC00C701380E0F0FF0F00F69
:1083F000000F00FF00FF00FF0FFF0FFFFFFFFF0058
:1084000001030207060405C018858118058105814E
:108410009061707401F09066F7E0FABA0102800B87
:1084200090E607E0035401FABA0106200803028B24
:10843000B49060A2E4F09060A3F0906799E0FA90A5
:108440006174E0FBA3E0FCEB20E0030284F59060A4
:10845000A27401F0902163E0547FF090240CE0546A
:108460007FF0902102E04480F0E0547FF0C0027879
:10847000DE79B87A021200B3902403E054BFF0759D
:108480008E07902410E04404F0E054FBF0758E0059
:108490009022D0E04480F09022D4E04480F09022FA
:1084A000D0E0547FF09022D4E0547FF0781F798C94
:1084B0007A011200B3D0029060A27402F09060A022
:1084C000E030E131C002780779847A021200B37596
:1084D0008200783179847A021200B3758210783183
:1084E00079847A021200B3758212783179847A0223
:1084F0001200B3D002906174E0FBA3E0FCEB30E12A
:108500002A9060A27403F0C00274FFC0E0900000E3
:1085100078EF798E7A011200B31581D00290216331
:10852000E04480F090240CE04480F0906174E0FB23
:10853000A3E0FCEB20E20302864F9060A27404F0FB
:10854000758201C002786879967A011200B375824B
:108550000078BC798B7A011200B3D002906174E08C
:10856000FBA3E0FCEB30E51B9060A27405F0C002B9
:10857000E4C0E0900A0178EF798E7A011200B31519
:1085800081D002758B18758DFCD28EC2039060A2CB
:108590007406F0C0027401C0E0900A0178EF798E91
:1085A0007A011200B31581D002906661E0FBB5023A
:1085B00002806E9060A27408F0EBFC3395E0FDEC55
:1085C00024FEFEED34FFFFA81808A602EA3395E06A
:1085D00008F6A81808C3E69E08E664808FF063F0EA
:1085E0008095F050040A0A802074022CFCE43DFDC2
:1085F000A81808C3EC96ED64800886F063F08095B7
:10860000F050041A1A80028B02906662E0FBC002EE
:10861000C0038A82121C8B1581D0022003030285BD
:108620008D30030F9060A3E0FA4302029060A3EA4A
:10863000F0C203C28EC28F758200783179847A02CB
:108640001200B3758210783179847A021200B390E7
:108650006174E0FAA3E0FBEA20E403028812906070
:10866000A2740AF0902401E054FDF0902401E0543B
:10867000FEF0906174E0FAA3E0FBEA30E53A906026
:10868000A2740BF0758201786879967A011200B3B2
:1086900075820078BC798B7A011200B390240BE0CC
:1086A0004480F0E054BFF0E4C0E0900A0178EF7934
:1086B0008E7A011200B31581906174E0FAA3E0FB99
:1086C000EA30E6499060A2740CF020271875820108
:1086D000786879967A011200B375820078BC798B3C
:1086E0007A011200B390240BE04480F0E054BFF014
:1086F000902402E04408F0E054FBF07402C0E090E3
:108700000A0178EF798E7A011200B31581906174B5
:10871000E0FAA3E0FBEA30E7609060A2740DF0207D
:108720002718758200786879967A011200B37582ED
:108730000278BC798B7A011200B390240BE044805C
:10874000F0E054BFF0902402E04408F0E054FBF065
:108750003008147402C0E090000078EF798E7A013E
:108760001200B3158180127402C0E090030278EF0A
:10877000798E7A011200B31581906174E0FAA3E05A
:10878000FB20E0030288129060A2740EF0202718EC
:10879000758200786879967A011200B37582027842
:1087A000BC798B7A011200B390240BE0547FF090D7
:1087B000240BE054BFF0902402E054F7F090240220
:1087C000E054FBF0906715E0FA60147404C0E09088
:1087D000020478EF798E7A011200B3158180127449
:1087E00002C0E090020478EF798E7A011200B3158E
:1087F00081780779847A021200B375821078317912
:10880000847A021200B3758200783179847A021278
:1088100000B3906174E0FAA3E0FB20E1030288A8B2
:108820009060A27410F0902401E054FDF0902401B7
:10883000E054FEF09060A27411F090240BE0547F9D
:10884000F0E04440F0902402E054F7F0E04404F0FB
:108850007403C0E0900A0178EF798E7A011200B3B8
:1088600015819060A27412F090240BE0547FF09078
:10887000240BE054BFF0902402E054F7F09024025F
:10888000E054FBF07403C0E090030278EF798E7A35
:10889000011200B315819060A27413F075821278F2
:1088A0003179847A021200B3906174E0FAA3E0FB9C
:1088B00020E2030289359060A27414F0758200787A
:1088C0006879967A011200B375820278BC798B7A46
:1088D000011200B39060A27415F0902401E04402EC
:1088E000F090240BE04480F0E054BFF0E4C0E0904E
:1088F000080278EF798E7A011200B315819060A298
:108900007416F090240BE0547FF090240BE054BFD9
:10891000F0E4C0E090040478EF798E7A011200B39D
:108920001581758201783179847A021200B390241E
:1089300001E054FDF0906174E0FAA3E0FB20E40351
:10894000028ADC9060A27418F020271875820078E3
:108950006879967A011200B375820278BC798B7AB5
:10896000011200B3902404E054BFF0902401E044CD
:1089700001F07A007B00758202C002C00378F979A9
:10898000827A021200B3D003D0029060A27419F070
:1089900090240BE04480F0E054BFF020271BC0027D
:1089A000C003E4C0E0900A0278EF798E7A011200E9
:1089B000B31581D003D0028019C002C003E4C0E027
:1089C00090080278EF798E7A011200B31581D003F6
:1089D000D0029060A2741AF090240BE0547FF0E073
:1089E0004440F020271BC002C003E4C0E09008040C
:1089F00078EF798E7A011200B31581D003D002800E
:108A000019C002C003E4C0E090060478EF798E7AC2
:108A1000011200B31581D003D0029060A2741CF043
:108A2000EB7016758202C002C003783179847A0235
:108A30001200B3D003D002802DEA7016758203C0F5
:108A400002C003783179847A021200B3D003D002D5
:108A50008014758204C002C003783179847A0212CE
:108A600000B3D003D0029060A2741BF09060A0E02D
:108A700030E35BEB701F7B01906661E0FCC002C0DD
:108A800003906700E0C0E08C82121C8B1581D0033C
:108A9000D002028976EA701F7A01906661E0FCC01C
:108AA00002C003906702E0C0E08C82121C8B15812B
:108AB000D003D002028976906701E0FA906662F0F6
:108AC000906661E0FBC0028B82121C8B15819024A2
:108AD00001E054FEF0902404E04440F0906174E022
:108AE000FAA3E0FB20E603028B8B90604FE030E6B8
:108AF00003028B8B9060A27421F0902580E04401EA
:108B0000F090605AE020E22075820178F979827A4B
:108B1000021200B3781F798E7A011200B37874794B
:108B2000827A021200B3800F906039E0F582787487
:108B300079827A021200B39060A27422F0902580AC
:108B4000E04404F0E054FBF090605AE030E214742A
:108B5000FFC0E090200878EF798E7A011200B315FB
:108B600081801274FFC0E0900A0578EF798E7A0157
:108B70001200B315819060A27423F0780B79927A79
:108B8000011200B3AA82906170EAF090605AE0206E
:108B9000E21C2008199060A27424F075820178F913
:108BA00079827A021200B3902580E054FEF0906042
:108BB000A27425F0851881D0180200C5AA82BA00D7
:108BC000028005BA012D8017902405E04408F0903A
:108BD0002405E04401F0902405E04402F0803D903B
:108BE0002405E04408F0E054FEF0902405E054FD34
:108BF000F08029902405E054F7F0902400E0C4545C
:108C00000FFABA0F09902405E054FDF08007902474
:108C100005E04402F0902405E054FEF00200C59007
:108C20002403E04420F0E054DFF0E04402F090241C
:108C300003E054FDF0E04401F0E054FEF0758B9C3D
:108C4000758DFFD28EC20320031790240BE030E510
:108C5000F678DE79B87A021200B390240BE030E5A2
:108C6000E60200C5AA82906016E0FB900224C423AD
:108C70005460F5F0E0549F45F0F0BA010280030221
:108C80008D14902403E04440F09061B8E0902438C3
:108C9000547FF5F0E0548045F0F09061B9E0902405
:108CA00039547FF5F0E0548045F0F09061BAE090DF
:108CB000243A547FF5F0E0548045F0F09061BBE039
:108CC00090243B547FF5F0E0548045F0F09061BC77
:108CD000E090243C547FF5F0E0548045F0F0906142
:108CE000BDE090243D547FF5F0E0548045F0F090D5
:108CF00061BEE090243E547FF5F0E0548045F0F0F2
:108D00009061BFE0FA90243F547FF5F0E054804535
:108D1000F0F08007902403E054BFF0902403E04477
:108D200020F0E054DFF0758B9C758DFFD28EC2036E
:108D300020031590240BE0C4035401FA90240BE0A7
:108D4000C4035401FB5A60E80200C59066F7E0FADC
:108D50006003028E1C7440C0E0E4C0E07480C0E098
:108D60007424C0E0E4C0E090244075F000785179AC
:108D7000BA7A021200B3E58124FBF5819024C0E0A9
:108D8000547F902438547FF5F0E0548045F0F09003
:108D900024C1E0547F902439547FF5F0E05480459D
:108DA000F0F09024C2E0547F90243A547FF5F0E034
:108DB000548045F0F09024C3E0547F90243B547FCE
:108DC000F5F0E0548045F0F09024C4E0547F902406
:108DD0003C547FF5F0E0548045F0F09024C5E05419
:108DE0007F90243D547FF5F0E0548045F0F09024CE
:108DF000C6E0547F90243E547FF5F0E0548045F067
:108E0000F09024C7E0547FFA90243F547FF5F0E0BF
:108E1000548045F0F0902403E04440F00200C590F7
:108E20006158E0FA906159E0FBC0038A82781479B6
:108E3000B97A021200B3AB8215818B0290615AE0BD
:108E4000FBC0038A82781479B97A021200B3AB822C
:108E500015818B0290615BE0FBC0038A82781479F4
:108E6000B97A021200B3AB8215818B0290615CE08B
:108E7000FBC0038A82781479B97A021200B3AB82FC
:108E800015818B0290615DE0FBC0038A82781479C2
:108E9000B97A021200B3AB8215818B0290615EE059
:108EA000FBC0038A82781479B97A021200B3AB82CC
:108EB00015818B0290615FE0FBC0038A8278147990
:108EC000B97A021200B3AB8215818B0290E6AFE053
:108ED000C4540FFB8BF005F0EA8002C313D5F0FBFE
:108EE000FA90E6AFE0540FFB2AFAF5820200C5C003
:108EF00018858118AA82AB83906038E0232354013F
:108F0000FCBC010280119066F7E0FCBC0102800706
:108F1000902411E020E10302913190604FE030E7AE
:108F20001C902405E0540FF0902406E054C0F0900B
:108F30002406E0543FF0902407E4F0804A8B047448
:108F40000F5C902405C454F0F5F0E0540F45F0F0A8
:108F5000ECC4540FFC53043F902406EC543FF5F04E
:108F6000E054C045F0F074035AFB90240603035408
:108F7000C0F5F0E0543F45F0F0EA0303543FFA53E4
:108F8000023F902407EAF0E51824FCF8B6010280BD
:108F90001EE51824FCF8B602028030E51824FCF81F
:108FA000B60302803FE51824FCF8B60466804B90B7
:108FB000240874FFF090240974FFF090240AE05410
:108FC000C0F090240AE054BFF0806190240874FF40
:108FD000F090240974FFF090240AE0443FF0E0543C
:108FE000BFF08048902408E4F0902409F090240A0F
:108FF000E054C0F0E04440F0803290240874FDF06A
:1090000090240974FFF090240AE0443FF0E054BF3C
:10901000F080199024087401F0902409E4F0902461
:109020000AE054C0F090240AE054BFF0E51824FC94
:10903000F8B6FF02804D9060A0E030E21B9024085B
:10904000E0FA530201902408EAF0902409E4F09039
:10905000240AE054C0F0802B9060A4E030E5079033
:10906000240AE054C0F09060A4E030E41690240894
:10907000E0FAA3E0FB530255530355902408EAF0AD
:10908000A3EBF0900264E0C4235403FABA02028016
:109090000D902408E0FA5302FD902408EAF0902491
:1090A00002E054FEF0E04401F078DE79B87A021272
:1090B00000B3906098E020E45330080C758BF8758D
:1090C0008DFFD28EC203800A758B18758DFCD28EEF
:1090D000C203902402E020E1033003F6902402E072
:1090E00054FEF03003209022C2E0FA0A9022C2EA35
:1090F000F09060A3E0FA4302019060A3EAF0C2039B
:1091000090679B7401F0C28EC28F800E902402E0A3
:1091100030E1F9902402E054FEF0902408E4F0904D
:109120002409F090240AE054C0F090240AE054BFCF
:10913000F0D0180200C5900228E003035407FA5348
:1091400002039060A4E054EFF09067967420F090D2
:1091500060A4E054DFF0BA0313902402E0547FF0DF
:10916000E04440F09067957408F0804EBA02139086
:109170002402E04480F0E054BFF09067957404F05E
:109180008038BA0121902402E0547FF0E04440F09E
:109190009067957402F09060A4E04410F09060A491
:1091A000E04420F08014902402E04480F0902402F7
:1091B000E04440F09067957401F0900228E00303CA
:1091C0005407FB30E20B906795E025E0FB90679534
:1091D000F09066F7E0FB700D906795E0C42354E0D3
:1091E000FB906796F0EA7010902402E04420F09023
:1091F00060A4E054F0F08010902402E054DFF0907E
:1092000060A4E054F04405F00200C5C018E581F503
:10921000182408F581902560E0FAA3E0FBA3E0FCA8
:10922000A3E0FDE5182405F8A60208A60308A60495
:1092300008A605902564E0FEA3E0FFA3E0FAA3E002
:10924000FBC006C007C002C003E5182405F88682EB
:109250000886830886F008E6780079807A02120092
:10926000B3AA82AB83ACF0FDE58124FCF581E5185F
:109270002405F8A60208A60308A60408A60590255A
:1092800068E0FAA3E0FBA3E0FCA3E0FDC002C0039A
:10929000C004C005E5182405F88682088683088680
:1092A000F008E6780079807A021200B3AA82AB83D4
:1092B000ACF0FDE58124FCF581E5182405F8A60253
:1092C00008A60308A60408A60590256CE0FAA3E00A
:1092D000FBA3E0FCA3E0FDC002C003C004C005E5A1
:1092E000182405F886820886830886F008E6780048
:1092F00079807A021200B3AA82AB83ACF0FDE581DB
:1093000024FCF581E5182405F8A60208A60308A6A2
:109310000408A605902570E0FAA3E0FBA3E0FCA3F7
:10932000E0FDA81808A60208A60308A60408A605DA
:10933000902574E0FEA3E0FFA3E0FAA3E0FBC006E3
:10934000C007C002C003A818088682088683088662
:10935000F008E6780079807A021200B3AA82AB8323
:10936000ACF0FDE58124FCF581A81808A60208A64A
:109370000308A60408A605902578E0FAA3E0FBA35D
:10938000E0FCA3E0FDC002C003C004C005A81808AB
:1093900086820886830886F008E6780079807A025B
:1093A0001200B3AA82AB83ACF0FDE58124FCF58109
:1093B000A81808A60208A60308A60408A605902572
:1093C0007CE0FAA3E0FBA3E0FCA3E0FDC002C00345
:1093D000C004C005A8180886820886830886F0089D
:1093E000E6780079807A021200B3AA82AB83ACF0EF
:1093F000FDE58124FCF581A81808A60208A603084B
:10940000A60408A60590E6AEE0FAE4FBFCFDE5182C
:109410002405F8C3E69A08E69B08E69C08E69D50FA
:1094200005758200802590E6ACE0FAA3E0FB7C00A5
:109430007D00A81808C3EA96EB0896EC0896ED089C
:109440009650057582008003758201851881D018B9
:109450000200C5C018858118058105819067BCE0B0
:10946000FA6003200403029660906038E0232354DE
:1094700001FABA010280199066F7E0FABA01028097
:109480000F902411E030E108906727E0FABA010359
:1094900002966075C860C2C6902405E0C4540FFAF5
:1094A000902406E0543FFBA81808A603A8180886D5
:1094B00004E4CCC4CC6CCC54F0CC6CFD8A067F00A8
:1094C000EE2CFCEF3DFD902402E0C45401FEA818F0
:1094D0000808A606902406E054C0F0902405E05445
:1094E0000FF0902402E054EFF08C078D061CBCFFB7
:1094F000011DEF4E70030295EE7E00BE040050E9A0
:1095000090E6C0E030E208BE020050030295EA8E09
:10951000F005F07401800225E0D5F0FB902400C432
:1095200054F0F5F0E0540F45F0F0902402E04401CF
:10953000F07F328F031FEB6035902402E030E107AB
:10954000902402E054FEF090000AC002C004C0055E
:10955000C006C007780479B57A021200B3D007D0EC
:1095600006D005D004D002902402E020E0C590246B
:1095700002E030E075902402E054FEF0758E079012
:109580002410E04404F0E054FBF0758E009022D0EB
:10959000E04480F09022D4E04480F09022D0E05467
:1095A0007FF09022D4E0547FF0758201C002C004A5
:1095B000C005C00678F979827A021200B37582017B
:1095C0007864798C7A011200B390000A780479B536
:1095D0007A021200B3D006D005D004D0029060A366
:1095E000E0FB4303109060A3EBF00E0294FB902489
:1095F00005EAC454F0F5F0E0540F45F0F09024066D
:10960000A81808E6543FF5F0E054C045F0F0902467
:1096100002A8180808E613E092E4F090E6C0E054CF
:1096200003603B90E6C0E05403FABA010D75CC78B4
:1096300075CDEC75C87AC204802690E6C0E054036C
:10964000FABA020D75CC1875CDFC75C87AC20480C3
:109650000F75CCF075CDD875C87AC2048002D204DB
:08966000851881D0180200C535
:020000040000FA
:1000DE00D315D3111003D77590550040000280013F
:0C00EE000010D3019300D755D305330058
:020000040001F9
:10966800AA82300C07200D047B0C8013200C0730D5
:109678000D047B038009BA01047B0C80027B0F90E8
:1096880060A4E0540FF4FA5203902400EBC454F0A1
:10969800F5F0E0540F45F0F00200C5902402E054C4
:1096A800EFF0900054E04408F0900054E04404F0D7
:1096B800900054E04402F0900054E04401F090001F
:1096C80058E04480F0902401E04404F0902418E02D
:1096D80054EFF0902418E054DFF0902405E054FE95
:1096E800F0902405E054F7F0302710902400E0545F
:1096F8000F44C0F0902405E04402F00200C590E653
:1097080007E030E2030297DD902401E030E5030230
:1097180097DD9066F7E0FABA01030297DD9067BD1E
:10972800E0FABA01030297DD90604CE020E407906C
:10973800604CE030E3030297DD902406E0543F4498
:1097480080F09024077405F075820178F979827A9F
:10975800021200B3785B79887A021200B390240869
:10976800E0FA5302FD902408EAF090240AE044400D
:10977800F0902405E054FDF0902405E054FEF090AC
:109788002405E054F7F0D20DD20C75820078687980
:10979800967A011200B390E6C0E030E314902401F9
:1097A800E04420F0902402E054FEF0E04401F08010
:1097B8000B75CC9C75CDFF75C87AC20490604EE0DD
:1097C80030E712902401E054FBF0E04410F09024BC
:1097D80001E04401F00200C5902401E0C4035401F3
:1097E800FABA0126758B18758DFCD28EC2039024A7
:1097F80001E054DFF0902402E020E1033003F6900A
:109808002402E054FEF0C28EC28F0200C590604C64
:10981800E020E4030298F690604CE030E3030298FD
:10982800F690604CE030E5030298F69066F7E0FAAF
:1098380060030298F6906727E0FA60030298F690B2
:10984800663AE02401F090663AE0FA7403B5020043
:1098580040030298F690663AE4F075820178F97947
:10986800827A021200B3785B79887A021200B39088
:109878002409E4F0902408E0FA53020D902408EA41
:10988800F090240AE04440F0902405E054FDF09064
:109898002405E054FEF0902405E054F7F0902400ED
:1098A800E044F0F07404C0E090101078EF798E7AFC
:1098B800011200B31581785B79887A021200B3909F
:1098C8002408E0FA5302F0902408EAF090240AE011
:1098D80054BFF07404C0E090100178EF798E7A01DB
:1098E8001200B31581780779847A021200B3020056
:1098F800C590604CE030E02B900264E030E20990C3
:109908000264E054FBF0802D900264E04404F07897
:109918001579987A011200B378C379D47A011200C4
:10992800B38012781579987A011200B378C379D484
:089938007A011200B30200C520
:020000040002F8
:10800000C018858118AA82AB83ACF0FDE51824F96D
:10801000F8C3E69A08E69B08E69C08E69D50098AA4
:10802000828B838CF0ED800FE51824F9F8868208A6
:1080300086830886F008E6D0180200C5C018E581DE
:10804000F5182408F581902560E0FAA3E0FBA3E091
:10805000FCA3E0FDE5182405F8A60208A60308A67F
:108060000408A605902564E0FEA3E0FFA3E0FAA3C0
:10807000E0FBC006C007C002C003E5182405F8866F
:10808000820886830886F008E6780079807A0212F2
:1080900000B3AA82AB83ACF0FDE58124FCF581E559
:1080A000182405F8A60208A60308A60408A6059049
:1080B0002568E0FAA3E0FBA3E0FCA3E0FDC002C05A
:1080C00003C004C005E5182405F8868208868308E5
:1080D00086F008E6780079807A021200B3AA82ABB3
:1080E00083ACF0FDE58124FCF581E5182405F8A6B4
:1080F0000208A60308A60408A60590256CE0FAA3CA
:10810000E0FBA3E0FCA3E0FDC002C003C004C00587
:10811000E5182405F886820886830886F008E67844
:108120000079807A021200B3AA82AB83ACF0FDE53D
:108130008124FCF581E5182405F8A60208A60308A9
:10814000A60408A605902570E0FAA3E0FBA3E0FCD6
:10815000A3E0FDA81808A60208A60308A60408A61E
:1081600005902574E0FEA3E0FFA3E0FAA3E0FBC0C6
:1081700006C007C002C003A81808868208868308C4
:1081800086F008E6780079807A021200B3AA82AB02
:1081900083ACF0FDE58124FCF581A81808A602084F
:1081A000A60308A60408A605902578E0FAA3E0FB3C
:1081B000A3E0FCA3E0FDC002C003C004C005A818F2
:1081C0000886820886830886F008E6780079807A37
:1081D000021200B3AA82AB83ACF0FDE58124FCF56A
:1081E00081A81808A60208A60308A60408A60590F8
:1081F000257CE0FAA3E0FBA3E0FCA3E0FDC002C005
:1082000003C004C005A8180886820886830886F083
:1082100008E6780079807A021200B3AA82AB83ACB8
:10822000F0FDE58124FCF581A81808A60208A60344
:1082300008A60408A605E5182405F8C3E694640812
:10824000E6940008E6940008E69400500575820064
:10825000801AA81808C3E49674040896E40896E403
:10826000089650057582008003758201851881D0BB
:10827000180200C5AA82902440EA543FF5F0E05469
:10828000C045F0F0902441EA543FF5F0E054C04579
:10829000F0F0902442EA543FF5F0E054C045F0F08D
:1082A000902443EA543FF5F0E054C045F0F09024A8
:1082B00060EA543FF5F0E054C045F0F0902461EAE4
:1082C000543FF5F0E054C045F0F0902462EA543F8A
:1082D000F5F0E054C045F0F0902463EA543FF5F027
:1082E000E054C045F0F0902430740FF0E4F0902496
:1082F00034740FF0E4F00200C5AA82BA01028008CB
:10830000BA0202805F0283FD7440C0E0E4C0E07402
:1083100078C0E07461C0E0E4C0E090244075F000F3
:10832000785179BA7A021200B3E58124FBF5819085
:10833000243074FFF0A3F0A3F0A3747FF0902430F6
:10834000E4F0A3F0A3F0A3F090243474FFF0A3F0C2
:10835000A3F0A3747FF0902434E4F0A3F0A3F0A37F
:10836000F00283FD906178E0902440543FF5F0E006
:1083700054C045F0F0906179E0902441543FF5F00D
:10838000E054C045F0F090617AE0902442543FF50B
:10839000F0E054C045F0F090617BE0902443543FFE
:1083A000F5F0E054C045F0F0906198E090246054FE
:1083B0003FF5F0E054C045F0F0906199E090246101
:1083C000543FF5F0E054C045F0F090619AE09024FD
:1083D00062543FF5F0E054C045F0F090619BE0FA44
:1083E000902463543FF5F0E054C045F0F090243001
:1083F000740FF0E4F0902434740FF0E4F090240B48
:10840000E030E5F90200C57440C0E0E4C0E07480EB
:10841000C0E07424C0E0E4C0E090617875F00078BA
:108420005179BA7A021200B3E58124FBF58102008A
:10843000C5AA82BA00028027BA01030284B5BA0233
:10844000030284F9BA030302853DBA04030285815D
:10845000BA10030285C5BA12030285EF0286C890DE
:1084600024D0E0906148F09024D1E0906149F090F0
:1084700024D2E090614AF09024D3E090614BF090D8
:1084800024F0E090614CF09024F1E090614DF09088
:1084900024F2E090614EF09024F3E0FA90614FF006
:1084A00090240BE030E2047A0180027A009061713E
:1084B000EAF00286C89024D0E0906150F09024D178
:1084C000E0906151F09024D2E0906152F09024D37A
:1084D000E0906153F09024F0E0906154F09024F12A
:1084E000E0906155F09024F2E0906156F09024F312
:1084F000E0FA906157F00286C89024D0E09061586D
:10850000F09024D1E0906159F09024D2E090615A2B
:10851000F09024D3E090615BF09024F0E090615CF7
:10852000F09024F1E090615DF09024F2E090615EC3
:10853000F09024F3E0FA90615FF00286C89024D0B6
:10854000E0906160F09024D1E0906161F09024D2DD
:10855000E0906162F09024D3E0906163F09024F0A9
:10856000E0906164F09024F1E0906165F09024F275
:10857000E0906166F09024F3E0FA906167F0028683
:10858000C89024D0E0906168F09024D1E0906169B7
:10859000F09024D2E090616AF09024D3E090616B77
:1085A000F09024F0E090616CF09024F1E090616D27
:1085B000F09024F2E090616EF09024F3E0FA906184
:1085C0006FF00286C87440C0E0E4C0E074D0C0E040
:1085D0007424C0E0E4C0E090610075F00078517947
:1085E000BA7A021200B3E58124FBF5810286C890B5
:1085F00024C0E0547F9061B8547FF5F0E05480458A
:10860000F0F09024C1E0547F9061B9547FF5F0E020
:10861000548045F0F09024C2E0547F9061BA547FBA
:10862000F5F0E0548045F0F09024C3E0547F906171
:10863000BB547FF5F0E0548045F0F09024C4E05442
:108640007F9061BC547FF5F0E0548045F0F09024B9
:10865000C5E0547F9061BD547FF5F0E0548045F053
:10866000F09024C6E0547F9061BE547FF5F0E05452
:108670008045F0F09024C7E0547F9061BF547FF5AF
:10868000F0E0548045F0F0902510E0906140F090CB
:108690002511E0906141F0902512E0906142F09048
:1086A0002513E0906143F0902514E0906144F09030
:1086B0002515E0906145F0902516E0906146F09018
:1086C0002517E0FA906147F00200C5AA82BA0002BD
:1086D0008009BA02030287670287F0906148E09040
:1086E0002440543FF5F0E054C045F0F0906149E07B
:1086F000902441543FF5F0E054C045F0F090614AB9
:10870000E0902442543FF5F0E054C045F0F0906111
:108710004BE0902443543FF5F0E054C045F0F09016
:10872000614CE0902460543FF5F0E054C045F0F017
:1087300090614DE0902461543FF5F0E054C045F065
:10874000F090614EE0902462543FF5F0E054C04553
:10875000F0F090614FE0FA902463543FF5F0E0545C
:10876000C045F0F00287F0906158E0902440543FFB
:10877000F5F0E054C045F0F0906159E09024415488
:108780003FF5F0E054C045F0F090615AE09024428B
:10879000543FF5F0E054C045F0F090615BE0902468
:1087A00043543FF5F0E054C045F0F090615CE09038
:1087B0002460543FF5F0E054C045F0F090615DE076
:1087C000902461543FF5F0E054C045F0F090615EB4
:1087D000E0902462543FF5F0E054C045F0F0906121
:1087E0005FE0FA902463543FF5F0E054C045F0F0A8
:1087F000902430740FF0E4F0902434740FF0E4F01F
:1088000090240BE030E5F90200C5E582FA602B9078
:10881000604CE030E010900264E054E7F090020C0D
:10882000E0548FF08026900264E054E74408F09012
:10883000020CE0548F4430F08012900264E054E760
:108840004410F090020CE0548F4420F090000A781D
:108850000479B57A021200B30200C59060A4E0303A
:10886000E4119024087455F0A3F090240AE054C059
:10887000F0800F90240874FFF0A3F090240AE044E5
:108880003FF0902401E054FDF0902401E054FEF00C
:1088900090240AE054BFF0902402E054F7F09024B2
:1088A00002E054FBF090240BE0547FF090240BE0A6
:0688B00054BFF00200C5F8
:020000040000FA
:1000FA00906099E0FABA170978FC79A87A02120096
:10010A00B3906098E054FEF0902230742BF0227580
:10011A00880575895175A91C75B906D2ABD2ADD2BD
:10012A00A8D2AAC2A975B83F75C878759A3EC20501
:10013A00C206C207C208906711E4F0C209C20AD215
:0D014A0003D204C21DC21E9067A7E4F0227C
:020000040001F9
:10994000906038E0547FF0906098E030E1109060D3
:109950009CE0FAA3E0FB906174EAF0A3EBF090675F
:109960009BE4F07A03C002780779847A011200B38D
:10997000D00290679BE0FB6027906037E0FBBB0163
:10998000109060407401F0906040E0FBBB010280E9
:10999000F68A031AC374808BF063F08095F040C59B
:1099A00078DB799E7A011200B3788A79A47A011261
:1099B00000B3906038E04480F0906658E0FA906020
:1099C0004AEAF0906659E0FA906049EAF090665FE2
:1099D000E0FA906048EAF090665AE0FA90604BEA4C
:1099E000F00200C590614AE0FA90614BE0FBC002D2
:1099F0008B8278EB79B87A021200B3AB8215818B37
:109A00000290614EE0FBC0028B8278EB79B87A025B
:109A10001200B3AB8215818B0290614FE0FBC00254
:109A20008B8278EB79B87A021200B3AB8215819001
:109A30006643EBF0906148E0FA906149E0FBC002B8
:109A40008B8278EB79B87A021200B3AB8215818BE6
:109A50000290614CE0FBC0028B8278EB79B87A020D
:109A60001200B3AB8215818B0290614DE0FBC00206
:109A70008B8278EB79B87A021200B3AA82158190B2
:109A80006642EAF090614AE0FA7B0090614BE0FCAC
:109A90007D00EC2AFAED3BFB90614EE0FC7D00EC92
:109AA0002AFAED3BFB90614FE0FC7D00EC2AFAEDD9
:109AB0003BA2E713CA13CAA2E713CA13CA906641AE
:109AC000EAF0906148E0FA7B00906149E0FC7D009B
:109AD000EC2AFAED3BFB90614CE0FC7D00EC2AFAAD
:109AE000ED3BFB90614DE0FC7D00EC2AFAED3BA2E2
:109AF000E713CA13CAA2E713CA13CA906640EAF072
:109B0000906152E0FA7B00906153E0FC7D00EC2A0A
:109B1000FAED3BFB906156E0FC7D00EC2AFAED3B50
:109B2000FB906157E0FC7D00EC2AFAED3BA2E713C5
:109B3000CA13CAA2E713CA13CA906645EAF0906135
:109B400050E0FA7B00906151E0FC7D00EC2AFAEDD8
:109B50003BFB906154E0FC7D00EC2AFAED3BFB906E
:109B60006155E0FC7D00EC2AFAED3BA2E713CA1335
:109B7000CAA2E713CA13CA906644EAF090610CE0E7
:109B8000FA3395E0FB90612CE0FC3395E0FDEC2A84
:109B9000FAED3BA2E713CA13CA906646EAF0906159
:109BA00004E0FA3395E0FB906105E0FC3395E0FDBD
:109BB000EC2AFAED3BFB906124E0FC3395E0FDECF0
:109BC0002AFAED3BFB906125E0FC3395E0FDEC2AA1
:109BD000FAED3BA2E713CA13CAA2E713CA13CA904D
:109BE0006647EAF0906106E0FA3395E0FB90610782
:109BF000E0FC3395E0FDEC2AFAED3BFB906126E0BA
:109C0000FC3395E0FDEC2AFAED3BFB906127E0FC8C
:109C10003395E0FDEC2AFAED3BA2E713CA13CAA282
:109C2000E713CA13CA906648EAF0906108E0FA3375
:109C300095E0FB906109E0FC3395E0FDEC2AFAED3C
:109C40003BFB906128E0FC3395E0FDEC2AFAED3B0C
:109C5000FB906129E0FC3395E0FDEC2AFAED3BA294
:109C6000E713CA13CAA2E713CA13CA906649EAF0F7
:109C700090610AE0FA3395E0FB90610BE0FC3395CC
:109C8000E0FDEC2AFAED3BFB90612AE0FC3395E025
:109C9000FDEC2AFAED3BFB90612BE0FC3395E0FDF7
:109CA000EC2AFAED3BA2E713CA13CAA2E713CA13C0
:109CB000CA90664AEAF090610DE0FA3395E0FB90B5
:109CC000612DE0FC3395E0FDEC2AFAED3BA2E713B1
:109CD000CA13CA90664BEAF090610EE0FA3395E041
:109CE000FB90612EE0FC3395E0FDEC2AFAED3BA2FF
:109CF000E713CA13CA90664CEAF090610FE0FA339A
:109D000095E0FB90612FE0FC3395E0FDEC2AFAED45
:109D10003BA2E713CA13CA90664DEAF0906110E0C7
:109D2000FA3395E0FB906130E0FC3395E0FDEC2ADE
:109D3000FAED3BA2E713CA13CA90664EEAF09061AF
:109D40005AE0FA7B0090615BE0FC7D00EC2AFAEDC2
:109D50003BFB90615EE0FC7D00EC2AFAED3BFB9062
:109D6000615FE0FC7D00EC2AFAED3BA2E713CA1329
:109D7000CAA2E713CA13CA906650EAF0906158E08D
:109D8000FA7B00906159E0FC7D00EC2AFAED3BFB88
:109D900090615CE0FC7D00EC2AFAED3BFB90615D9C
:109DA000E0FC7D00EC2AFAED3BA2E713CA13CAA23D
:109DB000E713CA13CAFB90664FEAF09060A0E02058
:109DC000E303029E42906162E0FA7B00906163E0EF
:109DD000FC7D00EC2AFAED3BFB906166E0FC7D0027
:109DE000EC2AFAED3BFB906167E0FC7D00EC2AFA7F
:109DF000ED3BA2E713CA13CAA2E713CA13CA9066BF
:109E000052EAF090616AE0FA7B0090616BE0FC7DC1
:109E100000EC2AFAED3BFB90616EE0FC7D00EC2A41
:109E2000FAED3BFB90616FE0FC7D00EC2AFAED3B24
:109E3000A2E713CA13CAA2E713CA13CAFB90665457
:109E4000EAF0906170E0906655F0906174E0FAA3DA
:109E5000E0FB20E103029ED8902510E0FA3395E064
:109E6000FB902511E0FC3395E0FDEAC39CFAEB9DE5
:109E7000FB902514E0FC3395E0FDEC2AFAED3BFB6A
:109E8000902515E0FC3395E0FDEAC39CFAEB9D8A32
:109E900004906656ECF0902512E0FA3395E0FB90C2
:109EA0002513E0FC3395E0FDEAC39CFAEB9DFB90A3
:109EB0002516E0FC3395E0FDEC2AFAED3BFB9025FE
:109EC00017E0FC3395E0FDEAC39CFAEB9DFB90663E
:109ED00057EAF0906798E4F00200C5C01885811831
:109EE000058178E479997A011200B3300D37200C9E
:109EF00034906644E090665AF0906640E09066596F
:109F0000F0906642E0906658F0906647E090665B9D
:109F1000F0906649E090665CF090664FE0FA9066DB
:109F20005FF002A03E200D37300C34906645E09083
:109F3000665AF0906641E0906659F0906643E09072
:109F40006658F0906648E090665BF090664AE09054
:109F5000665CF0906650E0FA90665FF002A03E907A
:109F60006644E0FA7B00906645E0FC7D002AFAED4D
:109F70003BFB0ABA00010BEBA2E713CA13CA9066B7
:109F80005AEAF0906640E0FA7B00906641E0FC7D82
:109F9000002AFAED3BFB0ABA00010BEBA2E713CA59
:109FA00013CA906659EAF0906643E0FA906642E080
:109FB000FBC0028B8278EB79B87A021200B3AA82D6
:109FC0001581906658EAF0906647E0FA3395E0FB19
:109FD000906648E0FC3395E0FDEC2AFAED3BFB0A85
:109FE000BA00010BEBA2E713CA13CA90665BEAF052
:109FF000906649E0FA3395E0FB90664AE0FC3395C1
:10A00000E0FDEC2AFAED3BFB0ABA00010BEBA2E7FC
:10A0100013CA13CA90665CEAF090664FE0FA7B00C0
:10A02000906650E0FC7D002AFAED3BFB0ABA000185
:10A030000BEBA2E713CA13CAFB90665FEAF09066C7
:10A040005AE0FA906659E0FBEAC39B90665DF09097
:10A05000665DE0FA74C1C0E0743FC0E08A82783D7A
:10A0600079B97A021200B3AA821581158190665DD2
:10A07000EAF0906646E0F582781A79BA7A02120020
:10A08000B3E582FA3395E0FB90665BE0F582C002AF
:10A09000C003781A79BA7A021200B3AC82D003D026
:10A0A00002EC3395E0FDEC2AFAED3BFB90665CE0B8
:10A0B000F582C002C003781A79BA7A021200B3ACF2
:10A0C00082D003D002EC3395E0FDEC2AFAED3BFBA5
:10A0D00090664BE0F582C002C003781A79BA7A0222
:10A0E0001200B3AC82D003D002EC3395E0FDEC2A31
:10A0F000FAED3BFB90664CE0F582C002C003781A93
:10A1000079BA7A021200B3AC82D003D002EC339554
:10A11000E0FDEC2AFAED3BFB90604DE02323540177
:10A12000FCB40100E433FC604A906658E0FC9060A7
:10A1300067E0FDECB50500B3E433FD703190606E6F
:10A14000E0FDECB50500B3E433FC601690606DE013
:10A15000FC7D00C3EA9CEB64808DF063F08095F099
:10A1600040047A0080027A01EA7003FA80027A01E0
:10A17000EA70047A0080027A01906666EAF09060E4
:10A180004DE023235401FAB40100E433FA6048900F
:10A190006646E0F582781A79BA7A021200B3AA828A
:10A1A000906066E0FBEAB50300B3E433FB702390F4
:10A1B000665BE0F582781A79BA7A021200B3AA8255
:10A1C00090606FE0FBEAB50300B3E433FB7003FA81
:10A1D00080027A01EA70047A0080027A0190666750
:10A1E000EAF0906666E07009906667E07003FA80B6
:10A1F000027A01906668EAF090665FE0FA90604F3C
:10A20000E0543FFB8A04C3EB64808CF063F08095DC
:10A21000F05006906655E070047B0080027B019050
:10A220006669EBF090604DE0541FFB8A04C3EC6458
:10A23000808BF063F08095F0B3E433FC60069066A9
:10A2400055E070047B0080027B0190666AEBF09021
:10A25000665AE0FB906659E0FCEBB5040040048CC4
:10A26000058007EB2BFBC39CFCFD906655E060105E
:10A2700090600AE020E2028D0290665EEAF08005BE
:10A2800090665EE4F0900050E0C423540390666D45
:10A29000E4F0A3F090666DE0FAA3E0FB906088A87C
:10A2A0001808E0035401F6906646E0FD3395E0FEA1
:10A2B000900050E003540390A59393FF3395E0FC86
:10A2C000C002C003C007C0048D828E83126D98AC9B
:10A2D00082AD8315811581A8180886067F00C00409
:10A2E000C0058E828F83126D98AC82AD8315811567
:10A2F00081D003D002EC2AFAED3BFB90666DEAF0C8
:10A30000A3EBF0900050E0540190A59793FC339597
:10A31000E0FD90665BE0FE3395E0FFC002C003C045
:10A3200006C0078C828D83126D98AC82AD83158137
:10A330001581D003D002EC2AFAED3BFB90666DEA62
:10A34000F0A3EBF0900050E0540190A59993FC33FA
:10A3500095E0FD90665CE0FE3395E0FFC002C0032F
:10A36000C006C0078C828D83126D98AC82AD8315B8
:10A37000811581D003D002EC2AFAED3BFB90666D8B
:10A38000EAF0A3EBF0900050E0540190A59B93FC01
:10A390003395E0FD90664BE0FE3395E0FFC002C0D0
:10A3A00003C006C0078C828D83126D98AC82AD838A
:10A3B00015811581D003D002EC2AFAED3BFB9066A3
:10A3C0006DEAF0A3EBF0900054E023540190A59DBA
:10A3D00093FC3395E0FD90664CE0FE3395E0FFC0C2
:10A3E00002C003C006C0078C828D83126D98AC82B8
:10A3F000AD8315811581D003D002EC2AFAED3BFB29
:10A4000090666DEAF0A3EBF0900054E023540190C5
:10A41000666DEAF0A3EBF0900054E02354019066DF
:10A420006DEAF0A3EBF0E4C0E074FCC0E0E4C0E04F
:10A430007404C0E08A828B8378BE79B97A021200F4
:10A44000B3AA82AB83E58124FCF58190666DEAF0C6
:10A45000A3EBF090666DE0FAA3E0FB9066CAE0FC27
:10A460003395E0FDEAC39CF582EB9DF58378317965
:10A47000BA7A021200B3AA82AB8390666BEAF0A3A9
:10A48000EBF0851881D0180200C5906655E0700386
:10A49000FA804D90665FE0FB90604EE05407FC8BC5
:10A4A00005C3ED64808CF063F08095F050047A0170
:10A4B000802E90604DE0541FFCC3EB64808CF063F1
:10A4C000F08095F050047A028016906668E060048F
:10A4D0007A03800C906669E070047A0480027A0541
:10A4E000906663EAF00200C5906727E0FABA0102BD
:10A4F00080089066F7E0FABA010302A58C90604CE0
:10A50000E030E30302A58C90604CE020E507906703
:10A5100015E0FA600302A58C906047E020E102801C
:10A520006B78E079977A011200B39000EEE493FA29
:10A53000A3E493FB906174EAF0A3EBF078077984CD
:10A540007A011200B3906158E0FA7B00906159E003
:10A55000FC7D00EC2AFAED3BFB90615CE0FC7D00A9
:10A56000EC2AFAED3BFB90615DE0FC7D00EC2AFA01
:10A57000ED3BA2E713CA13CAA2E713CA13CA90603D
:10A58000A1EAF0780679977A011200B30200C503B8
:0FA590000406070304060703050305020301027F
:020000040000FA
:10021C00C018E581F5182407F581900228E0030346
:10022C005407FA53020390605AE003035401FBBBDA
:10023C00010280030203D6906038E030E30302032E
:10024C00D6C00278E079977A011200B3D002900000
:10025C0060E0C403540190671DF090005CE003540F
:10026C000190671EF0902400E0C4540F906724F0B6
:10027C00902406E0543FFBE4CBC4CB6BCB54F0CBC7
:10028C006BFC902405E0C4540FFD7E00906725EDB7
:10029C004BF0EE4CA3F0900058E0232354019067F0
:1002AC0021F0900058E0C4035401906722F0902490
:1002BC0010E0C45401906723F09066F7E0FB906760
:1002CC009CF09066F7E4F0BA0309900060E04420DB
:1002DC00F0800ABA020790005CE04402F090605A89
:1002EC00E030E01DD20CC20DEA700B902400E054FB
:1002FC000F44C0F08026902400E0540F4480F0801E
:10030C001BC20CD20DEA700B902400E0540F443049
:10031C00F08009902400E0540F4420F0902408E46D
:10032C00F0A3F090240AE054C0F090240AE054BFEB
:10033C00F0902406E0543F4480F09024077402F0BF
:10034C00902405E0540F4450F0902406E054C0F083
:10035C00780779847A021200B378FC79A87A0212B1
:10036C0000B3900028E003547F906045F090223059
:10037C00742BF0A20DE43390005813E092E5F0A238
:10038C000CE43390005813E092E6F0900058E054DF
:10039C00EFF078C379AC7A011200B3902580E04479
:1003AC0001F0906059E054FCF0906058E4F09067D4
:1003BC000EF0A3F09067277401F0906038E04408C9
:1003CC00F0902230742BF00207C490605AE00303C3
:1003DC005401FABA010280030206DB906038E0C4D3
:1003EC00235401FABA010280030206DB906038E064
:1003FC00C45401FABA010280030206DB906059E092
:10040C005403FA30E11A906059E05403FB7A00432C
:10041C0003FC906058E0FC7D004202ED4203801921
:10042C00906059E05403FD7C00906058E0FE7F0022
:10043C004204EF42058C028D0390670EE0FCA3E0B2
:10044C00FDEAC39CF582EB9DF583C002C00312202C
:10045C001AD003D00290670EEAF0A3EBF09060B0D4
:10046C00E4F09060ACF0A3F0A3F0A3F09060B2E4E1
:10047C00F09060A8F0A3F0A3F0A3F09060B1E4F0CA
:10048C009060E0F0A3F0A3F0A3F09060B3E4F090E0
:10049C0060DCF0A3F0A3F0A3F09060A5E0540FFA99
:1004AC00BA030050047B03800F740CB50200500497
:1004BC007C0C80028A048C038B021A1A1AEA2A25F5
:1004CC00E0248AFAE43408FB9000E8E493FCA3E40B
:1004DC0093FD906174ECF0A3EDF0C002C0037807BB
:1004EC0079847A011200B3D003D002A818087600E0
:1004FC00A81808B602004003020659C002C00390B7
:10050C0060B0E0FDA81808E675F002A4FEE5F0CE98
:10051C0025E0CE33CE25E0CE33FFEE2470FAEF3457
:10052C0025FB7C00C003C005C006C007C002C00389
:10053C00C0049060AC75F0001207CAAA8215811530
:10054C00811581D007D006D005D003EA2D9060B07C
:10055C00F09060B2E0FAEE2460FBEF3425FC7D00F5
:10056C00C002C006C007C003C004C0059060A875D7
:10057C00F0001207CAAB82158115811581D007D006
:10058C0006D002EB2A9060B2F0E0FCA81808E5183F
:10059C002406F9E6F7E4C725E0C733C725E0C733DF
:1005AC0009F7E5182406F8E624F0FD08E63425FAE8
:1005BC008D828A83A3A3A3A3E02C9060B2F09060F9
:1005CC00B1E0FCEE2474FDEF3425FA7B00C003C0CF
:1005DC0004C006C007C005C002C0039060E075F0FF
:1005EC00001207CAAA82158115811581D007D00681
:1005FC00D004D003EA2C9060B1F09060B3E0FAEE36
:10060C002464FEEF3425FF7B00C002C006C007C087
:10061C00039060DC75F0001207CAAB82158115815E
:10062C001581D002EB2A9060B3F0E0FAE5182406AD
:10063C00F8E624F0F58208E63425F583E02A90608C
:10064C00B3F0A8180806D003D0020204FC9060B2E4
:10065C00E0FCA8180808A6040876000876000876BE
:10066C0000A8180808E6080808F6181818760008F4
:10067C0076000876009060A8E0A3E0FDA3E0FEA35E
:10068C00E0FF8D048E058F067F00A8180808EC4645
:10069C00F6ED0846F6EE0846F6EF0846F68A828B2B
:1006AC0083E493FCA3E493FDA3E493FEA3E493FF00
:1006BC00A8180808C3E69C08E69D08E69E08E69F75
:1006CC0050030204D4906038E054EFF00207C49059
:1006DC006727E0FABA010280030207C490605AE06F
:1006EC0030E2030207C4902580E054FEF09060389D
:1006FC00E054F7F0906038E054EFF0906727E4F0A6
:10070C00906721E090005813E092E6F0906722E0A9
:10071C0090005813E092E5F078FC79A87A02120068
:10072C00B390671DE090006013E092E5F090671EB7
:10073C00E090005C13E092E1F0906724E0902400DC
:10074C00C454F0F5F0E0540F45F0F0906725E0FA52
:10075C00A3E0FB740F5A902405C454F0F5F0E05458
:10076C000F45F0F0EBC4CAC4540F6ACA540FCA6ADE
:10077C00CA53023F902406EA543FF5F0E054C045BA
:10078C00F0F0906723E090241013E092E4F090676F
:10079C009CE09066F7F075820278F979827A021201
:1007AC0000B3902230742BF090604CE020E5097877
:1007BC000679977A011200B3851881D01822C018D7
:1007CC00858118C082C083C0F0E581240BF581A817
:1007DC00180886820886830886F0E5182404F91226
:1007EC006E7DF7A3126E7D09F7A3126E7D09F7A338
:1007FC00126E7D09F7E51824FBF8860308860408B9
:10080C0086028B828C838AF0E5182408F8126E7DA0
:10081C00F6A3126E7D08F6A3126E7D08F6A3126E77
:10082C007D08F6E5182404F8E5182408F9E726FEF7
:10083C0009E70836FF09E70836FA09E70836FBA886
:10084C00180886820886830886F0EE126D7FA3EF67
:10085C00126D7FA3EA126D7FA3EB126D7FE5182456
:10086C0008F8C3EE96EF0896EA0896EB0896500542
:10087C007582018003758200851881D018220400CE
:10088C0000002800000087010000430F000096982C
:10089C000000E2F50500CB9A3B00E50B5402E8762C
:1008AC00481711A5D4E87A0E7B0000000000000068
:1008BC00000000001ABAFF011BEA4B60030208B6E5
:1008CC002290223374FFF090220BE0547FF075F7E6
:1008DC000175F70122C0E0C082C083C0D075D01072
:1008EC00C2AF90223374F0F0C28DC28C902233745C
:1008FC00FFF0D2AFD0D0D083D082D0E032C0D07550
:10090C00D010C2AFC28EC28FD203D2AFD0D032C001
:10091C00E0C082C083C0D075D010C2AF90223374B7
:10092C00F2F075C878C2C6D204906033E020E503BB
:10093C000209D92006030209D99066CCE0FA7003AB
:10094C000209D9902603E020E410902600E0547FA1
:10095C00F0902601E04401F08032902609E0FA2064
:10096C00E71C90A316E05407FABA030280109026F5
:10097C0000E04480F0902601E04401F0800E9026C7
:10098C0000E04480F0902601E054FEF0902603E055
:10099C0020E71C902126E020E215906083E0448043
:1009AC00F0902600E0547FF0902601E054FEF09089
:1009BC006083E04440F0906083E04402F0902603B2
:1009CC00E04408F0906083E04408F0802D9026030A
:1009DC00E020E0263007239066CCE0FA601C9026DD
:1009EC0002E04480F0906083E04401F0906083E08A
:1009FC004410F0906083E04420F090223374FFF0B8
:100A0C00D2AFD0D0D083D082D0E032C0E0C082C090
:100A1C0083C0D075D010902233740DF074FFF0D0D9
:100A2C00D0D083D082D0E032C0E0C082C083C0D0AE
:100A3C0075D010C2AF9022337403F090201BE030BD
:100A4C00E1089020537402F0E4F090201BE030E2B7
:100A5C00369020537404F0E4F090A31BE020E527BB
:100A6C00902007E020E520902200E0FA90E650E08C
:100A7C00FBEAB5131290A34E740EF0740CF07408CC
:100A8C00F0E4F0902236F090223374FFF0D2AFD025
:100A9C00D0D083D082D0E032C0D075D010D0D0323C
:100AAC00C0D075D010D0D032C0E0C082C083C0D0CE
:100ABC0075D0107A00C2AF9022337409F090201BCD
:100ACC00E030E010902200E0FB90E650E0FCEBB54B
:100ADC0014027A0190201BE0FB54E17003020C8796
:100AEC0090205374FBF0E4F090662BE0FB600B90CD
:100AFC00223374FFF0D2AF020C8F902230E0FBBB9C
:100B0C001A028012BB1D028046BB2F028008BB302C
:100B1C00028003020BDA902007E0C4035401FBBBF4
:100B2C00010B9022367401F0D205020C87EA700397
:100B3C00020C87902231741AF090223374FFF090DB
:100B4C00220BE0547FF075F70175F701020C8790CA
:100B5C002007E020E52C902231741AF0902236E424
:100B6C00F0902002E054FBF0902102E054BFF09092
:100B7C00223374FFF090220BE0547FF075F701756F
:100B8C00F701902007E020E41E902002E054FBF0D7
:100B9C00902002E054FBF0902002E054FBF09020F7
:100BAC0003E054BFF08011902003E04440F090200B
:100BBC0002E04404F0752601902102E00303540185
:100BCC00FABA01028003020C87D205020C8790202E
:100BDC0007E020E52A902231741AF0902002E054AC
:100BEC00FBF0902102E054BFF090223374FFF090A0
:100BFC00220BE0547FF075F70175F701020C87901A
:100C0C002007E020E41E902002E054FBF09020022C
:100C1C00E054FBF0902002E054FBF0902003E054F1
:100C2C00BFF08011902003E04440F0902002E0449B
:100C3C0004F0752601902102E020E22790E604E002
:100C4C0020E720902102E054BFF0902231741DF077
:100C5C0090223374FFF090220BE0547FF075F70173
:100C6C0075F701902102E020E21190E604E0235494
:100C7C0001FABA010690223A7401F090223374FF03
:100C8C00F0D2AFD0D0D083D082D0E032C0E0C082DE
:100C9C00C083C0D075D010C2AF9022337402F090D4
:100CAC00202BE030E60F9020577440F0E4F09021B8
:100CBC0002E054BFF090202BE030E70F90205774E7
:100CCC0080F0E4F0902002E054FBF0902053E044DC
:100CDC0008F0E054F7F090A316E05407FABA042396
:100CEC009022317403F0902238E0FA4312019022E2
:100CFC0038EAF0902003E04404F0902003E0440133
:100D0C00F080069022317419F090223374FFF09029
:100D1C00220BE0547FF075F70175F70190223374C4
:100D2C00FFF0D2AFD0D0D083D082D0E032C0E0C0C0
:100D3C0082C083C0D075D010C2AFC29E90223374D3
:100D4C000BF0902620E020E003020DCB902644749B
:100D5C0001F0E4F0A207E433FA9022B4EAF0902018
:100D6C0002E030E25A200724902601E030E5509052
:100D7C002603E04404F0D2079066CCE4F0C203757D
:100D8C00C860C2C69022317428F08033902231E0C2
:100D9C00FABA2910C207902603E054FEF0902603FD
:100DAC00E054FBF0902231742AF0D29E90223374DE
:100DBC00FFF090220BE0547FF075F70175F701906E
:100DCC002143E030E52B90215BE04420F0E054DF40
:100DDC00F0902603E020E719902601E030E612900F
:100DEC002126E020E20B902274E054F7F0E0440856
:100DFC00F090223374FFF0D29ED2AFD0D0D083D0FB
:100E0C0082D0E032C0E0C082C083C0D075D010C2A6
:100E1C00AF9022337405F09026447402F0E4F0A2F3
:100E2C0006E433FA9022B4F0902601E020E60302A7
:100E3C000F87300603020F8790A316E05407FABA07
:100E4C0004028003020EDB90E644E020E20E9020C8
:100E5C0037E04480F0902107E04480F0902302E0DA
:100E6C0023235403906600F0902303E0540F906604
:100E7C0001F0902303E0235401906602F0902300CC
:100E8C00E0C45403FABA0114902302E0543F4480A6
:100E9C00F0902303E054F04404F08033902300E0FE
:100EAC00C45403FABA0228902200E0701290230274
:100EBC00E044C0F0902303E054F04404F080109020
:100ECC002302E0543FF0902303E054F04405F090EB
:100EDC002603E04402F09022317428F0D20690A34D
:100EEC0016E05407FABA03028007902636E04480D5
:100EFC00F0906711E4F0C20375C860C2C69022502E
:100F0C00E054DFF09066CCE4F0902143E054DFF045
:100F1C00902143E054BFF09022D8E04408F0E05414
:100F2C00F7F0902603E030E709902604E4F0A3F0F4
:100F3C00803B9067107401F090A316E05407FABA46
:100F4C000410902604E4F0A3F0902606E4F0A3F03D
:100F5C008010902604E4F0A37440F0902606E4F090
:100F6C00A3F0902602E04440F0E054BFF09026023B
:100F7C00E04420F0E054DFF00210A8902601E030AD
:100F8C00E63130062E902603E0C45401FABA012350
:100F9C009022317428F0906711E4F0C20375C86098
:100FAC00C2C6902600E054FBF0902603E054EFF00C
:100FBC000210A8902601E020E66730066490260314
:100FCC00E020E45D902231E0FABA2A3AC20690267B
:100FDC0000E054FBF0902603E054EFF0902603E081
:100FEC0054FDF090A316E05407FABA04199067B2B6
:100FFC00E090203713E092E7F09067B3E0FA90218D
:10100C000713E092E7F09022317429F090223374A8
:10101C00FFF090220BE0547FF075F70175F701801B
:10102C007B902601E030E674300671906711E4F095
:10103C00C20375C860C2C6902250E054DFF0902203
:10104C0074E054F7F0902600E054FBF0902603E097
:10105C0054EFF0902603E054FDF090A316E05407F3
:10106C00FABA04199067B2E090203713E092E7F0D7
:10107C009067B3E0FA90210713E092E7F0906710C5
:10108C007401F09022317429F090223374FFF090A7
:10109C00220BE0547FF075F70175F7019022337441
:1010AC00FFF0D2AFD0D0D083D082D0E032C0E0C03D
:1010BC0082C083C0D075D010C2AF902102E054F72B
:1010CC00F0902233740AF090223AE0600E90223AAB
:1010DC00E4F0902102E04408F08008D2089022311C
:1010EC00742CF090223374FFF0D2AFD0D0D083D0D8
:1010FC0082D0E032C025C0E0C0F0C082C083C0D036
:10110C0075D010C0188581180581058105817A007C
:10111C00C2AF9022337407F0902621E020E1030245
:10112C001726902645E04402F0E054FDF0D2AF9033
:10113C002603E020E10A902600E020E003021726B7
:10114C0090260BE0FB90260AE0FC90260AE0A3E038
:10115C00902609E0FD902608E0A3E030060E9026CC
:10116C0001E023235401FEBE0102801F200A03026A
:10117C001726902601E030E603021726902600E0A1
:10118C005401FEBE01028003021726C012ECC454A7
:10119C000FFE531603EC0303543FFFA81808740307
:1011AC005FF6A818080874035CF67F0090A316E09D
:1011BC005407FABA04028004D0128038D012C01638
:1011CC00EBC4540FFEE5182403F874035EF6E5181F
:1011DC002403F8E6D01630E009E5182403F8760469
:1011EC008039E5182403F8E630E130E5182403F8DB
:1011FC0076058027EB54E06013C01774E05BFFBFEB
:10120C00E005D017021726D0170216CAEB030354B9
:10121C003FFBE5182403F874035BF6E5182403F888
:10122C00E6700302130BED30E703021726ED30E6F0
:10123C000F90A316E05407FBBB0402800302172691
:10124C009067A6E0FB60030216CAE5182403F8E6D3
:10125C0025E0FA24B0F582E434E6F583E0FB902631
:10126C0034EBF0EA24B0FAE434E6FB8A828B83A3F5
:10127C00E0FB902635EBF0902634E0C4540FFA9046
:10128C00600FE0540FFBEAB5130040047F20800E82
:10129C00902634E054F070047F3080027F10C01729
:1012AC00902635E0C4540FFB90600EE0540FFFEB1A
:1012BC00B51700D01740054317088010902635E06D
:1012CC0054F0700543170C8003431704C017902685
:1012DC0035E0540FFB90600FE0C4540FFFEBB517D3
:1012EC0000D01740064317020216CA902635E05468
:1012FC000F70064317030216CA4317010216CAE5FC
:10130C00182403F8743F5CF6E5182403F8E6700320
:10131C000216CA7B00BB0B005014EB90192D93FCEA
:10132C00E5182403F8E6B5140280030B80E7BB0B29
:10133C000040030216CAED30E703021726ED30E633
:10134C000F90A316E05407FBBB0402800302172680
:10135C009067A6E0FB60030215E0902635E0C454CC
:10136C000FFB90600EE0540FFCEBB514009228B309
:10137C009217902635E0C4540FFBB40100921890DC
:10138C002635E0540FFB90600FE0C4540FFCEBB516
:10139C0014009228B39219902635E0540FFBB40137
:1013AC0000921A902634E0C4540FFB90600FE05466
:1013BC000FFCEBB514009228B3921B902634E0C4BA
:1013CC00540FFBB40100921CE5182403F8B601037A
:1013DC00021539E5182403F8B602030214FFE518C8
:1013EC002403F8B604030214DEE5182403F8B6054A
:1013FC00028060E5182403F8B608030214BDE51852
:10140C002403F8B60A02802DE5182403F8B610035D
:10141C000215AAE5182403F8B614028074E5182402
:10142C0003F8B62003021572E5182403F8B6280257
:10143C00803F0215E0201916902635E0540FFB0B67
:10144C00902635EB540FF5F0E054F045F0F07A01AE
:10145C000215E0201A16902635E0540FFB1B90263F
:10146C0035EB540FF5F0E054F045F0F07A0102152D
:10147C00E0201B18902634E0C4540FFB0B9026344C
:10148C00EBC454F0F5F0E0540F45F0F07A0202157D
:10149C00E0201C18902634E0C4540FFB1B9026341B
:1014AC00EBC454F0F5F0E0540F45F0F07A0202155D
:1014BC00E03017030215E0902635E0C4540FFB0B07
:1014CC00902635EBC454F0F5F0E0540F45F0F002E3
:1014DC0015E03018030215E0902635E0C4540FFBDC
:1014EC001B902635EBC454F0F5F0E0540F45F0F0AA
:1014FC000215E03019030215E0201818902635E08B
:10150C00C4540FFB1B902635EBC454F0F5F0E0549B
:10151C000F45F0F0902635E0540FFB0B902635EB81
:10152C00540FF5F0E054F045F0F00215E0301A03DA
:10153C000215E0201718902635E0C4540FFB0B90D1
:10154C002635EBC454F0F5F0E0540F45F0F090263E
:10155C0035E0540FFB1B902635EB540FF5F0E0549F
:10156C00F045F0F0806E201B6B902634E0C4540FD5
:10157C00FB0B902634EBC454F0F5F0E0540F45F01F
:10158C00F0201850902635E0C4540FFB1B902635E4
:10159C00EBC454F0F5F0E0540F45F0F08036201C0D
:1015AC0033902634E0C4540FFB1B902634EBC45408
:1015BC00F0F5F0E0540F45F0F0201718902635E0C8
:1015CC00C4540FFB0B902635EBC454F0F5F0E054EB
:1015DC000F45F0F0902635E0C4540FFB90600EE000
:1015EC00540FFCEBB514009228B39217902635E0FB
:1015FC00C4540FFBB401009218902635E0540FFB35
:10160C0090600FE0C4540FFCEBB514009228B39219
:10161C0019902635E0540FFBB40100921A90263431
:10162C00E0C4540FFB90600FE0540FFCEBB51400BA
:10163C009228B3921B902634E0C4540FFBB40100E3
:10164C00921CBE010B301C047F3080107F10800C6C
:10165C00BE0209301B047F2080027F10EA7024A890
:10166C001808B6010D30180543170C8016431704E3
:10167C008011A81808B6020B301705431708800311
:10168C00431704A8180808B6010D301A05431703B0
:10169C0080174317018012A8180808B6020B3019DE
:1016AC00054317028003431701BA0107EF2F25E00A
:1016BC00FB4217BA0208EF0303543FFA42177A00B1
:1016CC00902604EFF0A3EAF0902603E020E74020F8
:1016DC000A3D906711E0FA600F902605E0FA43127C
:1016EC0080902605EAF08027906710E0FA60209041
:1016FC00A316E05407FAC374818AF063F08095F066
:10170C00400D902605E0FA431240902605EAF09031
:10171C002602E04420F0E054DFF090223374FFF016
:10172C00D2AF851881D018D0D0D083D082D0F0D051
:10173C00E0D02532C0D075D010C2AFD2AFD0D032ED
:10174C00C0E0C082C083C0D075D010C2AFC29F9021
:10175C002233740CF0902143E030E62090215BE0C2
:10176C004440F0E054BFF0902601E030E60E9021AA
:10177C0026E030E207902274E054F7F090223374A4
:10178C00FFF0D29FD2AFD0D0D083D082D0E032C085
:10179C00E0C0F0C082C083C0D075D010C2AFD2BB45
:1017AC009022337404F0902288E030E3609022D8C9
:1017BC00E04408F0E054F7F0906033E030E44E3051
:1017CC00064B9066CCE0FA6044902603E020E73D9F
:1017DC00902126E020E23690A316E05407FAC37459
:1017EC00818AF063F08095F04015906083E044802E
:1017FC00F0902600E0547FF0902601E054FEF0902B
:10180C002603E04408F0906083E04440F090228886
:10181C00E030E5199022D8E04420F0E054DFF0905D
:10182C0022E4E020E007906033E054FEF090A2E464
:10183C00E020E20302190290A2F4E04404F0E05428
:10184C00FBF090A2FCE0700890A2FAE4F00218EC15
:10185C00902007E020E50D90A2FCE0FA90A2FAEAB5
:10186C00F00218EC90A2FCE0FABA020790A31BE07D
:10187C0020E25B90A2FCE0FABA030790A34FE020B1
:10188C00E04C90A2FCE0FABA040790A319E020E621
:10189C003D90A2FCE0FABA050790A34EE020E52E9D
:1018AC0090A2FCE0FABA0608902238E0FA20E11E79
:1018BC0090A2FCE0FABA07079067BAE0FA700F90B2
:1018CC00A2FCE0FABA08139067BAE0FA700C90A286
:1018DC00FCE0FA90A2FAEAF0800690A2FA7401F009
:1018EC0090A2FCE0600990A2FBE04401F08007901C
:1018FC00A2FBE054FEF090223374FFF0D2BBD2AFC7
:10190C00D0D0D083D082D0F0D0E032C0D075D010FF
:10191C00C2AF10980280001099028000D2AFD0D0D4
:0C192C0032000405080A142802012010F3
:060000000200C8020A170D
:03000B000208E107
:03001300020AA43A
:03001B00020909CE
:03002300021917A8
:03002B0002091BAC
:01003300329A
:01003B003292
:03004300021100A7
:03004B00020C980C
:03005300020A346A
:03005B0002179BEE
:03006300020E107A
:03006B0002174039
:01007300325A
:01007B003252
:01008300324A
:03008B00020AACBA
:03009300020AB4AA
:03009B000210B997
:0300A300020D3912
:0300AB0002174CED
:0300DB000200AE72
:0500AE0012193C80FE68
:1019380090000122758E00C2AF7526011201199020
:101948002231E0902230F0902231E4F0902234F0FD
:1019580090E649E0035401FA9067B8F090A320E0BC
:1019680030E66490223CE0FA530201BA013B90A3AE
:1019780018E04420F090662B7401F0785E79BE7A06
:10198800011200B3788079C77A021200B390E64951
:10199800E04402F090E651E4F090E652F090E62E32
:1019A800E030E6059060CDE4F0902200E0FA90E6A1
:1019B80050E0FBEAB5030B90A320E04480F0E0542C
:1019C8007FF0902230E4F090223CE0FA430201904C
:1019D800223CEAF0902230E07014787379B67A01EC
:1019E8001200B3789179F67A011200B3800978D1A0
:1019F80079E77A011200B390662BE0FA7009902219
:101A08000BE04480F0D2AF902230E0FABA030280B3
:101A180069BA1902802EBA1A02802EBA1D02803FB6
:101A2800BA2703021AC4BA2802803FBA2902803AA8
:101A3800BA2A028035BA2B02804BBA2C028030BAFF
:101A48002F7A80101253258073784179FC7A01121D
:101A580000B3806878D979FC7A011200B3805D7888
:101A68000179FF7A011200B38052122615804D7851
:101A78008D79CB7A011200B38042784779DA7A01FE
:101A88001200B38037785979E27A011200B39022B4
:101A980031E0702878F979987A011200B378B07932
:101AA800A57A011200B390E6C0E020E309785379E3
:101AB800947A011200B3902230742BF0200807901A
:101AC800201BE030E34890223AE06039902102E0A0
:101AD80054F7F0902053E04408F0E054F7F090A356
:101AE80016E05407FABA030C900064780479B57AC2
:101AF800021200B390223AE4F0C208902102E044B6
:101B080008F0021B95902230742CF0021B95A20657
:101B1800720750089022307428F0807120061890BF
:101B28002601E030E6119022B47498F0783079D923
:101B38007A011200B3805620072A902601E030E58A
:101B4800239022B47499F0C2AF9026447401F0E453
:101B5800F09022307428F0902603E04404F0D20775
:101B6800D2AF80299025F5E030E00F906714E0FAB5
:101B78006008902230743BF0801390E608E030E073
:101B88000C9022307403F09067B17401F090603AC1
:101B9800E023235401FABA0103123BE5902231E015
:101BA8006013902231E0FA902230F0902231E4F074
:101BB800C205021A0F12021C78E879A47A011200F1
:101BC800B3906098E05401FABA01031200FA902227
:101BD80097E0235401FAB40100E433FA90229713F2
:071BE800E092E7F0021A0F82
:050200007D160C000258
:101BEF00AA829066F8E0FBEAB50301229066F8EA54
:101BFF00F07403B50200500122EA2A2A901C0F73D9
:101C0F00021C1B021C31021C51021C64900058E084
:101C1F0054DFF0900058E054BFF0900058E054EFBC
:101C2F00F022A20DE43390005813E092E5F0A20CDD
:101C3F00E43390005813E092E6F0900058E054EF30
:101C4F00F022900058E04420F0900058E04440F01B
:101C5F00E054EFF022900058E054DFF0900058E08D
:101C6F0054BFF0E04410F022906662E0FA90666193
:101C7F00E0FBC0028B82121C8B158122C01885815C
:101C8F001805810581AA8290604FE030E703021E9C
:101C9F0026906799EAF0E51824FDF8860390679A75
:101CAF00EBF090600AE054DFF09066F8E0FC7027EC
:101CBF00906046E0C39AC39BFDA81808A6059060E4
:101CCF0045E0FE900028E003547FFFC003EEC39F62
:101CDF00FEFDD003021DC1BC016B9067A7E0FE5350
:101CEF000601BE0030900058E0C4035401FE90007E
:101CFF0058E023235401FFEEB507028018906715B3
:101D0F00E0FE7011C002C00378C379AC7A011200F3
:101D1F00B3D003D002906046E0C39AFEA81808A67D
:101D2F0006906045E0FEC002EBFF3395E0EEC39FE7
:101D3F00FE900028E003547FFA7F00EEC39AFEFD69
:101D4F00D002021DC1BC0232906046E0FEA8180806
:101D5F00A606906045E0FEEAFF3395E0EEC39FFED6
:101D6F00EBFD3395E0EEC39DFE900028E003547F1A
:101D7F00FD7F00EEC39DFEFD8038BC0335906046AD
:101D8F00E0FCA81808A604906045E0FC906796E078
:101D9F00FDEAFE3395E0EE2DFDEBFE3395E0FFEE11
:101DAF002D2CFC900028E003547FFD7E00ECC39D9A
:101DBF00FCFDA81808C3E6648094C04007A8180863
:101DCF00E624C0F6A818088682C002C003C0051218
:101DDF001F5ED005D003D002C3ED648094C64006C9
:101DEF00ED2480FD800CC3ED6480943A5004748020
:101DFF002DFDEDFC3395E0FD8C828D83C002C00379
:101E0F0012201AD003D002C0038A82121E2C158111
:101E1F0090600AE04420F0851881D01822C0188500
:101E2F008118AA829066F8E0FB7403B50300500393
:101E3F00021F5BEB2B2B901E4973021E55021E5582
:101E4F00021E80021EEC900038E00303543FFBC3D8
:101E5F0074A28BF063F08095F0500A900224E05446
:101E6F00F3F0021F5B900224E054F34404F0021FCE
:101E7F005BE51824FDF8E62AFB9020A4E493FCC34D
:101E8F00EB64808CF063F08095F0500A900224E0B0
:101E9F0054F3F0021F5B9020A5E493FCC3EB648026
:101EAF008CF063F08095F0500C900224E054F344D2
:101EBF0004F0021F5B9020A6E493FCC3EB64808CBC
:101ECF00F063F08095F0500C900224E054F3440836
:101EDF00F0021F5B900224E0440CF0806F90679635
:101EEF00E0FCEA2CFAE51824FDF8E62AFB9020A77F
:101EFF00E493FAC3EB64808AF063F08095F05009A5
:101F0F00900224E054F3F080439020A8E493FAC3A6
:101F1F00EB64808AF063F08095F0500B900224E020
:101F2F0054F34404F080259020A9E493FAC3EB64A2
:101F3F00808AF063F08095F0500B900224E054F308
:101F4F004408F08007900224E0440CF0D01822C01F
:101F5F001885811805810581AA82900038E0030356
:101F6F00543FFBC003740CC0E0743AC0E08A82781F
:101F7F003D79B97A021200B3AA8215811581D00377
:101F8F00EBB50203022014EAFC3395E0FDEC24FECE
:101F9F00FEED34FFFFA81808A603EB3395E008F613
:101FAF00A81808C3E69E08E664808FF063F080955A
:101FBF00F050040B0B802074022CFCE43DFDA8189C
:101FCF0008C3EC96ED64800886F063F08095F050BE
:101FDF00041B1B80028A03900038EB2B25E054FC76
:101FEF00F5F0E0540345F0F0C002C00378DE79B895
:101FFF007A021200B3783979807A011200B3D003D4
:10200F00D002021F8F851881D01822AA82AB83EAD3
:10201F004B700122900028E003547FFC7D00C3EA3F
:10202F009402EB648094804011EA24FEFAEB34FFB3
:10203F00FB74022CFCE43DFD802AC374FE9A747F6E
:10204F008BF063F08095F0401174022AFAE43BFBA9
:10205F00EC24FEFCED34FFFD800AEA2CFCEB3DFD89
:10206F007A007B0053047F900028EC2C54FEF5F08F
:10207F00E0540145F0F0C002C00378DE79B87A026F
:10208F001200B3D003D002900028E04401F0E054D6
:0B209F00FEF002201EFD111E192D3A5C
:020000040001F9
:10A59F00906060E09067BEF090605FE09067BFF002
:10A5AF0022906727E0FABA010280089066F7E0FA76
:10A5BF00BA010302A65E906715E0FA604B90604CFB
:10A5CF00E020E55F906650E0FA9060A1EAF078FD38
:10A5DF0079AB7A011200B3906715E4F09066FAF048
:10A5EF009066FBF09066FCF09066FDE4F09024021C
:10A5FF00E054EFF0780679977A011200B378367944
:10A60F00917A011200B3804790604CE0C40354016B
:10A61F00FABA010D9067157401F0906716E4F08097
:10A62F0002802C906716E0FA7009786179A67A019A
:10A63F001200B390670DE0FA906662F090604CE004
:10A64F0020E709782B79A77A011200B312A8F1023B
:10A65F0000C578E079977A011200B390608EE030F0
:10A66F00E109906091E0FA906661F012A59F906603
:10A67F0061E0FA9067BEE02A906661F0906662E052
:10A68F00FA9067BFE0FB2AFA906662F0906098E05C
:10A69F0030E307902402E04410F078FD79AB7A01A3
:10A6AF001200B3C20DD20C758201121BEF121C7770
:10A6BF0090670C740AF0906705E4F0A3F0906703BD
:10A6CF00E4F0A3F0906707E4F0906708F090670953
:10A6DF00F090670AF090670BE4F0906700F09067D6
:10A6EF0001F0906702F09066FAE4F09066FBF0904C
:10A6FF0066FCF09066FDF0906662E0FA90670DF0F0
:10A70F0090604CE0547FF090604EE054F7F090670B
:10A71F0017E4F09067167401F00200C5906768E4C3
:10A72F00F0A3F090676CE4F0C20DD20C75820112A9
:10A73F001BEF121C7790604EE054DFF090604EE0FC
:10A74F0020E30978C379AC7A011200B390604EE030
:10A75F0030E50302A879785679AC7A011200B390EC
:10A76F0066FFE0FA90679DE0FBC364808AF063F0B8
:10A77F008095F05015906705E0FCA3E0FD9067050C
:10A78F0074012CF0E43DA3F08022C3EA64808BF0C7
:10A79F0063F08095F05015906705E0FAA3E0FB1A7F
:10A7AF00BAFF011B906705EAF0A3EBF090679DE0FD
:10A7BF00FA9066FFE0C39AF582781A79BA7A021294
:10A7CF0000B3AA82C374818AF063F08095F04008C9
:10A7DF009067977401F08005906797E4F090670594
:10A7EF00E0FAA3E0FBC3E49A74808BF063F08095EA
:10A7FF00F0502590605EE0FC8CF005F0AC02AD03EC
:10A80F00EB3392D28008A2D2ED13FDEC13FCD5F0FE
:10A81F00F590676CECF0802BEB30E727EAF4FAEB5E
:10A82F00F4FB90605EE0FC8CF005F0EB3392D2808D
:10A83F0008A2D2EB13FBEA13FAD5F0F590676CC3BD
:10A84F00E49AF090676CE0FA6020906662E0FBEAB1
:10A85F002B906662F0758201121BEF121C779067C6
:10A86F0005E4F0A3F090676CE4F0906646E0F582A3
:10A87F00781A79BA7A021200B3AA82906066E0FB66
:10A88F00B502004017906659E0FA906067E0FBEA66
:10A89F00B503005007906798E0FA601090603AE0B7
:10A8AF0020E41090603AE04410F0803390603AE07A
:10A8BF0054EFF0906768E0FAA3E0FB9067687401CB
:10A8CF002AF0E43BA3F090605CE0FCA3E0FDC3EA58
:10A8DF009CEB9D500A90604CE030E50302A73702D5
:10A8EF0000C5906768E4F0A3F090676CE4F0C20DC8
:10A8FF00D20C9066F87401F0121C7790604EE05401
:10A90F00DFF090604EE020E30978C379AC7A011252
:10A91F0000B390604EE030E50302AB7D906662E0DD
:10A92F00FA906701F090670AE09067002AF090674D
:10A93F000BE09067022AF0788A79AC7A011200B3A3
:10A94F00906652E0FA906077E0FB7C0074022BFB7C
:10A95F00E43CFC7D00C3EB9AEC64808DF063F080E7
:10A96F0095F0500C90670AE0FB1490670AF0802571
:10A97F00906077E0FB7C000BBB00010CC3EA9BED02
:10A98F0064808CF063F08095F0500A90670AE0FACB
:10A99F0090670A04F0906796E0FAC3E49AFB906719
:10A9AF000AE0FCC003C0028C82783D79B97A0212AA
:10A9BF0000B3AA821581158190670AEAF090665458
:10A9CF00E0FA906077E0FB7C0074022BFBE43CFC28
:10A9DF007D00C3EB9AEC64808DF063F08095F050AE
:10A9EF000C90670BE0FB90670B04F080259060776D
:10A9FF00E0FB7C000BBB00010CC3EA9BED64808C79
:10AA0F00F063F08095F0500A90670BE0FA149067AE
:10AA1F000BF0906796E0FAC3E49AFB90670BE0FCAB
:10AA2F00C003C0028C82783D79B97A021200B3AAB2
:10AA3F00821581158190670BEAF090670AE0FB336E
:10AA4F0095E0FCEA3395E0FDEA2BFEED3CFFC3EE0B
:10AA5F0094FFEF6480947F5014906703E024FFFE0F
:10AA6F00A3E034FFFF906703EEF0A3EFF0EA2BFBB8
:10AA7F00ED3CFCC374019B74808CF063F08095F007
:10AA8F00500C906703E02401F0A3E03400F09067CE
:10AA9F0003E0FAA3E0FBC3E49A74808BF063F080C9
:10AAAF0095F05025906062E0FC8CF005F0AC02ADA3
:10AABF0003EB3392D28008A2D2ED13FDEC13FCD539
:10AACF00F0F590676CECF0802BEB30E727EAF4FAA7
:10AADF00EBF4FB906062E0FC8CF005F0EB3392D26C
:10AAEF008008A2D2EB13FBEA13FAD5F0F590676C4E
:10AAFF00C3E49AF090676CE0FA6073906046E0FBF5
:10AB0F007C00906661E0FDFE3395E0FFEBC39EFB9A
:10AB1F00EC9FFCEAF83395E0F9E82BFBE93CFCBB32
:10AB2F003A05BC00028022906046E0FB7C00C39E89
:10AB3F00FEEC9FFFE82EF8E93FF9B80C05B90002CB
:10AB4F008007EA2DFA906661F0906700E0906097B9
:10AB5F00F0906702E0906096F0906662E0FA906085
:10AB6F0095F0906703E4F0A3F090676CE4F078FD44
:10AB7F0079AB7A011200B3906646E0F582781A79C4
:10AB8F00BA7A021200B3AA82906066E0FBB50200A7
:10AB9F004017906659E0FA906067E0FBEAB5030052
:10ABAF005007906798E0FA601090603AE020E41048
:10ABBF0090603AE04410F0803290603AE054EFF049
:10ABCF00906768E0FAA3E0FB90676874012AF0E4ED
:10ABDF003BA3F0906063E0FC7D00C3EA9CEB9D50CB
:10ABEF000A90604CE030E50302A8FD0200C59060BA
:10ABFF0044E030E102804D906662E090670DF0D244
:10AC0F000DD20C758200121BEF906661E0FAE4C062
:10AC1F00E08A82121C8B158190670DE0906662F0BE
:10AC2F009000E2E493FAA3E493FB906174EAF0A33B
:10AC3F00EBF0784079997A011200B3906657E0FAF9
:10AC4F0090679DF00200C5C20DD20C758201121BD8
:10AC5F00EF121C779000EAE493FAA3E493FB906160
:10AC6F0074EAF0A3EBF0784079997A011200B3906F
:10AC7F006657E0FA9066FFF00200C5C20DD20C7560
:10AC8F008201121BEF121C779000EEE493FAA3E4FB
:10AC9F0093FB906174EAF0A3EBF09060A0E044089E
:10ACAF00F0784079997A011200B39060A0E054F7E0
:10ACBF00F00200C5758201786879967A011200B3A7
:10ACCF00902405E054FDF0906795E0FA7B1C7C0220
:10ACDF009000E8E493FDA3E493FE906174EDF0A37C
:10ACEF00EEF0C002C003C004780779847A01120025
:10ACFF00B3D004D003D002906170E0702DFDEDB59C
:10AD0F0002005019900040C002C003C004C00512D9
:10AD1F00201AD005D004D003D0020D80E18B058C12
:10AD2F00061BBBFF011CED4E70A6906170E0FABAD6
:10AD3F000103D38001C3B39228E433FA90604E131A
:10AD4F00E092E5F00200C5906663E0FABA050050A4
:10AD5F000C90665FE0FA743FB50200500280647891
:10AD6F00D579AD7A011200B39060A0E030E6097892
:10AD7F005A79AE7A011200B3906038E030E0207A51
:10AD8F00018A031AC374808BF063F08095F0500F23
:10AD9F00C00278CC79AF7A011200B3D00280E2788A
:10ADAF008979B27A011200B3906047E030E01490D5
:10ADBF006090E0906661F0121C77784079997A0183
:10ADCF001200B30200C5781679B37A011200B3905E
:10ADDF0066B1E4F09066B2F09066BCF0906661E008
:10ADEF00FA9066B7F09066B3E0FB9066B9F09066A4
:10ADFF0063E0FC9066B8F09066B6EAF09066B5EB4B
:10AE0F00F09066B4ECF09066F8E0FAB40100E43329
:10AE1F00FB7009BA010280047C0080027C01EC60A7
:10AE2F00047CE480027CC49066BAECF0EB7009BA43
:10AE3F00010280047A0080027A01EA60047A1280AB
:10AE4F00027A3C9066BBEAF00200C59066B2E070F1
:10AE5F00509066B1E0FA9060A5E0C4540FFBC3EACE
:10AE6F0064808BF063F08095F0501E906661E0FA7D
:10AE7F009066BAE0FBC364808AF063F08095F0506F
:10AE8F00089066BCE0FABA01189066B27401F090AF
:10AE9F0066B1E4F09066BCF09066B7E0FA90666138
:10AEAF00F09066B1E0FA9060A5E0C4540FFBC3EADE
:10AEBF0064808BF063F08095F0501D906661E0FA2E
:10AECF009066BBE0FBC3EA64808BF063F08095F083
:10AEDF0050069066BCE0600B9066B2E0FABA0103D0
:10AEEF0002AFC99066B2E0700E906661E0FA1A1A6E
:10AEFF00906661EAF0800C906661E0FA0A0A90664B
:10AF0F0061EAF09066BAE0FA9066BBE0FB9066618A
:10AF1F00E0FCC002C0038C82783D79B97A0212003E
:10AF2F00B3AA8215811581906661EAF09066B1E04F
:10AF3F00FA0A9066B1EAF0784079997A011200B373
:10AF4F00781679B37A011200B39066B3E0FA90667F
:10AF5F00B5E0FB7C0024FBFDEC34FFFE8A07780094
:10AF6F00C3EF9DE864808EF063F08095F040047D20
:10AF7F000080027D019066BCEDF0906663E0FD906D
:10AF8F0066B4E0FEB50500401BEDB5060280030276
:10AF9F00AE5AC3EB9FEC648088F063F08095F0406D
:10AFAF000302AE5A906661E0FB9066B6F09066B50C
:10AFBF00EAF09066B4EDF002AE5A0200C59066B2A8
:10AFCF00E4F09066BCF09066B6E0906661F0784071
:10AFDF0079997A011200B3781679B37A011200B316
:10AFEF009066B3E0FA9066B5F0906663E0FB90660A
:10AFFF00B4F09066B6E0FC9066B7F09066B8EBF0F0
:10B00F009066B9EAF09066BDECF09066BEECF090F9
:10B01F006098E030E5069067937401F09066BCE0AD
:10B02F007016906661E0FA9066BAE0FBC364808A9E
:10B03F00F063F08095F040389066B2E07032906621
:10B04F00B27401F09066B1E4F09066BCF09066B710
:10B05F00E0906661F0906793E4F0784079997A0117
:10B06F001200B3906098E030E5069067937401F09A
:10B07F009066BCE07017906661E0FA9066BBE0FBEB
:10B08F00C3EA64808BF063F08095F0400B9066B25A
:10B09F00E0FABA010302B2229066B2E0FABA010EE8
:10B0AF00906661E0FA0A0A906661EAF0800C906699
:10B0BF0061E0FA1A1A906661EAF09066BAE0FA90C7
:10B0CF0066BBE0FB906661E0FCC002C0038C827837
:10B0DF003D79B97A021200B3AA8215811581906663
:10B0EF0061EAF0784079997A011200B3781679B352
:10B0FF007A011200B39066B5E0FA906052E0C45442
:10B10F000FFB7C007D00C002C004C003C0058A8213
:10B11F008C83126D98AB82AD8315811581D004D0CD
:10B12F0002EDC4CBC4540F6BCB540FCB6BCB30E3BE
:10B13F000244F0906052E0540F2BFB906053E0C438
:10B14F00540FFD7E00C003C005C0068A828C831297
:10B15F006D98AA82AC8315811581D003ECC4CAC443
:10B16F00540F6ACA540FCA6ACA30E30244F090609F
:10B17F0053E0540F2AFA9066B2E0FC6002801B90F5
:10B18F0066B3E0FD7E00EB3395E0FFC3ED9BEE640D
:10B19F00808FF063F08095F040047B0080027B018C
:10B1AF00EB702ABC011B9066B3E0FB7D00EA339580
:10B1BF00E0FEC3EB9AED64808EF063F08095F04073
:10B1CF00047A0080027A01EA7003FA80027A01EAB7
:10B1DF00700B9066B3E0FA60047A0080027A0190F7
:10B1EF0066BCEAF0E0700FEC700C906661E0FA90CC
:10B1FF0066BDF002B02B9066BCE0600302B02BBCC2
:10B20F000102800302B02B906661E0FA9066BEF0F7
:10B21F0002B02B9066BDE0FA3395E0FB9066BEE07E
:10B22F00FC3395E0FDEC2AFAED3BA2E713CA13CAF3
