:020000040002F8
:10800000AA82AB837C00BC0800502AEC2CFDFE90B9
:1080100083DF93CEA393FFED9083EF93CDA393F8EB
:10802000EA5205EB5200EEB50508EFB50004758283
:1080300001220C80D175820022C018E581F5182438
:1080400008F581E5182404F87600087600E5182480
:1080500006F87600900030E00354079083FF939079
:10806000661DF0900034E00303543F90661EF090CC
:108070000034E003540190661FF07851799F7A0232
:108080001200B3AD829022B6EDF0906008E0FEBE23
:1080900001047E0880027E01A818080876BC0876D4
:1080A000029022B5EEF030165CED6009906614E0A7
:1080B0002401F08009906614E014906614F0906634
:1080C00014E0FC700CFD90E643E0FF906614F08035
:1080D00034C00690E643E0FFE4CF25E0CF33FE7ADC
:1080E00000C3EC9FEA64808EF063F08095F0D006C8
:1080F000400D7D0190E643E0FA906614F08006752D
:108100008201028224BD0111C00678C2799F7A02E1
:108110001200B3AA82D0068011C006786979A07ACD
:10812000021200B3AB82D0068B02EA600302821D0A
:10813000C006788779837A021200B3D00630160A17
:10814000E5182406F8760102821DC0067851799F51
:108150007A021200B3AA82D0068A059022B6EDF008
:10816000A81808E6B505028011A81808A605BE08DB
:10817000047E028005BE02027E01E5182404F80890
:10818000E618C625E0C63308F68D027B00E5182404
:1081900004F8EA46F6EB0846F6E5182404F8E51874
:1081A0002407F9E6F70809E6F77C00BC0800503B15
:1081B000C006EC2CFFFE9083DF93CEA393FAEFFB77
:1081C0009083EF93CBA393FFE5182407F8E65203BF
:1081D00008E65207EEB50306EAB507028004D006AA
:1081E0008006D0067A0180050C80C07A00EA601013
:1081F000E5182406F87601906006E04408F0801D3A
:1082000090E649E020E00AA818080816B6FF020820
:1082100016A8180808E6084660030280A1E518249D
:1082200006F88682851881D0180200C5A20EE433B4
:10823000FA902230740FF0900228E003035407FBF9
:10824000530304E4BB000104FB906006E054F7F024
:10825000906001E054FDF090E60AE003035401FC55
:10826000BC0102800A906003E05401FCBC0144EAB6
:108270002AFC24AAFDE43465FEEB2DF582E43EF5EC
:1082800083E090661EF0EC24B2FDE43465FEEB2D35
:10829000F582E43EF583E0906620F0EC24A2FCE455
:1082A0003465FDEB2CF582E43DF583E0FC90661F20
:1082B000F0801290661E7431F09066207405F09084
:1082C000661F7401F0906620E09083FF9390661D16
:1082D000F0C002C003788779837A021200B3D0031A
:1082E000D002906008E0600302837490E60AE030F8
:1082F000E203028374C002C003783979807A0212E3
:1083000000B3AC82D003D002906005EC13E092E1A0
:10831000F0900030E0035407FCEA2433FDE43466B7
:10832000FEEC9083FF938D828E83F0EA2AFA24AAD2
:10833000FCE43465FDEB2CFCE43DFD90661EE08C16
:10834000828D83F0EA24B2FCE43465FDEB2CFCE47E
:108350003DFD906620E0FE8C828D83F0EA24A2FA37
:10836000E43465FCEB2AFBE43CFD90661FE0FA8BED
:10837000828D83F0906001E04402F090E643E0FAE1
:10838000906614F00200C590661EE090003425E06F
:1083900025E054FCF5F0E0540345F0F090661FE052
:1083A00090003413E092E1F090661DE0FAC313628E
:1083B00002906620EAF0900030EA2A540EF5F0E0D0
:1083C00054F145F0F0900034E04401F078E779D0C2
:1083D0007A021200B3900034E054FEF00200C505AA
:1083E000000A003300CC00C701380E0F0FF0F00F69
:1083F000000F00FF00FF00FF0FFF0FFFFFFFFF0058
:078400000103020706040559
:020000040001F9
:10800000C018858118058105819061707401F09018
:1080100066FCE0FABA0102800B90E607E003540127
:10802000FABA010620080302883C9060A2E4F090AE
:1080300060A3F0906643E0FA906174E0FBA3E0FC7B
:10804000EB20E0030281329060A27401F090216382
:10805000E0547FF090240CE0547FF0902102E04443
:1080600080F0E0547FF0C00278E779D07A02120005
:10807000B3902403E054BFF0758E07902410E044C1
:1080800004F0E054FBF0758E009022D0E04480F0C4
:108090009022D4E04480F09022D0E0547FF09022EF
:1080A000D4E0547FF078E079877A021200B3D002EE
:1080B0009060A27402F09060A0E030E175C0027898
:1080C0003379897A021200B3758200785D79897AF2
:1080D000021200B3758210785D79897A021200B3BA
:1080E000758212785D79897A021200B3D002900409
:1080F0009CE0541FFB900498E0541FFC2BFB9067FE
:10810000D0F0900498E020E5079067D074402BF001
:1081100090089CE0541FFB900898E0541FFC2BFB38
:108120009067D1F0900898E020E5079067D17440FF
:108130002BF0906174E0FBA3E0FCEB30E12A90604F
:10814000A27403F0C00274FFC0E090000078E279EE
:108150008F7A021200B31581D002902163E044802F
:10816000F090240CE04480F0906174E0FBA3E0FC0C
:10817000EB20E20302828C9060A27404F07582010D
:10818000C00278D2798E7A021200B37582007866C6
:1081900079937A021200B3D002906174E0FBA3E0FD
:1081A000FCEB30E51B9060A27405F0C002E4C0E077
:1081B000900A0178E2798F7A021200B31581D00219
:1081C000758BF0758DD8D28EC2039060A27406F0C4
:1081D000C0027401C0E0900A0178E2798F7A02123D
:1081E00000B31581D002906666E0FBB50202806E96
:1081F0009060A27408F0EBFC3395E0FDEC24FEFEE9
:10820000ED34FFFFA81808A602EA3395E008F6A8A7
:108210001808C3E69E08E664808FF063F08095F04E
:1082200050040A0A802074022CFCE43DFDA81808C2
:10823000C3EC96ED64800886F063F08095F05004FE
:108240001A1A80028B02906667E0FBC002C0038AA4
:10825000821217DF1581D0022003030281CA300386
:108260000F9060A3E0FA4302029060A3EAF0C20319
:10827000C28EC28F758200785D79897A021200B34E
:10828000758210785D79897A021200B3906174E08A
:10829000FAA3E0FBEA20E4030284569060A2740A89
:1082A000F0902401E054FDF0902401E054FEF090A1
:1082B0006174E0FAA3E0FBEA30E53A9060A2740B47
:1082C000F075820178D2798E7A021200B37582003D
:1082D000786679937A021200B390240BE04480F020
:1082E000E054BFF0E4C0E0900A0178E2798F7A02AE
:1082F0001200B31581906174E0FAA3E0FBEA30E666
:10830000499060A2740CF020271875820178D27908
:108310008E7A021200B3758200786679937A02121F
:1083200000B390240BE04480F0E054BFF0902402AE
:10833000E04408F0E054FBF07402C0E0900A0178D9
:10834000E2798F7A021200B31581906174E0FAA38A
:10835000E0FBEA30E7609060A2740DF0202718750A
:10836000820078D2798E7A021200B3758202786622
:1083700079937A021200B390240BE04480F0E05429
:10838000BFF0902402E04408F0E054FBF030081401
:108390007402C0E090000078E2798F7A021200B394
:1083A000158180127402C0E090030278E2798F7A1E
:1083B000021200B31581906174E0FAA3E0FB20E0A3
:1083C000030284569060A2740EF020271875820074
:1083D00078D2798E7A021200B37582027866799328
:1083E0007A021200B390240BE0547FF090240BE04B
:1083F00054BFF0902402E054F7F0902402E054FBC4
:10840000F090671AE0FA60147404C0E090020478F7
:10841000E2798F7A021200B3158180127402C0E0F3
:1084200090020478E2798F7A021200B3158190608D
:10843000A0E030E121783379897A021200B37582A5
:1084400010785D79897A021200B3758200785D79BF
:10845000897A021200B3906174E0FAA3E0FB20E194
:10846000030285309060A27410F0902401E054FD66
:10847000F0902401E054FEF09060A27411F090247A
:108480000BE0547FF0E04440F0902402E054F7F019
:10849000E04404F07403C0E0900A0178E2798F7A36
:1084A000021200B315819060A27412F090240BE0C8
:1084B000547FF090240BE054BFF0902402E054F776
:1084C000F0902402E054FBF07403C0E090030278C3
:1084D000E2798F7A021200B315819060A27413F0D2
:1084E00090049CE0541FFA900498E0541FFB2AFA71
:1084F0009067D0F0900498E020E5079067D0744032
:108500002AF090089CE0541FFA900898E0541FFB52
:108510002AFA9067D1F0900898E020E5079067D19B
:1085200074402AF0758212785D79897A021200B35C
:10853000906174E0FAA3E0FB20E2030285BD906045
:10854000A27414F075820078D2798E7A021200B388
:10855000758202786679937A021200B39060A274F1
:1085600015F0902401E04402F090240BE04480F0E8
:10857000E054BFF0E4C0E090080278E2798F7A021C
:108580001200B315819060A27416F090240BE05491
:108590007FF090240BE054BFF0E4C0E09004047836
:1085A000E2798F7A021200B31581758201785D79C4
:1085B000897A021200B3902401E054FDF0906174B6
:1085C000E0FAA3E0FB20E4030287649060A2741841
:1085D000F020271875820078D2798E7A021200B3C3
:1085E000758202786679937A021200B3902404E0CF
:1085F00054BFF0902401E04401F07A007B007582C2
:1086000002C002C003782579887A021200B3D00331
:10861000D0029060A27419F090240BE04480F0E046
:1086200054BFF020271BC002C003E4C0E0900A0240
:1086300078E2798F7A021200B31581D003D00280DC
:1086400019C002C003E4C0E090080278E2798F7A92
:10865000021200B31581D003D0029060A2741AF008
:1086600090240BE0547FF0E04440F020271BC00230
:10867000C003E4C0E090080478E2798F7A02120027
:10868000B31581D003D0028019C002C003E4C0E05A
:1086900090060478E2798F7A021200B31581D00334
:1086A000D0029060A2741CF0EB7016758202C002BA
:1086B000C003785D79897A021200B3D003D00280BA
:1086C0002DEA7016758203C002C003785D79897A3D
:1086D000021200B3D003D0028014758204C002C01D
:1086E00003785D79897A021200B3D003D0029060DA
:1086F000A2741BF09060A0E030E35BEB701F7B0185
:10870000906666E0FCC002C003906705E0C0E08CA4
:10871000821217DF1581D003D0020285FEEA701F96
:108720007A01906666E0FCC002C003906707E0C073
:10873000E08C821217DF1581D003D0020285FE90F3
:108740006706E0FA906667F0906666E0FBC0028B11
:10875000821217DF1581902401E054FEF09024046A
:10876000E04440F0906174E0FAA3E0FB20E60302ED
:10877000881390604FE030E6030288139060A27483
:1087800021F0902580E04401F090605AE020E22042
:10879000758201782579887A021200B3781079877A
:1087A0007A021200B3788B79867A021200B3800FB6
:1087B000906039E0F582788B79867A021200B39066
:1087C00060A27422F0902580E04404F0E054FBF0B5
:1087D00090605AE030E21474FFC0E090200878E224
:1087E000798F7A021200B31581801274FFC0E09075
:1087F0000A0578E2798F7A021200B315819060A29F
:108800007423F0784379847A021200B3AA829061CB
:1088100070EAF090605AE020E21C2008199060A2F3
:108820007424F0758201782579887A021200B39059
:108830002580E054FEF09060A27425F0851881D068
:04884000180200C555
:020000040000FA
:1000F700D315D3111003D775905500400002800126
:0A0107000010D3019300D755D30573
:020000040001F9
:10884400902402E054EFF0900054E04408F09000CB
:1088540054E04404F0900054E04402F0902401E019
:108864004404F0902418E054EFF0902418E054DF0E
:10887400F0902405E054FEF0902405E054F7F03025
:108884002710902400E0540F44C0F0902405E044E5
:1088940002F00200C590604CE020E40302897A9063
:1088A400604CE030E30302897A90604CE030E503E9
:1088B40002897A9066FCE0FA600302897A90672A5A
:1088C400E0FA600302897A90663AE02401F0906647
:1088D4003AE0FA7403B50200400302897A90663ADA
:1088E400E4F0758201782579887A021200B37887DA
:1088F400798D7A021200B3902409E4F0902408E000
:10890400FA53020D902408EAF090240AE04440F05F
:10891400902405E054FDF0902405E054FEF09024EA
:1089240005E054F7F0902400E044F0F07404C0E053
:1089340090101078E2798F7A021200B3158178874B
:10894400798D7A021200B3902408E0FA5302F09071
:108954002408EAF090240AE054BFF07404C0E090C4
:10896400100178E2798F7A021200B3158178337995
:10897400897A021200B30200C590604CE030E02B0B
:10898400900264E030E209900264E054FBF0802D30
:10899400900264E04404F0789979887A011200B373
:1089A400786B799C7A021200B38012789979887A6C
:1089B400011200B3786B799C7A021200B30200C5ED
:020000040002F8
:10840700C018858118AA82AB83ACF0FDE51824F962
:10841700F8C3E69A08E69B08E69C08E69D50098A99
:10842700828B838CF0ED800FE51824F9F88682089B
:1084370086830886F008E6D0180200C5C018E581D3
:10844700F5182408F581902560E0FAA3E0FBA3E086
:10845700FCA3E0FDE5182405F8A60208A60308A674
:108467000408A605902564E0FEA3E0FFA3E0FAA3B5
:10847700E0FBC006C007C002C003E5182405F88664
:10848700820886830886F008E6780779847A0212DC
:1084970000B3AA82AB83ACF0FDE58124FCF581E54E
:1084A700182405F8A60208A60308A60408A605903E
:1084B7002568E0FAA3E0FBA3E0FCA3E0FDC002C04F
:1084C70003C004C005E5182405F8868208868308DA
:1084D70086F008E6780779847A021200B3AA82AB9D
:1084E70083ACF0FDE58124FCF581E5182405F8A6A9
:1084F7000208A60308A60408A60590256CE0FAA3BF
:10850700E0FBA3E0FCA3E0FDC002C003C004C0057C
:10851700E5182405F886820886830886F008E67839
:108527000779847A021200B3AA82AB83ACF0FDE527
:108537008124FCF581E5182405F8A60208A603089E
:10854700A60408A605902570E0FAA3E0FBA3E0FCCB
:10855700A3E0FDA81808A60208A60308A60408A613
:1085670005902574E0FEA3E0FFA3E0FAA3E0FBC0BB
:1085770006C007C002C003A81808868208868308B9
:1085870086F008E6780779847A021200B3AA82ABEC
:1085970083ACF0FDE58124FCF581A81808A6020844
:1085A700A60308A60408A605902578E0FAA3E0FB31
:1085B700A3E0FCA3E0FDC002C003C004C005A818E7
:1085C7000886820886830886F008E6780779847A21
:1085D700021200B3AA82AB83ACF0FDE58124FCF55F
:1085E70081A81808A60208A60308A60408A60590ED
:1085F700257CE0FAA3E0FBA3E0FCA3E0FDC002C0FA
:1086070003C004C005A8180886820886830886F078
:1086170008E6780779847A021200B3AA82AB83ACA2
:10862700F0FDE58124FCF581A81808A60208A60339
:1086370008A60408A60590E6AEE0FAE4FBFCFDE513
:10864700182405F8C3E69A08E69B08E69C08E69D09
:108657005005758200802590E6ACE0FAA3E0FB7C2C
:10866700007D00A81808C3EA96EB0896EC0896ED7B
:10867700089650057582008003758201851881D0A0
:10868700180200C5AA82902440EA543FF5F0E0544E
:10869700C045F0F0902441EA543FF5F0E054C0455E
:1086A700F0F0902442EA543FF5F0E054C045F0F072
:1086B700902443EA543FF5F0E054C045F0F090248D
:1086C70060EA543FF5F0E054C045F0F0902461EAC9
:1086D700543FF5F0E054C045F0F0902462EA543F6F
:1086E700F5F0E054C045F0F0902463EA543FF5F00C
:1086F700E054C045F0F0902430740FF0E4F090247B
:1087070034740FF0E4F00200C5906158E0FA90610C
:1087170059E0FBC0038A82781D79D17A021200B32F
:10872700AB8215818B0290615AE0FBC0038A827885
:108737001D79D17A021200B3AB8215818B02906149
:108747005BE0FBC0038A82781D79D17A021200B3FD
:10875700AB8215818B0290615CE0FBC0038A827853
:108767001D79D17A021200B3AB8215818B02906119
:108777005DE0FBC0038A82781D79D17A021200B3CB
:10878700AB8215818B0290615EE0FBC0038A827821
:108797001D79D17A021200B3AB8215818B029061E9
:1087A7005FE0FBC0038A82781D79D17A021200B399
:1087B700AB8215818B0290E6AFE0C4540FFB8BF0C0
:1087C70005F0EA8002C313D5F0FBFA90E6AFE05458
:1087D7000FFB2AFAF5820200C5902403E04420F03B
:1087E700E054DFF0E04402F0902403E054FDF0E0B1
:1087F7004401F0E054FEF0758B9C758DFFD28EC25C
:108807000320031790240BE030E5F678E779D07A58
:10881700021200B390240BE030E5E60200C5AA82FD
:10882700BA01028008BA0202805F0289297440C037
:10883700E0E4C0E07478C0E07461C0E0E4C0E090B8
:10884700244075F000785A79D27A021200B3E58194
:1088570024FBF58190243074FFF0A3F0A3F0A374F8
:108867007FF0902430E4F0A3F0A3F0A3F090243439
:1088770074FFF0A3F0A3F0A3747FF0902434E4F026
:10888700A3F0A3F0A3F0028929906178E090244037
:10889700543FF5F0E054C045F0F0906179E0902442
:1088A70041543FF5F0E054C045F0F090617AE09014
:1088B7002442543FF5F0E054C045F0F090617BE06E
:1088C700902443543FF5F0E054C045F0F090619890
:1088D700E0902460543FF5F0E054C045F0F090611B
:1088E70099E0902461543FF5F0E054C045F0F090D2
:1088F700619AE0902462543FF5F0E054C045F0F0EF
:1089070090619BE0FA902463543FF5F0E054C04532
:10891700F0F0902430740FF0E4F0902434740FF0EA
:10892700E4F090240BE030E5F90200C57440C0E0A4
:10893700E4C0E07480C0E07424C0E0E4C0E090616B
:108947007875F000785A79D27A021200B3E581245B
:10895700FBF5810200C5AA82BA00028027BA01038B
:108967000289E1BA0203028A25BA0303028A69BAB5
:108977000403028AADBA1003028AF1BA1203028B0A
:108987001B028BF49024D0E0906148F09024D1E052
:10899700906149F09024D2E090614AF09024D3E0AE
:1089A70090614BF09024F0E090614CF09024F1E05E
:1089B70090614DF09024F2E090614EF09024F3E046
:1089C700FA90614FF090240BE030E2047A018002C4
:1089D7007A00906171EAF0028BF49024D0E0906104
:1089E70050F09024D1E0906151F09024D2E0906152
:1089F70052F09024D3E0906153F09024F0E090611E
:108A070054F09024F1E0906155F09024F2E09061E9
:108A170056F09024F3E0FA906157F0028BF490241B
:108A2700D0E0906158F09024D1E0906159F0902403
:108A3700D2E090615AF09024D3E090615BF09024EB
:108A4700F0E090615CF09024F1E090615DF090249B
:108A5700F2E090615EF09024F3E0FA90615FF0023B
:108A67008BF49024D0E0906160F09024D1E0906185
:108A770061F09024D2E0906162F09024D3E090619D
:108A870063F09024F0E0906164F09024F1E090614D
:108A970065F09024F2E0906166F09024F3E0FA909C
:108AA7006167F0028BF49024D0E0906168F0902425
:108AB700D1E0906169F09024D2E090616AF090244F
:108AC700D3E090616BF09024F0E090616CF090241B
:108AD700F1E090616DF09024F2E090616EF09024E7
:108AE700F3E0FA90616FF0028BF47440C0E0E4C0E9
:108AF700E074D0C0E07424C0E0E4C0E09061007589
:108B0700F000785A79D27A021200B3E58124FBF596
:108B170081028BF49024C0E0547F9061B8547FF5B4
:108B2700F0E0548045F0F09024C1E0547F9061B9A3
:108B3700547FF5F0E0548045F0F09024C2E0547F74
:108B47009061BA547FF5F0E0548045F0F09024C36B
:108B5700E0547F9061BB547FF5F0E0548045F0F01E
:108B67009024C4E0547F9061BC547FF5F0E05480BA
:108B770045F0F09024C5E0547F9061BD547FF5F037
:108B8700E0548045F0F09024C6E0547F9061BE54D5
:108B97007FF5F0E0548045F0F09024C7E0547F90D3
:108BA70061BF547FF5F0E0548045F0F0902510E068
:108BB700906140F0902511E0906141F0902512E01E
:108BC700906142F0902513E0906143F0902514E006
:108BD700906144F0902515E0906145F0902516E0EE
:108BE700906146F0902517E0FA906147F00200C5C2
:108BF700AA82BA00028009BA0203028C93028D1C72
:108C0700906148E0902440543FF5F0E054C045F0AF
:108C1700F0906149E0902441543FF5F0E054C0459D
:108C2700F0F090614AE0902442543FF5F0E054C0E0
:108C370045F0F090614BE0902443543FF5F0E05449
:108C4700C045F0F090614CE0902460543FF5F0E0AF
:108C570054C045F0F090614DE0902461543FF5F029
:108C6700E054C045F0F090614EE0902462543FF527
:108C7700F0E054C045F0F090614FE0FA902463545F
:108C87003FF5F0E054C045F0F0028D1C906158E0CC
:108C9700902440543FF5F0E054C045F0F0906159FE
:108CA700E0902441543FF5F0E054C045F0F0906166
:108CB7005AE0902442543FF5F0E054C045F0F0905C
:108CC700615BE0902443543FF5F0E054C045F0F079
:108CD70090615CE0902460543FF5F0E054C045F0AB
:108CE700F090615DE0902461543FF5F0E054C04599
:108CF700F0F090615EE0902462543FF5F0E054C0DC
:108D070045F0F090615FE0FA902463543FF5F0E09E
:108D170054C045F0F0902430740FF0E4F090243400
:108D2700740FF0E4F090240BE030E5F90200C5E59C
:108D370082FA602B90604CE030E010900264E054BF
:108D4700E7F090020CE0548FF08026900264E05424
:108D5700E74408F090020CE0548F4430F080129002
:108D67000264E054E74410F090020CE0548F442072
:108D7700F090000A780D79CD7A021200B30200C58F
:108D87009060A4E030E4119024087455F0A3F090AB
:108D9700240AE054C0F0800F90240874FFF0A3F079
:108DA70090240AE0443FF0902401E054FDF0902421
:108DB70001E054FEF090240AE054BFF0902402E052
:108DC70054F7F0902402E054FBF090240BE0547F1A
:108DD700F090240BE054BFF00200C5902401E0C4DA
:108DE700035401FABA0126758B18758DFCD28EC211
:108DF70003902401E054DFF0902402E020E10330E7
:108E070003F6902402E054FEF0C28EC28F0200C522
:108E170090E607E030E203028ECF902401E030E5D0
:108E270003028ECF9066FCE0FABA0103028ECF9060
:108E3700604CE020E40790604CE030E303028ECF03
:108E4700758201782579887A021200B3902406E0AA
:108E5700543F4480F09024077405F07887798D7A21
:108E6700021200B3902408E0FA5302FD902408EAA6
:108E7700F090240AE04440F0902405E054FDF0907F
:108E87002405E054FEF0902405E054F7F0D20DD20B
:108E97000C75820078D2798E7A021200B390240181
:108EA700E04420F0902402E054FEF0E04401F0900A
:108EB700604EE030E712902401E054FBF0E04410EC
:108EC700F0902401E04401F00200C5AA82300C07AB
:108ED700200D047B0C8013200C07300D047B0380CE
:108EE70009BA01047B0C80027B0F9060A4E0540F49
:108EF700F4FA5203902400EBC454F0F5F0E0540F59
:108F070045F0F00200C5900228E003035407FA5326
:108F170002039060A4E054EFF09066417420F09053
:108F270060A4E054DFF0BA0313902402E0547FF00A
:108F3700E04440F09066407408F0804EBA02139007
:108F47002402E04480F0E054BFF09066407404F0DF
:108F57008038BA0121902402E0547FF0E04440F0C9
:108F67009066407402F09060A4E04410F09060A412
:108F7700E04420F08014902402E04480F090240222
:108F8700E04440F09066407401F0900228E003034B
:108F97005407FB30E20B906640E025E0FB9066400B
:108FA700F09066FCE0FB700D906640E0C42354E04F
:108FB700FB906641F0EA7010902402E04420F090A4
:108FC70060A4E054F0F08010902402E054DFF090A9
:108FD70060A4E054F04405F00200C5C0188581186C
:108FE700AA82AB83906038E023235401FCBC0102C2
:108FF70080119066FCE0FCBC01028007902411E020
:1090070020E10302927A90604FE030E71C9024053C
:10901700E0540FF0902406E054C0F0902406E0548A
:109027003FF0902407E4F0804A8B04740F5C90248F
:1090370005C454F0F5F0E0540F45F0F0ECC4540FBC
:10904700FC53043F902406EC543FF5F0E054C04530
:10905700F0F074035AFB902406030354C0F5F0E0C4
:10906700543F45F0F0EA0303543FFA53023F90247C
:1090770007EAF0E51824FCF8E624F9500302915EAC
:10908700E51824FCF8E625E026909094730290A951
:109097000290C50290E20290FB02911102912A020E
:1090A70091439024087401F0902409E4F090240A75
:1090B700E054C0F090240AE054BFF0029175902468
:1090C7000874FFF090240974FFF090240AE054C05C
:1090D700F090240AE054BFF002917590240874FFC1
:1090E700F090240974FFF090240AE0443FF0E05424
:1090F700BFF0807A902408E4F0902409F090240AC5
:10910700E054C0F0E04440F0806490240874FDF01F
:1091170090240974FFF090240AE0443FF0E054BF24
:10912700F0804B90240874F0F090240974FFF090BD
:10913700240AE0443FF0E054BFF0803290240874E2
:109147000DF0902409E4F090240AE0443FF09024C5
:109157000AE04440F08017902408E4F0902409F0D6
:1091670090240AE054C0F090240AE054BFF0E518B8
:1091770024FCF8B6FF02804D9060A0E030E21B901F
:109187002408E0FA530201902408EAF0902409E445
:10919700F090240AE054C0F0802B9060A4E030E502
:1091A7000790240AE054C0F09060A4E030E41690E1
:1091B7002408E0FAA3E0FB53025553035590240813
:1091C700EAF0A3EBF0900264E0C4235403FABA0276
:1091D70002800D902408E0FA5302FD902408EAF07B
:1091E700902402E054FEF0E04401F078E779D07A69
:1091F700021200B3906098E020E45330080C758B9E
:10920700F8758DFFD28EC203800A758B18758DFC99
:10921700D28EC203902402E020E1033003F69024AB
:1092270002E054FEF03003209022C2E0FA0A9022B6
:10923700C2EAF09060A3E0FA4302019060A3EAF06B
:10924700C2039067997401F0C28EC28F800E90247A
:1092570002E030E1F9902402E054FEF0902408E4A3
:10926700F0902409F090240AE054C0F090240AE01A
:1092770054BFF0D0180200C5AA82906016E0FB9098
:109287000224C4235460F5F0E0549F45F0F0BA017E
:1092970002800302932F902403E04440F09061B8CA
:1092A700E0902438547FF5F0E0548045F0F0906169
:1092B700B9E0902439547FF5F0E0548045F0F09000
:1092C70061BAE090243A547FF5F0E0548045F0F01D
:1092D7009061BBE090243B547FF5F0E0548045F06B
:1092E700F09061BCE090243C547FF5F0E054804559
:1092F700F0F09061BDE090243D547FF5F0E054809C
:1093070045F0F09061BEE090243E547FF5F0E054C4
:109317008045F0F09061BFE0FA90243F547FF5F06C
:10932700E0548045F0F08007902403E054BFF090AC
:109337002403E04420F0E054DFF0758B9C758DFF2B
:10934700D28EC20320031590240BE0C4035401FA04
:1093570090240BE0C4035401FB5A60E80200C5AA3D
:1093670082BA00028005BA012D8017902405E044D7
:1093770008F0902405E04401F0902405E04402F051
:10938700803D902405E04408F0E054FEF090240569
:10939700E054FDF08029902405E054F7F090240074
:1093A700E0C4540FFABA0F09902405E054FDF08089
:1093B70007902405E04402F0902405E054FEF002F3
:1093C70000C59066FDE0FA7403B502004072EA2A10
:1093D7002A9093DC730293E80293FF02942102948C
:1093E70035900058E054DFF0900058E054BFF090FB
:1093F7000058E054EFF08048A20DE4339000581372
:10940700E092E5F0A20CE433FA90005813E092E6FC
:10941700F0900058E054EFF08026900058E0442088
:10942700F0900058E04440F0E054EFF080129000D4
:1094370058E054DFF0900058E054BFF0E04410F0DB
:039447000200C55B
:020000040000FA
:10011100906099E0FABA1709782F79C07A02120033
:10012100B3906098E054FEF0902230742BF0227569
:10013100880575895175A91C75B906D2ABD2ADD2A6
:10014100A8D2AAC2A975B83F75C878759A3EC205EA
:10015100C206C207C208906716E4F0C209C20AD2F9
:0D01610003D204C21DC21E9067A5E4F02267
:020000040001F9
:1089C400906038E0547FF0906098E030E11090605F
:1089D4009CE0FAA3E0FB906174EAF0A3EBF09067EB
:1089E40099E4F07A03C002780079807A011200B326
:1089F400D002906799E0FB6027906037E0FBBB01F1
:108A0400109060407401F0906040E0FBBB01028074
:108A1400F68A031AC374808BF063F08095F040C526
:108A2400785F798F7A011200B3785479987A0112B9
:108A340000B3906038E04480F090665DE0FA9060A6
:108A44004AEAF090665EE0FA906049EAF090666463
:108A5400E0FA906048EAF090665FE0FA90604BEAD2
:108A6400F00200C590614AE0FA90614BE0FBC0025D
:108A74008B8278F479D07A021200B3AB8215818BA1
:108A84000290614EE0FBC0028B8278F479D07A02C6
:108A94001200B3AB8215818B0290614FE0FBC002E0
:108AA4008B8278F479D07A021200B3AB821581906C
:108AB4006648EBF0906148E0FA906149E0FBC0023F
:108AC4008B8278F479D07A021200B3AB8215818B51
:108AD4000290614CE0FBC0028B8278F479D07A0278
:108AE4001200B3AB8215818B0290614DE0FBC00292
:108AF4008B8278F479D07A021200B3AA821581901D
:108B04006647EAF090614AE0FA7B0090614BE0FC32
:108B14007D00EC2AFAED3BFB90614EE0FC7D00EC1D
:108B24002AFAED3BFB90614FE0FC7D00EC2AFAED64
:108B34003BA2E713CA13CAA2E713CA13CA90664634
:108B4400EAF0906148E0FA7B00906149E0FC7D0026
:108B5400EC2AFAED3BFB90614CE0FC7D00EC2AFA38
:108B6400ED3BFB90614DE0FC7D00EC2AFAED3BA26D
:108B7400E713CA13CAA2E713CA13CA906645EAF0F8
:108B8400906152E0FA7B00906153E0FC7D00EC2A96
:108B9400FAED3BFB906156E0FC7D00EC2AFAED3BDC
:108BA400FB906157E0FC7D00EC2AFAED3BA2E71351
:108BB400CA13CAA2E713CA13CA90664AEAF09061BC
:108BC40050E0FA7B00906151E0FC7D00EC2AFAED64
:108BD4003BFB906154E0FC7D00EC2AFAED3BFB90FA
:108BE4006155E0FC7D00EC2AFAED3BA2E713CA13C1
:108BF400CAA2E713CA13CA906649EAF090610CE06E
:108C0400FA3395E0FB90612CE0FC3395E0FDEC2A0F
:108C1400FAED3BA2E713CA13CA90664BEAF09061DF
:108C240004E0FA3395E0FB906105E0FC3395E0FD48
:108C3400EC2AFAED3BFB906124E0FC3395E0FDEC7B
:108C44002AFAED3BFB906125E0FC3395E0FDEC2A2C
:108C5400FAED3BA2E713CA13CAA2E713CA13CA90D8
:108C6400664CEAF0906106E0FA3395E0FB90610708
:108C7400E0FC3395E0FDEC2AFAED3BFB906126E045
:108C8400FC3395E0FDEC2AFAED3BFB906127E0FC18
:108C94003395E0FDEC2AFAED3BA2E713CA13CAA20E
:108CA400E713CA13CA90664DEAF0906108E0FA33FC
:108CB40095E0FB906109E0FC3395E0FDEC2AFAEDC8
:108CC4003BFB906128E0FC3395E0FDEC2AFAED3B98
:108CD400FB906129E0FC3395E0FDEC2AFAED3BA220
:108CE400E713CA13CAA2E713CA13CA90664EEAF07E
:108CF40090610AE0FA3395E0FB90610BE0FC339558
:108D0400E0FDEC2AFAED3BFB90612AE0FC3395E0B0
:108D1400FDEC2AFAED3BFB90612BE0FC3395E0FD82
:108D2400EC2AFAED3BA2E713CA13CAA2E713CA134B
:108D3400CA90664FEAF090610DE0FA3395E0FB903B
:108D4400612DE0FC3395E0FDEC2AFAED3BA2E7133C
:108D5400CA13CA906650EAF090610EE0FA3395E0C7
:108D6400FB90612EE0FC3395E0FDEC2AFAED3BA28A
:108D7400E713CA13CA906651EAF090610FE0FA3320
:108D840095E0FB90612FE0FC3395E0FDEC2AFAEDD1
:108D94003BA2E713CA13CA906652EAF0906110E04E
:108DA400FA3395E0FB906130E0FC3395E0FDEC2A6A
:108DB400FAED3BA2E713CA13CA906653EAF0906136
:108DC4005AE0FA7B0090615BE0FC7D00EC2AFAED4E
:108DD4003BFB90615EE0FC7D00EC2AFAED3BFB90EE
:108DE400615FE0FC7D00EC2AFAED3BA2E713CA13B5
:108DF400CAA2E713CA13CA906655EAF0906158E014
:108E0400FA7B00906159E0FC7D00EC2AFAED3BFB13
:108E140090615CE0FC7D00EC2AFAED3BFB90615D27
:108E2400E0FC7D00EC2AFAED3BA2E713CA13CAA2C8
:108E3400E713CA13CAFB906654EAF09060A0E020DE
:108E4400E303028EC6906162E0FA7B00906163E006
:108E5400FC7D00EC2AFAED3BFB906166E0FC7D00B2
:108E6400EC2AFAED3BFB906167E0FC7D00EC2AFA0A
:108E7400ED3BA2E713CA13CAA2E713CA13CA90664A
:108E840057EAF090616AE0FA7B0090616BE0FC7D48
:108E940000EC2AFAED3BFB90616EE0FC7D00EC2ACD
:108EA400FAED3BFB90616FE0FC7D00EC2AFAED3BB0
:108EB400A2E713CA13CAA2E713CA13CAFB906659DE
:108EC400EAF0906170E090665AF0906174E0FAA361
:108ED400E0FB20E103028F5C902510E0FA3395E07B
:108EE400FB902511E0FC3395E0FDEAC39CFAEB9D71
:108EF400FB902514E0FC3395E0FDEC2AFAED3BFBF6
:108F0400902515E0FC3395E0FDEAC39CFAEB9D8ABD
:108F14000490665BECF0902512E0FA3395E0FB9048
:108F24002513E0FC3395E0FDEAC39CFAEB9DFB902E
:108F34002516E0FC3395E0FDEC2AFAED3BFB902589
:108F440017E0FC3395E0FDEAC39CFAEB9DFB9066C9
:108F54005CEAF0906798E4F00200C5C018858118B7
:108F640005817868798A7A011200B3300D37200CB4
:108F740034906649E090665FF0906645E090665EE6
:108F8400F0906647E090665DF090664CE090666015
:108F9400F090664EE0906661F0906654E0FA906658
:108FA40064F00290C2200D37300C3490664AE09091
:108FB400665FF0906646E090665EF0906648E090EA
:108FC400665DF090664DE0906660F090664FE090CC
:108FD4006661F0906655E0FA906664F00290C29083
:108FE4006649E0FA7B0090664AE0FC7D002AFAEDCF
:108FF4003BFB0ABA00010BEBA2E713CA13CA906643
:109004005FEAF0906645E0FA7B00906646E0FC7DFE
:10901400002AFAED3BFB0ABA00010BEBA2E713CAE4
:1090240013CA90665EEAF0906648E0FA906647E0FC
:10903400FBC0028B8278F479D07A021200B3AA8240
:10904400158190665DEAF090664CE0FA3395E0FB9A
:1090540090664DE0FC3395E0FDEC2AFAED3BFB0A0B
:10906400BA00010BEBA2E713CA13CA906660EAF0D8
:1090740090664EE0FA3395E0FB90664FE0FC339542
:10908400E0FDEC2AFAED3BFB0ABA00010BEBA2E788
:1090940013CA13CA906661EAF0906654E0FA7B0042
:1090A400906655E0FC7D002AFAED3BFB0ABA00010C
:1090B4000BEBA2E713CA13CAFB906664EAF090664E
:1090C4005FE0FA90665EE0FBEAC39B906662F09014
:1090D4006662E0FA74C1C0E0743FC0E08A827846F8
:1090E40079D17A021200B3AA821581158190666241
:1090F400EAF090664BE0F582782379D27A02120086
:10910400B3E582FA3395E0FB906660E0F582C00235
:10911400C003782379D27A021200B3AC82D003D090
:1091240002EC3395E0FDEC2AFAED3BFB906661E03E
:10913400F582C002C003782379D27A021200B3AC5C
:1091440082D003D002EC3395E0FDEC2AFAED3BFB30
:10915400906650E0F582C002C003782379D27A0287
:109164001200B3AC82D003D002EC3395E0FDEC2ABC
:10917400FAED3BFB906651E0F582C002C003782310
:1091840079D27A021200B3AC82D003D002EC3395C8
:10919400E0FDEC2AFAED3BFB90604DE02323540103
:1091A400FCB40100E433FC604A90665DE0FC90602E
:1091B40067E0FDECB50500B3E433FD703190606EFB
:1091C400E0FDECB50500B3E433FC601690606DE09F
:1091D400FC7D00C3EA9CEB64808DF063F08095F025
:1091E40040047A0080027A01EA7003FA80027A016C
:1091F400EA70047A0080027A0190666BEAF090606B
:109204004DE023235401FAB40100E433FA6048909A
:10921400664BE0F582782379D27A021200B3AA82EF
:10922400906066E0FBEAB50300B3E433FB7023907F
:109234006660E0F582782379D27A021200B3AA82BA
:1092440090606FE0FBEAB50300B3E433FB7003FA0C
:1092540080027A01EA70047A0080027A0190666CD6
:10926400EAF090666BE0700990666CE07003FA8037
:10927400027A0190666DEAF0E0FA90240BE020E3B4
:109284000B90240BE020E4047B0080027B01EB4282
:109294000290666DEAF0906664E0FA90604FE054E4
:1092A4003FFB8A04C3EB64808CF063F08095F0503C
:1092B4000690665AE070047B0080027B0190666E23
:1092C400EBF090604DE0541FFB8A04C3EC64808B88
:1092D400F063F08095F0B3E433FC600690665AE0E6
:1092E40070047B0080027B0190666FEBF090665FF8
:1092F400E0FB90665EE0FCEBB5040040048C058066
:1093040007EB2BFEC39CFCFD90665AE06010906056
:109314000AE020E2028D02906663EAF0800590661E
:1093240063E4F0906088E05401FA906089E05401AD
:10933400FCE4CC25E0CC33FDEC24FFF582ED34FFD6
:10934400F5837C00C002C003C00412655CAB82AC30
:109354008315811581900050E0C4235403909963D0
:1093640093FD3395E0FEC005C0068B828C831265A5
:109374005CAB82AC8315811581D0027D00C003C033
:10938400048A828D8312655CAA82AB831581158160
:10939400906672EAF0A3EBF0906088A81808E003E6
:1093A4005401F6906089E0035401FDE4CD25E0CD3D
:1093B40033FE1DBDFF011E90664BE0FF3395E0FCBC
:1093C400C002C003C007C0048D828E8312655CACEA
:1093D40082AD8315811581900050E0035403909968
:1093E4006793FE3395E0FFC006C0078C828D83121D
:1093F400655CAC82AD8315811581A8180886067F4B
:1094040000C004C0058E828F8312655CAC82AD837C
:1094140015811581D003D002EC2AFAED3BFB90664E
:1094240072EAF0A3EBF0906088A81808E0030354F4
:1094340001F6906089E003035401FDE4CD25E0CDFD
:1094440033FE1DBDFF011E906660E0FF3395E0FC16
:10945400C002C003C007C0048D828E8312655CAC59
:1094640082AD8315811581900050E0540190996B71
:1094740093FE3395E0FFC006C0078C828D8312658E
:109484005CAC82AD8315811581A8180886067F001F
:10949400C004C0058E828F8312655CAC82AD8315D7
:1094A400811581D003D002EC2AFAED3BFB90667261
:1094B400EAF0A3EBF0906088A81808E0C4235401F4
:1094C400F6906089E0C4235401FDE4CD25E0CD335A
:1094D400FE1DBDFF011E906661E0FF3395E0FCC0F8
:1094E40002C003C007C0048D828E8312655CAC8207
:1094F400AD8315811581900050E0540190996D93CE
:10950400FE3395E0FFC006C0078C828D8312655C34
:10951400AC82AD8315811581A8180886067F00C02A
:1095240004C0058E828F8312655CAC82AD83158185
:109534001581D003D002EC2AFAED3BFB906672EA67
:10954400F0A3EBF0906088A81808E0C45401F690EA
:109554006089E0C45401FDE4CD25E0CD33FE1DBD9A
:10956400FF011E906650E0FF3395E0FCC002C0038B
:10957400C007C0048D828E8312655CAC82AD8315F6
:10958400811581900050E0540190996F93FE3395BA
:10959400E0FFC006C0078C828D8312655CAC82AD8F
:1095A4008315811581A8180886067F00C004C005AC
:1095B4008E828F8312655CAC82AD8315811581D058
:1095C40003D002EC2AFAED3BFB906672EAF0A3EBBF
:1095D400F0906088A81808E0C4035401F6906089EC
:1095E400E0C4035401FDE4CD25E0CD33FE1DBDFFF1
:1095F400011E906651E0FF3395E0FCC002C003C039
:1096040007C0048D828E8312655CAC82AD831581A4
:109614001581900054E023540190997193FE339581
:10962400E0FFC006C0078C828D8312655CAC82ADFE
:109634008315811581A8180886067F00C004C0051B
:109644008E828F8312655CAC82AD8315811581D0C7
:1096540003D002EC2AFAED3BFB906672EAF0A3EB2E
:10966400F0906088A81808E023235401F6906089DC
:10967400E023235401FDE4CD25E0CD33FE1DBDFFE1
:10968400011E906652E0FF3395E0FCC002C003C0A7
:1096940007C0048D828E8312655CAC82AD83158114
:1096A4001581900054E023540190997193FE3395F1
:1096B400E0FFC006C0078C828D8312655CAC82AD6E
:1096C4008315811581A8180886067F00C004C0058B
:1096D4008E828F8312655CAC82AD8315811581D037
:1096E40003D002EC2AFAED3BFB906672EAF0A3EB9E
:1096F400F0906088A81808E0235401F6906089E08F
:10970400235401FDE4CD25E0CD33FE1DBDFF011E34
:10971400906653E0FF3395E0FCC002C003C007C06D
:10972400048D828E8312655CAC82AD8315811581B4
:10973400900054E023540190997193FE3395E0FF17
:10974400C006C0078C828D8312655CAC82AD831524
:10975400811581A8180886067F00C004C0058E8282
:109764008F8312655CAC82AD8315811581D003D0E3
:1097740002EC2AFAED3BFB906672EAF0A3EBF0E40C
:10978400C0E074FCC0E0E4C0E07404C0E08A828BF2
:109794008378C779D17A021200B3AA82AB83E581B8
:1097A40024FCF581906672EAF0A3EBF0906672E017
:1097B400FAA3E0FB906057E0FC90665EE0FDC2D542
:1097C4008DF0EC30E704B2D5F404A430D50AF424C7
:1097D40001C5F0F43400C5F0FCAEF0900050E0C4D4
:1097E40023540390996393FD3395E0FFC002C003B3
:1097F400C005C0078C828E8312655CAC82AD831574
:10980400811581D003D002EDC4CCC4540F6CCC5468
:109814000FCC6CCC30E30244F0FDEAC39CFAEB9D20
:10982400FB9066CFE0FC3395E0FDEAC39CF582EB48
:109834009DF583783A79D27A021200B3AA82AB8377
:10984400906670EAF0A3EBF0851881D0180200C589
:1098540090665AE07003FA804D906664E0FB906075
:109864004EE05407FC8B05C3ED64808CF063F080FC
:1098740095F050047A01802E90604DE0541FFCC393
:10988400EB64808CF063F08095F050047A028016CB
:1098940090666DE060047A03800C90666EE070045C
:1098A4007A0480027A05906668EAF00200C590673F
:1098B4002AE0FABA010280089066FCE0FABA0103D1
:1098C40002996090604CE030E30302996090604C30
:1098D400E020E50790671AE0FA600302996090605F
:1098E40047E020E103029960902401E020E5028032
:1098F4006B78E2798D7A021200B3900107E493FA4F
:10990400A3E493FB906174EAF0A3EBF07800798010
:109914007A011200B3906158E0FA7B00906159E03B
:10992400FC7D00EC2AFAED3BFB90615CE0FC7D00E1
:10993400EC2AFAED3BFB90615DE0FC7D00EC2AFA39
:10994400ED3BA2E713CA13CAA2E713CA13CA906075
:10995400A1EAF07817798E7A021200B30200C503E7
:10996400040607030406070305030502030102C0F6
:1099740018E581F5182405F581900228E0030354C5
:1099840007FA53020390605AE003035401FBBB013E
:10999400028003029B2D906038E030E303029B2D8C
:1099A400C00278E2798D7A021200B3D0029000608E
:1099B400E0C4035401906722F090005CE00354017A
:1099C400906723F0902400E0C4540F906724F09033
:1099D4002406E0543FFBE4CBC4CB6BCB54F0CB6BFD
:1099E400FC902405E0C4540FFD7E009067CCED4B41
:1099F400F0EE4CA3F0900058E02323540190672725
:109A0400F0900058E0C4035401906728F0902410AB
:109A1400E0C45401906729F09066FCE0FB90679ADB
:109A2400F09066FCE4F0BA0309900060E04420F092
:109A3400800ABA020790005CE04402F090605AE0A9
:109A440030E01DD20CC20DEA700B902400E0540FDC
:109A540044C0F08026902400E0540F4480F0801B22
:109A6400C20CD20DEA700B902400E0540F4430F085
:109A74008009902400E0540F4420F0902408E4F07E
:109A8400A3F090240AE054C0F090240AE054BFF0FC
:109A9400902406E0543F4480F09024077402F09030
:109AA4002405E0540F4450F0902406E054C0F078AC
:109AB4003379897A021200B3782F79C07A021200BE
:109AC400B3900028E003547F906045F090223074F6
:109AD4002BF0A20DE43390005813E092E5F0A20CB1
:109AE400E43390005813E092E6F0900058E054EF0D
:109AF400F0789079A77A011200B3902580E04401B0
:109B0400F0906059E054FCF0906058E4F0906713D2
:109B1400F0A3F090672A7401F0906038E04408F0F4
:109B2400902230742BF0029F4590605AE003035456
:109B340001FABA01028003029E5C906038E0C423FB
:109B44005401FABA01028003029E5C906038E0C4BA
:109B54005401FABA01028003029E5C906059E054F9
:109B640003FA30E11A906059E05403FB7A0043038E
:109B7400FC906058E0FC7D004202ED4203801990A5
:109B84006059E05403FD7C00906058E0FE7F004281
:109B940004EF42058C028D03906713E0FCA3E0FD03
:109BA400EAC39CF582EB9DF583C002C003784A7931
:109BB400947A021200B3D003D002906713EAF0A3A0
:109BC400EBF09060B0E4F09060ACF0A3F0A3F0A3ED
:109BD400F09060B2E4F09060A8F0A3F0A3F0A3F0DA
:109BE4009060B1E4F09060E0F0A3F0A3F0A3F090F3
:109BF40060B3E4F09060DCF0A3F0A3F0A3F0906015
:109C0400A5E0540FFABA030050047B03800F740CD0
:109C1400B5020050047C0C80028A048C038B021A67
:109C24001A1AEA2A25E0240FFAE434A0FB90010171
:109C3400E493FCA3E493FD906174ECF0A3EDF0C015
:109C440002C003780079807A011200B3D003D002F5
:109C5400A818087600A81808B602004003029DDA86
:109C6400C002C0039060B0E0FDA81808E675F002D9
:109C7400A4FEE5F0CE25E0CE33CE25E0CE33FFEED4
:109C84002470FAEF3425FB7C00C003C005C006C075
:109C940007C002C003C0049060AC75F000784D7931
:109CA4009F7A011200B3AA82158115811581D0070C
:109CB400D006D005D003EA2D9060B0F09060B2E0F9
:109CC400FAEE2460FEEF3425FF7B00C002C006C01C
:109CD40007C0039060A875F000784D799F7A01124F
:109CE40000B3AB82158115811581D002EB2AFA905D
:109CF40060B2F0E0FEA81808E6B40100E433D00333
:109D0400D00260079025F3E0FC80069025F1E0FD89
:109D1400FCC002C003EC2E9060B2F09060B1E0FC95
:109D2400A81808E675F002A4FDE5F0CD25E0CD33D2
:109D3400CD25E0CD33FEED2474FFEE3425FA7B000F
:109D4400C003C004C005C006C007C002C0039060C1
:109D5400E075F000784D799F7A011200B3AA82155C
:109D64008115811581D006D005D004D003EA2C904A
:109D740060B1F09060B3E0FAED2464FDEE3425FEAA
:109D84007B00C002C005C006C0039060DC75F00013
:109D9400784D799F7A011200B3AB82158115811534
:109DA40081D002EB2AFA9060B3F0E0FEA81808E62E
:109DB400B40100E433D003D00260079025F2E0FC44
:109DC40080069025F0E0FDFCEC2EFC9060B3F0A83A
:109DD400180806029C599060B2E0FCA8180808A66E
:109DE40004087600087600087600A8180808E60833
:109DF4000808F618181876000876000876009060AF
:109E0400A8E0A3E0FDA3E0FEA3E0FF8D048E058F90
:109E1400067F00A8180808EC46F6ED0846F6EE089A
:109E240046F6EF0846F68A828B83E493FCA3E49318
:109E3400FDA3E493FEA3E493FFA8180808C3E69CDB
:109E440008E69D08E69E08E69F5003029C31906058
:109E540038E054EFF0029F4590672AE0FABA010215
:109E64008003029F4590605AE030E203029F4590D0
:109E74002580E054FEF0906038E054F7F0906038AC
:109E8400E054EFF090672AE4F0906727E0900058E0
:109E940013E092E6F0906728E090005813E092E512
:109EA400F0782F79C07A021200B3906722E0900014
:109EB4006013E092E5F0906723E090005C13E09279
:109EC400E1F0906724E0902400C454F0F5F0E054ED
:109ED4000F45F0F09067CCE0FAA3E0FB740F5A90C2
:109EE4002405C454F0F5F0E0540F45F0F0EBC4CA77
:109EF400C4540F6ACA540FCA6ACA53023F90240654
:109F0400EA543FF5F0E054C045F0F0906729E09042
:109F1400241013E092E4F090679AE09066FCF075E8
:109F24008202782579887A021200B3902230742B49
:109F3400F090604CE020E5097817798E7A021200DF
:109F4400B3851881D0180200C5C018858118C08255
:109F5400C083C0F0E581240BF581A8180886820827
:109F640086830886F0E5182404F9126641F7A312E3
:109F7400664109F7A312664109F7A312664109F77E
:109F8400E51824FAF886030886040886028B828C76
:109F9400838AF0E5182408F8126641F6A312664194
:109FA40008F6A312664108F6A312664108F6E518FE
:109FB4002404F8E5182408F9E726FE09E70836FF23
:109FC40009E70836FA09E70836FBA8180886820864
:109FD40086830886F0EE126543A3EF126543A3EA75
:109FE400126543A3EB126543E5182408F8C3EE9603
:109FF400EF0896EA0896EB089650057582018003EF
:10A00400758200851881D0180200C504000000285C
:10A0140000000087010000430F000096980000E252
:10A02400F50500CB9A3B00E50B5402E8764817117E
:03A03400A5D4E8C8
:020000040000FA
:1000DB009067D77401F09067D8E4F09067D9E4F09B
:0900EB00A3F09067DBE4F0A3F040
:100213007A147B00000000000000000000001ABAFE
:10022300FF011BEA4B60030202172290223374FF83
:10023300F090220BE0547FF075F70175F70122C0AF
:10024300E0C082C083C0D075D010C2AF9022337497
:10025300F0F0C28DC28C90223374FFF0D2AFD0D0B5
:10026300D083D082D0E032C0D075D010C2AFC28E5E
:10027300C28FD203D2AFD0D032C0E0C082C083C01D
:10028300D075D010C2AF90223374F2F075C878C223
:10029300C6D204906033E020E50302033A2006034C
:1002A30002033A9066D1E0FA700302033A90260300
:1002B300E020E410902600E0547FF0902601E04413
:1002C30001F08032902609E0FA20E71C90A316E0A3
:1002D3005407FABA03028010902600E04480F0909D
:1002E3002601E04401F0800E902600E04480F09067
:1002F3002601E054FEF0902603E020E71C9021261F
:10030300E020E215906083E04480F0902600E05402
:100313007FF0902601E054FEF0906083E04440F0CB
:10032300906083E04402F0902603E04408F090607C
:1003330083E04408F0802D902603E020E026300778
:10034300239066D1E0FA601C902602E04480F0908E
:100353006083E04401F0906083E04410F090608398
:10036300E04420F090223374FFF0D2AFD0D0D0839A
:10037300D082D0E032C0E0C082C083C0D075D0103C
:10038300902233740DF074FFF0D0D0D083D082D09C
:10039300E032C0E0C082C083C0D075D010C2AF903D
:1003A30022337403F090201BE030E1089020537453
:1003B30002F0E4F090201BE030E236902053740406
:1003C300F0E4F090A31BE020E527902007E020E570
:1003D30020902200E0FA90E650E0FBEAB513129079
:1003E300A34E740EF0740CF07408F0E4F09022360F
:1003F300F090224EE054F7F090224EE054FBF0E0F0
:100403004408F090224EE04404F090223374FFF04D
:10041300D2AFD0D0D083D082D0E032C0D075D0104C
:10042300D0D032C0D075D010D0D032C0E0C082C09E
:1004330083C0D075D0107A00C2AF9022337409F014
:1004430090201BE030E010902200E0FB90E650E0AB
:10045300FCEBB514027A0190201BE0FB54E170031E
:100463000205FB90205374FBF0E4F090662BE0FB55
:10047300600B90223374FFF0D2AF02060E9022304D
:10048300E0FBBB1A028012BB1D028046BB2F028019
:1004930008BB30028003020551902007E0C40354D7
:1004A30001FBBB010B9022367401F0D2050205FB60
:1004B300EA70030205FB902231741AF09022337420
:1004C300FFF090220BE0547FF075F70175F70102FE
:1004D30005FB902007E020E52C902231741AF09060
:1004E3002236E4F0902002E054FBF0902102E05425
:1004F300BFF090223374FFF090220BE0547FF0752D
:10050300F70175F701902007E020E41E902002E038
:1005130054FBF0902002E054FBF0902002E054FBE7
:10052300F0902003E054BFF0800E902003E044409D
:10053300F0902002E04404F0902102E00303540110
:10054300FABA010280030205FBD2050205FB9020E3
:1005530007E020E52A902231741AF0902002E0543B
:10056300FBF0902102E054BFF090223374FFF0902F
:10057300220BE0547FF075F70175F7010205FB903C
:100583002007E020E41E902002E054FBF0902002BC
:10059300E054FBF0902002E054FBF0902003E05481
:1005A300BFF0800E902003E04440F0902002E0442E
:1005B30004F0902102E020E22790E604E020E72007
:1005C300902102E054BFF0902231741DF090223349
:1005D30074FFF090220BE0547FF075F70175F7017B
:1005E300902102E020E21190E604E0235401FABADC
:1005F300010690223A7401F0902264E054FEF0E088
:100603004401F090223374FFF0D2AFD0D0D083D026
:1006130082D0E032C0E0C082C083C0D075D010C2A7
:10062300AF9022337402F07A0090202BE030E6235F
:100633009020577440F0E4F090214CE030E01490A7
:100643002102E054BFF0902053E04408F0E054F757
:10065300F07A0190202BE030E7189020577480F057
:10066300E4F0902003E030E609902002E054FBF030
:100673007A01EA603890A316E05407FABA04159099
:1006830022317403F0902238E0FA431201902238A9
:10069300EAF080069022317419F090223374FFF04F
:1006A30090220BE0547FF075F70175F70190223328
:1006B30074FFF0D2AFD0D0D083D082D0E032C0E08C
:1006C300C082C083C0D075D010C2AF902233740BE8
:1006D300F0902620E020E00302074F9026447401A7
:1006E300F0E4F0A207E433FA9022B4EAF090200297
:1006F300E030E258200724902601E030E54E9026B2
:1007030003E04404F0D2079066D1E4F0C20375C855
:1007130060C2C69022317428F08031902231E0FA11
:10072300BA2910C207902603E054FEF0902603E096
:1007330054FBF0902231742AF090223374FFF0902E
:10074300220BE0547FF075F70175F701902143E028
:1007530030E52B90215BE04420F0E054DFF090265D
:1007630003E020E719902601E030E612902126E00D
:1007730020E20B902274E054F7F0E04408F090225A
:100783003374FFF090226CE030E60B90226CE0545F
:10079300BFF0E04440F090226DE054FEF0E04401ED
:1007A300F0D2AFD0D0D083D082D0E032C0E0C082CC
:1007B300C083C0D075D010C2AF9022337405F090BF
:1007C30026447402F0E4F0A206E433FA9022B4F073
:1007D300902601E020E603020937300603020937B9
:1007E30090A316E05407FABA0402800302087A9031
:1007F300E644E020E20E902037E04480F0902107A9
:10080300E04480F0902302E023235403906600F039
:10081300902303E0540F906601F0902303E02354E8
:1008230001906602F0902300E0C45403FABA011465
:10083300902302E0543F4480F0902303E054F044BB
:1008430004F08033902300E0C45403FABA022890E2
:100853002200E07012902302E044C0F0902303E0F2
:1008630054F04404F08010902302E0543FF09023AE
:1008730003E054F04405F0902603E04402F0902294
:10088300317428F0D20690A316E05407FABA030293
:100893008007902636E04480F0906716E4F07530C8
:1008A30001C20375C860C2C6902250E054DFF090C5
:1008B30066D1E4F0902143E054DFF0902143E0540B
:1008C300BFF09022D8E04408F0E054F7F0902603FC
:1008D300E030E709902604E4F0A3F080499067151F
:1008E3007401F090679CE4F0A3F090A316E0540722
:1008F300FABA0410902604E4F0A3F0902606E4F07C
:10090300A3F08010902604E4F0A37440F090260630
:10091300E4F0A3F0902602E04440F0E054BFF090EE
:10092300600AE054FEF0902602E04420F0E054DF39
:10093300F0020A58902601E030E63130062E902668
:1009430003E0C45401FABA01239022317428F090D1
:100953006716E4F0C20375C860C2C6902600E0546F
:10096300FBF0902603E054EFF0020A58902601E0D2
:1009730020E667300664902603E020E45D90223190
:10098300E0FABA2A3AC206902600E054FBF0902619
:1009930003E054EFF0902603E054FDF090A316E03B
:1009A3005407FABA04199067B0E090203713E09225
:1009B300E7F09067B1E0FA90210713E092E7F09037
:1009C30022317429F090223374FFF090220BE0540B
:1009D3007FF075F70175F701807B902601E030E623
:1009E30074300671906716E4F0C20375C860C2C61E
:1009F300902250E054DFF0902274E054F7F09026F8
:100A030000E054FBF0902603E054EFF0902603E05F
:100A130054FDF090A316E05407FABA04199067B096
:100A2300E090203713E092E7F09067B1E0FA90216D
:100A33000713E092E7F09067157401F09022317488
:100A430029F090223374FFF090220BE0547FF0756D
:100A5300F70175F70190223374FFF0D2AFD0D0D0F5
:100A630083D082D0E032C0E0C082C083C0D075D0D2
:100A730010C2AF902102E054F7F0902233740AF0D1
:100A830090223AE07008D208902231742CF0902220
:100A93003374FFF0D2AFD0D0D083D082D0E032C055
:100AA30025C0E0C0F0C082C083C0D075D008C2AFFB
:100AB3009022337407F0C228C229C22A9067B8E48F
:100AC300F0902621E030E108D2289026457402F008
:100AD300902621E030E008D2299026457401F09059
:100AE3002645E4F090260AE0FAA3E0FB9067C3E012
:100AF300FCA3E0FDEC620AED620BEA4B701A902650
:100B030008E0FAA3E0FB9067C5E0FCA3E0FDEC621C
:100B13000AED620BEA4B607490260AE0FAA3E0FB4D
:100B23009067C3EAF0A3EBF0902608E0FAA3E0FB9A
:100B33009067C5EAF0A3EBF090260AE0FAA3E0FB86
:100B43009067C3E0FCA3E0FDEC620AED620BEA4BA5
:100B5300701A902608E0FAA3E0FB9067C5E0FCA3B7
:100B6300E0FDEC620AED620BEA4B602090260AE09E
:100B7300FAA3E0FB9067C3EAF0A3EBF0902608E04A
:100B8300FAA3E0FB9067C5EAF0A3EBF02028062068
:100B9300290302134F902603E020E10A902600E088
:100BA30020E00302134F9067C3E0A3E09067BFF018
:100BB3009067C3E0FAA3E09067C0EAF09067C5E0EE
:100BC300A3E09067C1F09067C5E0FAA3E0FB9067EC
:100BD300C2EAF0A206E4339022B6F0A20AE433FAA2
:100BE3009022B7F0D2AF9067B9E4F09067BEF030CF
:100BF30029079067C7E02401F030060690A316E0AA
:100C03005407200606200A0302134F202803021369
:100C13004F9067C1E0FA30E70302134F9067C1E0DA
:100C2300FA30E61690A316E05407FAC374818AF0EB
:100C330063F08095F0400302134F90A316E054072E
:100C4300FABA04289067BFE0C4540FFA530A03901A
:100C530067BDEAF0EA30E0089067BD7404F0803DB8
:100C6300EA30E1399067BD7405F08031906715E093
:100C7300FA601A902603E020E713902126E020E291
:100C830007902601E020E6F2906715E4F09067BF35
:100C9300E00303543FFA9067BD74035AF09067BDB5
:100CA300E0FA7003020D829067A4E0FB6003020D7B
:100CB3007CEA2AFA24B0F582E434E6F583E0902650
:100CC30034F0EA24B0FAE434E6FB8A828B83A3E0AF
:100CD300902635F0902634E0C4540FFA90600FE06C
:100CE300540FFBEAB50B0040089067B87420F080FE
:100CF30016902634E054F070089067B87430F08092
:100D0300069067B87410F0902635E0C4540FFA903B
:100D1300600EE0540FFBEAB50B00400A9067B8E0A1
:100D2300FA4408F0801A902635E054F0700A906770
:100D3300B8E0FA440CF080089067B8E0FA4404F095
:100D4300902635E0540FFA90600FE0C4540FFBEA8D
:100D5300B50B00400A9067B8E0FA4402F0801A909D
:100D63002635E0540F700A9067B8E0FA4403F08028
:100D7300089067B8E0FA4401F07530000212E2907F
:100D830067C0E0FA530A3F9067BDEAF0EA700302D6
:100D930012DF7B00BB0B00500FEB90159193FCEA25
:100DA300B50C0280030B80ECBB0B0040099067B9C4
:100DB300741AF00212E2E4BA050104FB7017BA0ACE
:100DC30002800ABA1402801DBA282080109067BEE0
:100DD3007401F080169067BE7401F0800E9067BEB8
:100DE3007402F080069067BE7402F09067A4E0FC82
:100DF3006003021177E5307003021177902635E026
:100E0300C4540FFC90600EE0540FFDECB50D00923E
:100E130028B39217902635E0C4540FFCB401009216
:100E230018902635E0540FFC90600FE0C4540FFD7A
:100E3300ECB50D009228B39219902635E0540FFCBF
:100E4300B40100921A902634E0C4540FFC90600F52
:100E5300E0540FFDECB50D009228B3921B9026349D
:100E6300E0C4540FFCB40100921CBA0103020FEB5F
:100E7300BA0203020F68BA0403020F47EB7043BAC6
:100E83000803020F26BA0A028019BA10030210F8E7
:100E9300BA1402806DBA200302106EBA2802804190
:100EA300021177301903021177902635E0540FFAB7
:100EB3000A902635EA540FF5F0E054F045F0F002BD
:100EC3001177301A03021177902635E0540FFA1A7E
:100ED300902635EA540FF5F0E054F045F0F0021196
:100EE30077301B03021177902634E0C4540FFA0ABB
:100EF300902634EAC454F0F5F0E0540F45F0F002C4
:100F03001177301C03021177902634E0C4540FFA92
:100F13001A902634EAC454F0F5F0E0540F45F0F08B
:100F2300021177301703021177902635E0C4540F6E
:100F3300FA0A902635EAC454F0F5F0E0540F45F070
:100F4300F0021177301803021177902635E0C4546C
:100F53000FFA1A902635EAC454F0F5F0E0540F4521
:100F6300F0F002117790E649E030E742201934208F
:100F73001831902635E0540FFA0A902635EA540FBB
:100F8300F5F0E054F045F0F0902635E0C4540FFA44
:100F93001A902635EAC454F0F5F0E0540F45F0F00A
:100FA3000211779067B87402F0D22A0211773019D0
:100FB30003021177201818902635E0C4540FFA1A4B
:100FC300902635EAC454F0F5F0E0540F45F0F09064
:100FD3002635E0540FFA0A902635EA540FF5F0E06F
:100FE30054F045F0F002117790E649E030E74220F3
:100FF3001A34201731902635E0C4540FFA0A90268C
:1010030035EAC454F0F5F0E0540F45F0F09026357E
:10101300E0540FFA1A902635EA540FF5F0E054F035
:1010230045F0F00211779067B87403F0D22A0211E9
:1010330077301A03021177201718902635E0C4542D
:101043000FFA0A902635EAC454F0F5F0E0540F4540
:10105300F0F0902635E0540FFA1A902635EA540F33
:10106300F5F0E054F045F0F002117790E649E030F6
:10107300E644201B36201833902634E0C4540FFA7C
:101083000A902634EAC454F0F5F0E0540F45F0F02A
:10109300902635E0C4540FFA1A902635EAC454F06A
:1010A300F5F0E0540F45F0F00211779067B8742023
:1010B300F0D22A021177301B03021177902634E015
:1010C300C4540FFA0A902634EAC454F0F5F0E054FD
:1010D3000F45F0F0301803021177902635E0C45421
:1010E3000FFA1A902635EAC454F0F5F0E0540F4590
:1010F300F0F002117790E649E030E642201C3520FB
:101103001732902634E0C4540FFA1A902634EAC4F6
:1011130054F0F5F0E0540F45F0F0902635E0C45458
:101123000FFA0A902635EAC454F0F5F0E0540F455F
:10113300F0F080409067B87430F0D22A8036201CDB
:1011430033902634E0C4540FFA1A902634EAC45478
:10115300F0F5F0E0540F45F0F0201718902635E035
:10116300C4540FFA0A902635EAC454F0F5F0E0545B
:101173000F45F0F0302A030212DA902635E0C4540A
:101183000FFA90600EE0540FFBEAB50B009228B300
:101193009217902635E0C4540FFAB40100921890C8
:1011A3002635E0540FFA90600FE0C4540FFBEAB504
:1011B3000B009228B39219902635E0540FFAB4012C
:1011C30000921A902634E0C4540FFA90600FE05452
:1011D3000FFBEAB50B009228B3921B902634E0C4B0
:1011E300540FFAB40100921C9067C0E0C4540FFA84
:1011F300530A039067BBEAF09067C0E00303543FD0
:10120300FB530B039067BAEBF09067C0E0FC530C01
:10121300039067BCECF0BA0117301C0A9067B8E082
:10122300FD4430F080229067B8E0FD4410F0801850
:10123300BA0215301B0A9067B8E0FA4420F0800820
:101243009067B8E0FA4410F09067BEE0FA7032BBE2
:10125300011730180A9067B8E0FD440CF080229023
:1012630067B8E0FD4404F08018BB021530170A90FC
:1012730067B8E0FB4408F080089067B8E0FB4404DB
:10128300F0BC0117301A0A9067B8E0FB4403F08002
:10129300229067B8E0FB4401F08018BC02153019B6
:1012A3000A9067B8E0FB4402F080089067B8E0FB5F
:1012B3004401F0BA010F9067B8E0FB25E025E0FC9C
:1012C3009067B84BF0BA020F9067B8E0FA03035483
:1012D3003FFB9067B84AF07530008003753001908A
:1012E30067B8E0FA7B00902604EAF0A3EBF09026BF
:1012F30003E020E740200A3D906716E0FA600F9074
:101303002605E0FA430A80902605EAF080279067D5
:1013130015E0FA602090A316E05407FAC374818A9B
:10132300F063F08095F0400D902605E0FA430A4003
:10133300902605EAF0902602E04420F0E054DFF026
:1013430090600AE054FEF0906009E4F090225DE0C2
:1013530054F7F0E04408F0E054FBF0E04404F0906C
:10136300223374FFF0D2AFD0D0D083D082D0F0D06C
:10137300E0D02532C0D075D010C2AFD2AFD0D032BA
:10138300C0E0C082C083C0D075D010C2AF902233FA
:10139300740CF0902143E030E62090215BE0444060
:1013A300F0E054BFF0902601E030E60E902126E0F5
:1013B30030E207902274E054F7F090223374FFF088
:1013C300D2AFD0D0D083D082D0E032C0E0C0F0C062
:1013D30082C083C0D075D010C2AF9022337404F0A2
:1013E300902288E030E3609022D8E04408F0E05493
:1013F300F7F0906033E030E44E30064B9066D1E076
:10140300FA6044902603E020E73D902126E020E2A5
:101413003690A316E05407FAC374818AF063F08010
:1014230095F04015906083E04480F0902600E054EE
:101433007FF0902601E054FEF0902603E04408F08C
:10144300906083E04440F0902288E030E5199022D8
:10145300D8E04420F0E054DFF09022E4E020E007FD
:10146300906033E054FEF090A2E4E020E203021522
:101473003290A2F4E04404F0E054FBF0902200E048
:10148300FA90E650E0FBEAB51302800302153290AE
:10149300A2FCE0700890A2FAE4F002151C90A2FCF2
:1014A300E0FABA020790A31BE020E25B90A2FCE003
:1014B300FABA030790A34FE020E04C90A2FCE0FAB5
:1014C300BA040790A319E020E63D90A2FCE0FABA23
:1014D300050790A34EE020E52E90A2FCE0FABA06A1
:1014E30008902238E0FA20E11E90A2FCE0FABA0745
:1014F300079067C8E0FA700F90A2FCE0FABA0813ED
:101503009067C8E0FA700C90A2FCE0FA90A2FAEAA5
:10151300F0800690A2FA7401F090A2FCE0600990BA
:10152300A2FBE04401F0800790A2FBE054FEF090A0
:10153300223374FFF0902250E030E50B902250E00C
:1015430054DFF0E04420F0902253E054BFF0E04435
:1015530040F0902200E0FA90E650E0FBEAB5130B6E
:10156300902253E054EFF0E04410F0D2AFD0D0D04B
:1015730083D082D0F0D0E032C0D075D010C2AF108B
:10158300980280001099028000D2AFD0D0320004BC
:0915930005080A142802012010C9
:060000000200C8020378B3
:03000B00020242AC
:0300130002041EC6
:03001B0002026A74
:0300230002157B48
:03002B0002027C52
:01003300329A
:01003B003292
:03004300020AA20C
:03004B0002061793
:0300530002039510
:03005B000213CEBF
:030063000207AFE2
:03006B0002137706
:01007300325A
:01007B003252
:01008300324A
:03008B0002042646
:0300930002042E36
:03009B00020A69ED
:0300A3000206C191
:0300AB00021383BA
:0300F4000200AE59
:0500AE001215A080FE08
:10159C0090000122758E00C2AF120130902231E012
:1015AC00FA902230F0902231E4F0902234F0902224
:1015BC0030E07014782F79B27A011200B378817907
:1015CC00E37A011200B38009789879A67A021200A6
:1015DC00B390662BE0FA700990220BE04480F0D2B5
:1015EC00AF902230E0FABA03028069BA1902802E59
:1015FC00BA1A02802EBA1D02803FBA270302169235
:10160C00BA2802803FBA2902803ABA2A028035BA37
:10161C002B02804BBA2C028030BA2F6A80101249F0
:10162C0010806378C079E67A011200B3805878583C
:10163C0079E77A011200B3804D787079EA7A011259
:10164C0000B38042121D96803D788679C37A0112D0
:10165C0000B38032786779CD7A011200B380277895
:10166C008879D57A011200B3902231E07018787D18
:10167C0079897A011200B3784879A07A011200B303
:10168C00902230742BF020080E90201BE020E307F2
:10169C00902006E030E34990223AE0603890210235
:1016AC00E054F7F0902053E04408F0E054F7F09049
:1016BC00A316E05407FABA030C900064780D79CDA8
:1016CC007A021200B390223AE4F0C208902102E0B0
:1016DC004408F08002D208902230742CF002176B70
:1016EC00A206720750089022307428F080712006F0
:1016FC0018902601E030E6119022B47498F078A28C
:10170C0079CC7A011200B3805620072A902601E08A
:10171C0030E5239022B47499F0C2AF902644740142
:10172C00F0E4F09022307428F0902603E04404F0AA
:10173C00D207D2AF80299025F5E030E00F906719E1
:10174C00E0FA6008902230743BF0801390E608E0D9
:10175C0030E00C9022307403F09067AF7401F0907D
:10176C00603AE023235401FABA01031233ED9022BC
:10177C0031E06013902231E0FA902230F090223167
:10178C00E4F0C2050215ED787379997A011200B371
:10179C0078B279987A011200B3906098E05401FA0B
:1017AC00BA0103120111902297E0235401FAB401FB
:0F17BC0000E433FA90229713E092E7F00215ED64
:0502000001020E0002E6
:1017CB00906667E0FA906666E0FBC0028B821217A8
:1017DB00DF158122C01885811805810581AA8290A9
:1017EB00604FE030E703021980906643EAF0E5189A
:1017FB0024FDF88603906644EBF090600AE054DF1A
:10180B00F09066FDE0FC7027906046E0C39AC39BA6
:10181B00FDA81808A605906045E0FE900028E0039F
:10182B00547FFFC003EEC39FFEFDD003021915BC0E
:10183B00016B9067A5E0FE530601BE003090005887
:10184B00E0C4035401FE900058E023235401FFEE43
:10185B00B50702801890671AE0FE7011C002C00332
:10186B00789079A77A011200B3D003D0029060462A
:10187B00E0C39AFEA81808A606906045E0FEC002D9
:10188B00EBFF3395E0EEC39FFE900028E003547FFF
:10189B00FA7F00EEC39AFEFDD002021915BC02328C
:1018AB00906046E0FEA81808A606906045E0FEEAA8
:1018BB00FF3395E0EEC39FFEEBFD3395E0EEC39D4A
:1018CB00FE900028E003547FFD7F00EEC39DFEFDDC
:1018DB008038BC0335906046E0FCA81808A604903D
:1018EB006045E0FC906641E0FDEAFE3395E0EE2DAD
:1018FB00FDEBFE3395E0FFEE2D2CFC900028E00372
:10190B00547FFD7E00ECC39DFCFDA81808C3E66464
:10191B008094C04007A81808E624C0F6A8180886CB
:10192B0082C002C003C005121AB8D005D003D00282
:10193B00C3ED648094C64006ED2480FD800CC3ED9E
:10194B006480943A500474802DFDEDFC3395E0FDDA
:10195B008C828D83C002C003784A79947A0212007C
:10196B00B3D003D002C0038A82121986158190600E
:10197B000AE04420F0851881D01822C01885811800
:10198B00AA829066FDE0FB7403B503005003021AB4
:10199B00B5EB2B2B9019A3730219AF0219AF0219D8
:1019AB00DA021A46900038E00303543FFBC374A2DB
:1019BB008BF063F08095F0500A900224E054F3F022
:1019CB00021AB5900224E054F34404F0021AB5E570
:1019DB001824FDF8E62AFB901B74E493FCC3EB641C
:1019EB00808CF063F08095F0500A900224E054F361
:1019FB00F0021AB5901B75E493FCC3EB64808CF07A
:101A0B0063F08095F0500C900224E054F34404F002
:101A1B00021AB5901B76E493FCC3EB64808CF063E5
:101A2B00F08095F0500C900224E054F34408F0023F
:101A3B001AB5900224E0440CF0806F906641E0FCF4
:101A4B00EA2CFAE51824FDF8E62AFB901B77E493C1
:101A5B00FAC3EB64808AF063F08095F05009900232
:101A6B0024E054F3F08043901B78E493FAC3EB64C7
:101A7B00808AF063F08095F0500B900224E054F3D1
:101A8B004404F08025901B79E493FAC3EB64808ABD
:101A9B00F063F08095F0500B900224E054F344086F
:101AAB00F08007900224E0440CF0D01822C0188577
:101ABB00811805810581AA82900038E00303543F09
:101ACB00FBC003740CC0E0743AC0E08A827846799C
:101ADB00D17A021200B3AA8215811581D003EBB51E
:101AEB000203021B6EEAFC3395E0FDEC24FEFEEDD7
:101AFB0034FFFFA81808A603EB3395E008F6A818E7
:101B0B0008C3E69E08E664808FF063F08095F05082
:101B1B00040B0B802074022CFCE43DFDA81808C3B9
:101B2B00EC96ED64800886F063F08095F050041B12
:101B3B001B80028A03900038EB2B25E054FCF5F058
:101B4B00E0540345F0F0C002C00378E779D07A0285
:101B5B001200B3783979807A021200B3D003D00225
:0F1B6B00021AE9851881D01822FD111E192D3A92
:020000040002F8
:10944A00AA82AB83EA4B70030294D6900028E00309
:10945A00547FFC7D00C3EA9402EB6480948040113F
:10946A00EA24FEFAEB34FFFB74022CFCE43DFD8097
:10947A002AC374FE9A747F8BF063F08095F04011D2
:10948A0074022AFAE43BFBEC24FEFCED34FFFD8077
:10949A000AEA2CFCEB3DFD7A007B0053047F900026
:1094AA0028EC2C54FEF5F0E0540145F0F0C002C05F
:1094BA000378E779D07A021200B3D003D002900081
:0F94CA0028E04401F0E054FEF002944E0200C589
:020000040001F9
:10A03700906060E09067DFF090605FE09067E0F02D
:10A047002290672AE0FABA010280089066FCE0FADB
:10A05700BA010302A0F690671AE0FA604B90604CD1
:10A06700E020E55F906655E0FA9060A1EAF078B0ED
:10A0770079A67A011200B390671AE4F09066FFF0B0
:10A08700906700F0906701F0906702E4F090240277
:10A09700E054EFF07817798E7A021200B3780D79D1
:10A0A7008F7A021200B3804790604CE0C4035401DA
:10A0B700FABA010D90671A7401F090671BE4F080FB
:10A0C70002802C90671BE0FA700978F979A07A0171
:10A0D7001200B3906712E0FA906667F090604CE068
:10A0E70020E70978CC79A17A011200B312A3A40260
:10A0F70000C578E2798D7A021200B390608EE03065
:10A10700E109906091E0FA906666F012A0379066D8
:10A1170066E0FA9067DFE02A906666F0906667E08F
:10A12700FA9067E0E0FB2AFA906667F0906098E0A3
:10A1370030E307902402E04410F078B079A67A0162
:10A147001200B3C20DD20C9066FD7401F078C97984
:10A15700937A021200B31217CB906711740AF0902A
:10A16700670AE4F0A3F0906708E4F0A3F090670CA7
:10A17700E4F090670DF090670EF090670FF090672E
:10A1870010E4F0906705F0906706F0906707F0908D
:10A1970066FFE4F0906700F0906701F0906702F0C7
:10A1A700906667E0FA906712F090604CE0547FF099
:10A1B70090604EE054F7F090671CE4F090671B74D2
:10A1C70001F00200C590676BE4F0A3F090676FE4BD
:10A1D700F0C20DD20C9066FD7401F078C979937ABC
:10A1E700021200B31217CB90604EE054DFF090607C
:10A1F7004EE020E309789079A77A011200B39060C6
:10A207004EE030E50302A32C781179A77A011200FA
:10A21700B3906704E0FA90679BE0FBC364808AF021
:10A2270063F08095F0501590670AE0FCA3E0FD907D
:10A23700670A74012CF0E43DA3F08022C3EA64802E
:10A247008BF063F08095F0501590670AE0FAA3E071
:10A25700FB1ABAFF011B90670AEAF0A3EBF09067BD
:10A267009BE0FA906704E0C39AF582782379D27A63
:10A27700021200B3AA82C374818AF063F08095F05A
:10A2870040089066427401F08005906642E4F090C1
:10A29700670AE0FAA3E0FBC3E49A74808BF063F0EB
:10A2A7008095F0502590605EE0FC8CF005F0AC02E4
:10A2B700AD03EB3392D28008A2D2ED13FDEC13FC71
:10A2C700D5F0F590676FECF0802BEB30E727EAF4D9
:10A2D700FAEBF4FB90605EE0FC8CF005F0EB339258
:10A2E700D28008A2D2EB13FBEA13FAD5F0F59067F8
:10A2F7006FC3E49AF090676FE0FA6029906667E0B1
:10A30700FBEA2B906667F09066FD7401F078C979D7
:10A31700937A021200B31217CB90670AE4F0A3F006
:10A3270090676FE4F090664BE0F582782379D27AF4
:10A33700021200B3AA82906066E0FBB502004017E4
:10A3470090665EE0FA906067E0FBEAB503005007AD
:10A35700906798E0FA601090603AE020E41090600F
:10A367003AE04410F0803390603AE054EFF09067A1
:10A377006BE0FAA3E0FB90676B74012AF0E43BA360
:10A38700F090605CE0FCA3E0FDC3EA9CEB9D500A03
:10A3970090604CE030E50302A1D80200C590676BDE
:10A3A700E4F0A3F090676FE4F0C20DD20C9066FD65
:10A3B7007401F01217CB90604EE054DFF090604EBE
:10A3C700E020E309789079A77A011200B390604EF4
:10A3D700E030E50302A630906667E0FA906706F082
:10A3E70090670FE09067052AF0906710E090670785
:10A3F7002AF0784E79A77A011200B3906657E0FAEF
:10A40700906077E0FB7C0074022BFBE43CFC7D0052
:10A41700C3EB9AEC64808DF063F08095F0500C905C
:10A42700670FE0FB1490670FF08025906077E0FBE3
:10A437007C000BBB00010CC3EA9BED64808CF063CE
:10A44700F08095F0500A90670FE0FA90670F04F0DC
:10A45700906641E0FAC3E49AFB90670FE0FCC00303
:10A46700C0028C82784679D17A021200B3AA82158B
:10A4770081158190670FEAF0906659E0FA9060774E
:10A48700E0FB7C0074022BFBE43CFC7D00C3EB9AF1
:10A49700EC64808DF063F08095F0500C906710E0CD
:10A4A700FB90671004F08025906077E0FB7C000B41
:10A4B700BB00010CC3EA9BED64808CF063F08095D0
:10A4C700F0500A906710E0FA14906710F090664118
:10A4D700E0FAC3E49AFB906710E0FCC003C0028C6B
:10A4E70082784679D17A021200B3AA821581158142
:10A4F700906710EAF090670FE0FB3395E0FCEA33D2
:10A5070095E0FDEA2BFEED3CFFC3EE94FFEF648080
:10A51700947F5014906708E024FFFEA3E034FFFF08
:10A52700906708EEF0A3EFF0EA2BFBED3CFCC37459
:10A53700019B74808CF063F08095F0500C90670855
:10A54700E02401F0A3E03400F0906708E0FAA3E00C
:10A55700FBC3E49A74808BF063F08095F0502590EC
:10A567006062E0FC8CF005F0AC02AD03EB3392D2F5
:10A577008008A2D2ED13FDEC13FCD5F0F590676FC0
:10A58700ECF0802BEB30E727EAF4FAEBF4FB906072
:10A5970062E0FC8CF005F0EB3392D28008A2D2EB9C
:10A5A70013FBEA13FAD5F0F590676FC3E49AF090BE
:10A5B700676FE0FA6073906046E0FB7C0090666628
:10A5C700E0FDFE3395E0FFEBC39EFBEC9FFCEAF852
:10A5D7003395E0F9E82BFBE93CFCBB3A05BC0002EC
:10A5E7008022906046E0FB7C00C39EFEEC9FFFE864
:10A5F7002EF8E93FF9B80C05B900028007EA2DFAF1
:10A60700906666F0906705E0906097F0906707E0C6
:10A61700906096F0906667E0FA906095F090670812
:10A62700E4F0A3F090676FE4F078B079A67A0112AE
:10A6370000B390664BE0F582782379D27A02120054
:10A64700B3AA82906066E0FBB50200401790665E91
:10A65700E0FA906067E0FBEAB5030050079067985F
:10A66700E0FA601090603AE020E41090603AE0442D
:10A6770010F0803290603AE054EFF090676BE0FAA8
:10A68700A3E0FB90676B74012AF0E43BA3F09060B2
:10A6970063E0FC7D00C3EA9CEB9D500A90604CE0B0
:10A6A70030E50302A3B00200C5906044E030E10248
:10A6B7008055906667E0906712F0D20DD20C9066D5
:10A6C700FDE4F078C979937A021200B3906666E0E8
:10A6D700FAE4C0E08A821217DF1581906712E090D2
:10A6E7006667F09000FBE493FAA3E493FB90617430
:10A6F700EAF0A3EBF078C479897A011200B3906687
:10A707005CE0FA90679BF00200C5C20DD20C906620
:10A71700FD7401F078C979937A021200B31217CB4E
:10A72700900103E493FAA3E493FB906174EAF0A326
:10A73700EBF078C479897A011200B390665CE0FA8D
:10A74700906704F00200C5C20DD20C9066FD74013B
:10A75700F078C979937A021200B31217CB900107E8
:10A76700E493FAA3E493FB906174EAF0A3EBF0900F
:10A7770060A0E04408F078C479897A011200B390A8
:10A7870060A0E054F7F00200C575820178D2798E97
:10A797007A021200B3902405E054FDF0906640E081
:10A7A700FA7B1C7C02900101E493FDA3E493FE90E5
:10A7B7006174EDF0A3EEF0C002C003C00478007925
:10A7C700807A011200B3D004D003D002906170E008
:10A7D7007033FDEDB50200501F900040C002C0036A
:10A7E700C004C005784A79947A021200B3D005D024
:10A7F70004D003D0020D80DB8B058C061BBBFF0149
:10A807001CED4E70A0906170E0FABA0103D380018D
:10A81700C3B39228E433FA90604E13E092E5F00256
:10A8270000C5906668E0FABA0500500C906664E0CF
:10A83700FA743FB502005002806478A879A87A01BB
:10A847001200B39060A0E030E609786279A97A0136
:10A857001200B3906038E030E0207A018A031AC30F
:10A8670074808BF063F08095F0500FC00278D47934
:10A87700AA7A011200B3D00280E2786979AE7A0130
:10A887001200B3906047E030E014906090E090666B
:10A8970066F01217CB78C479897A011200B30200E7
:10A8A700C578FC79AE7A011200B39066B6E4F090F1
:10A8B70066B7F09066C1F0906666E0FA9066BCF005
:10A8C7009066B8E0FB9066BEF0906668E0FC906624
:10A8D700BDF09066BBEAF09066BAEBF09066B9EC13
:10A8E700F09066FDE0FAB40100E433FB7009BA01A9
:10A8F7000280047C0080027C01EC601890E657E03F
:10A90700FCC36480946450047CE4800690E657E0BE
:10A91700FDFC800690E65BE0FDFC9066BFECF0EB8B
:10A927007009BA010280047A0080027A01EA601D88
:10A9370090E656E0FAC374928AF063F08095F0507F
:10A94700047A12800690E656E0FBFA800690E65AF3
:10A95700E0FBFA9066C0EAF00200C59066B7E070C7
:10A96700509066B6E0FA9060A5E0C4540FFBC3EAC6
:10A9770064808BF063F08095F0501E906666E0FA75
:10A987009066BFE0FBC364808AF063F08095F05067
:10A99700089066C1E0FABA01189066B77401F090A2
:10A9A70066B6E4F09066C1F09066BCE0FA90666621
:10A9B700F09066B6E0FA9060A5E0C4540FFBC3EAD6
:10A9C70064808BF063F08095F0501D906666E0FA26
:10A9D7009066C0E0FBC3EA64808BF063F08095F07B
:10A9E70050069066C1E0600B9066B7E0FABA0103C3
:10A9F70002AAD19066B7E0700E906666E0FA1A1A5E
:10AA0700906666EAF0800C906666E0FA0A0A90663D
:10AA170066EAF09066BFE0FA9066C0E0FB90666673
:10AA2700E0FCC002C0038C82784679D17A0212001A
:10AA3700B3AA8215811581906666EAF09066B6E042
:10AA4700FA0A9066B6EAF078C479897A011200B3F7
:10AA570078FC79AE7A011200B39066B8E0FA906696
:10AA6700BAE0FB7C0024FBFDEC34FFFE8A0778008C
:10AA7700C3EF9DE864808EF063F08095F040047D1D
:10AA87000080027D019066C1EDF0906668E0FD9060
:10AA970066B9E0FEB50500401BEDB506028003026E
:10AAA700A962C3EB9FEC648088F063F08095F04067
:10AAB7000302A962906666E0FB9066BBF09066BAF7
:10AAC700EAF09066B9EDF002A9620200C5C01885E8
:10AAD7008118058105817A009066B7E4F09066C118
:10AAE700F09066BBE0906666F0C00278C479897A18
:10AAF700011200B378FC79AE7A011200B3D002904C
:10AB070066B8E0FB9066BAF0906668E0FC9066B9BC
:10AB1700F09066BBE0FD9066BCF09066BDECF090EF
