:020000040001F9
:10800000AA82AB837C00BC0800502AEC2CFDFE90B9
:1080100083DF93CEA393FFED9083EF93CDA393F8EB
:10802000EA5205EB5200EEB50508EFB50004758283
:1080300001220C80D175820022C018E581F5182438
:1080400008F581E5182404F87600087600E5182480
:1080500006F87600900030E00354079083FF939079
:10806000661DF0900034E00303543F90661EF090CC
:108070000034E003540190661FF078EB79897A02AE
:108080001200B3AD829022B6EDF0906008E0FEBE23
:1080900001047E0880027E01A818080876BC0876D4
:1080A000029022B5EEF030165CED6009906614E0A7
:1080B0002401F08009906614E014906614F0906634
:1080C00014E0FC700CFD90E643E0FF906614F08035
:1080D00034C00690E643E0FFE4CF25E0CF33FE7ADC
:1080E00000C3EC9FEA64808EF063F08095F0D006C8
:1080F000400D7D0190E643E0FA906614F08006752D
:108100008201028224BD0111C006785C798A7A025C
:108110001200B3AA82D0068011C0067803798B7A48
:10812000021200B3AB82D0068B02EA600302821D0A
:10813000C006788779837A011200B3D00630160A18
:10814000E5182406F8760102821DC00678EB7989CD
:108150007A021200B3AA82D0068A059022B6EDF008
:10816000A81808E6B505028011A81808A605BE08DB
:10817000047E028005BE02027E01E5182404F80890
:10818000E618C625E0C63308F68D027B00E5182404
:1081900004F8EA46F6EB0846F6E5182404F8E51874
:1081A0002407F9E6F70809E6F77C00BC0800503B15
:1081B000C006EC2CFFFE9083DF93CEA393FAEFFB77
:1081C0009083EF93CBA393FFE5182407F8E65203BF
:1081D00008E65207EEB50306EAB507028004D006AA
:1081E0008006D0067A0180050C80C07A00EA601013
:1081F000E5182406F87601906006E04408F0801D3A
:1082000090E649E020E00AA818080816B6FF020820
:1082100016A8180808E6084660030280A1E518249D
:1082200006F88682851881D0180200C5A20EE433B4
:10823000FA902230740FF0900228E003035407FBF9
:10824000530304E4BB000104FB906006E054F7F024
:10825000906001E054FDF090E60AE003035401FC55
:10826000BC0102800A906003E05401FCBC0144EAB6
:108270002AFC24AAFDE43465FEEB2DF582E43EF5EC
:1082800083E090661EF0EC24B2FDE43465FEEB2D35
:10829000F582E43EF583E0906620F0EC24A2FCE455
:1082A0003465FDEB2CF582E43DF583E0FC90661F20
:1082B000F0801290661E7431F09066207405F09084
:1082C000661F7401F0906620E09083FF9390661D16
:1082D000F0C002C003788779837A011200B3D0031B
:1082E000D002906008E0600302837490E60AE030F8
:1082F000E203028374C002C003783979807A0112E4
:1083000000B3AC82D003D002906005EC13E092E1A0
:10831000F0900030E0035407FCEA2433FDE43466B7
:10832000FEEC9083FF938D828E83F0EA2AFA24AAD2
:10833000FCE43465FDEB2CFCE43DFD90661EE08C16
:10834000828D83F0EA24B2FCE43465FDEB2CFCE47E
:108350003DFD906620E0FE8C828D83F0EA24A2FA37
:10836000E43465FCEB2AFBE43CFD90661FE0FA8BED
:10837000828D83F0906001E04402F090E643E0FAE1
:10838000906614F00200C590661EE090003425E06F
:1083900025E054FCF5F0E0540345F0F090661FE052
:1083A00090003413E092E1F090661DE0FAC313628E
:1083B00002906620EAF0900030EA2A540EF5F0E0D0
:1083C00054F145F0F0900034E04401F0786479B95C
:1083D0007A021200B3900034E054FEF00200C505AA
:1083E000000A003300CC00C701380E0F0FF0F00F69
:1083F000000F00FF00FF00FF0FFF0FFFFFFFFF0058
:1084000001030207060405C018858118058105814E
:108410009061707401F09066F7E0FABA0102800B87
:1084200090E607E0035401FABA0106200803028C23
:108430003C9060A2E4F09060A3F0906799E0FA901D
:108440006174E0FBA3E0FCEB20E00302853990605F
:10845000A27401F0902163E0547FF090240CE0546A
:108460007FF0902102E04480F0E0547FF0C0027879
:108470006479B97A021200B3902403E054BFF07516
:108480008E07902410E04404F0E054FBF0758E0059
:108490009022D0E04480F09022D4E04480F09022FA
:1084A000D0E0547FF09022D4E0547FF078A7798C0C
:1084B0007A011200B3D0029060A27402F09060A022
:1084C000E030E175C002780779847A021200B37552
:1084D0008200783179847A021200B3758210783183
:1084E00079847A021200B3758212783179847A0223
:1084F0001200B3D00290049CE0541FFB900498E05B
:10850000541FFC2BFB9067C1F0900498E020E50716
:108510009067C174402BF090089CE0541FFB9008BA
:1085200098E0541FFC2BFB9067C2F0900898E02065
:10853000E5079067C274402BF0906174E0FBA3E004
:10854000FCEB30E12A9060A27403F0C00274FFC01B
:10855000E090000078FF798F7A011200B31581D086
:1085600002902163E04480F090240CE04480F0907D
:108570006174E0FBA3E0FCEB20E2030286939060D1
:10858000A27404F0758201C002786379957A0112B1
:1085900000B37582007844798C7A011200B3D0025E
:1085A000906174E0FBA3E0FCEB30E51B9060A274EB
:1085B00005F0C002E4C0E0900A0178FF798F7A01EB
:1085C0001200B31581D002758B18758DFCD28EC246
:1085D000039060A27406F0C0027401C0E0900A012A
:1085E00078FF798F7A011200B31581D0029066610D
:1085F000E0FBB50202806E9060A27408F0EBFC33E1
:1086000095E0FDEC24FEFEED34FFFFA81808A6025D
:10861000EA3395E008F6A81808C3E69E08E66480E9
:108620008FF063F08095F050040A0A802074022CC9
:10863000FCE43DFDA81808C3EC96ED64800886F0C4
:1086400063F08095F050041A1A80028B02906662E3
:10865000E0FBC002C0038A82122B131581D00220D6
:1086600003030285D130030F9060A3E0FA430202B6
:108670009060A3EAF0C203C28EC28F758200783187
:1086800079847A021200B3758210783179847A0283
:108690001200B3906174E0FAA3E0FBEA20E4030265
:1086A00088569060A2740AF0902401E054FDF09086
:1086B0002401E054FEF0906174E0FAA3E0FBEA309C
:1086C000E53A9060A2740BF0758201786379957A2F
:1086D000011200B37582007844798C7A011200B3DC
:1086E00090240BE04480F0E054BFF0E4C0E0900A36
:1086F0000178FF798F7A011200B31581906174E0DF
:10870000FAA3E0FBEA30E6499060A2740CF020275F
:1087100018758201786379957A011200B375820029
:108720007844798C7A011200B390240BE04480F0F5
:10873000E054BFF0902402E04408F0E054FBF074F1
:1087400002C0E0900A0178FF798F7A011200B31518
:1087500081906174E0FAA3E0FBEA30E7609060A2E8
:10876000740DF0202718758200786379957A0112CC
:1087700000B37582027844798C7A011200B3902498
:108780000BE04480F0E054BFF0902402E04408F095
:10879000E054FBF03008147402C0E090000078FF51
:1087A000798F7A011200B3158180127402C0E090B3
:1087B000030278FF798F7A011200B31581906174FA
:1087C000E0FAA3E0FB20E0030288569060A2740E5A
:1087D000F0202718758200786379957A011200B32A
:1087E0007582027844798C7A011200B390240BE0F0
:1087F000547FF090240BE054BFF0902402E054F733
:10880000F0902402E054FBF0906715E0FA601474D5
:1088100004C0E090020478FF798F7A011200B3154A
:108820008180127402C0E090020478FF798F7A018F
:108830001200B31581780779847A021200B3758229
:1088400010783179847A021200B375820078317918
:10885000847A021200B3906174E0FAA3E0FB20E195
:10886000030289309060A27410F0902401E054FD5E
:10887000F0902401E054FEF09060A27411F0902476
:108880000BE0547FF0E04440F0902402E054F7F015
:10889000E04404F07403C0E0900A0178FF798F7A15
:1088A000011200B315819060A27412F090240BE0C5
:1088B000547FF090240BE054BFF0902402E054F772
:1088C000F0902402E054FBF07403C0E090030278BF
:1088D000FF798F7A011200B315819060A27413F0B2
:1088E00090049CE0541FFA900498E0541FFB2AFA6D
:1088F0009067C1F0900498E020E5079067C174404C
:108900002AF090089CE0541FFA900898E0541FFB4E
:108910002AFA9067C2F0900898E020E5079067C2B5
:1089200074402AF0758212783179847A021200B389
:10893000906174E0FAA3E0FB20E2030289BD90603D
:10894000A27414F0758200786379957A011200B3ED
:108950007582027844798C7A011200B39060A27417
:1089600015F0902401E04402F090240BE04480F0E4
:10897000E054BFF0E4C0E090080278FF798F7A01FC
:108980001200B315819060A27416F090240BE0548D
:108990007FF090240BE054BFF0E4C0E09004047832
:1089A000FF798F7A011200B31581758201783179D0
:1089B000847A021200B3902401E054FDF0906174B7
:1089C000E0FAA3E0FB20E403028B649060A2741839
:1089D000F0202718758200786379957A011200B328
:1089E0007582027844798C7A011200B3902404E0F5
:1089F00054BFF0902401E04401F07A007B007582BE
:108A000002C002C00378F979827A021200B3D0035F
:108A1000D0029060A27419F090240BE04480F0E042
:108A200054BFF020271BC002C003E4C0E0900A023C
:108A300078FF798F7A011200B31581D003D00280BC
:108A400019C002C003E4C0E090080278FF798F7A71
:108A5000011200B31581D003D0029060A2741AF005
:108A600090240BE0547FF0E04440F020271BC0022C
:108A7000C003E4C0E090080478FF798F7A01120007
:108A8000B31581D003D0028019C002C003E4C0E056
:108A900090060478FF798F7A011200B31581D00314
:108AA000D0029060A2741CF0EB7016758202C002B6
:108AB000C003783179847A021200B3D003D00280E7
:108AC0002DEA7016758203C002C003783179847A6A
:108AD000021200B3D003D0028014758204C002C019
:108AE00003783179847A021200B3D003D002906007
:108AF000A2741BF09060A0E030E35BEB701F7B0181
:108B0000906661E0FCC002C003906700E0C0E08CAA
:108B100082122B131581D003D0020289FEEA701F46
:108B20007A01906661E0FCC002C003906702E0C079
:108B3000E08C82122B131581D003D0020289FE90A3
:108B40006701E0FA906662F0906661E0FBC0028B1C
:108B500082122B131581902401E054FEF09024041E
:108B6000E04440F0906174E0FAA3E0FB20E60302E9
:108B70008C1390604FE030E603028C139060A27477
:108B800021F0902580E04401F090605AE020E2203E
:108B900075820178F979827A021200B3782F798F81
:108BA0007A011200B3787479827A021200B3800FCE
:108BB000906039E0F582787479827A021200B3907D
:108BC00060A27422F0902580E04404F0E054FBF0B1
:108BD00090605AE030E21474FFC0E090200878FF03
:108BE000798F7A011200B31581801274FFC0E09072
:108BF0000A0578FF798F7A011200B315819060A27F
:108C00007423F0781B79937A011200B3AA829061E1
:108C100070EAF090605AE020E21C2008199060A2EF
:108C20007424F075820178F979827A021200B39087
:108C30002580E054FEF09060A27425F0851881D064
:108C4000180200C5AA82BA00028005BA012D801759
:108C5000902405E04408F0902405E04401F09024BD
:108C600005E04402F0803D902405E04408F0E05423
:108C7000FEF0902405E054FDF08029902405E05496
:108C8000F7F0902400E0C4540FFABA0F09902405BD
:108C9000E054FDF08007902405E04402F0902405A4
:108CA000E054FEF00200C5902403E04420F0E054BC
:108CB000DFF0E04402F0902403E054FDF0E04401D2
:108CC000F0E054FEF0758B9C758DFFD28EC20320B0
:108CD000031790240BE030E5F6786479B97A021234
:108CE00000B390240BE030E5E60200C5AA82906054
:108CF00016E0FB900224C4235460F5F0E0549F4535
:108D0000F0F0BA01028003028DBE902403E04440DB
:108D1000F09061B8E0902438547FF5F0E05480453D
:108D2000F0F09061B9E0902439547FF5F0E0548080
:108D300045F0F09061BAE090243A547FF5F0E054A9
:108D40008045F0F09061BBE090243B547FF5F0E06B
:108D5000548045F0F09061BCE090243C547FF5F0E5
:108D6000E0548045F0F09061BDE090243D547FF5E3
:108D7000F0E0548045F0F09061BEE090243E547FD6
:108D8000F5F0E0548045F0F09061BFE090243F544E
:108D90007FF5F0E0548045F0F09067C1E090253019
:108DA000547FF5F0E0548045F0F09067C2E0FA900F
:108DB0002531547FF5F0E0548045F0F08007902491
:108DC00003E054BFF0902403E04420F0E054DFF0CF
:108DD000758B9C758DFFD28EC20320031590240BDA
:108DE000E0C4035401FA90240BE0C4035401FB5A7D
:108DF00060E80200C59066F7E0FA6003028F2C7409
:108E000040C0E0E4C0E07480C0E07424C0E0E4C08E
:108E1000E090244075F00078D779BA7A021200B356
:108E2000E58124FBF5819024C0E0547F90243854E0
:108E30007FF5F0E0548045F0F09024C1E0547F903D
:108E40002439547FF5F0E0548045F0F09024C2E0DE
:108E5000547F90243A547FF5F0E0548045F0F09030
:108E600024C3E0547F90243B547FF5F0E0548045C8
:108E7000F0F09024C4E0547F90243C547FF5F0E05F
:108E8000548045F0F09024C5E0547F90243D547FF9
:108E9000F5F0E0548045F0F09024C6E0547F902433
:108EA0003E547FF5F0E0548045F0F09024C7E05444
:108EB0007F90243F547FF5F0E0548045F0F090041B
:108EC0009CE0541FFA900498E0541FFB2AFA906724
:108ED000C1F0900498E020E5079067C174402AF043
:108EE00090089CE0541FFA900898E0541FFB2AFA5F
:108EF0009067C2F0900898E020E5079067C2744040
:108F00002AF09067C1E0902530547FF5F0E054805E
:108F100045F0F09067C2E0FA902531547FF5F0E01B
:108F2000548045F0F0902403E04440F00200C590E6
:108F30006158E0FA906159E0FBC0038A82789A791F
:108F4000B97A021200B3AB8215818B0290615AE0AC
:108F5000FBC0038A82789A79B97A021200B3AB8295
:108F600015818B0290615BE0FBC0038A82789A795D
:108F7000B97A021200B3AB8215818B0290615CE07A
:108F8000FBC0038A82789A79B97A021200B3AB8265
:108F900015818B0290615DE0FBC0038A82789A792B
:108FA000B97A021200B3AB8215818B0290615EE048
:108FB000FBC0038A82789A79B97A021200B3AB8235
:108FC00015818B0290615FE0FBC0038A82789A79F9
:108FD000B97A021200B3AB8215818B0290E6AFE042
:108FE000C4540FFB8BF005F0EA8002C313D5F0FBED
:108FF000FA90E6AFE0540FFB2AFAF5820200C5C0F2
:1090000018858118AA82AB83906038E0232354012D
:10901000FCBC010280119066F7E0FCBC01028007F5
:10902000902411E020E10302924190604FE030E78C
:109030001C902405E0540FF0902406E054C0F090FA
:109040002406E0543FF0902407E4F0804A8B047437
:109050000F5C902405C454F0F5F0E0540F45F0F097
:10906000ECC4540FFC53043F902406EC543FF5F03D
:10907000E054C045F0F074035AFB902406030354F7
:10908000C0F5F0E0543F45F0F0EA0303543FFA53D3
:10909000023F902407EAF0E51824FCF8B6010280AC
:1090A0001EE51824FCF8B602028030E51824FCF80E
:1090B000B60302803FE51824FCF8B60466804B90A6
:1090C000240874FFF090240974FFF090240AE054FF
:1090D000C0F090240AE054BFF0806190240874FF2F
:1090E000F090240974FFF090240AE0443FF0E0542B
:1090F000BFF08048902408E4F0902409F090240AFE
:10910000E054C0F0E04440F0803290240874FDF058
:1091100090240974FFF090240AE0443FF0E054BF2B
:10912000F080199024087401F0902409E4F0902450
:109130000AE054C0F090240AE054BFF0E51824FC83
:10914000F8B6FF02804D9060A0E030E21B9024084A
:10915000E0FA530201902408EAF0902409E4F09028
:10916000240AE054C0F0802B9060A4E030E5079022
:10917000240AE054C0F09060A4E030E41690240883
:10918000E0FAA3E0FB530255530355902408EAF09C
:10919000A3EBF0900264E0C4235403FABA02028005
:1091A0000D902408E0FA5302FD902408EAF0902480
:1091B00002E054FEF0E04401F0786479B97A0212DA
:1091C00000B3906098E020E45330080C758BF8757C
:1091D0008DFFD28EC203800A758B18758DFCD28EDE
:1091E000C203902402E020E1033003F6902402E061
:1091F00054FEF03003209022C2E0FA0A9022C2EA24
:10920000F09060A3E0FA4302019060A3EAF0C20389
:1092100090679B7401F0C28EC28F800E902402E092
:1092200030E1F9902402E054FEF0902408E4F0903C
:109230002409F090240AE054C0F090240AE054BFBE
:10924000F0D0180200C5900228E003035407FA5337
:1092500002039060A4E054EFF09067967420F090C1
:1092600060A4E054DFF0BA0313902402E0547FF0CE
:10927000E04440F09067957408F0804EBA02139075
:109280002402E04480F0E054BFF09067957404F04D
:109290008038BA0121902402E0547FF0E04440F08D
:1092A0009067957402F09060A4E04410F09060A480
:1092B000E04420F08014902402E04480F0902402E6
:1092C000E04440F09067957401F0900228E00303B9
:1092D0005407FB30E20B906795E025E0FB90679523
:1092E000F09066F7E0FB700D906795E0C42354E0C2
:1092F000FB906796F0EA7010902402E04420F09012
:1093000060A4E054F0F08010902402E054DFF0906C
:1093100060A4E054F04405F00200C5C018E581F5F2
:10932000182408F581902560E0FAA3E0FBA3E0FC97
:10933000A3E0FDE5182405F8A60208A60308A60484
:1093400008A605902564E0FEA3E0FFA3E0FAA3E0F1
:10935000FBC006C007C002C003E5182405F88682DA
:109360000886830886F008E6780079807A02120081
:10937000B3AA82AB83ACF0FDE58124FCF581E5184E
:109380002405F8A60208A60308A60408A605902549
:1093900068E0FAA3E0FBA3E0FCA3E0FDC002C00389
:1093A000C004C005E5182405F8868208868308866F
:1093B000F008E6780079807A021200B3AA82AB83C3
:1093C000ACF0FDE58124FCF581E5182405F8A60242
:1093D00008A60308A60408A60590256CE0FAA3E0F9
:1093E000FBA3E0FCA3E0FDC002C003C004C005E590
:1093F000182405F886820886830886F008E6780037
:1094000079807A021200B3AA82AB83ACF0FDE581C9
:1094100024FCF581E5182405F8A60208A60308A691
:109420000408A605902570E0FAA3E0FBA3E0FCA3E6
:10943000E0FDA81808A60208A60308A60408A605C9
:10944000902574E0FEA3E0FFA3E0FAA3E0FBC006D2
:10945000C007C002C003A818088682088683088651
:10946000F008E6780079807A021200B3AA82AB8312
:10947000ACF0FDE58124FCF581A81808A60208A639
:109480000308A60408A605902578E0FAA3E0FBA34C
:10949000E0FCA3E0FDC002C003C004C005A818089A
:1094A00086820886830886F008E6780079807A024A
:1094B0001200B3AA82AB83ACF0FDE58124FCF581F8
:1094C000A81808A60208A60308A60408A605902561
:1094D0007CE0FAA3E0FBA3E0FCA3E0FDC002C00334
:1094E000C004C005A8180886820886830886F0088C
:1094F000E6780079807A021200B3AA82AB83ACF0DE
:10950000FDE58124FCF581A81808A60208A6030839
:10951000A60408A60590E6AEE0FAE4FBFCFDE5181B
:109520002405F8C3E69A08E69B08E69C08E69D50E9
:1095300005758200802590E6ACE0FAA3E0FB7C0094
:109540007D00A81808C3EA96EB0896EC0896ED088B
:109550009650057582008003758201851881D018A8
:039560000200C541
:020000040000FA
:1000DE00D315D3111003D77590550040000280013F
:0C00EE000010D3019300D755D305330058
:020000040001F9
:10956300AA82300C07200D047B0C8013200C0730DB
:109573000D047B038009BA01047B0C80027B0F90EE
:1095830060A4E0540FF4FA5203902400EBC454F0A7
:10959300F5F0E0540F45F0F00200C5902402E054CA
:1095A300EFF0900054E04408F0900054E04404F0DD
:1095B300900054E04402F0900054E04401F0900025
:1095C30058E04480F0902401E04404F0902418E033
:1095D30054EFF0902418E054DFF0902405E054FE9B
:1095E300F0902405E054F7F0302710902400E05465
:1095F3000F44C0F0902405E04402F00200C590E659
:1096030007E030E2030296C4902401E030E5030250
:1096130096C49066F7E0FABA01030296C49067BE57
:10962300E0FABA01030296C490604CE020E407908C
:10963300604CE030E3030296C4902406E0543F44B8
:1096430080F09024077405F075820178F979827AA5
:10965300021200B3785B79887A021200B39024086F
:10966300E0FA5302FD902408EAF090240AE0444013
:10967300F0902405E054FDF0902405E054FEF090B2
:109683002405E054F7F0D20DD20C7582007863798B
:10969300957A011200B3902401E04420F090240253
:1096A300E054FEF0E04401F090604EE030E71290A9
:1096B3002401E054FBF0E04410F0902401E0440165
:1096C300F00200C5902401E0C4035401FABA012654
:1096D300758B18758DFCD28EC203902401E054DF84
:1096E300F0902402E020E1033003F6902402E054DA
:1096F300FEF0C28EC28F0200C590604CE020E403EE
:109703000297DD90604CE030E3030297DD90604CFC
:10971300E030E5030297DD9066F7E0FA6003029715
:10972300DD906727E0FA60030297DD90663AE02454
:1097330001F090663AE0FA7403B502004003029721
:10974300DD90663AE4F075820178F979827A021243
:1097530000B3785B79887A021200B3902409E4F0AD
:10976300902408E0FA53020D902408EAF090240AAA
:10977300E04440F0902405E054FDF0902405E054CB
:10978300FEF0902405E054F7F0902400E044F0F05C
:109793007404C0E090101078FF798F7A011200B33F
:1097A3001581785B79887A021200B3902408E0FA75
:1097B3005302F0902408EAF090240AE054BFF074B6
:1097C30004C0E090100178FF798F7A011200B3157D
:1097D30081780779847A021200B30200C590604C45
:1097E300E030E02B900264E030E209900264E05440
:1097F300FBF0802D900264E04404F078FC79967AC3
:10980300011200B3786379D37A011200B38012781E
:10981300FC79967A011200B3786379D37A01120046
:04982300B30200C5C7
:020000040002F8
:10800000C018858118AA82AB83ACF0FDE51824F96D
:10801000F8C3E69A08E69B08E69C08E69D50098AA4
:10802000828B838CF0ED800FE51824F9F8868208A6
:1080300086830886F008E6D0180200C5C018E581DE
:10804000F5182408F581902560E0FAA3E0FBA3E091
:10805000FCA3E0FDE5182405F8A60208A60308A67F
:108060000408A605902564E0FEA3E0FFA3E0FAA3C0
:10807000E0FBC006C007C002C003E5182405F8866F
:10808000820886830886F008E6780079807A0212F2
:1080900000B3AA82AB83ACF0FDE58124FCF581E559
:1080A000182405F8A60208A60308A60408A6059049
:1080B0002568E0FAA3E0FBA3E0FCA3E0FDC002C05A
:1080C00003C004C005E5182405F8868208868308E5
:1080D00086F008E6780079807A021200B3AA82ABB3
:1080E00083ACF0FDE58124FCF581E5182405F8A6B4
:1080F0000208A60308A60408A60590256CE0FAA3CA
:10810000E0FBA3E0FCA3E0FDC002C003C004C00587
:10811000E5182405F886820886830886F008E67844
:108120000079807A021200B3AA82AB83ACF0FDE53D
:108130008124FCF581E5182405F8A60208A60308A9
:10814000A60408A605902570E0FAA3E0FBA3E0FCD6
:10815000A3E0FDA81808A60208A60308A60408A61E
:1081600005902574E0FEA3E0FFA3E0FAA3E0FBC0C6
:1081700006C007C002C003A81808868208868308C4
:1081800086F008E6780079807A021200B3AA82AB02
:1081900083ACF0FDE58124FCF581A81808A602084F
:1081A000A60308A60408A605902578E0FAA3E0FB3C
:1081B000A3E0FCA3E0FDC002C003C004C005A818F2
:1081C0000886820886830886F008E6780079807A37
:1081D000021200B3AA82AB83ACF0FDE58124FCF56A
:1081E00081A81808A60208A60308A60408A60590F8
:1081F000257CE0FAA3E0FBA3E0FCA3E0FDC002C005
:1082000003C004C005A8180886820886830886F083
:1082100008E6780079807A021200B3AA82AB83ACB8
:10822000F0FDE58124FCF581A81808A60208A60344
:1082300008A60408A605E5182405F8C3E694640812
:10824000E6940008E6940008E69400500575820064
:10825000801AA81808C3E49674040896E40896E403
:10826000089650057582008003758201851881D0BB
:10827000180200C5AA82902440EA543FF5F0E05469
:10828000C045F0F0902441EA543FF5F0E054C04579
:10829000F0F0902442EA543FF5F0E054C045F0F08D
:1082A000902443EA543FF5F0E054C045F0F09024A8
:1082B00060EA543FF5F0E054C045F0F0902461EAE4
:1082C000543FF5F0E054C045F0F0902462EA543F8A
:1082D000F5F0E054C045F0F0902463EA543FF5F027
:1082E000E054C045F0F0902430740FF0E4F0902496
:1082F00034740FF0E4F00200C5AA82BA01028008CB
:10830000BA0202805F0283FD7440C0E0E4C0E07402
:1083100078C0E07461C0E0E4C0E090244075F000F3
:1083200078D779BA7A021200B3E58124FBF58190FF
:10833000243074FFF0A3F0A3F0A3747FF0902430F6
:10834000E4F0A3F0A3F0A3F090243474FFF0A3F0C2
:10835000A3F0A3747FF0902434E4F0A3F0A3F0A37F
:10836000F00283FD906178E0902440543FF5F0E006
:1083700054C045F0F0906179E0902441543FF5F00D
:10838000E054C045F0F090617AE0902442543FF50B
:10839000F0E054C045F0F090617BE0902443543FFE
:1083A000F5F0E054C045F0F0906198E090246054FE
:1083B0003FF5F0E054C045F0F0906199E090246101
:1083C000543FF5F0E054C045F0F090619AE09024FD
:1083D00062543FF5F0E054C045F0F090619BE0FA44
:1083E000902463543FF5F0E054C045F0F090243001
:1083F000740FF0E4F0902434740FF0E4F090240B48
:10840000E030E5F90200C57440C0E0E4C0E07480EB
:10841000C0E07424C0E0E4C0E090617875F00078BA
:10842000D779BA7A021200B3E58124FBF581020004
:10843000C5AA82BA00028027BA01030284B5BA0233
:10844000030284F9BA030302853DBA04030285815D
:10845000BA10030285C5BA12030285EF0286C890DE
:1084600024D0E0906148F09024D1E0906149F090F0
:1084700024D2E090614AF09024D3E090614BF090D8
:1084800024F0E090614CF09024F1E090614DF09088
:1084900024F2E090614EF09024F3E0FA90614FF006
:1084A00090240BE030E2047A0180027A009061713E
:1084B000EAF00286C89024D0E0906150F09024D178
:1084C000E0906151F09024D2E0906152F09024D37A
:1084D000E0906153F09024F0E0906154F09024F12A
:1084E000E0906155F09024F2E0906156F09024F312
:1084F000E0FA906157F00286C89024D0E09061586D
:10850000F09024D1E0906159F09024D2E090615A2B
:10851000F09024D3E090615BF09024F0E090615CF7
:10852000F09024F1E090615DF09024F2E090615EC3
:10853000F09024F3E0FA90615FF00286C89024D0B6
:10854000E0906160F09024D1E0906161F09024D2DD
:10855000E0906162F09024D3E0906163F09024F0A9
:10856000E0906164F09024F1E0906165F09024F275
:10857000E0906166F09024F3E0FA906167F0028683
:10858000C89024D0E0906168F09024D1E0906169B7
:10859000F09024D2E090616AF09024D3E090616B77
:1085A000F09024F0E090616CF09024F1E090616D27
:1085B000F09024F2E090616EF09024F3E0FA906184
:1085C0006FF00286C87440C0E0E4C0E074D0C0E040
:1085D0007424C0E0E4C0E090610075F00078D779C1
:1085E000BA7A021200B3E58124FBF5810286C890B5
:1085F00024C0E0547F9061B8547FF5F0E05480458A
:10860000F0F09024C1E0547F9061B9547FF5F0E020
:10861000548045F0F09024C2E0547F9061BA547FBA
:10862000F5F0E0548045F0F09024C3E0547F906171
:10863000BB547FF5F0E0548045F0F09024C4E05442
:108640007F9061BC547FF5F0E0548045F0F09024B9
:10865000C5E0547F9061BD547FF5F0E0548045F053
:10866000F09024C6E0547F9061BE547FF5F0E05452
:108670008045F0F09024C7E0547F9061BF547FF5AF
:10868000F0E0548045F0F0902510E0906140F090CB
:108690002511E0906141F0902512E0906142F09048
:1086A0002513E0906143F0902514E0906144F09030
:1086B0002515E0906145F0902516E0906146F09018
:1086C0002517E0FA906147F00200C5AA82BA0002BD
:1086D0008009BA02030287670287F0906148E09040
:1086E0002440543FF5F0E054C045F0F0906149E07B
:1086F000902441543FF5F0E054C045F0F090614AB9
:10870000E0902442543FF5F0E054C045F0F0906111
:108710004BE0902443543FF5F0E054C045F0F09016
:10872000614CE0902460543FF5F0E054C045F0F017
:1087300090614DE0902461543FF5F0E054C045F065
:10874000F090614EE0902462543FF5F0E054C04553
:10875000F0F090614FE0FA902463543FF5F0E0545C
:10876000C045F0F00287F0906158E0902440543FFB
:10877000F5F0E054C045F0F0906159E09024415488
:108780003FF5F0E054C045F0F090615AE09024428B
:10879000543FF5F0E054C045F0F090615BE0902468
:1087A00043543FF5F0E054C045F0F090615CE09038
:1087B0002460543FF5F0E054C045F0F090615DE076
:1087C000902461543FF5F0E054C045F0F090615EB4
:1087D000E0902462543FF5F0E054C045F0F0906121
:1087E0005FE0FA902463543FF5F0E054C045F0F0A8
:1087F000902430740FF0E4F0902434740FF0E4F01F
:1088000090240BE030E5F90200C5E582FA602B9078
:10881000604CE030E010900264E054E7F090020C0D
:10882000E0548FF08026900264E054E74408F09012
:10883000020CE0548F4430F08012900264E054E760
:108840004410F090020CE0548F4420F090000A781D
:108850008A79B57A021200B30200C59060A4E030B4
:10886000E4119024087455F0A3F090240AE054C059
:10887000F0800F90240874FFF0A3F090240AE044E5
:108880003FF0902401E054FDF0902401E054FEF00C
:1088900090240AE054BFF0902402E054F7F09024B2
:1088A00002E054FBF090240BE0547FF090240BE0A6
:0688B00054BFF00200C5F8
:020000040000FA
:1000FA00906099E0FABA1709788279A97A0212000F
:0F010A00B3906098E054FEF0902230742BF022F6
:10021E00C018858118058105819022D8E04420F010
:10022E00E054DFF09022B47414F09022E4E020E069
:10023E000A906033E054FEF00204F17A0290601FDF
:10024E00E0FBA81808A60390601CE0FC906023E079
:10025E00FD530580A8180808E4BD800104F69060DF
:10026E0020E0FEA3E0FFA3E0FDA3E0FB906024EE00
:10027E00F0A3EFF0A3EDF0A3EBF0906023E0FB53BF
:10028E00030F90A316E05407FDBD043290E62CE058
:10029E00540FFD902033E0C4540FF582C002C00409
:1002AE00C005789A79B97A021200B3AD8215818DA4
:1002BE00038B82126D9EAD82D004D0028D03BB05DE
:1002CE000040057A040204BBA8180808E660027B09
:1002DE0080C0029022B47413F09022B5A81808E6DC
:1002EE00F09022B6ECF0906020E0FDA3E0FEA3E0DB
:1002FE00FFA3E0FA9022C4EDF0A3EEF0A3EFF0A37B
:10030E00EAF0A81808B660028004D002800FD0026E
:10031E00902600E020E0030204BB0204F1A81808B6
:10032E00B68071740BB5040050030204BBEC2C2C88
:10033E009003427302036602036602039F02039F49
:10034E0002039F02039F02037602037602038602D4
:10035E000386020396020396C0048B821204F7AD45
:10036E008215818D020204BBC0048B8212095FAD1F
:10037E008215818D020204BBC0048B82120E86ADE3
:10038E008215818D020204BB8C82120D1AAD828DF4
:10039E00020204BBA81808B681477405B5040050C4
:1003AE00030204BBEC2C2C9003B9730203CB0203A3
:1003BE00CB0203D70203D70203E30203E38C8212BC
:1003CE000D53AD828D020204BB8C82120D9FAD8245
:1003DE008D020204BB8C82120E31AD828D0202049C
:1003EE00BBA81808B682677407B504005003020450
:1003FE00BBEC2C2C9004067302041E02041E020495
:10040E002E02042E02043E02043E02044D02044D4E
:10041E00C0048B82120B73AD8215818D020204BB58
:10042E00C0048B82120787AD8215818D020204BB38
:10043E00C0048B82120669AD8215818D02806EC05A
:10044E00048B82120879AD8215818D02805FA81807
:10045E0008B68317BC00028003BC0151C0048B8216
:10046E00120AC2AB8215818B028042A81808B6848C
:10047E003CBC00028005BC0134801A906020E0FB79
:10048E00530303902200E0FCEBB5042112100CABD9
:10049E00828B028018906020E0FB530303902200B1
:1004AE00E0FCEBB5040712103DAB828B0290602E80
:1004BE00EAF0906033E04401F09022B4740FF090B3
:1004CE00602EE09022B5F0906024E0FAA3E0FBA34A
:1004DE00E0FCA3E0FD9022C4EAF0A3EBF0A3ECF065
:1004EE00A3EDF0851881D01822C018858118AA8234
:1004FE00BA800280030205F0E51824FDF8B6016704
:10050E00902634E0906024F0902635E0FB90602534
:10051E00F0902636E030E70D906024E0FB430308B0
:10052E00906024EBF0902636E030E60D906024E0EB
:10053E00FB430304906024EBF0902636E030E50D8B
:10054E00906024E0FB430302906024EBF09067A6DA
:10055E00E0FB7003020663906024E0FB430301900E
:10056E006024EBF0020663902637E04420F09060A2
:10057E0020E0902634F0906021E0902635F09060D7
:10058E0020E0FB530308BB0803D38001C39228E489
:10059E003390263613E092E7F0906020E0FB530391
:1005AE0004BB0403D38001C39228E4339026361390
:1005BE00E092E6F0906020E0FB530302BB0203D30F
:1005CE008001C39228E43390263613E092E5F09032
:1005DE006020E0FB5303019067A6E4BB010104F029
:1005EE008073E51824FDF8B60126EA2AFB24D0F51F
:1005FE0082E43460F583E0906024F0EB24D0FBE4D9
:10060E003460FC8B828C83A3E0FB906025F08045E8
:10061E00EA2AFB24D0FCE43460FD906020E0FE8CDE
:10062E00828D83F0EB24D0FBE43460FC0BBB000125
:10063E000C906021E0FD8B828C83F09060CFE0FB0C
:10064E008AF005F07401800225E0D5F0FBFA420332
:10065E009060CFEBF0758200D01822C018858118FB
:10066E00AA82BA800280030206F3E51824FDF8B6CA
:10067E000528900050E0906024F0E0FB900054E0DC
:10068E00FC74E05C4203906024EBF0902411E003D4
:10069E005401FB906025F0020781906020E09000ED
:1006AE0050F0900054E0FB53031F900054EBF0E029
:1006BE00FB906020E0FC74E05C4203900054EBF091
:1006CE00906021E0540190241013E092E4F0902405
:1006DE0010E0C4540190240CE023235401FB9066D7
:1006EE00F7F0020781E51824FDF8B60536EA2A254B
:1006FE00E024B4F582E43460F583E0906024F0EAFF
:10070E0075F050A42404FB746335F0FC74412BF592
:10071E0082E43CF583E0FBE4BB000104FB90602522
:10072E00F08050EA2A25E024B4FBE43460FC9060AB
:10073E0020E08B828C83F0EA75F050A42404FB74C5
:10074E006335F0FC74412BFBE43CFC906021E0FD32
:10075E00530501E4BD000104FD8B828C83F08AF009
:10076E0005F07401800225E0D5F0FBFA9067AAE04F
:10077E00FB4AF0758200D01822C018858118AA8213
:10078E00BA8040E51824FDF8B60317900200E0FB8E
:10079E00906024EBF0900204E0FB906026EBF002F8
:1007AE000873906020E0FB900200EBF0906022E076
:1007BE00FB900000EBF0906022E0FB900204EBF067
:1007CE00020873E51824FDF8B60330EA2A25E0FB8B
:1007DE0024B4FCE43460FD8C828D83A3E0FC906035
:1007EE0024ECF0EB24B4FBE43460FC8B828C83A30A
:1007FE00A3A3E0FB906026EBF0806AEA2A25E0FBDB
:10080E0024B4FCE43460FD0CBC00010D906020E0CB
:10081E00FE8C828D83EEF0EB24B4FCE43460FD7428
:10082E00022CFCE43DFD906022E0FE8C828D83EE76
:10083E00F0EB24B4FBE43460FC74032BFBE43CFCCF
:10084E00906022E0FD8B828C83EDF09060CDE0FB1A
:10085E008AF005F07401800225E0D5F0FBFA420320
:10086E009060CDEBF0758200D01822C018858118EB
:10087E00AA82BA80028003020914E51824FDF8B694
:10088E00070C9067A8E0FB906024F0020959906075
:10089E0013E0FB53031F7C00906020E0FD53053FE7
:1008AE009067A8EDF0ED7019906013E0FE900010C7
:1008BE0025E025E054FCF5F0E0540345F0F0020984
:1008CE00597E00C005C0068B828C83127E24AD82B9
:1008DE00AE83158115818D03EEC403CBC40354077B
:1008EE006BCB5407CB6BCBFC906013E0FD53052014
:1008FE00EB4205900010ED2D25E054FCF5F0E05490
:10090E000345F0F08045E51824FDF8B60712EA24F9
:10091E007CF582E43460F583E0FB906024F0802B5C
:10092E00EA247CFBE43460FC906020E0FD53053F3C
:10093E008B828C83EDF08AF005F07401800225E045
:10094E00D5F0FBFA9067A9E0FB4AF0758200D0184B
:10095E0022C018858118AA82BA80028003020A0575
:10096E00E51824FDF8B6072C90004CE0C45403FBA8
:10097E00906024EBF090004CE003035403FB906076
:10098E0025EBF090004CE023235403FB906026EB04
:10099E00F0020ABC906022E0FBBB0102800890606E
:1009AE0022E0FBBB0206758204020ABF906020E0C3
:1009BE00FB53030390004CEBC45430F5F0E054CFDE
:1009CE0045F0F0906021E0FB53030390004CEB2BBD
:1009DE0025E0540CF5F0E054F345F0F0906022E081
:1009EE00FB53030390004CEB030354C0F5F0E054AB
:1009FE003F45F0F0020ABCE51824FDF8B6065FEAA2
:100A0E0075F050A4FBACF0EB2404FDEC3463FE74E3
:100A1E000E2DFDE43EFE906020E0FF5307038D8215
:100A2E008E83EFF0EB2404FDEC3463FE740D2DFD8C
:100A3E00E43EFE906021E0FF5307038D828E83EF2C
:100A4E00F0EB2404FBEC3463FC740C2BFBE43CFC59
:100A5E00906022E0FD5305038B828C83EDF0EA75E6
:100A6E00F050A4FAABF0EA2404FCEB3463FD740EF0
:100A7E002CF582E43DF583E0FC906024ECF0EA2452
:100A8E0004FCEB3463FD740D2CF582E43DF583E03C
:100A9E00FC906025ECF0EA2404FAEB3463FB740C52
:100AAE002AF582E43BF583E0FA906026EAF075823F
:100ABE0000D01822C018858118AA82BA8024E518A1
:100ACE0024FDF8B6010D9067BDE0FB906024EBF0BD
:100ADE00020B6D906020E0FB9067BD74015BF0022D
:100AEE000B6DE51824FDF8B601369060F7E0FB8A31
:100AFE00F005F07C017D008006EC2CFCED33FDD57D
:100B0E00F0F77E00EB5204EE5205E4BC0004BD008B
:100B1E000104FCB40100E433FC906024ECF0803F4F
:100B2E00906020E0FB30E01C9060F7E0FB8AF0055F
:100B3E00F07401800225E0D5F0FBFC42039060F7D3
:100B4E00EBF0801B9060F7E0FB8AF005F0740180FB
:100B5E000225E0D5F0FBF4FA52039060F7EBF07546
:100B6E008200D01822C018858118AA82BA8002800D
:100B7E0003020C26E51824FDF8B6013A902165E033
:100B8E0003035407FB902165E0C4035407C454F0DB
:100B9E00FCEB4204906024ECF090022CE0540FFB2E
:100BAE00900230E0C4540FC454F0FCEB4204906049
:100BBE0025ECF0020D14906020E0FB53030790210A
:100BCE0065EB2B25E0541CF5F0E054E345F0F09076
:100BDE006020E05470C4540F902165C42354E0F596
:100BEE00F0E0541F45F0F0906021E0FB53030F90AE
:100BFE00022CEB540FF5F0E054F045F0F09060212C
:100C0E00E054F0C4540FFB900230C454F0F5F0E001
:100C1E00540F45F0F0020D14E51824FDF8E6707C33
:100C2E00EA75F050A4FBACF02404FDEC3463FE74C2
:100C3E00222DFDE43EFE906020E0FF5307078D82DB
:100C4E008E83EFF0EB2404FDEC3463FE74232DFD54
:100C5E00E43EFE906020E05470C4540F8D828E836B
:100C6E00F0EB2404FDEC3463FE74242DFDE43EFE13
:100C7E00906021E0FF53070F8D828E83EFF0EB24FF
:100C8E0004FBEC3463FC74252BFBE43CFC906021EC
:100C9E00E054F0C4540FFD8B828C83F0EA75F05053
:100CAE00A4FAABF02404FCEB3463FD74222CFCE4B8
:100CBE003DFDEA2404FEEB3463FF74232EF582E43B
:100CCE003FF583E0C454F0FE8C828D83E0420690A3
:100CDE006024EEF0EA2404FCEB3463FD74242CFC57
:100CEE00E43DFDEA2404FAEB3463FB74252AF58215
:100CFE00E43BF583E0C454F0FA8C828D83E0FC4231
:100D0E0002906025EAF0758200D01822AA8290A384
:100D1E0016E05407FBBB030475820222BA0A169032
:100D2E006020E0FA530207902640EA5407F5F0E0FF
:100D3E0054F845F0F0902640E05407FA906024EA0B
:100D4E00F075820022AA8290A316E05407FBBB0323
:100D5E0002800A90A316E05407FBBB0504758202BD
:100D6E0022906020E0FB7405B503004006906020E1
:100D7E00E0700475820422EA7009906020E0FA9017
:100D8E0065F6F09065F6E0FA906024EAF075820060
:100D9E0022AA8290A316E05407FBBB0302800A909E
:100DAE00A316E05407FBBB05047582012290602256
:100DBE00E0FB53030F7405B503004003EB7004759D
:100DCE00820422BA022DEB2BFA24B0FCE434E6FDA9
:100DDE000CBC00010D906021E0FE8C828D83EEF044
:100DEE00EA24B0FAE434E6FC906020E0FD8A828CBE
:100DFE0083EDF0906026EBF0EB2BFB24B0FAE4349D
:100E0E00E6FC8A828C83A3E0FA906025EAF0EB245C
:100E1E00B0F582E434E6F583E0FA906024EAF075EA
:100E2E00820022AA8290A316E05407FBBB03028025
:100E3E000A90A316E05407FBBB05047582022290AC
:100E4E006020E0FB7405B503004006906020E07062
:100E5E000475820422BA0412906020E0FA90E62B08
:100E6E00540FF5F0E054F045F0F090E62BE0540FFF
:100E7E00906024F075820022C018858118AA82BA6B
:100E8E0080028003020F4CE51824FDF8B609459048
:100E9E00200CE003035401FB906026F030101B90F1
:100EAE00A013E023235401906025F090A01BE003D3
:100EBE00547FFB906024F002100690A00BE02323D9
:100ECE005401906025F090A012E0547FFB906024B6
:100EDE00F002100690200CE04402F0906022E0FB3D
:100EEE0030E00990200CE04404F0800790200CE0E4
:100EFE0054FBF0301025906021E0540190A01313A4
:100F0E00E092E6F0906020E0FB90A01B25E054FEFE
:100F1E00F5F0E0540145F0F0021006906021E05427
:100F2E000190A00B13E092E6F0906020E0FB90A001
:100F3E0012547FF5F0E0548045F0F0021006E518EB
:100F4E0024FDF8B6086E90E613E04410F0EA2A2568
:100F5E00E0FB2498FCE434E6FD906022E0FE5306AC
:100F6E0001BE0103D38001C39228E4338C828D83AA
:100F7E0013E092E0F0EB2484FCE434E6FD74032CE1
:100F8E00FCE43DFD906020E0FE8C828D83547FF565
:100F9E00F0E0548045F0F0EB2484FBE434E6FC747E
:100FAE00032BFBE43CFC906021E0FD8B828C8313D1
:100FBE00E092E7F0EA2A25E0FA2484FBE434E6FC2A
:100FCE008B828C83A3A3A3E0235401906025F0EAC7
:100FDE002484FBE434E6FC8B828C83A3A3A3E0542D
:100FEE007FFB906024F0EA2498F582E434E6F583E2
:100FFE00E05401FA906026F0758200D018227A0033
:10100E00902102E020E6047A028021908200E044E2
:10101E0004F0C002780279B47A021200B3D00290C2
:10102E008200E054FBF0902230742BF08A82227AF8
:10103E0000902102E020E6047A028021908200E0F6
:10104E004408F0C002784D79AD7A021200B3D00296
:10105E00908200E054F7F0902230742BF08A8222B6
:10106E0075880575895175A91C75B906D2ABD2ADB7
:10107E00D2A8D2AAC2A975B83F75C878759A3EC2D1
:10108E0005C206C207C208906711E4F0C209C20A7F
:0E109E00D203D204C21DC21E9067A7E4F02246
:020000040001F9
:10982700906038E0547FF0906098E030E1109060ED
:109837009CE0FAA3E0FB906174EAF0A3EBF0906779
:109847009BE4F07A03C002780779847A011200B3A7
:10985700D00290679BE0FB6027906037E0FBBB017D
:10986700109060407401F0906040E0FBBB01028003
:10987700F68A031AC374808BF063F08095F040C5B5
:1098870078C2799D7A011200B3787179A37A0112AF
:1098970000B3906038E04480F0906658E0FA90603A
:1098A7004AEAF0906659E0FA906049EAF090665FFC
:1098B700E0FA906048EAF090665AE0FA90604BEA66
:1098C700F00200C590614AE0FA90614BE0FBC002EC
:1098D7008B82787179B97A021200B3AB8215818BCA
:1098E7000290614EE0FBC0028B82787179B97A02EF
:1098F7001200B3AB8215818B0290614FE0FBC0026F
:109907008B82787179B97A021200B3AB8215819094
:109917006643EBF0906148E0FA906149E0FBC002D2
:109927008B82787179B97A021200B3AB8215818B79
:109937000290614CE0FBC0028B82787179B97A02A0
:109947001200B3AB8215818B0290614DE0FBC00220
:109957008B82787179B97A021200B3AA8215819045
:109967006642EAF090614AE0FA7B0090614BE0FCC6
:109977007D00EC2AFAED3BFB90614EE0FC7D00ECAC
:109987002AFAED3BFB90614FE0FC7D00EC2AFAEDF3
:109997003BA2E713CA13CAA2E713CA13CA906641C8
:1099A700EAF0906148E0FA7B00906149E0FC7D00B5
:1099B700EC2AFAED3BFB90614CE0FC7D00EC2AFAC7
:1099C700ED3BFB90614DE0FC7D00EC2AFAED3BA2FC
:1099D700E713CA13CAA2E713CA13CA906640EAF08C
:1099E700906152E0FA7B00906153E0FC7D00EC2A25
:1099F700FAED3BFB906156E0FC7D00EC2AFAED3B6B
:109A0700FB906157E0FC7D00EC2AFAED3BA2E713DF
:109A1700CA13CAA2E713CA13CA906645EAF090614F
:109A270050E0FA7B00906151E0FC7D00EC2AFAEDF2
:109A37003BFB906154E0FC7D00EC2AFAED3BFB9088
:109A47006155E0FC7D00EC2AFAED3BA2E713CA134F
:109A5700CAA2E713CA13CA906644EAF090610CE001
:109A6700FA3395E0FB90612CE0FC3395E0FDEC2A9E
:109A7700FAED3BA2E713CA13CA906646EAF0906173
:109A870004E0FA3395E0FB906105E0FC3395E0FDD7
:109A9700EC2AFAED3BFB906124E0FC3395E0FDEC0A
:109AA7002AFAED3BFB906125E0FC3395E0FDEC2ABB
:109AB700FAED3BA2E713CA13CAA2E713CA13CA9067
:109AC7006647EAF0906106E0FA3395E0FB9061079C
:109AD700E0FC3395E0FDEC2AFAED3BFB906126E0D4
:109AE700FC3395E0FDEC2AFAED3BFB906127E0FCA7
:109AF7003395E0FDEC2AFAED3BA2E713CA13CAA29D
:109B0700E713CA13CA906648EAF0906108E0FA338F
:109B170095E0FB906109E0FC3395E0FDEC2AFAED56
:109B27003BFB906128E0FC3395E0FDEC2AFAED3B26
:109B3700FB906129E0FC3395E0FDEC2AFAED3BA2AE
:109B4700E713CA13CAA2E713CA13CA906649EAF011
:109B570090610AE0FA3395E0FB90610BE0FC3395E6
:109B6700E0FDEC2AFAED3BFB90612AE0FC3395E03F
:109B7700FDEC2AFAED3BFB90612BE0FC3395E0FD11
:109B8700EC2AFAED3BA2E713CA13CAA2E713CA13DA
:109B9700CA90664AEAF090610DE0FA3395E0FB90CF
:109BA700612DE0FC3395E0FDEC2AFAED3BA2E713CB
:109BB700CA13CA90664BEAF090610EE0FA3395E05B
:109BC700FB90612EE0FC3395E0FDEC2AFAED3BA219
:109BD700E713CA13CA90664CEAF090610FE0FA33B4
:109BE70095E0FB90612FE0FC3395E0FDEC2AFAED60
:109BF7003BA2E713CA13CA90664DEAF0906110E0E2
:109C0700FA3395E0FB906130E0FC3395E0FDEC2AF8
:109C1700FAED3BA2E713CA13CA90664EEAF09061C9
:109C27005AE0FA7B0090615BE0FC7D00EC2AFAEDDC
:109C37003BFB90615EE0FC7D00EC2AFAED3BFB907C
:109C4700615FE0FC7D00EC2AFAED3BA2E713CA1343
:109C5700CAA2E713CA13CA906650EAF0906158E0A7
:109C6700FA7B00906159E0FC7D00EC2AFAED3BFBA2
:109C770090615CE0FC7D00EC2AFAED3BFB90615DB6
:109C8700E0FC7D00EC2AFAED3BA2E713CA13CAA257
:109C9700E713CA13CAFB90664FEAF09060A0E02072
:109CA700E303029D29906162E0FA7B00906163E023
:109CB700FC7D00EC2AFAED3BFB906166E0FC7D0041
:109CC700EC2AFAED3BFB906167E0FC7D00EC2AFA99
:109CD700ED3BA2E713CA13CAA2E713CA13CA9066D9
:109CE70052EAF090616AE0FA7B0090616BE0FC7DDC
:109CF70000EC2AFAED3BFB90616EE0FC7D00EC2A5C
:109D0700FAED3BFB90616FE0FC7D00EC2AFAED3B3E
:109D1700A2E713CA13CAA2E713CA13CAFB90665471
:109D2700EAF0906170E0906655F0906174E0FAA3F4
:109D3700E0FB20E103029DBF902510E0FA3395E098
:109D4700FB902511E0FC3395E0FDEAC39CFAEB9DFF
:109D5700FB902514E0FC3395E0FDEC2AFAED3BFB84
:109D6700902515E0FC3395E0FDEAC39CFAEB9D8A4C
:109D770004906656ECF0902512E0FA3395E0FB90DC
:109D87002513E0FC3395E0FDEAC39CFAEB9DFB90BD
:109D97002516E0FC3395E0FDEC2AFAED3BFB902518
:109DA70017E0FC3395E0FDEAC39CFAEB9DFB906658
:109DB70057EAF0906798E4F00200C5C0188581184B
:109DC700058178CB79987A011200B3300D37200CD2
:109DD70034906644E090665AF0906640E090665989
:109DE700F0906642E0906658F0906647E090665BB8
:109DF700F0906649E090665CF090664FE0FA9066F6
:109E07005FF0029F25200D37300C34906645E090B7
:109E1700665AF0906641E0906659F0906643E0908C
:109E27006658F0906648E090665BF090664AE0906E
:109E3700665CF0906650E0FA90665FF0029F2590AE
:109E47006644E0FA7B00906645E0FC7D002AFAED67
:109E57003BFB0ABA00010BEBA2E713CA13CA9066D1
:109E67005AEAF0906640E0FA7B00906641E0FC7D9C
:109E7700002AFAED3BFB0ABA00010BEBA2E713CA73
:109E870013CA906659EAF0906643E0FA906642E09A
:109E9700FBC0028B82787179B97A021200B3AA8269
:109EA7001581906658EAF0906647E0FA3395E0FB33
:109EB700906648E0FC3395E0FDEC2AFAED3BFB0A9F
:109EC700BA00010BEBA2E713CA13CA90665BEAF06C
:109ED700906649E0FA3395E0FB90664AE0FC3395DB
:109EE700E0FDEC2AFAED3BFB0ABA00010BEBA2E717
:109EF70013CA13CA90665CEAF090664FE0FA7B00DB
:109F0700906650E0FC7D002AFAED3BFB0ABA00019F
:109F17000BEBA2E713CA13CAFB90665FEAF09066E1
:109F27005AE0FA906659E0FBEAC39B90665DF090B1
:109F3700665DE0FA74C1C0E0743FC0E08A8278C30E
:109F470079B97A021200B3AA821581158190665DEC
:109F5700EAF0906646E0F58278A079BA7A021200B4
:109F6700B3E582FA3395E0FB90665BE0F582C002C9
:109F7700C00378A079BA7A021200B3AC82D003D0BA
:109F870002EC3395E0FDEC2AFAED3BFB90665CE0D2
:109F9700F582C002C00378A079BA7A021200B3AC86
:109FA70082D003D002EC3395E0FDEC2AFAED3BFBBF
:109FB70090664BE0F582C002C00378A079BA7A02B6
:109FC7001200B3AC82D003D002EC3395E0FDEC2A4B
:109FD700FAED3BFB90664CE0F582C002C00378A027
:109FE70079BA7A021200B3AC82D003D002EC33956F
:109FF700E0FDEC2AFAED3BFB90604DE02323540192
:10A00700FCB40100E433FC604A906658E0FC9060C1
:10A0170067E0FDECB50500B3E433FD703190606E89
:10A02700E0FDECB50500B3E433FC601690606DE02D
:10A03700FC7D00C3EA9CEB64808DF063F08095F0B3
:10A0470040047A0080027A01EA7003FA80027A01FA
:10A05700EA70047A0080027A01906666EAF09060FE
:10A067004DE023235401FAB40100E433FA60489029
:10A077006646E0F58278A079BA7A021200B3AA821E
:10A08700906066E0FBEAB50300B3E433FB7023900E
:10A09700665BE0F58278A079BA7A021200B3AA82E9
:10A0A70090606FE0FBEAB50300B3E433FB7003FA9B
:10A0B70080027A01EA70047A0080027A019066676A
:10A0C700EAF0906666E07009906667E07003FA80D0
:10A0D700027A01906668EAF090665FE0FA90604F56
:10A0E700E0543FFB8A04C3EB64808CF063F08095F7
:10A0F700F05006906655E070047B0080027B01906B
:10A107006669EBF090604DE0541FFB8A04C3EC6472
:10A11700808BF063F08095F0B3E433FC60069066C3
:10A1270055E070047B0080027B0190666AEBF0903B
:10A13700665AE0FB906659E0FCEBB5040040048CDE
:10A14700058007EB2BFBC39CFCFD906655E0601078
:10A1570090600AE020E2028D0290665EEAF08005D8
:10A1670090665EE4F0900050E0C423540390666D5F
:10A17700E4F0A3F090666DE0FAA3E0FB906088A896
:10A187001808E0035401F6906646E0FD3395E0FEBB
:10A19700900050E003540390A47A93FF3395E0FCBA
:10A1A700C002C003C007C0048D828E83127E24AC18
:10A1B70082AD8315811581A8180886067F00C00423
:10A1C700C0058E828F83127E24AC82AD83158115E4
:10A1D70081D003D002EC2AFAED3BFB90666DEAF0E2
:10A1E700A3EBF0900050E0540190A47E93FC3395CC
:10A1F700E0FD90665BE0FE3395E0FFC002C003C060
:10A2070006C0078C828D83127E24AC82AD831581B4
:10A217001581D003D002EC2AFAED3BFB90666DEA7C
:10A22700F0A3EBF0900050E0540190A48093FC332E
:10A2370095E0FD90665CE0FE3395E0FFC002C00349
:10A24700C006C0078C828D83127E24AC82AD831535
:10A25700811581D003D002EC2AFAED3BFB90666DA5
:10A26700EAF0A3EBF0900050E0540190A48293FC35
:10A277003395E0FD90664BE0FE3395E0FFC002C0EA
:10A2870003C006C0078C828D83127E24AC82AD8307
:10A2970015811581D003D002EC2AFAED3BFB9066BD
:10A2A7006DEAF0A3EBF0900054E023540190A484EE
:10A2B70093FC3395E0FD90664CE0FE3395E0FFC0DC
:10A2C70002C003C006C0078C828D83127E24AC8235
:10A2D700AD8315811581D003D002EC2AFAED3BFB43
:10A2E70090666DEAF0A3EBF0900054E023540190E0
:10A2F700666DEAF0A3EBF0900054E02354019066FA
:10A307006DEAF0A3EBF0E4C0E074FCC0E0E4C0E069
:10A317007404C0E08A828B83784479BA7A02120087
:10A32700B3AA82AB83E58124FCF58190666DEAF0E0
:10A33700A3EBF090666DE0FAA3E0FB9066CAE0FC41
:10A347003395E0FDEAC39CF582EB9DF58378B779F9
:10A35700BA7A021200B3AA82AB8390666BEAF0A3C3
:10A36700EBF0851881D0180200C5906655E07003A0
:10A37700FA804D90665FE0FB90604EE05407FC8BDF
:10A3870005C3ED64808CF063F08095F050047A018A
:10A39700802E90604DE0541FFCC3EB64808CF0630B
:10A3A700F08095F050047A028016906668E06004A9
:10A3B7007A03800C906669E070047A0480027A055B
:10A3C700906663EAF00200C5906727E0FABA0102D7
:10A3D70080089066F7E0FABA010302A47390604C14
:10A3E700E030E30302A47390604CE020E507906738
:10A3F70015E0FA600302A473906047E020E1028051
:10A407006B78C779967A011200B39000EEE493FA5D
:10A41700A3E493FB906174EAF0A3EBF078077984E7
:10A427007A011200B3906158E0FA7B00906159E01D
:10A43700FC7D00EC2AFAED3BFB90615CE0FC7D00C3
:10A44700EC2AFAED3BFB90615DE0FC7D00EC2AFA1B
:10A45700ED3BA2E713CA13CAA2E713CA13CA906057
:10A46700A1EAF0780179967A011200B30200C503D8
:0FA4770004060703040607030503050203010299
:020000040000FA
:1010AC00C018E581F5182407F581900228E00303A8
:1010BC005407FA53020390605AE003035401FBBB3C
:1010CC0001028003021266906038E030E3030212E2
:1010DC0066C00278C779967A011200B3D0029000EC
:1010EC0060E0C403540190671DF090005CE0035471
:1010FC000190671EF0902400E0C4540F906724F018
:10110C00902406E0543FFBE4CBC4CB6BCB54F0CB28
:10111C006BFC902405E0C4540FFD7E00906725ED18
:10112C004BF0EE4CA3F0900058E023235401906751
:10113C0021F0900058E0C4035401906722F09024F1
:10114C0010E0C45401906723F09066F7E0FB9067C1
:10115C009CF09066F7E4F0BA0309900060E044203C
:10116C00F0800ABA020790005CE04402F090605AEA
:10117C00E030E01DD20CC20DEA700B902400E0545C
:10118C000F44C0F08026902400E0540F4480F0807F
:10119C001BC20CD20DEA700B902400E0540F4430AB
:1011AC00F08009902400E0540F4420F0902408E4CF
:1011BC00F0A3F090240AE054C0F090240AE054BF4D
:1011CC00F0902406E0543F4480F09024077402F021
:1011DC00902405E0540F4450F0902406E054C0F0E5
:1011EC00780779847A021200B3788279A97A02128C
:1011FC0000B3900028E003547F906045F0902230BB
:10120C00742BF0A20DE43390005813E092E5F0A299
:10121C000CE43390005813E092E6F0900058E05440
:10122C00EFF078AA79AB7A011200B3902580E044F4
:10123C0001F0906059E054FCF0906058E4F0906735
:10124C000EF0A3F09067277401F0906038E044082A
:10125C00F0902230742BF002165490605AE0030385
:10126C005401FABA0102800302156B906038E0C495
:10127C00235401FABA0102800302156B906038E026
:10128C00C45401FABA0102800302156B906059E054
:10129C005403FA30E11A906059E05403FB7A00438E
:1012AC0003FC906058E0FC7D004202ED4203801983
:1012BC00906059E05403FD7C00906058E0FE7F0084
:1012CC004204EF42058C028D0390670EE0FCA3E014
:1012DC00FDEAC39CF582EB9DF583C002C003122E80
:1012EC00A2D003D00290670EEAF0A3EBF09060B0AE
:1012FC00E4F09060ACF0A3F0A3F0A3F09060B2E443
:10130C00F09060A8F0A3F0A3F0A3F09060B1E4F02B
:10131C009060E0F0A3F0A3F0A3F09060B3E4F09041
:10132C0060DCF0A3F0A3F0A3F09060A5E0540FFAFA
:10133C00BA030050047B03800F740CB502005004F8
:10134C007C0C80028A048C038B021A1A1AEA2A2556
:10135C00E0241AFAE43417FB9000E8E493FCA3E4CD
:10136C0093FD906174ECF0A3EDF0C002C00378071C
:10137C0079847A011200B3D003D002A81808760041
:10138C00A81808B6020040030214E9C002C003907A
:10139C0060B0E0FDA81808E675F002A4FEE5F0CEFA
:1013AC0025E0CE33CE25E0CE33FFEE2470FAEF34B9
:1013BC0025FB7C00C003C005C006C007C002C003EB
:1013CC00C0049060AC75F00012165AAA82158115F3
:1013DC00811581D007D006D005D003EA2D9060B0DE
:1013EC00F09060B2E0FAEE2460FBEF3425FC7D0057
:1013FC00C002C006C007C003C004C0059060A87539
:10140C00F00012165AAB82158115811581D007D0C8
:10141C0006D002EB2A9060B2F0E0FCA81808E518A0
:10142C002406F9E6F7E4C725E0C733C725E0C73340
:10143C0009F7E5182406F8E624F0FD08E63425FA49
:10144C008D828A83A3A3A3A3E02C9060B2F090605A
:10145C00B1E0FCEE2474FDEF3425FA7B00C003C030
:10146C0004C006C007C005C002C0039060E075F060
:10147C000012165AAA82158115811581D007D00643
:10148C00D004D003EA2C9060B1F09060B3E0FAEE97
:10149C002464FEEF3425FF7B00C002C006C007C0E9
:1014AC00039060DC75F00012165AAB821581158121
:1014BC001581D002EB2A9060B3F0E0FAE51824060F
:1014CC00F8E624F0F58208E63425F583E02A9060EE
:1014DC00B3F0A8180806D003D00202138C9060B2A7
:1014EC00E0FCA8180808A604087600087600087620
:1014FC0000A8180808E6080808F618181876000856
:10150C0076000876009060A8E0A3E0FDA3E0FEA3BF
:10151C00E0FF8D048E058F067F00A8180808EC46A6
:10152C00F6ED0846F6EE0846F6EF0846F68A828B8C
:10153C0083E493FCA3E493FDA3E493FEA3E493FF61
:10154C00A8180808C3E69C08E69D08E69E08E69FD6
:10155C005003021364906038E054EFF0021654907C
:10156C006727E0FABA0102800302165490605AE031
:10157C0030E203021654902580E054FEF09060385F
:10158C00E054F7F0906038E054EFF0906727E4F007
:10159C00906721E090005813E092E6F0906722E00B
:1015AC0090005813E092E5F0788279A97A02120043
:1015BC00B390671DE090006013E092E5F090671E19
:1015CC00E090005C13E092E1F0906724E09024003E
:1015DC00C454F0F5F0E0540F45F0F0906725E0FAB4
:1015EC00A3E0FB740F5A902405C454F0F5F0E054BA
:1015FC000F45F0F0EBC4CAC4540F6ACA540FCA6A40
:10160C00CA53023F902406EA543FF5F0E054C0451B
:10161C00F0F0906723E090241013E092E4F09067D0
:10162C009CE09066F7F075820278F979827A021262
:10163C0000B3902230742BF090604CE020E50978D8
:10164C000179967A011200B3851881D01822C0183E
:10165C00858118C082C083C0F0E581240BF581A878
:10166C00180886820886830886F0E5182404F91287
:10167C007F09F7A3127F0909F7A3127F0909F7A3C2
:10168C00127F0909F7E51824FBF88603088604087D
:10169C0086028B828C838AF0E5182408F8127F0965
:1016AC00F6A3127F0908F6A3127F0908F6A3127F8E
:1016BC000908F6E5182404F8E5182408F9E726FECD
:1016CC0009E70836FF09E70836FA09E70836FBA8E8
:1016DC00180886820886830886F0EE127E0BA3EF2C
:1016EC00127E0BA3EA127E0BA3EB127E0BE51824E1
:1016FC0008F8C3EE96EF0896EA0896EB08965005A4
:10170C007582018003758200851881D0182204002F
:10171C0000002800000087010000430F000096988D
:10172C000000E2F50500CB9A3B00E50B5402E8768D
:10173C00481711A5D4E87A0E7B00000000000000C9
:10174C00000000001ABAFF011BEA4B6003021746A7
:10175C002290223374FFF090220BE0547FF075F747
:10176C000175F70122C0E0C082C083C0D075D010D3
:10177C00C2AF90223374F0F0C28DC28C90223374BD
:10178C00FFF0D2AFD0D0D083D082D0E032C0D075B1
:10179C00D010C2AFC28EC28FD203D2AFD0D032C063
:1017AC00E0C082C083C0D075D010C2AF9022337419
:1017BC00F2F075C878C2C6D204906033E020E5031D
:1017CC000218692006030218699066CCE0FA7003CF
:1017DC00021869902603E020E410902600E0547F64
:1017EC00F0902601E04401F08032902609E0FA20C6
:1017FC00E71C90A316E05407FABA03028010902657
:10180C0000E04480F0902601E04401F0800E902628
:10181C0000E04480F0902601E054FEF0902603E0B6
:10182C0020E71C902126E020E215906083E04480A4
:10183C00F0902600E0547FF0902601E054FEF090EA
:10184C006083E04440F0906083E04402F090260313
:10185C00E04408F0906083E04408F0802D9026036B
:10186C00E020E0263007239066CCE0FA601C90263E
:10187C0002E04480F0906083E04401F0906083E0EB
:10188C004410F0906083E04420F090223374FFF019
:10189C00D2AFD0D0D083D082D0E032C0E0C082C0F2
:1018AC0083C0D075D010902233740DF074FFF0D03B
:1018BC00D0D083D082D0E032C0E0C082C083C0D010
:1018CC0075D010C2AF9022337403F090201BE0301F
:1018DC00E1089020537402F0E4F090201BE030E219
:1018EC00369020537404F0E4F090A31BE020E5271D
:1018FC00902007E020E520902200E0FA90E650E0EE
:10190C00FBEAB5131290A34E740EF0740CF074082D
:10191C00F0E4F0902236F090223374FFF0D2AFD086
:10192C00D0D083D082D0E032C0D075D010D0D0329D
:10193C00C0D075D010D0D032C0E0C082C083C0D02F
:10194C0075D0107A00C2AF9022337409F090201B2E
:10195C00E030E010902200E0FB90E650E0FCEBB5AC
:10196C0014027A0190201BE0FB54E17003021B115E
:10197C0090205374FBF0E4F090662BE0FB600B902E
:10198C00223374FFF0D2AF021B19902230E0FBBB64
:10199C001A028012BB1D028046BB2F028008BB308E
:1019AC00028003021A67902007E0C4035401FBBBBA
:1019BC00010B9022367401F0D205021B11EA700360
:1019CC00021B11902231741AF090223374FFF090A4
:1019DC00220BE0547FF075F70175F701021B119093
:1019EC002007E020E52C902231741AF0902236E486
:1019FC00F0902002E054FBF0902102E054BFF090F4
:101A0C00223374FFF090220BE0547FF075F70175D0
:101A1C00F701902007E020E41E902002E054FBF038
:101A2C00902002E054FBF0902002E054FBF0902058
:101A3C0003E054BFF0800E902003E04440F090206F
:101A4C0002E04404F0902102E003035401FABA01CD
:101A5C00028003021B11D205021B11902007E0200B
:101A6C00E52A902231741AF0902002E054FBF09099
:101A7C002102E054BFF090223374FFF090220BE06F
:101A8C00547FF075F70175F701021B11902007E0E8
:101A9C0020E41E902002E054FBF0902002E054FB66
:101AAC00F0902002E054FBF0902003E054BFF08053
:101ABC000E902003E04440F0902002E04404F090AB
:101ACC002102E020E22790E604E020E720902102AA
:101ADC00E054BFF0902231741DF090223374FFF06B
:101AEC0090220BE0547FF075F70175F701902102FD
:101AFC00E020E21190E604E0235401FABA010690CA
:101B0C00223A7401F090223374FFF0D2AFD0D0D0CF
:101B1C0083D082D0E032C0E0C082C083C0D075D008
:101B2C0010C2AF9022337402F090202BE030E60FFD
:101B3C009020577440F0E4F0902102E054BFF090F4
:101B4C00202BE030E70F9020577480F0E4F09020C9
:101B5C0002E054FBF0902053E04408F0E054F7F01E
:101B6C0090A316E05407FABA04239022317403F0C0
:101B7C00902238E0FA431201902238EAF0902003C8
:101B8C00E04404F0902003E04401F0800690223100
:101B9C007419F090223374FFF090220BE0547FF014
:101BAC0075F70175F70190223374FFF0D2AFD0D0E6
:101BBC00D083D082D0E032C0E0C082C083C0D07568
:101BCC00D010C2AFC29E902233740BF0902620E04E
:101BDC0020E003021C559026447401F0E4F0A207A7
:101BEC00E433FA9022B4EAF0902002E030E25A207A
:101BFC000724902601E030E550902603E04404F0E1
:101C0C00D2079066CCE4F0C20375C860C2C69022BD
:101C1C00317428F08033902231E0FABA2910C207CF
:101C2C00902603E054FEF0902603E054FBF0902243
:101C3C0031742AF0D29E90223374FFF090220BE084
:101C4C00547FF075F70175F701902143E030E52BD7
:101C5C0090215BE04420F0E054DFF0902603E0207C
:101C6C00E719902601E030E612902126E020E20BE5
:101C7C00902274E054F7F0E04408F090223374FFA3
:101C8C00F0D29ED2AFD0D0D083D082D0E032C0E0A0
:101C9C00C082C083C0D075D010C2AF9022337405FF
:101CAC00F09026447402F0E4F0A206E433FA902299
:101CBC00B4F0902601E020E603021E113006030268
:101CCC001E1190A316E05407FABA04028003021DF9
:101CDC006590E644E020E20E902037E04480F090DE
:101CEC002107E04480F0902302E023235403906604
:101CFC0000F0902303E0540F906601F0902303E072
:101D0C00235401906602F0902300E0C45403FABA05
:101D1C000114902302E0543F4480F0902303E054DC
:101D2C00F04404F08033902300E0C45403FABA0268
:101D3C0028902200E07012902302E044C0F090231F
:101D4C0003E054F04404F08010902302E0543FF080
:101D5C00902303E054F04405F0902603E04402F095
:101D6C009022317428F0D20690A316E05407FABAE8
:101D7C0003028007902636E04480F0906711E4F06F
:101D8C00C20375C860C2C6902250E054DFF0906662
:101D9C00CCE4F0902143E054DFF0902143E054BFB9
:101DAC00F09022D8E04408F0E054F7F0902603E0DD
:101DBC0030E709902604E4F0A3F0803B90671074A0
:101DCC0001F090A316E05407FABA0410902604E42C
:101DDC00F0A3F0902606E4F0A3F08010902604E423
:101DEC00F0A37440F0902606E4F0A3F0902602E0F5
:101DFC004440F0E054BFF0902602E04420F0E05460
:101E0C00DFF0021F32902601E030E63130062E90D2
:101E1C002603E0C45401FABA01239022317428F04D
:101E2C00906711E4F0C20375C860C2C6902600E04A
:101E3C0054FBF0902603E054EFF0021F3290260181
:101E4C00E020E667300664902603E020E45D9022F3
:101E5C0031E0FABA2A3AC206902600E054FBF09020
:101E6C002603E054EFF0902603E054FDF090A31607
:101E7C00E05407FABA04199067B2E090203713E0E7
:101E8C0092E7F09067B3E0FA90210713E092E7F045
:101E9C009022317429F090223374FFF090220BE0E1
:101EAC00547FF075F70175F701807B902601E030C7
:101EBC00E674300671906711E4F0C20375C860C215
:101ECC00C6902250E054DFF0902274E054F7F0906A
:101EDC002600E054FBF0902603E054EFF09026032C
:101EEC00E054FDF090A316E05407FABA0419906779
:101EFC00B2E090203713E092E7F09067B3E0FA90ED
:101F0C00210713E092E7F09067107401F0902231F2
:101F1C007429F090223374FFF090220BE0547FF080
:101F2C0075F70175F70190223374FFF0D2AFD0D062
:101F3C00D083D082D0E032C0E0C082C083C0D075E4
:101F4C00D010C2AF902102E054F7F0902233740A03
:101F5C00F090223AE0600E90223AE4F0902102E0F8
:101F6C004408F08008D208902231742CF09022336F
:101F7C0074FFF0D2AFD0D0D083D082D0E032C02565
:101F8C00C0E0C0F0C082C083C0D075D010C018852E
:101F9C0081180581058105817A00C2AF90223374C6
:101FAC0007F0902621E020E1030225B0902645E0C1
:101FBC004402F0E054FDF0D2AF902603E020E10A99
:101FCC00902600E020E0030225B090260BE0FB9069
:101FDC00260AE0FC90260AE0A3E0902609E0FD909A
:101FEC002608E0A3E030060E902601E023235401DE
:101FFC00FEBE0102801F200A030225B0902601E0DC
:10200C0030E6030225B0902600E05401FEBE01022A
:10201C0080030225B0C012ECC4540FFE531603EC1F
:10202C000303543FFFA8180874035FF6A8180808A8
:10203C0074035CF67F0090A316E05407FABA04020E
:10204C008004D0128038D012C016EBC4540FFEE5B9
:10205C00182403F874035EF6E5182403F8E6D0168A
:10206C0030E009E5182403F876048039E5182403D8
:10207C00F8E630E130E5182403F876058027EB54B8
:10208C00E06013C01774E05BFFBFE005D0170225BA
:10209C00B0D017022554EB0303543FFBE51824037F
:1020AC00F874035BF6E5182403F8E6700302219537
:1020BC00ED30E7030225B0ED30E60F90A316E054A7
:1020CC0007FBBB040280030225B09067A6E0FB600F
:1020DC0003022554E5182403F8E625E0FA24B0F5AC
:1020EC0082E434E6F583E0FB902634EBF0EA24B08E
:1020FC00FAE434E6FB8A828B83A3E0FB902635EB73
:10210C00F0902634E0C4540FFA90600FE0540FFBAB
:10211C00EAB5130040047F20800E902634E054F082
:10212C0070047F3080027F10C017902635E0C454B5
:10213C000FFB90600EE0540FFFEBB51700D017406B
:10214C00054317088010902635E054F070054317AE
:10215C000C8003431704C017902635E0540FFB90F6
:10216C00600FE0C4540FFFEBB51700D017400643C7
:10217C001702022554902635E0540F7006431703BE
:10218C00022554431701022554E5182403F8743F23
:10219C005CF6E5182403F8E670030225547B00BBBB
:1021AC000B005014EB9027B793FCE5182403F8E6CA
:1021BC00B5140280030B80E7BB0B004003022554CF
:1021CC00ED30E7030225B0ED30E60F90A316E05496
:1021DC0007FBBB040280030225B09067A6E0FB60FE
:1021EC000302246A902635E0C4540FFB90600EE085
:1021FC00540FFCEBB514009228B39217902635E0DF
:10220C00C4540FFBB401009218902635E0540FFB18
:10221C0090600FE0C4540FFCEBB514009228B392FD
:10222C0019902635E0540FFBB40100921A90263415
:10223C00E0C4540FFB90600FE0540FFCEBB514009E
:10224C009228B3921B902634E0C4540FFBB40100C7
:10225C00921CE5182403F8B601030223C3E51824E5
:10226C0003F8B60203022389E5182403F8B6040325
:10227C00022368E5182403F8B605028060E51824EB
:10228C0003F8B60803022347E5182403F8B60A023C
:10229C00802DE5182403F8B61003022434E5182425
:1022AC0003F8B614028074E5182403F8B620030270
:1022BC0023FCE5182403F8B62802803F02246A2088
:1022CC001916902635E0540FFB0B902635EB540F66
:1022DC00F5F0E054F045F0F07A0102246A201A1669
:1022EC00902635E0540FFB1B902635EB540FF5F080
:1022FC00E054F045F0F07A0102246A201B18902675
:10230C0034E0C4540FFB0B902634EBC454F0F5F0BE
:10231C00E0540F45F0F07A0202246A201C18902633
:10232C0034E0C4540FFB1B902634EBC454F0F5F08E
:10233C00E0540F45F0F07A0202246A3017030224AD
:10234C006A902635E0C4540FFB0B902635EBC45431
:10235C00F0F5F0E0540F45F0F002246A3018030257
:10236C00246A902635E0C4540FFB1B902635EBC431
:10237C0054F0F5F0E0540F45F0F002246A301903E4
:10238C0002246A201818902635E0C4540FFB1B90C9
:10239C002635EBC454F0F5F0E0540F45F0F09026E0
:1023AC0035E0540FFB0B902635EB540FF5F0E05451
:1023BC00F045F0F002246A301A0302246A20171840
:1023CC00902635E0C4540FFB0B902635EBC454F02B
:1023DC00F5F0E0540F45F0F0902635E0540FFB1B60
:1023EC00902635EB540FF5F0E054F045F0F0806E8C
:1023FC00201B6B902634E0C4540FFB0B902634EB5F
:10240C00C454F0F5F0E0540F45F0F020185090262D
:10241C0035E0C4540FFB1B902635EBC454F0F5F09B
:10242C00E0540F45F0F08036201C33902634E0C485
:10243C00540FFB1B902634EBC454F0F5F0E0540F12
:10244C0045F0F0201718902635E0C4540FFB0B9084
:10245C002635EBC454F0F5F0E0540F45F0F090261F
:10246C0035E0C4540FFB90600EE0540FFCEBB51438
:10247C00009228B39217902635E0C4540FFBB40198
:10248C00009218902635E0540FFB90600FE0C45476
:10249C000FFCEBB514009228B39219902635E0543A
:1024AC000FFBB40100921A902634E0C4540FFB9039
:1024BC00600FE0540FFCEBB514009228B3921B9004
:1024CC002634E0C4540FFBB40100921CBE010B3047
:1024DC001C047F3080107F10800CBE0209301B045E
:1024EC007F2080027F10EA7024A81808B6010D30F6
:1024FC00180543170C80164317048011A81808B64A
:10250C00020B3017054317088003431704A818085B
:10251C0008B6010D301A05431703801743170180C5
:10252C0012A8180808B6020B3019054317028003CD
:10253C00431701BA0107EF2F25E0FB4217BA020837
:10254C00EF0303543FFA42177A00902604EFF0A3EE
:10255C00EAF0902603E020E740200A3D906711E066
:10256C00FA600F902605E0FA431280902605EAF0F7
:10257C008027906710E0FA602090A316E05407FAC9
:10258C00C374818AF063F08095F0400D902605E0CD
:10259C00FA431240902605EAF0902602E04420F01F
:1025AC00E054DFF090223374FFF0D2AF851881D065
:1025BC0018D0D0D083D082D0F0D0E0D02532C0D08B
:1025CC0075D010C2AFD2AFD0D032C0E0C082C083C1
:1025DC00C0D075D010C2AFC29F902233740CF09053
:1025EC002143E030E62090215BE04440F0E054BF12
:1025FC00F0902601E030E60E902126E030E20790C4
:10260C002274E054F7F090223374FFF0D29FD2AFD3
:10261C00D0D0D083D082D0E032C0E0C0F0C082C035
:10262C0083C0D075D010C2AFD2BB9022337404F0EB
:10263C00902288E030E3609022D8E04408F0E05427
:10264C00F7F0906033E030E44E30064B9066CCE00F
:10265C00FA6044902603E020E73D902126E020E23A
:10266C003690A316E05407FAC374818AF063F080A5
:10267C0095F04015906083E04480F0902600E05483
:10268C007FF0902601E054FEF0902603E04408F021
:10269C00906083E04440F0902288E030E51990226D
:1026AC00D8E04420F0E054DFF09022E4E020E00792
:1026BC00906033E054FEF090A2E4E020E2030227A5
:1026CC008C90A2F4E04404F0E054FBF090A2FCE007
:1026DC00700890A2FAE4F0022776902007E020E53B
:1026EC000D90A2FCE0FA90A2FAEAF002277690A2F2
:1026FC00FCE0FABA020790A31BE020E25B90A2FC7C
:10270C00E0FABA030790A34FE020E04C90A2FCE063
:10271C00FABA040790A319E020E63D90A2FCE0FA77
:10272C00BA050790A34EE020E52E90A2FCE0FABA81
:10273C000608902238E0FA20E11E90A2FCE0FABADA
:10274C0007079067BAE0FA700F90A2FCE0FABA089B
:10275C00139067BAE0FA700C90A2FCE0FA90A2FA1F
:10276C00EAF0800690A2FA7401F090A2FCE06009F5
:10277C0090A2FBE04401F0800790A2FBE054FEF035
:10278C0090223374FFF0D2BBD2AFD0D0D083D082A2
:10279C00D0F0D0E032C0D075D010C2AF109802800B
:1027AC00001099028000D2AFD0D032000405080A84
:0627BC00142802012010A8
:060000000200C80218A76F
:03000B0002177168
:030013000219349B
:03001B0002179930
:030023000227A110
:03002B000217AB0E
:01003300329A
:01003B003292
:03004300021F8A0F
:03004B00021B2273
:030053000218C4CC
:03005B0002262555
:03006300021C9AE2
:03006B000225CAA1
:01007300325A
:01007B003252
:01008300324A
:03008B0002193C1B
:030093000219440B
:03009B00021F43FE
:0300A300021BC37A
:0300AB000225D655
:0300DB000200AE72
:0500AE001227C680FED0
:1027C20090000122758E00C2AF12106E902231E08D
:1027D200902230F0902231E4F0902234F090E649D9
:1027E200E0035401FA9067B8F090A320E030E66469
:1027F20090223CE0FA530201BA013B90A318E04454
:1028020020F090662B7401F0781079BD7A011200E5
:10281200B3782D79C87A021200B390E649E04402F7
:10282200F090E651E4F090E652F090E62EE030E6C9
:10283200059060CDE4F0902200E0FA90E650E0FBD3
:10284200EAB5030B90A320E04480F0E0547FF090BF
:102852002230E4F090223CE0FA43020190223CEA6A
:10286200F0902230E07014785A79B57A011200B3F0
:10287200784579F57A011200B38009787779E67A9A
:10288200011200B390662BE0FA700990220BE0442B
:1028920080F0D2AF902230E0FABA03028069BA190E
:1028A20002802EBA1A02802EBA1D02803FBA270376
:1028B20002293BBA2802803FBA2902803ABA2A0288
:1028C2008035BA2B02804BBA2C028030BA2F6A8034
:1028D200101261888063782579FB7A011200B38037
:1028E2005878BD79FB7A011200B3804D78E579FD05
:1028F2007A011200B3804212349D803D783F79CA3A
:102902007A011200B3803278F179D87A011200B3D9
:102912008027782979E17A011200B3902231E070A0
:102922001878E079977A011200B3789779A47A013E
:102932001200B3902230742BF020080790201BE085
:1029420030E34890223AE06039902102E054F7F0F7
:10295200902053E04408F0E054F7F090A316E054BE
:1029620007FABA030C900064788A79B57A021200E9
:10297200B390223AE4F0C208902102E04408F00247
:102982002A0C902230742CF0022A0CA206720750F4
:10299200089022307428F08071200618902601E0F9
:1029A20030E6119022B47498F078DA79D77A01126D
:1029B20000B3805620072A902601E030E5239022BA
:1029C200B47499F0C2AF9026447401F0E4F09022FE
:1029D200307428F0902603E04404F0D207D2AF808E
:1029E200299025F5E030E00F906714E0FA60089036
:1029F2002230743BF0801390E608E030E00C902225
:102A0200307403F09067B17401F09022E4E030E09A
:102A12000A906033E020E00312021E90603AE02345
:102A2200235401FABA0103124A48902231E060139A
:102A3200902231E0FA902230F0902231E4F0C20587
:102A42000228961210AC78CF79A37A011200B390C3
:102A52006098E05401FABA01031200FA902297E05A
:102A6200235401FAB40100E433FA90229713E0925E
:052A7200E7F0022896C8
:0502000017170C0002BD
:102A7700AA829066F8E0FBEAB50301229066F8EABD
:102A8700F07403B50200500122EA2A2A902A9773AC
:102A9700022AA3022AB9022AD9022AEC900058E096
:102AA70054DFF0900058E054BFF0900058E054EF26
:102AB700F022A20DE43390005813E092E5F0A20C47
:102AC700E43390005813E092E6F0900058E054EF9A
:102AD700F022900058E04420F0900058E04440F085
:102AE700E054EFF022900058E054DFF0900058E0F7
:102AF70054BFF0E04410F022906662E0FA906661FD
:102B0700E0FBC0028B82122B13158122C01885812E
:102B17001805810581AA8290604FE030E703022CF7
:102B2700AE906799EAF0E51824FDF8860390679A56
:102B3700EBF090600AE054DFF09066F8E0FC702755
:102B4700906046E0C39AC39BFDA81808A60590604D
:102B570045E0FE900028E003547FFFC003EEC39FCB
:102B6700FEFDD003022C49BC016B9067A7E0FE5322
:102B77000601BE0030900058E0C4035401FE9000E7
:102B870058E023235401FFEEB5070280189067151C
:102B9700E0FE7011C002C00378AA79AB7A01120077
:102BA700B3D003D002906046E0C39AFEA81808A6E7
:102BB70006906045E0FEC002EBFF3395E0EEC39F51
:102BC700FE900028E003547FFA7F00EEC39AFEFDD3
:102BD700D002022C49BC0232906046E0FEA81808D9
:102BE700A606906045E0FEEAFF3395E0EEC39FFE40
:102BF700EBFD3395E0EEC39DFE900028E003547F84
:102C0700FD7F00EEC39DFEFD8038BC033590604616
:102C1700E0FCA81808A604906045E0FC906796E0E1
:102C2700FDEAFE3395E0EE2DFDEBFE3395E0FFEE7A
:102C37002D2CFC900028E003547FFD7E00ECC39D03
:102C4700FCFDA81808C3E6648094C04007A81808CC
:102C5700E624C0F6A818088682C002C003C0051281
:102C67002DE6D005D003D002C3ED648094C640069C
:102C7700ED2480FD800CC3ED6480943A5004748089
:102C87002DFDEDFC3395E0FD8C828D83C002C003E2
:102C9700122EA2D003D002C0038A82122CB415814F
:102CA70090600AE04420F0851881D01822C018856A
:102CB7008118AA829066F8E0FB7403B503005003FD
:102CC700022DE3EB2B2B902CD173022CDD022CDD94
:102CD700022D08022D74900038E00303543FFBC314
:102CE70074A28BF063F08095F0500A900224E054B0
:102CF700F3F0022DE3900224E054F34404F0022D94
:102D0700E3E51824FDF8E62AFB902F2CE493FCC397
:102D1700EB64808CF063F08095F0500A900224E019
:102D270054F3F0022DE3902F2DE493FCC3EB648062
:102D37008CF063F08095F0500C900224E054F3443B
:102D470004F0022DE3902F2EE493FCC3EB64808CF8
:102D5700F063F08095F0500C900224E054F344089F
:102D6700F0022DE3900224E0440CF0806F90679608
:102D7700E0FCEA2CFAE51824FDF8E62AFB902F2F51
:102D8700E493FAC3EB64808AF063F08095F050090E
:102D9700900224E054F3F08043902F30E493FAC379
:102DA700EB64808AF063F08095F0500B900224E08A
:102DB70054F34404F08025902F31E493FAC3EB6475
:102DC700808AF063F08095F0500B900224E054F372
:102DD7004408F08007900224E0440CF0D01822C089
:102DE7001885811805810581AA82900038E00303C0
:102DF700543FFBC003740CC0E0743AC0E08A827889
:102E0700C379B97A021200B3AA8215811581D0035A
:102E1700EBB50203022E9CEAFC3395E0FDEC24FEA1
:102E2700FEED34FFFFA81808A603EB3395E008F67C
:102E3700A81808C3E69E08E664808FF063F08095C3
:102E4700F050040B0B802074022CFCE43DFDA81805
:102E570008C3EC96ED64800886F063F08095F05027
:102E6700041B1B80028A03900038EB2B25E054FCDF
:102E7700F5F0E0540345F0F0C002C003786479B977
:102E87007A021200B3783979807A011200B3D0033D
:102E9700D002022E17851881D01822AA82AB83EAA6
