:020000040001F9
:10800000AA82AB837C00BC0800502AEC2CFDFE90B9
:1080100083FD93CEA393FFED90840D93CDA393F8AE
:10802000EA5205EB5200EEB50508EFB50004758283
:1080300001220C80D175820022C018E581F5182438
:1080400008F581E5182404F87600087600E5182480
:1080500006F87600900030E003540790841D93905A
:10806000661DF0900034E00303543F90661EF090CC
:108070000034E003540190661FF0783579817A026C
:108080001200B3AD829022B6EDF0906008E0FEBE23
:1080900001047E0880027E01A818080876BC0876D4
:1080A000029022B5EEF030165CED6009906614E0A7
:1080B0002401F08009906614E014906614F0906634
:1080C00014E0FC700CFD90E643E0FF906614F08035
:1080D00034C00690E643E0FFE4CF25E0CF33FE7ADC
:1080E00000C3EC9FEA64808EF063F08095F0D006C8
:1080F000400D7D0190E643E0FA906614F08006752D
:108100008201028224BD0111C00678A679817A021B
:108110001200B3AA82D0068011C006784D79827A07
:10812000021200B3AB82D0068B02EA600302821D0A
:10813000C00678A579837A011200B3D00630160AFA
:10814000E5182406F8760102821DC006783579818B
:108150007A021200B3AA82D0068A059022B6EDF008
:10816000A81808E6B505028011A81808A605BE08DB
:10817000047E028005BE02027E01E5182404F80890
:10818000E618C625E0C63308F68D027B00E5182404
:1081900004F8EA46F6EB0846F6E5182404F8E51874
:1081A0002407F9E6F70809E6F77C00BC0800503B15
:1081B000C006EC2CFFFE9083FD93CEA393FAEFFB59
:1081C00090840D93CBA393FFE5182407F8E65203A0
:1081D00008E65207EEB50306EAB507028004D006AA
:1081E0008006D0067A0180050C80C07A00EA601013
:1081F000E5182406F87601906006E04408F0801D3A
:1082000090E649E020E00AA818080816B6FF020820
:1082100016A8180808E6084660030280A1E518249D
:1082200006F88682851881D0180200C590A316E052
:108230005407FABA03079067B3E0FA80129067B365
:10824000E0FB7401B5030050047A0080028B0290B9
:108250002230740FF0900228E003035407FB53030D
:1082600004E4BB000104FB906006E054F7F090606A
:1082700001E054FDF090E60AE003035401FCBC0168
:1082800002800A906003E05401FCBC0144EA2AFC2D
:1082900024AAFDE43465FEEB2DF582E43EF583E08F
:1082A00090661EF0EC24B2FDE43465FEEB2DF58201
:1082B000E43EF583E0906620F0EC24A2FCE4346513
:1082C000FDEB2CF582E43DF583E0FC90661FF08029
:1082D0001290661E7431F09066207405F090661F4F
:1082E0007401F0906620E090841D9390661DF0C0AC
:1082F00002C00378A579837A011200B3D003D002BB
:10830000906008E0600302839290E60AE030E203A6
:10831000028392C002C003783979807A011200B3D7
:10832000AC82D003D002906005EC13E092E1F090B3
:108330000030E0035407FCEA2433FDE43466FEEC2D
:1083400090841D938D828E83F0EA2AFA24AAFCE49D
:108350003465FDEB2CFCE43DFD90661EE08C828DC7
:1083600083F0EA24B2FCE43465FDEB2CFCE43DFD33
:10837000906620E0FE8C828D83F0EA24A2FAE43439
:1083800065FCEB2AFBE43CFD90661FE0FA8B828DD6
:1083900083F0906001E04402F090E643E0FA9066DA
:1083A00014F00200C590661EE090003425E025E040
:1083B00054FCF5F0E0540345F0F090661FE09000A7
:1083C0003413E092E1F090661DE0FAC3136202906C
:1083D0006620EAF0900030EA2A540EF5F0E054F1FD
:1083E00045F0F0900034E04401F0787979B97A02F0
:1083F0001200B3900034E054FEF00200C505000AFC
:10840000003300CC00C701380E0F0FF0F00F000F43
:1084100000FF00FF00FF0FFF0FFFFFFFFF00010342
:0584200002070604053F
:020000040002F8
:10800000900218E04402F090E60AE030E216906038
:1080100014E0FA900030C454F0F5F0E0540F45F04D
:10802000F00281329022307410F0906006E054FB30
:10803000F0906002E054F7F07A0090002CE04401E8
:10804000F0900030E0540F4480F090000AC00278B5
:108050008A79B57A021200B3D0027B007C30C0026C
:10806000C003C004783579817A021200B3AD82D0A2
:1080700004D003D002BD011A900030E0C4540FFEBA
:108080000E900030EEC454F0F5F0E0540F45F0F0DF
:108090008018900030E0C4540FFE1E900030EEC4F3
:1080A00054F0F5F0E0540F45F0F090000AC002C023
:1080B00003C004C005788A79B57A021200B3D005EE
:1080C000D004D003D002EA2AFAED42020BC002C06B
:1080D00003C004C0038A82784179B77A021200B3E0
:1080E0001581D004D003D00292285009906006E098
:1080F0004404F08023900030E0C4540FFDBD0F0213
:108100008016900030E054F0600E90E649E020E0E8
:10811000011CEC600302805E90002CE054FEF090A5
:108120000030E0C4540FFA906014F0906002E04414
:1081300008F00200C5902152E054FEF0E04401F046
:10814000E054FEF0902150E05401FAF5820200C59F
:1081500090661EE090003425E025E054FCF5F0E048
:10816000540345F0F090661FE090003413E092E174
:10817000F090661DE0FAC3136202900030EA2A54C0
:108180000EF5F0E054F145F0F0900034E04401F0D9
:10819000900002788A79B57A021200B3900034E038
:1081A00054FEF00200C57A0090661EE0FBBB312E43
:1081B00090661DE0FCBC060E90661E7433F090665F
:1081C0001FE4F0028232BC070890661E7430F08013
:1081D0006190661E7432F090661FE4F08054BB32EA
:1081E000028003BB332F90661DE0FCBC0614906632
:1081F0001E7431F090661D7407F090661F7401F0D4
:10820000803090661EE4F090661DEC04F090661FCE
:108210007401F0801D90661DE0FCBC070FEB70043C
:108220007A018024EB1490661EF0800690661EEBA7
:1082300004F09022B5E0FBFC1B9022B5EBF074013A
:10824000B5040050030281A88A820200C57A00901A
:10825000661DE0FBBB072390661EE0FCBC3113905B
:10826000661E7433F090661D7406F090661FE4F08D
:10827000804A90661EEC04F0804290661EE0FCBCD2
:1082800032028003BC330E90661E7431F090661F7C
:108290007401F08027EC701E7401B503005013EBDD
:1082A0001490661DF090661E7433F090661FE4F023
:1082B000800A7A01801CEC1490661EF09022B5E0D2
:1082C000FBFC1B9022B5EBF07401B50400500302D7
:1082D000824F8A820200C59060087401F0902200EB
:1082E000E0FA90E650E0FBEAB5035B90661CE0FA2A
:1082F000705490E632E0C4540125E024CCFAE43412
:10830000E5FB90E61EE0FC2AF582E43BF583E0FA0B
:1083100090E63CE0FB90660DF09082D8EA2A25E0DA
:1083200054FCF5F0E0540345F0F09082D8E04401AD
:10833000F090822CE04480F09082D8E054FEF090DF
:10834000822CE0547FF0A20EE4332494F582E434CE
:1083500065F583E090001CC4035438F5F0E054C781
:1083600045F0F090E632E003540125E02496FBE46A
:108370003465FCA20EE4332BF582E43CF583E0F592
:1083800082785079A77A021200B3A20EE433249ABD
:10839000F582E43465F583E0900024C42354E0F5CD
:1083A000F0E0541F45F0F090E632E003035401255D
:1083B000E0249CFBE43465FCA20EE4332BF582E45C
:1083C0003CF583E0F582781B79A97A021200B3901C
:1083D0000038E054034478F0900228E00303540787
:1083E000FA530204E4BA000104FAA20EE43325E0D1
:1083F00024AAFBE43465FCEA2BF582E43CF583E037
:1084000090003425E025E054FCF5F0E0540345F0FD
:10841000F0A20EE43325E024B2FBE43465FCEA2B41
:10842000F582E43CF583E090003025E0540EF5F051
:10843000E054F145F0F0A20EE43325E024A2FBE481
:108440003465FCEA2BF582E43CF583E090003413BC
:10845000E092E1F0900034E04401F0E054FEF0904E
:10846000E631E023540125E02470FAE43465FBA2F0
:108470000EE433FC2AF582E43BF583E090021C25F0
:10848000E025E054FCF5F0E0540345F0F090E647B9
:10849000E090660AF0A20EE4332474F582E43465B9
:1084A000F583E090021C13E092E1F0900044E04478
:1084B00010F0900220E04401F0900044E054EFF00E
:1084C000900220E054FEF0906616E0FA90A316E0C9
:1084D0005407FBBB04027A0090E633E003540175B5
:1084E000F005A42476FBE43465FCEA2BF582E43C39
:1084F000F583E090022025E025E054FCF5F0E054FF
:108500000345F0F090E639E0906609F0EA2480F542
:1085100082E43465F583E090022013E092E1F0906C
:108520000044E04410F0900220E04401F090004448
:10853000E054EFF0900220E054FEF090E633E05477
:108540000175F005A42485FBE43465FCEA2BF58273
:10855000E43CF583E090004025E025E054FCF5F094
:10856000E0540345F0F090E638E0906608F0EA2425
:108570008FF582E43465F583E090004013E092E1EA
:10858000F0900044E04410F0900220E04401F090AC
:108590000044E054EFF0900220E054FEF090E63208
:1085A000E023540125E0246AFAE43465FBA20FE4D9
:1085B00033FC2AF582E43BF583E090024C25E0543D
:1085C0007EF5F0E0548145F0F090E63FE0FA9066E9
:1085D00010F0900220E04401F0E054FEF0900258C8
:1085E000E05407604390E632E02323540125E02461
:1085F00064FAE43465FBA20FE433FC2AF582E43B21
:10860000F583E090025C25E025E054FCF5F0E054B1
:108610000345F0F090E63EE0FA90660FF0900220FD
:10862000E04401F0E054FEF0906008E4F00200C580
:108630009060087401F0A20EE4332494F582E434CF
:1086400065F583E090001CC4035438F5F0E054C78E
:1086500045F0F090E632E003540125E02496FAE478
:108660003465FBA20EE4332AF582E43BF583E0F5A2
:1086700082785079A77A021200B3A20EE433249ACA
:10868000F582E43465F583E0900024C42354E0F5DA
:10869000F0E0541F45F0F090E632E003035401256A
:1086A000E0249CFBE43465FCA20EE4332BF582E469
:1086B0003CF583E0F582781B79A97A021200B39029
:1086C0000228E003035407FA530204E4BA00010449
:1086D000FAA20EE43325E024AAFBE43465FCEA2B7D
:1086E000F582E43CF583E090003425E025E054FC7D
:1086F000F5F0E0540345F0F0A20EE43325E024B297
:10870000FBE43465FCEA2BF582E43CF583E0900061
:108710003025E0540EF5F0E054F145F0F0A20EE4FF
:108720003325E024A2FBE43465FCEA2BF582E43C2B
:10873000F583E0FA90003413E092E1F0900034E029
:108740004401F0E054FEF0906008E4F00200C5E55A
:1087500082FA25E0FB24D0FCE434E5FD90E61FE03E
:108760002CFCE43DFD901010E0C423541FFE530682
:108770001F8C828D83EEF0EB24D4FBE434E5FC9077
:10878000E61FE02BFBE43CFC901014E0540FFD537B
:10879000050F8B828C83EDF0EA2A25E024D8FAE4D9
:1087A00034E5FB90E61FE025E02AFAE43BFB906607
:1087B00021E0FCA3E0FD8A828B83ECF0A3EDF002C4
:1087C00000C5E582FA25E0FB24D0FCE434E5FD9009
:1087D000E61FE0FE2CF582E43DF583E0901010C426
:1087E0000354F8F5F0E0540745F0F0EB24D4FBE433
:1087F00034E5FC90E61FE0FD2BF582E43CF583E0D8
:10880000901014540FF5F0E054F045F0F0EA2A25EA
:10881000E024D8FAE434E5FB90E61FE025E02AF5F1
:1088200082E43BF583E0FAA3E0FB906621EAF0A343
:10883000EBF08B04901018ECC42354E0F5F0E054F6
:108840001F45F0F090101CEAF00200C5C2AF906620
:1088500021E0FAA3E0FBFC901018ECC42354E0F5EF
:10886000F0E0541F45F0F090101CEAF0901014E076
:0C8870004440F0E054BFF0D2AF0200C55D
:020000040001F9
:10842500906003E054FEF0902232E4F0902033E0B7
:10843500C4540FFA906615F090E62CE0540FFBC07B
:10844500038A8278AF79B97A021200B3AA821581BC
:10845500906615EAF0902117E0C4540FFA9066165D
:10846500F090E62CE0540FFBC0038A8278AF79B90F
:108475007A021200B3AA821581906616EAF090631B
:1084850001E0FAFB906300E0FCB50300403AEB75B0
:10849500F050A4FCADF02404FEED3463FF8E828F12
:1084A50083A3E0FEBE01028016EC2404FCED3463D8
:1084B500FD74162CF582E43DF583E0FCBC0104D285
:1084C500128002D2110B80BC906615E0FA75F0504F
:1084D500A4FBACF02404F582EC3463F583E0FD9055
:1084E5006792F0BD021390A316E05407FEBE030980
:1084F500D20F9067B4EDF080247401B50500400AF1
:1085050090A316E05407FEBE0409C20F9067B4E4B9
:10851500F0800AED24FF920F9067B4EDF0EB240490
:10852500FBEC3463FC8B828C83A3E024FF921090D8
:108535002200E0FB90E650E0FCEBB50402800E90D3
:10854500E604E030E43890A329E020E33190831C71
:10855500E054F94404F090A3417408F07409F074F0
:108565000DF090A329E04408F090E607E030E40E12
:1085750090A32BE04402F090A32BE04404F0782D67
:1085850079B87A021200B330141C90E60874FCF036
:10859500A374FFF0A3F0A3740FF078B2798D7A017C
:1085A5001200B30289E5902102E054F7F090200310
:1085B500E04404F0902003E04401F0900218E04408
:1085C50004F0900244E0547FF090600AE054DFF03C
:1085D5009022B47431F0906792E0FB9022B7F0A23C
:1085E50012E4339022B9F0A210E4339022BAF0904D
:1085F5006624E09022BCF090661CE09022BDF090CD
:108605006793E0FCEBB50402800D902238E0FB5344
:108615000301BB01028018902238E0FB530301BB24
:10862500010D90A316E05407FBBB04030287E790F6
:108635002200E0FB90E650E0FCEBB5041D90E60857
:10864500E054FEF0902238E0FB530301BB010280A9
:1086550009783D79CB7A021200B3A212B39228E4CD
:108665003390A32413E092E0F0902200E0FB90E623
:1086750050E0FCEBB50402800302875A788C79C779
:108685007A021200B390A316E05407FBBB030280E5
:108695001390A316E05407FBC374818BF063F0803D
:1086A50095F040047B0180027B007C00BC02004009
:1086B500030287469022B47410F074702B9022BA8E
:1086C500F08B82C0041238E6780079C97A0112006D
:1086D500B3D00490661CE0FD702FC004788C79C778
:1086E5007A021200B390A319E054EFF0788679C1AD
:1086F5007A011200B3785C79C77A021200B378E880
:1087050079C27A021200B3D00420153590A316E081
:108715005407FDBD0402802990A316E05407FDBD52
:108725000302801390A316E05407FDC374818DF0F6
:1087350063F08095F040047B0080027B010C02868B
:10874500B190661CE0FB700D902238E0FB430302FC
:10875500902238EBF0906624E0FB70030287E73047
:10876500127978A479C77A021200B37B00BB0200A4
:10877500505E9022B47420F074702B9022BAF08B66
:1087850082C003123C71902082E04402F090000503
:10879500788A79B57A021200B3902082E04401F01C
:1087A500900005788A79B57A021200B390207EE0B0
:1087B50054FEF0788779D97A011200B3D0032015D9
:1087C5000F90A316E05407FCBC040280030B809DA8
:1087D50078BC79C77A021200B3800790A324E044DD
:1087E50001F0906301E0FBFA906300E0FBB5020045
:1087F5005003028938906616EAF0906615EAF09003
:10880500A316E05407FBBB0409C002124149D0027C
:108815008007C002124DD9D0029022B47430F09076
:108825006615E024709022BAF0906301E09022B9B9
:10883500F0906300E09022B8F0902238E0FB5303FB
:1088450001BB0102804290A200E030E019902200B5
:10885500E07013C002789179D47A021200B3D00285
:108865009022327401F090A200E030E11B902200CA
:10887500E0FBBB0113C002789179D47A021200B3F0
:10888500D0029022327401F0902238E0FB530301AC
:10889500BB0102804290A200E030E019902200E086
:1088A5007013C002786879D37A021200B3D00290AF
:1088B50022327401F090A200E030E11B902200E02A
:1088C500FBBB0113C002786879D37A021200B3D0DA
:1088D500029022327401F0C002787F79987A0212F0
:1088E50000B378BC79AE7A011200B378D5799B7A5A
:1088F500021200B3789E799F7A021200B37800794C
:10890500807A021200B3782C79827A011200B3784A
:108915005B79917A021200B3781B79957A0212007D
:10892500B3D00290A316E05407FBBB040280040AEF
:108935000287ED902238E0FA530201BA0103028959
:10894500E578AC79E87A011200B3784079CE7A02FD
:108955001200B3908200E04404F090A200E030E001
:1089650015902200E0700F780279B47A021200B3F4
:108975009022327401F090A200E030E117902200BD
:10898500E0FABA010F780279B47A021200B39022A4
:10899500327402F0908200E054FBF0E04408F0905D
:1089A500A200E030E015902200E0700F784D79AD1F
:1089B5007A021200B39022327401F090A200E030E6
:1089C500E117902200E0FABA010F784D79AD7A02ED
:1089D5001200B39022327402F0908200E054F7F056
:1089E500902003E054FBF0902003E054FEF090212A
:1089F5006AE054FBF0902163E054BFF0900244E03C
:108A05004480F090024CE0547FF090600AE04420EE
:108A1500F0906638E4F0906639F090822CE054EFDF
:108A2500F0906003E04401F090A318E030E52C904D
:108A3500E650E07006902200E0601090E650E0FA03
:108A4500BA0111902200E0FABA010990A318E05486
:108A5500DFF0800790A318E020E5F990A316E05415
:108A650007FABA031190E61FE0906795F090E61EAD
:108A7500E0FA906794F090662BE4F0906623E0FAB4
:108A850070089022307419F08015902007E030E5C9
:108A9500089022307419F08006902230741AF00282
:108AA50000C590E607E030E003028DAFD2167A00EC
:108AB5007407B502005003028D9CEA2A2A908AC6E3
:108AC50073028ADE028B26028BAA028BC4028BE11B
:108AD500028BFE028CCC028D67C002782D79B87AA4
:108AE500021200B3E5828583F0D002906617F0A3E9
:108AF500E5F0F0906624E0FB7003028D9C90207EEB
:108B0500E020E103028D9C90E60DE020E503028D57
:108B15009CC00278BC79E07A011200B3D002028DC4
:108B25009C90600AE020E303028D9C906638E0FB90
:108B3500BB011D90E60EE030E016902002E030E229
:108B45000FC002786879D37A021200B3D002803759
:108B5500906638E0FBBB03005007902007E020E457
:108B650013906638E0FB7402B50300501A90210299
:108B7500E030E613906638E0F582C00278D079D906
:108B85007A021200B3D002906638E02401F09066B4
:108B950038E0FB7405B503004003028D9C906638F0
:108BA500E4F0028D9C90E60EE020E303028D9CC06C
:108BB50002783979807A011200B3D002028D9C9037
:108BC500E60EE020E103028D9C758200C002785D0F
:108BD50079B07A011200B3D002028D9C90E60EE0C6
:108BE50020E203028D9C758200C002782279B17A59
:108BF500011200B3D002028D9C906639E0FB74042B
:108C0500B503005003028CAEEB2B2B908C14730232
:108C15008C23028C33028C42028C51028C7EC00262
:108C2500787F79987A021200B3D002028CAEC00226
:108C350078D5799B7A021200B3D002806CC0027895
:108C45009E799F7A021200B3D002805D902007E0E2
:108C550030E456900258E05407700FC002785B79F3
:108C6500917A021200B3D002803FC002781B799539
:108C75007A021200B3D0028030902200E0FB90E629
:108C850050E0FCEBB5042290661CE0FB701B90E6FF
:108C95000EE030E41490A34FE030E00DC00278E818
:108CA50079C27A021200B3D002906639E02401F04D
:108CB500906639E0FB7404B503004003028D9C9077
:108CC5006639E4F0028D9CA203E433FB9022B4EBF9
:108CD500F0902200E0FB90E650E0FCEBB50402804A
:108CE50003028D9C90661CE0FB6003028D9C90A3A3
:108CF5004FE020E003028D9C200303028D9C90E64B
:108D05000DE020E603028D9CC002785B79C57A01EF
:108D15001200B3D00290E606E0541C70419066261E
:108D2500E0FB74F05BFCBC100C758BFB758DFFD202
:108D35008EC203806274F05BFCBC200C758BD87509
:108D45008DFFD28EC203804F5303F0BB300C758B61
:108D55009C758DFFD28EC203803DD2038039D2032C
:108D65008035902200E0FB90E650E0FCEBB504274F
:108D750090661CE0FB702090A319E030E61990E6A0
:108D85000EE0C4035401FBBB010DC002783E79C05F
:108D95007A021200B3D002902231E0700B8A030AE6
:108DA500BB08005003028AB5C2160200C51241492C
:108DB50090A316E05407FABA0411906792E0FA906E
:108DC5006793E0FBEAB50303028F82902200E0FA85
:108DD50090E650E0FBEAB503028003028E6B788CC7
:108DE50079C77A021200B39082B4E054074480F048
:108DF5009082B4E054F84402F09082C8E0540FF039
:108E050090A316E05407FABA0406C228C229802B9B
:108E150030111D30100DA20FB3922A9228A20F9285
:108E2500298018A20F9228A20FB3922A9229800BAB
:108E3500A20FB3922A9228A20F9229A20FE433908F
:108E4500E61EF0A228E433F582C0251238E6D025C7
:108E550090A319E054EFF0C025785C79C77A021227
:108E650000B3D025802790A316E05407FABA04046E
:108E7500C2298019301112301006A20F9229800DD7
:108E8500A20FB3922892298004A20F92299022B4AE
:108E95007432F0906615E09022B5F0906616E09079
:108EA50022B6F0906792E09022B7F0906300E090D0
:108EB50022B8F0A212E4339022B9F0A210E4339064
:108EC50022BAF0A20FE4339022BBF0906624E0FAB8
:108ED5009022BCF0A212B39228E433FB90A3241392
:108EE500E092E0F0EA7003028F7290A316E0540757
:108EF500FABA0402C229301274C02578A479C77A57
:108F0500021200B3D025A229E433F582123C7190F8
:108F15001010E054074480F0901014E054F0440819
:108F2500F0901018E0541F4460F090101C7484F009
:108F3500901014E054CFF0902082E04402F09000AD
:108F450005788A79B57A021200B3902082E044014F
:108F5500F0900005788A79B57A021200B390207EE8
:108F6500E054FEF078BC79C77A021200B39066230C
:108F7500E0FA700978EC79C77A021200B30200C5ED
:108F85009026447403F0A3F0A37404F0A3E4F090D6
:108F95002644F0A3F0A3F0A3F090215B7460F0E405
:108FA500F090201BE030E440902007E030E507908A
:108FB5002007E020E416902002E054FBF090210207
:108FC500E054BFF09022307421F08014902102E02B
:108FD50020E20D902102E054BFF09022307422F07F
:108FE5009020537413F0E4F090201AE030E149909A
:108FF5002200E0700E902034E05401FA90E651EA28
:10900500F0800C902034E05401FA90E652EAF0909A
:1090150020527402F0E4F090E651E0601B90E652B5
:10902500E0601590A02FE04410F090A02FE04420C0
:10903500F090A327E04408F09022E4E030E00D90A2
:10904500602E7402F0906033E04401F020160302B4
:1090550090EEC216902200E0FA90E650E0FBEAB5E9
:109065000309780D79C47A011200B3900034E054F5
:10907500FEF0900044E054EFF0900220E054FEF042
:10908500900218E054FEF090021CE054FEF09000AF
:109095003CE054FDF090021CE054FDF0900220E00D
:1090A50054FDF0900040E054FDF090822CE0547F98
:1090B500F09082D8E054FEF0900040E054FEF0902D
:1090C500024CE0547FF090025CE054FDF0900060AB
:1090D500E054FDF09082DCE0547FF0901014E054F1
:1090E500BFF0901020E0547FF00200C5C0188581C4
:1090F50018058105819061707401F09066FDE0FAB4
:10910500BA0102800B90E607E0035401FABA0106A2
:1091150020080302989E9060A2E4F09060A3F0906E
:10912500679DE0FA906174E0FBA3E0FCEB20E003AF
:109135000291DF9060A27401F0902163E0547FF00A
:1091450090240CE0547FF0902102E04480F0E0543C
:109155007FF0C002787979B97A021200B3902403BE
:10916500E054BFF0758E07902410E04404F0E054FD
:10917500FBF0758E009022D0E04480F09022D4E080
:109185004480F09022D0E0547FF09022D4E0547FC8
:10919500F0780979997A011200B3D0029060A2742F
:1091A50002F09060A0E030E131C0027883798C7ADA
:1091B500021200B375820078AD798C7A021200B381
:1091C50075821078AD798C7A021200B375821278A7
:1091D500AD798C7A021200B3D002906174E0FBA3E2
:1091E500E0FCEB30E12A9060A27403F0C00274FF4A
:1091F500C0E09000007805799B7A011200B31581D3
:10920500D002902163E04480F090240CE04480F08B
:10921500906174E0FBA3E0FCEB20E203029339903C
:1092250060A27404F0758201C002786979A07A01A0
:109235001200B375820078A679987A011200B3D02E
:1092450002906174E0FBA3E0FCEB30E51B9060A2AB
:109255007405F0C002E4C0E0900A017805799B7AB4
:10926500011200B31581D002758B18758DFCD28E55
:10927500C2039060A27406F0C0027401C0E0900AB7
:10928500017805799B7A011200B31581D0029066A9
:1092950061E0FBB50202806E9060A27408F0EBFC01
:1092A5003395E0FDEC24FEFEED34FFFFA81808A67B
:1092B50002EA3395E008F6A81808C3E69E08E664B6
:1092C500808FF063F08095F050040A0A80207402C4
:1092D5002CFCE43DFDA81808C3EC96ED64800886D7
:1092E500F063F08095F050041A1A80028B029066A4
:1092F50062E0FBC002C0038A82122AA31581D00254
:1093050020030302927730030F9060A3E0FA430233
:10931500029060A3EAF0C203C28EC28F7582007804
:10932500AD798C7A021200B375821078AD798C7A9A
:10933500021200B3906174E0FAA3E0FBEA20E403B3
:109345000294FC9060A2740AF0902401E054FDF0B0
:10935500902401E054FEF0906174E0FAA3E0FBEA8A
:1093650030E53A9060A2740BF0758201786979A0B6
:109375007A011200B375820078A679987A011200F5
:10938500B390240BE04480F0E054BFF0E4C0E090DB
:109395000A017805799B7A011200B31581906174F1
:1093A500E0FAA3E0FBEA30E6499060A2740CF020F5
:1093B5002718758201786979A07A011200B3758240
:1093C5000078A679987A011200B390240BE04480C6
:1093D500F0E054BFF0902402E04408F0E054FBF0C4
:1093E5007402C0E0900A017805799B7A011200B3F6
:1093F5001581906174E0FAA3E0FBEA30E7609060C4
:10940500A2740DF0202718758200786979A07A0179
:109415001200B375820278A679987A011200B3908A
:10942500240BE04480F0E054BFF0902402E04408AF
:10943500F0E054FBF03008147402C0E090000078AE
:1094450005799B7A011200B3158180127402C0E080
:109455009003027805799B7A011200B3158190611A
:1094650074E0FAA3E0FB20E0030294FC9060A27490
:109475000EF0202718758200786979A07A0112000C
:10948500B375820278A679987A011200B390240BFD
:10949500E0547FF090240BE054BFF0902402E05498
:1094A500F7F0902402E054FBF090671BE0FA60149B
:1094B5007404C0E09002047805799B7A011200B328
:1094C500158180127402C0E09002047805799B7AB8
:1094D500011200B315817883798C7A021200B37575
:1094E500821078AD798C7A021200B375820078AD5E
:1094F500798C7A021200B3906174E0FAA3E0FB2044
:10950500E1030295929060A27410F0902401E0545A
:10951500FDF0902401E054FEF09060A27411F090EB
:10952500240BE0547FF0E04440F0902402E054F72F
:10953500F0E04404F07403C0E0900A017805799BDB
:109545007A011200B315819060A27412F090240B79
:10955500E0547FF090240BE054BFF0902402E054D7
:10956500F7F0902402E054FBF07403C0E09003028E
:109575007805799B7A011200B315819060A2741366
:10958500F075821278AD798C7A021200B39061740D
:10959500E0FAA3E0FB20E20302961F9060A2741498
:1095A500F0758200786979A07A011200B37582029C
:1095B50078A679987A011200B39060A27415F0909C
:1095C5002401E04402F090240BE04480F0E054BF15
:1095D500F0E4C0E09008027805799B7A011200B3A7
:1095E50015819060A27416F090240BE0547FF090E2
:1095F500240BE054BFF0E4C0E09004047805799BA7
:109605007A011200B3158175820178AD798C7A02E1
:109615001200B3902401E054FDF0906174E0FAA3C8
:10962500E0FB20E4030297C69060A27418F020279F
:1096350018758200786979A07A011200B3758202E3
:1096450078A679987A011200B3902404E054BFF00B
:10965500902401E04401F07A007B00758202C0028B
:10966500C0037875798B7A021200B3D003D00290CB
:1096750060A27419F090240BE04480F0E054BFF030
:1096850020271BC002C003E4C0E0900A02780579D8
:109695009B7A011200B31581D003D0028019C00254
:1096A500C003E4C0E09008027805799B7A011200B6
:1096B500B31581D003D0029060A2741AF090240BE8
:1096C500E0547FF0E04440F020271BC002C003E4D3
:1096D500C0E09008047805799B7A011200B31581E2
:1096E500D003D0028019C002C003E4C0E090060494
:1096F5007805799B7A011200B31581D003D00290C9
:1097050060A2741CF0EB7016758202C002C003786B
:10971500AD798C7A021200B3D003D002802DEA70A5
:1097250016758203C002C00378AD798C7A021200E7
:10973500B3D003D0028014758204C002C00378AD93
:10974500798C7A021200B3D003D0029060A2741B08
:10975500F09060A0E030E35BEB701F7B01906661E9
:10976500E0FCC002C003906706E0C0E08C82122ACC
:10977500A31581D003D002029660EA701F7A01908A
:109785006661E0FCC002C003906708E0C0E08C821F
:10979500122AA31581D003D002029660906707E0D4
:1097A500FA906662F0906661E0FBC0028B82122A35
:1097B500A31581902401E054FEF0902404E0444078
:1097C500F0906174E0FAA3E0FB20E603029875903F
:1097D500604FE030E6030298759060A27421F09026
:1097E5002580E04401F090605AE020E22075820176
:1097F5007875798B7A021200B37835799A7A0112E5
:1098050000B378F0798A7A021200B3800F9060393C
:10981500E0F58278F0798A7A021200B39060A2743A
:1098250022F0902580E04404F0E054FBF090605A6B
:10983500E030E21474FFC0E09020087805799B7A47
:10984500011200B31581801274FFC0E0900A0578FB
:1098550005799B7A011200B315819060A27423F0FB
:109865007821799E7A011200B3AA82906170EAF09C
:1098750090605AE020E21C2008199060A27424F040
:109885007582017875798B7A021200B3902580E094
:1098950054FEF09060A27425F0851881D01802005E
:1098A500C5AA82BA00028005BA012D801790240549
:1098B500E04408F0902405E04401F0902405E044DC
:1098C50002F0803D902405E04408F0E054FEF0905D
:1098D5002405E054FDF08029902405E054F7F0902C
:1098E5002400E0C4540FFABA0F09902405E054FD92
:1098F500F08007902405E04402F0902405E054FE32
:10990500F00200C5902403E04420F0E054DFF0E0CD
:109915004402F0902403E054FDF0E04401F0E054EB
:10992500FEF0758B9C758DFFD28EC20320031790B8
:10993500240BE030E5F6787979B97A021200B39014
:10994500240BE030E5E60200C5AA82906016E0FB34
:10995500900224C4235460F5F0E0549F45F0F0BA1A
:10996500010280030299FE902403E04440F09061D7
:10997500B8E0902438547FF5F0E0548045F0F0903D
:1099850061B9E0902439547FF5F0E0548045F0F05A
:109995009061BAE090243A547FF5F0E0548045F0A8
:1099A500F09061BBE090243B547FF5F0E054804596
:1099B500F0F09061BCE090243C547FF5F0E05480D9
:1099C50045F0F09061BDE090243D547FF5F0E05402
:1099D5008045F0F09061BEE090243E547FF5F0E0C4
:1099E500548045F0F09061BFE0FA90243F547FF534
:1099F500F0E0548045F0F08007902403E054BFF078
:109A0500902403E04420F0E054DFF0758B9C758DC5
:109A1500FFD28EC20320031590240BE0C40354012A
:109A2500FA90240BE0C4035401FB5A60E80200C518
:109A3500906158E0FA906159E0FBC0038A8278AFE3
:109A450079B97A021200B3AB8215818B0290615A03
:109A5500E0FBC0038A8278AF79B97A021200B3AB12
:109A65008215818B0290615BE0FBC0038A8278AF2F
:109A750079B97A021200B3AB8215818B0290615CD1
:109A8500E0FBC0038A8278AF79B97A021200B3ABE2
:109A95008215818B0290615DE0FBC0038A8278AFFD
:109AA50079B97A021200B3AB8215818B0290615E9F
:109AB500E0FBC0038A8278AF79B97A021200B3ABB2
:109AC5008215818B0290615FE0FBC0038A8278AFCB
:109AD50079B97A021200B3AB8215818B0290E6AF99
:109AE500E0C4540FFB8BF005F0EA8002C313D5F0F8
:109AF500FBFA90E6AFE0540FFB2AFAF5820200C5A7
:109B0500C018858118AA82AB83906038E02323545E
:109B150001FCBC010280119066FDE0FCBC010280E5
:109B250007902411E020E103029D4790604FE0304B
:109B3500E71C902405E0540FF0902406E054C0F093
:109B4500902406E0543FF0902407E4F0804A8B040B
:109B5500740F5C902405C454F0F5F0E0540F45F003
:109B6500F0ECC4540FFC53043F902406EC543FF52D
:109B7500F0E054C045F0F074035AFB90240603034B
:109B850054C0F5F0E0543F45F0F0EA0303543FFAC2
:109B950053023F902407EAF0E51824FCF8B60102C9
:109BA500801EE51824FCF8B602028030E51824FC76
:109BB500F8B60302803FE51824FCF8B60466804B2E
:109BC50090240874FFF090240974FFF090240AE0B3
:109BD50054C0F090240AE054BFF0806190240874CA
:109BE500FFF090240974FFF090240AE0443FF0E070
:109BF50054BFF08048902408E4F0902409F09024A4
:109C05000AE054C0F0E04440F0803290240874FD2E
:109C1500F090240974FFF090240AE0443FF0E054EA
:109C2500BFF080199024087401F0902409E4F090A5
:109C3500240AE054C0F090240AE054BFF0E518244B
:109C4500FCF8B6FF02804D9060A0E030E21B902446
:109C550008E0FA530201902408EAF0902409E4F0A0
:109C650090240AE054C0F0802B9060A4E030E50712
:109C750090240AE054C0F09060A4E030E4169024EB
:109C850008E0FAA3E0FB530255530355902408EA74
:109C9500F0A3EBF0900264E0C4235403FABA020285
:109CA500800D902408E0FA5302FD902408EAF09014
:109CB5002402E054FEF0E04401F0787979B97A02A3
:109CC5001200B3906098E020E45330080C758BF8CF
:109CD500758DFFD28EC203800A758B18758DFCD2E7
:109CE5008EC203902402E020E1033003F6902402A3
:109CF500E054FEF03003209022C2E0FA0A9022C21E
:109D0500EAF09060A3E0FA4302019060A3EAF0C292
:109D15000390679F7401F0C28EC28F800E9024025B
:109D2500E030E1F9902402E054FEF0902408E4F0DC
:109D3500902409F090240AE054C0F090240AE054DD
:109D4500BFF0D0180200C5900228E003035407FABB
:109D55005302039060A4E054EFF090679A7420F0EA
:109D65009060A4E054DFF0BA0313902402E0547F1E
:109D7500F0E04440F09067997408F0804EBA021301
:109D8500902402E04480F0E054BFF0906799740499
:109D9500F08038BA0121902402E0547FF0E044407D
:109DA500F09067997402F09060A4E04410F0906020
:109DB500A4E04420F08014902402E04480F0902434
:109DC50002E04440F09067997401F0900228E003A6
:109DD500035407FB30E20B906799E025E0FB9067A1
:109DE50099F09066FDE0FB700D906799E0C42354EF
:109DF500E0FB90679AF0EA7010902402E04420F0AE
:109E05009060A4E054F0F08010902402E054DFF05C
:109E15009060A4E054F04405F00200C5C018E58147
:109E2500F5182408F581902560E0FAA3E0FBA3E08E
:109E3500FCA3E0FDE5182405F8A60208A60308A67C
:109E45000408A605902564E0FEA3E0FFA3E0FAA3BD
:109E5500E0FBC006C007C002C003E5182405F8866C
:109E6500820886830886F008E6787C79887A02126B
:109E750000B3AA82AB83ACF0FDE58124FCF581E556
:109E8500182405F8A60208A60308A60408A6059046
:109E95002568E0FAA3E0FBA3E0FCA3E0FDC002C057
:109EA50003C004C005E5182405F8868208868308E2
:109EB50086F008E6787C79887A021200B3AA82AB2C
:109EC50083ACF0FDE58124FCF581E5182405F8A6B1
:109ED5000208A60308A60408A60590256CE0FAA3C7
:109EE500E0FBA3E0FCA3E0FDC002C003C004C00585
:109EF500E5182405F886820886830886F008E67842
:109F05007C79887A021200B3AA82AB83ACF0FDE5B6
:109F15008124FCF581E5182405F8A60208A60308A6
:109F2500A60408A605902570E0FAA3E0FBA3E0FCD3
:109F3500A3E0FDA81808A60208A60308A60408A61B
:109F450005902574E0FEA3E0FFA3E0FAA3E0FBC0C3
:109F550006C007C002C003A81808868208868308C1
:109F650086F008E6787C79887A021200B3AA82AB7B
:109F750083ACF0FDE58124FCF581A81808A602084C
:109F8500A60308A60408A605902578E0FAA3E0FB39
:109F9500A3E0FCA3E0FDC002C003C004C005A818EF
:109FA5000886820886830886F008E6787C79887AB0
:109FB500021200B3AA82AB83ACF0FDE58124FCF567
:109FC50081A81808A60208A60308A60408A60590F5
:109FD500257CE0FAA3E0FBA3E0FCA3E0FDC002C002
:109FE50003C004C005A8180886820886830886F081
:109FF50008E6787C79887A021200B3AA82AB83AC32
:10A00500F0FDE58124FCF581A81808A60208A60341
:10A0150008A60408A60590E6AEE0FAE4FBFCFDE51B
:10A02500182405F8C3E69A08E69B08E69C08E69D11
:10A035005005758200802590E6ACE0FAA3E0FB7C34
:10A04500007D00A81808C3EA96EB0896EC0896ED83
:10A05500089650057582008003758201851881D0A8
:04A06500180200C518
:020000040000FA
:1000DE00D315D3111003D77590550040000280013F
:0800EE000010D3019300D75567
:020000040001F9
:10A06900AA82300C07200D047B0C8013200C0730CA
:10A079000D047B038009BA01047B0C80027B0F90DD
:10A0890060A4E0540FF4FA5203902400EBC454F096
:10A09900F5F0E0540F45F0F00200C5902402E054B9
:10A0A900EFF0900054E04408F0900054E04404F0CC
:10A0B900900054E04402F0900054E04401F0900014
:10A0C90058E04480F0902401E04404F0902418E022
:10A0D90054EFF0902418E054DFF0902405E054FE8A
:10A0E900F0902405E054F7F0302710902400E05454
:10A0F9000F44C0F0902405E04402F00200C590E648
:10A1090007E030E20302A1BF902401E030E5030239
:10A11900A1BF9066FDE0FABA010302A1BF90604CAD
:10A12900E020E40790604CE030E30302A1BF7582B0
:10A13900017875798B7A021200B3902406E0543FB6
:10A149004480F09024077405F078D779907A021248
:10A1590000B3902408E0FA5302FD902408EAF09035
:10A16900240AE04440F0902405E054FDF0902405D1
:10A17900E054FEF0902405E054F7F0D20DD20C75AE
:10A189008200786979A07A011200B3902401E04431
:10A1990020F0902402E054FEF0E04401F090604E7B
:10A1A900E030E712902401E054FBF0E04410F09015
:10A1B9002401E04401F00200C5902401E0C40354E5
:10A1C90001FABA0126758B18758DFCD28EC20390DF
:10A1D9002401E054DFF0902402E020E1033003F68B
:10A1E900902402E054FEF0C28EC28F0200C5906036
:10A1F9004CE020E40302A2D890604CE030E3030273
:10A20900A2D890604CE030E50302A2D89066FDE048
:10A21900FA600302A2D890672BE0FA600302A2D881
:10A2290090663AE02401F090663AE0FA7403B502C8
:10A2390000400302A2D890663AE4F075820178756D
:10A24900798B7A021200B378D779907A021200B327
:10A25900902409E4F0902408E0FA53020D902408B0
:10A26900EAF090240AE04440F0902405E054FDF01F
:10A27900902405E054FEF0902405E054F7F0902472
:10A2890000E044F0F07404C0E09010107805799B68
:10A299007A011200B3158178D779907A021200B346
:10A2A900902408E0FA5302F0902408EAF090240A76
:10A2B900E054BFF07404C0E09010017805799B7AEE
:10A2C900011200B315817883798C7A021200B302E6
:10A2D90000C590604CE030E02B900264E030E20968
:10A2E900900264E054FBF0802D900264E04404F095
:10A2F90078F779A17A011200B378B479EE7A01126C
:10A3090000B3801278F779A17A011200B378B47991
:09A31900EE7A011200B30200C546
:020000040002F8
:10887C00C018858118AA82AB83ACF0FDE51824F9E9
:10888C00F8C3E69A08E69B08E69C08E69D50098A20
:10889C00828B838CF0ED800FE51824F9F886820822
:1088AC0086830886F008E6D0180200C5C018E5815A
:1088BC00F5182408F581902560E0FAA3E0FBA3E00D
:1088CC00FCA3E0FDE5182405F8A60208A60308A6FB
:1088DC000408A605902564E0FEA3E0FFA3E0FAA33C
:1088EC00E0FBC006C007C002C003E5182405F886EB
:1088FC00820886830886F008E6787C79887A0212EA
:10890C0000B3AA82AB83ACF0FDE58124FCF581E5D4
:10891C00182405F8A60208A60308A60408A60590C4
:10892C002568E0FAA3E0FBA3E0FCA3E0FDC002C0D5
:10893C0003C004C005E5182405F886820886830860
:10894C0086F008E6787C79887A021200B3AA82ABAA
:10895C0083ACF0FDE58124FCF581E5182405F8A62F
:10896C000208A60308A60408A60590256CE0FAA345
:10897C00E0FBA3E0FCA3E0FDC002C003C004C00503
:10898C00E5182405F886820886830886F008E678C0
:10899C007C79887A021200B3AA82AB83ACF0FDE535
:1089AC008124FCF581E5182405F8A60208A6030825
:1089BC00A60408A605902570E0FAA3E0FBA3E0FC52
:1089CC00A3E0FDA81808A60208A60308A60408A69A
:1089DC0005902574E0FEA3E0FFA3E0FAA3E0FBC042
:1089EC0006C007C002C003A8180886820886830840
:1089FC0086F008E6787C79887A021200B3AA82ABFA
:108A0C0083ACF0FDE58124FCF581A81808A60208CA
:108A1C00A60308A60408A605902578E0FAA3E0FBB7
:108A2C00A3E0FCA3E0FDC002C003C004C005A8186D
:108A3C000886820886830886F008E6787C79887A2E
:108A4C00021200B3AA82AB83ACF0FDE58124FCF5E5
:108A5C0081A81808A60208A60308A60408A6059073
:108A6C00257CE0FAA3E0FBA3E0FCA3E0FDC002C080
:108A7C0003C004C005A8180886820886830886F0FF
:108A8C0008E6787C79887A021200B3AA82AB83ACB0
:108A9C00F0FDE58124FCF581A81808A60208A603C0
:108AAC0008A60408A605E5182405F8C3E69464088E
:108ABC00E6940008E6940008E694005005758200E0
:108ACC00801AA81808C3E49674040896E40896E47F
:108ADC00089650057582008003758201851881D037
:108AEC00180200C5AA82902440EA543FF5F0E054E5
:108AFC00C045F0F0902441EA543FF5F0E054C045F5
:108B0C00F0F0902442EA543FF5F0E054C045F0F008
:108B1C00902443EA543FF5F0E054C045F0F0902423
:108B2C0060EA543FF5F0E054C045F0F0902461EA5F
:108B3C00543FF5F0E054C045F0F0902462EA543F05
:108B4C00F5F0E054C045F0F0902463EA543FF5F0A2
:108B5C00E054C045F0F0902430740FF0E4F0902411
:108B6C0034740FF0E4F00200C5AA82BA0102800846
:108B7C00BA0202805F028C797440C0E0E4C0E074F9
:108B8C0078C0E07461C0E0E4C0E090244075F0006F
:108B9C0078EC79BA7A021200B3E58124FBF5819066
:108BAC00243074FFF0A3F0A3F0A3747FF090243072
:108BBC00E4F0A3F0A3F0A3F090243474FFF0A3F03E
:108BCC00A3F0A3747FF0902434E4F0A3F0A3F0A3FB
:108BDC00F0028C79906178E0902440543FF5F0E0FD
:108BEC0054C045F0F0906179E0902441543FF5F089
:108BFC00E054C045F0F090617AE0902442543FF587
:108C0C00F0E054C045F0F090617BE0902443543F79
:108C1C00F5F0E054C045F0F0906198E09024605479
:108C2C003FF5F0E054C045F0F0906199E09024617C
:108C3C00543FF5F0E054C045F0F090619AE0902478
:108C4C0062543FF5F0E054C045F0F090619BE0FABF
:108C5C00902463543FF5F0E054C045F0F09024307C
:108C6C00740FF0E4F0902434740FF0E4F090240BC3
:108C7C00E030E5F90200C57440C0E0E4C0E0748067
:108C8C00C0E07424C0E0E4C0E090617875F0007836
:108C9C00EC79BA7A021200B3E58124FBF58102006B
:108CAC00C5AA82BA00028027BA0103028D31BA022A
:108CBC0003028D75BA0303028DB9BA0403028DFD4C
:108CCC00BA1003028E41BA1203028E6B028F4490CB
:108CDC0024D0E0906148F09024D1E0906149F0906C
:108CEC0024D2E090614AF09024D3E090614BF09054
:108CFC0024F0E090614CF09024F1E090614DF09004
:108D0C0024F2E090614EF09024F3E0FA90614FF081
:108D1C0090240BE030E2047A0180027A00906171B9
:108D2C00EAF0028F449024D0E0906150F09024D16E
:108D3C00E0906151F09024D2E0906152F09024D3F5
:108D4C00E0906153F09024F0E0906154F09024F1A5
:108D5C00E0906155F09024F2E0906156F09024F38D
:108D6C00E0FA906157F0028F449024D0E090615863
:108D7C00F09024D1E0906159F09024D2E090615AA7
:108D8C00F09024D3E090615BF09024F0E090615C73
:108D9C00F09024F1E090615DF09024F2E090615E3F
:108DAC00F09024F3E0FA90615FF0028F449024D0AD
:108DBC00E0906160F09024D1E0906161F09024D259
:108DCC00E0906162F09024D3E0906163F09024F025
:108DDC00E0906164F09024F1E0906165F09024F2F1
:108DEC00E0906166F09024F3E0FA906167F0028FF6
:108DFC00449024D0E0906168F09024D1E0906169B7
:108E0C00F09024D2E090616AF09024D3E090616BF2
:108E1C00F09024F0E090616CF09024F1E090616DA2
:108E2C00F09024F2E090616EF09024F3E0FA9061FF
:108E3C006FF0028F447440C0E0E4C0E074D0C0E036
:108E4C007424C0E0E4C0E090610075F00078EC7927
:108E5C00BA7A021200B3E58124FBF581028F4490AB
:108E6C0024C0E0547F9061B8547FF5F0E054804505
:108E7C00F0F09024C1E0547F9061B9547FF5F0E09C
:108E8C00548045F0F09024C2E0547F9061BA547F36
:108E9C00F5F0E0548045F0F09024C3E0547F9061ED
:108EAC00BB547FF5F0E0548045F0F09024C4E054BE
:108EBC007F9061BC547FF5F0E0548045F0F0902435
:108ECC00C5E0547F9061BD547FF5F0E0548045F0CF
:108EDC00F09024C6E0547F9061BE547FF5F0E054CE
:108EEC008045F0F09024C7E0547F9061BF547FF52B
:108EFC00F0E0548045F0F0902510E0906140F09047
:108F0C002511E0906141F0902512E0906142F090C3
:108F1C002513E0906143F0902514E0906144F090AB
:108F2C002515E0906145F0902516E0906146F09093
:108F3C002517E0FA906147F00200C5AA82BA000238
:108F4C008009BA0203028FE302906C906148E090B2
:108F5C002440543FF5F0E054C045F0F0906149E0F6
:108F6C00902441543FF5F0E054C045F0F090614A34
:108F7C00E0902442543FF5F0E054C045F0F090618D
:108F8C004BE0902443543FF5F0E054C045F0F09092
:108F9C00614CE0902460543FF5F0E054C045F0F093
:108FAC0090614DE0902461543FF5F0E054C045F0E1
:108FBC00F090614EE0902462543FF5F0E054C045CF
:108FCC00F0F090614FE0FA902463543FF5F0E054D8
:108FDC00C045F0F002906C906158E0902440543FF2
:108FEC00F5F0E054C045F0F0906159E09024415404
:108FFC003FF5F0E054C045F0F090615AE090244207
:10900C00543FF5F0E054C045F0F090615BE09024E3
:10901C0043543FF5F0E054C045F0F090615CE090B3
:10902C002460543FF5F0E054C045F0F090615DE0F1
:10903C00902461543FF5F0E054C045F0F090615E2F
:10904C00E0902462543FF5F0E054C045F0F090619C
:10905C005FE0FA902463543FF5F0E054C045F0F023
:10906C00902430740FF0E4F0902434740FF0E4F09A
:10907C0090240BE030E5F90200C5E582FA602B90F4
:10908C00604CE030E010900264E054E7F090020C89
:10909C00E0548FF08026900264E054E74408F0908E
:1090AC00020CE0548F4430F08012900264E054E7DC
:1090BC004410F090020CE0548F4420F090000A7899
:1090CC008A79B57A021200B30200C59060A4E03030
:1090DC00E4119024087455F0A3F090240AE054C0D5
:1090EC00F0800F90240874FFF0A3F090240AE04461
:1090FC003FF0902401E054FDF0902401E054FEF088
:10910C0090240AE054BFF0902402E054F7F090242D
:10911C0002E054FBF090240BE0547FF090240BE021
:06912C0054BFF00200C573
:020000040000FA
:1000F600906099E0FABA1709788279A97A02120013
:09010600B3906098E054FEF02271
:10021400C018858118058105819022D8E04420F01A
:10022400E054DFF09022B47414F09022E4E020E073
:100234000A906033E054FEF00204987A0290601F42
:10024400E0FBA81808A60390601CE0FC906023E083
:10025400FD530580A8180808E4BD800104F69060E9
:1002640020E0FEA3E0FFA3E0FDA3E0FB906024EE0A
:10027400F0A3EFF0A3EDF0A3EBF0906023E0FB53C9
:10028400030FBB050040057A04020460A81808089F
:10029400E660027B80C0029022B47413F09022B511
:1002A400A81808E6F09022B6ECF0906020E0FDA3D8
:1002B400E0FEA3E0FFA3E0FA9022C4EDF0A3EEF089
:1002C400A3EFF0A3EAF0A81808B660028004D002F5
:1002D400800FD002902600E020E0030204600204B4
:1002E40098A81808B68071740BB504005003020472
:1002F40060EC2C2C9002FC73020320020320020306
:10030400590203590203590203590203300203300C
:10031400020340020340020350020350C0048B82D4
:1003240012049EAD8215818D02020460C0048B828A
:10033400120928AD8215818D02020460C0048B82EB
:10034400120DA3AD8215818D020204608C82120C01
:1003540058AD828D02020460A81808B68135740372
:10036400B504005003020460EC2C2C900373730258
:10037400037F02037F02038B02038B8C82120C9196
:10038400AD828D020204608C82120CDEAD828D027D
:10039400020460A81808B682687407B50400500304
:1003A400020460EC2C2C9003AE730203C60203C655
:1003B4000203D60203D60203E60203E60203F602B0
:1003C40003F6C0048B82120AB1AD8215818D02023C
:1003D4000460C0048B8212072EAD8215818D020247
:1003E4000460C0048B82120610AD8215818D020256
:1003F4000460C0048B82120820AB8215818B0280BA
:100404005BA81808B68313BC00028003BC014D8CA2
:1004140082120A8BAB828B028042A81808B6843CF5
:10042400BC00028005BC0134801A906020E0FB53BC
:100434000303902200E0FCEBB50421120F29AB82E8
:100444008B028018906020E0FB530303902200E0AD
:10045400FCEBB50407120F5AAB828B0290602EEAB4
:10046400F0906033E04401F09022B4740FF0906097
:100474002EE0FA9022B5EAF0906024E0FAA3E0FBC3
:10048400A3E0FCA3E0FD9022C4EAF0A3EBF0A3EC0C
:10049400F0A3EDF0851881D01822C018858118AA20
:1004A40082BA80028003020597E51824FDF8B6019C
:1004B40067902634E0906024F0902635E0FB90604D
:1004C40025F0902636E030E70D906024E0FB4303EE
:1004D40008906024EBF0902636E030E60D9060241E
:1004E400E0FB430304906024EBF0902636E030E513
:1004F4000D906024E0FB430302906024EBF09067CE
:10050400AAE0FB700302060A906024E0FB430301A7
:10051400906024EBF002060A902637E04420F09025
:100524006020E0902634F0906021E0902635F09031
:100534006020E0FB530308BB0803D38001C3922867
:10054400E43390263613E092E7F0906020E0FB530A
:100554000304BB0403D38001C39228E433902636FA
:1005640013E092E6F0906020E0FB530302BB020329
:10057400D38001C39228E43390263613E092E5F049
:10058400906020E0FB5303019067AAE4BB010104DF
:10059400F08073E51824FDF8B60126EA2AFB24D07E
:1005A400F582E43460F583E0906024F0EB24D0FB22
:1005B400E43460FC8B828C83A3E0FB906025F080A4
:1005C40045EA2AFB24D0FCE43460FD906020E0FE80
:1005D4008C828D83F0EB24D0FBE43460FC0BBB00F5
:1005E400010C906021E0FD8B828C83F09060CFE061
:1005F400FB8AF005F07401800225E0D5F0FBFA4295
:10060400039060CFEBF0758200D01822C01885816A
:1006140018AA82BA8002800302069AE51824FDF81B
:10062400B60528900050E0906024F0E0FB90005460
:10063400E0FC74E05C4203906024EBF0902411E051
:10064400035401FB906025F0020728906020E0909D
:100654000050F0900054E0FB53031F900054EBF063
:10066400E0FB906020E0FC74E05C4203900054EBFB
:10067400F0906021E0540190241013E092E4F09093
:100684002410E0C4540190240CE023235401FB9073
:1006940066FDF0020728E51824FDF8B60536EA2AB7
:1006A40025E024B4F582E43460F583E0906024F01E
:1006B400EA75F050A42404FB746335F0FC74412BF8
:1006C400F582E43CF583E0FBE4BB000104FB9060AD
:1006D40025F08050EA2A25E024B4FBE43460FC9041
:1006E4006020E08B828C83F0EA75F050A42404FB34
:1006F400746335F0FC74412BFBE43CFC906021E016
:10070400FD530501E4BD000104FD8B828C83F08A56
:10071400F005F07401800225E0D5F0FBFA9067AE95
:10072400E0FB4AF0758200D01822C018858118AA0F
:1007340082BA8040E51824FDF8B60317900200E061
:10074400FB906024EBF0900204E0FB906026EBF059
:1007540002081A906020E0FB900200EBF090602207
:10076400E0FB900000EBF0906022E0FB900204EBD1
:10077400F002081AE51824FDF8B60330EA2A25E049
:10078400FB24B4FCE43460FD8C828D83A3E0FC90F4
:100794006024ECF0EB24B4FBE43460FC8B828C83A7
:1007A400A3A3A3E0FB906026EBF0806AEA2A25E08D
:1007B400FB24B4FCE43460FD0CBC00010D9060200B
:1007C400E0FE8C828D83EEF0EB24B4FCE43460FD17
:1007D40074022CFCE43DFD906022E0FE8C828D834B
:1007E400EEF0EB24B4FBE43460FC74032BFBE43C38
:1007F400FC906022E0FD8B828C83EDF09060CDE074
:10080400FB8AF005F07401800225E0D5F0FBFA4282
:10081400039060CDEBF0758200D01822C01885815A
:1008240018AA82BA800280030208DCE51824FDF8C5
:10083400B6070D9067ACE0FB906024EBF002092250
:10084400906013E0FB7C00906020E0FD53051F9056
:1008540067ACEDF0ED703A8D06FFC006C0078B82E1
:100864008C831276E7AE82AF8315811581EFC403C2
:10087400CEC40354076ECE5407CE6ECEFF90001044
:10088400EE2E25E054FCF5F0E0540345F0F00209A7
:10089400227E00C005C0068B828C831276E7AD826F
:1008A400AE83158115818D038E04906013E0FD5392
:1008B4000520ECC403CBC40354076BCB5407CB6BA8
:1008C400CBFCEB4205900010ED2D25E054FCF5F037
:1008D400E0540345F0F08046E51824FDF8B607130C
:1008E400EA247CF582E43460F583E0FB906024EB39
:1008F400F0802BEA247CFBE43460FC906020E0FD73
:1009040053051F8B828C83EDF08AF005F07401800F
:100914000225E0D5F0FBFA9067ADE0FB4AF0758262
:1009240000D01822C018858118AA82BA80028003D8
:100934000209CEE51824FDF8B6072C90004CE0C45B
:100944005403FB906024EBF090004CE00303540349
:10095400FB906025EBF090004CE023235403FB90C4
:100964006026EBF0020A85906022E0FBBB01028066
:1009740008906022E0FBBB0206758204020A88909C
:100984006020E0FB53030390004CEBC45430F5F0BB
:10099400E054CF45F0F0906021E0FB530303900056
:1009A4004CEB2B25E0540CF5F0E054F345F0F090BB
:1009B4006022E0FB53030390004CEB030354C0F5A7
:1009C400F0E0543F45F0F0020A85E51824FDF8B63E
:1009D400065FEA75F050A4FBACF0EB2404FDEC34A4
:1009E40063FE740E2DFDE43EFE906020E0FF53078D
:1009F400038D828E83EFF0EB2404FDEC3463FE74EC
:100A04000D2DFDE43EFE906021E0FF5307038D822F
:100A14008E83EFF0EB2404FBEC3463FC740C2BFBAF
:100A2400E43CFC906022E0FD5305038B828C83ED53
:100A3400F0EA75F050A4FAABF0EA2404FCEB34635A
:100A4400FD740E2CF582E43DF583E0FC906024EC0B
:100A5400F0EA2404FCEB3463FD740D2CF582E43DD0
:100A6400F583E0FC906025ECF0EA2404FAEB3463AF
:100A7400FB740C2AF582E43BF583E0FA906026EAE5
:100A8400F0758200D01822AA82BA010E906098E014
:100A9400235401FA906024F0800F906020E0540108
:100AA400FA90609813E092E7F075820022C01885EE
:100AB4008118AA82BA80028003020B64E51824FD1F
:100AC400F8B6013A902165E003035407FB902165D1
:100AD400E0C4035407C454F0FCEB4204906024ECDB
:100AE400F090022CE0540FFB900230E0C4540FC489
:100AF40054F0FCEB4204906025ECF0020C52906040
:100B040020E0FB530307902165EB2B25E0541CF5F3
:100B1400F0E054E345F0F0906020E05470C4540FCA
:100B2400902165C42354E0F5F0E0541F45F0F090A3
:100B34006021E0FB53030F90022CEB540FF5F0E01F
:100B440054F045F0F0906021E054F0C4540FFB9051
:100B54000230C454F0F5F0E0540F45F0F0020C52AA
:100B6400E51824FDF8E6707CEA75F050A4FBACF0BF
:100B74002404FDEC3463FE74222DFDE43EFE9060FB
:100B840020E0FF5307078D828E83EFF0EB2404FDF2
:100B9400EC3463FE74232DFDE43EFE906020E054AB
:100BA40070C4540F8D828E83F0EB2404FDEC346307
:100BB400FE74242DFDE43EFE906021E0FF53070FF8
:100BC4008D828E83EFF0EB2404FBEC3463FC7425FC
:100BD4002BFBE43CFC906021E054F0C4540FFD8BEB
:100BE400828C83F0EA75F050A4FAABF02404FCEB99
:100BF4003463FD74222CFCE43DFDEA2404FEEB3452
:100C040063FF74232EF582E43FF583E0C454F0FEC1
:100C14008C828D83E04206906024EEF0EA2404FC8A
:100C2400EB3463FD74242CFCE43DFDEA2404FAEB6C
:100C34003463FB74252AF582E43BF583E0C454F065
:100C4400FA8C828D83E0FC4202906025EAF0758282
:100C540000D01822AA8290A316E05407FBBB030419
:100C640075820222BA0A16906020E0FA53020790B5
:100C74002640EA5407F5F0E054F845F0F090264099
:100C8400E05407FA906024EAF075820022AA829068
:100C9400A316E05407FBBB0302800A90A316E0549A
:100CA40007FBBB050475820222906023E0FB7405F8
:100CB400B503004006906023E0700475820422EAC4
:100CC40020E009906023E0FA9065F6F09065F6E084
:100CD400FA906027EAF075820022AA8290A316E0B7
:100CE4005407FBBB0302800A90A316E05407FBBB26
:100CF400050475820122906020E0FB60077405B54D
:100D04000300500475820422BA024A1BEB2B25E02F
:100D1400FA2484FCE434E6FD0CBC00010D9060224E
:100D2400E0FE8C828D83EEF0EA2484FCE434E6FD5C
:100D3400906021E0FE8C828D83EEF0EA2484FAE454
:100D440034E6FC74022AFAE43CFC906020E0FD8A5C
:100D5400828C83EDF0EB04FA906027EAF0EB2B250C
:100D6400E0FB2484FAE434E6FC8A828C83A3E0FA70
:100D7400906026EAF0EB2484F582E434E6F583E01F
:100D8400FA906025EAF0EB2484FBE434E6FA8B82E3
:100D94008A83A3A3E0FA906024EAF075820022C05B
:100DA40018858118AA82BA80028003020E69E518A8
:100DB40024FDF8B6094590200CE003035401FB9090
:100DC4006026F030101B902067E0232354019060CC
:100DD40025F0902065E003547FFB906024F0020F1F
:100DE4002390A00BE023235401906025F090A012DF
:100DF400E0547FFB906024F0020F2390200CE04429
:100E040002F0906022E0FB30E00990200CE0440402
:100E1400F0800790200CE054FBF030102590602106
:100E2400E0540190206713E092E6F0906020E0FB2C
:100E340090206525E054FEF5F0E0540145F0F00201
:100E44000F23906021E0540190A00B13E092E6F090
:100E5400906020E0FB90A012547FF5F0E0548045B0
:100E6400F0F0020F23E51824FDF8B6086E90E6139F
:100E7400E04410F0EA2A25E0FB2498FCE434E6FD83
:100E8400906022E0FE530601BE0103D38001C392A9
:100E940028E4338C828D8313E092E0F0EB2484FC0D
:100EA400E434E6FD74032CFCE43DFD906020E0FE98
:100EB4008C828D83547FF5F0E0548045F0F0EB2470
:100EC40084FBE434E6FC74032BFBE43CFC906021DB
:100ED400E0FD8B828C8313E092E7F0EA2A25E0FAA6
:100EE4002484FBE434E6FC8B828C83A3A3A3E05428
:100EF4007F906024F0EA2484FBE434E6FC8B828C4B
:100F040083A3A3A3E0235401FB906025F0EA249873
:100F1400F582E434E6F583E05401FA906026F07536
:100F24008200D018227A00902102E020E6047A029E
:100F34008021908200E04404F0C002780279B47AFF
:100F4400021200B3D002908200E054FBF0902230F1
:100F5400742BF08A82227A00902102E020E6047A3F
:100F6400028021908200E04408F0C002784D79ADFF
:100F74007A021200B3D002908200E054F7F090227B
:100F840030742BF08A822275880575895175A91CE5
:100F940075B906D2ABD2ADD2A8D2AAC2A975B83F50
:100FA40075C878759A3EC205C206C207C208906722
:100FB40017E4F0C209C20AD203D204C21DC21E221F
:020000040002F8
:10913200900220E04401F090001E788A79B57A020C
:109142001200B3900220E054FEF090001E788A795B
:10915200B57A021200B30200C5C018E581F51824E1
:1091620007F5819022307415F0906002E054FEF011
:10917200E5182405F87600E5182406F8E4F6FCFD67
:10918200E5182404F87600E5182407F876009060C4
:1091920003E030E00302923690E606E020E10B9015
:1091A200E60BE020E1047A0080027A01C0048A041E
:1091B200ECD0046030C004A20FE433246AF582E4E8
:1091C2003465F583E0FCA81808A604A20FE4332452
:1091D2006EF582E43465F583E090025013E092E785
:1091E200F0D0048039906006E054EFF090024CE039
:1091F2004480F0900044E0541F4480F0900250E01C
:10920200547FF0900258E05407FAFCE5182406F85F
:109212007601900258E054F8F0A818087620C004AD
:10922200900248E04401F090E63FE0906610F0D0F2
:10923200040292C9906008E06047C00490E632E000
:1092420023540125E0246AFCE43465FFA20FE433D1
:109252002CF582E43FF583E0FAA81808A60290E60E
:109262003FE0906610F0A20FE433246EF582E434FE
:1092720065F583E0FA90025013E092E7F0D00480A3
:109282004690E60EE030E735900258E05407702D24
:1092920090024CE04480F0900044E0541F4480F07F
:1092A200A20FE433246CF582E43465F583E0FAA876
:1092B2001808A602E5182405F87601800A906002D3
:1092C200E04401F0029513A81808860290024CEAC5
:1092D2002A547EF5F0E0548145F0F0C004C00578D0
:1092E2003279917A021200B3D005D0040D90024C6B
:1092F200E020E7030294A7906003E05401FABA0168
:109302000A7401B5050050030294A7906003E0209F
:10931200E02DED14FAC004C005C002E5182404F8DB
:109322008682784179B77A021200B31581D005D0CE
:10933200049228500A906006E04410F00294A7902C
:109342006003E020E00FBD4000400A90E648E020C4
:10935200E4030294A7902040E05401FAE5182403A4
:10936200F87600A81808087600E5182405F8E660E3
:1093720072EA600B906610E014906610F08007901D
:109382006610E02401F0906610E0FA701BC004E55C
:10939200182403F87600A8180808760190E63FE042
:1093A200906610F0D004805AC00490E63FE0FCE4DE
:1093B200CC25E0CC33FF8A037E00C3EB9CEE6480B5
:1093C2008FF063F08095F0D0044037E5182403F85D
:1093D2007601A8180808760090E63FE0FB90661038
:1093E200F0801FEA600FE5182403F87600A8180839
:1093F200087601800DE5182403F87601A8180808FC
:109402007600A8180808B6011FA818088682C004AA
:10941200C00578C979B67A021200B3AA82D005D003
:1094220004A81808A602802EE5182403F8B601261F
:10943200E5182404F8E64401F6A818088682C00458
:10944200C00578A779B67A021200B3AA82D005D0F5
:1094520004A81808A602E5182404F8E625E0F6E5B3
:10946200182404F8E6543FF6E5182406F8E67003DB
:109472000292C9A81808741F56FABA180280030289
:1094820092C9E5182407F8E660030292C9900250D7
:10949200E04480F0E5182407F87601A81808762041
:1094A2007D000292C9E5182406F8B6010E90025812
:1094B200EC5407F5F0E054F845F0F0906003E0203A
:1094C200E02EA20FE433246AF582E43465F583A822
:1094D2001808E6F0A20FE433246EFAE43465FB9038
:1094E2000250E0235401FC5304018A828B83ECF086
:1094F200A20FE433FA246CF582E43465F583A818EC
:1095020008E6F090024CE0547FF0906002E04401E3
:10951200F0851881D0180200C5C018E581F518241D
:1095220006F5819022307439F0906002E054FDF02B
:10953200900258E05407700A906002E04402F00280
:10954200981CE5182405F87600E5182406F8E4F6D8
:10955200FCE5182403F87600906003E020E07290A6
:10956200E606E020E10B90E60BE020E0047E0080BE
:10957200027E01EE6011A20FE4332464F582E4342A
:1095820065F583E0FE8038906007E054DFF09002DA
:109592005CE04402F090024CE04480F0900044E031
:1095A200541F4480F0900258E05407FFFCE5182451
:1095B20006F87601900258E054F84401F07E2090BB
:1095C2000248E04401F090E63EE0FF90660FF08032
:1095D20074906008E0602DC00490E632E0232354CA
:1095E2000125E02464FFE43465FCA20FE4332FF587
:1095F20082E43CF583E0FE90E63EE0FB90660FF0ED
:10960200D004804190E60EE030E63090025CE04407
:1096120002F090024CE04480F0900044E0541F4479
:1096220080F0A20FE4332466F582E43465F583E02A
:10963200FBFEE5182405F87601800A906002E044FA
:1096420002F002981CE5182404F876008E079002B6
:109652005CEF2F25E054FCF5F0E0540345F0F0C038
:1096620004C006783279917A021200B3D006D0048F
:10967200E5182404F80690025CE020E1030297CA90
:10968200906003E05401FFBF010DE5182404F8E6E1
:1096920024FE50030297CA906003E020E032E518EE
:1096A2002404F8E614FFC004C006C007E51824032A
:1096B200F88682784179B77A021200B31581D00612
:1096C200D0049228500A906007E04420F00297CA22
:1096D200906003E020E014E5182404F8B64000404E
:1096E2000A90E648E020E3030297CA902040E05443
:1096F20001FFA81808087600A818087600E51824C3
:1097020005F8E6606CEF600B90660FE01490660F50
:10971200F0800790660FE02401F090660FE0FB7086
:1097220019C004A81808087600A81808760190E65F
:109732003FE090660FF0D0048052C00490E63FE014
:10974200FCE4CC25E0CC33FA7D00C3EB9CED6480D5
:109752008AF063F08095F0D0044031A818080876AA
:1097620001A81808760090E63FE0FA90660FF080B4
:109772001BEF600DA81808087600A818087601806B
:109782000BA81808087601A818087600A81808B6C9
:109792000109EE7003FE801B1E8018A8180808B687
:1097A2000111E5182403F8E64401F6BE3F047E3FAA
:1097B20080010EE5182403F8E625E0F6E5182403F7
:1097C200F8E6543FF602964EE5182406F8E6600ED7
:1097D200900258EC5407F5F0E054F845F0F0906030
:1097E20003E020E010A20FE433FA2464F582E434AB
:1097F20065F583EEF0A20FE433FA2466F582E434D1
:1098020065F583EEF090025CE054FDF090024CE0CE
:10981200547FF0906002E04402F0851881D0180273
:1098220000C5900005788A79B57A021200B39000DB
:1098320044E04410F0900005788A79B57A0212006B
:10984200B3900220E04401F0900019788A79B57A49
:10985200021200B3900044E054EFF0900005788AC1
:1098620079B57A021200B3900220E054FEF0900023
:1098720019788A79B57A021200B30200C5C018E5D8
:1098820081F5182406F5819022307408F09060006A
:10989200E054BFF0E5182405F87600E5182406F830
:1098A2007600E5182404F87600E5182403F876001B
:1098B2007E00906003E030E00302993B90E606E010
:1098C20020E10B90E609E020E7047F0080027F019F
:1098D200EF602BC006A20EE4332470F582E43465F7
:1098E200F583E0FFA20EE4332474F582E43465F5D7
:1098F20083E090021C13E092E1F0D0068025906094
:1099020004E054BFF0900040E04401F0900044E0D5
:10991200541FF090021CE054FDF07F20E51824064D
:10992200F87601C006900218E04401F090E647E0A4
:1099320090660AF0D0060299BB906008E06042C0CF
:109942000690E631E023540125E02470FEE43465FC
:10995200FBA20EE4332EF582E43BF583E0FF90E6B2
:1099620047E090660AF0A20EE4332474F582E434F0
:1099720065F583E0FA90021C13E092E1F0D00680D4
:109982003890E60DE030E727900040E04401F09087
:109992000044E0541FF0A20EE4332472F582E43452
:1099A20065F583E0FAFFE5182405F87601800A9050
:1099B2006000E04440F0029BCD8F0290021CEA2A34
:1099C20025E054FCF5F0E0540345F0F0C006C00772
:1099D200782479987A021200B3D007D006E51824C9
:1099E20004F806900040E020E003029B7D906003B3
:1099F200E05401FABA010DE5182404F8E624FE50F9
:109A020003029B7D906003E020E032E5182404F815
:109A1200E614FAC006C007C002E5182403F88682DD
:109A2200784179B77A021200B31581D007D0069235
:109A320028500A906004E04440F0029B7D9060034D
:109A4200E020E014E5182404F8B64000400A90E64D
:109A520048E020E203029B7D902040E05401FAA8F6
:109A62001808087600A818087600E5182405F8E614
:109A7200606CEA600B90660AE01490660AF0800758
:109A820090660AE02401F090660AE0FB7019C006B5
:109A9200A81808087600A81808760190E647E09012
:109AA200660AF0D0068052C00690E647E0FEE4CE99
:109AB20025E0CE33FD7C00C3EB9EEC64808DF06329
:109AC200F08095F0D0064031A81808087601A81851
:109AD20008760090E647E0FB90660AF0801BEA6099
:109AE2000DA81808087600A818087601800BA81897
:109AF20008087601A818087600A81808B601158F7C
:109B020082C00678C979B67A021200B3AA82D00658
:109B12008A078023A8180808B6011CE5182403F850
:109B2200E64401F68F82C00678A779B67A0212005F
:109B3200B3AA82D0068A07E5182403F8E625E0F6E0
:109B4200E5182403F8E6543FF6E5182406F8E67013
:109B5200030299BB741F5FFABA180280030299BB11
:109B6200EE60030299BB90021CE04402F07E017F8A
:109B720020E5182404F876000299BB906003E020E7
:109B8200E02BA20EE4332470F582E43465F583EF12
:109B9200F0A20EE4332474FAE43465FB90021CE074
:109BA200035401FC5304018A828B83ECF0A20EE47D
:109BB20033FA2472F582E43465F583EFF0900040C5
:109BC200E054FEF0906000E04440F0851881D01827
:109BD2000200C5C018E581F5182406F581902230EF
:109BE200740EF0906000E0547FF0E5182405F8E46C
:109BF200F6FBFCE5182403F87600906616E0FEE515
:109C0200182404F8A60690A316E05407FFBF040721
:109C1200E5182404F87600906003E030E003029C2B
:109C2200A190E606E020E10B90E60AE020E0047F46
:109C32000080027F01EF602FC003E5182404F8E6DC
:109C42002476F582E43465F583E0FFE5182404F810
:109C5200E62480F582E43465F583E090022013E087
:109C620092E1F0D0038022906004E0547FF09000F3
:109C720040E04401F0900044E0541F4420F0900280
:109C820020E054FDF07F207B01C00390021CE044E1
:109C920001F090E639E0906609F0D003029D5390FE
:109CA2006008E06048C00390E633E003540175F0B9
:109CB20005A42476FBE43465FAE5182404F8E62BBF
:109CC200F582E43AF583E0FF90E639E0906609F028
:109CD200E5182404F8E62480F582E43465F583E08F
:109CE200FA90022013E092E1F0D003806490E60F34
:109CF200E030E153900228E003035407FAC3648082
:109D020094845043900040E04401F0900044E054B9
:109D12001F4420F0E5182404F8E6247BF582E4349D
:109D220065F583E0FFE5182404F8E62480F582E473
:109D32003465F583E0FA90022013E092E1F0E51831
:109D42002405F87601800A906000E04480F0029FCA
:109D520096900220E0035401FAE5182406F8A602C0
:109D62008F02900220EA2A25E054FCF5F0E0540329
:109D720045F0F0C003C004C007782479987A021233
:109D820000B3D007D004D0030C900040E020E003E1
:109D9200029F41906003E020E018900228E0030354
:109DA2005407FAC374838AF063F08095F05003027B
:109DB2009F41906003E05401FABA010A7401B504AC
:109DC200005003029F41906003E020E031EC14FA5E
:109DD200C003C004C007C002E5182403F8868278D5
:109DE2004179B77A021200B31581D007D004D003AB
:109DF2009228500A906004E04480F0029F419060F3
:109E020003E020E00FBC4000400A90E648E020E179
:109E120003029F41902040E05401FAA818080876F6
:109E220000A818087600E5182405F8E6606CEA60D8
:109E32000B906609E014906609F08007906609E0CD
:109E42002401F0906609E0FA7019C003A818080806
:109E52007600A81808760190E639E0906609F0D0FD
:109E6200038052C00390E639E0FBE4CB25E0CB331C
:109E7200FE7D00C3EA9BED64808EF063F08095F076
:109E8200D0034031A81808087601A8180876009077
:109E9200E639E0FA906609F0801BEA600DA818081E
:109EA200087600A818087601800BA8180808760121
:109EB200A818087600A81808B601198F82C003C036
:109EC2000478C979B67A021200B3AA82D004D00308
:109ED2008A078027A8180808B60120E5182403F885
:109EE200E64401F68F82C003C00478A779B67A02ED
:109EF2001200B3AA82D004D0038A07E5182403F81B
:109F0200E625E0F6E5182403F8E6543FF6EB700385
:109F1200029D62741F5FFABA18028003029D62E515
:109F2200182406F8E66003029D62900220E04402D3
:109F3200F0E5182406F876017F207C00029D6290ED
:109F42006003E020E02FE5182404F8E62476F58289
:109F5200E43465F583EFF0E5182404F8E62480FA8A
:109F6200E43465FB900220E0035401FC5304018AAF
:109F7200828B83ECF0E5182404F8E6247BF582E476
:109F82003465F583EFF0900040E054FEF0906000FD
:109F9200E04480F0851881D0180200C5C018E58120
:109FA200F5182407F5819022307411F0906001E0D9
:109FB20054FEF0E5182406F87600E5182405F87634
:109FC200007C007D01E5182403F87600906616E017
:109FD200FFE5182404F8A60790A316E05407FBBB7C
:109FE2000407E5182404F87600906003E030E003EB
:109FF20002A08990E606E020E10B90E60AE020E16B
:10A00200047B0080027B01EB602FC005E51824046D
:10A01200F8E62485F582E43465F583E0FBE518244F
:10A0220004F8E6248FF582E43465F583E09000407D
:10A0320013E092E1F0D0058038906005E054FEF024
:10A04200900218E003035401FAFD900218E0440460
:10A05200F0900040E04401F0900044E0541F44407E
:10A06200F0900040E054FDF07B20E5182405F876DE
:10A0720001C00590003CE04402F090E638E09066B2
:10A0820008F0D00502A146906008E06047C0059044
:10A09200E633E0540175F005A42485FDE43465FA45
:10A0A200E5182404F8E62DF582E43AF583E0FB9006
:10A0B200E638E0906608F0E5182404F8E6248FF507
:10A0C20082E43465F583E0FA90004013E092E1F017
:10A0D200D005807090E60FE030E05F900218E00358
:10A0E200035401FABA0153900228E003035407FA19
:10A0F200C3648094845043900040E04401F0900097
:10A1020044E0541F4440F0E5182404F8E6248AF59C
:10A1120082E43465F583E0FBE5182404F8E6248F35
:10A12200F582E43465F583E0FA90004013E092E1B1
:10A13200F0E5182406F87601800A906001E04401F7
:10A14200F002A3BB900040E0035401FAE518240793
:10A15200F8A602C0058B05900040ED2D25E054FCC9
:10A16200F5F0E0540345F0F0C003C004C0057824C4
:10A1720079987A021200B3D005D004D0030C900073
:10A1820040E0D00520E00302A35C906003E020E001
:10A192001CC005900228E003035407FDC374838D9D
:10A1A200F063F08095F0D005500302A35CC00590E7
:10A1B2006003E05401FDBD01028004D005800CD093
:10A1C200057401B50400500302A35C906003E02013
:10A1D200E03CC005EC14FDC003C004C0057402C01D
:10A1E200E0C005E5182403F8868278ED79B67A0294
:10A1F2001200B315811581D005D004D0039228D066
:10A202000530280A906005E04401F002A35C9060EA
:10A2120003E020E00FBC4000400A90E648E020E066
:10A222000302A35CC005902040E05401FAA818087C
:10A23200087600A818087600D005E5182406F8E686
:10A24200606EEA600B906608E014906608F0800782
:10A25200906608E02401F0906608E0FE7019C005DF
:10A26200A81808087600A81808760190E638E09049
:10A272006608F0D0058054C00590E638E0FDE4CDD4
:10A2820025E0CD33FA8E077E00C3EF9DEE64808A0F
:10A29200F063F08095F0D0054031A81808087601E7
:10A2A200A81808760090E638E0FA906608F0801B5D
:10A2B200EA600DA81808087600A818087601800B35
:10A2C200A81808087601A818087600A81808B60188
:10A2D200198B82C004C00578C979B67A021200B31C
:10A2E200AA82D005D0048A038027A8180808B601DC
:10A2F20020E5182403F8E64401F68B82C004C00569
:10A3020078A779B67A021200B3AA82D005D0048A5D
:10A3120003E5182403F8E625E0F6E5182403F8E639
:10A32200543FF6E5182405F8E6700302A155741FA0
:10A332005BFABA1802800302A155E5182407F8E671
:10A34200600302A155900040E04402F0E5182407A2
:10A35200F876017B207C0002A155906003E020E0AA
:10A362002FE5182404F8E62485F582E43465F583A4
:10A37200EBF0E5182404F8E6248FFAE43465FC9047
:10A382000040E0035401FE5306018A828C83EEF002
:10A39200E5182404F8E6248AF582E43465F583EBB3
:10A3A200F0ED7007900218E054FBF0900040E0548A
:10A3B200FEF0906001E04401F0851881D01802009F
:01A3C200C5D5
:020000040001F9
:10A32200906038E0547FF0906098E030E1109060E7
:10A332009CE0FAA3E0FB906174EAF0A3EBF0906773
:10A342009FE4F07A03C00278F179907A011200B3A7
:10A35200D00290679FE0FB6027906037E0FBBB0173
:10A36200109060407401F0906040E0FBBB010280FD
:10A37200F68A031AC374808BF063F08095F040C5AF
:10A38200789F79A87A011200B3784E79AE7A0112D9
:10A3920000B3906038E04480F090665FE0FA90602D
:10A3A20048EAF00200C590614AE0FA90614BE0FB96
:10A3B200C0028B82788679B97A021200B3AB821519
:10A3C200818B0290614EE0FBC0028B82788679B964
:10A3D2007A021200B3AB8215818B0290614FE0FBCF
:10A3E200C0028B82788679B97A021200B3AB8215E9
:10A3F20081906643EBF0906148E0FA906149E0FB9E
:10A40200C0028B82788679B97A021200B3AB8215C8
:10A41200818B0290614CE0FBC0028B82788679B915
:10A422007A021200B3AB8215818B0290614DE0FB80
:10A43200C0028B82788679B97A021200B3AA821599
:10A4420081906642EAF090614AE0FA7B0090614BAB
:10A45200E0FC7D00EC2AFAED3BFB90614EE0FC7DD6
:10A4620000EC2AFAED3BFB90614FE0FC7D00EC2A08
:10A47200FAED3BA2E713CA13CAA2E713CA13CA90A2
:10A482006641EAF0906148E0FA7B00906149E0FCA5
:10A492007D00EC2AFAED3BFB90614CE0FC7D00EC88
:10A4A2002AFAED3BFB90614DE0FC7D00EC2AFAEDCF
:10A4B2003BA2E713CA13CAA2E713CA13CA906640A3
:10A4C200EAF0906152E0FA7B00906153E0FC7D007B
:10A4D200EC2AFAED3BFB906156E0FC7D00EC2AFA97
:10A4E200ED3BFB906157E0FC7D00EC2AFAED3BA2CC
:10A4F200E713CA13CAA2E713CA13CA906645EAF061
:10A50200906150E0FA7B00906151E0FC7D00EC2A02
:10A51200FAED3BFB906154E0FC7D00EC2AFAED3B46
:10A52200FB906155E0FC7D00EC2AFAED3BA2E713BB
:10A53200CA13CAA2E713CA13CA906644EAF090612A
:10A542000CE0FA3395E0FB90612CE0FC3395E0FDE2
:10A55200EC2AFAED3BA2E713CA13CA906646EAF068
:10A56200906104E0FA3395E0FB906105E0FC3395DD
:10A57200E0FDEC2AFAED3BFB906124E0FC3395E030
:10A58200FDEC2AFAED3BFB906125E0FC3395E0FD02
:10A59200EC2AFAED3BA2E713CA13CAA2E713CA13C5
:10A5A200CA906647EAF0906106E0FA3395E0FB90C4
:10A5B2006107E0FC3395E0FDEC2AFAED3BFB90618C
:10A5C20026E0FC3395E0FDEC2AFAED3BFB90612797
:10A5D200E0FC3395E0FDEC2AFAED3BA2E713CA1347
:10A5E200CAA2E713CA13CA906648EAF0906108E06B
:10A5F200FA3395E0FB906109E0FC3395E0FDEC2A2B
:10A60200FAED3BFB906128E0FC3395E0FDEC2AFA81
:10A61200ED3BFB906129E0FC3395E0FDEC2AFAED7D
:10A622003BA2E713CA13CAA2E713CA13CA90664928
:10A63200EAF090610AE0FA3395E0FB90610BE0FCEE
:10A642003395E0FDEC2AFAED3BFB90612AE0FC3306
:10A6520095E0FDEC2AFAED3BFB90612BE0FC339593
:10A66200E0FDEC2AFAED3BA2E713CA13CAA2E713F4
:10A67200CA13CA90664AEAF090610DE0FA3395E097
:10A68200FB90612DE0FC3395E0FDEC2AFAED3BA254
:10A69200E713CA13CA90664BEAF090610EE0FA33F0
:10A6A20095E0FB90612EE0FC3395E0FDEC2AFAED9B
:10A6B2003BA2E713CA13CA90664CEAF090610FE01E
:10A6C200FA3395E0FB90612FE0FC3395E0FDEC2A34
:10A6D200FAED3BA2E713CA13CA90664DEAF0906105
:10A6E20010E0FA3395E0FB906130E0FC3395E0FD39
:10A6F200EC2AFAED3BA2E713CA13CA90664EEAF0BF
:10A7020090615AE0FA7B0090615BE0FC7D00EC2AEC
:10A71200FAED3BFB90615EE0FC7D00EC2AFAED3B3A
:10A72200FB90615FE0FC7D00EC2AFAED3BA2E713AF
:10A73200CA13CAA2E713CA13CA906650EAF090611C
:10A7420058E0FA7B00906159E0FC7D00EC2AFAEDBA
:10A752003BFB90615CE0FC7D00EC2AFAED3BFB9058
:10A76200615DE0FC7D00EC2AFAED3BA2E713CA131F
:10A77200CAA2E713CA13CAFB90664FEAF09060A020
:10A78200E020E30302A806906162E0FA7B00906198
:10A7920063E0FC7D00EC2AFAED3BFB906166E0FC95
:10A7A2007D00EC2AFAED3BFB906167E0FC7D00EC5A
:10A7B2002AFAED3BA2E713CA13CAA2E713CA13CAC5
:10A7C200906652EAF090616AE0FA7B0090616BE079
:10A7D200FC7D00EC2AFAED3BFB90616EE0FC7D0013
:10A7E200EC2AFAED3BFB90616FE0FC7D00EC2AFA6B
:10A7F200ED3BA2E713CA13CAA2E713CA13CAFB901E
:10A802006654EAF0906170E0906655F0906174E0F1
:10A81200FAA3E0FB20E10302A89C902510E0FA33A2
:10A8220095E0FB902511E0FC3395E0FDEAC39CFA2C
:10A83200EB9DFB902514E0FC3395E0FDEC2AFAED4C
:10A842003BFB902515E0FC3395E0FDEAC39CFAEB57
:10A852009D8A04906656ECF0902512E0FA3395E05A
:10A86200FB902513E0FC3395E0FDEAC39CFAEB9DD7
:10A87200FB902516E0FC3395E0FDEC2AFAED3BFB5C
:10A88200902517E0FC3395E0FDEAC39CFAEB9DFBB3
:10A89200906657EAF090679CE4F00200C5C0188504
:10A8A2008118058178A879A37A011200B3300D3797
:10A8B200200C34906644E090665AF0906640E09036
:10A8C2006659F0906642E0906658F0906647E090D4
:10A8D200665BF0906649E090665CF090664FE0FA45
:10A8E20090665FF002AA02200D37300C3490664564
