:020000040001F9
:10800000AA82AB837C00BC0800502AEC2CFDFE90B9
:1080100083DF93CEA393FFED9083EF93CDA393F8EB
:10802000EA5205EB5200EEB50508EFB50004758283
:1080300001220C80D175820022C018E581F5182438
:1080400008F581E5182404F87600087600E5182480
:1080500006F87600900030E00354079083FF939079
:10806000661DF0900034E00303543F90661EF090CC
:108070000034E003540190661FF078EB79897A02AE
:108080001200B3AD829022B6EDF0906008E0FEBE23
:1080900001047E0880027E01A818080876BC0876D4
:1080A000029022B5EEF030165CED6009906614E0A7
:1080B0002401F08009906614E014906614F0906634
:1080C00014E0FC700CFD90E643E0FF906614F08035
:1080D00034C00690E643E0FFE4CF25E0CF33FE7ADC
:1080E00000C3EC9FEA64808EF063F08095F0D006C8
:1080F000400D7D0190E643E0FA906614F08006752D
:108100008201028224BD0111C006785C798A7A025C
:108110001200B3AA82D0068011C0067803798B7A48
:10812000021200B3AB82D0068B02EA600302821D0A
:10813000C006788779837A011200B3D00630160A18
:10814000E5182406F8760102821DC00678EB7989CD
:108150007A021200B3AA82D0068A059022B6EDF008
:10816000A81808E6B505028011A81808A605BE08DB
:10817000047E028005BE02027E01E5182404F80890
:10818000E618C625E0C63308F68D027B00E5182404
:1081900004F8EA46F6EB0846F6E5182404F8E51874
:1081A0002407F9E6F70809E6F77C00BC0800503B15
:1081B000C006EC2CFFFE9083DF93CEA393FAEFFB77
:1081C0009083EF93CBA393FFE5182407F8E65203BF
:1081D00008E65207EEB50306EAB507028004D006AA
:1081E0008006D0067A0180050C80C07A00EA601013
:1081F000E5182406F87601906006E04408F0801D3A
:1082000090E649E020E00AA818080816B6FF020820
:1082100016A8180808E6084660030280A1E518249D
:1082200006F88682851881D0180200C5A20EE433B4
:10823000FA902230740FF0900228E003035407FBF9
:10824000530304E4BB000104FB906006E054F7F024
:10825000906001E054FDF090E60AE003035401FC55
:10826000BC0102800A906003E05401FCBC0144EAB6
:108270002AFC24AAFDE43465FEEB2DF582E43EF5EC
:1082800083E090661EF0EC24B2FDE43465FEEB2D35
:10829000F582E43EF583E0906620F0EC24A2FCE455
:1082A0003465FDEB2CF582E43DF583E0FC90661F20
:1082B000F0801290661E7431F09066207405F09084
:1082C000661F7401F0906620E09083FF9390661D16
:1082D000F0C002C003788779837A011200B3D0031B
:1082E000D002906008E0600302837490E60AE030F8
:1082F000E203028374C002C003783979807A0112E4
:1083000000B3AC82D003D002906005EC13E092E1A0
:10831000F0900030E0035407FCEA2433FDE43466B7
:10832000FEEC9083FF938D828E83F0EA2AFA24AAD2
:10833000FCE43465FDEB2CFCE43DFD90661EE08C16
:10834000828D83F0EA24B2FCE43465FDEB2CFCE47E
:108350003DFD906620E0FE8C828D83F0EA24A2FA37
:10836000E43465FCEB2AFBE43CFD90661FE0FA8BED
:10837000828D83F0906001E04402F090E643E0FAE1
:10838000906614F00200C590661EE090003425E06F
:1083900025E054FCF5F0E0540345F0F090661FE052
:1083A00090003413E092E1F090661DE0FAC313628E
:1083B00002906620EAF0900030EA2A540EF5F0E0D0
:1083C00054F145F0F0900034E04401F0786479B95C
:1083D0007A021200B3900034E054FEF00200C505AA
:1083E000000A003300CC00C701380E0F0FF0F00F69
:1083F000000F00FF00FF00FF0FFF0FFFFFFFFF0058
:1084000001030207060405C018858118058105814E
:108410009061707401F09066F7E0FABA0102800B87
:1084200090E607E0035401FABA0106200803028B24
:10843000B49060A2E4F09060A3F0906799E0FA90A5
:108440006174E0FBA3E0FCEB20E0030284F59060A4
:10845000A27401F0902163E0547FF090240CE0546A
:108460007FF0902102E04480F0E0547FF0C0027879
:108470006479B97A021200B3902403E054BFF07516
:108480008E07902410E04404F0E054FBF0758E0059
:108490009022D0E04480F09022D4E04480F09022FA
:1084A000D0E0547FF09022D4E0547FF0781F798C94
:1084B0007A011200B3D0029060A27402F09060A022
:1084C000E030E131C002780779847A021200B37596
:1084D0008200783179847A021200B3758210783183
:1084E00079847A021200B3758212783179847A0223
:1084F0001200B3D002906174E0FBA3E0FCEB30E12A
:108500002A9060A27403F0C00274FFC0E0900000E3
:1085100078EF798E7A011200B31581D00290216331
:10852000E04480F090240CE04480F0906174E0FB23
:10853000A3E0FCEB20E20302864F9060A27404F0FB
:10854000758201C002785379947A011200B3758262
:108550000078BC798B7A011200B3D002906174E08C
:10856000FBA3E0FCEB30E51B9060A27405F0C002B9
:10857000E4C0E0900A0178EF798E7A011200B31519
:1085800081D002758B18758DFCD28EC2039060A2CB
:108590007406F0C0027401C0E0900A0178EF798E91
:1085A0007A011200B31581D002906661E0FBB5023A
:1085B00002806E9060A27408F0EBFC3395E0FDEC55
:1085C00024FEFEED34FFFFA81808A602EA3395E06A
:1085D00008F6A81808C3E69E08E664808FF063F0EA
:1085E0008095F050040A0A802074022CFCE43DFDC2
:1085F000A81808C3EC96ED64800886F063F08095B7
:10860000F050041A1A80028B02906662E0FBC002EE
:10861000C0038A82122B2D1581D00220030302850C
:108620008D30030F9060A3E0FA4302029060A3EA4A
:10863000F0C203C28EC28F758200783179847A02CB
:108640001200B3758210783179847A021200B390E7
:108650006174E0FAA3E0FBEA20E403028812906070
:10866000A2740AF0902401E054FDF0902401E0543B
:10867000FEF0906174E0FAA3E0FBEA30E53A906026
:10868000A2740BF0758201785379947A011200B3C9
:1086900075820078BC798B7A011200B390240BE0CC
:1086A0004480F0E054BFF0E4C0E0900A0178EF7934
:1086B0008E7A011200B31581906174E0FAA3E0FB99
:1086C000EA30E6499060A2740CF020271875820108
:1086D000785379947A011200B375820078BC798B53
:1086E0007A011200B390240BE04480F0E054BFF014
:1086F000902402E04408F0E054FBF07402C0E090E3
:108700000A0178EF798E7A011200B31581906174B5
:10871000E0FAA3E0FBEA30E7609060A2740DF0207D
:108720002718758200785379947A011200B3758204
:108730000278BC798B7A011200B390240BE044805C
:10874000F0E054BFF0902402E04408F0E054FBF065
:108750003008147402C0E090000078EF798E7A013E
:108760001200B3158180127402C0E090030278EF0A
:10877000798E7A011200B31581906174E0FAA3E05A
:10878000FB20E0030288129060A2740EF0202718EC
:10879000758200785379947A011200B37582027859
:1087A000BC798B7A011200B390240BE0547FF090D7
:1087B000240BE054BFF0902402E054F7F090240220
:1087C000E054FBF0906715E0FA60147404C0E09088
:1087D000020478EF798E7A011200B3158180127449
:1087E00002C0E090020478EF798E7A011200B3158E
:1087F00081780779847A021200B375821078317912
:10880000847A021200B3758200783179847A021278
:1088100000B3906174E0FAA3E0FB20E1030288A8B2
:108820009060A27410F0902401E054FDF0902401B7
:10883000E054FEF09060A27411F090240BE0547F9D
:10884000F0E04440F0902402E054F7F0E04404F0FB
:108850007403C0E0900A0178EF798E7A011200B3B8
:1088600015819060A27412F090240BE0547FF09078
:10887000240BE054BFF0902402E054F7F09024025F
:10888000E054FBF07403C0E090030278EF798E7A35
:10889000011200B315819060A27413F075821278F2
:1088A0003179847A021200B3906174E0FAA3E0FB9C
:1088B00020E2030289359060A27414F0758200787A
:1088C0005379947A011200B375820278BC798B7A5D
:1088D000011200B39060A27415F0902401E04402EC
:1088E000F090240BE04480F0E054BFF0E4C0E0904E
:1088F000080278EF798E7A011200B315819060A298
:108900007416F090240BE0547FF090240BE054BFD9
:10891000F0E4C0E090040478EF798E7A011200B39D
:108920001581758201783179847A021200B390241E
:1089300001E054FDF0906174E0FAA3E0FB20E40351
:10894000028ADC9060A27418F020271875820078E3
:108950005379947A011200B375820278BC798B7ACC
:10896000011200B3902404E054BFF0902401E044CD
:1089700001F07A007B00758202C002C00378F979A9
:10898000827A021200B3D003D0029060A27419F070
:1089900090240BE04480F0E054BFF020271BC0027D
:1089A000C003E4C0E0900A0278EF798E7A011200E9
:1089B000B31581D003D0028019C002C003E4C0E027
:1089C00090080278EF798E7A011200B31581D003F6
:1089D000D0029060A2741AF090240BE0547FF0E073
:1089E0004440F020271BC002C003E4C0E09008040C
:1089F00078EF798E7A011200B31581D003D002800E
:108A000019C002C003E4C0E090060478EF798E7AC2
:108A1000011200B31581D003D0029060A2741CF043
:108A2000EB7016758202C002C003783179847A0235
:108A30001200B3D003D002802DEA7016758203C0F5
:108A400002C003783179847A021200B3D003D002D5
:108A50008014758204C002C003783179847A0212CE
:108A600000B3D003D0029060A2741BF09060A0E02D
:108A700030E35BEB701F7B01906661E0FCC002C0DD
:108A800003906700E0C0E08C82122B2D1581D0038B
:108A9000D002028976EA701F7A01906661E0FCC01C
:108AA00002C003906702E0C0E08C82122B2D15817A
:108AB000D003D002028976906701E0FA906662F0F6
:108AC000906661E0FBC0028B82122B2D15819024F1
:108AD00001E054FEF0902404E04440F0906174E022
:108AE000FAA3E0FB20E603028B8B90604FE030E6B8
:108AF00003028B8B9060A27421F0902580E04401EA
:108B0000F090605AE020E22075820178F979827A4B
:108B1000021200B3781F798E7A011200B37874794B
:108B2000827A021200B3800F906039E0F582787487
:108B300079827A021200B39060A27422F0902580AC
:108B4000E04404F0E054FBF090605AE030E214742A
:108B5000FFC0E090200878EF798E7A011200B315FB
:108B600081801274FFC0E0900A0578EF798E7A0157
:108B70001200B315819060A27423F0780B79927A79
:108B8000011200B3AA82906170EAF090605AE0206E
:108B9000E21C2008199060A27424F075820178F913
:108BA00079827A021200B3902580E054FEF0906042
:108BB000A27425F0851881D0180200C5AA82BA00D7
:108BC000028005BA012D8017902405E04408F0903A
:108BD0002405E04401F0902405E04402F0803D903B
:108BE0002405E04408F0E054FEF0902405E054FD34
:108BF000F08029902405E054F7F0902400E0C4545C
:108C00000FFABA0F09902405E054FDF08007902474
:108C100005E04402F0902405E054FEF00200C59007
:108C20002403E04420F0E054DFF0E04402F090241C
:108C300003E054FDF0E04401F0E054FEF0758B9C3D
:108C4000758DFFD28EC20320031790240BE030E510
:108C5000F6786479B97A021200B390240BE030E51B
:108C6000E60200C5AA82906016E0FB900224C423AD
:108C70005460F5F0E0549F45F0F0BA010280030221
:108C80008D14902403E04440F09061B8E0902438C3
:108C9000547FF5F0E0548045F0F09061B9E0902405
:108CA00039547FF5F0E0548045F0F09061BAE090DF
:108CB000243A547FF5F0E0548045F0F09061BBE039
:108CC00090243B547FF5F0E0548045F0F09061BC77
:108CD000E090243C547FF5F0E0548045F0F0906142
:108CE000BDE090243D547FF5F0E0548045F0F090D5
:108CF00061BEE090243E547FF5F0E0548045F0F0F2
:108D00009061BFE0FA90243F547FF5F0E054804535
:108D1000F0F08007902403E054BFF0902403E04477
:108D200020F0E054DFF0758B9C758DFFD28EC2036E
:108D300020031590240BE0C4035401FA90240BE0A7
:108D4000C4035401FB5A60E80200C59066F7E0FADC
:108D50006003028E1C7440C0E0E4C0E07480C0E098
:108D60007424C0E0E4C0E090244075F00078D77926
:108D7000BA7A021200B3E58124FBF5819024C0E0A9
:108D8000547F902438547FF5F0E0548045F0F09003
:108D900024C1E0547F902439547FF5F0E05480459D
:108DA000F0F09024C2E0547F90243A547FF5F0E034
:108DB000548045F0F09024C3E0547F90243B547FCE
:108DC000F5F0E0548045F0F09024C4E0547F902406
:108DD0003C547FF5F0E0548045F0F09024C5E05419
:108DE0007F90243D547FF5F0E0548045F0F09024CE
:108DF000C6E0547F90243E547FF5F0E0548045F067
:108E0000F09024C7E0547FFA90243F547FF5F0E0BF
:108E1000548045F0F0902403E04440F00200C590F7
:108E20006158E0FA906159E0FBC0038A82789A7930
:108E3000B97A021200B3AB8215818B0290615AE0BD
:108E4000FBC0038A82789A79B97A021200B3AB82A6
:108E500015818B0290615BE0FBC0038A82789A796E
:108E6000B97A021200B3AB8215818B0290615CE08B
:108E7000FBC0038A82789A79B97A021200B3AB8276
:108E800015818B0290615DE0FBC0038A82789A793C
:108E9000B97A021200B3AB8215818B0290615EE059
:108EA000FBC0038A82789A79B97A021200B3AB8246
:108EB00015818B0290615FE0FBC0038A82789A790A
:108EC000B97A021200B3AB8215818B0290E6AFE053
:108ED000C4540FFB8BF005F0EA8002C313D5F0FBFE
:108EE000FA90E6AFE0540FFB2AFAF5820200C5C003
:108EF00018858118AA82AB83906038E0232354013F
:108F0000FCBC010280119066F7E0FCBC0102800706
:108F1000902411E020E10302913190604FE030E7AE
:108F20001C902405E0540FF0902406E054C0F0900B
:108F30002406E0543FF0902407E4F0804A8B047448
:108F40000F5C902405C454F0F5F0E0540F45F0F0A8
:108F5000ECC4540FFC53043F902406EC543FF5F04E
:108F6000E054C045F0F074035AFB90240603035408
:108F7000C0F5F0E0543F45F0F0EA0303543FFA53E4
:108F8000023F902407EAF0E51824FCF8B6010280BD
:108F90001EE51824FCF8B602028030E51824FCF81F
:108FA000B60302803FE51824FCF8B60466804B90B7
:108FB000240874FFF090240974FFF090240AE05410
:108FC000C0F090240AE054BFF0806190240874FF40
:108FD000F090240974FFF090240AE0443FF0E0543C
:108FE000BFF08048902408E4F0902409F090240A0F
:108FF000E054C0F0E04440F0803290240874FDF06A
:1090000090240974FFF090240AE0443FF0E054BF3C
:10901000F080199024087401F0902409E4F0902461
:109020000AE054C0F090240AE054BFF0E51824FC94
:10903000F8B6FF02804D9060A0E030E21B9024085B
:10904000E0FA530201902408EAF0902409E4F09039
:10905000240AE054C0F0802B9060A4E030E5079033
:10906000240AE054C0F09060A4E030E41690240894
:10907000E0FAA3E0FB530255530355902408EAF0AD
:10908000A3EBF0900264E0C4235403FABA02028016
:109090000D902408E0FA5302FD902408EAF0902491
:1090A00002E054FEF0E04401F0786479B97A0212EB
:1090B00000B3906098E020E45330080C758BF8758D
:1090C0008DFFD28EC203800A758B18758DFCD28EEF
:1090D000C203902402E020E1033003F6902402E072
:1090E00054FEF03003209022C2E0FA0A9022C2EA35
:1090F000F09060A3E0FA4302019060A3EAF0C2039B
:1091000090679B7401F0C28EC28F800E902402E0A3
:1091100030E1F9902402E054FEF0902408E4F0904D
:109120002409F090240AE054C0F090240AE054BFCF
:10913000F0D0180200C5900228E003035407FA5348
:1091400002039060A4E054EFF09067967420F090D2
:1091500060A4E054DFF0BA0313902402E0547FF0DF
:10916000E04440F09067957408F0804EBA02139086
:109170002402E04480F0E054BFF09067957404F05E
:109180008038BA0121902402E0547FF0E04440F09E
:109190009067957402F09060A4E04410F09060A491
:1091A000E04420F08014902402E04480F0902402F7
:1091B000E04440F09067957401F0900228E00303CA
:1091C0005407FB30E20B906795E025E0FB90679534
:1091D000F09066F7E0FB700D906795E0C42354E0D3
:1091E000FB906796F0EA7010902402E04420F09023
:1091F00060A4E054F0F08010902402E054DFF0907E
:1092000060A4E054F04405F00200C5C018E581F503
:10921000182408F581902560E0FAA3E0FBA3E0FCA8
:10922000A3E0FDE5182405F8A60208A60308A60495
:1092300008A605902564E0FEA3E0FFA3E0FAA3E002
:10924000FBC006C007C002C003E5182405F88682EB
:109250000886830886F008E6780079807A02120092
:10926000B3AA82AB83ACF0FDE58124FCF581E5185F
:109270002405F8A60208A60308A60408A60590255A
:1092800068E0FAA3E0FBA3E0FCA3E0FDC002C0039A
:10929000C004C005E5182405F88682088683088680
:1092A000F008E6780079807A021200B3AA82AB83D4
:1092B000ACF0FDE58124FCF581E5182405F8A60253
:1092C00008A60308A60408A60590256CE0FAA3E00A
:1092D000FBA3E0FCA3E0FDC002C003C004C005E5A1
:1092E000182405F886820886830886F008E6780048
:1092F00079807A021200B3AA82AB83ACF0FDE581DB
:1093000024FCF581E5182405F8A60208A60308A6A2
:109310000408A605902570E0FAA3E0FBA3E0FCA3F7
:10932000E0FDA81808A60208A60308A60408A605DA
:10933000902574E0FEA3E0FFA3E0FAA3E0FBC006E3
:10934000C007C002C003A818088682088683088662
:10935000F008E6780079807A021200B3AA82AB8323
:10936000ACF0FDE58124FCF581A81808A60208A64A
:109370000308A60408A605902578E0FAA3E0FBA35D
:10938000E0FCA3E0FDC002C003C004C005A81808AB
:1093900086820886830886F008E6780079807A025B
:1093A0001200B3AA82AB83ACF0FDE58124FCF58109
:1093B000A81808A60208A60308A60408A605902572
:1093C0007CE0FAA3E0FBA3E0FCA3E0FDC002C00345
:1093D000C004C005A8180886820886830886F0089D
:1093E000E6780079807A021200B3AA82AB83ACF0EF
:1093F000FDE58124FCF581A81808A60208A603084B
:10940000A60408A60590E6AEE0FAE4FBFCFDE5182C
:109410002405F8C3E69A08E69B08E69C08E69D50FA
:1094200005758200802590E6ACE0FAA3E0FB7C00A5
:109430007D00A81808C3EA96EB0896EC0896ED089C
:109440009650057582008003758201851881D018B9
:039450000200C552
:020000040000FA
:1000DE00D315D3111003D77590550040000280013F
:0C00EE000010D3019300D755D305330058
:020000040001F9
:10945300AA82300C07200D047B0C8013200C0730EC
:109463000D047B038009BA01047B0C80027B0F90FF
:1094730060A4E0540FF4FA5203902400EBC454F0B8
:10948300F5F0E0540F45F0F00200C5902402E054DB
:10949300EFF0900054E04408F0900054E04404F0EE
:1094A300900054E04402F0900054E04401F0900036
:1094B30058E04480F0902401E04404F0902418E044
:1094C30054EFF0902418E054DFF0902405E054FEAC
:1094D300F0902405E054F7F0302710902400E05476
:1094E3000F44C0F0902405E04402F00200C590E66A
:1094F30007E030E2030295B1902401E030E5030276
:1095030095B19066F7E0FABA01030295B19067BD91
:10951300E0FABA01030295B190604CE020E40790B1
:10952300604CE030E3030295B1902406E0543F44DD
:1095330080F09024077405F075820178F979827AB6
:10954300021200B3785B79887A021200B390240880
:10955300E0FA5302FD902408EAF090240AE0444024
:10956300F0902405E054FDF0902405E054FEF090C3
:109573002405E054F7F0D20DD20C902400E0540FF0
:1095830044C0F0902401E04420F0902402E054FE13
:10959300F0E04401F090604EE030E712902401E0E7
:1095A30054FBF0E04410F0902401E04401F0020089
:1095B300C5902401E0C4035401FABA0126758B183F
:1095C300758DFCD28EC203902401E054DFF0902409
:1095D30002E020E1033003F6902402E054FEF0C2DF
:1095E3008EC28F0200C590604CE020E4030296CA4D
:1095F30090604CE030E3030296CA90604CE030E5A3
:10960300030296CA9066F7E0FA60030296CA90676F
:1096130027E0FA60030296CA90663AE02401F090CC
:10962300663AE0FA7403B5020040030296CA9066F4
:109633003AE4F075820178F979827A021200B378FC
:109643005B79887A021200B3902409E4F09024082D
:10965300E0FA53020D902408EAF090240AE0444013
:10966300F0902405E054FDF0902405E054FEF090C2
:109673002405E054F7F0902400E044F0F07404C0B3
:10968300E090101078EF798E7A011200B31581788B
:109693005B79887A021200B3902408E0FA5302F04F
:1096A300902408EAF090240AE054BFF07404C0E068
:1096B30090100178EF798E7A011200B31581780743
:1096C30079847A021200B30200C590604CE030E066
:1096D3002B900264E030E209900264E054FBF080D6
:1096E3002D900264E04404F078E979957A01120040
:1096F300B3788B79C97A011200B3801278E979952E
:109703007A011200B3788B79C97A011200B302008F
:01971300C590
:020000040002F8
:10800000C018858118AA82AB83ACF0FDE51824F96D
:10801000F8C3E69A08E69B08E69C08E69D50098AA4
:10802000828B838CF0ED800FE51824F9F8868208A6
:1080300086830886F008E6D0180200C5C018E581DE
:10804000F5182408F581902560E0FAA3E0FBA3E091
:10805000FCA3E0FDE5182405F8A60208A60308A67F
:108060000408A605902564E0FEA3E0FFA3E0FAA3C0
:10807000E0FBC006C007C002C003E5182405F8866F
:10808000820886830886F008E6780079807A0212F2
:1080900000B3AA82AB83ACF0FDE58124FCF581E559
:1080A000182405F8A60208A60308A60408A6059049
:1080B0002568E0FAA3E0FBA3E0FCA3E0FDC002C05A
:1080C00003C004C005E5182405F8868208868308E5
:1080D00086F008E6780079807A021200B3AA82ABB3
:1080E00083ACF0FDE58124FCF581E5182405F8A6B4
:1080F0000208A60308A60408A60590256CE0FAA3CA
:10810000E0FBA3E0FCA3E0FDC002C003C004C00587
:10811000E5182405F886820886830886F008E67844
:108120000079807A021200B3AA82AB83ACF0FDE53D
:108130008124FCF581E5182405F8A60208A60308A9
:10814000A60408A605902570E0FAA3E0FBA3E0FCD6
:10815000A3E0FDA81808A60208A60308A60408A61E
:1081600005902574E0FEA3E0FFA3E0FAA3E0FBC0C6
:1081700006C007C002C003A81808868208868308C4
:1081800086F008E6780079807A021200B3AA82AB02
:1081900083ACF0FDE58124FCF581A81808A602084F
:1081A000A60308A60408A605902578E0FAA3E0FB3C
:1081B000A3E0FCA3E0FDC002C003C004C005A818F2
:1081C0000886820886830886F008E6780079807A37
:1081D000021200B3AA82AB83ACF0FDE58124FCF56A
:1081E00081A81808A60208A60308A60408A60590F8
:1081F000257CE0FAA3E0FBA3E0FCA3E0FDC002C005
:1082000003C004C005A8180886820886830886F083
:1082100008E6780079807A021200B3AA82AB83ACB8
:10822000F0FDE58124FCF581A81808A60208A60344
:1082300008A60408A605E5182405F8C3E694640812
:10824000E6940008E6940008E69400500575820064
:10825000801AA81808C3E49674040896E40896E403
:10826000089650057582008003758201851881D0BB
:10827000180200C5AA82902440EA543FF5F0E05469
:10828000C045F0F0902441EA543FF5F0E054C04579
:10829000F0F0902442EA543FF5F0E054C045F0F08D
:1082A000902443EA543FF5F0E054C045F0F09024A8
:1082B00060EA543FF5F0E054C045F0F0902461EAE4
:1082C000543FF5F0E054C045F0F0902462EA543F8A
:1082D000F5F0E054C045F0F0902463EA543FF5F027
:1082E000E054C045F0F0902430740FF0E4F0902496
:1082F00034740FF0E4F00200C5AA82BA01028008CB
:10830000BA0202805F0283FD7440C0E0E4C0E07402
:1083100078C0E07461C0E0E4C0E090244075F000F3
:1083200078D779BA7A021200B3E58124FBF58190FF
:10833000243074FFF0A3F0A3F0A3747FF0902430F6
:10834000E4F0A3F0A3F0A3F090243474FFF0A3F0C2
:10835000A3F0A3747FF0902434E4F0A3F0A3F0A37F
:10836000F00283FD906178E0902440543FF5F0E006
:1083700054C045F0F0906179E0902441543FF5F00D
:10838000E054C045F0F090617AE0902442543FF50B
:10839000F0E054C045F0F090617BE0902443543FFE
:1083A000F5F0E054C045F0F0906198E090246054FE
:1083B0003FF5F0E054C045F0F0906199E090246101
:1083C000543FF5F0E054C045F0F090619AE09024FD
:1083D00062543FF5F0E054C045F0F090619BE0FA44
:1083E000902463543FF5F0E054C045F0F090243001
:1083F000740FF0E4F0902434740FF0E4F090240B48
:10840000E030E5F90200C57440C0E0E4C0E07480EB
:10841000C0E07424C0E0E4C0E090617875F00078BA
:10842000D779BA7A021200B3E58124FBF581020004
:10843000C5AA82BA00028027BA01030284B5BA0233
:10844000030284F9BA030302853DBA04030285815D
:10845000BA10030285C5BA12030285EF0286C890DE
:1084600024D0E0906148F09024D1E0906149F090F0
:1084700024D2E090614AF09024D3E090614BF090D8
:1084800024F0E090614CF09024F1E090614DF09088
:1084900024F2E090614EF09024F3E0FA90614FF006
:1084A00090240BE030E2047A0180027A009061713E
:1084B000EAF00286C89024D0E0906150F09024D178
:1084C000E0906151F09024D2E0906152F09024D37A
:1084D000E0906153F09024F0E0906154F09024F12A
:1084E000E0906155F09024F2E0906156F09024F312
:1084F000E0FA906157F00286C89024D0E09061586D
:10850000F09024D1E0906159F09024D2E090615A2B
:10851000F09024D3E090615BF09024F0E090615CF7
:10852000F09024F1E090615DF09024F2E090615EC3
:10853000F09024F3E0FA90615FF00286C89024D0B6
:10854000E0906160F09024D1E0906161F09024D2DD
:10855000E0906162F09024D3E0906163F09024F0A9
:10856000E0906164F09024F1E0906165F09024F275
:10857000E0906166F09024F3E0FA906167F0028683
:10858000C89024D0E0906168F09024D1E0906169B7
:10859000F09024D2E090616AF09024D3E090616B77
:1085A000F09024F0E090616CF09024F1E090616D27
:1085B000F09024F2E090616EF09024F3E0FA906184
:1085C0006FF00286C87440C0E0E4C0E074D0C0E040
:1085D0007424C0E0E4C0E090610075F00078D779C1
:1085E000BA7A021200B3E58124FBF5810286C890B5
:1085F00024C0E0547F9061B8547FF5F0E05480458A
:10860000F0F09024C1E0547F9061B9547FF5F0E020
:10861000548045F0F09024C2E0547F9061BA547FBA
:10862000F5F0E0548045F0F09024C3E0547F906171
:10863000BB547FF5F0E0548045F0F09024C4E05442
:108640007F9061BC547FF5F0E0548045F0F09024B9
:10865000C5E0547F9061BD547FF5F0E0548045F053
:10866000F09024C6E0547F9061BE547FF5F0E05452
:108670008045F0F09024C7E0547F9061BF547FF5AF
:10868000F0E0548045F0F0902510E0906140F090CB
:108690002511E0906141F0902512E0906142F09048
:1086A0002513E0906143F0902514E0906144F09030
:1086B0002515E0906145F0902516E0906146F09018
:1086C0002517E0FA906147F00200C5AA82BA0002BD
:1086D0008009BA02030287670287F0906148E09040
:1086E0002440543FF5F0E054C045F0F0906149E07B
:1086F000902441543FF5F0E054C045F0F090614AB9
:10870000E0902442543FF5F0E054C045F0F0906111
:108710004BE0902443543FF5F0E054C045F0F09016
:10872000614CE0902460543FF5F0E054C045F0F017
:1087300090614DE0902461543FF5F0E054C045F065
:10874000F090614EE0902462543FF5F0E054C04553
:10875000F0F090614FE0FA902463543FF5F0E0545C
:10876000C045F0F00287F0906158E0902440543FFB
:10877000F5F0E054C045F0F0906159E09024415488
:108780003FF5F0E054C045F0F090615AE09024428B
:10879000543FF5F0E054C045F0F090615BE0902468
:1087A00043543FF5F0E054C045F0F090615CE09038
:1087B0002460543FF5F0E054C045F0F090615DE076
:1087C000902461543FF5F0E054C045F0F090615EB4
:1087D000E0902462543FF5F0E054C045F0F0906121
:1087E0005FE0FA902463543FF5F0E054C045F0F0A8
:1087F000902430740FF0E4F0902434740FF0E4F01F
:1088000090240BE030E5F90200C5E582FA602B9078
:10881000604CE030E010900264E054E7F090020C0D
:10882000E0548FF08026900264E054E74408F09012
:10883000020CE0548F4430F08012900264E054E760
:108840004410F090020CE0548F4420F090000A781D
:108850008A79B57A021200B30200C59060A4E030B4
:10886000E4119024087455F0A3F090240AE054C059
:10887000F0800F90240874FFF0A3F090240AE044E5
:108880003FF0902401E054FDF0902401E054FEF00C
:1088900090240AE054BFF0902402E054F7F09024B2
:1088A00002E054FBF090240BE0547FF090240BE0A6
:0688B00054BFF00200C5F8
:020000040000FA
:1000FA00906099E0FABA1709788279A97A0212000F
:0F010A00B3906098E054FEF0902230742BF022F6
:10021E00C018858118058105819022D8E04420F010
:10022E00E054DFF09022B47414F09022E4E020E069
:10023E000A906033E054FEF00204B47A0290601F1C
:10024E00E0FBA81808A60390601CE0FC906023E079
:10025E00FD530580A8180808E4BD800104F69060DF
:10026E0020E0FEA3E0FFA3E0FDA3E0FB906024EE00
:10027E00F0A3EFF0A3EDF0A3EBF0906023E0FB53BF
:10028E00030FBB050040057A0402047CA818080879
:10029E00E660027B80C0029022B47413F09022B507
:1002AE00A81808E6F09022B6ECF0906020E0FDA3CE
:1002BE00E0FEA3E0FFA3E0FA9022C4EDF0A3EEF07F
:1002CE00A3EFF0A3EAF0A81808B660028004D002EB
:1002DE00800FD002902600E020E00302047C02048E
:1002EE00B4A81808B68071740BB50400500302044C
:1002FE007CEC2C2C9003067302032A02032A0203C1
:10030E006302036302036302036302033A02033AC6
:10031E0002034A02034A02035A02035AC0048B82A2
:10032E001204BAAD8215818D0202047CC0048B8248
:10033E00120922AD8215818D0202047CC0048B82CB
:10034E00120DBEAD8215818D0202047C8C82120CC0
:10035E0052AD828D0202047CA81808B6814774053E
:10036E00B50400500302047CEC2C2C90037D730228
:10037E00038F02038F02039B02039B0203A7020358
:10038E00A78C82120C8BAD828D0202047C8C8212A1
:10039E000CD7AD828D0202047C8C82120D69AD8267
:1003AE008D0202047CA81808B682687407B5040092
:1003BE00500302047CEC2C2C9003CA730203E2025D
:1003CE0003E20203F20203F2020402020402020436
:1003DE0012020412C0048B82120AABAD8215818DFB
:1003EE000202047CC0048B8212074AAD8215818DF5
:1003FE000202047CC0048B8212062CAD8215818D04
:10040E000202047CC0048B8212083CAB8215818BE5
:10041E0002805BA81808B68313BC00028003BC01DF
:10042E004D8C82120A85AB828B028042A81808B6C8
:10043E00843CBC00028005BC0134801A906020E030
:10044E00FB530303902200E0FCEBB50421120F4492
:10045E00AB828B028018906020E0FB530303902246
:10046E0000E0FCEBB50407120F75AB828B029060B7
:10047E002EEAF0906033E04401F09022B4740FF055
:10048E0090602EE0FA9022B5EAF0906024E0FAA394
:10049E00E0FBA3E0FCA3E0FD9022C4EAF0A3EBF0A6
:1004AE00A3ECF0A3EDF0851881D01822C018858139
:1004BE0018AA82BA800280030205B3E51824FDF85B
:1004CE00B60167902634E0906024F0902635E0FB6C
:1004DE00906025F0902636E030E70D906024E0FB2A
:1004EE00430308906024EBF0902636E030E60D9042
:1004FE006024E0FB430304906024EBF0902636E08A
:10050E0030E50D906024E0FB430302906024EBF095
:10051E009067A6E0FB7003020626906024E0FB4382
:10052E000301906024EBF0020626902637E044206B
:10053E00F0906020E0902634F0906021E090263517
:10054E00F0906020E0FB530308BB0803D38001C387
:10055E009228E43390263613E092E7F0906020E084
:10056E00FB530304BB0403D38001C39228E43390EE
:10057E00263613E092E6F0906020E0FB530302BBB8
:10058E000203D38001C39228E43390263613E092FF
:10059E00E5F0906020E0FB5303019067A6E4BB01F9
:1005AE000104F08073E51824FDF8B60126EA2AFB53
:1005BE0024D0F582E43460F583E0906024F0EB24DF
:1005CE00D0FBE43460FC8B828C83A3E0FB9060252F
:1005DE00F08045EA2AFB24D0FCE43460FD906020D4
:1005EE00E0FE8C828D83F0EB24D0FBE43460FC0BB8
:1005FE00BB00010C906021E0FD8B828C83F090603B
:10060E00CFE0FB8AF005F07401800225E0D5F0FB07
:10061E00FA42039060CFEBF0758200D01822C0181A
:10062E00858118AA82BA800280030206B6E51824D4
:10063E00FDF8B60528900050E0906024F0E0FB90A5
:10064E000054E0FC74E05C4203906024EBF09024D4
:10065E0011E0035401FB906025F0020744906020E6
:10066E00E0900050F0900054E0FB53031F900054B4
:10067E00EBF0E0FB906020E0FC74E05C4203900045
:10068E0054EBF0906021E0540190241013E092E4BA
:10069E00F0902410E0C4540190240CE02323540164
:1006AE00FB9066F7F0020744E51824FDF8B6053610
:1006BE00EA2A25E024B4F582E43460F583E0906004
:1006CE0024F0EA75F050A42404FB746335F0FC7436
:1006DE00412BF582E43CF583E0FBE4BB000104FB17
:1006EE00906025F08050EA2A25E024B4FBE43460C3
:1006FE00FC906020E08B828C83F0EA75F050A4248D
:10070E0004FB746335F0FC74412BFBE43CFC9060FD
:10071E0021E0FD530501E4BD000104FD8B828C83B5
:10072E00F08AF005F07401800225E0D5F0FBFA9016
:10073E0067AAE0FB4AF0758200D01822C0188581A6
:10074E0018AA82BA8040E51824FDF8B60317900265
:10075E0000E0FB906024EBF0900204E0FB9060263A
:10076E00EBF0020836906020E0FB900200EBF09078
:10077E006022E0FB900000EBF0906022E0FB900224
:10078E0004EBF0020836E51824FDF8B60330EA2A29
:10079E0025E0FB24B4FCE43460FD8C828D83A3E061
:1007AE00FC906024ECF0EB24B4FBE43460FC8B8210
:1007BE008C83A3A3A3E0FB906026EBF0806AEA2A69
:1007CE0025E0FB24B4FCE43460FD0CBC00010D906C
:1007DE006020E0FE8C828D83EEF0EB24B4FCE434DA
:1007EE0060FD74022CFCE43DFD906022E0FE8C82E4
:1007FE008D83EEF0EB24B4FBE43460FC74032BFB2E
:10080E00E43CFC906022E0FD8B828C83EDF09060E6
:10081E00CDE0FB8AF005F07401800225E0D5F0FBF7
:10082E00FA42039060CDEBF0758200D01822C0180A
:10083E00858118AA82BA800280030208D7E518249F
:10084E00FDF8B6070C9067A8E0FB906024F0020953
:10085E001C906013E0FB53031F7C00906020E0FDB2
:10086E0053053F9067A8EDF0ED7019906013E0FE10
:10087E0090001025E025E054FCF5F0E0540345F01F
:10088E00F002091C7E00C005C0068B828C83127C90
:10089E0087AD82AE83158115818D03EEC403CBC463
:1008AE000354076BCB5407CB6BCBFC906013E0FD6E
:1008BE00530520EB4205900010ED2D25E054FCF57C
:1008CE00F0E0540345F0F08045E51824FDF8B60736
:1008DE0012EA247CF582E43460F583E0FB90602418
:1008EE00F0802BEA247CFBE43460FC906020E0FD79
:1008FE0053053F8B828C83EDF08AF005F0740180F6
:10090E000225E0D5F0FBFA9067A9E0FB4AF075826C
:10091E0000D01822C018858118AA82BA80028003DE
:10092E000209C8E51824FDF8B6072C90004CE0C467
:10093E005403FB906024EBF090004CE0030354034F
:10094E00FB906025EBF090004CE023235403FB90CA
:10095E006026EBF0020A7F906022E0FBBB01028072
:10096E0008906022E0FBBB0206758204020A8290A8
:10097E006020E0FB53030390004CEBC45430F5F0C1
:10098E00E054CF45F0F0906021E0FB53030390005C
:10099E004CEB2B25E0540CF5F0E054F345F0F090C1
:1009AE006022E0FB53030390004CEB030354C0F5AD
:1009BE00F0E0543F45F0F0020A7FE51824FDF8B64A
:1009CE00065FEA75F050A4FBACF0EB2404FDEC34AA
:1009DE0063FE740E2DFDE43EFE906020E0FF530793
:1009EE00038D828E83EFF0EB2404FDEC3463FE74F2
:1009FE000D2DFDE43EFE906021E0FF5307038D8236
:100A0E008E83EFF0EB2404FBEC3463FC740C2BFBB5
:100A1E00E43CFC906022E0FD5305038B828C83ED59
:100A2E00F0EA75F050A4FAABF0EA2404FCEB346360
:100A3E00FD740E2CF582E43DF583E0FC906024EC11
:100A4E00F0EA2404FCEB3463FD740D2CF582E43DD6
:100A5E00F583E0FC906025ECF0EA2404FAEB3463B5
:100A6E00FB740C2AF582E43BF583E0FA906026EAEB
:100A7E00F0758200D01822AA82BA010E906098E01A
:100A8E00235401FA906024F0800F906020E054010E
:100A9E00FA90609813E092E7F075820022C01885F4
:100AAE008118AA82BA80028003020B5EE51824FD2B
:100ABE00F8B6013A902165E003035407FB902165D7
:100ACE00E0C4035407C454F0FCEB4204906024ECE1
:100ADE00F090022CE0540FFB900230E0C4540FC48F
:100AEE0054F0FCEB4204906025ECF0020C4C90604C
:100AFE0020E0FB530307902165EB2B25E0541CF5FA
:100B0E00F0E054E345F0F0906020E05470C4540FD0
:100B1E00902165C42354E0F5F0E0541F45F0F090A9
:100B2E006021E0FB53030F90022CEB540FF5F0E025
:100B3E0054F045F0F0906021E054F0C4540FFB9057
:100B4E000230C454F0F5F0E0540F45F0F0020C4CB6
:100B5E00E51824FDF8E6707CEA75F050A4FBACF0C5
:100B6E002404FDEC3463FE74222DFDE43EFE906001
:100B7E0020E0FF5307078D828E83EFF0EB2404FDF8
:100B8E00EC3463FE74232DFDE43EFE906020E054B1
:100B9E0070C4540F8D828E83F0EB2404FDEC34630D
:100BAE00FE74242DFDE43EFE906021E0FF53070FFE
:100BBE008D828E83EFF0EB2404FBEC3463FC742502
:100BCE002BFBE43CFC906021E054F0C4540FFD8BF1
:100BDE00828C83F0EA75F050A4FAABF02404FCEB9F
:100BEE003463FD74222CFCE43DFDEA2404FEEB3458
:100BFE0063FF74232EF582E43FF583E0C454F0FEC8
:100C0E008C828D83E04206906024EEF0EA2404FC90
:100C1E00EB3463FD74242CFCE43DFDEA2404FAEB72
:100C2E003463FB74252AF582E43BF583E0C454F06B
:100C3E00FA8C828D83E0FC4202906025EAF0758288
:100C4E0000D01822AA8290A316E05407FBBB03041F
:100C5E0075820222BA0A16906020E0FA53020790BB
:100C6E002640EA5407F5F0E054F845F0F09026409F
:100C7E00E05407FA906024EAF075820022AA82906E
:100C8E00A316E05407FBBB0302800A90A316E054A0
:100C9E0007FBBB050475820222906020E0FB740501
:100CAE00B503004006906020E0700475820422EACD
:100CBE007009906020E0FA9065F6F09065F6E0FA23
:100CCE00906024EAF075820022AA8290A316E05466
:100CDE0007FBBB0302800A90A316E05407FBBB057B
:100CEE000475820122906022E0FB53030F7405B558
:100CFE0003004003EB700475820422BA022DEB2B25
:100D0E00FA24B0FCE434E6FD0CBC00010D90602129
:100D1E00E0FE8C828D83EEF0EA24B0FAE434E6FC39
:100D2E00906020E0FD8A828C83EDF0906026EBF0DF
:100D3E00EB2BFB24B0FAE434E6FC8A828C83A3E02E
:100D4E00FA906025EAF0EB24B0F582E434E6F58300
:100D5E00E0FA906024EAF075820022AA8290A3162F
:100D6E00E05407FBBB0302800A90A316E05407FB76
:100D7E00BB050475820222906020E0FB7405B5036A
:100D8E00004006906020E0700475820422BA0412BE
:100D9E00906020E0FA90E62B540FF5F0E054F04509
:100DAE00F0F090E62BE0540F906024F07582002254
:100DBE00C018858118AA82BA80028003020E84E5CB
:100DCE001824FDF8B6094590200CE003035401FBEE
:100DDE00906026F030101B90A013E0232354019056
:100DEE006025F090A01BE003547FFB906024F0027E
:100DFE000F3E90A00BE023235401906025F090A0AD
:100E0E0012E0547FFB906024F0020F3E90200CE025
:100E1E004402F0906022E0FB30E00990200CE044A8
:100E2E0004F0800790200CE054FBF0301025906009
:100E3E0021E0540190A01313E092E6F0906020E0C0
:100E4E00FB90A01B25E054FEF5F0E0540145F0F0B8
:100E5E00020F3E906021E0540190A00B13E092E649
:100E6E00F0906020E0FB90A012547FF5F0E05480EB
:100E7E0045F0F0020F3EE51824FDF8B6086E90E638
:100E8E0013E04410F0EA2A25E0FB2498FCE434E653
:100E9E00FD906022E0FE530601BE0103D38001C324
:100EAE009228E4338C828D8313E092E0F0EB24845D
:100EBE00FCE434E6FD74032CFCE43DFD906020E080
:100ECE00FE8C828D83547FF5F0E0548045F0F0EB7C
:100EDE002484FBE434E6FC74032BFBE43CFC9060BE
:100EEE0021E0FD8B828C8313E092E7F0EA2A25E065
:100EFE00FA2484FBE434E6FC8B828C83A3A3A3E068
:100F0E00235401906025F0EA2484FBE434E6FC8B44
:100F1E00828C83A3A3A3E0547FFB906024F0EA2489
:100F2E0098F582E434E6F583E05401FA906026F0F9
:100F3E00758200D018227A00902102E020E6047A11
:100F4E00028021908200E04404F0C002780279B45D
:100F5E007A021200B3D002908200E054FBF090228D
:100F6E0030742BF08A82227A00902102E020E6046F
:100F7E007A028021908200E04408F0C002784D7918
:100F8E00AD7A021200B3D002908200E054F7F090D6
:100F9E002230742BF08A822275880575895175A9C5
:100FAE001C75B906D2ABD2ADD2A8D2AAC2A975B859
:100FBE003F75C878759A3EC205C206C207C2089030
:100FCE006711E4F0C209C20AD203D204C21DC21EC6
:060FDE009067A7E4F02279
:020000040001F9
:10971400906038E0547FF0906098E030E110906001
:109724009CE0FAA3E0FB906174EAF0A3EBF090678D
:109734009BE4F07A03C002780779847A011200B3BB
:10974400D00290679BE0FB6027906037E0FBBB0191
:10975400109060407401F0906040E0FBBB01028017
:10976400F68A031AC374808BF063F08095F040C5C9
:1097740078AF799C7A011200B3785E79A27A0112EB
:1097840000B3906038E04480F0906658E0FA90604E
:109794004AEAF0906659E0FA906049EAF090665F10
:1097A400E0FA906048EAF090665AE0FA90604BEA7A
:1097B400F00200C590614AE0FA90614BE0FBC00200
:1097C4008B82787179B97A021200B3AB8215818BDE
:1097D4000290614EE0FBC0028B82787179B97A0203
:1097E4001200B3AB8215818B0290614FE0FBC00283
:1097F4008B82787179B97A021200B3AB82158190A9
:109804006643EBF0906148E0FA906149E0FBC002E6
:109814008B82787179B97A021200B3AB8215818B8D
:109824000290614CE0FBC0028B82787179B97A02B4
:109834001200B3AB8215818B0290614DE0FBC00234
:109844008B82787179B97A021200B3AA8215819059
:109854006642EAF090614AE0FA7B0090614BE0FCDA
:109864007D00EC2AFAED3BFB90614EE0FC7D00ECC0
:109874002AFAED3BFB90614FE0FC7D00EC2AFAED07
:109884003BA2E713CA13CAA2E713CA13CA906641DC
:10989400EAF0906148E0FA7B00906149E0FC7D00C9
:1098A400EC2AFAED3BFB90614CE0FC7D00EC2AFADB
:1098B400ED3BFB90614DE0FC7D00EC2AFAED3BA210
:1098C400E713CA13CAA2E713CA13CA906640EAF0A0
:1098D400906152E0FA7B00906153E0FC7D00EC2A39
:1098E400FAED3BFB906156E0FC7D00EC2AFAED3B7F
:1098F400FB906157E0FC7D00EC2AFAED3BA2E713F4
:10990400CA13CAA2E713CA13CA906645EAF0906163
:1099140050E0FA7B00906151E0FC7D00EC2AFAED06
:109924003BFB906154E0FC7D00EC2AFAED3BFB909C
:109934006155E0FC7D00EC2AFAED3BA2E713CA1363
:10994400CAA2E713CA13CA906644EAF090610CE015
:10995400FA3395E0FB90612CE0FC3395E0FDEC2AB2
:10996400FAED3BA2E713CA13CA906646EAF0906187
:1099740004E0FA3395E0FB906105E0FC3395E0FDEB
:10998400EC2AFAED3BFB906124E0FC3395E0FDEC1E
:109994002AFAED3BFB906125E0FC3395E0FDEC2ACF
:1099A400FAED3BA2E713CA13CAA2E713CA13CA907B
:1099B4006647EAF0906106E0FA3395E0FB906107B0
:1099C400E0FC3395E0FDEC2AFAED3BFB906126E0E8
:1099D400FC3395E0FDEC2AFAED3BFB906127E0FCBB
:1099E4003395E0FDEC2AFAED3BA2E713CA13CAA2B1
:1099F400E713CA13CA906648EAF0906108E0FA33A4
:109A040095E0FB906109E0FC3395E0FDEC2AFAED6A
:109A14003BFB906128E0FC3395E0FDEC2AFAED3B3A
:109A2400FB906129E0FC3395E0FDEC2AFAED3BA2C2
:109A3400E713CA13CAA2E713CA13CA906649EAF025
:109A440090610AE0FA3395E0FB90610BE0FC3395FA
:109A5400E0FDEC2AFAED3BFB90612AE0FC3395E053
:109A6400FDEC2AFAED3BFB90612BE0FC3395E0FD25
:109A7400EC2AFAED3BA2E713CA13CAA2E713CA13EE
:109A8400CA90664AEAF090610DE0FA3395E0FB90E3
:109A9400612DE0FC3395E0FDEC2AFAED3BA2E713DF
:109AA400CA13CA90664BEAF090610EE0FA3395E06F
:109AB400FB90612EE0FC3395E0FDEC2AFAED3BA22D
:109AC400E713CA13CA90664CEAF090610FE0FA33C8
:109AD40095E0FB90612FE0FC3395E0FDEC2AFAED74
:109AE4003BA2E713CA13CA90664DEAF0906110E0F6
:109AF400FA3395E0FB906130E0FC3395E0FDEC2A0D
:109B0400FAED3BA2E713CA13CA90664EEAF09061DD
:109B14005AE0FA7B0090615BE0FC7D00EC2AFAEDF0
:109B24003BFB90615EE0FC7D00EC2AFAED3BFB9090
:109B3400615FE0FC7D00EC2AFAED3BA2E713CA1357
:109B4400CAA2E713CA13CA906650EAF0906158E0BB
:109B5400FA7B00906159E0FC7D00EC2AFAED3BFBB6
:109B640090615CE0FC7D00EC2AFAED3BFB90615DCA
:109B7400E0FC7D00EC2AFAED3BA2E713CA13CAA26B
:109B8400E713CA13CAFB90664FEAF09060A0E02086
:109B9400E303029C16906162E0FA7B00906163E04B
:109BA400FC7D00EC2AFAED3BFB906166E0FC7D0055
:109BB400EC2AFAED3BFB906167E0FC7D00EC2AFAAD
:109BC400ED3BA2E713CA13CAA2E713CA13CA9066ED
:109BD40052EAF090616AE0FA7B0090616BE0FC7DF0
:109BE40000EC2AFAED3BFB90616EE0FC7D00EC2A70
:109BF400FAED3BFB90616FE0FC7D00EC2AFAED3B53
:109C0400A2E713CA13CAA2E713CA13CAFB90665485
:109C1400EAF0906170E0906655F0906174E0FAA308
:109C2400E0FB20E103029CAC902510E0FA3395E0C0
:109C3400FB902511E0FC3395E0FDEAC39CFAEB9D13
:109C4400FB902514E0FC3395E0FDEC2AFAED3BFB98
:109C5400902515E0FC3395E0FDEAC39CFAEB9D8A60
:109C640004906656ECF0902512E0FA3395E0FB90F0
:109C74002513E0FC3395E0FDEAC39CFAEB9DFB90D1
:109C84002516E0FC3395E0FDEC2AFAED3BFB90252C
:109C940017E0FC3395E0FDEAC39CFAEB9DFB90666C
:109CA40057EAF0906798E4F00200C5C0188581185F
:109CB400058178B879977A011200B3300D37200CFA
:109CC40034906644E090665AF0906640E09066599D
:109CD400F0906642E0906658F0906647E090665BCC
:109CE400F0906649E090665CF090664FE0FA90660A
:109CF4005FF0029E12200D37300C34906645E090E0
:109D0400665AF0906641E0906659F0906643E090A0
:109D14006658F0906648E090665BF090664AE09082
:109D2400665CF0906650E0FA90665FF0029E1290D6
:109D34006644E0FA7B00906645E0FC7D002AFAED7B
:109D44003BFB0ABA00010BEBA2E713CA13CA9066E5
:109D54005AEAF0906640E0FA7B00906641E0FC7DB0
:109D6400002AFAED3BFB0ABA00010BEBA2E713CA87
:109D740013CA906659EAF0906643E0FA906642E0AE
:109D8400FBC0028B82787179B97A021200B3AA827D
:109D94001581906658EAF0906647E0FA3395E0FB47
:109DA400906648E0FC3395E0FDEC2AFAED3BFB0AB3
:109DB400BA00010BEBA2E713CA13CA90665BEAF080
:109DC400906649E0FA3395E0FB90664AE0FC3395EF
:109DD400E0FDEC2AFAED3BFB0ABA00010BEBA2E72B
:109DE40013CA13CA90665CEAF090664FE0FA7B00EF
:109DF400906650E0FC7D002AFAED3BFB0ABA0001B4
:109E04000BEBA2E713CA13CAFB90665FEAF09066F5
:109E14005AE0FA906659E0FBEAC39B90665DF090C5
:109E2400665DE0FA74C1C0E0743FC0E08A8278C322
:109E340079B97A021200B3AA821581158190665D00
:109E4400EAF0906646E0F58278A079BA7A021200C8
:109E5400B3E582FA3395E0FB90665BE0F582C002DD
:109E6400C00378A079BA7A021200B3AC82D003D0CE
:109E740002EC3395E0FDEC2AFAED3BFB90665CE0E6
:109E8400F582C002C00378A079BA7A021200B3AC9A
:109E940082D003D002EC3395E0FDEC2AFAED3BFBD3
:109EA40090664BE0F582C002C00378A079BA7A02CA
:109EB4001200B3AC82D003D002EC3395E0FDEC2A5F
:109EC400FAED3BFB90664CE0F582C002C00378A03B
:109ED40079BA7A021200B3AC82D003D002EC339583
:109EE400E0FDEC2AFAED3BFB90604DE023235401A6
:109EF400FCB40100E433FC604A906658E0FC9060D6
:109F040067E0FDECB50500B3E433FD703190606E9D
:109F1400E0FDECB50500B3E433FC601690606DE041
:109F2400FC7D00C3EA9CEB64808DF063F08095F0C7
:109F340040047A0080027A01EA7003FA80027A010E
:109F4400EA70047A0080027A01906666EAF0906012
:109F54004DE023235401FAB40100E433FA6048903D
:109F64006646E0F58278A079BA7A021200B3AA8232
:109F7400906066E0FBEAB50300B3E433FB70239022
:109F8400665BE0F58278A079BA7A021200B3AA82FD
:109F940090606FE0FBEAB50300B3E433FB7003FAAF
:109FA40080027A01EA70047A0080027A019066677E
:109FB400EAF0906666E07009906667E07003FA80E4
:109FC400027A01906668EAF090665FE0FA90604F6A
:109FD400E0543FFB8A04C3EB64808CF063F080950B
:109FE400F05006906655E070047B0080027B01907F
:109FF4006669EBF090604DE0541FFB8A04C3EC6487
:10A00400808BF063F08095F0B3E433FC60069066D7
:10A0140055E070047B0080027B0190666AEBF0904F
:10A02400665AE0FB906659E0FCEBB5040040048CF2
:10A03400058007EB2BFBC39CFCFD906655E060108C
:10A0440090600AE020E2028D0290665EEAF08005EC
:10A0540090665EE4F0900050E0C423540390666D73
:10A06400E4F0A3F090666DE0FAA3E0FB906088A8AA
:10A074001808E0035401F6906646E0FD3395E0FECF
:10A08400900050E003540390A36793FF3395E0FCE2
:10A09400C002C003C007C0048D828E83127C87ACCB
:10A0A40082AD8315811581A8180886067F00C00437
:10A0B400C0058E828F83127C87AC82AD8315811597
:10A0C40081D003D002EC2AFAED3BFB90666DEAF0F6
:10A0D400A3EBF0900050E0540190A36B93FC3395F4
:10A0E400E0FD90665BE0FE3395E0FFC002C003C074
:10A0F40006C0078C828D83127C87AC82AD83158168
:10A104001581D003D002EC2AFAED3BFB90666DEA90
:10A11400F0A3EBF0900050E0540190A36D93FC3356
:10A1240095E0FD90665CE0FE3395E0FFC002C0035D
:10A13400C006C0078C828D83127C87AC82AD8315E8
:10A14400811581D003D002EC2AFAED3BFB90666DB9
:10A15400EAF0A3EBF0900050E0540190A36F93FC5D
:10A164003395E0FD90664BE0FE3395E0FFC002C0FE
:10A1740003C006C0078C828D83127C87AC82AD83BA
:10A1840015811581D003D002EC2AFAED3BFB9066D1
:10A194006DEAF0A3EBF0900054E023540190A37116
:10A1A40093FC3395E0FD90664CE0FE3395E0FFC0F0
:10A1B40002C003C006C0078C828D83127C87AC82E8
:10A1C400AD8315811581D003D002EC2AFAED3BFB57
:10A1D40090666DEAF0A3EBF0900054E023540190F4
:10A1E400666DEAF0A3EBF0900054E023540190660E
:10A1F4006DEAF0A3EBF0E4C0E074FCC0E0E4C0E07E
:10A204007404C0E08A828B83784479BA7A0212009B
:10A21400B3AA82AB83E58124FCF58190666DEAF0F4
:10A22400A3EBF090666DE0FAA3E0FB9066CAE0FC55
:10A234003395E0FDEAC39CF582EB9DF58378B7790D
:10A24400BA7A021200B3AA82AB8390666BEAF0A3D7
:10A25400EBF0851881D0180200C5906655E07003B4
:10A26400FA804D90665FE0FB90604EE05407FC8BF3
:10A2740005C3ED64808CF063F08095F050047A019E
:10A28400802E90604DE0541FFCC3EB64808CF0631F
:10A29400F08095F050047A028016906668E06004BD
:10A2A4007A03800C906669E070047A0480027A056F
:10A2B400906663EAF00200C5906727E0FABA0102EB
:10A2C40080089066F7E0FABA010302A36090604C3C
:10A2D400E030E30302A36090604CE020E507906760
:10A2E40015E0FA600302A360906047E020E1028079
:10A2F4006B78B479957A011200B39000EEE493FA86
:10A30400A3E493FB906174EAF0A3EBF078077984FB
:10A314007A011200B3906158E0FA7B00906159E031
:10A32400FC7D00EC2AFAED3BFB90615CE0FC7D00D7
:10A33400EC2AFAED3BFB90615DE0FC7D00EC2AFA2F
:10A34400ED3BA2E713CA13CAA2E713CA13CA90606B
:10A35400A1EAF078F179947A011200B30200C503FE
:0FA36400040607030406070305030502030102AD
:020000040000FA
:100FE400C018E581F5182407F581900228E0030371
:100FF4005407FA53020390605AE003035401FBBB05
:101004000102800302119E906038E030E303021174
:101014009EC00278B479957A011200B3D002900090
:1010240060E0C403540190671DF090005CE0035439
:101034000190671EF0902400E0C4540F906724F0E0
:10104400902406E0543FFBE4CBC4CB6BCB54F0CBF1
:101054006BFC902405E0C4540FFD7E00906725EDE1
:101064004BF0EE4CA3F0900058E02323540190671A
:1010740021F0900058E0C4035401906722F09024BA
:1010840010E0C45401906723F09066F7E0FB90678A
:101094009CF09066F7E4F0BA0309900060E0442005
:1010A400F0800ABA020790005CE04402F090605AB3
:1010B400E030E01DD20CC20DEA700B902400E05425
:1010C4000F44C0F08026902400E0540F4480F08048
:1010D4001BC20CD20DEA700B902400E0540F443074
:1010E400F08009902400E0540F4420F0902408E498
:1010F400F0A3F090240AE054C0F090240AE054BF16
:10110400F0902406E0543F4480F09024077402F0E9
:10111400902405E0540F4450F0902406E054C0F0AD
:10112400780779847A021200B3788279A97A021254
:1011340000B3900028E003547F906045F090223083
:10114400742BF0A20DE43390005813E092E5F0A262
:101154000CE43390005813E092E6F0900058E05409
:10116400EFF078C279A77A011200B3902580E044A9
:1011740001F0906059E054FCF0906058E4F09067FE
:101184000EF0A3F09067277401F0906038E04408F3
:10119400F0902230742BF002158C90605AE0030317
:1011A4005401FABA010280030214A3906038E0C427
:1011B400235401FABA010280030214A3906038E0B8
:1011C400C45401FABA010280030214A3906059E0E6
:1011D4005403FA30E11A906059E05403FB7A004357
:1011E40003FC906058E0FC7D004202ED420380194C
:1011F400906059E05403FD7C00906058E0FE7F004D
:101204004204EF42058C028D0390670EE0FCA3E0DC
:10121400FDEAC39CF582EB9DF583C002C003122E48
:10122400BCD003D00290670EEAF0A3EBF09060B05C
:10123400E4F09060ACF0A3F0A3F0A3F09060B2E40B
:10124400F09060A8F0A3F0A3F0A3F09060B1E4F0F4
:101254009060E0F0A3F0A3F0A3F09060B3E4F0900A
:1012640060DCF0A3F0A3F0A3F09060A5E0540FFAC3
:10127400BA030050047B03800F740CB502005004C1
:101284007C0C80028A048C038B021A1A1AEA2A251F
:10129400E02452FAE43416FB9000E8E493FCA3E45F
:1012A40093FD906174ECF0A3EDF0C002C0037807E5
:1012B40079847A011200B3D003D002A8180876000A
:1012C400A81808B602004003021421C002C003900B
:1012D40060B0E0FDA81808E675F002A4FEE5F0CEC3
:1012E40025E0CE33CE25E0CE33FFEE2470FAEF3482
:1012F40025FB7C00C003C005C006C007C002C003B4
:10130400C0049060AC75F000121592AA8215811584
:10131400811581D007D006D005D003EA2D9060B0A6
:10132400F09060B2E0FAEE2460FBEF3425FC7D001F
:10133400C002C006C007C003C004C0059060A87501
:10134400F000121592AB82158115811581D007D05A
:1013540006D002EB2A9060B2F0E0FCA81808E51869
:101364002406F9E6F7E4C725E0C733C725E0C73309
:1013740009F7E5182406F8E624F0FD08E63425FA12
:101384008D828A83A3A3A3A3E02C9060B2F0906023
:10139400B1E0FCEE2474FDEF3425FA7B00C003C0F9
:1013A40004C006C007C005C002C0039060E075F029
:1013B40000121592AA82158115811581D007D006D5
:1013C400D004D003EA2C9060B1F09060B3E0FAEE60
:1013D4002464FEEF3425FF7B00C002C006C007C0B2
:1013E400039060DC75F000121592AB8215811581B3
:1013F4001581D002EB2A9060B3F0E0FAE5182406D8
:10140400F8E624F0F58208E63425F583E02A9060B6
:10141400B3F0A8180806D003D0020212C49060B238
:10142400E0FCA8180808A6040876000876000876E8
:1014340000A8180808E6080808F61818187600081E
:1014440076000876009060A8E0A3E0FDA3E0FEA388
:10145400E0FF8D048E058F067F00A8180808EC466F
:10146400F6ED0846F6EE0846F6EF0846F68A828B55
:1014740083E493FCA3E493FDA3E493FEA3E493FF2A
:10148400A8180808C3E69C08E69D08E69E08E69F9F
:10149400500302129C906038E054EFF002158C90D7
:1014A4006727E0FABA0102800302158C90605AE0C3
:1014B40030E20302158C902580E054FEF0906038F1
:1014C400E054F7F0906038E054EFF0906727E4F0D0
:1014D400906721E090005813E092E6F0906722E0D4
:1014E40090005813E092E5F0788279A97A0212000C
:1014F400B390671DE090006013E092E5F090671EE2
:10150400E090005C13E092E1F0906724E090240006
:10151400C454F0F5F0E0540F45F0F0906725E0FA7C
:10152400A3E0FB740F5A902405C454F0F5F0E05482
:101534000F45F0F0EBC4CAC4540F6ACA540FCA6A08
:10154400CA53023F902406EA543FF5F0E054C045E4
:10155400F0F0906723E090241013E092E4F0906799
:101564009CE09066F7F075820278F979827A02122B
:1015740000B3902230742BF090604CE020E50978A1
:10158400F179947A011200B3851881D01822C01819
:10159400858118C082C083C0F0E581240BF581A841
:1015A400180886820886830886F0E5182404F91250
:1015B4007D6CF7A3127D6C09F7A3127D6C09F7A368
:1015C400127D6C09F7E51824FBF8860308860408E5
:1015D40086028B828C838AF0E5182408F8127D6CCD
:1015E400F6A3127D6C08F6A3127D6C08F6A3127D97
:1015F4006C08F6E5182404F8E5182408F9E726FE33
:1016040009E70836FF09E70836FA09E70836FBA8B0
:10161400180886820886830886F0EE127C6EA3EF93
:10162400127C6EA3EA127C6EA3EB127C6EE5182486
:1016340008F8C3EE96EF0896EA0896EB089650056C
:101644007582018003758200851881D018220400F8
:1016540000002800000087010000430F0000969856
:101664000000E2F50500CB9A3B00E50B5402E87656
:10167400481711A5D4E87A0E7B0000000000000092
:10168400000000001ABAFF011BEA4B600302167E39
:101694002290223374FFF090220BE0547FF075F710
:1016A4000175F70122C0E0C082C083C0D075D0109C
:1016B400C2AF90223374F0F0C28DC28C9022337486
:1016C400FFF0D2AFD0D0D083D082D0E032C0D0757A
:1016D400D010C2AFC28EC28FD203D2AFD0D032C02C
:1016E400E0C082C083C0D075D010C2AF90223374E2
:1016F400F2F075C878C2C6D204906033E020E503E6
:101704000217A12006030217A19066CCE0FA700329
:101714000217A1902603E020E410902600E0547FF5
:10172400F0902601E04401F08032902609E0FA208E
:10173400E71C90A316E05407FABA0302801090261F
:1017440000E04480F0902601E04401F0800E9026F1
:1017540000E04480F0902601E054FEF0902603E07F
:1017640020E71C902126E020E215906083E044806D
:10177400F0902600E0547FF0902601E054FEF090B3
:101784006083E04440F0906083E04402F0902603DC
:10179400E04408F0906083E04408F0802D90260334
:1017A400E020E0263007239066CCE0FA601C902607
:1017B40002E04480F0906083E04401F0906083E0B4
:1017C4004410F0906083E04420F090223374FFF0E2
:1017D400D2AFD0D0D083D082D0E032C0E0C082C0BB
:1017E40083C0D075D010902233740DF074FFF0D004
:1017F400D0D083D082D0E032C0E0C082C083C0D0D9
:1018040075D010C2AF9022337403F090201BE030E7
:10181400E1089020537402F0E4F090201BE030E2E1
:10182400369020537404F0E4F090A31BE020E527E5
:10183400902007E020E520902200E0FA90E650E0B6
:10184400FBEAB5131290A34E740EF0740CF07408F6
:10185400F0E4F0902236F090223374FFF0D2AFD04F
:10186400D0D083D082D0E032C0E0C082C083C0D068
:1018740075D0107A00C2AF9022337401F090201A10
:10188400E030E1679020527402F0E4F0902200E02E
:10189400700E902034E05401FB90E651EBF0800C84
:1018A400902034E05401FB90E652EBF0902034E0B9
:1018B40020E01790A02FE054EFF090A02FE054DF29
:1018C400F090A327E054F7F0802190E651E0601BEC
:1018D40090E652E0601590A02FE04410F090A02F05
:1018E400E04420F090A327E04408F090201BE0306F
:1018F400E010902200E0FB90E650E0FCEBB514020F
:101904007A0190201BE020E403021AF09020537423
:101914001BF0E4F0902007E0C4035401FBBB010872
:101924009022367401F08005902236E4F090662B04
:10193400E0FB600B90223374FFF0D2AF021AF890F0
:101944002230E0FBBB1B02802BBB2002805FBB214B
:10195400028021BB2202806BBB23028066BB24026F
:10196400804BBB25028046BB26028041BB330280EC
:1019740052021A1E902007E0C4035401FBBB010B62
:10198400D20590A2B67401F0021AF0EA7003021AAA
:10199400F09022317421F090223374FFF090220BE6
:1019A400E0547FF075F70175F701021AF0902007F3
:1019B400E0C4035401FABA01028003021AF0D2050A
:1019C400021AF0902007E020E523902002E054FB67
:1019D400F09022317421F090223374FFF090220BA6
:1019E400E0547FF075F70175F701021AF0902102B7
:1019F400E003035401FABA0105D205021AF0902259
:101A0400317422F090223374FFF090220BE0547F63
:101A1400F075F70175F701021AF0902007E030E540
:101A240007902007E020E42A902002E054FBF09085
:101A34002102E054BFF09022317421F090223374DB
:101A4400FFF090220BE0547FF075F70175F7010267
:101A54001AF0902102E020E254902102E054BFF0F9
:101A640090E604E020E31B9022317422F0902233AC
:101A740074FFF090220BE0547FF075F70175F701C5
:101A8400806A902007E030E31C902007E04440F097
:101A9400902007E04440F0902007E04440F090207C
:101AA40007E04480F090223A7401F0803F902102D4
:101AB400E030E23890E604E030E331902007E020A3
:101AC400E323902007E030E71C902007E0547FF0E8
:101AD400902007E0547FF0902007E0547FF090209E
:101AE40007E054BFF0902102E04440F090223374A8
:101AF400FFF0D2AFD0D0D083D082D0E032C0E0C0EB
:101B040082C083C0D075D010C2AFC29B9022337400
:101B140008F090201AE020E703021BA090205274E2
:101B240080F0E4F0902007E05401FABA016E9022AC
:101B340030E0FABA1B02800FBA2102800ABA2202EC
:101B44008022BA233C801D9022317420F0D29B90D5
:101B5400223374FFF090220BE0547FF075F7017587
:101B6400F70180239022317433F0D29B9022337496
:101B7400FFF090220BE0547FF075F70175F70180B8
:101B840006902231741FF0D29B90223374FFF090A0
:101B9400220BE0547FF075F70175F70190201AE0ED
:101BA40030E6339020527440F0E4F0902007E020B7
:101BB400E514902236E4F0902006E0235401FABAAA
:101BC40001028002D205902006E0235401FA9020FD
:101BD4000013E092E6F090223374FFF0D29BD2AF70
:101BE400D0D0D083D082D0E032C0D075D010D0D045
:101BF40032C0E0C082C083C0D075D010C2AF902282
:101C0400337402F090202BE030E60F90205774409C
:101C1400F0E4F0902102E054BFF090202BE030E794
:101C24000F9020577480F0E4F0902002E054FBF011
:101C3400902053E04408F0E054F7F090A316E054E9
:101C440007FABA04239022317403F0902238E0FAA0
:101C5400431201902238EAF0902003E04404F0900B
:101C64002003E04401F080069022317419F09022A0
:101C74003374FFF090220BE0547FF075F70175F791
:101C84000190223374FFF0D2AFD0D0D083D082D071
:101C9400E032C0E0C082C083C0D075D010C2AFC2F1
:101CA4009E902233740BF0902620E020E003021D66
:101CB400289026447401F0E4F0A207E433FA902259
:101CC400B4EAF0902002E030E25A20072490260182
:101CD400E030E550902603E04404F0D2079066CC4F
:101CE400E4F0C20375C860C2C69022317428F08043
:101CF40033902231E0FABA2910C207902603E05447
:101D0400FEF0902603E054FBF0902231742AF0D2C6
:101D14009E90223374FFF090220BE0547FF075F70D
:101D24000175F701902143E030E52B90215BE044FD
:101D340020F0E054DFF0902603E020E7199026011C
:101D4400E030E612902126E020E20B902274E05469
:101D5400F7F0E04408F090223374FFF0D29ED2AF43
:101D6400D0D0D083D082D0E032C0E0C082C083C063
:101D7400D075D010C2AF9022337405F0902644740D
:101D840002F0E4F0A206E433FA9022B4EAF09026DA
:101D940001E030E67220066F902603E04402F090E2
:101DA40022317428F0D20690A316E05407FABA033D
:101DB400028007902636E04480F0906711E4F0C278
:101DC4000375C860C2C6902250E054DFF09066CC20
:101DD400E4F0902143E054DFF0902143E054BFF05D
:101DE4009022D8E04408F0E054F7F0902603E03065
:101DF400E707902604E4F0A3F0902602E04420F0E4
:101E0400E054DFF0021F07902601E030E63E300682
:101E14003B902603E0C45401FABA01309022317495
:101E240028F0906711E4F0C20375C860C2C690261A
:101E340000E054FBF0902603E054EFF02026030268
:101E44001F07902601E0547FF0021F07902601E04F
:101E540020E64E30064B902603E020E444902231E5
:101E6400E0FABA2A21C206902600E054FBF090263C
:101E740003E054EFF0302607902601E0547FF09001
:101E84002603E054FDF09022317429F0902233743B
:101E9400FFF090220BE0547FF075F70175F7018095
:101EA40062902601E030E65B300658906711E4F05A
:101EB400C20375C860C2C6902250E054DFF090227D
:101EC40074E054F7F0902600E054FBF0902603E011
:101ED40054EFF0302607902601E0547FF09026035B
:101EE400E054FDF09067107401F09022317429F0F1
:101EF40090223374FFF090220BE0547FF075F701C9
:101F040075F70190223374FFF0D2AFD0D0D083D0D4
:101F140082D0E032C0E0C082C083C0D075D010C28D
:101F2400AF902102E054F7F0902233740AF090222B
:101F34003AE0600E90223AE4F0902102E04408F086
:101F44008008D208902231742CF090223374FFF070
:101F5400D2AFD0D0D083D082D0E032C025C0E0C090
:101F6400F0C082C083C0D075D010C0188581180518
:101F740081058105817A00C2AF9022337407F09005
:101F84002621E020E103022585902645E04402F065
:101F9400E054FDF0D2AF902603E020E10A90260041
:101FA400E020E00302258590260BE0FB90260AE062
:101FB400FC90260AE0A3E0902609E0FD902608E0C4
:101FC400A3E030060E902601E023235401FEBE0157
:101FD40002801F200A03022585902601E030E603D3
:101FE400022585902600E05401FEBE010280030212
:101FF4002585C012ECC4540FFE531603EC0303549E
:102004003FFFA8180874035FF6A818080874035C57
:10201400F67F0090A316E05407FABA04028004D0B5
:10202400128038D012C016EBC4540FFEE5182403F6
:10203400F874035EF6E5182403F8E6D01630E009D8
:10204400E5182403F876048039E5182403F8E6300B
:10205400E130E5182403F876058027EB54E060139B
:10206400C01774E05BFFBFE005D017022585D017C9
:10207400022529EB0303543FFBE5182403F87403FA
:102084005BF6E5182403F8E6700302216AED30E7F5
:1020940003022585ED30E60F90A316E05407FBBB41
:1020A400040280030225859067A6E0FB60030225F5
:1020B40029E5182403F8E625E0FA24B0F582E4348F
:1020C400E6F583E0FB902634EBF0EA24B0FAE4343E
:1020D400E6FB8A828B83A3E0FB902635EBF0902607
:1020E40034E0C4540FFA90600FE0540FFBEAB513C8
:1020F4000040047F20800E902634E054F070047F6A
:102104003080027F10C017902635E0C4540FFB9036
:10211400600EE0540FFFEBB51700D01740054317CE
:10212400088010902635E054F0700543170C8003A6
:10213400431704C017902635E0540FFB90600FE05E
:10214400C4540FFFEBB51700D01740064317020223
:102154002529902635E0540F7006431703022529DC
:10216400431701022529E5182403F8743F5CF6E5BA
:10217400182403F8E670030225297B00BB0B0050EA
:1021840014EB90274D93FCE5182403F8E6B51402EC
:1021940080030B80E7BB0B004003022529ED30E7E9
:1021A40003022585ED30E60F90A316E05407FBBB30
:1021B400040280030225859067A6E0FB60030224E5
:1021C4003F902635E0C4540FFB90600EE0540FFCA2
:1021D400EBB514009228B39217902635E0C4540F3F
:1021E400FBB401009218902635E0540FFB90600F69
:1021F400E0C4540FFCEBB514009228B39219902656
:1022040035E0540FFBB40100921A902634E0C45414
:102214000FFB90600FE0540FFCEBB514009228B351
:10222400921B902634E0C4540FFBB40100921CE5C9
:10223400182403F8B60103022398E5182403F8B61A
:10224400020302235EE5182403F8B6040302233DC7
:10225400E5182403F8B605028060E5182403F8B6EF
:10226400080302231CE5182403F8B60A02802DE5AE
:10227400182403F8B61003022409E5182403F8B659
:1022840014028074E5182403F8B620030223D1E570
:10229400182403F8B62802803F02243F2019169020
:1022A4002635E0540FFB0B902635EB540FF5F0E088
:1022B40054F045F0F07A0102243F201A1690263596
:1022C400E0540FFB1B902635EB540FF5F0E054F06F
:1022D40045F0F07A0102243F201B18902634E0C414
:1022E400540FFB0B902634EBC454F0F5F0E0540F7C
:1022F40045F0F07A0202243F201C18902634E0C4F2
:10230400540FFB1B902634EBC454F0F5F0E0540F4B
:1023140045F0F07A0202243F30170302243F90264E
:1023240035E0C4540FFB0B902635EBC454F0F5F0A4
:10233400E0540F45F0F002243F30180302243F908C
:102344002635E0C4540FFB1B902635EBC454F0F53E
:10235400F0E0540F45F0F002243F30190302243F0B
:10236400201818902635E0C4540FFB1B902635EB3B
:10237400C454F0F5F0E0540F45F0F0902635E054E5
:102384000FFB0B902635EB540FF5F0E054F045F0BD
:10239400F002243F301A0302243F201718902635F8
:1023A400E0C4540FFB0B902635EBC454F0F5F0E079
:1023B400540F45F0F0902635E0540FFB1B90263562
:1023C400EB540FF5F0E054F045F0F0806E201B6BF9
:1023D400902634E0C4540FFB0B902634EBC454F025
:1023E400F5F0E0540F45F0F0201850902635E0C485
:1023F400540FFB1B902635EBC454F0F5F0E0540F5A
:1024040045F0F08036201C33902634E0C4540FFB92
:102414001B902634EBC454F0F5F0E0540F45F0F073
:10242400201718902635E0C4540FFB0B902635EB8B
:10243400C454F0F5F0E0540F45F0F0902635E0C4B4
:10244400540FFB90600EE0540FFCEBB5140092287F
:10245400B39217902635E0C4540FFBB401009218D0
:10246400902635E0540FFB90600FE0C4540FFCEB52
:10247400B514009228B39219902635E0540FFBB49A
:102484000100921A902634E0C4540FFB90600FE0D0
:10249400540FFCEBB514009228B3921B902634E041
:1024A400C4540FFBB40100921CBE010B301C047F0A
:1024B4003080107F10800CBE0209301B047F208006
:1024C400027F10EA7024A81808B6010D30180543DD
:1024D400170C80164317048011A81808B6020B3095
:1024E40017054317088003431704A8180808B60102
:1024F4000D301A0543170380174317018012A818DB
:102504000808B6020B30190543170280034317016C
:10251400BA0107EF2F25E0FB4217BA0208EF0303C5
:10252400543FFA42177A00902604EFF0A3EAF090A1
:102534002603E020E740200A3D906711E0FA600F8F
:10254400902605E0FA431280902605EAF080279051
:102554006710E0FA602090A316E05407FAC3748170
:102564008AF063F08095F0400D902605E0FA43125E
:1025740040902605EAF0902602E04420F0E054DF83
:10258400F090223374FFF0D2AF851881D018D0D0E8
:10259400D083D082D0F0D0E0D02532C0D075D01016
:1025A400C2AFD2AFD0D032C0D075D010C2AFC29FAC
:1025B400D29FD2AFD0D032C0E0C0F0C082C083C0BE
:1025C400D075D010C2AFD2BB9022337404F09022E5
:1025D40088E030E3609022D8E04408F0E054F7F05B
:1025E400906033E030E44E30064B9066CCE0FA6005
:1025F40044902603E020E73D902126E020E2369037
:10260400A316E05407FAC374818AF063F08095F04E
:102614004015906083E04480F0902600E0547FF001
:10262400902601E054FEF0902603E04408F0906008
:1026340083E04440F0902288E030E5199022D8E00D
:102644004420F0E054DFF09022E4E020E0079060C2
:1026540033E054FEF090A2E4E020E203022722904B
:10266400A2F4E04404F0E054FBF090A2FCE0700813
:1026740090A2FAE4F002270C902007E020E50D90E8
:10268400A2FCE0FA90A2FAEAF002270C90A2FCE085
:10269400FABA020790A31BE020E25B90A2FCE0FAE6
:1026A400BA030790A34FE020E04C90A2FCE0FABAF2
:1026B400040790A319E020E63D90A2FCE0FABA05D5
:1026C4000790A34EE020E52E90A2FCE0FABA06089B
:1026D400902238E0FA20E11E90A2FCE0FABA070743
:1026E4009067BAE0FA700F90A2FCE0FABA0813906F
:1026F40067BAE0FA700C90A2FCE0FA90A2FAEAF051
:10270400800690A2FA7401F090A2FCE0600990A205
:10271400FBE04401F0800790A2FBE054FEF090221D
:102724003374FFF0D2BBD2AFD0D0D083D082D0F0FC
:10273400D0E032C0D075D010C2AF10980280001023
:1027440099028000D2AFD0D032000405080A1428C0
:04275400020120104E
:020000040001F9
:10A37300C018858118058105810581902401E0C4F9
:10A38300035401FA902400E0C4540F906724F09022
:10A393002402E023540190671FF0902402E023235A
:10A3A3005401906720F0900058E0232354019067F4
:10A3B30021F0900058E0C4035401906722F09024E8
:10A3C30010E0C45401906723F0902580E05401FB12
:10A3D30090604FE0235401FC900218E00303540102
:10A3E300FD90604FE023235401FE9024A2E0543FEC
:10A3F300FFA81808A607902482E0543FFFA8180876
:10A4030008A6079024A3E0543FFFE5182403F8A609
:10A4130007902483E0543FFFEA603D902401E05419
:10A42300DFF0C002C003C004C005C006C0077864E3
:10A4330079B97A021200B3D007D006D005D004D080
:10A4430003D002902401E04440F0902402E030E184
:10A45300F9902402E054FEF0C007902580E054F701
:10A46300F0902405E0540FF0902406E054C0F090DF
:10A473000218E04404F090604FE054BFF090E60A05
:10A48300E054F7F0C002C003C004C005C006C00713
:10A49300788279A97A021200B3900058E054DFF071
:10A4A300E04440F0E054EFF078C279A77A0112005B
:10A4B300B3D0079067A7E0FF4401F0902230743BCC
:10A4C300F0902580E04408F0C007789979A67A01D6
:10A4D3001200B3D007D006D005D004D003D002D0E9
:10A4E300079025F5E030E0679025F5E030E4F29041
:10A4F3002401E054DFF0C002C003C004C005C0065D
:10A50300C007786479B97A021200B3D007D006D0B5
:10A5130005D004D003D002902401E04440F09024FD
:10A5230002E030E1F9902402E054FEF0C002C003DF
:10A53300C004C005C006C007789979A67A01120045
:10A54300B3D007D006D005D004D003D002809290B8
:10A5530025F4E030E70B906662E4F09066F874014E
:10A56300F0902430740CF0902434740CF090243068
:10A57300EF13E092E3F0902430A8180808E613E004
:10A5830092E2F0902434E5182403F8E613E092E312
:10A59300F0902434A81808E613E092E2F0902430F7
:10A5A300E4F0902434F0902401E054DFF09024028E
:10A5B300E030E1F9902402E054FEF0902401EA1324
:10A5C300E092E5F0906721E090005813E092E6F006
:10A5D300906722E090005813E092E5F0906724E042
:10A5E300902400C454F0F5F0E0540F45F0F0906768
:10A5F3001FE090240213E092E7F0906720E090249C
:10A603000213E092E6F0906723E090241013E092A7
:10A61300E4F0902580EB13E092E0F090604FEC13B0
:10A62300E092E7F0900218ED13E092E2F090604FB1
:10A63300EE13E092E6F0906662E4F0E0FB90666170
:10A64300E0FCC002C0038C82122B2D1581D0029036
:10A6530025F5E04408F09025F5E030E2F99025F582
:10A66300E054F7F0EA6012902401E04420F09024D3
:10A6730002E054FEF0E04401F0902580E054F7F04E
:10A683009067A7E0FA54FEF0902230742BF08518FF
:10A6930081D0180200C578D979A67A011200B39047
:10A6A3002401E054BFF0E04420F0786479B97A02E1
:10A6B3001200B3902402E054FEF0E04401F0902530
:10A6C300F5E04408F09025F5E030E2F99025F5E057
:10A6D30054F7F00200C5C20DD20C9025F4E030E728
:10A6E3005F902430740CF0902434740CF090244365
:10A6F300E054C0F0902442E054C0F0902463E0544E
:10A70300C0F0902462E054C0F0902430E4F0902430
:10A7130034F09066F87401F09025F5E030E10D9087
:10A7230025F4E0547FFA906662F0800F9025F4E000
:10A73300547FFAC3E49AFA906662F0122B19805799
:10A74300902430740CF0902434740CF09025F4E0D1
:10A75300547F0303543FFA902443543FF5F0E054ED
:10A76300C045F0F0902442EA543FF5F0E054C04570
:10A77300F0F0902463EA543FF5F0E054C045F0F064
:10A78300902462EA543FF5F0E054C045F0F0902481
:10A7930030E4F0902434F0902400E0540F44C0F0EF
:10A7A300902408E4F0A3F090240AE054C0F090242D
:0FA7B3000AE054BFF0902580E04401F00200C599
:020000040000FA
:060000000200C80217DF38
:03000B000216A931
:0300130002186C64
:03001B000216D1F9
:030023000227377A
:03002B000216E3D7
:01003300329A
:01003B003292
:03004300021F5F3A
:03004B00021BF5A0
:030053000217FC95
:03005B000225BBC0
:03006300021D6D0E
:03006B0002259FCC
:01007300325A
:01007B003252
:01008300324A
:03008B00021B0154
:03009300021BED60
:03009B00021F1829
:0300A300021C96A6
:0300AB000225AB80
:0300DB000200AE72
:0500AE0012275C80FE3A
:1027580090000122758E00C2AF120FA6902231E0C0
:10276800902230F0902231E4F0902234F090E64943
:10277800E0035401FA9067B8F090A320E030E664D3
:1027880090223CE0FA530201BA013B90A318E044BE
:1027980020F090662B7401F0783879B37A01120032
:1027A800B3782D79C87A021200B390E649E0440262
:1027B800F090E651E4F090E652F090E62EE030E634
:1027C800059060CDE4F0902200E0FA90E650E0FB3E
:1027D800EAB5030B90A320E04480F0E0547FF0902A
:1027E8002230E4F090223CE0FA43020190223CEAD5
:1027F800F0902230E07014789C79AB7A011200B323
:10280800785F79E97A011200B38009783879DA7A41
:10281800011200B390220BE04480F0D2AF90223036
:10282800E0FABA0303022921BA19028064BA1B0329
:102838000228CFBA1E030228DABA1F030228E5BA13
:1028480020030228FBBA21028071BA22028048BA0A
:102858002302804FBA2603022906BA270302295504
:10286800BA2803022911BA2903022911BA2A030234
:102878002911BA2B03022937BA2C03022916BA32B6
:1028880002802CBA33028060BA3B0302292C022949
:102898005512639C02295578E679ED7A011200B346
:1028A800022955781679F17A011200B30229557870
:1028B8008279F17A011200B302295578EC79EE7A1F
:1028C800011200B302295578BD79EF7A011200B3DD
:1028D800807B78DD79F67A011200B38070787C7994
:1028E800F57A011200B3806578BB79F57A01120098
:1028F800B3805A785A79F67A011200B3804F78A3D8
:1029080079F27A011200B38044123370803F780B59
:1029180079C07A011200B3803478B679CD7A011281
:1029280000B38029787379A37A011200B3801E78E6
:10293800D779D47A011200B3902231E0700F78CDA4
:1029480079967A011200B3902230742BF020080790
:1029580090201BE030E34890223AE0603990210251
:10296800E054F7F0902053E04408F0E054F7F0907A
:10297800A316E05407FABA030C900064788A79B574
:102988007A021200B390223AE4F0C208902102E0E1
:102998004408F0022A26902230742CF0022A26A23B
:1029A80006720750089022307428F08071200618AB
:1029B800902601E030E6119022B47498F0785879A6
:1029C800CD7A011200B3805620072A902601E03004
:1029D800E5239022B47499F0C2AF9026447401F0B4
:1029E800E4F09022307428F0902603E04404F0D2FA
:1029F80007D2AF80299025F5E030E00F906714E00A
:102A0800FA6008902230743BF0801390E608E030BA
:102A1800E00C9022307403F09067B17401F09022BA
:102A2800E4E030E00A906033E020E00312021E90F8
:102A3800603AE023235401FABA01031247E39022D3
:102A480031E06013902231E0FA902230F090223188
:102A5800E4F0C205022825120FE478BC79A27A01B5
:102A68001200B3906098E05401FABA01031200FA18
:102A7800902297E0235401FAB40100E433FA90223B
:092A88009713E092E7F002282503
:0502000060160C000176
:102A9100AA829066F8E0FBEAB50301229066F8EAA3
:102AA100F07403B50200500122EA2A2A902AB17378
:102AB100022ABD022AD3022AF3022B06900058E013
:102AC10054DFF0900058E054BFF0900058E054EF0C
:102AD100F022A20DE43390005813E092E5F0A20C2D
:102AE100E43390005813E092E6F0900058E054EF80
:102AF100F022900058E04420F0900058E04440F06B
:102B0100E054EFF022900058E054DFF0900058E0DC
:102B110054BFF0E04410F022906662E0FA906661E2
:102B2100E0FBC0028B82122B2D158122C0188581FA
:102B31001805810581AA8290604FE030E703022CDD
:102B4100C8906799EAF0E51824FDF8860390679A22
:102B5100EBF090600AE054DFF09066F8E0FC70273B
