:020000040001F9
:10800000AA82AB837C00BC0800502AEC2CFDFE90B9
:1080100083DF93CEA393FFED9083EF93CDA393F8EB
:10802000EA5205EB5200EEB50508EFB50004758283
:1080300001220C80D175820022C018E581F5182438
:1080400008F581E5182404F87600087600E5182480
:1080500006F87600900030E00354079083FF939079
:10806000661DF0900034E00303543F90661EF090CC
:108070000034E003540190661FF0781979997A0270
:108080001200B3AD829022B6EDF0906008E0FEBE23
:1080900001047E0880027E01A818080876BC0876D4
:1080A000029022B5EEF030165CED6009906614E0A7
:1080B0002401F08009906614E014906614F0906634
:1080C00014E0FC700CFD90E643E0FF906614F08035
:1080D00034C00690E643E0FFE4CF25E0CF33FE7ADC
:1080E00000C3EC9FEA64808EF063F08095F0D006C8
:1080F000400D7D0190E643E0FA906614F08006752D
:108100008201028224BD0111C006788A79997A021F
:108110001200B3AA82D0068011C0067831799A7A0B
:10812000021200B3AB82D0068B02EA600302821D0A
:10813000C006788779837A011200B3D00630160A18
:10814000E5182406F8760102821DC006781979998F
:108150007A021200B3AA82D0068A059022B6EDF008
:10816000A81808E6B505028011A81808A605BE08DB
:10817000047E028005BE02027E01E5182404F80890
:10818000E618C625E0C63308F68D027B00E5182404
:1081900004F8EA46F6EB0846F6E5182404F8E51874
:1081A0002407F9E6F70809E6F77C00BC0800503B15
:1081B000C006EC2CFFFE9083DF93CEA393FAEFFB77
:1081C0009083EF93CBA393FFE5182407F8E65203BF
:1081D00008E65207EEB50306EAB507028004D006AA
:1081E0008006D0067A0180050C80C07A00EA601013
:1081F000E5182406F87601906006E04408F0801D3A
:1082000090E649E020E00AA818080816B6FF020820
:1082100016A8180808E6084660030280A1E518249D
:1082200006F88682851881D0180200C5A20EE433B4
:10823000FA902230740FF0900228E003035407FBF9
:10824000530304E4BB000104FB906006E054F7F024
:10825000906001E054FDF090E60AE003035401FC55
:10826000BC0102800A906003E05401FCBC0144EAB6
:108270002AFC24AAFDE43465FEEB2DF582E43EF5EC
:1082800083E090661EF0EC24B2FDE43465FEEB2D35
:10829000F582E43EF583E0906620F0EC24A2FCE455
:1082A0003465FDEB2CF582E43DF583E0FC90661F20
:1082B000F0801290661E7431F09066207405F09084
:1082C000661F7401F0906620E09083FF9390661D16
:1082D000F0C002C003788779837A011200B3D0031B
:1082E000D002906008E0600302837490E60AE030F8
:1082F000E203028374C002C003783979807A0112E4
:1083000000B3AC82D003D002906005EC13E092E1A0
:10831000F0900030E0035407FCEA2433FDE43466B7
:10832000FEEC9083FF938D828E83F0EA2AFA24AAD2
:10833000FCE43465FDEB2CFCE43DFD90661EE08C16
:10834000828D83F0EA24B2FCE43465FDEB2CFCE47E
:108350003DFD906620E0FE8C828D83F0EA24A2FA37
:10836000E43465FCEB2AFBE43CFD90661FE0FA8BED
:10837000828D83F0906001E04402F090E643E0FAE1
:10838000906614F00200C590661EE090003425E06F
:1083900025E054FCF5F0E0540345F0F090661FE052
:1083A00090003413E092E1F090661DE0FAC313628E
:1083B00002906620EAF0900030EA2A540EF5F0E0D0
:1083C00054F145F0F0900034E04401F0789279C81F
:1083D0007A021200B3900034E054FEF00200C505AA
:1083E000000A003300CC00C701380E0F0FF0F00F69
:1083F000000F00FF00FF00FF0FFF0FFFFFFFFF0058
:1084000001030207060405C018E581F5182405F5E7
:1084100081A818087600902606E0FBA3E053033FEE
:108420009067C3E0FC9067C2E0FDA8180808A605A5
:10843000743F5CFEBE3F0B9067A2E4F075820002C1
:108440008559E5182403F874305BF6E5182404F820
:10845000740C5BF6E5182405F874035BF674305C65
:10846000FA740C5CFD74035CFB902606E0FFA3E04D
:10847000FEBF0005BE04028010BF0005BE080280DA
:108480001FBF002ABE0C278017EC700CA818080824
:10849000E6540C7003028554A8180876010285542E
:1084A000BC1503028554A818087601028554A81843
:1084B0000808E6540C6005A818087601EC7005A8B9
:1084C00018087601E5182405F8B60108BB020280F9
:1084D0001EEB601BE5182405F8B60208BB030280FA
:1084E0000EEB600BE5182405F8E67008EB6005A8B4
:1084F00018087601E5182404F8B60408BD080280BF
:108500001EED601BE5182404F8B60808BD0C0280B7
:108510000EED600BE5182404F8E67008ED6005A880
:1085200018087601E5182403F8B61008BA2002806E
:108530001EEA601BE5182403F8B62008BA30028052
:108540000EEA600BE5182403F8E67008EA6005A857
:1085500018087601A818088682851881D0180200AC
:10856000C59022B47403F07A00902600E020E00366
:1085700002867D902600E020E40302867D90E607D7
:10858000E030E6379022E4E030E030906033E020E5
:10859000E02990601FE0FBBB601C90601CE0FBA327
:1085A000E0FC9022B47401F0BB0D0040057A020299
:1085B000867D7A01803C7A0202867D90E607E02083
:1085C000E5030286A29022B47404F09067A2E0FC56
:1085D0009086CD93FDFB9067A2EC04F09067A2E03B
:1085E0009086CD93FCBCFF028003BC0C059067A273
:1085F000E4F0EB2BFB9086B193CBA393FC9067C880
:10860000E4F08B828C83C00278FC79CB7A01120073
:10861000B3789279C87A021200B3789279C87A0254
:108620001200B3D0029067C8E0FB60F9C0027892F4
:1086300079C87A021200B3789279C87A021200B32C
:10864000D0029067C3E0FB53033FBB3F079067A294
:10865000E4F080299067C8E0FBBB0121C2AFC002F3
:10866000780779847A011200B3E582D002600C9019
:1086700067A27406F09060097403F0D2AFC2AFEA4B
:10868000601E9022E4E030E017BA020890602E7479
:1086900001F0800590602EE4F0906033E04401F03A
:1086A000D2AF9022B47402F0902230742BF002000A
:1086B000C500040A00050028001400080004000298
:1086C000000100200010000008000C000000010361
:1086D0000A080B0CFFC0188581180581058190617F
:1086E000707401F09066F7E0FABA0102800B90E630
:1086F00007E0035401FABA0106200803028F119023
:1087000060A2E4F09060A3F0906797E0FA90617443
:10871000E0FBA3E0FCEB20E0030288079060A2747A
:1087200001F0902163E0547FF090240CE0547FF03E
:10873000902102E04480F0E0547FF0C0027892790A
:10874000C87A021200B3902403E054BFF0758E077C
:10875000902410E04404F0E054FBF0758E00902269
:10876000D0E04480F09022D4E04480F09022D0E029
:10877000547FF09022D4E0547FF07819798F7A01F9
:108780001200B3D0029060A27402F09060A0E030BA
:10879000E175C002781779847A021200B3758200FD
:1087A000784179847A021200B37582107841798415
:1087B0007A021200B3758212784179847A0212002B
:1087C000B3D00290049CE0541FFB900498E0541F27
:1087D000FC2BFB9067D1F0900498E020E5079067B0
:1087E000D174402BF090089CE0541FFB900898E057
:1087F000541FFC2BFB9067D2F0900898E020E5070F
:108800009067D274402BF0906174E0FBA3E0FCEB26
:1088100030E12A9060A27403F0C00274FFC0E090BF
:10882000000078C6798A7A021200B31581D00290CE
:108830002163E04480F090240CE04480F090617467
:10884000E0FBA3E0FCEB20E2030289619060A274EC
:1088500004F0758201C00278B679897A021200B3F9
:10886000758200784A798E7A021200B3D002906144
:1088700074E0FBA3E0FCEB30E51B9060A27405F014
:10888000C002E4C0E0900A0178C6798A7A02120038
:10889000B31581D002758BF0758DD8D28EC203903E
:1088A00060A27406F0C0027401C0E0900A0178C6AC
:1088B000798A7A021200B31581D002906661E0FBDA
:1088C000B50202806E9060A27408F0EBFC3395E074
:1088D000FDEC24FEFEED34FFFFA81808A602EA33E3
:1088E00095E008F6A81808C3E69E08E664808FF0B5
:1088F00063F08095F050040A0A802074022CFCE496
:108900003DFDA81808C3EC96ED64800886F063F07E
:108910008095F050041A1A80028B02906662E0FB88
:10892000C002C0038A82122E9F1581D00220030349
:1089300002889F30030F9060A3E0FA430202906028
:10894000A3EAF0C203C28EC28F7582007841798497
:108950007A021200B3758210784179847A0212008B
:10896000B3906174E0FAA3E0FBEA20E403028B2BEE
:108970009060A2740AF0902401E054FDF09024016C
:10898000E054FEF0906174E0FAA3E0FBEA30E53ACF
:108990009060A2740BF075820178B679897A021220
:1089A00000B3758200784A798E7A021200B390245F
:1089B0000BE04480F0E054BFF0E4C0E0900A01789E
:1089C000C6798A7A021200B31581906174E0FAA325
:1089D000E0FBEA30E6499060A2740CF0202718759D
:1089E000820178B679897A021200B3758200784ADA
:1089F000798E7A021200B390240BE04480F0E054A8
:108A0000BFF0902402E04408F0E054FBF07402C090
:108A1000E0900A0178C6798A7A021200B315819033
:108A20006174E0FAA3E0FBEA30E7609060A2740DA5
:108A3000F020271875820078B679897A021200B37F
:108A4000758202784A798E7A021200B390240BE084
:108A50004480F0E054BFF0902402E04408F0E05479
:108A6000FBF03008147402C0E090000078C6798AE8
:108A70007A021200B3158180127402C0E0900302E2
:108A800078C6798A7A021200B31581906174E0FA8F
:108A9000A3E0FB20E003028B2B9060A2740EF02079
:108AA000271875820078B679897A021200B3758228
:108AB00002784A798E7A021200B390240BE0547F38
:108AC000F090240BE054BFF0902402E054F7F090B3
:108AD0002402E054FBF0906715E0FA60147404C0BF
:108AE000E090020478C6798A7A021200B315818078
:108AF000127402C0E090020478C6798A7A021200E9
:108B0000B315819060A0E030E121781779847A0272
:108B10001200B3758210784179847A021200B3751D
:108B20008200784179847A021200B3906174E0FA8D
:108B3000A3E0FB20E103028C059060A27410F0908A
:108B40002401E054FDF0902401E054FEF09060A276
:108B50007411F090240BE0547FF0E04440F0902436
:108B600002E054F7F0E04404F07403C0E0900A011E
:108B700078C6798A7A021200B315819060A27412C5
:108B8000F090240BE0547FF090240BE054BFF09061
:108B90002402E054F7F0902402E054FBF07403C088
:108BA000E090030278C6798A7A021200B3158190A8
:108BB00060A27413F090049CE0541FFA900498E0B3
:108BC000541FFB2AFA9067D1F0900498E020E50743
:108BD0009067D174402AF090089CE0541FFA9008E6
:108BE00098E0541FFB2AFA9067D2F0900898E02092
:108BF000E5079067D274402AF07582127841798433
:108C00007A021200B3906174E0FAA3E0FB20E20361
:108C1000028C929060A27414F075820078B6798903
:108C20007A021200B3758202784A798E7A021200B3
:108C3000B39060A27415F0902401E04402F09024F7
:108C40000BE04480F0E054BFF0E4C0E0900802780C
:108C5000C6798A7A021200B315819060A27416F068
:108C600090240BE0547FF090240BE054BFF0E4C05C
:108C7000E090040478C6798A7A021200B3158175EF
:108C80008201784179847A021200B3902401E05481
:108C9000FDF0906174E0FAA3E0FB20E403028E395A
:108CA0009060A27418F020271875820078B6798930
:108CB0007A021200B3758202784A798E7A02120023
:108CC000B3902404E054BFF0902401E04401F07A12
:108CD000007B00758202C002C003780979837A02A2
:108CE0001200B3D003D0029060A27419F090240B4C
:108CF000E04480F0E054BFF020271BC002C003E432
:108D0000C0E0900A0278C6798A7A021200B315810F
:108D1000D003D0028019C002C003E4C0E090080272
:108D200078C6798A7A021200B31581D003D00290F6
:108D300060A2741AF090240BE0547FF0E04440F0FD
:108D400020271BC002C003E4C0E090080478C67965
:108D50008A7A021200B31581D003D0028019C002B2
:108D6000C003E4C0E090060478C6798A7A02120053
:108D7000B31581D003D0029060A2741CF0EB701682
:108D8000758202C002C003784179847A021200B36E
:108D9000D003D002802DEA7016758203C002C00392
:108DA000784179847A021200B3D003D0028014751E
:108DB0008204C002C003784179847A021200B3D0E1
:108DC00003D0029060A2741BF09060A0E030E35BDF
:108DD000EB701F7B01906661E0FCC002C0039067EE
:108DE00000E0C0E08C82122E9F1581D003D00202D9
:108DF0008CD3EA701F7A01906661E0FCC002C00368
:108E0000906702E0C0E08C82122E9F1581D003D0C3
:108E100002028CD3906701E0FA906662F09066617E
:108E2000E0FBC0028B82122E9F1581902401E0543A
:108E3000FEF0902404E04440F0906174E0FAA3E076
:108E4000FB20E603028EE890604FE030E603028EDE
:108E5000E89060A27421F0902580E04401F09060D9
:108E60005AE020E220758201780979837A021200A3
:108E7000B3785E798F7A011200B3788479827A02AE
:108E80001200B3800F906039E0F582788479827A9D
:108E9000021200B39060A27422F0902580E0440496
:108EA000F0E054FBF090605AE030E21474FFC0E050
:108EB00090200878C6798A7A021200B31581801250
:108EC00074FFC0E0900A0578C6798A7A021200B36E
:108ED00015819060A27423F0783C79807A021200A8
:108EE000B3AA82906170EAF090605AE020E21C2000
:108EF00008199060A27424F0758201780979837A48
:108F0000021200B3902580E054FEF09060A2742518
:108F1000F0851881D0180200C5902403E04420F0A9
:108F2000E054DFF0E04402F0902403E054FDF0E070
:108F30004401F0E054FEF0758B9C758DFFD28EC21B
:108F40000320031790240BE030E5F6789279C87A75
:108F5000021200B390240BE030E5E60200C59061F8
:108F600058E0FA906159E0FBC0038A8278C879C85A
:108F70007A021200B3AB8215818B0290615AE0FB3A
:108F8000C0038A8278C879C87A021200B3AB82150E
:108F9000818B0290615BE0FBC0038A8278C879C84C
:108FA0007A021200B3AB8215818B0290615CE0FB08
:108FB000C0038A8278C879C87A021200B3AB8215DE
:108FC000818B0290615DE0FBC0038A8278C879C81A
:108FD0007A021200B3AB8215818B0290615EE0FBD6
:108FE000C0038A8278C879C87A021200B3AB8215AE
:108FF000818B0290615FE0FBC0038A8278C879C8E8
:109000007A021200B3AB8215818B0290E6AFE0C406
:10901000540FFB8BF005F0EA8002C313D5F0FBFA86
:1090200090E6AFE0540FFB2AFAF5820200C5C018A3
:10903000858118058105819067CBE0FA60032004E3
:10904000030291F2906038E023235401FABA01023E
:1090500080199066F7E0FABA0102800F902411E0BF
:1090600030E108906725E0FABA01030291F275C871
:1090700060C2C6902405E0C4540FFA902406E05460
:109080003FFBA81808A603A818088604E4CCC4CCA3
:109090006CCC54F0CC6CFD8A067F00EE2CFCEF3DCE
:1090A000FD902402E0C45401FEA8180808A606900A
:1090B0002406E054C0F0902405E0540FF090240200
:1090C000E054EFF08C078D061CBCFF011DEF4E70C5
:1090D000030291BA7E00BE040050E98EF005F074E0
:1090E00001800225E0D5F0FB902400C454F0F5F097
:1090F000E0540F45F0F0902402E04401F07F328FFD
:10910000031FEB6035902402E030E107902402E079
:1091100054FEF090000AC002C004C005C006C0079B
:1091200078B879C47A021200B3D007D006D005D03F
:1091300004D002902402E020E0C5902402E030E058
:1091400075902402E054FEF0758E07902410E044E0
:1091500004F0E054FBF0758E009022D0E04480F0E3
:109160009022D4E04480F09022D0E0547FF090220E
:10917000D4E0547FF0758201C002C004C005C0066F
:10918000780979837A021200B37582017863798D48
:109190007A021200B390000A78B879C47A021200F9
:1091A000B3D006D005D004D0029060A3E0FB430307
:1091B000109060A3EBF00E0290D6902405EAC45400
:1091C000F0F5F0E0540F45F0F0902406A81808E6FA
:1091D000543FF5F0E054C045F0F0902402A8180880
:1091E00008E613E092E4F075CCF075CDD875C87A36
:0A91F000C204851881D0180200C5E2
:020000040000FA
:1000E300D315D3111003D77590550040000280013A
:0A00F3000010D3019300D755D30588
:020000040001F9
:1091FA00902402E054EFF0900054E04408F090000C
:10920A0054E04404F0900054E04402F0902401E059
:10921A004404F0902418E054EFF0902418E054DF4E
:10922A00F0902405E054FEF0902405E054F7F03065
:10923A002710902400E0540F44C0F0902405E04425
:10924A0002F00200C590604CE020E40302933090E3
:10925A00604CE030E30302933090604CE030E50369
:10926A000293309066F7E0FA600302933090672524
:10927A00E0FA600302933090663AE02401F09066C7
:10928A003AE0FA7403B50200400302933090663A5A
:10929A00E4F0758201780979837A021200B3786B57
:1092AA0079887A021200B3902409E4F0902408E045
:1092BA00FA53020D902408EAF090240AE04440F0A0
:1092CA00902405E054FDF0902405E054FEF090242B
:1092DA0005E054F7F0902400E044F0F07404C0E094
:1092EA0090101078C6798A7A021200B31581786BC9
:1092FA0079887A021200B3902408E0FA5302F090B7
:10930A002408EAF090240AE054BFF07404C0E09004
:10931A00100178C6798A7A021200B3158178177912
:10932A00847A021200B30200C590604CE030E02B50
:10933A00900264E030E209900264E054FBF0802D70
:10934A00900264E04404F0784F79927A011200B3F3
:10935A0078A179967A021200B38012784F79927ABC
:10936A00011200B378A179967A021200B30200C5FD
:020000040002F8
:10800000C018858118AA82AB83ACF0FDE51824F96D
:10801000F8C3E69A08E69B08E69C08E69D50098AA4
:10802000828B838CF0ED800FE51824F9F8868208A6
:1080300086830886F008E6D0180200C5C018E581DE
:10804000F5182408F581902560E0FAA3E0FBA3E091
:10805000FCA3E0FDE5182405F8A60208A60308A67F
:108060000408A605902564E0FEA3E0FFA3E0FAA3C0
:10807000E0FBC006C007C002C003E5182405F8866F
:10808000820886830886F008E6780079807A0212F2
:1080900000B3AA82AB83ACF0FDE58124FCF581E559
:1080A000182405F8A60208A60308A60408A6059049
:1080B0002568E0FAA3E0FBA3E0FCA3E0FDC002C05A
:1080C00003C004C005E5182405F8868208868308E5
:1080D00086F008E6780079807A021200B3AA82ABB3
:1080E00083ACF0FDE58124FCF581E5182405F8A6B4
:1080F0000208A60308A60408A60590256CE0FAA3CA
:10810000E0FBA3E0FCA3E0FDC002C003C004C00587
:10811000E5182405F886820886830886F008E67844
:108120000079807A021200B3AA82AB83ACF0FDE53D
:108130008124FCF581E5182405F8A60208A60308A9
:10814000A60408A605902570E0FAA3E0FBA3E0FCD6
:10815000A3E0FDA81808A60208A60308A60408A61E
:1081600005902574E0FEA3E0FFA3E0FAA3E0FBC0C6
:1081700006C007C002C003A81808868208868308C4
:1081800086F008E6780079807A021200B3AA82AB02
:1081900083ACF0FDE58124FCF581A81808A602084F
:1081A000A60308A60408A605902578E0FAA3E0FB3C
:1081B000A3E0FCA3E0FDC002C003C004C005A818F2
:1081C0000886820886830886F008E6780079807A37
:1081D000021200B3AA82AB83ACF0FDE58124FCF56A
:1081E00081A81808A60208A60308A60408A60590F8
:1081F000257CE0FAA3E0FBA3E0FCA3E0FDC002C005
:1082000003C004C005A8180886820886830886F083
:1082100008E6780079807A021200B3AA82AB83ACB8
:10822000F0FDE58124FCF581A81808A60208A60344
:1082300008A60408A60590E6AEE0FAE4FBFCFDE51E
:10824000182405F8C3E69A08E69B08E69C08E69D14
:108250005005758200802590E6ACE0FAA3E0FB7C37
:10826000007D00A81808C3EA96EB0896EC0896ED86
:10827000089650057582008003758201851881D0AB
:10828000180200C5AA82902440EA543FF5F0E05459
:10829000C045F0F0902441EA543FF5F0E054C04569
:1082A000F0F0902442EA543FF5F0E054C045F0F07D
:1082B000902443EA543FF5F0E054C045F0F0902498
:1082C00060EA543FF5F0E054C045F0F0902461EAD4
:1082D000543FF5F0E054C045F0F0902462EA543F7A
:1082E000F5F0E054C045F0F0902463EA543FF5F017
:1082F000E054C045F0F0902430740FF0E4F0902486
:1083000034740FF0E4F00200C5AA82BA01028008BA
:10831000BA0202805F02840D7440C0E0E4C0E074E1
:1083200078C0E07461C0E0E4C0E090244075F000E3
:10833000780579CA7A021200B3E58124FBF58190B1
:10834000243074FFF0A3F0A3F0A3747FF0902430E6
:10835000E4F0A3F0A3F0A3F090243474FFF0A3F0B2
:10836000A3F0A3747FF0902434E4F0A3F0A3F0A36F
:10837000F002840D906178E0902440543FF5F0E0E5
:1083800054C045F0F0906179E0902441543FF5F0FD
:10839000E054C045F0F090617AE0902442543FF5FB
:1083A000F0E054C045F0F090617BE0902443543FEE
:1083B000F5F0E054C045F0F0906198E090246054EE
:1083C0003FF5F0E054C045F0F0906199E0902461F1
:1083D000543FF5F0E054C045F0F090619AE09024ED
:1083E00062543FF5F0E054C045F0F090619BE0FA34
:1083F000902463543FF5F0E054C045F0F0902430F1
:10840000740FF0E4F0902434740FF0E4F090240B37
:10841000E030E5F90200C57440C0E0E4C0E07480DB
:10842000C0E07424C0E0E4C0E090617875F00078AA
:108430000579CA7A021200B3E58124FBF5810200B6
:10844000C5AA82BA00028027BA01030284C5BA0213
:1084500003028509BA030302854DBA04030285911C
:10846000BA10030285D5BA12030285FF0286D8909E
:1084700024D0E0906148F09024D1E0906149F090E0
:1084800024D2E090614AF09024D3E090614BF090C8
:1084900024F0E090614CF09024F1E090614DF09078
:1084A00024F2E090614EF09024F3E0FA90614FF0F6
:1084B00090240BE030E2047A0180027A009061712E
:1084C000EAF00286D89024D0E0906150F09024D158
:1084D000E0906151F09024D2E0906152F09024D36A
:1084E000E0906153F09024F0E0906154F09024F11A
:1084F000E0906155F09024F2E0906156F09024F302
:10850000E0FA906157F00286D89024D0E09061584C
:10851000F09024D1E0906159F09024D2E090615A1B
:10852000F09024D3E090615BF09024F0E090615CE7
:10853000F09024F1E090615DF09024F2E090615EB3
:10854000F09024F3E0FA90615FF00286D89024D096
:10855000E0906160F09024D1E0906161F09024D2CD
:10856000E0906162F09024D3E0906163F09024F099
:10857000E0906164F09024F1E0906165F09024F265
:10858000E0906166F09024F3E0FA906167F0028673
:10859000D89024D0E0906168F09024D1E090616997
:1085A000F09024D2E090616AF09024D3E090616B67
:1085B000F09024F0E090616CF09024F1E090616D17
:1085C000F09024F2E090616EF09024F3E0FA906174
:1085D0006FF00286D87440C0E0E4C0E074D0C0E020
:1085E0007424C0E0E4C0E090610075F00078057983
:1085F000CA7A021200B3E58124FBF5810286D89085
:1086000024C0E0547F9061B8547FF5F0E054804579
:10861000F0F09024C1E0547F9061B9547FF5F0E010
:10862000548045F0F09024C2E0547F9061BA547FAA
:10863000F5F0E0548045F0F09024C3E0547F906161
:10864000BB547FF5F0E0548045F0F09024C4E05432
:108650007F9061BC547FF5F0E0548045F0F09024A9
:10866000C5E0547F9061BD547FF5F0E0548045F043
:10867000F09024C6E0547F9061BE547FF5F0E05442
:108680008045F0F09024C7E0547F9061BF547FF59F
:10869000F0E0548045F0F0902510E0906140F090BB
:1086A0002511E0906141F0902512E0906142F09038
:1086B0002513E0906143F0902514E0906144F09020
:1086C0002515E0906145F0902516E0906146F09008
:1086D0002517E0FA906147F00200C5AA82BA0002AD
:1086E0008009BA0203028777028800906148E0900F
:1086F0002440543FF5F0E054C045F0F0906149E06B
:10870000902441543FF5F0E054C045F0F090614AA8
:10871000E0902442543FF5F0E054C045F0F0906101
:108720004BE0902443543FF5F0E054C045F0F09006
:10873000614CE0902460543FF5F0E054C045F0F007
:1087400090614DE0902461543FF5F0E054C045F055
:10875000F090614EE0902462543FF5F0E054C04543
:10876000F0F090614FE0FA902463543FF5F0E0544C
:10877000C045F0F0028800906158E0902440543FDA
:10878000F5F0E054C045F0F0906159E09024415478
:108790003FF5F0E054C045F0F090615AE09024427B
:1087A000543FF5F0E054C045F0F090615BE0902458
:1087B00043543FF5F0E054C045F0F090615CE09028
:1087C0002460543FF5F0E054C045F0F090615DE066
:1087D000902461543FF5F0E054C045F0F090615EA4
:1087E000E0902462543FF5F0E054C045F0F0906111
:1087F0005FE0FA902463543FF5F0E054C045F0F098
:10880000902430740FF0E4F0902434740FF0E4F00E
:1088100090240BE030E5F90200C5E582FA602B9068
:10882000604CE030E010900264E054E7F090020CFD
:10883000E0548FF08026900264E054E74408F09002
:10884000020CE0548F4430F08012900264E054E750
:108850004410F090020CE0548F4420F090000A780D
:10886000B879C47A021200B30200C59060A4E03067
:10887000E4119024087455F0A3F090240AE054C049
:10888000F0800F90240874FFF0A3F090240AE044D5
:108890003FF0902401E054FDF0902401E054FEF0FC
:1088A00090240AE054BFF0902402E054F7F09024A2
:1088B00002E054FBF090240BE0547FF090240BE096
:1088C00054BFF00200C5902401E0C4035401FABA79
:1088D0000126758B18758DFCD28EC203902401E0A1
:1088E00054DFF0902402E020E1033003F6902402EC
:1088F000E054FEF0C28EC28F0200C590E607E03061
:10890000E2030289B3902401E030E5030289B390C9
:1089100066F7E0FABA01030289B390604CE020E404
:108920000790604CE030E3030289B3758201780957
:1089300079837A021200B3902406E0543F4480F019
:108940009024077405F0786B79887A021200B3904E
:108950002408E0FA5302FD902408EAF090240AE08B
:108960004440F0902405E054FDF0902405E054FECE
:10897000F0902405E054F7F0D20DD20C7582007807
:10898000B679897A021200B3902401E04420F09075
:108990002402E054FEF0E04401F090604EE030E745
:1089A00012902401E054FBF0E04410F0902401E028
:1089B0004401F00200C5AA82300C07200D047B0C94
:1089C0008013200C07300D047B038009BA01047B5F
:1089D0000C80027B0F9060A4E0540FF4FA520390D5
:1089E0002400EBC454F0F5F0E0540F45F0F0020021
:1089F000C5900228E003035407FA5302039060A4D1
:108A0000E054EFF09067947420F09060A4E054DF9D
:108A1000F0BA0313902402E0547FF0E04440F09059
:108A200067937408F0804EBA0213902402E04480E9
:108A3000F0E054BFF09067937404F08038BA0121DD
:108A4000902402E0547FF0E04440F0906793740279
:108A5000F09060A4E04410F09060A4E04420F08026
:108A600014902402E04480F0902402E04440F0900E
:108A700067937401F0900228E003035407FB30E28F
:108A80000B906793E025E0FB906793F09066F7E02A
:108A9000FB700D906793E0C42354E0FB906794F063
:108AA000EA7010902402E04420F09060A4E054F0BA
:108AB000F08010902402E054DFF09060A4E054F0C5
:108AC0004405F00200C5C018858118AA82AB8390C6
:108AD0006038E023235401FCBC010280119066F74A
:108AE000E0FCBC01028007902411E020E103028D2C
:108AF0005E90604FE030E71C902405E0540FF0904A
:108B00002406E054C0F0902406E0543FF09024077F
:108B1000E4F0804A8B04740F5C902405C454F0F593
:108B2000F0E0540F45F0F0ECC4540FFC53043F90B8
:108B30002406EC543FF5F0E054C045F0F074035ABD
:108B4000FB902406030354C0F5F0E0543F45F0F0D9
:108B5000EA0303543FFA53023F902407EAF0E51872
:108B600024FCF8E624F95003028C42E51824FCF8B2
:108B7000E625E026908B7873028B8D028BA9028B01
:108B8000C6028BDF028BF5028C0E028C2790240824
:108B90007401F0902409E4F090240AE054C0F090AD
:108BA000240AE054BFF0028C5990240874FFF0901E
:108BB000240974FFF090240AE054C0F090240AE0E5
:108BC00054BFF0028C5990240874FFF0902409746B
:108BD000FFF090240AE0443FF0E054BFF0807A9028
:108BE0002408E4F0902409F090240AE054C0F0E056
:108BF0004440F0806490240874FDF090240974FFD0
:108C0000F090240AE0443FF0E054BFF0804B902401
:108C10000874F0F090240974FFF090240AE0443FB7
:108C2000F0E054BFF08032902408740DF0902409D5
:108C3000E4F090240AE0443FF090240AE04440F03D
:108C40008017902408E4F0902409F090240AE0545E
:108C5000C0F090240AE054BFF0E51824FCF8B6FFF9
:108C600002804D9060A0E030E21B902408E0FA53AF
:108C70000201902408EAF0902409E4F090240AE02C
:108C800054C0F0802B9060A4E030E50790240AE007
:108C900054C0F09060A4E030E416902408E0FAA3F9
:108CA000E0FB530255530355902408EAF0A3EBF080
:108CB000900264E0C4235403FABA0202800D9024A7
:108CC00008E0FA5302FD902408EAF0902402E054F0
:108CD000FEF0E04401F0789279C87A021200B39075
:108CE0006098E020E45330080C758BF8758DFFD246
:108CF0008EC203800A758B18758DFCD28EC20390CC
:108D00002402E020E1033003F6902402E054FEF058
:108D10003003209022C2E0FA0A9022C2EAF090606A
:108D2000A3E0FA4302019060A3EAF0C203906799BE
:108D30007401F0C28EC28F800E902402E030E1F9FF
:108D4000902402E054FEF0902408E4F0902409F00E
:108D500090240AE054C0F090240AE054BFF0D018E8
:108D60000200C5AA82906016E0FB900224C423543E
:108D700060F5F0E0549F45F0F0BA01028003028EE6
:108D800013902403E04440F09061B8E090243854FC
:108D90007FF5F0E0548045F0F09061B9E09024391F
:108DA000547FF5F0E0548045F0F09061BAE09024F3
:108DB0003A547FF5F0E0548045F0F09061BBE090CC
:108DC000243B547FF5F0E0548045F0F09061BCE026
:108DD00090243C547FF5F0E0548045F0F09061BD64
:108DE000E090243D547FF5F0E0548045F0F0906130
:108DF000BEE090243E547FF5F0E0548045F0F090C2
:108E000061BFE0FA90243F547FF5F0E0548045F0D4
:108E1000F08007902403E054BFF0902403E0442046
:108E2000F0E054DFF0758B9C758DFFD28EC203206D
:108E3000031590240BE0C4035401FA90240BE0C402
:108E4000035401FB5A60E80200C5AA82BA000280FE
:108E500005BA012D8017902405E04408F090240500
:108E6000E04401F0902405E04402F0803D902405A8
:108E7000E04408F0E054FEF0902405E054FDF0805A
:108E800029902405E054F7F0902400E0C4540FFA30
:108E9000BA0F09902405E054FDF08007902405E006
:108EA0004402F0902405E054FEF00200C59066F8FC
:108EB000E0FA7403B502004072EA2A2A908EC07369
:108EC000028ECC028EE3028F05028F19900058E0CB
:108ED00054DFF0900058E054BFF0900058E054EF99
:108EE000F08048A20DE43390005813E092E5F0A220
:108EF0000CE433FA90005813E092E6F0900058E04A
:108F000054EFF08026900058E04420F0900058E0A4
:108F10004440F0E054EFF08012900058E054DFF04D
:0E8F2000900058E054BFF0E04410F00200C58D
:020000040000FA
:1000FD00906099E0FABA170978B079B87A021200CF
:0F010D00B3906098E054FEF0902230742BF022F3
:10022100C018858118058105819022D8E04420F00D
:10023100E054DFF09022B47414F09022E4E020E066
:100241000A906033E054FEF00204ED7A0290601FE0
:10025100E0FBA81808A60390601CE0FC906023E076
:10026100FD530580A8180808E4BD800104F69060DC
:1002710020E0FEA3E0FFA3E0FDA3E0FB906024EEFD
:10028100F0A3EFF0A3EDF0A3EBF0906023E0FB53BC
:10029100030FBB050040057A040204B5A81808083D
:1002A100E660027B80C0029022B47413F09022B504
:1002B100A81808E6F09022B6ECF0906020E0FDA3CB
:1002C100E0FEA3E0FFA3E0FA9022C4EDF0A3EEF07C
:1002D100A3EFF0A3EAF0A81808B660028004D002E8
:1002E100800FD002902600E020E0030204B5020452
:1002F100EDA81808B68071740BB504005003020410
:10030100B5EC2C2C9003097302032D02032D02037B
:100311006602036602036602036602033D02033DB1
:1003210002034D02034D02035D02035DC0048B8293
:100331001204F3AD8215818D020204B5C0048B82D3
:10034100120D0AAD8215818D020204B5C0048B82A3
:1003510012126AAD8215818D020204B58C821210CF
:10036100FAAD828D020204B5A81808B6814774055A
:10037100B5040050030204B5EC2C2C9003807302E9
:10038100039202039202039E02039E0203AA020346
:10039100AA8C82121137AD828D020204B58C8212B1
:1003A1001183AD828D020204B58C82121215AD82C9
:1003B1008D020204B5A81808B682697407B5040055
:1003C10050030204B5EC2C2C9003CD730203E5021B
:1003D10003E50203F50203F5020405020405020424
:1003E10015020415C0048B82120F53AD8215818D45
:1003F100020204B5C0048B82120B32AD8215818DCD
:10040100020204B5C0048B8212099CAD8215818D54
:10041100020204B5C0048B82120C24AD8215818DB9
:10042100020204B5A81808B683487405B504005043
:10043100030204B5EC2C2C90043C7302044E02041C
:100441004E02045D02045D020468020468C0048B6C
:1004510082120E55AB8215818B0280588C82120F4D
:1004610006AB828B02804D8C82120F2CAB828B02E9
:100471008042A81808B6843CBC00028005BC013447
:10048100801A906020E0FB530303902200E0FCEB14
:10049100B504211213F0AB828B028018906020E02A
:1004A100FB530303902200E0FCEBB5040712142177
:1004B100AB828B0290602EEAF0906033E04401F051
:1004C1009022B4740FF090602EE0FA9022B5EAF019
:1004D100906024E0FAA3E0FBA3E0FCA3E0FD9022FE
:1004E100C4EAF0A3EBF0A3ECF0A3EDF0851881D002
:1004F1001822C018858118C082E581240CF581A8D5
:100501001808B6800280030205F6E51824FDF8B646
:100511000167902634E0906024F0902635E0FB904E
:100521006025F0902636E030E70D906024E0FB4333
:100531000308906024EBF0902636E030E60D9060E1
:1005410024E0FB430304906024EBF0902636E03076
:10055100E50D906024E0FB430302906024EBF090F2
:1005610067A4E0FB7003020993906024E0FB43035E
:1005710001906024EBF0020993902637E04420F0CB
:10058100906020E0902634F0906021E0902635F0D4
:10059100906020E0FB530308BB0803D38001C392A2
:1005A10028E43390263613E092E7F0906020E0FBD8
:1005B100530304BB0403D38001C39228E433902680
:1005C1003613E092E6F0906020E0FB530302BB0299
:1005D10003D38001C39228E43390263613E092E5D9
:1005E100F0906020E0FB5303019067A4E4BB01019C
:1005F10004F0020993E51824FDF8B6010280030214
:100601000761A81808E675F050A4FBACF02404FDBE
:10061100EC3463FE740B2DF582E43EF583E0C454A3
:10062100F0906024F0A8180886F005F07A017D00AA
:100631008006EA2AFAED33FDD5F0F79060CBE51894
:100641002405F8E0F6A3E008F6A3E008F6A3E00825
:10065100F6EDFE3395E0FDFFE5182405F8E65202BC
:1006610008E6520608E6520508E65207EA4E4D4FE3
:10067100600D906024E0FD430508906024EDF0EBEF
:100681002404FDEC3463FE74082DFDE43EFE8D82EE
:100691008E83E0600D906024E0FD430504906024AA
:1006A100EDF0EB2404FDEC3463FE740A2DFDE43E11
:1006B100FE8D828E83E0600D906024E0FD43050293
:1006C100906024EDF0A81808E625E024D0F582E436
:1006D1003460F583E0FD30E00D906024E0FD4305DA
:1006E10001906024EDF0A81808E624FB404BA818FF
:1006F10008E625E0269006FA7302070902071202AE
:10070100071D0207270207329060C8E0540FFD80E1
:10071100289060C8E0C4540FFEFD801D9060C9E0C0
:10072100540FFEFD80139060C9E0C4540FFEFD809C
:10073100089060CAE0540FFEFDEDC454F0906025AE
:10074100F0E0FEEB2404FBEC3463FC74092BF5822E
:10075100E43CF583E0FB4206906025EEF00209934C
:10076100A81808E5182403F9E675F050A4F709A7BD
:10077100F0E5182403F8E62404FE08E63463FF7468
:100781000B2EFEE43FFF906020E0C4540F8E828F59
:1007910083F0906020E0FA530208BA0850A81808C4
:1007A10086F005F07B017A008006EB2BFBEA33FA39
:1007B100D5F0F79060CBE5182409F8E0F6A3E0083E
:1007C100F6A3E008F6A3E008F68B07EA3395E0FB11
:1007D100FCE5182409F89060CBEF46F0EA0846A33F
:1007E100F0EB0846A3F0EC0846A3F08062A81808D5
:1007F10086F005F07A017E008006EA2AFAEE33FEE1
:10080100D5F0F7E5182409F8EAF4F6EEF408F690C5
:1008110060CBE5182405F8E0F6A3E008F6A3E008AC
:10082100F6A3E008F6E5182409F88604088602E62E
:100831003395E0FBFEE5182405F89060CBEC56F00B
:10084100EA0856A3F0EB0856A3F0EE0856A3F0E52C
:10085100182403F8E62404FA08E63463FB74082A32
:10086100FAE43BFB906020E0FC530404E4BC040187
:10087100048A828B83F0E5182403F8E62404FA083D
:10088100E63463FB740A2AFAE43BFB906020E0FC47
:10089100530402E4BC020104FC8A828B83F0906061
:1008A10020E0FA530201BA0125A81808E625E0FA6A
:1008B10024D0FBE43460FCEA24D0F582E43460F512
:1008C10083E0FA4302018B828C83EAF08023A8182B
:1008D10008E625E0FA24D0FBE43460FCEA24D0F5F4
:1008E10082E43460F583E0FA5302FE8B828C83EA62
:1008F100F0906021E0C4540FFA740F5AFDA8180853
:10090100E624FB406AA81808E625E0269009117341
:1009110002092002093002094102095102096290CB
:1009210060C8ED540FF5F0E054F045F0F0804090D0
:1009310060C8EDC454F0F5F0E0540F45F0F0802F9D
:100941009060C9ED540FF5F0E054F045F0F0801FD0
:100951009060C9EDC454F0F5F0E0540F45F0F0801B
:100961000E9060CAED540FF5F0E054F045F0F0E55B
:10097100182403F8E62404FA08E63463FB74092A10
:10098100FAE43BFB906021E0FC53040F8A828B83E5
:10099100ECF0758200851881D01822C01885811865
:1009A100AA82BA80028003020A4EE51824FDF8B635
:1009B1000538900050E0FB53031F906024EBF0E0FA
:1009C100FB900054E0FC74E05C4203906024EBF087
:1009D100902411E0035401906025F0900058E02329
:1009E1005401FB906026F0020B2C906020E09000F7
:1009F10050F0900054E0FB53031F900054EBF0E0E3
:100A0100FB906020E0FC74E05C4203900054EBF04A
:100A1100906021E0540190241013E092E4F09024BE
:100A210010E0C4540190240CE0232354019066F794
:100A3100F0906022E0FB30E00A900058E04480F042
:100A4100020B2C900058E0547FF0020B2CE5182487
:100A5100FDF8B60561EA2A25E024B4F582E43460A4
:100A6100F583E0906024F0EA75F050A42404FB744F
:100A71006335F0FC74412BF582E43CF583E0FBE443
:100A8100BB000104906025F0906087E0FB8AF005CF
:100A9100F07C017D008006EC2CFCED33FDD5F0F7F8
:100AA1007E00EB5204EE5205EC4D60027401FB90A6
:100AB1006026EBF08075EA2A25E024B4FBE434607B
:100AC100FC906020E08B828C83F0EA75F050A424C6
:100AD10004FB746335F0FC74412BFBE43CFC906037
:100AE10021E0FD530501E4BD000104FD8B828C83EF
:100AF100F08AF005F07401800225E0D5F0FBFA9050
:100B010067A8E04AF0906022E0FB30E00F90608738
:100B1100E0FBEA4203906087EBF0800F906087E092
:100B2100FBEAF4FA5203906087EBF0758200D0186B
:100B310022C018858118AA82BA8040E51824FDF8E0
:100B4100B60317900200E0FB906024EBF0900204E2
:100B5100E0FB906026EBF0020C1E906020E0FB9021
:100B61000200EBF0906022E0FB900000EBF090605F
:100B710022E0FB900204EBF0020C1EE51824FDF8C4
:100B8100B60330EA2A25E0FB24B4FCE43460FD8C92
:100B9100828D83A3E0FC906024ECF0EB24B4FBE4B1
:100BA1003460FC8B828C83A3A3A3E0FB906026EBD3
:100BB100F0806AEA2A25E0FB24B4FCE43460FD0CF1
:100BC100BC00010D906020E0FE8C828D83EEF0EB85
:100BD10024B4FCE43460FD74022CFCE43DFD90601F
:100BE10022E0FE8C828D83EEF0EB24B4FBE43460D2
:100BF100FC74032BFBE43CFC906022E0FD8B828CB7
:100C010083EDF09060CDE0FB8AF005F07401800285
:100C110025E0D5F0FBFA42039060CDEBF075820040
:100C2100D01822C018858118AA82BA8002800302D6
:100C31000CBFE51824FDF8B6070C9067A6E0FB9001
:100C41006024F0020D04906013E0FB53031F7C004D
:100C5100906020E0FD53053F9067A6EDF0ED70191F
:100C6100906013E0FE90001025E025E054FCF5F0C3
:100C7100E0540345F0F0020D047E00C005C0068B70
:100C8100828C83127994AD82AE83158115818D0397
:100C9100EEC403CBC40354076BCB5407CB6BCBFC23
:100CA100906013E0FD530520EB4205900010ED2DFF
:100CB10025E054FCF5F0E0540345F0F08045E518DB
:100CC10024FDF8B60712EA247CF582E43460F5834A
:100CD100E0FB906024F0802BEA247CFBE43460FC90
:100CE100906020E0FD53053F8B828C83EDF08AF00C
:100CF10005F07401800225E0D5F0FBFA9067A7E0CA
:100D0100FB4AF0758200D01822C018858118AA828A
:100D1100BA80028003020D98E51824FDF8B6072C6D
:100D210090004CE0C45403FB906024EBF090004C25
:100D3100E003035403FB906025EBF090004CE023AB
:100D4100235403FB906026EBF0020E4F906020E0ED
:100D5100FB53030390004CEBC45430F5F0E054CF47
:100D610045F0F0906021E0FB53030390004CEB2B26
:100D710025E0540CF5F0E054F345F0F0906022E0EA
:100D8100FB53030390004CEB030354C0F5F0E05414
:100D91003F45F0F0020E4FE51824FDF8B6065FEA74
:100DA10075F050A4FBACF0EB2404FDEC3463FE744D
:100DB1000E2DFDE43EFE906020E0FF5307038D827F
:100DC1008E83EFF0EB2404FDEC3463FE740D2DFDF6
:100DD100E43EFE906021E0FF5307038D828E83EF96
:100DE100F0EB2404FBEC3463FC740C2BFBE43CFCC3
:100DF100906022E0FD5305038B828C83EDF0EA7550
:100E0100F050A4FAABF0EA2404FCEB3463FD740E59
:100E11002CF582E43DF583E0FC906024ECF0EA24BB
:100E210004FCEB3463FD740D2CF582E43DF583E0A5
:100E3100FC906025ECF0EA2404FAEB3463FB740CBB
:100E41002AF582E43BF583E0FA906026EAF07582A8
:100E510000D01822C018858118AA82BA8024E5180A
:100E610024FDF8B6010D9067CCE0FB906024EBF017
:100E7100020F00906020E0FB9067CC74015BF002F0
:100E81000F00E51824FDF8B601369060F7E0FB8A03
:100E9100F005F07C017D008006EC2CFCED33FDD5E6
:100EA100F0F77E00EB5204EE5205E4BC0004BD00F5
:100EB1000104FCB40100E433FC906024ECF0803FB9
:100EC100906020E0FB30E01C9060F7E0FB8AF005C9
:100ED100F07401800225E0D5F0FBFC42039060F73D
:100EE100EBF0801B9060F7E0FB8AF005F074018065
:100EF1000225E0D5F0FBF4FA52039060F7EBF075B0
:100F01008200D01822AA82BA030E906076E0C454FF
:100F110001FA906024F0800F906020E05401FA9073
:100F2100607613E092E4F075820022AA82BA050F7E
:100F3100906076E0C4035401FA906024F0800F9031
:100F41006020E05401FA90607613E092E5F075823A
:100F51000022C018858118AA82BA8002800302107B
:100F610006E51824FDF8B6013A902165E003035423
:100F710007FB902165E0C4035407C454F0FCEB4225
:100F810004906024ECF090022CE0540FFB900230AE
:100F9100E0C4540FC454F0FCEB4204906025ECF023
:100FA1000210F4906020E0FB530307902165EB2BC6
:100FB10025E0541CF5F0E054E345F0F0906020E0AA
:100FC1005470C4540F902165C42354E0F5F0E054EB
:100FD1001F45F0F0906021E0FB53030F90022CEBD2
:100FE100540FF5F0E054F045F0F0906021E054F03A
:100FF100C4540FFB900230C454F0F5F0E0540F4597
:10100100F0F00210F4E51824FDF8E6707CEA75F0C2
:1010110050A4FBACF02404FDEC3463FE74222DFDDE
:10102100E43EFE906020E0FF5307078D828E83EF40
:10103100F0EB2404FDEC3463FE74232DFDE43EFE4D
:10104100906020E05470C4540F8D828E83F0EB24A5
:1010510004FDEC3463FE74242DFDE43EFE9060211A
:10106100E0FF53070F8D828E83EFF0EB2404FBEC3E
:101071003463FC74252BFBE43CFC906021E054F0CC
:10108100C4540FFD8B828C83F0EA75F050A4FAAB47
:10109100F02404FCEB3463FD74222CFCE43DFDEAF6
:1010A1002404FEEB3463FF74232EF582E43FF583C1
:1010B100E0C454F0FE8C828D83E04206906024EE01
:1010C100F0EA2404FCEB3463FD74242CFCE43DFDC4
:1010D100EA2404FAEB3463FB74252AF582E43BF538
:1010E10083E0C454F0FA8C828D83E0FC420290606C
:1010F10025EAF0758200D01822AA8290A316E05446
:1011010007FBBB030475820222BA0A18906020E033
:10111100FA530207902013EAC42354E0F5F0E05497
:101121001F45F0F0902013E0C4035407FA906024A7
:10113100EAF075820022AA8290A316E05407FBBB55
:101141000302800A90A316E05407FBBB05047582D5
:101151000222EA701F906020E0FA7403B502004099
:1011610006906020E0700475820422906020E0FA0D
:101171009065F6F09065F6E0FA906024EAF07582E9
:101181000022AA8290A316E05407FBBB0302800A47
:1011910090A316E05407FBBB050475820122906001
:1011A10023E0FB53030F7405B503004003EB700408
:1011B10075820422BA022DEB2BFA24B0FCE434E64A
:1011C100FD0CBC00010D906021E0FE8C828D83EE50
:1011D100F0EA24B0FAE434E6FC906020E0FD8A8273
:1011E1008C83EDF0906027EBF0EB2BFB24B0FAE45D
:1011F10034E6FC8A828C83A3E0FA906025EAF0EB66
:1012010024B0F582E434E6F583E0FA906024EAF054
:1012110075820022AA8290A316E05407FBBB030249
:10122100800A90A316E05407FBBB050475820222D5
:10123100BA0428906020E0FA7405B50200400690D7
:101241006020E0700475820422906020E0FA90E64C
:101251002B540FF5F0E054F045F0F090E62BE054FC
:101261000F906024F075820022C018858118AA822F
:10127100BA80028003021330E51824FDF8B609454F
:1012810090200CE003035401FB906026F030101B0A
:1012910090A013E023235401906025F090A01BE05F
:1012A10003547FFB906024F00213EA90A00BE0232B
:1012B100235401906025F090A012E0547FFB9060D0
:1012C10024F00213EA90200CE04402F0906022E046
:1012D100FB30E00990200CE04404F0800790200CE2
:1012E100E054FBF0301025906021E0540190A013F0
:1012F10013E092E6F0906020E0FB90A01B25E05403
:10130100FEF5F0E0540145F0F00213EA906021E0AF
:10131100540190A00B13E092E6F0906020E0FB9066
:10132100A012547FF5F0E0548045F0F00213EAE595
:101331001824FDF8B6086E90E613E04410F0EA2A8E
:1013410025E0FB2498FCE434E6FD906022E0FE53A6
:101351000601BE0103D38001C39228E4338C828D40
:101361008313E092E0F0EB2484FCE434E6FD7403A3
:101371002CFCE43DFD906020E0FE8C828D83547F47
:10138100F5F0E0548045F0F0EB2484FBE434E6FC16
:1013910074032BFBE43CFC906021E0FD8B828C8389
:1013A10013E092E7F0EA2A25E0FA2484FBE434E62C
:1013B100FC8B828C83A3A3A3E0235401906025F0CE
:1013C100EA2484FBE434E6FC8B828C83A3A3A3E0B0
:1013D100547FFB906024F0EA2498F582E434E6F52A
:1013E10083E05401FA906026F0758200D018227AC9
:1013F10000902102E020E6047A028021908200E040
:101401004404F0C002783079C37A021200B3D002EA
:10141100908200E054FBF0902230742BF08A8222FB
:101421007A00902102E020E6047A02802190820075
:10143100E04408F0C002787B79BC7A021200B3D094
:1014410002908200E054F7F0902230742BF08A82EF
:101451002275880575895175A91C75B906D2ABD25B
:10146100ADD2A8D2AAC2A975B83F75C878759A3EFF
:10147100C205C206C207C208906711E4F0C209C2E0
:0F1481000AD203D204C21DC21E9067A5E4F02256
:020000040001F9
:10937A00906038E0547FF0906098E030E11090609F
:10938A009CE0FAA3E0FB906174EAF0A3EBF090672B
:10939A0099E4F07A03C00278D579867A011200B38B
:1093AA00D002906799E0FB6027906037E0FBBB0131
:1093BA00109060407401F0906040E0FBBB010280B5
:1093CA00F68A031AC374808BF063F08095F040C567
:1093DA00781579997A011200B3780A79A27A01127A
:1093EA0000B3906038E04480F0906658E0FA9060EC
:1093FA004AEAF0906659E0FA906049EAF090665FAE
:10940A00E0FA906048EAF090665AE0FA90604BEA17
:10941A00F00200C590614AE0FA90614BE0FBC0029D
:10942A008B82789F79C87A021200B3AB8215818B3E
:10943A000290614EE0FBC0028B82789F79C87A0263
:10944A001200B3AB8215818B0290614FE0FBC00220
:10945A008B82789F79C87A021200B3AB8215819009
:10946A006643EBF0906148E0FA906149E0FBC00284
:10947A008B82789F79C87A021200B3AB8215818BEE
:10948A000290614CE0FBC0028B82789F79C87A0215
:10949A001200B3AB8215818B0290614DE0FBC002D2
:1094AA008B82789F79C87A021200B3AA82158190BA
:1094BA006642EAF090614AE0FA7B0090614BE0FC78
:1094CA007D00EC2AFAED3BFB90614EE0FC7D00EC5E
:1094DA002AFAED3BFB90614FE0FC7D00EC2AFAEDA5
:1094EA003BA2E713CA13CAA2E713CA13CA9066417A
:1094FA00EAF0906148E0FA7B00906149E0FC7D0067
:10950A00EC2AFAED3BFB90614CE0FC7D00EC2AFA78
:10951A00ED3BFB90614DE0FC7D00EC2AFAED3BA2AD
:10952A00E713CA13CAA2E713CA13CA906640EAF03D
:10953A00906152E0FA7B00906153E0FC7D00EC2AD6
:10954A00FAED3BFB906156E0FC7D00EC2AFAED3B1C
:10955A00FB906157E0FC7D00EC2AFAED3BA2E71391
:10956A00CA13CAA2E713CA13CA906645EAF0906101
:10957A0050E0FA7B00906151E0FC7D00EC2AFAEDA4
:10958A003BFB906154E0FC7D00EC2AFAED3BFB903A
:10959A006155E0FC7D00EC2AFAED3BA2E713CA1301
:1095AA00CAA2E713CA13CA906644EAF090610CE0B3
:1095BA00FA3395E0FB90612CE0FC3395E0FDEC2A50
:1095CA00FAED3BA2E713CA13CA906646EAF0906125
:1095DA0004E0FA3395E0FB906105E0FC3395E0FD89
:1095EA00EC2AFAED3BFB906124E0FC3395E0FDECBC
:1095FA002AFAED3BFB906125E0FC3395E0FDEC2A6D
:10960A00FAED3BA2E713CA13CAA2E713CA13CA9018
:10961A006647EAF0906106E0FA3395E0FB9061074D
:10962A00E0FC3395E0FDEC2AFAED3BFB906126E085
:10963A00FC3395E0FDEC2AFAED3BFB906127E0FC58
:10964A003395E0FDEC2AFAED3BA2E713CA13CAA24E
:10965A00E713CA13CA906648EAF0906108E0FA3341
:10966A0095E0FB906109E0FC3395E0FDEC2AFAED08
:10967A003BFB906128E0FC3395E0FDEC2AFAED3BD8
:10968A00FB906129E0FC3395E0FDEC2AFAED3BA260
:10969A00E713CA13CAA2E713CA13CA906649EAF0C3
:1096AA0090610AE0FA3395E0FB90610BE0FC339598
:1096BA00E0FDEC2AFAED3BFB90612AE0FC3395E0F1
:1096CA00FDEC2AFAED3BFB90612BE0FC3395E0FDC3
:1096DA00EC2AFAED3BA2E713CA13CAA2E713CA138C
:1096EA00CA90664AEAF090610DE0FA3395E0FB9081
:1096FA00612DE0FC3395E0FDEC2AFAED3BA2E7137D
:10970A00CA13CA90664BEAF090610EE0FA3395E00C
:10971A00FB90612EE0FC3395E0FDEC2AFAED3BA2CA
:10972A00E713CA13CA90664CEAF090610FE0FA3365
:10973A0095E0FB90612FE0FC3395E0FDEC2AFAED11
:10974A003BA2E713CA13CA90664DEAF0906110E093
:10975A00FA3395E0FB906130E0FC3395E0FDEC2AAA
:10976A00FAED3BA2E713CA13CA90664EEAF090617B
:10977A005AE0FA7B0090615BE0FC7D00EC2AFAED8E
:10978A003BFB90615EE0FC7D00EC2AFAED3BFB902E
:10979A00615FE0FC7D00EC2AFAED3BA2E713CA13F5
:1097AA00CAA2E713CA13CA906650EAF0906158E059
:1097BA00FA7B00906159E0FC7D00EC2AFAED3BFB54
:1097CA0090615CE0FC7D00EC2AFAED3BFB90615D68
:1097DA00E0FC7D00EC2AFAED3BA2E713CA13CAA209
:1097EA00E713CA13CAFB90664FEAF09060A0E02024
:1097FA00E30302987C906162E0FA7B00906163E087
:10980A00FC7D00EC2AFAED3BFB906166E0FC7D00F2
:10981A00EC2AFAED3BFB906167E0FC7D00EC2AFA4A
:10982A00ED3BA2E713CA13CAA2E713CA13CA90668A
:10983A0052EAF090616AE0FA7B0090616BE0FC7D8D
:10984A0000EC2AFAED3BFB90616EE0FC7D00EC2A0D
:10985A00FAED3BFB90616FE0FC7D00EC2AFAED3BF0
:10986A00A2E713CA13CAA2E713CA13CAFB90665423
:10987A00EAF0906170E0906655F0906174E0FAA3A6
:10988A00E0FB20E103029912902510E0FA3395E0FB
:10989A00FB902511E0FC3395E0FDEAC39CFAEB9DB1
:1098AA00FB902514E0FC3395E0FDEC2AFAED3BFB36
:1098BA00902515E0FC3395E0FDEAC39CFAEB9D8AFE
:1098CA0004906656ECF0902512E0FA3395E0FB908E
:1098DA002513E0FC3395E0FDEAC39CFAEB9DFB906F
:1098EA002516E0FC3395E0FDEC2AFAED3BFB9025CA
:1098FA0017E0FC3395E0FDEAC39CFAEB9DFB90660A
:10990A0057EAF0906796E4F00200C5C018858118FE
:10991A000581781E79947A011200B3300D37200C34
:10992A0034906644E090665AF0906640E09066593A
:10993A00F0906642E0906658F0906647E090665B69
:10994A00F0906649E090665CF090664FE0FA9066A7
:10995A005FF0029A78200D37300C34906645E0901B
:10996A00665AF0906641E0906659F0906643E0903E
:10997A006658F0906648E090665BF090664AE09020
:10998A00665CF0906650E0FA90665FF0029A789012
:10999A006644E0FA7B00906645E0FC7D002AFAED19
:1099AA003BFB0ABA00010BEBA2E713CA13CA906683
:1099BA005AEAF0906640E0FA7B00906641E0FC7D4E
:1099CA00002AFAED3BFB0ABA00010BEBA2E713CA25
:1099DA0013CA906659EAF0906643E0FA906642E04C
:1099EA00FBC0028B82789F79C87A021200B3AA82DE
:1099FA001581906658EAF0906647E0FA3395E0FBE5
:109A0A00906648E0FC3395E0FDEC2AFAED3BFB0A50
:109A1A00BA00010BEBA2E713CA13CA90665BEAF01D
:109A2A00906649E0FA3395E0FB90664AE0FC33958C
:109A3A00E0FDEC2AFAED3BFB0ABA00010BEBA2E7C8
:109A4A0013CA13CA90665CEAF090664FE0FA7B008C
:109A5A00906650E0FC7D002AFAED3BFB0ABA000151
:109A6A000BEBA2E713CA13CAFB90665FEAF0906693
:109A7A005AE0FA906659E0FBEAC39B90665DF09063
:109A8A00665DE0FA74C1C0E0743FC0E08A8278F192
:109A9A0079C87A021200B3AA821581158190665D8F
:109AAA00EAF0906646E0F58278CE79C97A02120029
:109ABA00B3E582FA3395E0FB90665BE0F582C0027B
:109ACA00C00378CE79C97A021200B3AC82D003D02F
:109ADA0002EC3395E0FDEC2AFAED3BFB90665CE084
:109AEA00F582C002C00378CE79C97A021200B3ACFB
:109AFA0082D003D002EC3395E0FDEC2AFAED3BFB71
:109B0A0090664BE0F582C002C00378CE79C97A022A
:109B1A001200B3AC82D003D002EC3395E0FDEC2AFC
:109B2A00FAED3BFB90664CE0F582C002C00378CEAA
:109B3A0079C97A021200B3AC82D003D002EC339511
:109B4A00E0FDEC2AFAED3BFB90604DE02323540143
:109B5A00FCB40100E433FC604A906658E0FC906073
:109B6A0067E0FDECB50500B3E433FD703190606E3B
:109B7A00E0FDECB50500B3E433FC601690606DE0DF
:109B8A00FC7D00C3EA9CEB64808DF063F08095F065
:109B9A0040047A0080027A01EA7003FA80027A01AC
:109BAA00EA70047A0080027A01906666EAF09060B0
:109BBA004DE023235401FAB40100E433FA604890DB
:109BCA006646E0F58278CE79C97A021200B3AA8293
:109BDA00906066E0FBEAB50300B3E433FB702390C0
:109BEA00665BE0F58278CE79C97A021200B3AA825E
:109BFA0090606FE0FBEAB50300B3E433FB7003FA4D
:109C0A0080027A01EA70047A0080027A019066671B
:109C1A00EAF0906666E07009906667E07003FA8081
:109C2A00027A01906668EAF0E0FA90240BE020E3F9
:109C3A000B90240BE020E4047B0080027B01EB42C2
:109C4A0002906668EAF090665FE0FA90604FE0542E
:109C5A003FFB8A04C3EB64808CF063F08095F0507C
:109C6A0006906655E070047B0080027B019066696D
:109C7A00EBF090604DE0541FFB8A04C3EC64808BC8
:109C8A00F063F08095F0B3E433FC6006906655E02B
:109C9A0070047B0080027B0190666AEBF090665A42
:109CAA00E0FB906659E0FCEBB5040040048C0580AB
:109CBA0007EB2BFEC39CFCFD906655E0601090609C
:109CCA000AE020E2028D0290665EEAF08005906664
:109CDA005EE4F0906088E05401FA906089E05401F3
:109CEA00FCE4CC25E0CC33FDEC24FFF582ED34FF17
:109CFA00F5837C00C002C003C004127994AB82AC25
:109D0A008315811581900050E0C423540390A31950
:109D1A0093FD3395E0FEC005C0068B828C831279D1
:109D2A0094AB82AC8315811581D0027D00C003C03B
:109D3A00048A828D83127994AA82AB831581158154
:109D4A0090666DEAF0A3EBF0906088A81808E0032B
:109D5A005401F6906089E0035401FDE4CD25E0CD7D
:109D6A0033FE1DBDFF011E906646E0FF3395E0FC01
:109D7A00C002C003C007C0048D828E83127994ACDE
:109D8A0082AD8315811581900050E003540390A39E
:109D9A001D93FE3395E0FFC006C0078C828D8312A7
:109DAA007994AC82AD8315811581A8180886067F3F
:109DBA0000C004C0058E828F83127994AC82AD8371
:109DCA0015811581D003D002EC2AFAED3BFB90668F
:109DDA006DEAF0A3EBF0906088A81808E00303543A
:109DEA0001F6906089E003035401FDE4CD25E0CD3E
:109DFA0033FE1DBDFF011E90665BE0FF3395E0FC5C
:109E0A00C002C003C007C0048D828E83127994AC4D
:109E1A0082AD8315811581900050E0540190A321F1
:109E2A0093FE3395E0FFC006C0078C828D831279BA
:109E3A0094AC82AD8315811581A8180886067F0027
:109E4A00C004C0058E828F83127994AC82AD8315CB
:109E5A00811581D003D002EC2AFAED3BFB90666DA6
:109E6A00EAF0A3EBF0906088A81808E0C423540134
:109E7A00F6906089E0C4235401FDE4CD25E0CD339A
:109E8A00FE1DBDFF011E90665CE0FF3395E0FCC03D
:109E9A0002C003C007C0048D828E83127994AC82FB
:109EAA00AD8315811581900050E0540190A323934E
:109EBA00FE3395E0FFC006C0078C828D8312799429
:109ECA00AC82AD8315811581A8180886067F00C06B
:109EDA0004C0058E828F83127994AC82AD8315817A
:109EEA001581D003D002EC2AFAED3BFB90666DEAAD
:109EFA00F0A3EBF0906088A81808E0C45401F6902B
:109F0A006089E0C45401FDE4CD25E0CD33FE1DBDDA
:109F1A00FF011E90664BE0FF3395E0FCC002C003D0
:109F2A00C007C0048D828E83127994AC82AD8315EA
:109F3A00811581900050E0540190A32593FE33953A
:109F4A00E0FFC006C0078C828D83127994AC82AD83
:109F5A008315811581A8180886067F00C004C005EC
:109F6A008E828F83127994AC82AD8315811581D04C
:109F7A0003D002EC2AFAED3BFB90666DEAF0A3EB04
:109F8A00F0906088A81808E0C4035401F69060892C
:109F9A00E0C4035401FDE4CD25E0CD33FE1DBDFF31
:109FAA00011E90664CE0FF3395E0FCC002C003C07E
:109FBA0007C0048D828E83127994AC82AD83158199
:109FCA001581900054E023540190A32793FE339502
:109FDA00E0FFC006C0078C828D83127994AC82ADF3
:109FEA008315811581A8180886067F00C004C0055C
:109FFA008E828F83127994AC82AD8315811581D0BC
:10A00A0003D002EC2AFAED3BFB90666DEAF0A3EB73
:10A01A00F0906088A81808E023235401F69060891C
:10A02A00E023235401FDE4CD25E0CD33FE1DBDFF21
:10A03A00011E90664DE0FF3395E0FCC002C003C0EC
:10A04A0007C0048D828E83127994AC82AD83158108
:10A05A001581900054E023540190A32793FE339571
:10A06A00E0FFC006C0078C828D83127994AC82AD62
:10A07A008315811581A8180886067F00C004C005CB
:10A08A008E828F83127994AC82AD8315811581D02B
:10A09A0003D002EC2AFAED3BFB90666DEAF0A3EBE3
:10A0AA00F0906088A81808E0235401F6906089E0CF
:10A0BA00235401FDE4CD25E0CD33FE1DBDFF011E75
:10A0CA0090664EE0FF3395E0FCC002C003C007C0B3
:10A0DA00048D828E83127994AC82AD8315811581A9
:10A0EA00900054E023540190A32793FE3395E0FF98
:10A0FA00C006C0078C828D83127994AC82AD831519
:10A10A00811581A8180886067F00C004C0058E82C2
:10A11A008F83127994AC82AD8315811581D003D0D7
:10A12A0002EC2AFAED3BFB90666DEAF0A3EBF0E451
:10A13A00C0E074FCC0E0E4C0E07404C0E08A828B32
:10A14A0083787279C97A021200B3AA82AB83E58155
:10A15A0024FCF58190666DEAF0A3EBF090666DE061
:10A16A00FAA3E0FB906057E0FC906659E0FDC2D587
:10A17A008DF0EC30E704B2D5F404A430D50AF42407
:10A18A0001C5F0F43400C5F0FCAEF0900050E0C414
:10A19A0023540390A31993FD3395E0FFC002C00333
:10A1AA00C005C0078C828E83127994AC82AD831568
:10A1BA00811581D003D002EDC4CCC4540F6CCC54A9
:10A1CA000FCC6CCC30E30244F0FDEAC39CFAEB9D61
:10A1DA00FB9066CAE0FC3395E0FDEAC39CF582EB8E
:10A1EA009DF58378E579C97A021200B3AA82AB8316
:10A1FA0090666BEAF0A3EBF0851881D0180200C5CF
:10A20A00906655E07003FA804D90665FE0FB9060BF
:10A21A004EE05407FC8B05C3ED64808CF063F0803C
:10A22A0095F050047A01802E90604DE0541FFCC3D3
:10A23A00EB64808CF063F08095F050047A0280160B
:10A24A00906668E060047A03800C906669E07004A6
:10A25A007A0480027A05906663EAF00200C5906784
:10A26A0025E0FABA010280089066F7E0FABA01031B
:10A27A0002A31690604CE030E30302A31690604CF0
:10A28A00E020E507906715E0FA600302A3169060E4
:10A29A0047E020E10302A316902401E020E50280B2
:10A2AA006B78C679887A021200B39000F3E493FAC5
:10A2BA00A3E493FB906174EAF0A3EBF078D5798676
:10A2CA007A011200B3906158E0FA7B00906159E07C
:10A2DA00FC7D00EC2AFAED3BFB90615CE0FC7D0022
:10A2EA00EC2AFAED3BFB90615DE0FC7D00EC2AFA7A
:10A2FA00ED3BA2E713CA13CAA2E713CA13CA9060B6
:10A30A00A1EAF0789379C67A011200B30200C50374
:10A31A00040607030406070305030502030102C036
:10A32A0018E581F5182405F581900228E003035405
:10A33A0007FA53020390605AE003035401FBBB017E
:10A34A0002800302A4E3906038E030E30302A4E34E
:10A35A00C00278C679887A021200B3D002900060EF
:10A36A00E0C403540190671DF090005CE0035401BF
:10A37A0090671EF0902400E0C4540F90671FF0907D
:10A38A002406E0543FFBE4CBC4CB6BCB54F0CB6B3D
:10A39A00FC902405E0C4540FFD7E009067CDED4B80
:10A3AA00F0EE4CA3F0900058E0232354019067226A
:10A3BA00F0900058E0C4035401906723F0902410F1
:10A3CA00E0C45401906724F09066F7E0FB90679A26
:10A3DA00F09066F7E4F0BA0309900060E04420F0D8
:10A3EA00800ABA020790005CE04402F090605AE0EA
:10A3FA0030E01DD20CC20DEA700B902400E0540F1D
:10A40A0044C0F08026902400E0540F4480F0801B62
:10A41A00C20CD20DEA700B902400E0540F4430F0C5
:10A42A008009902400E0540F4420F0902408E4F0BE
:10A43A00A3F090240AE054C0F090240AE054BFF03C
:10A44A00902406E0543F4480F09024077402F09070
:10A45A002405E0540F4450F0902406E054C0F078EC
:10A46A001779847A021200B378B079B87A021200A6
:10A47A00B3900028E003547F906045F09022307436
:10A48A002BF0A20DE43390005813E092E5F0A20CF1
:10A49A00E43390005813E092E6F0900058E054EF4D
:10A4AA00F0784079B17A011200B3902580E0440136
:10A4BA00F0906059E054FCF0906058E4F090670E18
:10A4CA00F0A3F09067257401F0906038E04408F03A
:10A4DA00902230742BF002A8F590605AE0030354DE
:10A4EA0001FABA0102800302A80C906038E0C42382
:10A4FA005401FABA0102800302A80C906038E0C441
:10A50A005401FABA0102800302A80C906059E0547F
:10A51A0003FA30E11A906059E05403FB7A004303CE
:10A52A00FC906058E0FC7D004202ED4203801990E5
:10A53A006059E05403FD7C00906058E0FE7F0042C1
:10A54A0004EF42058C028D0390670EE0FCA3E0FD48
:10A55A00EAC39CF582EB9DF583C002C00312322E3A
:10A56A00D003D00290670EEAF0A3EBF09060B0E45B
:10A57A00F09060ACF0A3F0A3F0A3F09060B2E4F026
:10A58A009060A8F0A3F0A3F0A3F09060B1E4F0907B
:10A59A0060E0F0A3F0A3F0A3F09060B3E4F0906061
:10A5AA00DCF0A3F0A3F0A3F09060A5E0540FFABA90
:10A5BA00030050047B03800F740CB5020050047C26
:10A5CA000C80028A048C038B021A1A1AEA2A25E0E2
:10A5DA0024BFFAE434A9FB9000EDE493FCA3E493CE
:10A5EA00FD906174ECF0A3EDF0C002C00378D57958
:10A5FA00867A011200B3D003D002A818087600A800
:10A60A001808B60200400302A78AC002C00390607D
:10A61A00B0E0FDA81808E675F002A4FEE5F0CE2524
:10A62A00E0CE33CE25E0CE33FFEE2470FAEF3425A8
:10A63A00FB7C00C003C005C006C007C002C003C03F
:10A64A00049060AC75F00078FD79A87A011200B325
:10A65A00AA82158115811581D007D006D005D003AD
:10A66A00EA2D9060B0F09060B2E0FAEE2460FEEF5E
:10A67A003425FF7B00C002C006C007C0039060A853
:10A68A0075F00078FD79A87A011200B3AB821581C2
:10A69A0015811581D002EB2AFA9060B2F0E0FEA88B
:10A6AA001808E6B40100E433D003D002600790250D
:10A6BA00F3E0FC80069025F1E0FDFCC002C003EC4B
:10A6CA002E9060B2F09060B1E0FCA81808E675F030
:10A6DA0002A4FDE5F0CD25E0CD33CD25E0CD33FE56
:10A6EA00ED2474FFEE3425FA7B00C003C004C005D4
:10A6FA00C006C007C002C0039060E075F00078FD94
:10A70A0079A87A011200B3AA82158115811581D020
:10A71A0006D005D004D003EA2C9060B1F09060B363
:10A72A00E0FAED2464FDEE3425FE7B00C002C0058C
:10A73A00C006C0039060DC75F00078FD79A87A0144
:10A74A001200B3AB82158115811581D002EB2AFA6A
:10A75A009060B3F0E0FEA81808E6B40100E433D034
:10A76A0003D00260079025F2E0FC80069025F0E015
:10A77A00FDFCEC2EFC9060B3F0A818080602A609AE
:10A78A009060B2E0FCA8180808A6040876000876CB
:10A79A0000087600A8180808E6080808F618181825
:10A7AA0076000876000876009060A8E0A3E0FDA392
:10A7BA00E0FEA3E0FF8D048E058F067F00A818082F
:10A7CA0008EC46F6ED0846F6EE0846F6EF0846F6B9
:10A7DA008A828B83E493FCA3E493FDA3E493FEA310
:10A7EA00E493FFA8180808C3E69C08E69D08E69EBD
:10A7FA0008E69F500302A5E1906038E054EFF002AA
:10A80A00A8F5906725E0FABA0102800302A8F5903C
:10A81A00605AE030E20302A8F5902580E054FEF089
:10A82A00906038E054F7F0906038E054EFF09067A9
:10A83A0025E4F0906722E090005813E092E6F09049
:10A84A006723E090005813E092E5F078B079B87A7F
:10A85A00021200B390671DE090006013E092E5F0E9
:10A86A0090671EE090005C13E092E1F090671FE0B1
:10A87A00902400C454F0F5F0E0540F45F0F09067CE
:10A88A00CDE0FAA3E0FB740F5A902405C454F0F506
:10A89A00F0E0540F45F0F0EBC4CAC4540F6ACA542E
:10A8AA000FCA6ACA53023F902406EA543FF5F0E001
:10A8BA0054C045F0F0906724E090241013E092E42D
:10A8CA00F090679AE09066F7F075820278097983CA
:10A8DA007A021200B3902230742BF090604CE02080
:10A8EA00E509789379C67A011200B3851881D018E0
:10A8FA000200C5C018858118C082C083C0F0E581F6
:10A90A00240BF581A8180886820886830886F0E554
:10A91A00182404F9127A79F7A3127A7909F7A3129B
:10A92A007A7909F7A3127A7909F7E51824FAF886E9
:10A93A00030886040886028B828C838AF0E5182431
:10A94A0008F8127A79F6A3127A7908F6A3127A79B4
:10A95A0008F6A3127A7908F6E5182404F8E518240B
:10A96A0008F9E726FE09E70836FF09E70836FA0973
:10A97A00E70836FBA8180886820886830886F0EE60
:10A98A0012797BA3EF12797BA3EA12797BA3EB12EC
:10A99A00797BE5182408F8C3EE96EF0896EA08963C
:10A9AA00EB0896500575820180037582008518812F
:10A9BA00D0180200C504000000280000008701002A
:10A9CA0000430F000096980000E2F50500CB9A3B81
:0DA9DA0000E50B5402E876481711A5D4E8FB
:020000040000FA
:0500DB009067B8E4F09D
:101490007A147B00000000000000000000001ABA6F
:1014A000FF011BEA4B60030214942290223374FF65
:1014B000F090220BE0547FF075F70175F70122C020
:1014C000E0C082C083C0D075D010C2AF9022337408
:1014D000F0F0C28DC28C90223374FFF0D2AFD0D026
:1014E000D083D082D0E032C0D075D010C2AFC28ECF
:1014F000C28FD203D2AFD0D032C0E0C082C083C08E
:10150000D075D010C2AF90223374F2F075C878C293
:10151000C6D204906033E020E5030215B72006032D
:101520000215B79066CCE0FA70030215B790260357
:10153000E020E410902600E0547FF0902601E04483
:1015400001F08032902609E0FA20E71C90A316E013
:101550005407FABA03028010902600E04480F0900D
:101560002601E04401F0800E902600E04480F090D7
:101570002601E054FEF0902603E020E71C9021268F
:10158000E020E215906083E04480F0902600E05473
:101590007FF0902601E054FEF0906083E04440F03C
:1015A000906083E04402F0902603E04408F09060ED
:1015B00083E04408F0802D902603E020E0263007E9
:1015C000239066CCE0FA601C902602E04480F09004
:1015D0006083E04401F0906083E04410F090608309
:1015E000E04420F090223374FFF0D2AFD0D0D0830B
:1015F000D082D0E032C0E0C082C083C0D075D010AD
:10160000902233740DF074FFF0D0D0D083D082D00C
:10161000E032C0E0C082C083C0D075D010C2AF90AD
:1016200022337403F090201BE030E10890205374C3
:1016300002F0E4F090201BE030E236902053740476
:10164000F0E4F090A31BE020E527902007E020E5E0
:1016500020902200E0FA90E650E0FBEAB5131290E9
:10166000A34E740EF0740CF07408F0E4F09022367F
:10167000F090224EE054F7F090224EE054FBF0E060
:101680004408F090224EE04404F090223374FFF0BE
:10169000D2AFD0D0D083D082D0E032C0D075D010BD
:1016A000D0D032C0E0C082C083C0D075D010C2AFED
:1016B0009022337401F0902622E030E257902646C3
:1016C000E04404F0E054FBF0902600E020E031908C
:1016D0002102E030E62AC20AC2099067A2E4F09033
:1016E0002230E0FABA38199022317438F09022335F
:1016F00074FFF090220BE0547FF075F70175F7014D
:101700009022E4E030E00D90602E7402F09060339F
:10171000E04401F090223374FFF0D2AFD0D0D083F8
:10172000D082D0E032C0E0C082C083C0D075D0107B
:101730007A00C2AF9022337409F090201BE030E0B1
:1017400010902200E0FB90E650E0FCEBB514027A2A
:101750000190201BE0FB54E170030218F29020532B
:1017600074FBF0E4F090662BE0FB600B9022337486
:10177000FFF0D2AF021905902230E0FBBB1A0280C5
:1017800012BB1D028046BB2F028008BB30028003C3
:10179000021848902007E0C4035401FBBB010B90E2
:1017A00022367401F0D2050218F2EA70030218F230
:1017B000902231741AF090223374FFF090220BE0E3
:1017C000547FF075F70175F7010218F2902007E0D9
:1017D00020E52C902231741AF0902236E4F090200B
:1017E00002E054FBF0902102E054BFF090223374E9
:1017F000FFF090220BE0547FF075F70175F7019030
:101800002007E020E41E902002E054FBF09020022C
:10181000E054FBF0902002E054FBF0902003E054F1
:10182000BFF0800E902003E04440F0902002E0449E
:1018300004F0902102E003035401FABA010280038C
:101840000218F2D2050218F2902007E020E52A9053
:101850002231741AF0902002E054FBF0902102E053
:1018600054BFF090223374FFF090220BE0547FF0CD
:1018700075F70175F7010218F2902007E020E41EC9
:10188000902002E054FBF0902002E054FBF0902006
:1018900002E054FBF0902003E054BFF0800E902053
:1018A00003E04440F0902002E04404F0902102E084
:1018B00020E22790E604E020E720902102E054BFD8
:1018C000F0902231741DF090223374FFF090220BBF
:1018D000E0547FF075F70175F701902102E020E2F6
:1018E0001190E604E0235401FABA010690223A74FA
:1018F00001F0902264E054FEF0E04401F0902233C5
:1019000074FFF0D2AFD0D0D083D082D0E032C0E02C
:10191000C082C083C0D075D010C2AF902233740291
:10192000F07A0090202BE030E6239020577440F0AE
:10193000E4F090214CE030E014902102E054BFF03C
:10194000902053E04408F0E054F7F07A0190202B07
:10195000E030E7189020577480F0E4F0902003E026
:1019600030E609902002E054FBF07A01EA60199019
:1019700022317419F090223374FFF090220BE0545E
:101980007FF075F70175F70190223374FFF0D2AF45
:10199000D0D0D083D082D0E032C0E0C082C083C03B
:1019A000D075D010C2AF902233740BF0902620E097
:1019B00020E003021A279026447401F0E4F0A20705
:1019C000E433FA9022B4EAF0902002E030E25820AA
:1019D0000724902601E030E54E902603E04404F011
:1019E000D2079066CCE4F0C20375C860C2C69022EC
:1019F000317428F08031902231E0FABA2910C20700
:101A0000902603E054FEF0902603E054FBF0902271
:101A100031742AF090223374FFF090220BE0547F4F
:101A2000F075F70175F701902143E030E52B902127
:101A30005BE04420F0E054DFF0902603E020E7195B
:101A4000902601E030E612902126E020E20B902261
:101A500074E054F7F0E04408F090223374FFF09003
:101A6000226CE030E60B90226CE054BFF0E0444082
:101A7000F090226DE054FEF0E04401F0D2AFD0D0FF
:101A8000D083D082D0E032C0E0C082C083C0D075A5
:101A9000D010C2AF9022337405F09026447402F047
:101AA000E4F0A206E433FA9022B4EAF0902601E0D2
:101AB00020E603021B5F300603021B5F902603E053
:101AC0004402F09022317428F0D20690A316E0541C
:101AD00007FABA03028007902636E04480F0906748
:101AE00011E4F0753001C20375C860C2C69022507F
:101AF000E054DFF09066CCE4F0902143E054DFF056
:101B0000902143E054BFF09022D8E04408F0E05424
:101B1000F7F0902603E030E709902604E4F0A3F004
:101B2000802F9067107401F090679CE4F0A3F09010
:101B30002604E4F0A37440F0902606E4F0A3F090AD
:101B40002602E04440F0E054BFF090600AE054FE0A
:101B5000F0902602E04420F0E054DFF0021C3A90BE
:101B60002601E030E63130062E902603E0C4540111
:101B7000FABA01239022317428F0906711E4F0C280
:101B80000375C860C2C6902600E054FBF09026039F
:101B9000E054EFF0021C3A902601E020E6443006C3
:101BA00041902603E020E43A902231E0FABA2A1765
:101BB000C206902600E054FBF0902603E054EFF0BC
:101BC000902603E054FDF09022317429F0902233E6
:101BD00074FFF090220BE0547FF075F70175F70168
:101BE0008058902601E030E65130064E906711E4AF
:101BF000F0C20375C860C2C6902250E054DFF09076
:101C00002274E054F7F0902600E054FBF090260395
:101C1000E054EFF0902603E054FDF090671074015B
:101C2000F09022317429F090223374FFF090220B4F
:101C3000E0547FF075F70175F70190223374FFF0DF
:101C4000D2AFD0D0D083D082D0E032C0E0C082C04A
:101C500083C0D075D010C2AF902102E054F7F0904D
:101C60002233740AF090223AE0600E90223AE4F0B7
:101C7000902102E04408F08008D208902231742CB0
:101C8000F090223374FFF0D2AFD0D0D083D082D086
:101C9000E032C025C0E0C0F0C082C083C0D075D0A3
:101CA00008C2AF9022337407F0C228C229C22A901A
:101CB00067B9E4F0902621E030E108D2289026456B
:101CC0007402F0902621E030E008D2299026457475
:101CD00001F0902645E4F090260AE0FAA3E0FB909C
:101CE00067C4E0FCA3E0FDEC620AED620BEA4B7016
:101CF0001A902608E0FAA3E0FB9067C6E0FCA3E098
:101D0000FDEC620AED620BEA4B607490260AE0FA81
:101D1000A3E0FB9067C4EAF0A3EBF0902608E0FA9A
:101D2000A3E0FB9067C6EAF0A3EBF090260AE0FA86
:101D3000A3E0FB9067C4E0FCA3E0FDEC620AED6267
:101D40000BEA4B701A902608E0FAA3E0FB9067C6F6
:101D5000E0FCA3E0FDEC620AED620BEA4B60209030
:101D6000260AE0FAA3E0FB9067C4EAF0A3EBF09048
:101D70002608E0FAA3E0FB9067C6EAF0A3EBF020A8
:101D800028062029030228FB902603E020E10A9080
:101D90002600E020E0030228FB9067C4E0A3E09067
:101DA00067C0F09067C4E0FAA3E09067C1EAF090E2
:101DB00067C6E0A3E09067C2F09067C6E0FAA3E0D0
:101DC000FB9067C3EAF0A206E4339022B6F0A20AC1
:101DD000E433FA9022B7F0D2AF9067BAE4F090679C
:101DE000BFF03029079067C8E02401F0902600E09A
:101DF00020E006200A03021F0C7530012028030290
:101E00001EF9300A3B9067C1E0FA530A30BA30023B
:101E1000804E9067C1E0FA530A0CBA0C02804190E0
:101E200067C1E0FA530A03BA030280349067C4E042
:101E3000FAA3E0FBEA54C07005EB54F36002802083
:101E4000200A3C9067C1E0FA543F70149067C0E0EC
:101E5000FA540C600B9067C0E0FA530A0CBA081FE2
:101E6000C20A902604743FF0A3E4F0902602E044F6
:101E700020F0E054DFF09060097401F00228FB903C
:101E800067C1E0FA543F70719067C0E0FA530A0CE2
:101E9000BA0430300A11902604743FF0A3E4F090A5
:101EA00060097402F0800ED20A902604E4F0A3F0D8
:101EB000906009E4F0902602E04420F0E054DFF066
:101EC0000228FB9067C0E0FA530A0CBA0802800BA4
:101ED0009067C0E0FA530A0CBA0C1EC20A9026049E
:101EE0007415F0A3E4F0902602E04420F0E054DF03
:101EF000F0906009E4F00228FB3009109067C3E01D
:101F0000FA530A3FBA3F059067A2E4F020060302A5
:101F1000204390A316E05407FAC374818AF063F05B
:101F20008095F050030220439067C0E0FA54E070BF
:101F3000289067C4E0FAA3E0FBEA54C07005EB54B4
:101F400013600280459067C6E0FAA3E0FBEA54C044
:101F50007005EB541F600280319067C0E0FA530AAD
:101F6000E0BAE02F9067C4E0FAA3E0FBEA54C07047
:101F700005EB5413600280129067C6E0FAA3E0FB01
:101F8000EA54C07005EB54DF60099067BA7403F03F
:101F900002273C9067C0E0FA54E060169067C0E00A
:101FA000FA530AE0BAE00280099067BA7402F002BC
:101FB000273C9067C0E0FA530AE0BAE00A90600A52
:101FC000E04401F00228FB9067C0E00303543FFAAD
:101FD000530A039067BEEAF0EA600D9067C1E0FA29
:101FE000543F60049067C1E09067C1E0FA530A3F34
:101FF0009067BEEAF074035AFBBB03069067BA749D
:1020000011F0740C5AFBBB0C159067BAE0FB70081A
:102010009067BA7413F080069067BA7410F0530A90
:1020200030BA30159067BAE0FA70089067BA741544
:10203000F080069067BA7410F09067BAE0FA600317
:1020400002273C200606200A030228FB2028030260
:1020500028FB9067C2E0FA30E7030228FB9067C2D2
:10206000E0FA30E61690A316E05407FAC374818AAA
:10207000F063F08095F040030228FB90A316E05433
:1020800007FABA04289067C0E0C4540FFA530A0351
:102090009067BEEAF0EA30E0089067BE7404F08012
:1020A0003DEA30E1399067BE7405F08031906710E9
:1020B000E0FA601A902603E020E713902126E02042
:1020C000E207902601E020E6F2906710E4F09067C6
:1020D000C0E00303543FFA9067BE74035AF0906760
:1020E000BEE0FA70030221C09067A4E0FB60030227
:1020F00021BAEA2AFA24B0F582E434E6F583E090C6
:102100002634F0EA24B0FAE434E6FB8A828B83A317
:10211000E0902635F0902634E0C4540FFA90600F1A
:10212000E0540FFBEAB50B0040089067B97420F04B
:102130008016902634E054F070089067B97430F03F
:1021400080069067B97410F0902635E0C4540FFAF9
:1021500090600EE0540FFBEAB50B00400A9067B99F
:10216000E0FA4408F0801A902635E054F0700A90A6
:1021700067B9E0FA440CF080089067B9E0FA4404CB
:10218000F0902635E0540FFA90600FE0C4540FFB36
:10219000EAB50B00400A9067B9E0FA4402F0801AF1
:1021A000902635E0540F700A9067B9E0FA4403F0C6
:1021B00080089067B9E0FA4401F075300002273CCE
:1021C0009067C1E0FA530A3F9067BEEAF0EA7003F5
:1021D0000227397B00BB0B00500FEB902B9793FC31
:1021E000EAB50C0280030B80ECBB0B004025100A03
:1021F000028017902604743FF0A3E4F0902602E0DA
:102200004420F0E054DFF00228FB9067BA741AF023
:1022100002273CE4BA050104FB7017BA0A02800ADF
:10222000BA1402801DBA282080109067BF7401F094
:1022300080169067BF7401F0800E9067BF7402F043
:1022400080069067BF7402F09067A4E0FC60030210
:1022500025D1E53070030225D1902635E0C4540F16
:10226000FC90600EE0540FFDECB50D009228B39287
:1022700017902635E0C4540FFCB401009218902644
:1022800035E0540FFC90600FE0C4540FFDECB50D29
:10229000009228B39219902635E0540FFCB4010047
:1022A000921A902634E0C4540FFC90600FE0540F53
:1022B000FDECB50D009228B3921B902634E0C45477
:1022C0000FFCB40100921CBA0103022445BA0203B8
:1022D0000223C2BA04030223A1EB7043BA0803022B
:1022E0002380BA0A028019BA1003022552BA1402D6
:1022F000806DBA20030224C8BA280280410225D189
:102300003019030225D1902635E0540FFA0A9026A1
:1023100035EA540FF5F0E054F045F0F00225D130E5
:102320001A030225D1902635E0540FFA1A9026356B
:10233000EA540FF5F0E054F045F0F00225D1301BDF
:10234000030225D1902634E0C4540FFA0A902634B3
:10235000EAC454F0F5F0E0540F45F0F00225D13016
:102360001C030225D1902634E0C4540FFA1A90269B
:1023700034EAC454F0F5F0E0540F45F0F00225D1F2
