:020000040001F9
:10800000AA82AB837C00BC0800502AEC2CFDFE90B9
:1080100083DF93CEA393FFED9083EF93CDA393F8EB
:10802000EA5205EB5200EEB50508EFB50004758283
:1080300001220C80D175820022C018E581F5182438
:1080400008F581E5182404F87600087600E5182480
:1080500006F87600900030E00354079083FF939079
:10806000661DF0900034E00303543F90661EF090CC
:108070000034E003540190661FF0781979997A0270
:108080001200B3AD829022B6EDF0906008E0FEBE23
:1080900001047E0880027E01A818080876BC0876D4
:1080A000029022B5EEF030165CED6009906614E0A7
:1080B0002401F08009906614E014906614F0906634
:1080C00014E0FC700CFD90E643E0FF906614F08035
:1080D00034C00690E643E0FFE4CF25E0CF33FE7ADC
:1080E00000C3EC9FEA64808EF063F08095F0D006C8
:1080F000400D7D0190E643E0FA906614F08006752D
:108100008201028224BD0111C006788A79997A021F
:108110001200B3AA82D0068011C0067831799A7A0B
:10812000021200B3AB82D0068B02EA600302821D0A
:10813000C006788779837A011200B3D00630160A18
:10814000E5182406F8760102821DC006781979998F
:108150007A021200B3AA82D0068A059022B6EDF008
:10816000A81808E6B505028011A81808A605BE08DB
:10817000047E028005BE02027E01E5182404F80890
:10818000E618C625E0C63308F68D027B00E5182404
:1081900004F8EA46F6EB0846F6E5182404F8E51874
:1081A0002407F9E6F70809E6F77C00BC0800503B15
:1081B000C006EC2CFFFE9083DF93CEA393FAEFFB77
:1081C0009083EF93CBA393FFE5182407F8E65203BF
:1081D00008E65207EEB50306EAB507028004D006AA
:1081E0008006D0067A0180050C80C07A00EA601013
:1081F000E5182406F87601906006E04408F0801D3A
:1082000090E649E020E00AA818080816B6FF020820
:1082100016A8180808E6084660030280A1E518249D
:1082200006F88682851881D0180200C5A20EE433B4
:10823000FA902230740FF0900228E003035407FBF9
:10824000530304E4BB000104FB906006E054F7F024
:10825000906001E054FDF090E60AE003035401FC55
:10826000BC0102800A906003E05401FCBC0144EAB6
:108270002AFC24AAFDE43465FEEB2DF582E43EF5EC
:1082800083E090661EF0EC24B2FDE43465FEEB2D35
:10829000F582E43EF583E0906620F0EC24A2FCE455
:1082A0003465FDEB2CF582E43DF583E0FC90661F20
:1082B000F0801290661E7431F09066207405F09084
:1082C000661F7401F0906620E09083FF9390661D16
:1082D000F0C002C003788779837A011200B3D0031B
:1082E000D002906008E0600302837490E60AE030F8
:1082F000E203028374C002C003783979807A0112E4
:1083000000B3AC82D003D002906005EC13E092E1A0
:10831000F0900030E0035407FCEA2433FDE43466B7
:10832000FEEC9083FF938D828E83F0EA2AFA24AAD2
:10833000FCE43465FDEB2CFCE43DFD90661EE08C16
:10834000828D83F0EA24B2FCE43465FDEB2CFCE47E
:108350003DFD906620E0FE8C828D83F0EA24A2FA37
:10836000E43465FCEB2AFBE43CFD90661FE0FA8BED
:10837000828D83F0906001E04402F090E643E0FAE1
:10838000906614F00200C590661EE090003425E06F
:1083900025E054FCF5F0E0540345F0F090661FE052
:1083A00090003413E092E1F090661DE0FAC313628E
:1083B00002906620EAF0900030EA2A540EF5F0E0D0
:1083C00054F145F0F0900034E04401F0789279C81F
:1083D0007A021200B3900034E054FEF00200C505AA
:1083E000000A003300CC00C701380E0F0FF0F00F69
:1083F000000F00FF00FF00FF0FFF0FFFFFFFFF0058
:1084000001030207060405C018E581F5182404F5E8
:1084100081A818087600902606E0FBA3E053033FEE
:108420009067C3E0FCA818080874305BF6E51824D0
:1084300003F8740C5BF6E5182404F874035BF67417
:10844000305CFF740C5CFA74035CFB902606E0FE63
:10845000A3E0FDBE0005BD04028010BE0005BD08FE
:1084600002801FBE002ABD0C278017EC700C90679D
:10847000C2E0FD540C7003028533A818087601028F
:108480008533BC1503028533A818087601028533AD
:108490009067C2E0FD540C6005A818087601EC70E6
:1084A00005A818087601E5182404F8B60108BB02EF
:1084B00002801EEB601BE5182404F8B60208BB031B
:1084C00002800EEB600BE5182404F8E67008EB6000
:1084D00005A818087601E5182403F8B60408BA08B8
:1084E00002801EEA601BE5182403F8B60808BA0CDF
:1084F00002800EEA600BE5182403F8E67008EA60D3
:1085000005A818087601A8180808B61008BF2002A8
:10851000801CEF6019A8180808B62008BF30028038
:108520000DEF600AA8180808E67008EF6005A818A3
:10853000087601A818088682851881D0180200C51F
:108540009022B47403F07A00902600E020E0030249
:10855000862C902600E020E40302862C90E607E0BB
:1085600030E6379022E4E030E030906033E020E005
:108570002990601FE0FBBB601C90601CE0FBA3E047
:10858000FC9022B47401F0BB0D0040057A02028613
:108590002C7A01803C7A0202862C90E607E020E5E6
:1085A000030286519022B47404F09067A2E0FC901C
:1085B000867C93FDFB9067A2EC04F09067A2E090AC
:1085C000867C93FCBCFF028003BC0C059067A2E490
:1085D000F0EB2BFB90866093CBA393FC9067C8E4F1
:1085E000F08B828C83C002780C79CE7A011200B3B2
:1085F000D0029067C8E0FB60F99067C3E0FB5303CB
:108600003FBB3F079067A2E4F08021C2AFC0027871
:108610000779847A011200B3E582D002600C90677A
:10862000A27406F09060097403F0D2AFC2AFEA60A2
:108630001E9022E4E030E017BA020890602E740128
:10864000F0800590602EE4F0906033E04401F0D2B9
:10865000AF9022B47402F0902230742BF00200C567
:1086600000040A00050028001400080004000200AD
:108670000100200010000008000C00000001030AA7
:10868000080B0CFFC0188581180581058190617069
:108690007401F09066F7E0FABA0102800B90E607E9
:1086A000E0035401FABA0106200803028EC090606C
:1086B000A2E4F09060A3F0906797E0FA906174E014
:1086C000FBA3E0FCEB20E0030287B69060A27401FC
:1086D000F0902163E0547FF090240CE0547FF09000
:1086E0002102E04480F0E0547FF0C002789279C823
:1086F0007A021200B3902403E054BFF0758E079005
:108700002410E04404F0E054FBF0758E009022D079
:10871000E04480F09022D4E04480F09022D0E054F5
:108720007FF09022D4E0547FF078C8798E7A0112DD
:1087300000B3D0029060A27402F09060A0E030E13B
:1087400075C002781779847A021200B375820078B6
:108750004179847A021200B3758210784179847A63
:10876000021200B3758212784179847A021200B342
:10877000D00290049CE0541FFB900498E0541FFC2E
:108780002BFB9067D0F0900498E020E5079067D02D
:1087900074402BF090089CE0541FFB900898E05424
:1087A0001FFC2BFB9067D1F0900898E020E5079024
:1087B00067D174402BF0906174E0FBA3E0FCEB30D8
:1087C000E12A9060A27403F0C00274FFC0E0900040
:1087D0000078C6798A7A021200B31581D0029021FE
:1087E00063E04480F090240CE04480F0906174E0F9
:1087F000FBA3E0FCEB20E2030289109060A274046A
:10880000F0758201C00278B679897A021200B375D8
:108810008200784A798E7A021200B3D00290617495
:10882000E0FBA3E0FCEB30E51B9060A27405F0C018
:1088300002E4C0E0900A0178C6798A7A021200B395
:108840001581D002758BF0758DD8D28EC2039060E1
:10885000A27406F0C0027401C0E0900A0178C679E3
:108860008A7A021200B31581D002906661E0FBB5EE
:108870000202806E9060A27408F0EBFC3395E0FD7C
:10888000EC24FEFEED34FFFFA81808A602EA33959B
:10889000E008F6A81808C3E69E08E664808FF06337
:1088A000F08095F050040A0A802074022CFCE43D0C
:1088B000FDA81808C3EC96ED64800886F063F0808C
:1088C00095F050041A1A80028B02906662E0FBC099
:1088D00002C0038A82122DF91581D00220030302FF
:1088E000884E30030F9060A3E0FA4302029060A329
:1088F000EAF0C203C28EC28F758200784179847A11
:10890000021200B3758210784179847A021200B3A2
:10891000906174E0FAA3E0FBEA20E403028ADA90B3
:1089200060A2740AF0902401E054FDF0902401E06C
:1089300054FEF0906174E0FAA3E0FBEA30E53A906F
:1089400060A2740BF075820178B679897A02120000
:10895000B3758200784A798E7A021200B390240BA4
:10896000E04480F0E054BFF0E4C0E0900A0178C633
:10897000798A7A021200B31581906174E0FAA3E05B
:10898000FBEA30E6499060A2740CF020271875824B
:108990000178B679897A021200B3758200784A7933
:1089A0008E7A021200B390240BE04480F0E054BFB2
:1089B000F0902402E04408F0E054FBF07402C0E0C0
:1089C000900A0178C6798A7A021200B31581906103
:1089D00074E0FAA3E0FBEA30E7609060A2740DF067
:1089E00020271875820078B679897A021200B3754B
:1089F0008202784A798E7A021200B390240BE04406
:108A000080F0E054BFF0902402E04408F0E054FB12
:108A1000F03008147402C0E090000078C6798A7AB9
:108A2000021200B3158180127402C0E09003027834
:108A3000C6798A7A021200B31581906174E0FAA3B4
:108A4000E0FB20E003028ADA9060A2740EF0202797
:108A50001875820078B679897A021200B37582029D
:108A6000784A798E7A021200B390240BE0547FF09A
:108A700090240BE054BFF0902402E054F7F09024CF
:108A800002E054FBF0906715E0FA60147404C0E053
:108A900090020478C6798A7A021200B31581801296
:108AA0007402C0E090020478C6798A7A021200B398
:108AB00015819060A0E030E121781779847A021264
:108AC00000B3758210784179847A021200B37582FE
:108AD00000784179847A021200B3906174E0FAA3BD
:108AE000E0FB20E103028BB49060A27410F09024AC
:108AF00001E054FDF0902401E054FEF09060A27477
:108B000011F090240BE0547FF0E04440F0902402F8
:108B1000E054F7F0E04404F07403C0E0900A0178F8
:108B2000C6798A7A021200B315819060A27412F09D
:108B300090240BE0547FF090240BE054BFF090247D
:108B400002E054F7F0902402E054FBF07403C0E01C
:108B500090030278C6798A7A021200B31581906078
:108B6000A27413F090049CE0541FFA900498E0540F
:108B70001FFB2AFA9067D0F0900498E020E5079058
:108B800067D074402AF090089CE0541FFA9008982F
:108B9000E0541FFB2AFA9067D1F0900898E020E596
:108BA000079067D174402AF0758212784179847AEF
:108BB000021200B3906174E0FAA3E0FB20E203022A
:108BC0008C419060A27414F075820078B679897A2D
:108BD000021200B3758202784A798E7A021200B3CB
:108BE0009060A27415F0902401E04402F090240BF0
:108BF000E04480F0E054BFF0E4C0E090080278C6A2
:108C0000798A7A021200B315819060A27416F090EE
:108C1000240BE0547FF090240BE054BFF0E4C0E05C
:108C200090040478C6798A7A021200B3158175829D
:108C300001784179847A021200B3902401E054FD56
:108C4000F0906174E0FAA3E0FB20E403028DE89069
:108C500060A27418F020271875820078B679897A96
:108C6000021200B3758202784A798E7A021200B33A
:108C7000902404E054BFF0902401E04401F07A0015
:108C80007B00758202C002C003780979837A0212E0
:108C900000B3D003D0029060A27419F090240BE0CE
:108CA0004480F0E054BFF020271BC002C003E4C0A2
:108CB000E0900A0278C6798A7A021200B31581D050
:108CC00003D0028019C002C003E4C0E0900802781B
:108CD000C6798A7A021200B31581D003D00290605F
:108CE000A2741AF090240BE0547FF0E04440F0208E
:108CF000271BC002C003E4C0E090080478C6798A4C
:108D00007A021200B31581D003D0028019C002C0CC
:108D100003E4C0E090060478C6798A7A021200B3B0
:108D20001581D003D0029060A2741CF0EB70167510
:108D30008202C002C003784179847A021200B3D063
:108D400003D002802DEA7016758203C002C003783A
:108D50004179847A021200B3D003D0028014758264
:108D600004C002C003784179847A021200B3D003B0
:108D7000D0029060A2741BF09060A0E030E35BEB47
:108D8000701F7B01906661E0FCC002C00390670029
:108D9000E0C0E08C82122DF91581D003D002028C44
:108DA00082EA701F7A01906661E0FCC002C0039005
:108DB0006702E0C0E08C82122DF91581D003D00249
:108DC000028C82906701E0FA906662F0906661E042
:108DD000FBC0028B82122DF91581902401E054FE14
:108DE000F0902404E04440F0906174E0FAA3E0FBCA
:108DF00020E603028E9790604FE030E603028E97E4
:108E00009060A27421F0902580E04401F090605AB7
:108E1000E020E220758201780979837A021200B39A
:108E2000780D798F7A011200B3788479827A0212F0
:108E300000B3800F906039E0F582788479827A02FD
:108E40001200B39060A27422F0902580E04404F0F8
:108E5000E054FBF090605AE030E21474FFC0E09000
:108E6000200878C6798A7A021200B31581801274BC
:108E7000FFC0E0900A0578C6798A7A021200B3151D
:108E8000819060A27423F0783C79807A021200B35A
:108E9000AA82906170EAF090605AE020E21C2008FB
:108EA000199060A27424F0758201780979837A029E
:108EB0001200B3902580E054FEF09060A27425F07B
:108EC000851881D0180200C5902403E04420F0E00A
:108ED00054DFF0E04402F0902403E054FDF0E0445D
:108EE00001F0E054FEF0758B9C758DFFD28EC203AD
:108EF00020031790240BE030E5F6789279C87A02C7
:108F00001200B390240BE030E5E60200C5906158F2
:108F1000E0FA906159E0FBC0038A8278C879C87A88
:108F2000021200B3AB8215818B0290615AE0FBC044
:108F3000038A8278C879C87A021200B3AB8215819D
:108F40008B0290615BE0FBC0038A8278C879C87AA3
:108F5000021200B3AB8215818B0290615CE0FBC012
:108F6000038A8278C879C87A021200B3AB8215816D
:108F70008B0290615DE0FBC0038A8278C879C87A71
:108F8000021200B3AB8215818B0290615EE0FBC0E0
:108F9000038A8278C879C87A021200B3AB8215813D
:108FA0008B0290615FE0FBC0038A8278C879C87A3F
:108FB000021200B3AB8215818B0290E6AFE0C4547D
:108FC0000FFB8BF005F0EA8002C313D5F0FBFA909B
:0D8FD000E6AFE0540FFB2AFAF5820200C55F
:020000040000FA
:1000E300D315D3111003D77590550040000280013A
:0A00F3000010D3019300D755D30588
:020000040001F9
:108FDD00902402E054EFF0900054E04408F090002B
:108FED0054E04404F0900054E04402F0902401E079
:108FFD004404F0902418E054EFF0902418E054DF6E
:10900D00F0902405E054FEF0902405E054F7F03084
:10901D002710902400E0540F44C0F0902405E04444
:10902D0002F00200C590604CE020E4030291139021
:10903D00604CE030E30302911390604CE030E503A7
:10904D000291139066F7E0FA600302911390672581
:10905D00E0FA600302911390663AE02401F0906605
:10906D003AE0FA7403B50200400302911390663A98
:10907D00E4F0758201780979837A021200B3786B76
:10908D0079887A021200B3902409E4F0902408E064
:10909D00FA53020D902408EAF090240AE04440F0BF
:1090AD00902405E054FDF0902405E054FEF090244A
:1090BD0005E054F7F0902400E044F0F07404C0E0B3
:1090CD0090101078C6798A7A021200B31581786BE8
:1090DD0079887A021200B3902408E0FA5302F090D6
:1090ED002408EAF090240AE054BFF07404C0E09024
:1090FD00100178C6798A7A021200B3158178177932
:10910D00847A021200B30200C590604CE030E02B6F
:10911D00900264E030E209900264E054FBF0802D8F
:10912D00900264E04404F0783279907A011200B331
:10913D0078A179967A021200B38012783279907AFA
:10914D00011200B378A179967A021200B30200C51C
:020000040002F8
:10800000C018858118AA82AB83ACF0FDE51824F96D
:10801000F8C3E69A08E69B08E69C08E69D50098AA4
:10802000828B838CF0ED800FE51824F9F8868208A6
:1080300086830886F008E6D0180200C5C018E581DE
:10804000F5182408F581902560E0FAA3E0FBA3E091
:10805000FCA3E0FDE5182405F8A60208A60308A67F
:108060000408A605902564E0FEA3E0FFA3E0FAA3C0
:10807000E0FBC006C007C002C003E5182405F8866F
:10808000820886830886F008E6780079807A0212F2
:1080900000B3AA82AB83ACF0FDE58124FCF581E559
:1080A000182405F8A60208A60308A60408A6059049
:1080B0002568E0FAA3E0FBA3E0FCA3E0FDC002C05A
:1080C00003C004C005E5182405F8868208868308E5
:1080D00086F008E6780079807A021200B3AA82ABB3
:1080E00083ACF0FDE58124FCF581E5182405F8A6B4
:1080F0000208A60308A60408A60590256CE0FAA3CA
:10810000E0FBA3E0FCA3E0FDC002C003C004C00587
:10811000E5182405F886820886830886F008E67844
:108120000079807A021200B3AA82AB83ACF0FDE53D
:108130008124FCF581E5182405F8A60208A60308A9
:10814000A60408A605902570E0FAA3E0FBA3E0FCD6
:10815000A3E0FDA81808A60208A60308A60408A61E
:1081600005902574E0FEA3E0FFA3E0FAA3E0FBC0C6
:1081700006C007C002C003A81808868208868308C4
:1081800086F008E6780079807A021200B3AA82AB02
:1081900083ACF0FDE58124FCF581A81808A602084F
:1081A000A60308A60408A605902578E0FAA3E0FB3C
:1081B000A3E0FCA3E0FDC002C003C004C005A818F2
:1081C0000886820886830886F008E6780079807A37
:1081D000021200B3AA82AB83ACF0FDE58124FCF56A
:1081E00081A81808A60208A60308A60408A60590F8
:1081F000257CE0FAA3E0FBA3E0FCA3E0FDC002C005
:1082000003C004C005A8180886820886830886F083
:1082100008E6780079807A021200B3AA82AB83ACB8
:10822000F0FDE58124FCF581A81808A60208A60344
:1082300008A60408A60590E6AEE0FAE4FBFCFDE51E
:10824000182405F8C3E69A08E69B08E69C08E69D14
:108250005005758200802590E6ACE0FAA3E0FB7C37
:10826000007D00A81808C3EA96EB0896EC0896ED86
:10827000089650057582008003758201851881D0AB
:10828000180200C5AA82902440EA543FF5F0E05459
:10829000C045F0F0902441EA543FF5F0E054C04569
:1082A000F0F0902442EA543FF5F0E054C045F0F07D
:1082B000902443EA543FF5F0E054C045F0F0902498
:1082C00060EA543FF5F0E054C045F0F0902461EAD4
:1082D000543FF5F0E054C045F0F0902462EA543F7A
:1082E000F5F0E054C045F0F0902463EA543FF5F017
:1082F000E054C045F0F0902430740FF0E4F0902486
:1083000034740FF0E4F00200C5AA82BA01028008BA
:10831000BA0202805F02840D7440C0E0E4C0E074E1
:1083200078C0E07461C0E0E4C0E090244075F000E3
:10833000780579CA7A021200B3E58124FBF58190B1
:10834000243074FFF0A3F0A3F0A3747FF0902430E6
:10835000E4F0A3F0A3F0A3F090243474FFF0A3F0B2
:10836000A3F0A3747FF0902434E4F0A3F0A3F0A36F
:10837000F002840D906178E0902440543FF5F0E0E5
:1083800054C045F0F0906179E0902441543FF5F0FD
:10839000E054C045F0F090617AE0902442543FF5FB
:1083A000F0E054C045F0F090617BE0902443543FEE
:1083B000F5F0E054C045F0F0906198E090246054EE
:1083C0003FF5F0E054C045F0F0906199E0902461F1
:1083D000543FF5F0E054C045F0F090619AE09024ED
:1083E00062543FF5F0E054C045F0F090619BE0FA34
:1083F000902463543FF5F0E054C045F0F0902430F1
:10840000740FF0E4F0902434740FF0E4F090240B37
:10841000E030E5F90200C57440C0E0E4C0E07480DB
:10842000C0E07424C0E0E4C0E090617875F00078AA
:108430000579CA7A021200B3E58124FBF5810200B6
:10844000C5AA82BA00028027BA01030284C5BA0213
:1084500003028509BA030302854DBA04030285911C
:10846000BA10030285D5BA12030285FF0286D8909E
:1084700024D0E0906148F09024D1E0906149F090E0
:1084800024D2E090614AF09024D3E090614BF090C8
:1084900024F0E090614CF09024F1E090614DF09078
:1084A00024F2E090614EF09024F3E0FA90614FF0F6
:1084B00090240BE030E2047A0180027A009061712E
:1084C000EAF00286D89024D0E0906150F09024D158
:1084D000E0906151F09024D2E0906152F09024D36A
:1084E000E0906153F09024F0E0906154F09024F11A
:1084F000E0906155F09024F2E0906156F09024F302
:10850000E0FA906157F00286D89024D0E09061584C
:10851000F09024D1E0906159F09024D2E090615A1B
:10852000F09024D3E090615BF09024F0E090615CE7
:10853000F09024F1E090615DF09024F2E090615EB3
:10854000F09024F3E0FA90615FF00286D89024D096
:10855000E0906160F09024D1E0906161F09024D2CD
:10856000E0906162F09024D3E0906163F09024F099
:10857000E0906164F09024F1E0906165F09024F265
:10858000E0906166F09024F3E0FA906167F0028673
:10859000D89024D0E0906168F09024D1E090616997
:1085A000F09024D2E090616AF09024D3E090616B67
:1085B000F09024F0E090616CF09024F1E090616D17
:1085C000F09024F2E090616EF09024F3E0FA906174
:1085D0006FF00286D87440C0E0E4C0E074D0C0E020
:1085E0007424C0E0E4C0E090610075F00078057983
:1085F000CA7A021200B3E58124FBF5810286D89085
:1086000024C0E0547F9061B8547FF5F0E054804579
:10861000F0F09024C1E0547F9061B9547FF5F0E010
:10862000548045F0F09024C2E0547F9061BA547FAA
:10863000F5F0E0548045F0F09024C3E0547F906161
:10864000BB547FF5F0E0548045F0F09024C4E05432
:108650007F9061BC547FF5F0E0548045F0F09024A9
:10866000C5E0547F9061BD547FF5F0E0548045F043
:10867000F09024C6E0547F9061BE547FF5F0E05442
:108680008045F0F09024C7E0547F9061BF547FF59F
:10869000F0E0548045F0F0902510E0906140F090BB
:1086A0002511E0906141F0902512E0906142F09038
:1086B0002513E0906143F0902514E0906144F09020
:1086C0002515E0906145F0902516E0906146F09008
:1086D0002517E0FA906147F00200C5AA82BA0002AD
:1086E0008009BA0203028777028800906148E0900F
:1086F0002440543FF5F0E054C045F0F0906149E06B
:10870000902441543FF5F0E054C045F0F090614AA8
:10871000E0902442543FF5F0E054C045F0F0906101
:108720004BE0902443543FF5F0E054C045F0F09006
:10873000614CE0902460543FF5F0E054C045F0F007
:1087400090614DE0902461543FF5F0E054C045F055
:10875000F090614EE0902462543FF5F0E054C04543
:10876000F0F090614FE0FA902463543FF5F0E0544C
:10877000C045F0F0028800906158E0902440543FDA
:10878000F5F0E054C045F0F0906159E09024415478
:108790003FF5F0E054C045F0F090615AE09024427B
:1087A000543FF5F0E054C045F0F090615BE0902458
:1087B00043543FF5F0E054C045F0F090615CE09028
:1087C0002460543FF5F0E054C045F0F090615DE066
:1087D000902461543FF5F0E054C045F0F090615EA4
:1087E000E0902462543FF5F0E054C045F0F0906111
:1087F0005FE0FA902463543FF5F0E054C045F0F098
:10880000902430740FF0E4F0902434740FF0E4F00E
:1088100090240BE030E5F90200C5E582FA602B9068
:10882000604CE030E010900264E054E7F090020CFD
:10883000E0548FF08026900264E054E74408F09002
:10884000020CE0548F4430F08012900264E054E750
:108850004410F090020CE0548F4420F090000A780D
:10886000B879C47A021200B30200C59060A4E03067
:10887000E4119024087455F0A3F090240AE054C049
:10888000F0800F90240874FFF0A3F090240AE044D5
:108890003FF0902401E054FDF0902401E054FEF0FC
:1088A00090240AE054BFF0902402E054F7F09024A2
:1088B00002E054FBF090240BE0547FF090240BE096
:1088C00054BFF00200C5902401E0C4035401FABA79
:1088D0000126758B18758DFCD28EC203902401E0A1
:1088E00054DFF0902402E020E1033003F6902402EC
:1088F000E054FEF0C28EC28F0200C590E607E03061
:10890000E2030289B3902401E030E5030289B390C9
:1089100066F7E0FABA01030289B390604CE020E404
:108920000790604CE030E3030289B3758201780957
:1089300079837A021200B3902406E0543F4480F019
:108940009024077405F0786B79887A021200B3904E
:108950002408E0FA5302FD902408EAF090240AE08B
:108960004440F0902405E054FDF0902405E054FECE
:10897000F0902405E054F7F0D20DD20C7582007807
:10898000B679897A021200B3902401E04420F09075
:108990002402E054FEF0E04401F090604EE030E745
:1089A00012902401E054FBF0E04410F0902401E028
:1089B0004401F00200C5AA82300C07200D047B0C94
:1089C0008013200C07300D047B038009BA01047B5F
:1089D0000C80027B0F9060A4E0540FF4FA520390D5
:1089E0002400EBC454F0F5F0E0540F45F0F0020021
:1089F000C5900228E003035407FA5302039060A4D1
:108A0000E054EFF09067947420F09060A4E054DF9D
:108A1000F0BA0313902402E0547FF0E04440F09059
:108A200067937408F0804EBA0213902402E04480E9
:108A3000F0E054BFF09067937404F08038BA0121DD
:108A4000902402E0547FF0E04440F0906793740279
:108A5000F09060A4E04410F09060A4E04420F08026
:108A600014902402E04480F0902402E04440F0900E
:108A700067937401F0900228E003035407FB30E28F
:108A80000B906793E025E0FB906793F09066F7E02A
:108A9000FB700D906793E0C42354E0FB906794F063
:108AA000EA7010902402E04420F09060A4E054F0BA
:108AB000F08010902402E054DFF09060A4E054F0C5
:108AC0004405F00200C5C018858118AA82AB8390C6
:108AD0006038E023235401FCBC010280119066F74A
:108AE000E0FCBC01028007902411E020E103028D2C
:108AF0005E90604FE030E71C902405E0540FF0904A
:108B00002406E054C0F0902406E0543FF09024077F
:108B1000E4F0804A8B04740F5C902405C454F0F593
:108B2000F0E0540F45F0F0ECC4540FFC53043F90B8
:108B30002406EC543FF5F0E054C045F0F074035ABD
:108B4000FB902406030354C0F5F0E0543F45F0F0D9
:108B5000EA0303543FFA53023F902407EAF0E51872
:108B600024FCF8E624F95003028C42E51824FCF8B2
:108B7000E625E026908B7873028B8D028BA9028B01
:108B8000C6028BDF028BF5028C0E028C2790240824
:108B90007401F0902409E4F090240AE054C0F090AD
:108BA000240AE054BFF0028C5990240874FFF0901E
:108BB000240974FFF090240AE054C0F090240AE0E5
:108BC00054BFF0028C5990240874FFF0902409746B
:108BD000FFF090240AE0443FF0E054BFF0807A9028
:108BE0002408E4F0902409F090240AE054C0F0E056
:108BF0004440F0806490240874FDF090240974FFD0
:108C0000F090240AE0443FF0E054BFF0804B902401
:108C10000874F0F090240974FFF090240AE0443FB7
:108C2000F0E054BFF08032902408740DF0902409D5
:108C3000E4F090240AE0443FF090240AE04440F03D
:108C40008017902408E4F0902409F090240AE0545E
:108C5000C0F090240AE054BFF0E51824FCF8B6FFF9
:108C600002804D9060A0E030E21B902408E0FA53AF
:108C70000201902408EAF0902409E4F090240AE02C
:108C800054C0F0802B9060A4E030E50790240AE007
:108C900054C0F09060A4E030E416902408E0FAA3F9
:108CA000E0FB530255530355902408EAF0A3EBF080
:108CB000900264E0C4235403FABA0202800D9024A7
:108CC00008E0FA5302FD902408EAF0902402E054F0
:108CD000FEF0E04401F0789279C87A021200B39075
:108CE0006098E020E45330080C758BF8758DFFD246
:108CF0008EC203800A758B18758DFCD28EC20390CC
:108D00002402E020E1033003F6902402E054FEF058
:108D10003003209022C2E0FA0A9022C2EAF090606A
:108D2000A3E0FA4302019060A3EAF0C203906799BE
:108D30007401F0C28EC28F800E902402E030E1F9FF
:108D4000902402E054FEF0902408E4F0902409F00E
:108D500090240AE054C0F090240AE054BFF0D018E8
:108D60000200C5AA82906016E0FB900224C423543E
:108D700060F5F0E0549F45F0F0BA01028003028EE6
:108D800013902403E04440F09061B8E090243854FC
:108D90007FF5F0E0548045F0F09061B9E09024391F
:108DA000547FF5F0E0548045F0F09061BAE09024F3
:108DB0003A547FF5F0E0548045F0F09061BBE090CC
:108DC000243B547FF5F0E0548045F0F09061BCE026
:108DD00090243C547FF5F0E0548045F0F09061BD64
:108DE000E090243D547FF5F0E0548045F0F0906130
:108DF000BEE090243E547FF5F0E0548045F0F090C2
:108E000061BFE0FA90243F547FF5F0E0548045F0D4
:108E1000F08007902403E054BFF0902403E0442046
:108E2000F0E054DFF0758B9C758DFFD28EC203206D
:108E3000031590240BE0C4035401FA90240BE0C402
:108E4000035401FB5A60E80200C5AA82BA000280FE
:108E500005BA012D8017902405E04408F090240500
:108E6000E04401F0902405E04402F0803D902405A8
:108E7000E04408F0E054FEF0902405E054FDF0805A
:108E800029902405E054F7F0902400E0C4540FFA30
:108E9000BA0F09902405E054FDF08007902405E006
:108EA0004402F0902405E054FEF00200C59066F8FC
:108EB000E0FA7403B502004072EA2A2A908EC07369
:108EC000028ECC028EE3028F05028F19900058E0CB
:108ED00054DFF0900058E054BFF0900058E054EF99
:108EE000F08048A20DE43390005813E092E5F0A220
:108EF0000CE433FA90005813E092E6F0900058E04A
:108F000054EFF08026900058E04420F0900058E0A4
:108F10004440F0E054EFF08012900058E054DFF04D
:0E8F2000900058E054BFF0E04410F00200C58D
:020000040000FA
:1000FD00906099E0FABA170978B079B87A021200CF
:0F010D00B3906098E054FEF0902230742BF022F3
:10022100C018858118058105819022D8E04420F00D
:10023100E054DFF09022B47414F09022E4E020E066
:100241000A906033E054FEF00205277A0290601FA5
:10025100E0FBA81808A60390601CE0FC906023E076
:10026100FD530580A8180808E4BD800104F69060DC
:1002710020E0FEA3E0FFA3E0FDA3E0FB906024EEFD
:10028100F0A3EFF0A3EDF0A3EBF0906023E0FB53BC
:10029100030F90A316E05407FDBD043290E62CE055
:1002A100540FFD902033E0C4540FF582C002C00406
:1002B100C00578C879C87A021200B3AD8215818D64
:1002C100038B82126D5AAD82D004D0028D03BB051F
:1002D1000040057A040204F1A8180808E660027BD0
:1002E10080C0029022B47413F09022B5A81808E6D9
:1002F100F09022B6ECF0906020E0FDA3E0FEA3E0D8
:10030100FFA3E0FA9022C4EDF0A3EEF0A3EFF0A377
:10031100EAF0A81808B660028004D002800FD0026B
:10032100902600E020E0030204F1020527A8180846
:10033100B68071740BB5040050030204F1EC2C2C4F
:10034100900345730203690203690203A20203A237
:100351000203A20203A202037902037902038902C2
:100361000389020399020399C0048B8212052DAD02
:100371008215818D020204F1C0048B82120D44ADFD
:100381008215818D020204F1C0048B821212A4AD88
:100391008215818D020204F18C82121134AD828D9D
:1003A100020204F1A81808B681477405B50400508B
:1003B100030204F1EC2C2C9003BC730203CE020364
:1003C100CE0203DA0203DA0203E60203E68C8212AA
:1003D1001171AD828D020204F18C821211BDAD82C8
:1003E1008D020204F18C8212124FAD828D02020441
:1003F100F1A81808B682697407B504005003020415
:10040100F1EC2C2C90040973020421020421020452
:100411003102043102044102044102045102045137
:10042100C0048B82120F8DAD8215818D020204F101
:10043100C0048B82120B6CAD8215818D020204F116
:10044100C0048B821209D6AD8215818D020204F19E
:10045100C0048B82120C5EAD8215818D020204F103
:10046100A81808B683487405B5040050030204F1C6
:10047100EC2C2C9004787302048A02048A020499F9
:100481000204990204A40204A4C0048B82120E8FF8
:10049100AB8215818B0280588C82120F40AB828B0C
:1004A10002804D8C82120F66AB828B028042A818AB
:1004B10008B6843CBC00028005BC0134801A9060FF
:1004C10020E0FB530303902200E0FCEBB504211272
:1004D100142AAB828B028018906020E0FB53030347
:1004E100902200E0FCEBB5040712145BAB828B0297
:1004F10090602EEAF0906033E04401F09022B474F1
:100501000FF090602EE09022B5F0906024E0FAA305
:10051100E0FBA3E0FCA3E0FD9022C4EAF0A3EBF032
:10052100A3ECF0A3EDF0851881D01822C0188581C5
:1005310018C082E581240CF581A81808B6800280D4
:1005410003020630E51824FDF8B60167902634E071
:10055100906024F0902635E0FB906025F0902636DF
:10056100E030E70D906024E0FB430308906024EB4A
:10057100F0902636E030E60D906024E0FB43030462
:10058100906024EBF0902636E030E50D906024E099
:10059100FB430302906024EBF09067A4E0FB70033F
:1005A1000209CD906024E0FB430301906024EBF04D
:1005B1000209CD902637E04420F0906020E090269B
:1005C10034F0906021E0902635F0906020E0FB53FC
:1005D1000308BB0803D38001C39228E43390263675
:1005E10013E092E7F0906020E0FB530304BB0403A7
:1005F100D38001C39228E43390263613E092E6F0CB
:10060100906020E0FB530302BB0203D38001C3923D
:1006110028E43390263613E092E5F0906020E0FB69
:100621005303019067A4E4BB010104F00209CDE585
:100631001824FDF8B60102800302079BA81808E6FA
:1006410075F050A4FBACF02404FDEC3463FE740B94
:100651002DF582E43EF583E0C454F0906024F0A8C7
:10066100180886F005F07A017D008006EA2AFAED85
:1006710033FDD5F0F79060CBE5182405F8E0F6A33B
:10068100E008F6A3E008F6A3E008F6EDFE3395E0F6
:10069100FDFFE5182405F8E6520208E6520608E6D1
:1006A100520508E65207EA4E4D4F600D906024E076
:1006B100FD430508906024EDF0EB2404FDEC346368
:1006C100FE74082DFDE43EFE8D828E83E0600D9068
:1006D1006024E0FD430504906024EDF0EB2404FD6B
:1006E100EC3463FE740A2DFDE43EFE8D828E83E0C0
:1006F100600D906024E0FD430502906024EDF0A8B8
:100701001808E625E024D0F582E43460F583E0FDA5
:1007110030E00D906024E0FD430501906024EDF090
:10072100A81808E624FB404BA81808E625E0269007
:1007310007347302074302074C020757020761029D
:10074100076C9060C8E0540FFD80289060C8E0C439
:10075100540FFEFD801D9060C9E0540FFEFD801313
:100761009060C9E0C4540FFEFD80089060CAE05457
:100771000FFEFDEDC454F0906025F0E0FEEB240483
:10078100FBEC3463FC74092BF582E43CF583E0FB5C
:100791004206906025EEF00209CDA81808E518245C
:1007A10003F9E675F050A4F709A7F0E5182403F85A
:1007B100E62404FE08E63463FF740B2EFEE43FFFDB
:1007C100906020E0C4540F8E828F83F0906020E00F
:1007D100FA530208BA0850A8180886F005F07B0100
:1007E1007A008006EB2BFBEA33FAD5F0F79060CB69
:1007F100E5182409F8E0F6A3E008F6A3E008F6A35B
:10080100E008F68B07EA3395E0FBFCE5182409F8CC
:100811009060CBEF46F0EA0846A3F0EB0846A3F060
:10082100EC0846A3F08062A8180886F005F07A016A
:100831007E008006EA2AFAEE33FED5F0F7E51824A9
:1008410009F8EAF4F6EEF408F69060CBE518240511
:10085100F8E0F6A3E008F6A3E008F6A3E008F6E561
:10086100182409F88604088602E63395E0FBFEE5C4
:10087100182405F89060CBEC56F0EA0856A3F0EB8B
:100881000856A3F0EE0856A3F0E5182403F8E62471
:1008910004FA08E63463FB74082AFAE43BFB90602F
:1008A10020E0FC530404E4BC0401048A828B83F03D
:1008B100E5182403F8E62404FA08E63463FB740A15
:1008C1002AFAE43BFB906020E0FC530402E4BC0202
:1008D1000104FC8A828B83F0906020E0FA530201CC
:1008E100BA0125A81808E625E0FA24D0FBE4346013
:1008F100FCEA24D0F582E43460F583E0FA43020196
:100901008B828C83EAF08023A81808E625E0FA247C
:10091100D0FBE43460FCEA24D0F582E43460F58352
:10092100E0FA5302FE8B828C83EAF0906021E0C4EE
:10093100540FFA740F5AFDA81808E624FB406AA860
:100941001808E625E02690094B7302095A02096A44
:1009510002097B02098B02099C9060C8ED540FF5D6
:10096100F0E054F045F0F080409060C8EDC454F0E0
:10097100F5F0E0540F45F0F0802F9060C9ED540F71
:10098100F5F0E054F045F0F0801F9060C9EDC454DB
:10099100F0F5F0E0540F45F0F0800E9060CAED5490
:1009A1000FF5F0E054F045F0F0E5182403F8E624E3
:1009B10004FA08E63463FB74092AFAE43BFB90600D
:1009C10021E0FC53040F8A828B83ECF07582008551
:1009D1001881D01822C018858118AA82BA80028095
:1009E10003020A88E51824FDF8B60538900050E0A6
:1009F100FB53031F906024EBF0E0FB900054E0FCFC
:100A010074E05C4203906024EBF0902411E0035405
:100A110001906025F0900058E0235401FB9060267E
:100A2100F0020B66906020E0900050F0900054E0DE
:100A3100FB53031F900054EBF0E0FB906020E0FCBF
:100A410074E05C4203900054EBF0906021E05401AB
:100A510090241013E092E4F0902410E0C45401902B
:100A6100240CE0232354019066F7F0906022E0FB10
:100A710030E00A900058E04480F0020B6690005884
:100A8100E0547FF0020B66E51824FDF8B60561EA33
:100A91002A25E024B4F582E43460F583E0906024F3
:100AA100F0EA75F050A42404FB746335F0FC744142
:100AB1002BF582E43CF583E0FBE4BB00010490608C
:100AC10025F0906087E0FB8AF005F07C017D0080D5
:100AD10006EC2CFCED33FDD5F0F77E00EB5204EE75
:100AE1005205EC4D60027401FB906026EBF08075BD
:100AF100EA2A25E024B4FBE43460FC906020E08B1A
:100B0100828C83F0EA75F050A42404FB746335F001
:100B1100FC74412BFBE43CFC906021E0FD5305019A
:100B2100E4BD000104FD8B828C83F08AF005F07432
:100B310001800225E0D5F0FBFA9067A8E04AF09029
:100B41006022E0FB30E00F906087E0FBEA42039017
:100B51006087EBF0800F906087E0FBEAF4FA5203C4
:100B6100906087EBF0758200D01822C0188581183B
:100B7100AA82BA8040E51824FDF8B6031790020056
:100B8100E0FB906024EBF0900204E0FB906026EB28
:100B9100F0020C58906020E0FB900200EBF09060B6
:100BA10022E0FB900000EBF0906022E0FB90020459
:100BB100EBF0020C58E51824FDF8B60330EA2A25BB
:100BC100E0FB24B4FCE43460FD8C828D83A3E0FC63
:100BD100906024ECF0EB24B4FBE43460FC8B828C59
:100BE10083A3A3A3E0FB906026EBF0806AEA2A25A9
:100BF100E0FB24B4FCE43460FD0CBC00010D90600A
:100C010020E0FE8C828D83EEF0EB24B4FCE43460B2
:100C1100FD74022CFCE43DFD906022E0FE8C828D8F
:100C210083EEF0EB24B4FBE43460FC74032BFBE4AF
:100C31003CFC906022E0FD8B828C83EDF09060CDD6
:100C4100E0FB8AF005F07401800225E0D5F0FBFAA3
:100C510042039060CDEBF0758200D01822C0188558
:100C61008118AA82BA80028003020CF9E51824FDDA
:100C7100F8B6070C9067A6E0FB906024F0020D3EE9
:100C8100906013E0FB53031F7C00906020E0FD5354
:100C9100053F9067A6EDF0ED7019906013E0FE90AE
:100CA100001025E025E054FCF5F0E0540345F0F098
:100CB100020D3E7E00C005C0068B828C83127D9F93
:100CC100AD82AE83158115818D03EEC403CBC403C0
:100CD10054076BCB5407CB6BCBFC906013E0FD53F7
:100CE1000520EB4205900010ED2D25E054FCF5F0B8
:100CF100E0540345F0F08045E51824FDF8B60712ED
:100D0100EA247CF582E43460F583E0FB906024F012
:100D1100802BEA247CFBE43460FC906020E0FD53EE
:100D2100053F8B828C83EDF08AF005F0740180021F
:100D310025E0D5F0FBFA9067A7E0FB4AF075820049
:100D4100D01822C018858118AA82BA8002800302B5
:100D51000DD2E51824FDF8B6072C90004CE0C454E0
:100D610003FB906024EBF090004CE003035403FB81
:100D7100906025EBF090004CE023235403FB90603E
:100D810026EBF0020E89906020E0FB5303039000F4
:100D91004CEBC45430F5F0E054CF45F0F0906021B5
:100DA100E0FB53030390004CEB2B25E0540CF5F0D2
:100DB100E054F345F0F0906022E0FB530303900010
:100DC1004CEB030354C0F5F0E0543F45F0F0020E44
:100DD10089E51824FDF8B6065FEA75F050A4FBAC6E
:100DE100F0EB2404FDEC3463FE740E2DFDE43EFEB5
:100DF100906020E0FF5307038D828E83EFF0EB2498
:100E010004FDEC3463FE740D2DFDE43EFE90602183
:100E1100E0FF5307038D828E83EFF0EB2404FBEC9C
:100E21003463FC740C2BFBE43CFC906022E0FD532A
:100E310005038B828C83EDF0EA75F050A4FAABF0D8
:100E4100EA2404FCEB3463FD740E2CF582E43DF5D9
:100E510083E0FC906024ECF0EA2404FCEB3463FDB5
:100E6100740D2CF582E43DF583E0FC906025ECF0F7
:100E7100EA2404FAEB3463FB740C2AF582E43BF5B3
:100E810083E0FA906026EAF0758200D01822C0183B
:100E9100858118AA82BA8024E51824FDF8B6010DCF
:100EA1009067CCE0FB906024EBF0020F3A90602059
:100EB100E0FB9067CC74015BF0020F3AE51824FD6A
:100EC100F8B601369060F7E0FB8AF005F07C017D11
:100ED100008006EC2CFCED33FDD5F0F77E00EB52E3
:100EE10004EE5205E4BC0004BD000104FCB40100A1
:100EF100E433FC906024ECF0803F906020E0FB3014
:100F0100E01C9060F7E0FB8AF005F0740180022597
:100F1100E0D5F0FBFC42039060F7EBF0801B9060A2
:100F2100F7E0FB8AF005F07401800225E0D5F0FBC3
:100F3100F4FA52039060F7EBF0758200D01822AA00
:100F410082BA030E906076E0C45401FA906024F0F6
:100F5100800F906020E05401FA90607613E092E4F3
:100F6100F075820022AA82BA050F906076E0C40370
:100F71005401FA906024F0800F906020E05401FA4F
:100F810090607613E092E5F075820022C0188581A9
:100F910018AA82BA80028003021040E51824FDF8E5
:100FA100B6013A902165E003035407FB902165E007
:100FB100C4035407C454F0FCEB4204906024ECF0E9
:100FC10090022CE0540FFB900230E0C4540FC45443
:100FD100F0FCEB4204906025ECF002112E906020B1
:100FE100E0FB530307902165EB2B25E0541CF5F042
:100FF100E054E345F0F0906020E05470C4540F9049
:101001002165C42354E0F5F0E0541F45F0F09060F1
:1010110021E0FB53030F90022CEB540FF5F0E05449
:10102100F045F0F0906021E054F0C4540FFB9002C1
:1010310030C454F0F5F0E0540F45F0F002112EE504
:101041001824FDF8E6707CEA75F050A4FBACF0249E
:1010510004FDEC3463FE74222DFDE43EFE9060201D
:10106100E0FF5307078D828E83EFF0EB2404FDEC44
:101071003463FE74232DFDE43EFE906020E0547045
:10108100C4540F8D828E83F0EB2404FDEC3463FE97
:1010910074242DFDE43EFE906021E0FF53070F8D87
:1010A100828E83EFF0EB2404FBEC3463FC74252B7C
:1010B100FBE43CFC906021E054F0C4540FFD8B82B2
:1010C1008C83F0EA75F050A4FAABF02404FCEB3405
:1010D10063FD74222CFCE43DFDEA2404FEEB346341
:1010E100FF74232EF582E43FF583E0C454F0FE8CB7
:1010F100828D83E04206906024EEF0EA2404FCEB4A
:101101003463FD74242CFCE43DFDEA2404FAEB3441
:1011110063FB74252AF582E43BF583E0C454F0FABD
:101121008C828D83E0FC4202906025EAF07582009A
:10113100D01822AA8290A316E05407FBBB030475C2
:10114100820222BA0A18906020E0FA530207902026
:1011510013EAC42354E0F5F0E0541F45F0F0902069
:1011610013E0C4035407FA906024EAF07582002268
:10117100AA8290A316E05407FBBB0302800A90A346
:1011810016E05407FBBB050475820222EA701F902A
:101191006020E0FA7403B502004006906020E07020
:1011A1000475820422906020E0FA9065F6F0906563
:1011B100F6E0FA906024EAF075820022AA8290A3F8
:1011C10016E05407FBBB0302800A90A316E0540704
:1011D100FBBB050475820122906023E0FB53030FE2
:1011E1007405B503004003EB700475820422BA0252
:1011F1002DEB2BFA24B0FCE434E6FD0CBC00010D10
:10120100906021E0FE8C828D83EEF0EA24B0FAE456
:1012110034E6FC906020E0FD8A828C83EDF09060E2
:1012210027EBF0EB2BFB24B0FAE434E6FC8A828C4A
:1012310083A3E0FA906025EAF0EB24B0F582E43470
:10124100E6F583E0FA906024EAF075820022AA8232
:1012510090A316E05407FBBB0302800A90A316E09B
:101261005407FBBB050475820222BA042890602052
:10127100E0FA7405B502004006906020E070047544
:10128100820422906020E0FA90E62B540FF5F0E002
:1012910054F045F0F090E62BE0540F906024F07587
:1012A100820022C018858118AA82BA8002800302B6
:1012B100136AE51824FDF8B6094590200CE00303F4
:1012C1005401FB906026F030101B90A013E0232303
:1012D1005401906025F090A01BE003547FFB9060C7
:1012E10024F002142490A00BE023235401906025E4
:1012F100F090A012E0547FFB906024F0021424903F
:10130100200CE04402F0906022E0FB30E0099020E4
:101311000CE04404F0800790200CE054FBF0301006
:1013210025906021E0540190A01313E092E6F09023
:101331006020E0FB90A01B25E054FEF5F0E0540195
:1013410045F0F0021424906021E0540190A00B13A9
:10135100E092E6F0906020E0FB90A012547FF5F05F
:10136100E0548045F0F0021424E51824FDF8B60895
:101371006E90E613E04410F0EA2A25E0FB2498FC85
:10138100E434E6FD906022E0FE530601BE0103D382
:101391008001C39228E4338C828D8313E092E0F0C4
:1013A100EB2484FCE434E6FD74032CFCE43DFD9065
:1013B1006020E0FE8C828D83547FF5F0E0548045FF
:1013C100F0F0EB2484FBE434E6FC74032BFBE43CF7
:1013D100FC906021E0FD8B828C8313E092E7F0EAC0
:1013E1002A25E0FA2484FBE434E6FC8B828C83A377
:1013F100A3A3E0235401906025F0EA2484FBE434A4
:10140100E6FC8B828C83A3A3A3E0547FFB90602432
:10141100F0EA2498F582E434E6F583E05401FA9089
:101421006026F0758200D018227A00902102E02017
:10143100E6047A028021908200E04404F0C0027840
:101441003079C37A021200B3D002908200E054FBDB
:10145100F0902230742BF08A82227A00902102E0EF
:1014610020E6047A028021908200E04408F0C00264
:10147100787B79BC7A021200B3D002908200E054EA
:10148100F7F0902230742BF08A82227588057589D5
:101491005175A91C75B906D2ABD2ADD2A8D2AAC2D8
:1014A100A975B83F75C878759A3EC205C206C207CC
:1014B100C208906711E4F0C209C20AD203D204C281
:0914C1001DC21E9067A5E4F02293
:020000040001F9
:10915D00906038E0547FF0906098E030E1109060BE
:10916D009CE0FAA3E0FB906174EAF0A3EBF090674A
:10917D0099E4F07A03C002788479867A011200B3FB
:10918D00D002906799E0FB6027906037E0FBBB0150
:10919D00109060407401F0906040E0FBBB010280D4
:1091AD00F68A031AC374808BF063F08095F040C586
:1091BD0078F879967A011200B378ED799F7A0112D9
:1091CD0000B3906038E04480F0906658E0FA90600B
:1091DD004AEAF0906659E0FA906049EAF090665FCD
:1091ED00E0FA906048EAF090665AE0FA90604BEA37
:1091FD00F00200C590614AE0FA90614BE0FBC002BD
:10920D008B82789F79C87A021200B3AB8215818B5D
:10921D000290614EE0FBC0028B82789F79C87A0282
:10922D001200B3AB8215818B0290614FE0FBC0023F
:10923D008B82789F79C87A021200B3AB8215819028
:10924D006643EBF0906148E0FA906149E0FBC002A3
:10925D008B82789F79C87A021200B3AB8215818B0D
:10926D000290614CE0FBC0028B82789F79C87A0234
:10927D001200B3AB8215818B0290614DE0FBC002F1
:10928D008B82789F79C87A021200B3AA82158190D9
:10929D006642EAF090614AE0FA7B0090614BE0FC97
:1092AD007D00EC2AFAED3BFB90614EE0FC7D00EC7D
:1092BD002AFAED3BFB90614FE0FC7D00EC2AFAEDC4
:1092CD003BA2E713CA13CAA2E713CA13CA90664199
:1092DD00EAF0906148E0FA7B00906149E0FC7D0086
:1092ED00EC2AFAED3BFB90614CE0FC7D00EC2AFA98
:1092FD00ED3BFB90614DE0FC7D00EC2AFAED3BA2CD
:10930D00E713CA13CAA2E713CA13CA906640EAF05C
:10931D00906152E0FA7B00906153E0FC7D00EC2AF5
:10932D00FAED3BFB906156E0FC7D00EC2AFAED3B3B
:10933D00FB906157E0FC7D00EC2AFAED3BA2E713B0
:10934D00CA13CAA2E713CA13CA906645EAF0906120
:10935D0050E0FA7B00906151E0FC7D00EC2AFAEDC3
:10936D003BFB906154E0FC7D00EC2AFAED3BFB9059
:10937D006155E0FC7D00EC2AFAED3BA2E713CA1320
:10938D00CAA2E713CA13CA906644EAF090610CE0D2
:10939D00FA3395E0FB90612CE0FC3395E0FDEC2A6F
:1093AD00FAED3BA2E713CA13CA906646EAF0906144
:1093BD0004E0FA3395E0FB906105E0FC3395E0FDA8
:1093CD00EC2AFAED3BFB906124E0FC3395E0FDECDB
:1093DD002AFAED3BFB906125E0FC3395E0FDEC2A8C
:1093ED00FAED3BA2E713CA13CAA2E713CA13CA9038
:1093FD006647EAF0906106E0FA3395E0FB9061076D
:10940D00E0FC3395E0FDEC2AFAED3BFB906126E0A4
:10941D00FC3395E0FDEC2AFAED3BFB906127E0FC77
:10942D003395E0FDEC2AFAED3BA2E713CA13CAA26D
:10943D00E713CA13CA906648EAF0906108E0FA3360
:10944D0095E0FB906109E0FC3395E0FDEC2AFAED27
:10945D003BFB906128E0FC3395E0FDEC2AFAED3BF7
:10946D00FB906129E0FC3395E0FDEC2AFAED3BA27F
:10947D00E713CA13CAA2E713CA13CA906649EAF0E2
:10948D0090610AE0FA3395E0FB90610BE0FC3395B7
:10949D00E0FDEC2AFAED3BFB90612AE0FC3395E010
:1094AD00FDEC2AFAED3BFB90612BE0FC3395E0FDE2
:1094BD00EC2AFAED3BA2E713CA13CAA2E713CA13AB
:1094CD00CA90664AEAF090610DE0FA3395E0FB90A0
:1094DD00612DE0FC3395E0FDEC2AFAED3BA2E7139C
:1094ED00CA13CA90664BEAF090610EE0FA3395E02C
:1094FD00FB90612EE0FC3395E0FDEC2AFAED3BA2EA
:10950D00E713CA13CA90664CEAF090610FE0FA3384
:10951D0095E0FB90612FE0FC3395E0FDEC2AFAED30
:10952D003BA2E713CA13CA90664DEAF0906110E0B2
:10953D00FA3395E0FB906130E0FC3395E0FDEC2AC9
:10954D00FAED3BA2E713CA13CA90664EEAF090619A
:10955D005AE0FA7B0090615BE0FC7D00EC2AFAEDAD
:10956D003BFB90615EE0FC7D00EC2AFAED3BFB904D
:10957D00615FE0FC7D00EC2AFAED3BA2E713CA1314
:10958D00CAA2E713CA13CA906650EAF0906158E078
:10959D00FA7B00906159E0FC7D00EC2AFAED3BFB73
:1095AD0090615CE0FC7D00EC2AFAED3BFB90615D87
:1095BD00E0FC7D00EC2AFAED3BA2E713CA13CAA228
:1095CD00E713CA13CAFB90664FEAF09060A0E02043
:1095DD00E30302965F906162E0FA7B00906163E0C5
:1095ED00FC7D00EC2AFAED3BFB906166E0FC7D0012
:1095FD00EC2AFAED3BFB906167E0FC7D00EC2AFA6A
:10960D00ED3BA2E713CA13CAA2E713CA13CA9066A9
:10961D0052EAF090616AE0FA7B0090616BE0FC7DAC
:10962D0000EC2AFAED3BFB90616EE0FC7D00EC2A2C
:10963D00FAED3BFB90616FE0FC7D00EC2AFAED3B0F
:10964D00A2E713CA13CAA2E713CA13CAFB90665442
:10965D00EAF0906170E0906655F0906174E0FAA3C5
:10966D00E0FB20E1030296F5902510E0FA3395E03A
:10967D00FB902511E0FC3395E0FDEAC39CFAEB9DD0
:10968D00FB902514E0FC3395E0FDEC2AFAED3BFB55
:10969D00902515E0FC3395E0FDEAC39CFAEB9D8A1D
:1096AD0004906656ECF0902512E0FA3395E0FB90AD
:1096BD002513E0FC3395E0FDEAC39CFAEB9DFB908E
:1096CD002516E0FC3395E0FDEC2AFAED3BFB9025E9
:1096DD0017E0FC3395E0FDEAC39CFAEB9DFB906629
:1096ED0057EAF0906796E4F00200C5C0188581181E
:1096FD000581780179927A011200B3300D37200C73
:10970D0034906644E090665AF0906640E090665959
:10971D00F0906642E0906658F0906647E090665B88
:10972D00F0906649E090665CF090664FE0FA9066C6
:10973D005FF002985B200D37300C34906645E09059
:10974D00665AF0906641E0906659F0906643E0905D
:10975D006658F0906648E090665BF090664AE0903F
:10976D00665CF0906650E0FA90665FF002985B9050
:10977D006644E0FA7B00906645E0FC7D002AFAED38
:10978D003BFB0ABA00010BEBA2E713CA13CA9066A2
:10979D005AEAF0906640E0FA7B00906641E0FC7D6D
:1097AD00002AFAED3BFB0ABA00010BEBA2E713CA44
:1097BD0013CA906659EAF0906643E0FA906642E06B
:1097CD00FBC0028B82789F79C87A021200B3AA82FD
:1097DD001581906658EAF0906647E0FA3395E0FB04
:1097ED00906648E0FC3395E0FDEC2AFAED3BFB0A70
:1097FD00BA00010BEBA2E713CA13CA90665BEAF03D
:10980D00906649E0FA3395E0FB90664AE0FC3395AB
:10981D00E0FDEC2AFAED3BFB0ABA00010BEBA2E7E7
:10982D0013CA13CA90665CEAF090664FE0FA7B00AB
:10983D00906650E0FC7D002AFAED3BFB0ABA000170
:10984D000BEBA2E713CA13CAFB90665FEAF09066B2
:10985D005AE0FA906659E0FBEAC39B90665DF09082
:10986D00665DE0FA74C1C0E0743FC0E08A8278F1B1
:10987D0079C87A021200B3AA821581158190665DAE
:10988D00EAF0906646E0F58278CE79C97A02120048
:10989D00B3E582FA3395E0FB90665BE0F582C0029A
:1098AD00C00378CE79C97A021200B3AC82D003D04E
:1098BD0002EC3395E0FDEC2AFAED3BFB90665CE0A3
:1098CD00F582C002C00378CE79C97A021200B3AC1A
:1098DD0082D003D002EC3395E0FDEC2AFAED3BFB90
:1098ED0090664BE0F582C002C00378CE79C97A024A
:1098FD001200B3AC82D003D002EC3395E0FDEC2A1C
:10990D00FAED3BFB90664CE0F582C002C00378CEC9
:10991D0079C97A021200B3AC82D003D002EC339530
:10992D00E0FDEC2AFAED3BFB90604DE02323540162
:10993D00FCB40100E433FC604A906658E0FC906092
:10994D0067E0FDECB50500B3E433FD703190606E5A
:10995D00E0FDECB50500B3E433FC601690606DE0FE
:10996D00FC7D00C3EA9CEB64808DF063F08095F084
:10997D0040047A0080027A01EA7003FA80027A01CB
:10998D00EA70047A0080027A01906666EAF09060CF
:10999D004DE023235401FAB40100E433FA604890FA
:1099AD006646E0F58278CE79C97A021200B3AA82B2
:1099BD00906066E0FBEAB50300B3E433FB702390DF
:1099CD00665BE0F58278CE79C97A021200B3AA827D
:1099DD0090606FE0FBEAB50300B3E433FB7003FA6C
:1099ED0080027A01EA70047A0080027A019066673B
:1099FD00EAF0906666E07009906667E07003FA80A1
:109A0D00027A01906668EAF0E0FA90240BE020E318
:109A1D000B90240BE020E4047B0080027B01EB42E1
:109A2D0002906668EAF090665FE0FA90604FE0544D
:109A3D003FFB8A04C3EB64808CF063F08095F0509B
:109A4D0006906655E070047B0080027B019066698C
:109A5D00EBF090604DE0541FFB8A04C3EC64808BE7
:109A6D00F063F08095F0B3E433FC6006906655E04A
:109A7D0070047B0080027B0190666AEBF090665A61
:109A8D00E0FB906659E0FCEBB5040040048C0580CA
:109A9D0007EB2BFEC39CFCFD906655E060109060BB
:109AAD000AE020E2028D0290665EEAF08005906683
:109ABD005EE4F0906088E05401FA906089E0540112
:109ACD00FCE4CC25E0CC33FDEC24FFF582ED34FF36
:109ADD00F5837C00C002C003C004127D9FAB82AC35
:109AED008315811581900050E0C423540390A0FC90
:109AFD0093FD3395E0FEC005C0068B828C83127DED
:109B0D009FAB82AC8315811581D0027D00C003C04F
:109B1D00048A828D83127D9FAA82AB831581158164
:109B2D0090666DEAF0A3EBF0906088A81808E0034A
:109B3D005401F6906089E0035401FDE4CD25E0CD9C
:109B4D0033FE1DBDFF011E906646E0FF3395E0FC20
:109B5D00C002C003C007C0048D828E83127D9FACEE
:109B6D0082AD8315811581900050E003540390A1BF
:109B7D000093FE3395E0FFC006C0078C828D8312E3
:109B8D007D9FAC82AD8315811581A8180886067F4F
:109B9D0000C004C0058E828F83127D9FAC82AD8381
:109BAD0015811581D003D002EC2AFAED3BFB9066AE
:109BBD006DEAF0A3EBF0906088A81808E003035459
:109BCD0001F6906089E003035401FDE4CD25E0CD5D
:109BDD0033FE1DBDFF011E90665BE0FF3395E0FC7B
:109BED00C002C003C007C0048D828E83127D9FAC5E
:109BFD0082AD8315811581900050E0540190A10430
:109C0D0093FE3395E0FFC006C0078C828D83127DD5
:109C1D009FAC82AD8315811581A8180886067F003B
:109C2D00C004C0058E828F83127D9FAC82AD8315DB
:109C3D00811581D003D002EC2AFAED3BFB90666DC5
:109C4D00EAF0A3EBF0906088A81808E0C423540153
:109C5D00F6906089E0C4235401FDE4CD25E0CD33B9
:109C6D00FE1DBDFF011E90665CE0FF3395E0FCC05C
:109C7D0002C003C007C0048D828E83127D9FAC820B
:109C8D00AD8315811581900050E0540190A106938C
:109C9D00FE3395E0FFC006C0078C828D83127D9F39
:109CAD00AC82AD8315811581A8180886067F00C08A
:109CBD0004C0058E828F83127D9FAC82AD8315818A
:109CCD001581D003D002EC2AFAED3BFB90666DEACC
:109CDD00F0A3EBF0906088A81808E0C45401F6904A
:109CED006089E0C45401FDE4CD25E0CD33FE1DBDFA
:109CFD00FF011E90664BE0FF3395E0FCC002C003F0
:109D0D00C007C0048D828E83127D9FAC82AD8315FA
:109D1D00811581900050E0540190A10893FE339578
:109D2D00E0FFC006C0078C828D83127D9FAC82AD93
:109D3D008315811581A8180886067F00C004C0050B
:109D4D008E828F83127D9FAC82AD8315811581D05C
:109D5D0003D002EC2AFAED3BFB90666DEAF0A3EB23
:109D6D00F0906088A81808E0C4035401F69060894B
:109D7D00E0C4035401FDE4CD25E0CD33FE1DBDFF50
:109D8D00011E90664CE0FF3395E0FCC002C003C09D
:109D9D0007C0048D828E83127D9FAC82AD831581A9
:109DAD001581900054E023540190A10A93FE339540
:109DBD00E0FFC006C0078C828D83127D9FAC82AD03
:109DCD008315811581A8180886067F00C004C0057B
:109DDD008E828F83127D9FAC82AD8315811581D0CC
:109DED0003D002EC2AFAED3BFB90666DEAF0A3EB93
:109DFD00F0906088A81808E023235401F69060893C
:109E0D00E023235401FDE4CD25E0CD33FE1DBDFF40
:109E1D00011E90664DE0FF3395E0FCC002C003C00B
:109E2D0007C0048D828E83127D9FAC82AD83158118
:109E3D001581900054E023540190A10A93FE3395AF
:109E4D00E0FFC006C0078C828D83127D9FAC82AD72
:109E5D008315811581A8180886067F00C004C005EA
:109E6D008E828F83127D9FAC82AD8315811581D03B
:109E7D0003D002EC2AFAED3BFB90666DEAF0A3EB02
:109E8D00F0906088A81808E0235401F6906089E0EE
:109E9D00235401FDE4CD25E0CD33FE1DBDFF011E94
:109EAD0090664EE0FF3395E0FCC002C003C007C0D2
:109EBD00048D828E83127D9FAC82AD8315811581B9
:109ECD00900054E023540190A10A93FE3395E0FFD6
:109EDD00C006C0078C828D83127D9FAC82AD831529
:109EED00811581A8180886067F00C004C0058E82E2
:109EFD008F83127D9FAC82AD8315811581D003D0E8
:109F0D0002EC2AFAED3BFB90666DEAF0A3EBF0E470
:109F1D00C0E074FCC0E0E4C0E07404C0E08A828B51
:109F2D0083787279C97A021200B3AA82AB83E58174
:109F3D0024FCF58190666DEAF0A3EBF090666DE080
:109F4D00FAA3E0FB906057E0FC906659E0FDC2D5A6
:109F5D008DF0EC30E704B2D5F404A430D50AF42426
:109F6D0001C5F0F43400C5F0FCAEF0900050E0C433
:109F7D0023540390A0FC93FD3395E0FFC002C00372
:109F8D00C005C0078C828E83127D9FAC82AD831578
:109F9D00811581D003D002EDC4CCC4540F6CCC54C8
:109FAD000FCC6CCC30E30244F0FDEAC39CFAEB9D80
:109FBD00FB9066CAE0FC3395E0FDEAC39CF582EBAD
:109FCD009DF58378E579C97A021200B3AA82AB8335
:109FDD0090666BEAF0A3EBF0851881D0180200C5EE
:109FED00906655E07003FA804D90665FE0FB9060DF
:109FFD004EE05407FC8B05C3ED64808CF063F0805C
:10A00D0095F050047A01802E90604DE0541FFCC3F2
:10A01D00EB64808CF063F08095F050047A0280162A
:10A02D00906668E060047A03800C906669E07004C5
:10A03D007A0480027A05906663EAF00200C59067A3
:10A04D0025E0FABA010280089066F7E0FABA01033A
:10A05D0002A0F990604CE030E30302A0F990604C4F
:10A06D00E020E507906715E0FA600302A0F9906023
:10A07D0047E020E10302A0F9902401E020E50280F1
:10A08D006B78C679887A021200B39000F3E493FAE4
:10A09D00A3E493FB906174EAF0A3EBF078847986E6
:10A0AD007A011200B3906158E0FA7B00906159E09B
:10A0BD00FC7D00EC2AFAED3BFB90615CE0FC7D0041
:10A0CD00EC2AFAED3BFB90615DE0FC7D00EC2AFA99
:10A0DD00ED3BA2E713CA13CAA2E713CA13CA9060D5
:10A0ED00A1EAF078FB79887A021200B30200C50369
:10A0FD00040607030406070305030502030102C056
:10A10D0018E581F5182405F581900228E003035424
:10A11D0007FA53020390605AE003035401FBBB019D
:10A12D0002800302A2C6906038E030E30302A2C6AB
:10A13D00C00278C679887A021200B3D0029000600E
:10A14D00E0C403540190671DF090005CE0035401DE
:10A15D0090671EF0902400E0C4540F90671FF0909C
:10A16D002406E0543FFBE4CBC4CB6BCB54F0CB6B5C
:10A17D00FC902405E0C4540FFD7E009067CDED4B9F
:10A18D00F0EE4CA3F0900058E02323540190672289
:10A19D00F0900058E0C4035401906723F090241010
:10A1AD00E0C45401906724F09066F7E0FB90679A45
:10A1BD00F09066F7E4F0BA0309900060E04420F0F7
:10A1CD00800ABA020790005CE04402F090605AE009
:10A1DD0030E01DD20CC20DEA700B902400E0540F3C
:10A1ED0044C0F08026902400E0540F4480F0801B82
:10A1FD00C20CD20DEA700B902400E0540F4430F0E5
:10A20D008009902400E0540F4420F0902408E4F0DD
:10A21D00A3F090240AE054C0F090240AE054BFF05B
:10A22D00902406E0543F4480F09024077402F0908F
:10A23D002405E0540F4450F0902406E054C0F0780B
:10A24D001779847A021200B378B079B87A021200C5
:10A25D00B3900028E003547F906045F09022307455
:10A26D002BF0A20DE43390005813E092E5F0A20C10
:10A27D00E43390005813E092E6F0900058E054EF6C
:10A28D00F0782379AF7A011200B3902580E0440174
:10A29D00F0906059E054FCF0906058E4F090670E37
:10A2AD00F0A3F09067257401F0906038E04408F059
:10A2BD00902230742BF002A6D890605AE00303541C
:10A2CD0001FABA0102800302A5EF906038E0C423C1
:10A2DD005401FABA0102800302A5EF906038E0C480
:10A2ED005401FABA0102800302A5EF906059E054BF
:10A2FD0003FA30E11A906059E05403FB7A004303EE
:10A30D00FC906058E0FC7D004202ED420380199004
:10A31D006059E05403FD7C00906058E0FE7F0042E0
:10A32D0004EF42058C028D0390670EE0FCA3E0FD67
:10A33D00EAC39CF582EB9DF583C002C00312318800
:10A34D00D003D00290670EEAF0A3EBF09060B0E47A
:10A35D00F09060ACF0A3F0A3F0A3F09060B2E4F045
:10A36D009060A8F0A3F0A3F0A3F09060B1E4F0909A
:10A37D0060E0F0A3F0A3F0A3F09060B3E4F0906080
:10A38D00DCF0A3F0A3F0A3F09060A5E0540FFABAAF
:10A39D00030050047B03800F740CB5020050047C45
:10A3AD000C80028A048C038B021A1A1AEA2A25E001
:10A3BD0024A2FAE434A7FB9000EDE493FCA3E4930C
:10A3CD00FD906174ECF0A3EDF0C002C003788479C8
:10A3DD00867A011200B3D003D002A818087600A81F
:10A3ED001808B60200400302A56DC002C0039060BC
:10A3FD00B0E0FDA81808E675F002A4FEE5F0CE2544
:10A40D00E0CE33CE25E0CE33FFEE2470FAEF3425C7
:10A41D00FB7C00C003C005C006C007C002C003C05E
:10A42D00049060AC75F00078E079A67A011200B363
:10A43D00AA82158115811581D007D006D005D003CC
:10A44D00EA2D9060B0F09060B2E0FAEE2460FEEF7D
:10A45D003425FF7B00C002C006C007C0039060A872
:10A46D0075F00078E079A67A011200B3AB82158100
:10A47D0015811581D002EB2AFA9060B2F0E0FEA8AA
:10A48D001808E6B40100E433D003D002600790252C
:10A49D00F3E0FC80069025F1E0FDFCC002C003EC6A
:10A4AD002E9060B2F09060B1E0FCA81808E675F04F
:10A4BD0002A4FDE5F0CD25E0CD33CD25E0CD33FE75
:10A4CD00ED2474FFEE3425FA7B00C003C004C005F3
:10A4DD00C006C007C002C0039060E075F00078E0D0
:10A4ED0079A67A011200B3AA82158115811581D042
:10A4FD0006D005D004D003EA2C9060B1F09060B383
:10A50D00E0FAED2464FDEE3425FE7B00C002C005AB
:10A51D00C006C0039060DC75F00078E079A67A0182
:10A52D001200B3AB82158115811581D002EB2AFA89
:10A53D009060B3F0E0FEA81808E6B40100E433D053
:10A54D0003D00260079025F2E0FC80069025F0E034
:10A55D00FDFCEC2EFC9060B3F0A818080602A3ECED
:10A56D009060B2E0FCA8180808A6040876000876EA
:10A57D0000087600A8180808E6080808F618181844
:10A58D0076000876000876009060A8E0A3E0FDA3B1
:10A59D00E0FEA3E0FF8D048E058F067F00A818084E
:10A5AD0008EC46F6ED0846F6EE0846F6EF0846F6D8
:10A5BD008A828B83E493FCA3E493FDA3E493FEA32F
:10A5CD00E493FFA8180808C3E69C08E69D08E69EDC
:10A5DD0008E69F500302A3C4906038E054EFF002E8
:10A5ED00A6D8906725E0FABA0102800302A6D8909A
:10A5FD00605AE030E20302A6D8902580E054FEF0C8
:10A60D00906038E054F7F0906038E054EFF09067C8
:10A61D0025E4F0906722E090005813E092E6F09068
:10A62D006723E090005813E092E5F078B079B87A9E
:10A63D00021200B390671DE090006013E092E5F008
:10A64D0090671EE090005C13E092E1F090671FE0D0
:10A65D00902400C454F0F5F0E0540F45F0F09067ED
:10A66D00CDE0FAA3E0FB740F5A902405C454F0F525
:10A67D00F0E0540F45F0F0EBC4CAC4540F6ACA544D
:10A68D000FCA6ACA53023F902406EA543FF5F0E020
:10A69D0054C045F0F0906724E090241013E092E44C
:10A6AD00F090679AE09066F7F075820278097983E9
:10A6BD007A021200B3902230742BF090604CE0209F
:10A6CD00E50978FB79887A021200B3851881D018D4
:10A6DD000200C5C018858118C082C083C0F0E58115
:10A6ED00240BF581A8180886820886830886F0E574
:10A6FD00182404F9127E84F7A3127E8409F7A3129D
:10A70D007E8409F7A3127E8409F7E51824FAF886EA
:10A71D00030886040886028B828C838AF0E5182450
:10A72D0008F8127E84F6A3127E8408F6A3127E84A6
:10A73D0008F6A3127E8408F6E5182404F8E518241B
:10A74D0008F9E726FE09E70836FF09E70836FA0992
:10A75D00E70836FBA8180886820886830886F0EE7F
:10A76D00127D86A3EF127D86A3EA127D86A3EB12DE
:10A77D007D86E5182408F8C3EE96EF0896EA08964C
:10A78D00EB0896500575820180037582008518814E
:10A79D00D0180200C5040000002800000087010049
:10A7AD0000430F000096980000E2F50500CB9A3BA0
:0DA7BD0000E50B5402E876481711A5D4E81A
:020000040000FA
:0500DB009067B8E4F09D
:1014CA007A147B00000000000000000000001ABA35
:1014DA00FF011BEA4B60030214CE2290223374FFF1
:1014EA00F090220BE0547FF075F70175F70122C0E6
:1014FA00E0C082C083C0D075D010C2AF90223374CE
:10150A00F0F0C28DC28C90223374FFF0D2AFD0D0EB
:10151A00D083D082D0E032C0D075D010C2AFC28E94
:10152A00C28FD203D2AFD0D032C0E0C082C083C053
:10153A00D075D010C2AF90223374F2F075C878C259
:10154A00C6D204906033E020E5030215F1200603B9
:10155A000215F19066CCE0FA70030215F1902603A9
:10156A00E020E410902600E0547FF0902601E04449
:10157A0001F08032902609E0FA20E71C90A316E0D9
:10158A005407FABA03028010902600E04480F090D3
:10159A002601E04401F0800E902600E04480F0909D
:1015AA002601E054FEF0902603E020E71C90212655
:1015BA00E020E215906083E04480F0902600E05439
:1015CA007FF0902601E054FEF0906083E04440F002
:1015DA00906083E04402F0902603E04408F09060B3
:1015EA0083E04408F0802D902603E020E0263007AF
:1015FA00239066CCE0FA601C902602E04480F090CA
:10160A006083E04401F0906083E04410F0906083CE
:10161A00E04420F090223374FFF0D2AFD0D0D083D0
:10162A00D082D0E032C0E0C082C083C0D075D01072
:10163A00902233740DF074FFF0D0D0D083D082D0D2
:10164A00E032C0E0C082C083C0D075D010C2AF9073
:10165A0022337403F090201BE030E1089020537489
:10166A0002F0E4F090201BE030E23690205374043C
:10167A00F0E4F090A31BE020E527902007E020E5A6
:10168A0020902200E0FA90E650E0FBEAB5131290AF
:10169A00A34E740EF0740CF07408F0E4F090223645
:1016AA00F090224EE054F7F090224EE054FBF0E026
:1016BA004408F090224EE04404F090223374FFF084
:1016CA00D2AFD0D0D083D082D0E032C0D075D01083
:1016DA00D0D032C0D075D010D0D032C0E0C082C0D5
:1016EA0083C0D075D0107A00C2AF9022337409F04B
:1016FA0090201BE030E010902200E0FB90E650E0E2
:10170A00FCEBB514027A0190201BE0FB54E1700354
:10171A000218B290205374FBF0E4F090662BE0FBC1
:10172A00600B90223374FFF0D2AF0218C5902230BA
:10173A00E0FBBB1A028012BB1D028046BB2F02804F
:10174A0008BB30028003021808902007E0C4035443
:10175A0001FBBB010B9022367401F0D2050218B2CC
:10176A00EA70030218B2902231741AF0902233748C
:10177A00FFF090220BE0547FF075F70175F7010234
:10178A0018B2902007E020E52C902231741AF090CC
:10179A002236E4F0902002E054FBF0902102E0545B
:1017AA00BFF090223374FFF090220BE0547FF07563
:1017BA00F70175F701902007E020E41E902002E06F
:1017CA0054FBF0902002E054FBF0902002E054FB1E
:1017DA00F0902003E054BFF0800E902003E04440D4
:1017EA00F0902002E04404F0902102E00303540147
:1017FA00FABA010280030218B2D2050218B2902086
:10180A0007E020E52A902231741AF0902002E05471
:10181A00FBF0902102E054BFF090223374FFF09065
:10182A00220BE0547FF075F70175F7010218B290A8
:10183A002007E020E41E902002E054FBF0902002F2
:10184A00E054FBF0902002E054FBF0902003E054B7
:10185A00BFF0800E902003E04440F0902002E04464
:10186A0004F0902102E020E22790E604E020E7203D
:10187A00902102E054BFF0902231741DF09022337F
:10188A0074FFF090220BE0547FF075F70175F701B1
:10189A00902102E020E21190E604E0235401FABA12
:1018AA00010690223A7401F0902264E054FEF0E0BE
:1018BA004401F090223374FFF0D2AFD0D0D083D05D
:1018CA0082D0E032C0E0C082C083C0D075D010C2DE
:1018DA00AF9022337402F07A0090202BE030E62396
:1018EA009020577440F0E4F090214CE030E01490DE
:1018FA002102E054BFF0902053E04408F0E054F78E
:10190A00F07A0190202BE030E7189020577480F08D
:10191A00E4F0902003E030E609902002E054FBF066
:10192A007A01EA603890A316E05407FABA041590CF
:10193A0022317403F0902238E0FA431201902238DF
:10194A00EAF080069022317419F090223374FFF085
:10195A0090220BE0547FF075F70175F7019022335E
:10196A0074FFF0D2AFD0D0D083D082D0E032C0E0C2
:10197A00C082C083C0D075D010C2AF902233740B1E
:10198A00F0902620E020E003021A06902644740113
:10199A00F0E4F0A207E433FA9022B4EAF0902002CD
:1019AA00E030E258200724902601E030E54E9026E8
:1019BA0003E04404F0D2079066CCE4F0C20375C891
:1019CA0060C2C69022317428F08031902231E0FA48
:1019DA00BA2910C207902603E054FEF0902603E0CD
:1019EA0054FBF0902231742AF090223374FFF09065
:1019FA00220BE0547FF075F70175F701902143E05F
:101A0A0030E52B90215BE04420F0E054DFF0902693
:101A1A0003E020E719902601E030E612902126E043
:101A2A0020E20B902274E054F7F0E04408F0902290
:101A3A003374FFF090226CE030E60B90226CE05495
:101A4A00BFF0E04440F090226DE054FEF0E0440123
:101A5A00F0D2AFD0D0D083D082D0E032C0E0C08202
:101A6A00C083C0D075D010C2AF9022337405F090F5
:101A7A0026447402F0E4F0A206E433FA9022B4F0A9
:101A8A00902601E020E603021B57300603021B578B
:101A9A00902603E04402F09022317428F0D2069096
:101AAA00A316E05407FABA03028007902636E044E8
:101ABA0080F0906711E4F0753001C20375C860C206
:101ACA00C6902250E054DFF09066CCE4F0902143B7
:101ADA00E054DFF0902143E054BFF09022D8E04474
:101AEA0008F0E054F7F0902603E030E70990260466
:101AFA00E4F0A3F080499067107401F090679CE4C9
:101B0A00F0A3F090A316E05407FABA041090260442
:101B1A00E4F0A3F0902606E4F0A3F08010902604E7
:101B2A00E4F0A37440F0902606E4F0A3F0902602B5
:101B3A00E04440F0E054BFF090600AE054FEF090B8
:101B4A002602E04420F0E054DFF0021C78902601DF
:101B5A00E030E63130062E902603E0C45401FABA8A
:101B6A0001239022317428F0906711E4F0C20375C2
:101B7A00C860C2C6902600E054FBF0902603E054E9
:101B8A00EFF0021C78902601E020E66730066490A8
:101B9A002603E020E45D902231E0FABA2A3AC2062E
:101BAA00902600E054FBF0902603E054EFF09026D4
:101BBA0003E054FDF090A316E05407FABA04199012
:101BCA0067B0E090203713E092E7F09067B1E0FA4F
:101BDA0090210713E092E7F09022317429F09022C5
:101BEA003374FFF090220BE0547FF075F70175F71C
:101BFA0001807B902601E030E6743006719067110F
:101C0A00E4F0C20375C860C2C6902250E054DFF007
:101C1A00902274E054F7F0902600E054FBF09026EE
:101C2A0003E054EFF0902603E054FDF090A316E091
:101C3A005407FABA04199067B0E090203713E0927B
:101C4A00E7F09067B1E0FA90210713E092E7F0908D
:101C5A0067107401F09022317429F090223374FFD6
:101C6A00F090220BE0547FF075F70175F70190228E
:101C7A003374FFF0D2AFD0D0D083D082D0E032C05C
:101C8A00E0C082C083C0D075D010C2AF902102E0FC
:101C9A0054F7F0902233740AF090223AE0600E90E2
:101CAA00223AE4F0902102E04408F08008D2089039
:101CBA002231742CF090223374FFF0D2AFD0D0D0FE
:101CCA0083D082D0E032C025C0E0C0F0C082C08399
:101CDA00C0D075D008C2AF9022337407F0C228C2B0
:101CEA00299067B9E4F0902621E030E108D22890E3
:101CFA0026457402F0902621E030E008D229902689
:101D0A00457401F0902645E4F090260AE0FAA3E033
:101D1A00FB9067C4E0FCA3E0FDEC620AED620BEA0B
:101D2A004B701A902608E0FAA3E0FB9067C6E0FC25
:101D3A00A3E0FDEC620AED620BEA4B607490260A9E
:101D4A00E0FAA3E0FB9067C4EAF0A3EBF090260860
:101D5A00E0FAA3E0FB9067C6EAF0A3EBF090260A4C
:101D6A00E0FAA3E0FB9067C4E0FCA3E0FDEC620AA2
:101D7A00ED620BEA4B701A902608E0FAA3E0FB909A
:101D8A0067C6E0FCA3E0FDEC620AED620BEA4B6079
:101D9A002090260AE0FAA3E0FB9067C4EAF0A3EBDE
:101DAA00F0902608E0FAA3E0FB9067C6EAF0A3EBFE
:101DBA00F02028062029030227EC902603E020E1E0
:101DCA000A902600E020E0030227EC9067C4E0A313
:101DDA00E09067C0F09067C4E0FAA3E09067C1EAB8
:101DEA00F09067C6E0A3E09067C2F09067C6E0FA99
:101DFA00A3E0FB9067C3EAF0A206E4339022B6F0B0
:101E0A00A20AE433FA9022B7F0D2AF9067BAE4F0AC
:101E1A009067BFF03029069067C87401F0200A0A5B
:101E2A00902600E020E003021F34753001202803C9
:101E3A00021F34300A3B9067C1E0FA530A30BA30C5
:101E4A0002804E9067C1E0FA530A0CBA0C02804134
:101E5A009067C1E0FA530A03BA030280349067C458
:101E6A00E0FAA3E0FBEA54C07005EB54F360028089
:101E7A0020200A3C9067C1E0FA543F70149067C072
:101E8A00E0FA540C600B9067C0E0FA530A0CBA08E7
:101E9A001FC20A902604743FF0A3E4F0902602E0E1
:101EAA004420F0E054DFF09060097401F00227EC5E
:101EBA009067C1E0FA543F70719067C0E0FA530A24
:101ECA000CBA0430300A11902604743FF0A3E4F0EF
:101EDA009060097402F0800ED20A902604E4F0A3FE
:101EEA00F0906009E4F0902602E04420F0E054DF2C
:101EFA00F00227EC9067C0E0FA530A0CBA08028095
:101F0A000B9067C0E0FA530A0CBA0C1EC20A90265C
:101F1A00047415F0A3E4F0902602E04420F0E054A3
:101F2A00DFF0906009E4F00227EC2006030220703B
:101F3A0090A316E05407FAC374818AF063F080957F
:101F4A00F050030220709067C0E0FA54E0702890C5
:101F5A0067C4E0FAA3E0FBEA54C07005EB541360CF
:101F6A000280459067C6E0FAA3E0FBEA54C0700518
:101F7A00EB541F600280319067C0E0FA530AE0BA5E
:101F8A00E02F9067C4E0FAA3E0FBEA54C07005EBC7
:101F9A005413600280129067C6E0FAA3E0FBEA5489
:101FAA00C07005EB54DF60099067BA7403F002262B
:101FBA002D9067C0E0FA54E060169067C0E0FA53CB
:101FCA000AE0BAE00280099067BA7402F002262D8C
:101FDA009067C0E0FA530AE0BAE00A90600AE04467
:101FEA0001F00227EC9067C0E00303543FFA530A5A
:101FFA00039067BEEAF0EA60129067C1E0FA543FC4
:10200A0060099067BA741AF002262D9067C1E0FA47
:10201A00530A3F9067BEEAF074035AFBBB0306906B
:10202A0067BA7411F0740C5AFBBB0C159067BAE0CE
:10203A00FB70089067BA7413F080069067BA741040
:10204A00F0530A30BA30159067BAE0FA7008906710
:10205A00BA7415F080069067BA7410F09067BAE007
:10206A00FA600302262D200606200A030227EC2026
:10207A0028030227EC9067C2E0FA30E7030227EC54
:10208A009067C2E0FA30E61690A316E05407FAC346
:10209A0074818AF063F08095F040030227EC90A3E4
:1020AA0016E05407FABA04289067C0E0C4540FFA3D
:1020BA00530A039067BEEAF0EA30E0089067BE74FC
:1020CA0004F0803DEA30E1399067BE7405F0803152
:1020DA00906710E0FA601A902603E020E713902137
:1020EA0026E020E207902601E020E6F2906710E45D
:1020FA00F09067C0E00303543FFA9067BE74035A36
:10210A00F09067BEE0FA70030221ED9067A4E0FB4D
:10211A0060030221E7EA2AFA24B0F582E434E6F5FC
:10212A0083E0902634F0EA24B0FAE434E6FB8A82AB
:10213A008B83A3E0902635F0902634E0C4540FFA3E
:10214A0090600FE0540FFBEAB50B0040089067B9A6
:10215A007420F08016902634E054F070089067B925
:10216A007430F080069067B97410F0902635E0C498
:10217A00540FFA90600EE0540FFBEAB50B00400AC8
:10218A009067B9E0FA4408F0801A902635E054F0D6
:10219A00700A9067B9E0FA440CF080089067B9E0D9
:1021AA00FA4404F0902635E0540FFA90600FE0C428
:1021BA00540FFBEAB50B00400A9067B9E0FA4402F3
:1021CA00F0801A902635E0540F700A9067B9E0FA49
:1021DA004403F080089067B9E0FA4401F0753000D2
:1021EA0002262D9067C1E0FA530A3F9067BEEAF0D3
:1021FA00EA700302262A7B00BB0B00500FEB902BE0
:10220A000393FCEAB50C0280030B80ECBB0B004085
:10221A0025100A028017902604743FF0A3E4F09078
:10222A002602E04420F0E054DFF00227EC9067BA7F
:10223A00741AF002262DE4BA050104FB7017BA0AD3
:10224A0002800ABA1402801DBA282080109067BF43
:10225A007401F080169067BF7401F0800E9067BF1A
:10226A007402F080069067BF7402F09067A4E0FCE5
:10227A0060030224D0E53070030224D0902635E0B2
:10228A00C4540FFC90600EE0540FFDECB50D0092A3
:10229A0028B39217902635E0C4540FFCB40100927B
:1022AA0018902635E0540FFC90600FE0C4540FFDDF
:1022BA00ECB50D009228B39219902635E0540FFC24
:1022CA00B40100921A902634E0C4540FFC90600FB7
:1022DA00E0540FFDECB50D009228B3921B90263402
:1022EA00E0C4540FFCB40100921CBA010302242971
:1022FA00BA02030223EFBA04030223CEEB7043BAF5
:10230A0008030223ADBA0A028019BA100302249AFA
:10231A00BA1402806DBA2003022462BA28028041EC
:10232A000224D03019030224D0902635E0540FFA43
:10233A000A902635EA540FF5F0E054F045F0F00221
:10234A0024D0301A030224D0902635E0540FFA1A0A
:10235A00902635EA540FF5F0E054F045F0F00224E7
:10236A00D0301B030224D0902634E0C4540FFA0A5A
:10237A00902634EAC454F0F5F0E0540F45F0F00228
:10238A0024D0301C030224D0902634E0C4540FFA1F
:10239A001A902634EAC454F0F5F0E0540F45F0F0F0
:1023AA000224D03017030224D0902635E0C4540FFB
:1023BA00FA0A902635EAC454F0F5F0E0540F45F0D5
:1023CA00F00224D03018030224D0902635E0C454F9
:1023DA000FFA1A902635EAC454F0F5F0E0540F4586
:1023EA00F0F00224D03019030224D02018189026C5
:1023FA0035E0C4540FFA1A902635EAC454F0F5F0C1
:10240A00E0540F45F0F0902635E0540FFA0A902672
:10241A0035EA540FF5F0E054F045F0F00224D030DC
:10242A001A030224D0201718902635E0C4540FFA54
:10243A000A902635EAC454F0F5F0E0540F45F0F05E
:10244A00902635E0540FFA1A902635EA540FF5F023
:10245A00E054F045F0F0806E201B6B902634E0C407
:10246A00540FFA0A902634EAC454F0F5F0E0540FF7
:10247A0045F0F0201850902635E0C4540FFA1A900F
:10248A002635EAC454F0F5F0E0540F45F0F08036F2
:10249A00201C33902634E0C4540FFA1A902634EAEA
:1024AA00C454F0F5F0E0540F45F0F02017189026C8
:1024BA0035E0C4540FFA0A902635EAC454F0F5F010
:1024CA00E0540F45F0F0902635E0C4540FFA9060BE
:1024DA000EE0540FFBEAB50B009228B39217902630
:1024EA0035E0C4540FFAB401009218902635E0542E
:1024FA000FFA90600FE0C4540FFBEAB50B00922864
:10250A00B39219902635E0540FFAB40100921A904A
:10251A002634E0C4540FFA90600FE0540FFBEAB57A
:10252A000B009228B3921B902634E0C4540FFAB4DD
:10253A000100921C9067C1E0C4540FFA530A039039
:10254A0067BCEAF09067C1E00303543FFB530B03F7
:10255A009067BBEBF09067C1E0FC530C039067BD3A
:10256A00ECF0BA0113301C089067B97430F0801C83
:10257A009067B97410F08014BA0211301B08906782
:10258A00B97420F080069067B97410F09067BFE0C4
