:020000040001F9
:10800000AA82AB837C00BC0800502AEC2CFDFE90B9
:1080100083DF93CEA393FFED9083EF93CDA393F8EB
:10802000EA5205EB5200EEB50508EFB50004758283
:1080300001220C80D175820022C018E581F5182438
:1080400008F581E5182404F87600087600E5182480
:1080500006F87600900030E00354079083FF939079
:10806000661DF0900034E00303543F90661EF090CC
:108070000034E003540190661FF078EB79897A02AE
:108080001200B3AD829022B6EDF0906008E0FEBE23
:1080900001047E0880027E01A818080876BC0876D4
:1080A000029022B5EEF030165CED6009906614E0A7
:1080B0002401F08009906614E014906614F0906634
:1080C00014E0FC700CFD90E643E0FF906614F08035
:1080D00034C00690E643E0FFE4CF25E0CF33FE7ADC
:1080E00000C3EC9FEA64808EF063F08095F0D006C8
:1080F000400D7D0190E643E0FA906614F08006752D
:108100008201028224BD0111C006785C798A7A025C
:108110001200B3AA82D0068011C0067803798B7A48
:10812000021200B3AB82D0068B02EA600302821D0A
:10813000C006788779837A011200B3D00630160A18
:10814000E5182406F8760102821DC00678EB7989CD
:108150007A021200B3AA82D0068A059022B6EDF008
:10816000A81808E6B505028011A81808A605BE08DB
:10817000047E028005BE02027E01E5182404F80890
:10818000E618C625E0C63308F68D027B00E5182404
:1081900004F8EA46F6EB0846F6E5182404F8E51874
:1081A0002407F9E6F70809E6F77C00BC0800503B15
:1081B000C006EC2CFFFE9083DF93CEA393FAEFFB77
:1081C0009083EF93CBA393FFE5182407F8E65203BF
:1081D00008E65207EEB50306EAB507028004D006AA
:1081E0008006D0067A0180050C80C07A00EA601013
:1081F000E5182406F87601906006E04408F0801D3A
:1082000090E649E020E00AA818080816B6FF020820
:1082100016A8180808E6084660030280A1E518249D
:1082200006F88682851881D0180200C5A20EE433B4
:10823000FA902230740FF0900228E003035407FBF9
:10824000530304E4BB000104FB906006E054F7F024
:10825000906001E054FDF090E60AE003035401FC55
:10826000BC0102800A906003E05401FCBC0144EAB6
:108270002AFC24AAFDE43465FEEB2DF582E43EF5EC
:1082800083E090661EF0EC24B2FDE43465FEEB2D35
:10829000F582E43EF583E0906620F0EC24A2FCE455
:1082A0003465FDEB2CF582E43DF583E0FC90661F20
:1082B000F0801290661E7431F09066207405F09084
:1082C000661F7401F0906620E09083FF9390661D16
:1082D000F0C002C003788779837A011200B3D0031B
:1082E000D002906008E0600302837490E60AE030F8
:1082F000E203028374C002C003783979807A0112E4
:1083000000B3AC82D003D002906005EC13E092E1A0
:10831000F0900030E0035407FCEA2433FDE43466B7
:10832000FEEC9083FF938D828E83F0EA2AFA24AAD2
:10833000FCE43465FDEB2CFCE43DFD90661EE08C16
:10834000828D83F0EA24B2FCE43465FDEB2CFCE47E
:108350003DFD906620E0FE8C828D83F0EA24A2FA37
:10836000E43465FCEB2AFBE43CFD90661FE0FA8BED
:10837000828D83F0906001E04402F090E643E0FAE1
:10838000906614F00200C590661EE090003425E06F
:1083900025E054FCF5F0E0540345F0F090661FE052
:1083A00090003413E092E1F090661DE0FAC313628E
:1083B00002906620EAF0900030EA2A540EF5F0E0D0
:1083C00054F145F0F0900034E04401F0786479B95C
:1083D0007A021200B3900034E054FEF00200C505AA
:1083E000000A003300CC00C701380E0F0FF0F00F69
:1083F000000F00FF00FF00FF0FFF0FFFFFFFFF0058
:1084000001030207060405C018858118058105814E
:108410009061707401F09066F7E0FABA0102800B87
:1084200090E607E0035401FABA0106200803028C23
:108430003C9060A2E4F09060A3F0906799E0FA901D
:108440006174E0FBA3E0FCEB20E00302853990605F
:10845000A27401F0902163E0547FF090240CE0546A
:108460007FF0902102E04480F0E0547FF0C0027879
:108470006479B97A021200B3902403E054BFF07516
:108480008E07902410E04404F0E054FBF0758E0059
:108490009022D0E04480F09022D4E04480F09022FA
:1084A000D0E0547FF09022D4E0547FF078A7798C0C
:1084B0007A011200B3D0029060A27402F09060A022
:1084C000E030E175C002780779847A021200B37552
:1084D0008200783179847A021200B3758210783183
:1084E00079847A021200B3758212783179847A0223
:1084F0001200B3D00290049CE0541FFB900498E05B
:10850000541FFC2BFB9067C1F0900498E020E50716
:108510009067C174402BF090089CE0541FFB9008BA
:1085200098E0541FFC2BFB9067C2F0900898E02065
:10853000E5079067C274402BF0906174E0FBA3E004
:10854000FCEB30E12A9060A27403F0C00274FFC01B
:10855000E090000078FF798F7A011200B31581D086
:1085600002902163E04480F090240CE04480F0907D
:108570006174E0FBA3E0FCEB20E2030286939060D1
:10858000A27404F0758201C002785879957A0112BC
:1085900000B37582007844798C7A011200B3D0025E
:1085A000906174E0FBA3E0FCEB30E51B9060A274EB
:1085B00005F0C002E4C0E0900A0178FF798F7A01EB
:1085C0001200B31581D002758BF0758DD8D28EC292
:1085D000039060A27406F0C0027401C0E0900A012A
:1085E00078FF798F7A011200B31581D0029066610D
:1085F000E0FBB50202806E9060A27408F0EBFC33E1
:1086000095E0FDEC24FEFEED34FFFFA81808A6025D
:10861000EA3395E008F6A81808C3E69E08E66480E9
:108620008FF063F08095F050040A0A802074022CC9
:10863000FCE43DFDA81808C3EC96ED64800886F0C4
:1086400063F08095F050041A1A80028B02906662E3
:10865000E0FBC002C0038A82121CF51581D0022003
:1086600003030285D130030F9060A3E0FA430202B6
:108670009060A3EAF0C203C28EC28F758200783187
:1086800079847A021200B3758210783179847A0283
:108690001200B3906174E0FAA3E0FBEA20E4030265
:1086A00088569060A2740AF0902401E054FDF09086
:1086B0002401E054FEF0906174E0FAA3E0FBEA309C
:1086C000E53A9060A2740BF0758201785879957A3A
:1086D000011200B37582007844798C7A011200B3DC
:1086E00090240BE04480F0E054BFF0E4C0E0900A36
:1086F0000178FF798F7A011200B31581906174E0DF
:10870000FAA3E0FBEA30E6499060A2740CF020275F
:1087100018758201785879957A011200B375820034
:108720007844798C7A011200B390240BE04480F0F5
:10873000E054BFF0902402E04408F0E054FBF074F1
:1087400002C0E0900A0178FF798F7A011200B31518
:1087500081906174E0FAA3E0FBEA30E7609060A2E8
:10876000740DF0202718758200785879957A0112D7
:1087700000B37582027844798C7A011200B3902498
:108780000BE04480F0E054BFF0902402E04408F095
:10879000E054FBF03008147402C0E090000078FF51
:1087A000798F7A011200B3158180127402C0E090B3
:1087B000030278FF798F7A011200B31581906174FA
:1087C000E0FAA3E0FB20E0030288569060A2740E5A
:1087D000F0202718758200785879957A011200B335
:1087E0007582027844798C7A011200B390240BE0F0
:1087F000547FF090240BE054BFF0902402E054F733
:10880000F0902402E054FBF0906715E0FA601474D5
:1088100004C0E090020478FF798F7A011200B3154A
:108820008180127402C0E090020478FF798F7A018F
:108830001200B31581780779847A021200B3758229
:1088400010783179847A021200B375820078317918
:10885000847A021200B3906174E0FAA3E0FB20E195
:10886000030289309060A27410F0902401E054FD5E
:10887000F0902401E054FEF09060A27411F0902476
:108880000BE0547FF0E04440F0902402E054F7F015
:10889000E04404F07403C0E0900A0178FF798F7A15
:1088A000011200B315819060A27412F090240BE0C5
:1088B000547FF090240BE054BFF0902402E054F772
:1088C000F0902402E054FBF07403C0E090030278BF
:1088D000FF798F7A011200B315819060A27413F0B2
:1088E00090049CE0541FFA900498E0541FFB2AFA6D
:1088F0009067C1F0900498E020E5079067C174404C
:108900002AF090089CE0541FFA900898E0541FFB4E
:108910002AFA9067C2F0900898E020E5079067C2B5
:1089200074402AF0758212783179847A021200B389
:10893000906174E0FAA3E0FB20E2030289BD90603D
:10894000A27414F0758200785879957A011200B3F8
:108950007582027844798C7A011200B39060A27417
:1089600015F0902401E04402F090240BE04480F0E4
:10897000E054BFF0E4C0E090080278FF798F7A01FC
:108980001200B315819060A27416F090240BE0548D
:108990007FF090240BE054BFF0E4C0E09004047832
:1089A000FF798F7A011200B31581758201783179D0
:1089B000847A021200B3902401E054FDF0906174B7
:1089C000E0FAA3E0FB20E403028B649060A2741839
:1089D000F0202718758200785879957A011200B333
:1089E0007582027844798C7A011200B3902404E0F5
:1089F00054BFF0902401E04401F07A007B007582BE
:108A000002C002C00378F979827A021200B3D0035F
:108A1000D0029060A27419F090240BE04480F0E042
:108A200054BFF020271BC002C003E4C0E0900A023C
:108A300078FF798F7A011200B31581D003D00280BC
:108A400019C002C003E4C0E090080278FF798F7A71
:108A5000011200B31581D003D0029060A2741AF005
:108A600090240BE0547FF0E04440F020271BC0022C
:108A7000C003E4C0E090080478FF798F7A01120007
:108A8000B31581D003D0028019C002C003E4C0E056
:108A900090060478FF798F7A011200B31581D00314
:108AA000D0029060A2741CF0EB7016758202C002B6
:108AB000C003783179847A021200B3D003D00280E7
:108AC0002DEA7016758203C002C003783179847A6A
:108AD000021200B3D003D0028014758204C002C019
:108AE00003783179847A021200B3D003D002906007
:108AF000A2741BF09060A0E030E35BEB701F7B0181
:108B0000906661E0FCC002C003906700E0C0E08CAA
:108B100082121CF51581D003D0020289FEEA701F73
:108B20007A01906661E0FCC002C003906702E0C079
:108B3000E08C82121CF51581D003D0020289FE90D0
:108B40006701E0FA906662F0906661E0FBC0028B1C
:108B500082121CF51581902401E054FEF09024044B
:108B6000E04440F0906174E0FAA3E0FB20E60302E9
:108B70008C1390604FE030E603028C139060A27477
:108B800021F0902580E04401F090605AE020E2203E
:108B900075820178F979827A021200B3782F798F81
:108BA0007A011200B3787479827A021200B3800FCE
:108BB000906039E0F582787479827A021200B3907D
:108BC00060A27422F0902580E04404F0E054FBF0B1
:108BD00090605AE030E21474FFC0E090200878FF03
:108BE000798F7A011200B31581801274FFC0E09072
:108BF0000A0578FF798F7A011200B315819060A27F
:108C00007423F0781079937A011200B3AA829061EC
:108C100070EAF090605AE020E21C2008199060A2EF
:108C20007424F075820178F979827A021200B39087
:108C30002580E054FEF09060A27425F0851881D064
:108C4000180200C5AA82BA00028005BA012D801759
:108C5000902405E04408F0902405E04401F09024BD
:108C600005E04402F0803D902405E04408F0E05423
:108C7000FEF0902405E054FDF08029902405E05496
:108C8000F7F0902400E0C4540FFABA0F09902405BD
:108C9000E054FDF08007902405E04402F0902405A4
:108CA000E054FEF00200C5902403E04420F0E054BC
:108CB000DFF0E04402F0902403E054FDF0E04401D2
:108CC000F0E054FEF0758B9C758DFFD28EC20320B0
:108CD000031790240BE030E5F6786479B97A021234
:108CE00000B390240BE030E5E60200C5AA82906054
:108CF00016E0FB900224C4235460F5F0E0549F4535
:108D0000F0F0BA01028003028DBE902403E04440DB
:108D1000F09061B8E0902438547FF5F0E05480453D
:108D2000F0F09061B9E0902439547FF5F0E0548080
:108D300045F0F09061BAE090243A547FF5F0E054A9
:108D40008045F0F09061BBE090243B547FF5F0E06B
:108D5000548045F0F09061BCE090243C547FF5F0E5
:108D6000E0548045F0F09061BDE090243D547FF5E3
:108D7000F0E0548045F0F09061BEE090243E547FD6
:108D8000F5F0E0548045F0F09061BFE090243F544E
:108D90007FF5F0E0548045F0F09067C1E090253019
:108DA000547FF5F0E0548045F0F09067C2E0FA900F
:108DB0002531547FF5F0E0548045F0F08007902491
:108DC00003E054BFF0902403E04420F0E054DFF0CF
:108DD000758B9C758DFFD28EC20320031590240BDA
:108DE000E0C4035401FA90240BE0C4035401FB5A7D
:108DF00060E80200C59066F7E0FA6003028F2C7409
:108E000040C0E0E4C0E07480C0E07424C0E0E4C08E
:108E1000E090244075F00078D779BA7A021200B356
:108E2000E58124FBF5819024C0E0547F90243854E0
:108E30007FF5F0E0548045F0F09024C1E0547F903D
:108E40002439547FF5F0E0548045F0F09024C2E0DE
:108E5000547F90243A547FF5F0E0548045F0F09030
:108E600024C3E0547F90243B547FF5F0E0548045C8
:108E7000F0F09024C4E0547F90243C547FF5F0E05F
:108E8000548045F0F09024C5E0547F90243D547FF9
:108E9000F5F0E0548045F0F09024C6E0547F902433
:108EA0003E547FF5F0E0548045F0F09024C7E05444
:108EB0007F90243F547FF5F0E0548045F0F090041B
:108EC0009CE0541FFA900498E0541FFB2AFA906724
:108ED000C1F0900498E020E5079067C174402AF043
:108EE00090089CE0541FFA900898E0541FFB2AFA5F
:108EF0009067C2F0900898E020E5079067C2744040
:108F00002AF09067C1E0902530547FF5F0E054805E
:108F100045F0F09067C2E0FA902531547FF5F0E01B
:108F2000548045F0F0902403E04440F00200C590E6
:108F30006158E0FA906159E0FBC0038A82789A791F
:108F4000B97A021200B3AB8215818B0290615AE0AC
:108F5000FBC0038A82789A79B97A021200B3AB8295
:108F600015818B0290615BE0FBC0038A82789A795D
:108F7000B97A021200B3AB8215818B0290615CE07A
:108F8000FBC0038A82789A79B97A021200B3AB8265
:108F900015818B0290615DE0FBC0038A82789A792B
:108FA000B97A021200B3AB8215818B0290615EE048
:108FB000FBC0038A82789A79B97A021200B3AB8235
:108FC00015818B0290615FE0FBC0038A82789A79F9
:108FD000B97A021200B3AB8215818B0290E6AFE042
:108FE000C4540FFB8BF005F0EA8002C313D5F0FBED
:108FF000FA90E6AFE0540FFB2AFAF5820200C5C0F2
:1090000018858118AA82AB83906038E0232354012D
:10901000FCBC010280119066F7E0FCBC01028007F5
:10902000902411E020E10302923690604FE030E797
:109030001C902405E0540FF0902406E054C0F090FA
:109040002406E0543FF0902407E4F0804A8B047437
:109050000F5C902405C454F0F5F0E0540F45F0F097
:10906000ECC4540FFC53043F902406EC543FF5F03D
:10907000E054C045F0F074035AFB902406030354F7
:10908000C0F5F0E0543F45F0F0EA0303543FFA53D3
:10909000023F902407EAF0E51824FCF8B6010280AC
:1090A0001EE51824FCF8B602028030E51824FCF80E
:1090B000B60302803FE51824FCF8B60466804B90A6
:1090C000240874FFF090240974FFF090240AE054FF
:1090D000C0F090240AE054BFF0806190240874FF2F
:1090E000F090240974FFF090240AE0443FF0E0542B
:1090F000BFF08048902408E4F0902409F090240AFE
:10910000E054C0F0E04440F0803290240874FDF058
:1091100090240974FFF090240AE0443FF0E054BF2B
:10912000F080199024087401F0902409E4F0902450
:109130000AE054C0F090240AE054BFF0E51824FC83
:10914000F8B6FF02804D9060A0E030E21B9024084A
:10915000E0FA530201902408EAF0902409E4F09028
:10916000240AE054C0F0802B9060A4E030E5079022
:10917000240AE054C0F09060A4E030E41690240883
:10918000E0FAA3E0FB530255530355902408EAF09C
:10919000A3EBF0900264E0C4235403FABA02028005
:1091A0000D902408E0FA5302FD902408EAF0902480
:1091B00002E054FEF0E04401F0786479B97A0212DA
:1091C00000B3906098E020E44830080C758BF87587
:1091D0008DFFD28EC203800A758B18758DFCD28EDE
:1091E000C203902402E020E1033003F6902402E061
:1091F00054FEF03003159060A3E0FA430201906042
:10920000A3EAF0C20390679B7401F0C28EC28F8004
:109210000E902402E030E1F9902402E054FEF09038
:109220002408E4F0902409F090240AE054C0F0905F
:10923000240AE054BFF0D0180200C5900228E003D1
:10924000035407FA5302039060A4E054EFF09067D0
:10925000967420F09060A4E054DFF0BA03139024D9
:1092600002E0547FF0E04440F09067957408F0808D
:109270004EBA0213902402E04480F0E054BFF09014
:1092800067957404F08038BA0121902402E0547F7D
:10929000F0E04440F09067957402F09060A4E044E0
:1092A00010F09060A4E04420F08014902402E04488
:1092B00080F0902402E04440F09067957401F090B3
:1092C0000228E003035407FB30E20B906795E0258A
:1092D000E0FB906795F09066F7E0FB700D90679566
:1092E000E0C42354E0FB906796F0EA7010902402EB
:1092F000E04420F09060A4E054F0F080109024024C
:10930000E054DFF09060A4E054F04405F00200C5A2
:10931000C018E581F5182408F581902560E0FAA3CE
:10932000E0FBA3E0FCA3E0FDE5182405F8A6020895
:10933000A60308A60408A605902564E0FEA3E0FFA6
:10934000A3E0FAA3E0FBC006C007C002C003E51813
:109350002405F886820886830886F008E678007976
:10936000807A021200B3AA82AB83ACF0FDE58124BF
:10937000FCF581E5182405F8A60208A60308A60452
:1093800008A605902568E0FAA3E0FBA3E0FCA3E0B3
:10939000FDC002C003C004C005E5182405F886829C
:1093A0000886830886F008E6780079807A02120041
:1093B000B3AA82AB83ACF0FDE58124FCF581E5180E
:1093C0002405F8A60208A60308A60408A605902509
:1093D0006CE0FAA3E0FBA3E0FCA3E0FDC002C00345
:1093E000C004C005E5182405F8868208868308862F
:1093F000F008E6780079807A021200B3AA82AB8383
:10940000ACF0FDE58124FCF581E5182405F8A60201
:1094100008A60308A60408A605902570E0FAA3E0B4
:10942000FBA3E0FCA3E0FDA81808A60208A6030819
:10943000A60408A605902574E0FEA3E0FFA3E0FAC9
:10944000A3E0FBC006C007C002C003A818088682BC
:109450000886830886F008E6780079807A02120090
:10946000B3AA82AB83ACF0FDE58124FCF581A8189A
:1094700008A60208A60308A60408A605902578E019
:10948000FAA3E0FBA3E0FCA3E0FDC002C003C0041C
:10949000C005A8180886820886830886F008E67842
:1094A0000079807A021200B3AA82AB83ACF0FDE5AA
:1094B0008124FCF581A81808A60208A60308A604C2
:1094C00008A60590257CE0FAA3E0FBA3E0FCA3E05E
:1094D000FDC002C003C004C005A818088682088623
:1094E000830886F008E6780079807A021200B3AA31
:1094F00082AB83ACF0FDE58124FCF581A81808A6B9
:109500000208A60308A60408A60590E6AEE0FAE461
:10951000FBFCFDE5182405F8C3E69A08E69B08E67F
:109520009C08E69D5005758200802590E6ACE0FA27
:10953000A3E0FB7C007D00A81808C3EA96EB089620
:10954000EC0896ED0896500575820080037582013F
:08955000851881D0180200C546
:020000040000FA
:1000DE00D315D3111003D77590550040000280013F
:0C00EE000010D3019300D755D305330058
:020000040001F9
:10955800AA82300C07200D047B0C8013200C0730E6
:109568000D047B038009BA01047B0C80027B0F90F9
:1095780060A4E0540FF4FA5203902400EBC454F0B2
:10958800F5F0E0540F45F0F00200C5902402E054D5
:10959800EFF0900054E04408F0900054E04404F0E8
:1095A800900054E04402F0900054E04401F0900030
:1095B80058E04480F0902401E04404F0902418E03E
:1095C80054EFF0902418E054DFF0902405E054FEA6
:1095D800F0902405E054F7F0302710902400E05470
:1095E8000F44C0F0902405E04402F00200C590E664
:1095F80007E030E2030296B6902401E030E503026A
:1096080096B69066F7E0FABA01030296B69067BE7E
:10961800E0FABA01030296B690604CE020E40790A5
:10962800604CE030E3030296B6902406E0543F44D1
:1096380080F09024077405F075820178F979827AB0
:10964800021200B3785B79887A021200B39024087A
:10965800E0FA5302FD902408EAF090240AE044401E
:10966800F0902405E054FDF0902405E054FEF090BD
:109678002405E054F7F0D20DD20C902400E0540FEA
:1096880044C0F0902401E04420F0902402E054FE0D
:10969800F0E04401F090604EE030E712902401E0E1
:1096A80054FBF0E04410F0902401E04401F0020083
:1096B800C5902401E0C4035401FABA0126758B1839
:1096C800758DFCD28EC203902401E054DFF0902403
:1096D80002E020E1033003F6902402E054FEF0C2D9
:1096E8008EC28F0200C590604CE020E4030297CF41
:1096F80090604CE030E3030297CF90604CE030E597
:10970800030297CF9066F7E0FA60030297CF90675D
:1097180027E0FA60030297CF90663AE02401F090C0
:10972800663AE0FA7403B5020040030297CF9066E8
:109738003AE4F075820178F979827A021200B378F6
:109748005B79887A021200B3902409E4F090240827
:10975800E0FA53020D902408EAF090240AE044400D
:10976800F0902405E054FDF0902405E054FEF090BC
:109778002405E054F7F0902400E044F0F07404C0AD
:10978800E090101078FF798F7A011200B315817874
:109798005B79887A021200B3902408E0FA5302F049
:1097A800902408EAF090240AE054BFF07404C0E062
:1097B80090100178FF798F7A011200B3158178072C
:1097C80079847A021200B30200C590604CE030E060
:1097D80022900264E030E209900264E054FBF080D9
:1097E8001B900264E04404F078EE79967A01120046
:0F97F800B3800978EE79967A011200B30200C5AA
:020000040002F8
:10800000C018858118AA82AB83ACF0FDE51824F96D
:10801000F8C3E69A08E69B08E69C08E69D50098AA4
:10802000828B838CF0ED800FE51824F9F8868208A6
:1080300086830886F008E6D0180200C5C018E581DE
:10804000F5182408F581902560E0FAA3E0FBA3E091
:10805000FCA3E0FDE5182405F8A60208A60308A67F
:108060000408A605902564E0FEA3E0FFA3E0FAA3C0
:10807000E0FBC006C007C002C003E5182405F8866F
:10808000820886830886F008E6780079807A0212F2
:1080900000B3AA82AB83ACF0FDE58124FCF581E559
:1080A000182405F8A60208A60308A60408A6059049
:1080B0002568E0FAA3E0FBA3E0FCA3E0FDC002C05A
:1080C00003C004C005E5182405F8868208868308E5
:1080D00086F008E6780079807A021200B3AA82ABB3
:1080E00083ACF0FDE58124FCF581E5182405F8A6B4
:1080F0000208A60308A60408A60590256CE0FAA3CA
:10810000E0FBA3E0FCA3E0FDC002C003C004C00587
:10811000E5182405F886820886830886F008E67844
:108120000079807A021200B3AA82AB83ACF0FDE53D
:108130008124FCF581E5182405F8A60208A60308A9
:10814000A60408A605902570E0FAA3E0FBA3E0FCD6
:10815000A3E0FDA81808A60208A60308A60408A61E
:1081600005902574E0FEA3E0FFA3E0FAA3E0FBC0C6
:1081700006C007C002C003A81808868208868308C4
:1081800086F008E6780079807A021200B3AA82AB02
:1081900083ACF0FDE58124FCF581A81808A602084F
:1081A000A60308A60408A605902578E0FAA3E0FB3C
:1081B000A3E0FCA3E0FDC002C003C004C005A818F2
:1081C0000886820886830886F008E6780079807A37
:1081D000021200B3AA82AB83ACF0FDE58124FCF56A
:1081E00081A81808A60208A60308A60408A60590F8
:1081F000257CE0FAA3E0FBA3E0FCA3E0FDC002C005
:1082000003C004C005A8180886820886830886F083
:1082100008E6780079807A021200B3AA82AB83ACB8
:10822000F0FDE58124FCF581A81808A60208A60344
:1082300008A60408A605E5182405F8C3E694640812
:10824000E6940008E6940008E69400500575820064
:10825000801AA81808C3E49674040896E40896E403
:10826000089650057582008003758201851881D0BB
:10827000180200C5AA82902440EA543FF5F0E05469
:10828000C045F0F0902441EA543FF5F0E054C04579
:10829000F0F0902442EA543FF5F0E054C045F0F08D
:1082A000902443EA543FF5F0E054C045F0F09024A8
:1082B00060EA543FF5F0E054C045F0F0902461EAE4
:1082C000543FF5F0E054C045F0F0902462EA543F8A
:1082D000F5F0E054C045F0F0902463EA543FF5F027
:1082E000E054C045F0F0902430740FF0E4F0902496
:1082F00034740FF0E4F00200C5AA82BA01028008CB
:10830000BA0202805F0283FD7440C0E0E4C0E07402
:1083100078C0E07461C0E0E4C0E090244075F000F3
:1083200078D779BA7A021200B3E58124FBF58190FF
:10833000243074FFF0A3F0A3F0A3747FF0902430F6
:10834000E4F0A3F0A3F0A3F090243474FFF0A3F0C2
:10835000A3F0A3747FF0902434E4F0A3F0A3F0A37F
:10836000F00283FD906178E0902440543FF5F0E006
:1083700054C045F0F0906179E0902441543FF5F00D
:10838000E054C045F0F090617AE0902442543FF50B
:10839000F0E054C045F0F090617BE0902443543FFE
:1083A000F5F0E054C045F0F0906198E090246054FE
:1083B0003FF5F0E054C045F0F0906199E090246101
:1083C000543FF5F0E054C045F0F090619AE09024FD
:1083D00062543FF5F0E054C045F0F090619BE0FA44
:1083E000902463543FF5F0E054C045F0F090243001
:1083F000740FF0E4F0902434740FF0E4F090240B48
:10840000E030E5F90200C57440C0E0E4C0E07480EB
:10841000C0E07424C0E0E4C0E090617875F00078BA
:10842000D779BA7A021200B3E58124FBF581020004
:10843000C5AA82BA00028027BA01030284B5BA0233
:10844000030284F9BA030302853DBA04030285815D
:10845000BA10030285C5BA12030285EF0286C890DE
:1084600024D0E0906148F09024D1E0906149F090F0
:1084700024D2E090614AF09024D3E090614BF090D8
:1084800024F0E090614CF09024F1E090614DF09088
:1084900024F2E090614EF09024F3E0FA90614FF006
:1084A00090240BE030E2047A0180027A009061713E
:1084B000EAF00286C89024D0E0906150F09024D178
:1084C000E0906151F09024D2E0906152F09024D37A
:1084D000E0906153F09024F0E0906154F09024F12A
:1084E000E0906155F09024F2E0906156F09024F312
:1084F000E0FA906157F00286C89024D0E09061586D
:10850000F09024D1E0906159F09024D2E090615A2B
:10851000F09024D3E090615BF09024F0E090615CF7
:10852000F09024F1E090615DF09024F2E090615EC3
:10853000F09024F3E0FA90615FF00286C89024D0B6
:10854000E0906160F09024D1E0906161F09024D2DD
:10855000E0906162F09024D3E0906163F09024F0A9
:10856000E0906164F09024F1E0906165F09024F275
:10857000E0906166F09024F3E0FA906167F0028683
:10858000C89024D0E0906168F09024D1E0906169B7
:10859000F09024D2E090616AF09024D3E090616B77
:1085A000F09024F0E090616CF09024F1E090616D27
:1085B000F09024F2E090616EF09024F3E0FA906184
:1085C0006FF00286C87440C0E0E4C0E074D0C0E040
:1085D0007424C0E0E4C0E090610075F00078D779C1
:1085E000BA7A021200B3E58124FBF5810286C890B5
:1085F00024C0E0547F9061B8547FF5F0E05480458A
:10860000F0F09024C1E0547F9061B9547FF5F0E020
:10861000548045F0F09024C2E0547F9061BA547FBA
:10862000F5F0E0548045F0F09024C3E0547F906171
:10863000BB547FF5F0E0548045F0F09024C4E05442
:108640007F9061BC547FF5F0E0548045F0F09024B9
:10865000C5E0547F9061BD547FF5F0E0548045F053
:10866000F09024C6E0547F9061BE547FF5F0E05452
:108670008045F0F09024C7E0547F9061BF547FF5AF
:10868000F0E0548045F0F0902510E0906140F090CB
:108690002511E0906141F0902512E0906142F09048
:1086A0002513E0906143F0902514E0906144F09030
:1086B0002515E0906145F0902516E0906146F09018
:1086C0002517E0FA906147F00200C5AA82BA0002BD
:1086D0008009BA02030287670287F0906148E09040
:1086E0002440543FF5F0E054C045F0F0906149E07B
:1086F000902441543FF5F0E054C045F0F090614AB9
:10870000E0902442543FF5F0E054C045F0F0906111
:108710004BE0902443543FF5F0E054C045F0F09016
:10872000614CE0902460543FF5F0E054C045F0F017
:1087300090614DE0902461543FF5F0E054C045F065
:10874000F090614EE0902462543FF5F0E054C04553
:10875000F0F090614FE0FA902463543FF5F0E0545C
:10876000C045F0F00287F0906158E0902440543FFB
:10877000F5F0E054C045F0F0906159E09024415488
:108780003FF5F0E054C045F0F090615AE09024428B
:10879000543FF5F0E054C045F0F090615BE0902468
:1087A00043543FF5F0E054C045F0F090615CE09038
:1087B0002460543FF5F0E054C045F0F090615DE076
:1087C000902461543FF5F0E054C045F0F090615EB4
:1087D000E0902462543FF5F0E054C045F0F0906121
:1087E0005FE0FA902463543FF5F0E054C045F0F0A8
:1087F000902430740FF0E4F0902434740FF0E4F01F
:1088000090240BE030E5F90200C5E582FA602B9078
:10881000604CE030E010900264E054E7F090020C0D
:10882000E0548FF08026900264E054E74408F09012
:10883000020CE0548F4430F08012900264E054E760
:108840004410F090020CE0548F4420F090000A781D
:108850008A79B57A021200B30200C59060A4E030B4
:10886000E4119024087455F0A3F090240AE054C059
:10887000F0800F90240874FFF0A3F090240AE044E5
:108880003FF0902401E054FDF0902401E054FEF00C
:1088900090240AE054BFF0902402E054F7F09024B2
:1088A00002E054FBF090240BE0547FF090240BE0A6
:0688B00054BFF00200C5F8
:020000040000FA
:1000FA00906099E0FABA1709788279A97A0212000F
:10010A00B3906098E054FEF0902230742BF0227580
:10011A00880575895175A91C75B906D2ABD2ADD2BD
:10012A00A8D2AAC2A975B83F75C878759A3EC20501
:10013A00C206C207C208906711E4F0C209C20AD215
:0D014A0003D204C21DC21E9067A7E4F0227C
:020000040001F9
:10980700906038E0547FF0906098E030E11090600D
:109817009CE0FAA3E0FB906174EAF0A3EBF0906799
:109827009BE4F07A03C002780779847A011200B3C7
:10983700D00290679BE0FB6027906037E0FBBB019D
:10984700109060407401F0906040E0FBBB01028023
:10985700F68A031AC374808BF063F08095F040C5D5
:1098670078A2799D7A011200B3786F79A37A0112F1
:1098770000B3906038E04480F0906658E0FA90605A
:109887004AEAF0906659E0FA906049EAF090665F1C
:10989700E0FA906048EAF090665AE0FA90604BEA86
:1098A700F00200C590614AE0FA90614BE0FBC0020C
:1098B7008B82787179B97A021200B3AB8215818BEA
:1098C7000290614EE0FBC0028B82787179B97A020F
:1098D7001200B3AB8215818B0290614FE0FBC0028F
:1098E7008B82787179B97A021200B3AB82158190B5
:1098F7006643EBF0906148E0FA906149E0FBC002F3
:109907008B82787179B97A021200B3AB8215818B99
:109917000290614CE0FBC0028B82787179B97A02C0
:109927001200B3AB8215818B0290614DE0FBC00240
:109937008B82787179B97A021200B3AA8215819065
:109947006642EAF090614AE0FA7B0090614BE0FCE6
:109957007D00EC2AFAED3BFB90614EE0FC7D00ECCC
:109967002AFAED3BFB90614FE0FC7D00EC2AFAED13
:109977003BA2E713CA13CAA2E713CA13CA906641E8
:10998700EAF0906148E0FA7B00906149E0FC7D00D5
:10999700EC2AFAED3BFB90614CE0FC7D00EC2AFAE7
:1099A700ED3BFB90614DE0FC7D00EC2AFAED3BA21C
:1099B700E713CA13CAA2E713CA13CA906640EAF0AC
:1099C700906152E0FA7B00906153E0FC7D00EC2A45
:1099D700FAED3BFB906156E0FC7D00EC2AFAED3B8B
:1099E700FB906157E0FC7D00EC2AFAED3BA2E71300
:1099F700CA13CAA2E713CA13CA906645EAF0906170
:109A070050E0FA7B00906151E0FC7D00EC2AFAED12
:109A17003BFB906154E0FC7D00EC2AFAED3BFB90A8
:109A27006155E0FC7D00EC2AFAED3BA2E713CA136F
:109A3700CAA2E713CA13CA906644EAF090610CE021
:109A4700FA3395E0FB90612CE0FC3395E0FDEC2ABE
:109A5700FAED3BA2E713CA13CA906646EAF0906193
:109A670004E0FA3395E0FB906105E0FC3395E0FDF7
:109A7700EC2AFAED3BFB906124E0FC3395E0FDEC2A
:109A87002AFAED3BFB906125E0FC3395E0FDEC2ADB
:109A9700FAED3BA2E713CA13CAA2E713CA13CA9087
:109AA7006647EAF0906106E0FA3395E0FB906107BC
:109AB700E0FC3395E0FDEC2AFAED3BFB906126E0F4
:109AC700FC3395E0FDEC2AFAED3BFB906127E0FCC7
:109AD7003395E0FDEC2AFAED3BA2E713CA13CAA2BD
:109AE700E713CA13CA906648EAF0906108E0FA33B0
:109AF70095E0FB906109E0FC3395E0FDEC2AFAED77
:109B07003BFB906128E0FC3395E0FDEC2AFAED3B46
:109B1700FB906129E0FC3395E0FDEC2AFAED3BA2CE
:109B2700E713CA13CAA2E713CA13CA906649EAF031
:109B370090610AE0FA3395E0FB90610BE0FC339506
:109B4700E0FDEC2AFAED3BFB90612AE0FC3395E05F
:109B5700FDEC2AFAED3BFB90612BE0FC3395E0FD31
:109B6700EC2AFAED3BA2E713CA13CAA2E713CA13FA
:109B7700CA90664AEAF090610DE0FA3395E0FB90EF
:109B8700612DE0FC3395E0FDEC2AFAED3BA2E713EB
:109B9700CA13CA90664BEAF090610EE0FA3395E07B
:109BA700FB90612EE0FC3395E0FDEC2AFAED3BA239
:109BB700E713CA13CA90664CEAF090610FE0FA33D4
:109BC70095E0FB90612FE0FC3395E0FDEC2AFAED80
:109BD7003BA2E713CA13CA90664DEAF0906110E002
:109BE700FA3395E0FB906130E0FC3395E0FDEC2A19
:109BF700FAED3BA2E713CA13CA90664EEAF09061EA
:109C07005AE0FA7B0090615BE0FC7D00EC2AFAEDFC
:109C17003BFB90615EE0FC7D00EC2AFAED3BFB909C
:109C2700615FE0FC7D00EC2AFAED3BA2E713CA1363
:109C3700CAA2E713CA13CA906650EAF0906158E0C7
:109C4700FA7B00906159E0FC7D00EC2AFAED3BFBC2
:109C570090615CE0FC7D00EC2AFAED3BFB90615DD6
:109C6700E0FC7D00EC2AFAED3BA2E713CA13CAA277
:109C7700E713CA13CAFB90664FEAF09060A0E02092
:109C8700E303029D09906162E0FA7B00906163E063
:109C9700FC7D00EC2AFAED3BFB906166E0FC7D0061
:109CA700EC2AFAED3BFB906167E0FC7D00EC2AFAB9
:109CB700ED3BA2E713CA13CAA2E713CA13CA9066F9
:109CC70052EAF090616AE0FA7B0090616BE0FC7DFC
:109CD70000EC2AFAED3BFB90616EE0FC7D00EC2A7C
:109CE700FAED3BFB90616FE0FC7D00EC2AFAED3B5F
:109CF700A2E713CA13CAA2E713CA13CAFB90665492
:109D0700EAF0906170E0906655F0906174E0FAA314
:109D1700E0FB20E103029D9F902510E0FA3395E0D8
:109D2700FB902511E0FC3395E0FDEAC39CFAEB9D1F
:109D3700FB902514E0FC3395E0FDEC2AFAED3BFBA4
:109D4700902515E0FC3395E0FDEAC39CFAEB9D8A6C
:109D570004906656ECF0902512E0FA3395E0FB90FC
:109D67002513E0FC3395E0FDEAC39CFAEB9DFB90DD
:109D77002516E0FC3395E0FDEC2AFAED3BFB902538
:109D870017E0FC3395E0FDEAC39CFAEB9DFB906678
:109D970057EAF0906798E4F00200C5C0188581186B
:109DA700058178AB79987A011200B3300D37200C12
:109DB70034906644E090665AF0906640E0906659A9
:109DC700F0906642E0906658F0906647E090665BD8
:109DD700F0906649E090665CF090664FE0FA906616
:109DE7005FF0029F05200D37300C34906645E090F8
:109DF700665AF0906641E0906659F0906643E090AD
:109E07006658F0906648E090665BF090664AE0908E
:109E1700665CF0906650E0FA90665FF0029F0590EE
:109E27006644E0FA7B00906645E0FC7D002AFAED87
:109E37003BFB0ABA00010BEBA2E713CA13CA9066F1
:109E47005AEAF0906640E0FA7B00906641E0FC7DBC
:109E5700002AFAED3BFB0ABA00010BEBA2E713CA93
:109E670013CA906659EAF0906643E0FA906642E0BA
:109E7700FBC0028B82787179B97A021200B3AA8289
:109E87001581906658EAF0906647E0FA3395E0FB53
:109E9700906648E0FC3395E0FDEC2AFAED3BFB0ABF
:109EA700BA00010BEBA2E713CA13CA90665BEAF08C
:109EB700906649E0FA3395E0FB90664AE0FC3395FB
:109EC700E0FDEC2AFAED3BFB0ABA00010BEBA2E737
:109ED70013CA13CA90665CEAF090664FE0FA7B00FB
:109EE700906650E0FC7D002AFAED3BFB0ABA0001C0
:109EF7000BEBA2E713CA13CAFB90665FEAF0906602
:109F07005AE0FA906659E0FBEAC39B90665DF090D1
:109F1700665DE0FA74C1C0E0743FC0E08A8278C32E
:109F270079B97A021200B3AA821581158190665D0C
:109F3700EAF0906646E0F58278A079BA7A021200D4
:109F4700B3E582FA3395E0FB90665BE0F582C002E9
:109F5700C00378A079BA7A021200B3AC82D003D0DA
:109F670002EC3395E0FDEC2AFAED3BFB90665CE0F2
:109F7700F582C002C00378A079BA7A021200B3ACA6
:109F870082D003D002EC3395E0FDEC2AFAED3BFBDF
:109F970090664BE0F582C002C00378A079BA7A02D6
:109FA7001200B3AC82D003D002EC3395E0FDEC2A6B
:109FB700FAED3BFB90664CE0F582C002C00378A047
:109FC70079BA7A021200B3AC82D003D002EC33958F
:109FD700E0FDEC2AFAED3BFB90604DE023235401B2
:109FE700FCB40100E433FC604A906658E0FC9060E2
:109FF70067E0FDECB50500B3E433FD703190606EAA
:10A00700E0FDECB50500B3E433FC601690606DE04D
:10A01700FC7D00C3EA9CEB64808DF063F08095F0D3
:10A0270040047A0080027A01EA7003FA80027A011A
:10A03700EA70047A0080027A01906666EAF090601E
:10A047004DE023235401FAB40100E433FA60489049
:10A057006646E0F58278A079BA7A021200B3AA823E
:10A06700906066E0FBEAB50300B3E433FB7023902E
:10A07700665BE0F58278A079BA7A021200B3AA8209
:10A0870090606FE0FBEAB50300B3E433FB7003FABB
:10A0970080027A01EA70047A0080027A019066678A
:10A0A700EAF0906666E07009906667E07003FA80F0
:10A0B700027A01906668EAF0E0FA90240BE020E368
:10A0C7000B90240BE020E4047B0080027B01EB4231
:10A0D70002906668EAF090665FE0FA90604FE0549D
:10A0E7003FFB8A04C3EB64808CF063F08095F050EB
:10A0F70006906655E070047B0080027B01906669DC
:10A10700EBF090604DE0541FFB8A04C3EC64808B36
:10A11700F063F08095F0B3E433FC6006906655E099
:10A1270070047B0080027B0190666AEBF090665AB0
:10A13700E0FB906659E0FCEBB5040040048C058019
:10A1470007EB2BFBC39CFCFD906655E0601090600D
:10A157000AE020E2028D0290665EEAF080059066D2
:10A167005EE4F0900050E0C423540390666DE4F081
:10A17700A3F090666DE0FAA3E0FB906088A818084A
:10A18700E0035401F6906646E0FD3395E0FE90004B
:10A1970050E003540390A47893FF3395E0FCC0028A
:10A1A700C003C007C0048D828E83126E16AC82ADC9
:10A1B7008315811581A8180886067F00C004C0058D
:10A1C7008E828F83126E16AC82AD8315811581D076
:10A1D70003D002EC2AFAED3BFB90666DEAF0A3EBA5
:10A1E700F0900050E0540190A47C93FC3395E0FD7F
:10A1F70090665BE0FE3395E0FFC002C003C006C077
:10A20700078C828D83126E16AC82AD831581158102
:10A21700D003D002EC2AFAED3BFB90666DEAF0A37F
:10A22700EBF0900050E0540190A47E93FC3395E04E
:10A23700FD90665CE0FE3395E0FFC002C003C006F8
:10A24700C0078C828D83126E16AC82AD8315811583
:10A2570081D003D002EC2AFAED3BFB90666DEAF061
:10A26700A3EBF0900050E0540190A48093FC339549
:10A27700E0FD90664BE0FE3395E0FFC002C003C0EF
:10A2870006C0078C828D83126E16AC82AD83158152
:10A297001581D003D002EC2AFAED3BFB90666DEAFC
:10A2A700F0A3EBF0900054E023540190A48293FCB8
:10A2B7003395E0FD90664CE0FE3395E0FFC002C0A9
:10A2C70003C006C0078C828D83126E16AC82AD83E5
:10A2D70015811581D003D002EC2AFAED3BFB90667D
:10A2E7006DEAF0A3EBF0900054E023540190666D03
:10A2F700EAF0A3EBF0900054E023540190666DEA76
:10A30700F0A3EBF0E4C0E074FCC0E0E4C0E0740448
:10A31700C0E08A828B83784479BA7A021200B3AAA2
:10A3270082AB83E58124FCF58190666DEAF0A3EBAF
:10A33700F090666DE0FAA3E0FB9066CAE0FC339507
:10A34700E0FDEAC39CF582EB9DF58378B779BA7A8D
:10A35700021200B3AA82AB8390666BEAF0A3EBF01C
:10A36700851881D0180200C5906655E07003FA8001
:10A377004D90665FE0FB90604EE05407FC8B05C391
:10A38700ED64808CF063F08095F050047A01802EA4
:10A3970090604DE0541FFCC3EB64808CF063F08049
:10A3A70095F050047A028016906668E060047A039C
:10A3B700800C906669E070047A0480027A059066E2
:10A3C70063EAF00200C5906727E0FABA0102800845
:10A3D7009066F7E0FABA010302A47190604CE0308E
:10A3E700E30302A47190604CE020E507906715E055
:10A3F700FA600302A471906047E020E102806B7865
:10A40700B979967A011200B39000EEE493FAA3E4C7
:10A4170093FB906174EAF0A3EBF0780779847A01F3
:10A427001200B3906158E0FA7B00906159E0FC7D1F
:10A4370000EC2AFAED3BFB90615CE0FC7D00EC2A26
:10A44700FAED3BFB90615DE0FC7D00EC2AFAED3B09
:10A45700A2E713CA13CAA2E713CA13CA9060A1EAF4
:10A46700F078F679957A011200B30200C503040665
:0DA4770007030406070305030502030102A5
:020000040000FA
:10021C00C018E581F5182407F581900228E0030346
:10022C005407FA53020390605AE003035401FBBBDA
:10023C00010280030203D6906038E030E30302032E
:10024C00D6C00278B979967A011200B3D002900028
:10025C0060E0C403540190671DF090005CE003540F
:10026C000190671EF0902400E0C4540F906724F0B6
:10027C00902406E0543FFBE4CBC4CB6BCB54F0CBC7
:10028C006BFC902405E0C4540FFD7E00906725EDB7
:10029C004BF0EE4CA3F0900058E0232354019067F0
:1002AC0021F0900058E0C4035401906722F0902490
:1002BC0010E0C45401906723F09066F7E0FB906760
:1002CC009CF09066F7E4F0BA0309900060E04420DB
:1002DC00F0800ABA020790005CE04402F090605A89
:1002EC00E030E01DD20CC20DEA700B902400E054FB
:1002FC000F44C0F08026902400E0540F4480F0801E
:10030C001BC20CD20DEA700B902400E0540F443049
:10031C00F08009902400E0540F4420F0902408E46D
:10032C00F0A3F090240AE054C0F090240AE054BFEB
:10033C00F0902406E0543F4480F09024077402F0BF
:10034C00902405E0540F4450F0902406E054C0F083
:10035C00780779847A021200B3788279A97A02122A
:10036C0000B3900028E003547F906045F090223059
:10037C00742BF0A20DE43390005813E092E5F0A238
:10038C000CE43390005813E092E6F0900058E054DF
:10039C00EFF078D379A87A011200B3902580E0446D
:1003AC0001F0906059E054FCF0906058E4F09067D4
:1003BC000EF0A3F09067277401F0906038E04408C9
:1003CC00F0902230742BF00207CE90605AE00303B9
:1003DC005401FABA010280030206E5906038E0C4C9
:1003EC00235401FABA010280030206E5906038E05A
:1003FC00C45401FABA010280030206E5906059E088
:10040C005403FA30E11A906059E05403FB7A00432C
:10041C0003FC906058E0FC7D004202ED4203801921
:10042C00906059E05403FD7C00906058E0FE7F0022
:10043C004204EF42058C028D0390670EE0FCA3E0B2
:10044C00FDEAC39CF582EB9DF583C002C00312202C
:10045C0084D003D00290670EEAF0A3EBF09060B06A
:10046C00E4F09060ACF0A3F0A3F0A3F09060B2E4E1
:10047C00F09060A8F0A3F0A3F0A3F09060B1E4F0CA
:10048C009060E0F0A3F0A3F0A3F09060B3E4F090E0
:10049C0060DCF0A3F0A3F0A3F09060A5E0540FFA99
:1004AC00BA030050047B03800F740CB50200500497
:1004BC007C0C80028A048C038B021A1A1AEA2A25F5
:1004CC00E02494FAE43408FB90605AE020E2030242
:1004DC0006DB9000E8E493FCA3E493FD906174ECDC
:1004EC00F0A3EDF0C002C003780779847A01120002
:1004FC00B3D003D002A818087600A81808B60200DA
:10050C004003020663C002C0039060B0E0FDA8186F
:10051C0008E675F002A4FEE5F0CE25E0CE33CE253C
:10052C00E0CE33FFEE2470FAEF3425FB7C00C003E1
:10053C00C005C006C007C002C003C0049060AC7503
:10054C00F0001207D4AA82158115811581D007D02D
:10055C0006D005D003EA2D9060B0F09060B2E0FABE
:10056C00EE2460FBEF3425FC7D00C002C006C00702
:10057C00C003C004C0059060A875F0001207D4AB8E
:10058C0082158115811581D007D006D002EB2A90F7
:10059C0060B2F0E0FCA81808E5182406F9E6F7E4C8
:1005AC00C725E0C733C725E0C73309F7E51824068C
:1005BC00F8E624F0FD08E63425FA8D828A83A3A39D
:1005CC00A3A3E02C9060B2F09060B1E0FCEE247438
:1005DC00FDEF3425FA7B00C003C004C006C007C081
:1005EC0005C002C0039060E075F0001207D4AA8227
:1005FC00158115811581D007D006D004D003EA2CC3
:10060C009060B1F09060B3E0FAEE2464FEEF342514
:10061C00FF7B00C002C006C007C0039060DC75F011
:10062C00001207D4AB82158115811581D002EB2AFB
:10063C009060B3F0E0FAE5182406F8E624F0F582B1
:10064C0008E63425F583E02A9060B3F0A818080674
:10065C00D003D0020205069060B2E0FCA81808088E
:10066C00A604087600087600087600A8180808E6A4
:10067C00080808F618181876000876000876009016
:10068C0060A8E0A3E0FDA3E0FEA3E0FF8D048E05CF
:10069C008F067F00A8180808EC46F6ED0846F6EE23
:1006AC000846F6EF0846F68A828B83E493FCA3E4B3
:1006BC0093FDA3E493FEA3E493FFA8180808C3E6F4
:1006CC009C08E69D08E69E08E69F50030204D49021
:1006DC006038E054EFF00207CE906727E0FABA01D9
:1006EC000280030207CE90605AE030E2030207CE8C
:1006FC00902580E054FEF0906038E054F7F0906064
:10070C0038E054EFF0906727E4F0906721E0900018
:10071C005813E092E6F0906722E090005813E092B4
:10072C00E5F0788279A97A021200B390671DE09007
:10073C00006013E092E5F090671EE090005C13E01F
:10074C0092E1F0906724E0902400C454F0F5F0E0BE
:10075C00540F45F0F0906725E0FAA3E0FB740F5AB4
:10076C00902405C454F0F5F0E0540F45F0F0EBC4C0
:10077C00CAC4540F6ACA540FCA6ACA53023F90249F
:10078C0006EA543FF5F0E054C045F0F0906723E0E2
:10079C0090241013E092E4F090679CE09066F7F0E0
:1007AC0075820278F979827A021200B39022307441
:1007BC002BF090604CE020E50978F679957A0112DF
:1007CC0000B3851881D01822C018858118C082C04A
:1007DC0083C0F0E581240BF581A818088682088671
:1007EC00830886F0E5182404F9126EFBF7A3126E49
:1007FC00FB09F7A3126EFB09F7A3126EFB09F7E5D1
:10080C001824FBF886030886040886028B828C83E6
:10081C008AF0E5182408F8126EFBF6A3126EFB089A
:10082C00F6A3126EFB08F6A3126EFB08F6E518246D
:10083C0004F8E5182408F9E726FE09E70836FF094D
:10084C00E70836FA09E70836FBA8180886820886F6
:10085C00830886F0EE126DFDA3EF126DFDA3EA1274
:10086C006DFDA3EB126DFDE5182408F8C3EE96EFB1
:10087C000896EA0896EB0896500575820180037578
:10088C008200851881D01822040000002800000086
:10089C0087010000430F000096980000E2F5050068
:1008AC00CB9A3B00E50B5402E876481711A5D4E827
:1008BC007A0E7B00000000000000000000001ABA55
:1008CC00FF011BEA4B60030208C02290223374FF25
:1008DC00F090220BE0547FF075F70175F70122C000
:1008EC00E0C082C083C0D075D010C2AF90223374E8
:1008FC00F0F0C28DC28C90223374FFF0D2AFD0D006
:10090C00D083D082D0E032C0D075D010C2AFC28EAE
:10091C00C28FD203D2AFD0D032C0E0C082C083C06D
:10092C00D075D010C2AF90223374F2F075C878C273
:10093C00C6D204906033E020E5030209E3200603ED
:10094C000209E39066CCE0FA70030209E3902603F7
:10095C00E020E410902600E0547FF0902601E04463
:10096C0001F08032902609E0FA20E71C90A316E0F3
:10097C005407FABA03028010902600E04480F090ED
:10098C002601E04401F0800E902600E04480F090B7
:10099C002601E054FEF0902603E020E71C9021266F
:1009AC00E020E215906083E04480F0902600E05453
:1009BC007FF0902601E054FEF0906083E04440F01C
:1009CC00906083E04402F0902603E04408F09060CD
:1009DC0083E04408F0802D902603E020E0263007C9
:1009EC00239066CCE0FA601C902602E04480F090E4
:1009FC006083E04401F0906083E04410F0906083E9
:100A0C00E04420F090223374FFF0D2AFD0D0D083EA
:100A1C00D082D0E032C0E0C082C083C0D075D0108C
:100A2C00902233740DF074FFF0D0D0D083D082D0EC
:100A3C00E032C0E0C082C083C0D075D010C2AF908D
:100A4C0022337403F090201BE030E10890205374A3
:100A5C0002F0E4F090201BE030E236902053740456
:100A6C00F0E4F090A31BE020E527902007E020E5C0
:100A7C0020902200E0FA90E650E0FBEAB5131290C9
:100A8C00A34E740EF0740CF07408F0E4F09022365F
:100A9C00F090223374FFF0D2AFD0D0D083D082D07C
:100AAC00E032C0E0C082C083C0D075D0107A00C2E2
:100ABC00AF9022337401F0902102E020E2129021D9
:100ACC0002E054BFF0E04410F0902163E04440F0A9
:100ADC0090201AE030E1679020527402F0E4F0901C
:100AEC002200E0700E902034E05401FB90E651EBB4
:100AFC00F0800C902034E05401FB90E652EBF09027
:100B0C002034E020E01790A02FE054EFF090A02FBD
:100B1C00E054DFF090A327E054F7F0802190E651E9
:100B2C00E0601B90E652E0601590A02FE04410F0BE
:100B3C0090A02FE04420F090A327E04408F09020F0
:100B4C001BE030E010902200E0FB90E650E0FCEB64
:100B5C00B514027A0190201BE020E403020CE09013
:100B6C002053741BF0E4F0902007E0C4035401FB05
:100B7C00BB01089022367401F08005902236E4F017
:100B8C0090662BE0FB600B90223374FFF0D2AF0227
:100B9C000CE8902230E0FBBB1B02802BBB200280B8
:100BAC005FBB21028021BB2202806BBB23028066CB
:100BBC00BB2402804BBB25028046BB26028041BB76
:100BCC0033028052020C78902007E0C4035401FBDE
:100BDC00BB010BD20590A2B67401F0020CE0EA70D6
:100BEC0003020CE09022317421F090223374FFF058
:100BFC0090220BE0547FF075F70175F701020CE0C1
:100C0C00902007E0C4035401FABA01028003020CDD
:100C1C00E0D205020CE0902007E020E523902002B2
:100C2C00E054FBF09022317421F090223374FFF0E9
:100C3C0090220BE0547FF075F70175F701020CE080
:100C4C00902102E003035401FABA0105D205020C0B
:100C5C00E09022317422F090223374FFF090220B3A
:100C6C00E0547FF075F70175F7018068902007E07C
:100C7C0030E507902007E020E429902002E054FBA7
:100C8C00F0902102E054BFF09022317421F09022B8
:100C9C003374FFF090220BE0547FF075F70175F779
:100CAC00018031902102E020E222902102E054BF29
:100CBC00F09022317422F090223374FFF090220BCA
:100CCC00E0547FF075F70175F7018008D20590228A
:100CDC00317423F090223374FFF0D2AFD0D0D08394
:100CEC00D082D0E032C0E0C082C083C0D075D010BA
:100CFC00C2AFC29B9022337408F090201AE020E718
:100D0C0003020DA49020527480F0E4F0902007E0D0
:100D1C005401FABA01028003020DA4902230E0FAC9
:100D2C00BA1B02800FBA2102800ABA22028022BAB0
:100D3C00233C801D9022317420F0D29B902233747E
:100D4C00FFF090220BE0547FF075F70175F70180EE
:100D5C00329022317433F0D29B90223374FFF09096
:100D6C00220BE0547FF075F70175F7018015902187
:100D7C0002E020E2089022317433F0800690223198
:100D8C00741FF0D29B90223374FFF090220BE0542E
:100D9C007FF075F70175F70190201AE030E633907B
:100DAC0020527440F0E4F0902007E020E5149022EB
:100DBC0036E4F0902006E0235401FABA01028002D6
:100DCC00D205902006E0235401FA90200013E09203
:100DDC00E6F090223374FFF0D29BD2AFD0D0D08308
:100DEC00D082D0E032C0D075D010D0D032C0E0C0AC
:100DFC0082C083C0D075D010C2AF9022337402F081
:100E0C0090202BE030E60F9020577440F0E4F090E7
:100E1C002102E054BFF090202BE030E70F902057D8
:100E2C007480F0E4F0902002E054FBF0902053E04A
:100E3C004408F0E054F7F090A316E05407FABA0413
:100E4C002C902003E04404F0902003E04401F09047
:100E5C002200E0FA90E650E0FBEAB5130990E6C4F4
:100E6C00E054FEF0800790E6C8E054FEF090214C70
:100E7C00E030E03F902003E030E63890A316E054D9
:100E8C0007FABA04159022317403F0902238E0FA74
:100E9C00431201902238EAF080069022317419F046
:100EAC0090223374FFF090220BE0547FF075F70121
:100EBC0075F70190223374FFF0D2AFD0D0D083D02D
:100ECC0082D0E032C0E0C082C083C0D075D010C2E6
:100EDC00AFC29E902233740BF0902620E020E003EA
:100EEC00020F629026447401F0E4F0A207E433FA96
:100EFC009022B4EAF0902002E030E25A20072490CD
:100F0C002601E030E550902603E04404F0D207902F
:100F1C0066CCE4F0C20375C860C2C6902231742856
:100F2C00F08033902231E0FABA2910C207902603E0
:100F3C00E054FEF0902603E054FBF0902231742A2A
:100F4C00F0D29E90223374FFF090220BE0547FF08D
:100F5C0075F70175F70190223374FFF0D29ED2AF72
:100F6C00D0D0D083D082D0E032C0E0C082C083C069
:100F7C00D075D010C2AF9022337405F09026447413
:100F8C0002F0E4F0A206E433FA9022B4EAF09026E0
:100F9C0001E030E67220066F902603E04402F090E8
:100FAC0022317428F0D20690A316E05407FABA0343
:100FBC00028007902636E04480F0906711E4F0C27E
:100FCC000375C860C2C6902250E054DFF09066CC26
:100FDC00E4F0902143E054DFF0902143E054BFF063
:100FEC009022D8E04408F0E054F7F0902603E0306B
:100FFC00E707902604E4F0A3F0902602E04420F0EA
:10100C00E054DFF002110F902601E030E63E30068E
:10101C003B902603E0C45401FABA0130902231749B
:10102C0028F0906711E4F0C20375C860C2C6902620
:10103C0000E054FBF0902603E054EFF0202603026E
:10104C00110F902601E0547FF002110F902601E061
:10105C0020E64E30064B902603E020E444902231EB
:10106C00E0FABA2A21C206902600E054FBF0902642
:10107C0003E054EFF0302607902601E0547FF09007
:10108C002603E054FDF09022317429F09022337441
:10109C00FFF090220BE0547FF075F70175F701809B
:1010AC0062902601E030E65B300658906711E4F060
:1010BC00C20375C860C2C6902250E054DFF0902283
:1010CC0074E054F7F0902600E054FBF0902603E017
:1010DC0054EFF0302607902601E0547FF090260361
:1010EC00E054FDF09067107401F09022317429F0F7
:1010FC0090223374FFF090220BE0547FF075F701CF
:10110C0075F70190223374FFF0D2AFD0D0D083D0DA
:10111C0082D0E032C0E0C082C083C0D075D010C293
:10112C00AF902102E054F7F0902233740AF0902231
:10113C003AE0600E90223AE4F0902102E04408F08C
:10114C008008D208902231742CF090223374FFF076
:10115C00D2AFD0D0D083D082D0E032C025C0E0C096
:10116C00F0C082C083C0D075D010C018858118051E
:10117C0081058105817A00C2AF9022337407F0900B
:10118C002621E020E10302178D902645E04402F071
:10119C00E054FDF0D2AF902603E020E10A90260047
:1011AC00E020E00302178D90260BE0FB90260AE06E
:1011BC00FC90260AE0A3E0902609E0FD902608E0CA
:1011CC00A3E030060E902601E023235401FEBE015D
:1011DC0002801F200A0302178D902601E030E603DF
:1011EC0002178D902600E05401FEBE01028003021E
:1011FC00178DC012ECC4540FFE531603EC030354AA
:10120C003FFFA8180874035FF6A818080874035C5D
:10121C00F67F0090A316E05407FABA04028004D0BB
:10122C00128038D012C016EBC4540FFEE5182403FC
:10123C00F874035EF6E5182403F8E6D01630E009DE
:10124C00E5182403F876048039E5182403F8E63011
:10125C00E130E5182403F876058027EB54E06013A1
:10126C00C01774E05BFFBFE005D01702178DD017D5
:10127C00021731EB0303543FFBE5182403F8740306
:10128C005BF6E5182403F8E67003021372ED30E701
:10129C000302178DED30E60F90A316E05407FBBB4D
:1012AC000402800302178D9067A6E0FB600302170F
:1012BC0031E5182403F8E625E0FA24B0F582E4348D
:1012CC00E6F583E0FB902634EBF0EA24B0FAE43444
:1012DC00E6FB8A828B83A3E0FB902635EBF090260D
:1012EC0034E0C4540FFA90600FE0540FFBEAB513CE
:1012FC000040047F20800E902634E054F070047F70
:10130C003080027F10C017902635E0C4540FFB903C
:10131C00600EE0540FFFEBB51700D01740054317D4
:10132C00088010902635E054F0700543170C8003AC
:10133C00431704C017902635E0540FFB90600FE064
:10134C00C4540FFFEBB51700D01740064317020229
:10135C001731902635E0540F7006431703021731EE
:10136C00431701021731E5182403F8743F5CF6E5C6
:10137C00182403F8E670030217317B00BB0B0050F6
:10138C0014EB90191193FCE5182403F8E6B514023C
:10139C0080030B80E7BB0B004003021731ED30E7F5
:1013AC000302178DED30E60F90A316E05407FBBB3C
:1013BC000402800302178D9067A6E0FB60030216FF
:1013CC0047902635E0C4540FFB90600EE0540FFCA0
:1013DC00EBB514009228B39217902635E0C4540F45
:1013EC00FBB401009218902635E0540FFB90600F6F
:1013FC00E0C4540FFCEBB514009228B3921990265C
:10140C0035E0540FFBB40100921A902634E0C4541A
:10141C000FFB90600FE0540FFCEBB514009228B357
:10142C00921B902634E0C4540FFBB40100921CE5CF
:10143C00182403F8B601030215A0E5182403F8B626
:10144C000203021566E5182403F8B60403021545D9
:10145C00E5182403F8B605028060E5182403F8B6F5
:10146C000803021524E5182403F8B60A02802DE5BA
:10147C00182403F8B61003021611E5182403F8B665
:10148C0014028074E5182403F8B620030215D9E57C
:10149C00182403F8B62802803F021647201916902C
:1014AC002635E0540FFB0B902635EB540FF5F0E08E
:1014BC0054F045F0F07A01021647201A16902635A2
:1014CC00E0540FFB1B902635EB540FF5F0E054F075
:1014DC0045F0F07A01021647201B18902634E0C420
:1014EC00540FFB0B902634EBC454F0F5F0E0540F82
:1014FC0045F0F07A02021647201C18902634E0C4FE
:10150C00540FFB1B902634EBC454F0F5F0E0540F51
:10151C0045F0F07A02021647301703021647902660
:10152C0035E0C4540FFB0B902635EBC454F0F5F0AA
:10153C00E0540F45F0F0021647301803021647909E
:10154C002635E0C4540FFB1B902635EBC454F0F544
:10155C00F0E0540F45F0F00216473019030216471D
:10156C00201818902635E0C4540FFB1B902635EB41
:10157C00C454F0F5F0E0540F45F0F0902635E054EB
:10158C000FFB0B902635EB540FF5F0E054F045F0C3
:10159C00F0021647301A030216472017189026350A
:1015AC00E0C4540FFB0B902635EBC454F0F5F0E07F
:1015BC00540F45F0F0902635E0540FFB1B90263568
:1015CC00EB540FF5F0E054F045F0F0806E201B6BFF
:1015DC00902634E0C4540FFB0B902634EBC454F02B
:1015EC00F5F0E0540F45F0F0201850902635E0C48B
:1015FC00540FFB1B902635EBC454F0F5F0E0540F60
:10160C0045F0F08036201C33902634E0C4540FFB98
:10161C001B902634EBC454F0F5F0E0540F45F0F079
:10162C00201718902635E0C4540FFB0B902635EB91
:10163C00C454F0F5F0E0540F45F0F0902635E0C4BA
:10164C00540FFB90600EE0540FFCEBB51400922885
:10165C00B39217902635E0C4540FFBB401009218D6
:10166C00902635E0540FFB90600FE0C4540FFCEB58
:10167C00B514009228B39219902635E0540FFBB4A0
:10168C000100921A902634E0C4540FFB90600FE0D6
:10169C00540FFCEBB514009228B3921B902634E047
:1016AC00C4540FFBB40100921CBE010B301C047F10
:1016BC003080107F10800CBE0209301B047F20800C
:1016CC00027F10EA7024A81808B6010D30180543E3
:1016DC00170C80164317048011A81808B6020B309B
:1016EC0017054317088003431704A8180808B60108
:1016FC000D301A0543170380174317018012A818E1
:10170C000808B6020B301905431702800343170172
:10171C00BA0107EF2F25E0FB4217BA0208EF0303CB
:10172C00543FFA42177A00902604EFF0A3EAF090A7
:10173C002603E020E740200A3D906711E0FA600F95
:10174C00902605E0FA431280902605EAF080279057
:10175C006710E0FA602090A316E05407FAC3748176
:10176C008AF063F08095F0400D902605E0FA431264
:10177C0040902605EAF0902602E04420F0E054DF89
:10178C00F090223374FFF0D2AF851881D018D0D0EE
:10179C00D083D082D0F0D0E0D02532C0D075D0101C
:1017AC00C2AFD2AFD0D032C0D075D010C2AFC29FB2
:1017BC00D29FD2AFD0D032C0E0C082C083C0D0752F
:1017CC00D010C2AFD2BB9022337404F0902288E0C8
:1017DC0030E3209022D8E04408F0E054F7F0902158
:1017EC0002E020E30E902102E04408F0902274E025
:1017FC0054F7F0902288E030E5199022D8E044208C
:10180C00F0E054DFF09022E4E020E007906033E059
:10181C0054FEF090A2E4E020E2030218E890A2F457
:10182C00E04404F0E054FBF090A2FCE0700890A2BD
:10183C00FAE4F00218D2902007E020E50D90A2FC0B
:10184C00E0FA90A2FAEAF00218D290A2FCE0FABAFE
:10185C00020790A31BE020E25B90A2FCE0FABA0323
:10186C000790A34FE020E04C90A2FCE0FABA0407EA
:10187C0090A319E020E63D90A2FCE0FABA0507908F
:10188C00A34EE020E52E90A2FCE0FABA06089022C6
:10189C0038E0FA20E11E90A2FCE0FABA0707906744
:1018AC00BAE0FA700F90A2FCE0FABA08139067BA8B
:1018BC00E0FA700C90A2FCE0FA90A2FAEAF0800632
:1018CC0090A2FA7401F090A2FCE0600990A2FBE0F7
:1018DC004401F0800790A2FBE054FEF09022337498
:1018EC00FFF0D2BBD2AFD0D0D083D082D0E032C008
:1018FC00D075D010C2AF10980280001099028000F1
:10190C00D2AFD0D032000405080A142802012010EE
:020000040001F9
:10A48400C018858118058105810581902401E0C4E7
:10A49400035401FA902400E0C4540F906724F09010
:10A4A4002402E023540190671FF0902402E0232348
:10A4B4005401906720F0900058E0232354019067E2
:10A4C40021F0900058E0C4035401906722F09024D6
:10A4D40010E0C45401906723F0902580E05401FB00
:10A4E40090604FE0235401FC900218E003035401F0
:10A4F400FD90604FE023235401FE9024A2E0543FDA
:10A50400FFA81808A607902482E0543FFFA8180863
:10A5140008A6079024A3E0543FFFE5182403F8A6F7
:10A5240007902483E0543FFFEA603D902401E05407
:10A53400DFF0C002C003C004C005C006C0077864D1
:10A5440079B97A021200B3D007D006D005D004D06E
:10A5540003D002902401E04440F0902402E030E172
:10A56400F9902402E054FEF0C007902580E054F7EF
:10A57400F0902405E0540FF0902406E054C0F090CD
:10A584000218E04404F090604FE054BFF090E60AF3
:10A59400E054F7F0C002C003C004C005C006C00701
:10A5A400788279A97A021200B3900058E054DFF05F
:10A5B400E04440F0E054EFF078D379A87A01120037
:10A5C400B3D0079067A7E0FF4401F0902230743BBA
:10A5D400F0902580E04408F0C00778AA79A77A01B2
:10A5E4001200B3D007D006D005D004D003D002D0D7
:10A5F400079025F5E030E0679025F5E030E4F2902F
:10A604002401E054DFF0C002C003C004C005C0064A
:10A61400C007786479B97A021200B3D007D006D0A3
:10A6240005D004D003D002902401E04440F09024EB
:10A6340002E030E1F9902402E054FEF0C002C003CD
:10A64400C004C005C006C00778AA79A77A01120021
:10A65400B3D007D006D005D004D003D002809290A6
:10A6640025F4E030E70B906662E4F09066F874013C
:10A67400F0902430740CF0902434740CF090243056
:10A68400EF13E092E3F0902430A8180808E613E0F2
:10A6940092E2F0902434E5182403F8E613E092E300
:10A6A400F0902434A81808E613E092E2F0902430E5
:10A6B400E4F0902434F0902401E054DFF09024027C
:10A6C400E030E1F9902402E054FEF0902401EA1312
:10A6D400E092E5F0906721E090005813E092E6F0F4
:10A6E400906722E090005813E092E5F0906724E030
:10A6F400902400C454F0F5F0E0540F45F0F0906756
:10A704001FE090240213E092E7F0906720E0902489
:10A714000213E092E6F0906723E090241013E09295
:10A72400E4F0902580EB13E092E0F090604FEC139E
:10A73400E092E7F0900218ED13E092E2F090604F9F
:10A74400EE13E092E6F0906662E4F0E0FB9066615E
:10A75400E0FCC002C0038C82121CF51581D002906B
:10A7640025F5E04408F09025F5E030E2F99025F570
:10A77400E054F7F0EA6012902401E04420F09024C1
:10A7840002E054FEF0E04401F0902580E054F7F03C
:10A794009067A7E0FA54FEF0902230742BF08518ED
:10A7A40081D0180200C578EA79A77A011200B39023
:10A7B4002401E054BFF0E04420F0786479B97A02CF
:10A7C4001200B3902402E054FEF0E04401F090251E
:10A7D400F5E04408F09025F5E030E2F99025F5E045
:10A7E40054F7F00200C5C20DD20C9025F4E030E716
:10A7F4005F902430740CF0902434740CF090244353
:10A80400E054C0F0902442E054C0F0902463E0543B
:10A81400C0F0902462E054C0F0902430E4F090241E
:10A8240034F09066F87401F09025F5E030E10D9075
:10A8340025F4E0547FFA906662F0800F9025F4E0EE
:10A84400547FFAC3E49AFA906662F0121CE18057CE
:10A85400902430740CF0902434740CF09025F4E0BF
:10A86400547F0303543FFA902443543FF5F0E054DB
:10A87400C045F0F0902442EA543FF5F0E054C0455E
:10A88400F0F0902463EA543FF5F0E054C045F0F052
:10A89400902462EA543FF5F0E054C045F0F090246F
:10A8A40030E4F0902434F0902400E0540F44C0F0DD
:10A8B400902408E4F0A3F090240AE054C0F090241B
:0FA8C4000AE054BFF0902580E04401F00200C587
:020000040000FA
:060000000200C8020A2103
:03000B000208EBFD
:03001300020AAE30
:03001B00020913C4
:030023000218FBC5
:03002B00020925A2
:01003300329A
:01003B003292
:0300430002116740
:03004B00020DF9AA
:03005300020A3E60
:03005B000217C3C6
:03006300020F7514
:03006B000217A7D2
:01007300325A
:01007B003252
:01008300324A
:03008B00020CF173
:03009300020DF16A
:03009B000211202F
:0300A300020ED07A
:0300AB000217B386
:0300DB000200AE72
:0500AE0012192080FE84
:10191C0090000122758E00C2AF120119902231E0A5
:10192C00902230F0902231E4F0902234F090E6498D
:10193C00E0035401FA9067B8F090A320E030E67908
:10194C0090223CE0FA530201BA015090A318E044F3
:10195C0020F090662B7401F0784879B67A01120069
:10196C00B3782D79C87A021200B390E649E04402AC
:10197C00F090E651E4F090E652F090A02FE054EF96
:10198C00F090A02FE054DFF090A327E054F7F090F4
:10199C00E62EE030E6059060CDE4F0902200E0FA0F
:1019AC0090E650E0FBEAB5030B90A320E04480F0F6
:1019BC00E0547FF0902230E4F090223CE0FA4302B5
:1019CC000190223CEAF0902230E07014789679AEC7
:1019DC007A011200B3781A79EB7A011200B38009FC
:1019EC0078C179DB7A011200B390220BE04480F0CD
:1019FC00D2AF902230E0FABA0303021AFABA1902F3
:101A0C008064BA1B03021AA8BA1E03021AB3BA1FC7
:101A1C0003021ABEBA2003021AD4BA21028071BA88
:101A2C0022028048BA2302804FBA2603021ADFBA78
:101A3C002703021B2EBA2803021AEABA2903021A38
:101A4C00EABA2A03021AEABA2B03021B10BA2C03B5
:101A5C00021AEFBA3202802CBA33028060BA3B030E
:101A6C00021B05021B2E125625021B2E788D79EFB8
:101A7C007A011200B3021B2E78B679F27A011200A9
:101A8C00B3021B2E784279F37A011200B3021B2E9B
:101A9C00789979F07A011200B3021B2E785D79F1F6
:101AAC007A011200B3807B789D79F87A011200B329
:101ABC008070783C79F77A011200B38065787B7975
:101ACC00F77A011200B3805A781A79F87A01120069
:101ADC00B3804F786379F47A011200B380441225F5
:101AEC0038803F782479C37A011200B38034788B24
:101AFC0079CF7A011200B38029788479A47A011203
:101B0C0000B3801E78C379D67A011200B3902231CB
:101B1C00E0700F78D279977A011200B3902230746A
:101B2C002BF020080790201BE030E34890223AE08D
:101B3C006039902102E054F7F0902053E04408F013
:101B4C00E054F7F090A316E05407FABA030C900097
:101B5C0064788A79B57A021200B390223AE4F0C222
:101B6C0008902102E04408F0021BFF902230742CF4
:101B7C00F0021BFFA206720750089022307428F066
:101B8C008071200618902601E030E6119022B47482
:101B9C0098F0782D79CF7A011200B3805620072A5D
:101BAC00902601E030E5239022B47499F0C2AF90F6
:101BBC0026447401F0E4F09022307428F09026034F
:101BCC00E04404F0D207D2AF80299025F5E030E054
:101BDC000F906714E0FA6008902230743BF0801389
:101BEC0090E608E030E00C9022307403F09067B17E
:101BFC007401F090603AE023235401FABA01031205
:101C0C003A6C902231E06013902231E0FA9022304D
:101C1C00F0902231E4F0C2050219FE12021C78CDBC
:101C2C0079A37A011200B3906098E05401FABA01DA
:101C3C00031200FA902297E0235401FAB40100E455
:0D1C4C0033FA90229713E092E7F00219FEA0
:050200002F170C0001A6
:101C5900AA829066F8E0FBEAB50301229066F8EAE9
:101C6900F07403B50200500122EA2A2A901C797304
:101C7900021C85021C9B021CBB021CCE900058E072
:101C890054DFF0900058E054BFF0900058E054EF52
:101C9900F022A20DE43390005813E092E5F0A20C73
:101CA900E43390005813E092E6F0900058E054EFC6
:101CB900F022900058E04420F0900058E04440F0B1
:101CC900E054EFF022900058E054DFF0900058E023
:101CD90054BFF0E04410F022906662E0FA90666129
:101CE900E0FBC0028B82121CF5158122C018858188
:101CF9001805810581AA8290604FE030E703021E32
:101D090090906799EAF0E51824FDF8860390679AA0
:101D1900EBF090600AE054DFF09066F8E0FC702781
:101D2900906046E0C39AC39BFDA81808A605906079
:101D390045E0FE900028E003547FFFC003EEC39FF7
:101D4900FEFDD003021E2BBC016B9067A7E0FE537A
:101D59000601BE0030900058E0C4035401FE900013
:101D690058E023235401FFEEB50702801890671548
:101D7900E0FE7011C002C00378D379A87A0112007D
:101D8900B3D003D002906046E0C39AFEA81808A613
:101D990006906045E0FEC002EBFF3395E0EEC39F7D
:101DA900FE900028E003547FFA7F00EEC39AFEFDFF
:101DB900D002021E2BBC0232906046E0FEA8180831
:101DC900A606906045E0FEEAFF3395E0EEC39FFE6C
:101DD900EBFD3395E0EEC39DFE900028E003547FB0
:101DE900FD7F00EEC39DFEFD8038BC033590604643
:101DF900E0FCA81808A604906045E0FC906796E00E
:101E0900FDEAFE3395E0EE2DFDEBFE3395E0FFEEA6
:101E19002D2CFC900028E003547FFD7E00ECC39D2F
:101E2900FCFDA81808C3E6648094C04007A81808F8
:101E3900E624C0F6A818088682C002C003C00512AD
:101E49001FC8D005D003D002C3ED648094C64006F4
:101E5900ED2480FD800CC3ED6480943A50047480B5
:101E69002DFDEDFC3395E0FD8C828D83C002C0030E
:101E7900122084D003D002C0038A82121E961581D3
:101E890090600AE04420F0851881D01822C0188596
:101E99008118AA829066F8E0FB7403B50300500329
:101EA900021FC5EB2B2B901EB373021EBF021EBF70
:101EB900021EEA021F56900038E00303543FFBC399
:101EC90074A28BF063F08095F0500A900224E054DC
:101ED900F3F0021FC5900224E054F34404F0021FFA
:101EE900C5E51824FDF8E62AFB90210EE493FCC30E
:101EF900EB64808CF063F08095F0500A900224E046
:101F090054F3F0021FC590210FE493FCC3EB6480E6
:101F19008CF063F08095F0500C900224E054F34467
:101F290004F0021FC5902110E493FCC3EB64808C7C
:101F3900F063F08095F0500C900224E054F34408CB
:101F4900F0021FC5900224E0440CF0806F90679660
:101F5900E0FCEA2CFAE51824FDF8E62AFB902111A9
:101F6900E493FAC3EB64808AF063F08095F050093A
:101F7900900224E054F3F08043902112E493FAC3D1
:101F8900EB64808AF063F08095F0500B900224E0B6
:101F990054F34404F08025902113E493FAC3EB64CD
:101FA900808AF063F08095F0500B900224E054F39E
:101FB9004408F08007900224E0440CF0D01822C0B5
:101FC9001885811805810581AA82900038E00303EC
:101FD900543FFBC003740CC0E0743AC0E08A8278B5
:101FE900C379B97A021200B3AA8215811581D00387
:101FF900EBB5020302207EEAFC3395E0FDEC24FEFA
:10200900FEED34FFFFA81808A603EB3395E008F6A8
:10201900A81808C3E69E08E664808FF063F08095EF
:10202900F050040B0B802074022CFCE43DFDA81831
:1020390008C3EC96ED64800886F063F08095F05053
:10204900041B1B80028A03900038EB2B25E054FC0B
:10205900F5F0E0540345F0F0C002C003786479B9A3
:102069007A021200B3783979807A011200B3D00369
:10207900D002021FF9851881D01822AA82AB83EAFF
:102089004B700122900028E003547FFC7D00C3EAD5
:102099009402EB648094804011EA24FEFAEB34FF49
:1020A900FB74022CFCE43DFD802AC374FE9A747F04
:1020B9008BF063F08095F0401174022AFAE43BFB3F
:1020C900EC24FEFCED34FFFD800AEA2CFCEB3DFD1F
:1020D9007A007B0053047F900028EC2C54FEF5F025
:1020E900E0540145F0F0C002C003786479B97A027E
:1020F9001200B3D003D002900028E04401F0E0546C
:0B210900FEF0022088FD111E192D3A87
:020000040001F9
:10A8D3007A1C7B02758201C002C003785879957A8D
:10A8E300011200B3D003D002902405E054FDF09090
:10A8F3006795E0FC900228E003035407FDC36480DE
:10A90300948640067C017A887B13906039E4F0904A
:10A9130000E8E493FDA3E493FE906174EDF0A3EEED
:10A92300F0C002C003C004780779847A011200B32F
:10A93300D004D003D002906170E07043FDFEC002EA
:10A94300C0038C077A00C3ED9FEE9AD003D0025068
:10A9530021900040C002C003C004C005C0061220FD
:10A9630084D006D005D004D003D0020DBD00CF0E95
:10A9730080CC8A058B061ABAFF011BED4E709090AE
:10A983006170E0FABA0103D38001C3B39228E433C0
:10A9930090604E13E092E5F0900228E00303540721
:10A9A300FAC364809486500302AB4C906170E0FA62
:10A9B300BA0102800302AB4C7A017B00C3EA940123
:10A9C300EB9404503690FFFFC002C0031220849022
:10A9D30000E8E493FCA3E493FD906174ECF0A3ED31
:10A9E300F0780779847A011200B3D003D002906122
:10A9F30070E060070ABA00C40B80C18A048B057E2D
:10AA0300017F00C3EE9CEF9D5060C002C003900025
:10AA130001C002C003C004C005C006C007122084E1
:10AA2300D007D006D005D004D003D0029000E8E4CC
:10AA330093FAA3E493FB906174EAF0A3EBF0C002F2
:10AA4300C003C004C005C006C007780779847A0133
:10AA53001200B3D007D006D005D004D003D0020E25
:10AA6300BE00010FD003D00280997C017D00C3ECAE
:10AA73009401ED9404503E900001C002C003C00451
:10AA8300C0051220849000E8E493FEA3E493FF90B2
:10AA93006174EEF0A3EFF0780779847A011200B3C2
:10AAA300D005D004D003D002906170E060070CBCE5
:10AAB30000BC0D80B9EC2AFAED3BFB7402C0E0E464
:10AAC300C0E08A828B83126F87AA82AB83158115BC
:10AAD300817C017D00C3EC9AED9B503890FFFFC051
:10AAE30002C003C004C0051220849000E8E493FE72
:10AAF300A3E493FF906174EEF0A3EFF078077984F9
:10AB03007A011200B3D005D004D003D0020CBC00EC
:10AB1300C40D80C19000E8E493FAA3E493FB906131
:10AB230074EAF0A3EBF0780779847A011200B3900A
:10AB33006170E0FABA0103D38001C3B39228E4330E
:10AB4300FA90604E13E092E5F00200C50200C5C022
:10AB53001885811805810581058190E607E030E2BB
:10AB63000302AE6B90608EE030E006906794740150
:10AB7300F07A007B007C01C002C003C004787379C3
:10AB8300AE7A011200B3AD82D004D003D002EDFE41
:10AB93003395E0FFEE2AFAEF3BFB8C060CBE100068
:10ABA30040D5EBC4CAC4540F6ACA540FCA6ACA3028
:10ABB300E30244F09066F8E0FBB40100E433FC7078
:10ABC30009BB010280047E0080027E01EE60047EE8
:10ABD300E480027EC49066BAEEF0EC7009BB010219
:10ABE30080047B0080027B01EB60047B1280027B8C
:10ABF3003C9066BBEBF0758200C002121C59D20D6B
:10AC0300D20C906661E0FB9066B7F09066BAE0FC08
:10AC13009066BBE0FEC004C0068B8278C379B97A24
:10AC2300021200B3AB82158115819066F9EBF090A7
:10AC33006662E4F0121CE1D002A818080876000846
:10AC43007600A818087600C002787379AE7A0112EC
:10AC530000B3AF82D0028F05C3ED64808AF063F046
:10AC63008095F0500CA818080816B6FF0208168045
:10AC730017C3EA64808DF063F08095F0500AA8183A
:10AC8300080806B600020806A8180808C3E4967464
:10AC9300800886F063F08095F05011A818080886A4
:10ACA3000708E6A2E713CF13CFFE802FA8180808E2
:10ACB30008E630E722C002A8180808E6F4FA08E616
:10ACC300F4A2E713CA13CAFBC3E49AFAE49BFB8A10
:10ACD300078B06D00280047F007E00EF4E6052C0D7
:10ACE300028F039066F9E0FC9066F9EB2CF0906616
:10ACF300F9E0906661F09066BAE0FB9066BBE0FC19
:10AD0300906661E0FAC003C0048A8278C379B97A95
:10AD1300021200B3AA8215811581906661EAF0C020
:10AD230002121CE1D002A81808087600087600D0A9
:10AD330002A818088603A8180806BB2000500302BF
:10AD4300AC4AA818080876000876007B00C002C049
:10AD530003787379AE7A011200B3AC82D003D002C8
:10AD63008C05C3ED64808AF063F08095F0500CA8E5
:10AD730018080816B6FF0208168017C3EA64808D08
:10AD8300F063F08095F0500AA818080806B6000290
:10AD93000806A8180808C3E49674800886F063F0D0
:10ADA3008095F0501CA8180808860708E6C4CFC48D
:10ADB300540F6FCF540FCF6FCF30E30244F0FE80B8
:10ADC30037A818080808E630E72AA8180808E6F4A0
:10ADD300FC08E6F4FDC4CCC4540F6CCC540FCC6C0B
:10ADE300CC30E30244F0FDC3E49CFCE49DFD8C07FE
:10ADF3008D0680047F007E00EF4E60509066F9E080
:10AE0300FC9066F9EF2CF09066F9E0906661F090A3
:10AE130066BAE0FC9066BBE0FD906661E0FEC002AE
:10AE2300C003C004C0058E8278C379B97A021200C8
:10AE3300B3AC8215811581906661ECF0121CE1D0F0
:10AE430003D002A818080876000876008B040BBC10
:10AE53008000500302AD50906794E0FB7005906052
:10AE630069EAF0906794E4F0851881D0180200C570
:10AE7300780779987A011200B3906794E0FA600931
:10AE8300906657E0FAF5828007906646E0FAF5820D
:10AE93000200C59060F8E0FA9022B4EAF09060F8FE
:10AEA300E0FABAAAF890E6D4E0FABAAAF09060F809
:10AEB300E0FA9022B4EAF090E650E0FA7401B502A9
:10AEC30000500590E650E4F0902234E4F090220024
:10AED300E0FA90E650E0FBEAB5030C90A2B4E4F08C
:10AEE30090E605E04402F0C202C20EC20F90678EE4
:10AEF300E4F090678F74FFF0C210C212C213C21441
:10AF0300C20CC20DC215C211C200C201C227C226A1
:10AF1300C224906710E4F090E61E74FFF090E61FE1
:10AF230074FFF0906792E4F00200C590E650E0FAF7
:10AF33007401B50200500590E650E4F090A316E0CA
:10AF43005407FABA0302801090A316E05407FABA22
:10AF5300050280047A0080027A01EA60027401FA31
:10AF6300906714EAF090E607E030E40D90E606E01F
:10AF7300FB43033090E606EBF090A234E0FB90E64F
:10AF830006E0420390A234EBF090A238E0FB90E697
:10AF930006E0420390A238EBF0902210E003540144
:10AFA300FB90E606E0035401FCD3EC4B7001C39223
:10AFB30014902200E0FB90E650E0FCEBB5045190C6
:10AFC30066257401F090E603E4F090E602740CF059
:10AFD30090E6017417F090E600742FF09022B47499
:10AFE30060F09022B5E4F09022B6740CF09022B792
:10AFF3007417F09022B8742FF090A316E05407FB57
:10B00300BB030790E628E04401F090A2B774FFF079
:10B01300C2169067B1E4F09067ACF0EA60249060E8
:10B023005AE0547FF0E04440F090605AE04420F04E
:10B03300906028740AF0A3E4F090602C7417F0A3D6
:10B04300E4F0906713E4F09065F6E090E62B540F7C
:10B05300F5F0E054F045F0F090671C7401F0906057
:10B0630044E0C4235401FA9067A2F090E64EE05402
:10B07300FEF090E64FE04401F09060777406F090A4
:10B0830060CDE4F09060CFF09061787420F090612F
:10B09300797420F090617A7420F090617B7420F0D1
:10B0A3009061987420F09061997420F090619A7483
:10B0B30020F090619B7420F00200C5902620E0549C
:10B0C300FDF0902620E054FEF0902143E054BFF0C1
:10B0D300902621E054FDF090201BE054F7F09020DF
:10B0E3002BE4F090201BF090201AF0902288F0902F
:10B0F300A2E4E4F090A316E05407FABA0302800A2C
:10B1030090A316E05407FABA052190214BE044407E
:10B11300F090201E743CF090201F74E5F090201EE8
:10B12300E0547FF090201EE054BFF090224EE044A4
:10B1330008F090224EE04404F090A316E05407FA7E
:10B14300BA0302800A90A316E05407FABA051C90CA
:10B153002264E054FEF0902246E04402F09022473D
:10B16300E04401F0902261E04440F0902248E04442
:10B1730002F090226DE04401F0902255E04402F089
:10B1830090226AE04401F090A316E05407FABA0350
:10B193000790A316E030E70790225DE04408F090A3
:10B1A300A314E020E307902247E04408F09022CA6A
:10B1B300E04410F0902200E0FA90E650E0FBEAB59C
:10B1C3000307902253E04410F0902253E04440F0F0
