:020000040001F9
:10800000AA82AB837C00BC0800502AEC2CFDFE90B9
:1080100083DF93CEA393FFED9083EF93CDA393F8EB
:10802000EA5205EB5200EEB50508EFB50004758283
:1080300001220C80D175820022C018E581F5182438
:1080400008F581E5182404F87600087600E5182480
:1080500006F87600900030E00354079083FF939079
:10806000661DF0900034E00303543F90661EF090CC
:108070000034E003540190661FF078EB79897A02AE
:108080001200B3AD829022B6EDF0906008E0FEBE23
:1080900001047E0880027E01A818080876BC0876D4
:1080A000029022B5EEF030165CED6009906614E0A7
:1080B0002401F08009906614E014906614F0906634
:1080C00014E0FC700CFD90E643E0FF906614F08035
:1080D00034C00690E643E0FFE4CF25E0CF33FE7ADC
:1080E00000C3EC9FEA64808EF063F08095F0D006C8
:1080F000400D7D0190E643E0FA906614F08006752D
:108100008201028224BD0111C006785C798A7A025C
:108110001200B3AA82D0068011C0067803798B7A48
:10812000021200B3AB82D0068B02EA600302821D0A
:10813000C006788779837A011200B3D00630160A18
:10814000E5182406F8760102821DC00678EB7989CD
:108150007A021200B3AA82D0068A059022B6EDF008
:10816000A81808E6B505028011A81808A605BE08DB
:10817000047E028005BE02027E01E5182404F80890
:10818000E618C625E0C63308F68D027B00E5182404
:1081900004F8EA46F6EB0846F6E5182404F8E51874
:1081A0002407F9E6F70809E6F77C00BC0800503B15
:1081B000C006EC2CFFFE9083DF93CEA393FAEFFB77
:1081C0009083EF93CBA393FFE5182407F8E65203BF
:1081D00008E65207EEB50306EAB507028004D006AA
:1081E0008006D0067A0180050C80C07A00EA601013
:1081F000E5182406F87601906006E04408F0801D3A
:1082000090E649E020E00AA818080816B6FF020820
:1082100016A8180808E6084660030280A1E518249D
:1082200006F88682851881D0180200C5A20EE433B4
:10823000FA902230740FF0900228E003035407FBF9
:10824000530304E4BB000104FB906006E054F7F024
:10825000906001E054FDF090E60AE003035401FC55
:10826000BC0102800A906003E05401FCBC0144EAB6
:108270002AFC24AAFDE43465FEEB2DF582E43EF5EC
:1082800083E090661EF0EC24B2FDE43465FEEB2D35
:10829000F582E43EF583E0906620F0EC24A2FCE455
:1082A0003465FDEB2CF582E43DF583E0FC90661F20
:1082B000F0801290661E7431F09066207405F09084
:1082C000661F7401F0906620E09083FF9390661D16
:1082D000F0C002C003788779837A011200B3D0031B
:1082E000D002906008E0600302837490E60AE030F8
:1082F000E203028374C002C003783979807A0112E4
:1083000000B3AC82D003D002906005EC13E092E1A0
:10831000F0900030E0035407FCEA2433FDE43466B7
:10832000FEEC9083FF938D828E83F0EA2AFA24AAD2
:10833000FCE43465FDEB2CFCE43DFD90661EE08C16
:10834000828D83F0EA24B2FCE43465FDEB2CFCE47E
:108350003DFD906620E0FE8C828D83F0EA24A2FA37
:10836000E43465FCEB2AFBE43CFD90661FE0FA8BED
:10837000828D83F0906001E04402F090E643E0FAE1
:10838000906614F00200C590661EE090003425E06F
:1083900025E054FCF5F0E0540345F0F090661FE052
:1083A00090003413E092E1F090661DE0FAC313628E
:1083B00002906620EAF0900030EA2A540EF5F0E0D0
:1083C00054F145F0F0900034E04401F078DE79B8E3
:1083D0007A021200B3900034E054FEF00200C505AA
:1083E000000A003300CC00C701380E0F0FF0F00F69
:1083F000000F00FF00FF00FF0FFF0FFFFFFFFF0058
:1084000001030207060405C018858118058105814E
:108410009061707401F09066F7E0FABA0102800B87
:1084200090E607E0035401FABA0106200803028B24
:10843000B49060A2E4F09060A3F0906799E0FA90A5
:108440006174E0FBA3E0FCEB20E0030284F59060A4
:10845000A27401F0902163E0547FF090240CE0546A
:108460007FF0902102E04480F0E0547FF0C0027879
:10847000DE79B87A021200B3902403E054BFF0759D
:108480008E07902410E04404F0E054FBF0758E0059
:108490009022D0E04480F09022D4E04480F09022FA
:1084A000D0E0547FF09022D4E0547FF0781F798C94
:1084B0007A011200B3D0029060A27402F09060A022
:1084C000E030E131C002780779847A021200B37596
:1084D0008200783179847A021200B3758210783183
:1084E00079847A021200B3758212783179847A0223
:1084F0001200B3D002906174E0FBA3E0FCEB30E12A
:108500002A9060A27403F0C00274FFC0E0900000E3
:1085100078EF798E7A011200B31581D00290216331
:10852000E04480F090240CE04480F0906174E0FB23
:10853000A3E0FCEB20E20302864F9060A27404F0FB
:10854000758201C002785379947A011200B3758262
:108550000078BC798B7A011200B3D002906174E08C
:10856000FBA3E0FCEB30E51B9060A27405F0C002B9
:10857000E4C0E0900A0178EF798E7A011200B31519
:1085800081D002758B18758DFCD28EC2039060A2CB
:108590007406F0C0027401C0E0900A0178EF798E91
:1085A0007A011200B31581D002906661E0FBB5023A
:1085B00002806E9060A27408F0EBFC3395E0FDEC55
:1085C00024FEFEED34FFFFA81808A602EA3395E06A
:1085D00008F6A81808C3E69E08E664808FF063F0EA
:1085E0008095F050040A0A802074022CFCE43DFDC2
:1085F000A81808C3EC96ED64800886F063F08095B7
:10860000F050041A1A80028B02906662E0FBC002EE
:10861000C0038A82121D541581D0022003030285F3
:108620008D30030F9060A3E0FA4302029060A3EA4A
:10863000F0C203C28EC28F758200783179847A02CB
:108640001200B3758210783179847A021200B390E7
:108650006174E0FAA3E0FBEA20E403028812906070
:10866000A2740AF0902401E054FDF0902401E0543B
:10867000FEF0906174E0FAA3E0FBEA30E53A906026
:10868000A2740BF0758201785379947A011200B3C9
:1086900075820078BC798B7A011200B390240BE0CC
:1086A0004480F0E054BFF0E4C0E0900A0178EF7934
:1086B0008E7A011200B31581906174E0FAA3E0FB99
:1086C000EA30E6499060A2740CF020271875820108
:1086D000785379947A011200B375820078BC798B53
:1086E0007A011200B390240BE04480F0E054BFF014
:1086F000902402E04408F0E054FBF07402C0E090E3
:108700000A0178EF798E7A011200B31581906174B5
:10871000E0FAA3E0FBEA30E7609060A2740DF0207D
:108720002718758200785379947A011200B3758204
:108730000278BC798B7A011200B390240BE044805C
:10874000F0E054BFF0902402E04408F0E054FBF065
:108750003008147402C0E090000078EF798E7A013E
:108760001200B3158180127402C0E090030278EF0A
:10877000798E7A011200B31581906174E0FAA3E05A
:10878000FB20E0030288129060A2740EF0202718EC
:10879000758200785379947A011200B37582027859
:1087A000BC798B7A011200B390240BE0547FF090D7
:1087B000240BE054BFF0902402E054F7F090240220
:1087C000E054FBF0906715E0FA60147404C0E09088
:1087D000020478EF798E7A011200B3158180127449
:1087E00002C0E090020478EF798E7A011200B3158E
:1087F00081780779847A021200B375821078317912
:10880000847A021200B3758200783179847A021278
:1088100000B3906174E0FAA3E0FB20E1030288A8B2
:108820009060A27410F0902401E054FDF0902401B7
:10883000E054FEF09060A27411F090240BE0547F9D
:10884000F0E04440F0902402E054F7F0E04404F0FB
:108850007403C0E0900A0178EF798E7A011200B3B8
:1088600015819060A27412F090240BE0547FF09078
:10887000240BE054BFF0902402E054F7F09024025F
:10888000E054FBF07403C0E090030278EF798E7A35
:10889000011200B315819060A27413F075821278F2
:1088A0003179847A021200B3906174E0FAA3E0FB9C
:1088B00020E2030289359060A27414F0758200787A
:1088C0005379947A011200B375820278BC798B7A5D
:1088D000011200B39060A27415F0902401E04402EC
:1088E000F090240BE04480F0E054BFF0E4C0E0904E
:1088F000080278EF798E7A011200B315819060A298
:108900007416F090240BE0547FF090240BE054BFD9
:10891000F0E4C0E090040478EF798E7A011200B39D
:108920001581758201783179847A021200B390241E
:1089300001E054FDF0906174E0FAA3E0FB20E40351
:10894000028ADC9060A27418F020271875820078E3
:108950005379947A011200B375820278BC798B7ACC
:10896000011200B3902404E054BFF0902401E044CD
:1089700001F07A007B00758202C002C00378F979A9
:10898000827A021200B3D003D0029060A27419F070
:1089900090240BE04480F0E054BFF020271BC0027D
:1089A000C003E4C0E0900A0278EF798E7A011200E9
:1089B000B31581D003D0028019C002C003E4C0E027
:1089C00090080278EF798E7A011200B31581D003F6
:1089D000D0029060A2741AF090240BE0547FF0E073
:1089E0004440F020271BC002C003E4C0E09008040C
:1089F00078EF798E7A011200B31581D003D002800E
:108A000019C002C003E4C0E090060478EF798E7AC2
:108A1000011200B31581D003D0029060A2741CF043
:108A2000EB7016758202C002C003783179847A0235
:108A30001200B3D003D002802DEA7016758203C0F5
:108A400002C003783179847A021200B3D003D002D5
:108A50008014758204C002C003783179847A0212CE
:108A600000B3D003D0029060A2741BF09060A0E02D
:108A700030E35BEB701F7B01906661E0FCC002C0DD
:108A800003906700E0C0E08C82121D541581D00372
:108A9000D002028976EA701F7A01906661E0FCC01C
:108AA00002C003906702E0C0E08C82121D54158161
:108AB000D003D002028976906701E0FA906662F0F6
:108AC000906661E0FBC0028B82121D5415819024D8
:108AD00001E054FEF0902404E04440F0906174E022
:108AE000FAA3E0FB20E603028B8B90604FE030E6B8
:108AF00003028B8B9060A27421F0902580E04401EA
:108B0000F090605AE020E22075820178F979827A4B
:108B1000021200B3781F798E7A011200B37874794B
:108B2000827A021200B3800F906039E0F582787487
:108B300079827A021200B39060A27422F0902580AC
:108B4000E04404F0E054FBF090605AE030E214742A
:108B5000FFC0E090200878EF798E7A011200B315FB
:108B600081801274FFC0E0900A0578EF798E7A0157
:108B70001200B315819060A27423F0780B79927A79
:108B8000011200B3AA82906170EAF090605AE0206E
:108B9000E21C2008199060A27424F075820178F913
:108BA00079827A021200B3902580E054FEF0906042
:108BB000A27425F0851881D0180200C5AA82BA00D7
:108BC000028005BA012D8017902405E04408F0903A
:108BD0002405E04401F0902405E04402F0803D903B
:108BE0002405E04408F0E054FEF0902405E054FD34
:108BF000F08029902405E054F7F0902400E0C4545C
:108C00000FFABA0F09902405E054FDF08007902474
:108C100005E04402F0902405E054FEF00200C59007
:108C20002403E04420F0E054DFF0E04402F090241C
:108C300003E054FDF0E04401F0E054FEF0758B9C3D
:108C4000758DFFD28EC20320031790240BE030E510
:108C5000F678DE79B87A021200B390240BE030E5A2
:108C6000E60200C5AA82906016E0FB900224C423AD
:108C70005460F5F0E0549F45F0F0BA010280030221
:108C80008D14902403E04440F09061B8E0902438C3
:108C9000547FF5F0E0548045F0F09061B9E0902405
:108CA00039547FF5F0E0548045F0F09061BAE090DF
:108CB000243A547FF5F0E0548045F0F09061BBE039
:108CC00090243B547FF5F0E0548045F0F09061BC77
:108CD000E090243C547FF5F0E0548045F0F0906142
:108CE000BDE090243D547FF5F0E0548045F0F090D5
:108CF00061BEE090243E547FF5F0E0548045F0F0F2
:108D00009061BFE0FA90243F547FF5F0E054804535
:108D1000F0F08007902403E054BFF0902403E04477
:108D200020F0E054DFF0758B9C758DFFD28EC2036E
:108D300020031590240BE0C4035401FA90240BE0A7
:108D4000C4035401FB5A60E80200C59066F7E0FADC
:108D50006003028E1C7440C0E0E4C0E07480C0E098
:108D60007424C0E0E4C0E090244075F000785179AC
:108D7000BA7A021200B3E58124FBF5819024C0E0A9
:108D8000547F902438547FF5F0E0548045F0F09003
:108D900024C1E0547F902439547FF5F0E05480459D
:108DA000F0F09024C2E0547F90243A547FF5F0E034
:108DB000548045F0F09024C3E0547F90243B547FCE
:108DC000F5F0E0548045F0F09024C4E0547F902406
:108DD0003C547FF5F0E0548045F0F09024C5E05419
:108DE0007F90243D547FF5F0E0548045F0F09024CE
:108DF000C6E0547F90243E547FF5F0E0548045F067
:108E0000F09024C7E0547FFA90243F547FF5F0E0BF
:108E1000548045F0F0902403E04440F00200C590F7
:108E20006158E0FA906159E0FBC0038A82781479B6
:108E3000B97A021200B3AB8215818B0290615AE0BD
:108E4000FBC0038A82781479B97A021200B3AB822C
:108E500015818B0290615BE0FBC0038A82781479F4
:108E6000B97A021200B3AB8215818B0290615CE08B
:108E7000FBC0038A82781479B97A021200B3AB82FC
:108E800015818B0290615DE0FBC0038A82781479C2
:108E9000B97A021200B3AB8215818B0290615EE059
:108EA000FBC0038A82781479B97A021200B3AB82CC
:108EB00015818B0290615FE0FBC0038A8278147990
:108EC000B97A021200B3AB8215818B0290E6AFE053
:108ED000C4540FFB8BF005F0EA8002C313D5F0FBFE
:108EE000FA90E6AFE0540FFB2AFAF5820200C5C003
:108EF00018858118AA82AB83906038E0232354013F
:108F0000FCBC010280119066F7E0FCBC0102800706
:108F1000902411E020E10302913190604FE030E7AE
:108F20001C902405E0540FF0902406E054C0F0900B
:108F30002406E0543FF0902407E4F0804A8B047448
:108F40000F5C902405C454F0F5F0E0540F45F0F0A8
:108F5000ECC4540FFC53043F902406EC543FF5F04E
:108F6000E054C045F0F074035AFB90240603035408
:108F7000C0F5F0E0543F45F0F0EA0303543FFA53E4
:108F8000023F902407EAF0E51824FCF8B6010280BD
:108F90001EE51824FCF8B602028030E51824FCF81F
:108FA000B60302803FE51824FCF8B60466804B90B7
:108FB000240874FFF090240974FFF090240AE05410
:108FC000C0F090240AE054BFF0806190240874FF40
:108FD000F090240974FFF090240AE0443FF0E0543C
:108FE000BFF08048902408E4F0902409F090240A0F
:108FF000E054C0F0E04440F0803290240874FDF06A
:1090000090240974FFF090240AE0443FF0E054BF3C
:10901000F080199024087401F0902409E4F0902461
:109020000AE054C0F090240AE054BFF0E51824FC94
:10903000F8B6FF02804D9060A0E030E21B9024085B
:10904000E0FA530201902408EAF0902409E4F09039
:10905000240AE054C0F0802B9060A4E030E5079033
:10906000240AE054C0F09060A4E030E41690240894
:10907000E0FAA3E0FB530255530355902408EAF0AD
:10908000A3EBF0900264E0C4235403FABA02028016
:109090000D902408E0FA5302FD902408EAF0902491
:1090A00002E054FEF0E04401F078DE79B87A021272
:1090B00000B3906098E020E45330080C758BF8758D
:1090C0008DFFD28EC203800A758B18758DFCD28EEF
:1090D000C203902402E020E1033003F6902402E072
:1090E00054FEF03003209022C2E0FA0A9022C2EA35
:1090F000F09060A3E0FA4302019060A3EAF0C2039B
:1091000090679B7401F0C28EC28F800E902402E0A3
:1091100030E1F9902402E054FEF0902408E4F0904D
:109120002409F090240AE054C0F090240AE054BFCF
:10913000F0D0180200C5900228E003035407FA5348
:1091400002039060A4E054EFF09067967420F090D2
:1091500060A4E054DFF0BA0313902402E0547FF0DF
:10916000E04440F09067957408F0804EBA02139086
:109170002402E04480F0E054BFF09067957404F05E
:109180008038BA0121902402E0547FF0E04440F09E
:109190009067957402F09060A4E04410F09060A491
:1091A000E04420F08014902402E04480F0902402F7
:1091B000E04440F09067957401F0900228E00303CA
:1091C0005407FB30E20B906795E025E0FB90679534
:1091D000F09066F7E0FB700D906795E0C42354E0D3
:1091E000FB906796F0EA7010902402E04420F09023
:1091F00060A4E054F0F08010902402E054DFF0907E
:1092000060A4E054F04405F00200C5C018E581F503
:10921000182408F581902560E0FAA3E0FBA3E0FCA8
:10922000A3E0FDE5182405F8A60208A60308A60495
:1092300008A605902564E0FEA3E0FFA3E0FAA3E002
:10924000FBC006C007C002C003E5182405F88682EB
:109250000886830886F008E6780079807A02120092
:10926000B3AA82AB83ACF0FDE58124FCF581E5185F
:109270002405F8A60208A60308A60408A60590255A
:1092800068E0FAA3E0FBA3E0FCA3E0FDC002C0039A
:10929000C004C005E5182405F88682088683088680
:1092A000F008E6780079807A021200B3AA82AB83D4
:1092B000ACF0FDE58124FCF581E5182405F8A60253
:1092C00008A60308A60408A60590256CE0FAA3E00A
:1092D000FBA3E0FCA3E0FDC002C003C004C005E5A1
:1092E000182405F886820886830886F008E6780048
:1092F00079807A021200B3AA82AB83ACF0FDE581DB
:1093000024FCF581E5182405F8A60208A60308A6A2
:109310000408A605902570E0FAA3E0FBA3E0FCA3F7
:10932000E0FDA81808A60208A60308A60408A605DA
:10933000902574E0FEA3E0FFA3E0FAA3E0FBC006E3
:10934000C007C002C003A818088682088683088662
:10935000F008E6780079807A021200B3AA82AB8323
:10936000ACF0FDE58124FCF581A81808A60208A64A
:109370000308A60408A605902578E0FAA3E0FBA35D
:10938000E0FCA3E0FDC002C003C004C005A81808AB
:1093900086820886830886F008E6780079807A025B
:1093A0001200B3AA82AB83ACF0FDE58124FCF58109
:1093B000A81808A60208A60308A60408A605902572
:1093C0007CE0FAA3E0FBA3E0FCA3E0FDC002C00345
:1093D000C004C005A8180886820886830886F0089D
:1093E000E6780079807A021200B3AA82AB83ACF0EF
:1093F000FDE58124FCF581A81808A60208A603084B
:10940000A60408A60590E6AEE0FAE4FBFCFDE5182C
:109410002405F8C3E69A08E69B08E69C08E69D50FA
:1094200005758200802590E6ACE0FAA3E0FB7C00A5
:109430007D00A81808C3EA96EB0896EC0896ED089C
:109440009650057582008003758201851881D018B9
:039450000200C552
:020000040000FA
:1000DE00D315D3111003D77590550040000280013F
:0C00EE000010D3019300D755D305330058
:020000040001F9
:10945300AA82300C07200D047B0C8013200C0730EC
:109463000D047B038009BA01047B0C80027B0F90FF
:1094730060A4E0540FF4FA5203902400EBC454F0B8
:10948300F5F0E0540F45F0F00200C5902402E054DB
:10949300EFF0900054E04408F0900054E04404F0EE
:1094A300900054E04402F0900054E04401F0900036
:1094B30058E04480F0902401E04404F0902418E044
:1094C30054EFF0902418E054DFF0902405E054FEAC
:1094D300F0902405E054F7F0302710902400E05476
:1094E3000F44C0F0902405E04402F00200C590E66A
:1094F30007E030E2030295B1902401E030E5030276
:1095030095B19066F7E0FABA01030295B19067BD91
:10951300E0FABA01030295B190604CE020E40790B1
:10952300604CE030E3030295B1902406E0543F44DD
:1095330080F09024077405F075820178F979827AB6
:10954300021200B3785B79887A021200B390240880
:10955300E0FA5302FD902408EAF090240AE0444024
:10956300F0902405E054FDF0902405E054FEF090C3
:109573002405E054F7F0D20DD20C902400E0540FF0
:1095830044C0F0902401E04420F0902402E054FE13
:10959300F0E04401F090604EE030E712902401E0E7
:1095A30054FBF0E04410F0902401E04401F0020089
:1095B300C5902401E0C4035401FABA0126758B183F
:1095C300758DFCD28EC203902401E054DFF0902409
:1095D30002E020E1033003F6902402E054FEF0C2DF
:1095E3008EC28F0200C590604CE020E4030296CA4D
:1095F30090604CE030E3030296CA90604CE030E5A3
:10960300030296CA9066F7E0FA60030296CA90676F
:1096130027E0FA60030296CA90663AE02401F090CC
:10962300663AE0FA7403B5020040030296CA9066F4
:109633003AE4F075820178F979827A021200B378FC
:109643005B79887A021200B3902409E4F09024082D
:10965300E0FA53020D902408EAF090240AE0444013
:10966300F0902405E054FDF0902405E054FEF090C2
:109673002405E054F7F0902400E044F0F07404C0B3
:10968300E090101078EF798E7A011200B31581788B
:109693005B79887A021200B3902408E0FA5302F04F
:1096A300902408EAF090240AE054BFF07404C0E068
:1096B30090100178EF798E7A011200B31581780743
:1096C30079847A021200B30200C590604CE030E066
:1096D3002B900264E030E209900264E054FBF080D6
:1096E3002D900264E04404F078E979957A01120040
:1096F300B378DE79C87A011200B3801278E97995DC
:109703007A011200B378DE79C87A011200B302003D
:01971300C590
:020000040002F8
:10800000C018858118AA82AB83ACF0FDE51824F96D
:10801000F8C3E69A08E69B08E69C08E69D50098AA4
:10802000828B838CF0ED800FE51824F9F8868208A6
:1080300086830886F008E6D0180200C5C018E581DE
:10804000F5182408F581902560E0FAA3E0FBA3E091
:10805000FCA3E0FDE5182405F8A60208A60308A67F
:108060000408A605902564E0FEA3E0FFA3E0FAA3C0
:10807000E0FBC006C007C002C003E5182405F8866F
:10808000820886830886F008E6780079807A0212F2
:1080900000B3AA82AB83ACF0FDE58124FCF581E559
:1080A000182405F8A60208A60308A60408A6059049
:1080B0002568E0FAA3E0FBA3E0FCA3E0FDC002C05A
:1080C00003C004C005E5182405F8868208868308E5
:1080D00086F008E6780079807A021200B3AA82ABB3
:1080E00083ACF0FDE58124FCF581E5182405F8A6B4
:1080F0000208A60308A60408A60590256CE0FAA3CA
:10810000E0FBA3E0FCA3E0FDC002C003C004C00587
:10811000E5182405F886820886830886F008E67844
:108120000079807A021200B3AA82AB83ACF0FDE53D
:108130008124FCF581E5182405F8A60208A60308A9
:10814000A60408A605902570E0FAA3E0FBA3E0FCD6
:10815000A3E0FDA81808A60208A60308A60408A61E
:1081600005902574E0FEA3E0FFA3E0FAA3E0FBC0C6
:1081700006C007C002C003A81808868208868308C4
:1081800086F008E6780079807A021200B3AA82AB02
:1081900083ACF0FDE58124FCF581A81808A602084F
:1081A000A60308A60408A605902578E0FAA3E0FB3C
:1081B000A3E0FCA3E0FDC002C003C004C005A818F2
:1081C0000886820886830886F008E6780079807A37
:1081D000021200B3AA82AB83ACF0FDE58124FCF56A
:1081E00081A81808A60208A60308A60408A60590F8
:1081F000257CE0FAA3E0FBA3E0FCA3E0FDC002C005
:1082000003C004C005A8180886820886830886F083
:1082100008E6780079807A021200B3AA82AB83ACB8
:10822000F0FDE58124FCF581A81808A60208A60344
:1082300008A60408A605E5182405F8C3E694640812
:10824000E6940008E6940008E69400500575820064
:10825000801AA81808C3E49674040896E40896E403
:10826000089650057582008003758201851881D0BB
:10827000180200C5AA82902440EA543FF5F0E05469
:10828000C045F0F0902441EA543FF5F0E054C04579
:10829000F0F0902442EA543FF5F0E054C045F0F08D
:1082A000902443EA543FF5F0E054C045F0F09024A8
:1082B00060EA543FF5F0E054C045F0F0902461EAE4
:1082C000543FF5F0E054C045F0F0902462EA543F8A
:1082D000F5F0E054C045F0F0902463EA543FF5F027
:1082E000E054C045F0F0902430740FF0E4F0902496
:1082F00034740FF0E4F00200C5AA82BA01028008CB
:10830000BA0202805F0283FD7440C0E0E4C0E07402
:1083100078C0E07461C0E0E4C0E090244075F000F3
:10832000785179BA7A021200B3E58124FBF5819085
:10833000243074FFF0A3F0A3F0A3747FF0902430F6
:10834000E4F0A3F0A3F0A3F090243474FFF0A3F0C2
:10835000A3F0A3747FF0902434E4F0A3F0A3F0A37F
:10836000F00283FD906178E0902440543FF5F0E006
:1083700054C045F0F0906179E0902441543FF5F00D
:10838000E054C045F0F090617AE0902442543FF50B
:10839000F0E054C045F0F090617BE0902443543FFE
:1083A000F5F0E054C045F0F0906198E090246054FE
:1083B0003FF5F0E054C045F0F0906199E090246101
:1083C000543FF5F0E054C045F0F090619AE09024FD
:1083D00062543FF5F0E054C045F0F090619BE0FA44
:1083E000902463543FF5F0E054C045F0F090243001
:1083F000740FF0E4F0902434740FF0E4F090240B48
:10840000E030E5F90200C57440C0E0E4C0E07480EB
:10841000C0E07424C0E0E4C0E090617875F00078BA
:108420005179BA7A021200B3E58124FBF58102008A
:10843000C5AA82BA00028027BA01030284B5BA0233
:10844000030284F9BA030302853DBA04030285815D
:10845000BA10030285C5BA12030285EF0286C890DE
:1084600024D0E0906148F09024D1E0906149F090F0
:1084700024D2E090614AF09024D3E090614BF090D8
:1084800024F0E090614CF09024F1E090614DF09088
:1084900024F2E090614EF09024F3E0FA90614FF006
:1084A00090240BE030E2047A0180027A009061713E
:1084B000EAF00286C89024D0E0906150F09024D178
:1084C000E0906151F09024D2E0906152F09024D37A
:1084D000E0906153F09024F0E0906154F09024F12A
:1084E000E0906155F09024F2E0906156F09024F312
:1084F000E0FA906157F00286C89024D0E09061586D
:10850000F09024D1E0906159F09024D2E090615A2B
:10851000F09024D3E090615BF09024F0E090615CF7
:10852000F09024F1E090615DF09024F2E090615EC3
:10853000F09024F3E0FA90615FF00286C89024D0B6
:10854000E0906160F09024D1E0906161F09024D2DD
:10855000E0906162F09024D3E0906163F09024F0A9
:10856000E0906164F09024F1E0906165F09024F275
:10857000E0906166F09024F3E0FA906167F0028683
:10858000C89024D0E0906168F09024D1E0906169B7
:10859000F09024D2E090616AF09024D3E090616B77
:1085A000F09024F0E090616CF09024F1E090616D27
:1085B000F09024F2E090616EF09024F3E0FA906184
:1085C0006FF00286C87440C0E0E4C0E074D0C0E040
:1085D0007424C0E0E4C0E090610075F00078517947
:1085E000BA7A021200B3E58124FBF5810286C890B5
:1085F00024C0E0547F9061B8547FF5F0E05480458A
:10860000F0F09024C1E0547F9061B9547FF5F0E020
:10861000548045F0F09024C2E0547F9061BA547FBA
:10862000F5F0E0548045F0F09024C3E0547F906171
:10863000BB547FF5F0E0548045F0F09024C4E05442
:108640007F9061BC547FF5F0E0548045F0F09024B9
:10865000C5E0547F9061BD547FF5F0E0548045F053
:10866000F09024C6E0547F9061BE547FF5F0E05452
:108670008045F0F09024C7E0547F9061BF547FF5AF
:10868000F0E0548045F0F0902510E0906140F090CB
:108690002511E0906141F0902512E0906142F09048
:1086A0002513E0906143F0902514E0906144F09030
:1086B0002515E0906145F0902516E0906146F09018
:1086C0002517E0FA906147F00200C5AA82BA0002BD
:1086D0008009BA02030287670287F0906148E09040
:1086E0002440543FF5F0E054C045F0F0906149E07B
:1086F000902441543FF5F0E054C045F0F090614AB9
:10870000E0902442543FF5F0E054C045F0F0906111
:108710004BE0902443543FF5F0E054C045F0F09016
:10872000614CE0902460543FF5F0E054C045F0F017
:1087300090614DE0902461543FF5F0E054C045F065
:10874000F090614EE0902462543FF5F0E054C04553
:10875000F0F090614FE0FA902463543FF5F0E0545C
:10876000C045F0F00287F0906158E0902440543FFB
:10877000F5F0E054C045F0F0906159E09024415488
:108780003FF5F0E054C045F0F090615AE09024428B
:10879000543FF5F0E054C045F0F090615BE0902468
:1087A00043543FF5F0E054C045F0F090615CE09038
:1087B0002460543FF5F0E054C045F0F090615DE076
:1087C000902461543FF5F0E054C045F0F090615EB4
:1087D000E0902462543FF5F0E054C045F0F0906121
:1087E0005FE0FA902463543FF5F0E054C045F0F0A8
:1087F000902430740FF0E4F0902434740FF0E4F01F
:1088000090240BE030E5F90200C5E582FA602B9078
:10881000604CE030E010900264E054E7F090020C0D
:10882000E0548FF08026900264E054E74408F09012
:10883000020CE0548F4430F08012900264E054E760
:108840004410F090020CE0548F4420F090000A781D
:108850000479B57A021200B30200C59060A4E0303A
:10886000E4119024087455F0A3F090240AE054C059
:10887000F0800F90240874FFF0A3F090240AE044E5
:108880003FF0902401E054FDF0902401E054FEF00C
:1088900090240AE054BFF0902402E054F7F09024B2
:1088A00002E054FBF090240BE0547FF090240BE0A6
:0688B00054BFF00200C5F8
:020000040000FA
:1000FA00906099E0FABA170978FC79A87A02120096
:10010A00B3906098E054FEF0902230742BF0227580
:10011A00880575895175A91C75B906D2ABD2ADD2BD
:10012A00A8D2AAC2A975B83F75C878759A3EC20501
:10013A00C206C207C208906711E4F0C209C20AD215
:0D014A0003D204C21DC21E9067A7E4F0227C
:020000040001F9
:10971400906038E0547FF0906098E030E110906001
:109724009CE0FAA3E0FB906174EAF0A3EBF090678D
:109734009BE4F07A03C002780779847A011200B3BB
:10974400D00290679BE0FB6027906037E0FBBB0191
:10975400109060407401F0906040E0FBBB01028017
:10976400F68A031AC374808BF063F08095F040C5C9
:1097740078AF799C7A011200B3785E79A27A0112EB
:1097840000B3906038E04480F0906658E0FA90604E
:109794004AEAF0906659E0FA906049EAF090665F10
:1097A400E0FA906048EAF090665AE0FA90604BEA7A
:1097B400F00200C590614AE0FA90614BE0FBC00200
:1097C4008B8278EB79B87A021200B3AB8215818B65
:1097D4000290614EE0FBC0028B8278EB79B87A028A
:1097E4001200B3AB8215818B0290614FE0FBC00283
:1097F4008B8278EB79B87A021200B3AB8215819030
:109804006643EBF0906148E0FA906149E0FBC002E6
:109814008B8278EB79B87A021200B3AB8215818B14
:109824000290614CE0FBC0028B8278EB79B87A023B
:109834001200B3AB8215818B0290614DE0FBC00234
:109844008B8278EB79B87A021200B3AA82158190E0
:109854006642EAF090614AE0FA7B0090614BE0FCDA
:109864007D00EC2AFAED3BFB90614EE0FC7D00ECC0
:109874002AFAED3BFB90614FE0FC7D00EC2AFAED07
:109884003BA2E713CA13CAA2E713CA13CA906641DC
:10989400EAF0906148E0FA7B00906149E0FC7D00C9
:1098A400EC2AFAED3BFB90614CE0FC7D00EC2AFADB
:1098B400ED3BFB90614DE0FC7D00EC2AFAED3BA210
:1098C400E713CA13CAA2E713CA13CA906640EAF0A0
:1098D400906152E0FA7B00906153E0FC7D00EC2A39
:1098E400FAED3BFB906156E0FC7D00EC2AFAED3B7F
:1098F400FB906157E0FC7D00EC2AFAED3BA2E713F4
:10990400CA13CAA2E713CA13CA906645EAF0906163
:1099140050E0FA7B00906151E0FC7D00EC2AFAED06
:109924003BFB906154E0FC7D00EC2AFAED3BFB909C
:109934006155E0FC7D00EC2AFAED3BA2E713CA1363
:10994400CAA2E713CA13CA906644EAF090610CE015
:10995400FA3395E0FB90612CE0FC3395E0FDEC2AB2
:10996400FAED3BA2E713CA13CA906646EAF0906187
:1099740004E0FA3395E0FB906105E0FC3395E0FDEB
:10998400EC2AFAED3BFB906124E0FC3395E0FDEC1E
:109994002AFAED3BFB906125E0FC3395E0FDEC2ACF
:1099A400FAED3BA2E713CA13CAA2E713CA13CA907B
:1099B4006647EAF0906106E0FA3395E0FB906107B0
:1099C400E0FC3395E0FDEC2AFAED3BFB906126E0E8
:1099D400FC3395E0FDEC2AFAED3BFB906127E0FCBB
:1099E4003395E0FDEC2AFAED3BA2E713CA13CAA2B1
:1099F400E713CA13CA906648EAF0906108E0FA33A4
:109A040095E0FB906109E0FC3395E0FDEC2AFAED6A
:109A14003BFB906128E0FC3395E0FDEC2AFAED3B3A
:109A2400FB906129E0FC3395E0FDEC2AFAED3BA2C2
:109A3400E713CA13CAA2E713CA13CA906649EAF025
:109A440090610AE0FA3395E0FB90610BE0FC3395FA
:109A5400E0FDEC2AFAED3BFB90612AE0FC3395E053
:109A6400FDEC2AFAED3BFB90612BE0FC3395E0FD25
:109A7400EC2AFAED3BA2E713CA13CAA2E713CA13EE
:109A8400CA90664AEAF090610DE0FA3395E0FB90E3
:109A9400612DE0FC3395E0FDEC2AFAED3BA2E713DF
:109AA400CA13CA90664BEAF090610EE0FA3395E06F
:109AB400FB90612EE0FC3395E0FDEC2AFAED3BA22D
:109AC400E713CA13CA90664CEAF090610FE0FA33C8
:109AD40095E0FB90612FE0FC3395E0FDEC2AFAED74
:109AE4003BA2E713CA13CA90664DEAF0906110E0F6
:109AF400FA3395E0FB906130E0FC3395E0FDEC2A0D
:109B0400FAED3BA2E713CA13CA90664EEAF09061DD
:109B14005AE0FA7B0090615BE0FC7D00EC2AFAEDF0
:109B24003BFB90615EE0FC7D00EC2AFAED3BFB9090
:109B3400615FE0FC7D00EC2AFAED3BA2E713CA1357
:109B4400CAA2E713CA13CA906650EAF0906158E0BB
:109B5400FA7B00906159E0FC7D00EC2AFAED3BFBB6
:109B640090615CE0FC7D00EC2AFAED3BFB90615DCA
:109B7400E0FC7D00EC2AFAED3BA2E713CA13CAA26B
:109B8400E713CA13CAFB90664FEAF09060A0E02086
:109B9400E303029C16906162E0FA7B00906163E04B
:109BA400FC7D00EC2AFAED3BFB906166E0FC7D0055
:109BB400EC2AFAED3BFB906167E0FC7D00EC2AFAAD
:109BC400ED3BA2E713CA13CAA2E713CA13CA9066ED
:109BD40052EAF090616AE0FA7B0090616BE0FC7DF0
:109BE40000EC2AFAED3BFB90616EE0FC7D00EC2A70
:109BF400FAED3BFB90616FE0FC7D00EC2AFAED3B53
:109C0400A2E713CA13CAA2E713CA13CAFB90665485
:109C1400EAF0906170E0906655F0906174E0FAA308
:109C2400E0FB20E103029CAC902510E0FA3395E0C0
:109C3400FB902511E0FC3395E0FDEAC39CFAEB9D13
:109C4400FB902514E0FC3395E0FDEC2AFAED3BFB98
:109C5400902515E0FC3395E0FDEAC39CFAEB9D8A60
:109C640004906656ECF0902512E0FA3395E0FB90F0
:109C74002513E0FC3395E0FDEAC39CFAEB9DFB90D1
:109C84002516E0FC3395E0FDEC2AFAED3BFB90252C
:109C940017E0FC3395E0FDEAC39CFAEB9DFB90666C
:109CA40057EAF0906798E4F00200C5C0188581185F
:109CB400058178B879977A011200B3300D37200CFA
:109CC40034906644E090665AF0906640E09066599D
:109CD400F0906642E0906658F0906647E090665BCC
:109CE400F0906649E090665CF090664FE0FA90660A
:109CF4005FF0029E12200D37300C34906645E090E0
:109D0400665AF0906641E0906659F0906643E090A0
:109D14006658F0906648E090665BF090664AE09082
:109D2400665CF0906650E0FA90665FF0029E1290D6
:109D34006644E0FA7B00906645E0FC7D002AFAED7B
:109D44003BFB0ABA00010BEBA2E713CA13CA9066E5
:109D54005AEAF0906640E0FA7B00906641E0FC7DB0
:109D6400002AFAED3BFB0ABA00010BEBA2E713CA87
:109D740013CA906659EAF0906643E0FA906642E0AE
:109D8400FBC0028B8278EB79B87A021200B3AA8204
:109D94001581906658EAF0906647E0FA3395E0FB47
:109DA400906648E0FC3395E0FDEC2AFAED3BFB0AB3
:109DB400BA00010BEBA2E713CA13CA90665BEAF080
:109DC400906649E0FA3395E0FB90664AE0FC3395EF
:109DD400E0FDEC2AFAED3BFB0ABA00010BEBA2E72B
:109DE40013CA13CA90665CEAF090664FE0FA7B00EF
:109DF400906650E0FC7D002AFAED3BFB0ABA0001B4
:109E04000BEBA2E713CA13CAFB90665FEAF09066F5
:109E14005AE0FA906659E0FBEAC39B90665DF090C5
:109E2400665DE0FA74C1C0E0743FC0E08A82783DA8
:109E340079B97A021200B3AA821581158190665D00
:109E4400EAF0906646E0F582781A79BA7A0212004E
:109E5400B3E582FA3395E0FB90665BE0F582C002DD
:109E6400C003781A79BA7A021200B3AC82D003D054
:109E740002EC3395E0FDEC2AFAED3BFB90665CE0E6
:109E8400F582C002C003781A79BA7A021200B3AC20
:109E940082D003D002EC3395E0FDEC2AFAED3BFBD3
:109EA40090664BE0F582C002C003781A79BA7A0250
:109EB4001200B3AC82D003D002EC3395E0FDEC2A5F
:109EC400FAED3BFB90664CE0F582C002C003781AC1
:109ED40079BA7A021200B3AC82D003D002EC339583
:109EE400E0FDEC2AFAED3BFB90604DE023235401A6
:109EF400FCB40100E433FC604A906658E0FC9060D6
:109F040067E0FDECB50500B3E433FD703190606E9D
:109F1400E0FDECB50500B3E433FC601690606DE041
:109F2400FC7D00C3EA9CEB64808DF063F08095F0C7
:109F340040047A0080027A01EA7003FA80027A010E
:109F4400EA70047A0080027A01906666EAF0906012
:109F54004DE023235401FAB40100E433FA6048903D
:109F64006646E0F582781A79BA7A021200B3AA82B8
:109F7400906066E0FBEAB50300B3E433FB70239022
:109F8400665BE0F582781A79BA7A021200B3AA8283
:109F940090606FE0FBEAB50300B3E433FB7003FAAF
:109FA40080027A01EA70047A0080027A019066677E
:109FB400EAF0906666E07009906667E07003FA80E4
:109FC400027A01906668EAF090665FE0FA90604F6A
:109FD400E0543FFB8A04C3EB64808CF063F080950B
:109FE400F05006906655E070047B0080027B01907F
:109FF4006669EBF090604DE0541FFB8A04C3EC6487
:10A00400808BF063F08095F0B3E433FC60069066D7
:10A0140055E070047B0080027B0190666AEBF0904F
:10A02400665AE0FB906659E0FCEBB5040040048CF2
:10A03400058007EB2BFBC39CFCFD906655E060108C
:10A0440090600AE020E2028D0290665EEAF08005EC
:10A0540090665EE4F0900050E0C423540390666D73
:10A06400E4F0A3F090666DE0FAA3E0FB906088A8AA
:10A074001808E0035401F6906646E0FD3395E0FECF
:10A08400900050E003540390A36793FF3395E0FCE2
:10A09400C002C003C007C0048D828E83126D60AC01
:10A0A40082AD8315811581A8180886067F00C00437
:10A0B400C0058E828F83126D60AC82AD83158115CD
:10A0C40081D003D002EC2AFAED3BFB90666DEAF0F6
:10A0D400A3EBF0900050E0540190A36B93FC3395F4
:10A0E400E0FD90665BE0FE3395E0FFC002C003C074
:10A0F40006C0078C828D83126D60AC82AD8315819E
:10A104001581D003D002EC2AFAED3BFB90666DEA90
:10A11400F0A3EBF0900050E0540190A36D93FC3356
:10A1240095E0FD90665CE0FE3395E0FFC002C0035D
:10A13400C006C0078C828D83126D60AC82AD83151E
:10A14400811581D003D002EC2AFAED3BFB90666DB9
:10A15400EAF0A3EBF0900050E0540190A36F93FC5D
:10A164003395E0FD90664BE0FE3395E0FFC002C0FE
:10A1740003C006C0078C828D83126D60AC82AD83F0
:10A1840015811581D003D002EC2AFAED3BFB9066D1
:10A194006DEAF0A3EBF0900054E023540190A37116
:10A1A40093FC3395E0FD90664CE0FE3395E0FFC0F0
:10A1B40002C003C006C0078C828D83126D60AC821E
:10A1C400AD8315811581D003D002EC2AFAED3BFB57
:10A1D40090666DEAF0A3EBF0900054E023540190F4
:10A1E400666DEAF0A3EBF0900054E023540190660E
:10A1F4006DEAF0A3EBF0E4C0E074FCC0E0E4C0E07E
:10A204007404C0E08A828B8378BE79B97A02120022
:10A21400B3AA82AB83E58124FCF58190666DEAF0F4
:10A22400A3EBF090666DE0FAA3E0FB9066CAE0FC55
:10A234003395E0FDEAC39CF582EB9DF58378317993
:10A24400BA7A021200B3AA82AB8390666BEAF0A3D7
:10A25400EBF0851881D0180200C5906655E07003B4
:10A26400FA804D90665FE0FB90604EE05407FC8BF3
:10A2740005C3ED64808CF063F08095F050047A019E
:10A28400802E90604DE0541FFCC3EB64808CF0631F
:10A29400F08095F050047A028016906668E06004BD
:10A2A4007A03800C906669E070047A0480027A056F
:10A2B400906663EAF00200C5906727E0FABA0102EB
:10A2C40080089066F7E0FABA010302A36090604C3C
:10A2D400E030E30302A36090604CE020E507906760
:10A2E40015E0FA600302A360906047E020E1028079
:10A2F4006B78B479957A011200B39000EEE493FA86
:10A30400A3E493FB906174EAF0A3EBF078077984FB
:10A314007A011200B3906158E0FA7B00906159E031
:10A32400FC7D00EC2AFAED3BFB90615CE0FC7D00D7
:10A33400EC2AFAED3BFB90615DE0FC7D00EC2AFA2F
:10A34400ED3BA2E713CA13CAA2E713CA13CA90606B
:10A35400A1EAF078F179947A011200B30200C503FE
:0FA36400040607030406070305030502030102AD
:020000040000FA
:10021C00C018E581F5182407F581900228E0030346
:10022C005407FA53020390605AE003035401FBBBDA
:10023C00010280030203D6906038E030E30302032E
:10024C00D6C00278B479957A011200B3D00290002E
:10025C0060E0C403540190671DF090005CE003540F
:10026C000190671EF0902400E0C4540F906724F0B6
:10027C00902406E0543FFBE4CBC4CB6BCB54F0CBC7
:10028C006BFC902405E0C4540FFD7E00906725EDB7
:10029C004BF0EE4CA3F0900058E0232354019067F0
:1002AC0021F0900058E0C4035401906722F0902490
:1002BC0010E0C45401906723F09066F7E0FB906760
:1002CC009CF09066F7E4F0BA0309900060E04420DB
:1002DC00F0800ABA020790005CE04402F090605A89
:1002EC00E030E01DD20CC20DEA700B902400E054FB
:1002FC000F44C0F08026902400E0540F4480F0801E
:10030C001BC20CD20DEA700B902400E0540F443049
:10031C00F08009902400E0540F4420F0902408E46D
:10032C00F0A3F090240AE054C0F090240AE054BFEB
:10033C00F0902406E0543F4480F09024077402F0BF
:10034C00902405E0540F4450F0902406E054C0F083
:10035C00780779847A021200B378FC79A87A0212B1
:10036C0000B3900028E003547F906045F090223059
:10037C00742BF0A20DE43390005813E092E5F0A238
:10038C000CE43390005813E092E6F0900058E054DF
:10039C00EFF0786A79A77A011200B3902580E044D7
:1003AC0001F0906059E054FCF0906058E4F09067D4
:1003BC000EF0A3F09067277401F0906038E04408C9
:1003CC00F0902230742BF00207C490605AE00303C3
:1003DC005401FABA010280030206DB906038E0C4D3
:1003EC00235401FABA010280030206DB906038E064
:1003FC00C45401FABA010280030206DB906059E092
:10040C005403FA30E11A906059E05403FB7A00432C
:10041C0003FC906058E0FC7D004202ED4203801921
:10042C00906059E05403FD7C00906058E0FE7F0022
:10043C004204EF42058C028D0390670EE0FCA3E0B2
:10044C00FDEAC39CF582EB9DF583C002C00312202C
:10045C00E3D003D00290670EEAF0A3EBF09060B00B
:10046C00E4F09060ACF0A3F0A3F0A3F09060B2E4E1
:10047C00F09060A8F0A3F0A3F0A3F09060B1E4F0CA
:10048C009060E0F0A3F0A3F0A3F09060B3E4F090E0
:10049C0060DCF0A3F0A3F0A3F09060A5E0540FFA99
:1004AC00BA030050047B03800F740CB50200500497
:1004BC007C0C80028A048C038B021A1A1AEA2A25F5
:1004CC00E0248AFAE43408FB9000E8E493FCA3E40B
:1004DC0093FD906174ECF0A3EDF0C002C0037807BB
:1004EC0079847A011200B3D003D002A818087600E0
:1004FC00A81808B602004003020659C002C00390B7
:10050C0060B0E0FDA81808E675F002A4FEE5F0CE98
:10051C0025E0CE33CE25E0CE33FFEE2470FAEF3457
:10052C0025FB7C00C003C005C006C007C002C00389
:10053C00C0049060AC75F0001207CAAA8215811530
:10054C00811581D007D006D005D003EA2D9060B07C
:10055C00F09060B2E0FAEE2460FBEF3425FC7D00F5
:10056C00C002C006C007C003C004C0059060A875D7
:10057C00F0001207CAAB82158115811581D007D006
:10058C0006D002EB2A9060B2F0E0FCA81808E5183F
:10059C002406F9E6F7E4C725E0C733C725E0C733DF
:1005AC0009F7E5182406F8E624F0FD08E63425FAE8
:1005BC008D828A83A3A3A3A3E02C9060B2F09060F9
:1005CC00B1E0FCEE2474FDEF3425FA7B00C003C0CF
:1005DC0004C006C007C005C002C0039060E075F0FF
:1005EC00001207CAAA82158115811581D007D00681
:1005FC00D004D003EA2C9060B1F09060B3E0FAEE36
:10060C002464FEEF3425FF7B00C002C006C007C087
:10061C00039060DC75F0001207CAAB82158115815E
:10062C001581D002EB2A9060B3F0E0FAE5182406AD
:10063C00F8E624F0F58208E63425F583E02A90608C
:10064C00B3F0A8180806D003D0020204FC9060B2E4
:10065C00E0FCA8180808A6040876000876000876BE
:10066C0000A8180808E6080808F6181818760008F4
:10067C0076000876009060A8E0A3E0FDA3E0FEA35E
:10068C00E0FF8D048E058F067F00A8180808EC4645
:10069C00F6ED0846F6EE0846F6EF0846F68A828B2B
:1006AC0083E493FCA3E493FDA3E493FEA3E493FF00
:1006BC00A8180808C3E69C08E69D08E69E08E69F75
:1006CC0050030204D4906038E054EFF00207C49059
:1006DC006727E0FABA010280030207C490605AE06F
:1006EC0030E2030207C4902580E054FEF09060389D
:1006FC00E054F7F0906038E054EFF0906727E4F0A6
:10070C00906721E090005813E092E6F0906722E0A9
:10071C0090005813E092E5F078FC79A87A02120068
:10072C00B390671DE090006013E092E5F090671EB7
:10073C00E090005C13E092E1F0906724E0902400DC
:10074C00C454F0F5F0E0540F45F0F0906725E0FA52
:10075C00A3E0FB740F5A902405C454F0F5F0E05458
:10076C000F45F0F0EBC4CAC4540F6ACA540FCA6ADE
:10077C00CA53023F902406EA543FF5F0E054C045BA
:10078C00F0F0906723E090241013E092E4F090676F
:10079C009CE09066F7F075820278F979827A021201
:1007AC0000B3902230742BF090604CE020E5097877
:1007BC00F179947A011200B3851881D01822C018EF
:1007CC00858118C082C083C0F0E581240BF581A817
:1007DC00180886820886830886F0E5182404F91226
:1007EC006E45F7A3126E4509F7A3126E4509F7A3E0
:1007FC00126E4509F7E51824FBF8860308860408F1
:10080C0086028B828C838AF0E5182408F8126E45D8
:10081C00F6A3126E4508F6A3126E4508F6A3126EE7
:10082C004508F6E5182404F8E5182408F9E726FE2F
:10083C0009E70836FF09E70836FA09E70836FBA886
:10084C00180886820886830886F0EE126D47A3EF9F
:10085C00126D47A3EA126D47A3EB126D47E51824FE
:10086C0008F8C3EE96EF0896EA0896EB0896500542
:10087C007582018003758200851881D018220400CE
:10088C0000002800000087010000430F000096982C
:10089C000000E2F50500CB9A3B00E50B5402E8762C
:1008AC00481711A5D4E87A0E7B0000000000000068
:1008BC00000000001ABAFF011BEA4B60030208B6E5
:1008CC002290223374FFF090220BE0547FF075F7E6
:1008DC000175F70122C0E0C082C083C0D075D01072
:1008EC00C2AF90223374F0F0C28DC28C902233745C
:1008FC00FFF0D2AFD0D0D083D082D0E032C0D07550
:10090C00D010C2AFC28EC28FD203D2AFD0D032C001
:10091C00E0C082C083C0D075D010C2AF90223374B7
:10092C00F2F075C878C2C6D204906033E020E503BB
:10093C000209D92006030209D99066CCE0FA7003AB
:10094C000209D9902603E020E410902600E0547FA1
:10095C00F0902601E04401F08032902609E0FA2064
:10096C00E71C90A316E05407FABA030280109026F5
:10097C0000E04480F0902601E04401F0800E9026C7
:10098C0000E04480F0902601E054FEF0902603E055
:10099C0020E71C902126E020E215906083E0448043
:1009AC00F0902600E0547FF0902601E054FEF09089
:1009BC006083E04440F0906083E04402F0902603B2
:1009CC00E04408F0906083E04408F0802D9026030A
:1009DC00E020E0263007239066CCE0FA601C9026DD
:1009EC0002E04480F0906083E04401F0906083E08A
:1009FC004410F0906083E04420F090223374FFF0B8
:100A0C00D2AFD0D0D083D082D0E032C0E0C082C090
:100A1C0083C0D075D010902233740DF074FFF0D0D9
:100A2C00D0D083D082D0E032C0E0C082C083C0D0AE
:100A3C0075D010C2AF9022337403F090201BE030BD
:100A4C00E1089020537402F0E4F090201BE030E2B7
:100A5C00369020537404F0E4F090A31BE020E527BB
:100A6C00902007E020E520902200E0FA90E650E08C
:100A7C00FBEAB5131290A34E740EF0740CF07408CC
:100A8C00F0E4F0902236F090223374FFF0D2AFD025
:100A9C00D0D083D082D0E032C0E0C082C083C0D03E
:100AAC0075D0107A00C2AF9022337401F090201AE6
:100ABC00E030E1679020527402F0E4F0902200E004
:100ACC00700E902034E05401FB90E651EBF0800C5A
:100ADC00902034E05401FB90E652EBF0902034E08F
:100AEC0020E01790A02FE054EFF090A02FE054DFFF
:100AFC00F090A327E054F7F0802190E651E0601BC2
:100B0C0090E652E0601590A02FE04410F090A02FDA
:100B1C00E04420F090A327E04408F090201BE03044
:100B2C00E010902200E0FB90E650E0FCEBB51402E4
:100B3C007A0190201BE020E403020D2890205374CE
:100B4C001BF0E4F0902007E0C4035401FBBB010848
:100B5C009022367401F08005902236E4F090662BDA
:100B6C00E0FB600B90223374FFF0D2AF020D30909B
:100B7C002230E0FBBB1B02802BBB2002805FBB2121
:100B8C00028021BB2202806BBB23028066BB240245
:100B9C00804BBB25028046BB26028041BB330280C2
:100BAC0052020C56902007E0C4035401FBBB010B0E
:100BBC00D20590A2B67401F0020D28EA7003020D62
:100BCC00289022317421F090223374FFF090220B84
:100BDC00E0547FF075F70175F701020D289020079E
:100BEC00E0C4035401FABA01028003020D28D205B5
:100BFC00020D28902007E020E523902002E054FB12
:100C0C00F09022317421F090223374FFF090220B7B
:100C1C00E0547FF075F70175F701020D2890210261
:100C2C00E003035401FABA0105D205020D28902203
:100C3C00317422F090223374FFF090220BE0547F39
:100C4C00F075F70175F701020D28902007E030E5EB
:100C5C0007902007E020E42A902002E054FBF0905B
:100C6C002102E054BFF09022317421F090223374B1
:100C7C00FFF090220BE0547FF075F70175F701023D
:100C8C000D28902102E020E254902102E054BFF0A4
:100C9C0090E604E020E31B9022317422F090223382
:100CAC0074FFF090220BE0547FF075F70175F7019B
:100CBC00806A902007E030E31C902007E04440F06D
:100CCC00902007E04440F0902007E04440F0902052
:100CDC0007E04480F090223A7401F0803F902102AA
:100CEC00E030E23890E604E030E331902007E02079
:100CFC00E323902007E030E71C902007E0547FF0BE
:100D0C00902007E0547FF0902007E0547FF0902073
:100D1C0007E054BFF0902102E04440F0902233747D
:100D2C00FFF0D2AFD0D0D083D082D0E032C0E0C0C0
:100D3C0082C083C0D075D010C2AFC29B90223374D6
:100D4C0008F090201AE020E703020DD8902052748E
:100D5C0080F0E4F0902007E05401FABA016E902282
:100D6C0030E0FABA1B02800FBA2102800ABA2202C2
:100D7C008022BA233C801D9022317420F0D29B90AB
:100D8C00223374FFF090220BE0547FF075F701755D
:100D9C00F70180239022317433F0D29B902233746C
:100DAC00FFF090220BE0547FF075F70175F701808E
:100DBC0006902231741FF0D29B90223374FFF09076
:100DCC00220BE0547FF075F70175F70190201AE0C3
:100DDC0030E6339020527440F0E4F0902007E0208D
:100DEC00E514902236E4F0902006E0235401FABA80
:100DFC0001028002D205902006E0235401FA9020D3
:100E0C000013E092E6F090223374FFF0D29BD2AF45
:100E1C00D0D0D083D082D0E032C0D075D010D0D01A
:100E2C0032C0E0C082C083C0D075D010C2AF902257
:100E3C00337402F090202BE030E60F902057744072
:100E4C00F0E4F0902102E054BFF090202BE030E76A
:100E5C000F9020577480F0E4F0902002E054FBF0E7
:100E6C00902053E04408F0E054F7F090A316E054BF
:100E7C0007FABA04239022317403F0902238E0FA76
:100E8C00431201902238EAF0902003E04404F090E1
:100E9C002003E04401F080069022317419F0902276
:100EAC003374FFF090220BE0547FF075F70175F767
:100EBC000190223374FFF0D2AFD0D0D083D082D047
:100ECC00E032C0E0C082C083C0D075D010C2AFC2C7
:100EDC009E902233740BF0902620E020E003020F4A
:100EEC00609026447401F0E4F0A207E433FA9022F7
:100EFC00B4EAF0902002E030E25A20072490260158
:100F0C00E030E550902603E04404F0D2079066CC24
:100F1C00E4F0C20375C860C2C69022317428F08018
:100F2C0033902231E0FABA2910C207902603E0541C
:100F3C00FEF0902603E054FBF0902231742AF0D29C
:100F4C009E90223374FFF090220BE0547FF075F7E3
:100F5C000175F701902143E030E52B90215BE044D3
:100F6C0020F0E054DFF0902603E020E719902601F2
:100F7C00E030E612902126E020E20B902274E0543F
:100F8C00F7F0E04408F090223374FFF0D29ED2AF19
:100F9C00D0D0D083D082D0E032C0E0C082C083C039
:100FAC00D075D010C2AF9022337405F090264474E3
:100FBC0002F0E4F0A206E433FA9022B4EAF09026B0
:100FCC0001E030E67220066F902603E04402F090B8
:100FDC0022317428F0D20690A316E05407FABA0313
:100FEC00028007902636E04480F0906711E4F0C24E
:100FFC000375C860C2C6902250E054DFF09066CCF6
:10100C00E4F0902143E054DFF0902143E054BFF032
:10101C009022D8E04408F0E054F7F0902603E0303A
:10102C00E707902604E4F0A3F0902602E04420F0B9
:10103C00E054DFF002113F902601E030E63E30062E
:10104C003B902603E0C45401FABA0130902231746B
:10105C0028F0906711E4F0C20375C860C2C69026F0
:10106C0000E054FBF0902603E054EFF0202603023E
:10107C00113F902601E0547FF002113F902601E0D1
:10108C0020E64E30064B902603E020E444902231BB
:10109C00E0FABA2A21C206902600E054FBF0902612
:1010AC0003E054EFF0302607902601E0547FF090D7
:1010BC002603E054FDF09022317429F09022337411
:1010CC00FFF090220BE0547FF075F70175F701806B
:1010DC0062902601E030E65B300658906711E4F030
:1010EC00C20375C860C2C6902250E054DFF0902253
:1010FC0074E054F7F0902600E054FBF0902603E0E7
:10110C0054EFF0302607902601E0547FF090260330
:10111C00E054FDF09067107401F09022317429F0C6
:10112C0090223374FFF090220BE0547FF075F7019E
:10113C0075F70190223374FFF0D2AFD0D0D083D0AA
:10114C0082D0E032C0E0C082C083C0D075D010C263
:10115C00AF902102E054F7F0902233740AF0902201
:10116C003AE0600E90223AE4F0902102E04408F05C
:10117C008008D208902231742CF090223374FFF046
:10118C00D2AFD0D0D083D082D0E032C025C0E0C066
:10119C00F0C082C083C0D075D010C01885811805EE
:1011AC0081058105817A00C2AF9022337407F090DB
:1011BC002621E020E1030217BD902645E04402F011
:1011CC00E054FDF0D2AF902603E020E10A90260017
:1011DC00E020E0030217BD90260BE0FB90260AE00E
:1011EC00FC90260AE0A3E0902609E0FD902608E09A
:1011FC00A3E030060E902601E023235401FEBE012D
:10120C0002801F200A030217BD902601E030E6037E
:10121C000217BD902600E05401FEBE0102800302BD
:10122C0017BDC012ECC4540FFE531603EC03035449
:10123C003FFFA8180874035FF6A818080874035C2D
:10124C00F67F0090A316E05407FABA04028004D08B
:10125C00128038D012C016EBC4540FFEE5182403CC
:10126C00F874035EF6E5182403F8E6D01630E009AE
:10127C00E5182403F876048039E5182403F8E630E1
:10128C00E130E5182403F876058027EB54E0601371
:10129C00C01774E05BFFBFE005D0170217BDD01775
:1012AC00021761EB0303543FFBE5182403F87403A6
:1012BC005BF6E5182403F8E670030213A2ED30E7A1
:1012CC00030217BDED30E60F90A316E05407FBBBED
:1012DC00040280030217BD9067A6E0FB60030217AF
:1012EC0061E5182403F8E625E0FA24B0F582E4342D
:1012FC00E6F583E0FB902634EBF0EA24B0FAE43414
:10130C00E6FB8A828B83A3E0FB902635EBF09026DC
:10131C0034E0C4540FFA90600FE0540FFBEAB5139D
:10132C000040047F20800E902634E054F070047F3F
:10133C003080027F10C017902635E0C4540FFB900C
:10134C00600EE0540FFFEBB51700D01740054317A4
:10135C00088010902635E054F0700543170C80037C
:10136C00431704C017902635E0540FFB90600FE034
:10137C00C4540FFFEBB51700D017400643170202F9
:10138C001761902635E0540F70064317030217615E
:10139C00431701021761E5182403F8743F5CF6E566
:1013AC00182403F8E670030217617B00BB0B005096
:1013BC0014EB90198593FCE5182403F8E6B5140298
:1013CC0080030B80E7BB0B004003021761ED30E795
:1013DC00030217BDED30E60F90A316E05407FBBBDC
:1013EC00040280030217BD9067A6E0FB600302169F
:1013FC0077902635E0C4540FFB90600EE0540FFC40
:10140C00EBB514009228B39217902635E0C4540F14
:10141C00FBB401009218902635E0540FFB90600F3E
:10142C00E0C4540FFCEBB514009228B3921990262B
:10143C0035E0540FFBB40100921A902634E0C454EA
:10144C000FFB90600FE0540FFCEBB514009228B327
:10145C00921B902634E0C4540FFBB40100921CE59F
:10146C00182403F8B601030215D0E5182403F8B6C6
:10147C000203021596E5182403F8B6040302157549
:10148C00E5182403F8B605028060E5182403F8B6C5
:10149C000803021554E5182403F8B60A02802DE55A
:1014AC00182403F8B61003021641E5182403F8B605
:1014BC0014028074E5182403F8B62003021609E51B
:1014CC00182403F8B62802803F02167720191690CC
:1014DC002635E0540FFB0B902635EB540FF5F0E05E
:1014EC0054F045F0F07A01021677201A1690263542
:1014FC00E0540FFB1B902635EB540FF5F0E054F045
:10150C0045F0F07A01021677201B18902634E0C4BF
:10151C00540FFB0B902634EBC454F0F5F0E0540F51
:10152C0045F0F07A02021677201C18902634E0C49D
:10153C00540FFB1B902634EBC454F0F5F0E0540F21
:10154C0045F0F07A020216773017030216779026D0
:10155C0035E0C4540FFB0B902635EBC454F0F5F07A
:10156C00E0540F45F0F0021677301803021677900E
:10157C002635E0C4540FFB1B902635EBC454F0F514
:10158C00F0E0540F45F0F00216773019030216778D
:10159C00201818902635E0C4540FFB1B902635EB11
:1015AC00C454F0F5F0E0540F45F0F0902635E054BB
:1015BC000FFB0B902635EB540FF5F0E054F045F093
:1015CC00F0021677301A030216772017189026357A
:1015DC00E0C4540FFB0B902635EBC454F0F5F0E04F
:1015EC00540F45F0F0902635E0540FFB1B90263538
:1015FC00EB540FF5F0E054F045F0F0806E201B6BCF
:10160C00902634E0C4540FFB0B902634EBC454F0FA
:10161C00F5F0E0540F45F0F0201850902635E0C45A
:10162C00540FFB1B902635EBC454F0F5F0E0540F2F
:10163C0045F0F08036201C33902634E0C4540FFB68
:10164C001B902634EBC454F0F5F0E0540F45F0F049
:10165C00201718902635E0C4540FFB0B902635EB61
:10166C00C454F0F5F0E0540F45F0F0902635E0C48A
:10167C00540FFB90600EE0540FFCEBB51400922855
:10168C00B39217902635E0C4540FFBB401009218A6
:10169C00902635E0540FFB90600FE0C4540FFCEB28
:1016AC00B514009228B39219902635E0540FFBB470
:1016BC000100921A902634E0C4540FFB90600FE0A6
:1016CC00540FFCEBB514009228B3921B902634E017
:1016DC00C4540FFBB40100921CBE010B301C047FE0
:1016EC003080107F10800CBE0209301B047F2080DC
:1016FC00027F10EA7024A81808B6010D30180543B3
:10170C00170C80164317048011A81808B6020B306A
:10171C0017054317088003431704A8180808B601D7
:10172C000D301A0543170380174317018012A818B0
:10173C000808B6020B301905431702800343170142
:10174C00BA0107EF2F25E0FB4217BA0208EF03039B
:10175C00543FFA42177A00902604EFF0A3EAF09077
:10176C002603E020E740200A3D906711E0FA600F65
:10177C00902605E0FA431280902605EAF080279027
:10178C006710E0FA602090A316E05407FAC3748146
:10179C008AF063F08095F0400D902605E0FA431234
:1017AC0040902605EAF0902602E04420F0E054DF59
:1017BC00F090223374FFF0D2AF851881D018D0D0BE
:1017CC00D083D082D0F0D0E0D02532C0D075D010EC
:1017DC00C2AFD2AFD0D032C0D075D010C2AFC29F82
:1017EC00D29FD2AFD0D032C0E0C0F0C082C083C094
:1017FC00D075D010C2AFD2BB9022337404F09022BB
:10180C0088E030E3609022D8E04408F0E054F7F030
:10181C00906033E030E44E30064B9066CCE0FA60DA
:10182C0044902603E020E73D902126E020E236900C
:10183C00A316E05407FAC374818AF063F08095F024
:10184C004015906083E04480F0902600E0547FF0D7
:10185C00902601E054FEF0902603E04408F09060DE
:10186C0083E04440F0902288E030E5199022D8E0E3
:10187C004420F0E054DFF09022E4E020E007906098
:10188C0033E054FEF090A2E4E020E20302195A90F7
:10189C00A2F4E04404F0E054FBF090A2FCE07008E9
:1018AC0090A2FAE4F0021944902007E020E50D9094
:1018BC00A2FCE0FA90A2FAEAF002194490A2FCE031
:1018CC00FABA020790A31BE020E25B90A2FCE0FABC
:1018DC00BA030790A34FE020E04C90A2FCE0FABAC8
:1018EC00040790A319E020E63D90A2FCE0FABA05AB
:1018FC000790A34EE020E52E90A2FCE0FABA060871
:10190C00902238E0FA20E11E90A2FCE0FABA070718
:10191C009067BAE0FA700F90A2FCE0FABA08139044
:10192C0067BAE0FA700C90A2FCE0FA90A2FAEAF026
:10193C00800690A2FA7401F090A2FCE0600990A2DB
:10194C00FBE04401F0800790A2FBE054FEF09022F3
:10195C003374FFF0D2BBD2AFD0D0D083D082D0F0D2
:10196C00D0E032C0D075D010C2AF109802800010F9
:10197C0099028000D2AFD0D032000405080A142896
:04198C000201201024
:020000040001F9
:10A37300C018858118058105810581902401E0C4F9
:10A38300035401FA902400E0C4540F906724F09022
:10A393002402E023540190671FF0902402E023235A
:10A3A3005401906720F0900058E0232354019067F4
:10A3B30021F0900058E0C4035401906722F09024E8
:10A3C30010E0C45401906723F0902580E05401FB12
:10A3D30090604FE0235401FC900218E00303540102
:10A3E300FD90604FE023235401FE9024A2E0543FEC
:10A3F300FFA81808A607902482E0543FFFA8180876
:10A4030008A6079024A3E0543FFFE5182403F8A609
:10A4130007902483E0543FFFEA6019902401E0444D
:10A4230040F0E054DFF0902402E030E1F9902402A0
:10A43300E054FEF0C007902580E054F7F090240527
:10A44300E0540FF0902406E054C0F0900218E0446A
:10A4530004F090604FE054BFF090E60AE054F7F048
:10A46300C002C003C004C005C006C00778FC79A8B9
:10A473007A021200B3900058E054DFF0E04440F059
:10A48300E054EFF0786A79A77A011200B3D007900D
:10A4930067A7E0FF4401F0902230743BF0902580E1
:10A4A300E04408F0C007784A79A67A011200B3D0D5
:10A4B30007D006D005D004D003D002D0079025F5ED
:10A4C300E030E0439025F5E030E4F2902401E044ED
:10A4D30040F0E054DFF0902402E030E1F9902402F0
:10A4E300E054FEF0C002C003C004C005C006C007AC
:10A4F300784A79A67A011200B3D007D006D005D0E6
:10A5030004D003D00280B69025F4E030E70B9066C8
:10A5130062E4F09066F87401F0902430740CF090CB
:10A523002434740CF0902430EF13E092E3F0902481
:10A5330030A8180808E613E092E2F0902434E518F6
:10A543002403F8E613E092E3F0902434A81808E615
:10A5530013E092E2F0902430E4F0902434F090245D
:10A5630001E054DFF0902402E030E1F9902402E0AE
:10A5730054FEF0902401EA13E092E5F0906721E0A5
:10A5830090005813E092E6F0906722E09000581391
:10A59300E092E5F0906724E0902400C454F0F5F0D5
:10A5A300E0540F45F0F090671FE090240213E0920F
:10A5B300E7F0906720E090240213E092E6F09067C2
:10A5C30023E090241013E092E4F0902580EB13E055
:10A5D30092E0F090604FEC13E092E7F0900218EDF8
:10A5E30013E092E2F090604FEE13E092E6F0906693
:10A5F30062E4F0E0FB906661E0FCC002C0038C8281
:10A60300121D541581D0029025F5E04408F09025E1
:10A61300F5E030E2F99025F5E054F7F0EA601290A6
:10A623002401E04420F0902402E054FEF0E04401D1
:10A63300F09067A7E0FA54FEF0902230742BF08577
:10A643001881D0180200C5788179A67A011200B367
:10A65300902401E054BFF0E04420F0902402E05441
:10A66300FEF0E04401F09025F5E04408F09025F574
:10A67300E030E2F99025F5E054F7F00200C5C20D91
:10A68300D20C9025F4E030E75F902430740CF09006
:10A693002434740CF0902443E054C0F0902442E03E
:10A6A30054C0F0902463E054C0F0902462E054C09E
:10A6B300F0902430E4F0902434F09066F87401F0C4
:10A6C3009025F5E030E10D9025F4E0547FFA906693
:10A6D30062F0800F9025F4E0547FFAC3E49AFA9075
:10A6E3006662F0121D408057902430740CF0902461
:10A6F30034740CF09025F4E0547F0303543FFA9034
:10A703002443543FF5F0E054C045F0F0902442EA6E
:10A71300543FF5F0E054C045F0F0902463EA543F11
:10A72300F5F0E054C045F0F0902462EA543FF5F0B0
:10A73300E054C045F0F0902430E4F0902434F090DD
:10A743002400E0540F44C0F0902408E4F0A3F090F8
:10A75300240AE054C0F090240AE054BFF09025800E
:07A76300E04401F00200C513
:020000040000FA
:060000000200C8020A170D
:03000B000208E107
:03001300020AA43A
:03001B00020909CE
:0300230002196F50
:03002B0002091BAC
:01003300329A
:01003B003292
:0300430002119710
:03004B00020E2D75
:03005300020A346A
:03005B000217F396
:03006300020FA5E4
:03006B000217D7A2
:01007300325A
:01007B003252
:01008300324A
:03008B00020D392A
:03009300020E2535
:03009B00021150FF
:0300A300020ECE7C
:0300AB000217E356
:0300DB000200AE72
:0500AE0012199480FE10
:1019900090000122758E00C2AF120119902231E031
:1019A000902230F0902231E4F0902234F090E64919
:1019B000E0035401FA9067B8F090A320E030E664A9
:1019C00090223CE0FA530201BA013B90A318E04494
:1019D00020F090662B7401F078DE79B27A01120063
:1019E000B3788079C77A021200B390E649E04402E6
:1019F000F090E651E4F090E652F090E62EE030E60A
:101A0000059060CDE4F0902200E0FA90E650E0FB13
:101A1000EAB5030B90A320E04480F0E0547FF090FF
:101A20002230E4F090223CE0FA43020190223CEAAA
:101A3000F0902230E07014784479AB7A011200B350
:101A4000789279E87A011200B38009788B79D97A93
:101A5000011200B390220BE04480F0D2AF9022300C
:101A6000E0FABA0303021B59BA19028064BA1B03D5
:101A7000021B07BA1E03021B12BA1F03021B1DBA68
:101A80002003021B33BA21028071BA22028048BAB5
:101A90002302804FBA2603021B3EBA2703021B8D86
:101AA000BA2803021B49BA2903021B49BA2A0302B6
:101AB0001B49BA2B03021B6FBA2C03021B4EBA320E
:101AC00002802CBA33028060BA3B03021B64021B03
:101AD0008D1255C3021B8D78F779EC7A011200B391
:101AE000021B8D782779F07A011200B3021B8D78E2
:101AF0009379F07A011200B3021B8D78FD79ED7AAB
:101B0000011200B3021B8D78CE79EE7A011200B378
:101B1000807B78EE79F57A011200B38070788D7948
:101B2000F47A011200B3806578CC79F47A0112005E
:101B3000B3805A786B79F57A011200B3804F78B48C
:101B400079F17A011200B38044122597803F78B171
:101B500079BF7A011200B38034780979CD7A011205
:101B600000B38029787379A37A011200B3801E78BC
:101B70002A79D47A011200B3902231E0700F78CD27
:101B800079967A011200B3902230742BF020080766
:101B900090201BE030E34890223AE0603990210227
:101BA000E054F7F0902053E04408F0E054F7F09050
:101BB000A316E05407FABA030C900064780479B5D0
:101BC0007A021200B390223AE4F0C208902102E0B7
:101BD0004408F0021C5E902230742CF0021C5EA2BD
:101BE00006720750089022307428F0807120061881
:101BF000902601E030E6119022B47498F078AB7929
:101C0000CC7A011200B3805620072A902601E030DA
:101C1000E5239022B47499F0C2AF9026447401F089
:101C2000E4F09022307428F0902603E04404F0D2CF
:101C300007D2AF80299025F5E030E00F906714E0DF
:101C4000FA6008902230743BF0801390E608E03090
:101C5000E00C9022307403F09067B17401F0906052
:101C60003AE023235401FABA0103123A0A902231CE
:101C7000E06013902231E0FA902230F0902231E4BB
:101C8000F0C205021A5D12021C78BC79A27A011218
:101C900000B3906098E05401FABA01031200FA9080
:101CA0002297E0235401FAB40100E433FA9022971A
:081CB00013E092E7F0021A5D57
:0502000056160C000180
:101CB800AA829066F8E0FBEAB50301229066F8EA8A
:101CC800F07403B50200500122EA2A2A901CD87346
:101CD800021CE4021CFA021D1A021D2D900058E095
:101CE80054DFF0900058E054BFF0900058E054EFF3
:101CF800F022A20DE43390005813E092E5F0A20C14
:101D0800E43390005813E092E6F0900058E054EF66
:101D1800F022900058E04420F0900058E04440F051
:101D2800E054EFF022900058E054DFF0900058E0C3
:101D380054BFF0E04410F022906662E0FA906661C9
:101D4800E0FBC0028B82121D54158122C0188581C8
:101D58001805810581AA8290604FE030E703021ED2
:101D6800EF906799EAF0E51824FDF8860390679AE2
:101D7800EBF090600AE054DFF09066F8E0FC702722
:101D8800906046E0C39AC39BFDA81808A60590601A
:101D980045E0FE900028E003547FFFC003EEC39F98
:101DA800FEFDD003021E8ABC016B9067A7E0FE53BC
:101DB8000601BE0030900058E0C4035401FE9000B4
:101DC80058E023235401FFEEB507028018906715E9
:101DD800E0FE7011C002C003786A79A77A01120088
:101DE800B3D003D002906046E0C39AFEA81808A6B4
:101DF80006906045E0FEC002EBFF3395E0EEC39F1E
:101E0800FE900028E003547FFA7F00EEC39AFEFD9F
:101E1800D002021E8ABC0232906046E0FEA8180872
:101E2800A606906045E0FEEAFF3395E0EEC39FFE0C
:101E3800EBFD3395E0EEC39DFE900028E003547F50
:101E4800FD7F00EEC39DFEFD8038BC0335906046E3
:101E5800E0FCA81808A604906045E0FC906796E0AE
:101E6800FDEAFE3395E0EE2DFDEBFE3395E0FFEE47
:101E78002D2CFC900028E003547FFD7E00ECC39DD0
:101E8800FCFDA81808C3E6648094C04007A8180899
:101E9800E624C0F6A818088682C002C003C005124E
:101EA8002027D005D003D002C3ED648094C6400635
:101EB800ED2480FD800CC3ED6480943A5004748056
:101EC8002DFDEDFC3395E0FD8C828D83C002C003AF
:101ED8001220E3D003D002C0038A82121EF51581B6
:101EE80090600AE04420F0851881D01822C0188537
:101EF8008118AA829066F8E0FB7403B503005003CA
:101F0800022024EB2B2B901F1273021F1E021F1E90
:101F1800021F49021FB5900038E00303543FFBC37A
:101F280074A28BF063F08095F0500A900224E0547C
:101F3800F3F0022024900224E054F34404F0022039
:101F480024E51824FDF8E62AFB90216DE493FCC3F0
:101F5800EB64808CF063F08095F0500A900224E0E6
:101F680054F3F002202490216EE493FCC3EB6480C8
:101F78008CF063F08095F0500C900224E054F34408
:101F880004F002202490216FE493FCC3EB64808C5E
:101F9800F063F08095F0500C900224E054F344086C
:101FA800F0022024900224E0440CF0806F906796A1
:101FB800E0FCEA2CFAE51824FDF8E62AFB902170EB
:101FC800E493FAC3EB64808AF063F08095F05009DB
:101FD800900224E054F3F08043902171E493FAC313
:101FE800EB64808AF063F08095F0500B900224E057
:101FF80054F34404F08025902172E493FAC3EB640F
:10200800808AF063F08095F0500B900224E054F33E
:102018004408F08007900224E0440CF0D01822C055
:102028001885811805810581AA82900038E003038C
:10203800543FFBC003740CC0E0743AC0E08A827855
:102048003D79B97A021200B3AA8215811581D003AD
:10205800EBB502030220DDEAFC3395E0FDEC24FE3B
:10206800FEED34FFFFA81808A603EB3395E008F649
:10207800A81808C3E69E08E664808FF063F0809590
:10208800F050040B0B802074022CFCE43DFDA818D2
:1020980008C3EC96ED64800886F063F08095F050F4
:1020A800041B1B80028A03900038EB2B25E054FCAC
:1020B800F5F0E0540345F0F0C002C00378DE79B8CB
:1020C8007A021200B3783979807A011200B3D0030A
:1020D800D002022058851881D01822AA82AB83EA40
:1020E8004B700122900028E003547FFC7D00C3EA76
:1020F8009402EB648094804011EA24FEFAEB34FFEA
:10210800FB74022CFCE43DFD802AC374FE9A747FA4
:102118008BF063F08095F0401174022AFAE43BFBDF
:10212800EC24FEFCED34FFFD800AEA2CFCEB3DFDBF
:102138007A007B0053047F900028EC2C54FEF5F0C5
:10214800E0540145F0F0C002C00378DE79B87A02A5
:102158001200B3D003D002900028E04401F0E0540C
:0B216800FEF00220E7FD111E192D3AC9
:020000040001F9
:10A76A00758201785379947A011200B3902405E036
:10A77A0054FDF0906795E0FA7B1C7C029000E8E4B7
:10A78A0093FDA3E493FE906174EDF0A3EEF0C00292
:10A79A00C003C004780779847A011200B3D004D0C8
:10A7AA0003D002906170E0702DFDEDB502005019E2
:10A7BA00900040C002C003C004C0051220E3D005C7
:10A7CA00D004D003D0020D80E18B058C061BBBFFA1
:10A7DA00011CED4E70A6906170E0FABA0103D380B5
:10A7EA0001C3B39228E433FA90604E13E092E5F085
:10A7FA000200C50200C5C0188581180581058105BA
:10A80A008190E607E030E20302AB1990608EE030F7
:10A81A00E0069067947401F07A007B007C01C00224
:10A82A00C003C004782179AB7A011200B3AD82D09B
:10A83A0004D003D002EDFE3395E0FFEE2AFAEF3B97
:10A84A00FB8C060CBE100040D5EBC4CAC4540F6A78
:10A85A00CA540FCA6ACA30E30244F09066F8E0FBB1
:10A86A00B40100E433FC7009BB010280047E00805D
:10A87A00027E01EE60047EE480027EC49066BAEE37
:10A88A00F0EC7009BB010280047B0080027B01EBC3
:10A89A0060047B1280027B3C9066BBEBF075820001
:10A8AA00C002121CB8D20DD20C906661E0FB906611
:10A8BA00B7F09066BAE0FC9066BBE0FEC004C00642
:10A8CA008B82783D79B97A021200B3AB8215811571
:10A8DA00819066F9EBF0906662E4F0121D40D002B6
:10A8EA00A81808087600087600A818087600C0029A
:10A8FA00782179AB7A011200B3AF82D0028F05C3F7
:10A90A00ED64808AF063F08095F0500CA81808086E
:10A91A0016B6FF0208168017C3EA64808DF063F04A
:10A92A008095F0500AA818080806B600020806A87A
:10A93A00180808C3E49674800886F063F08095F0DE
:10A94A005011A8180808860708E6A2E713CF13CF04
:10A95A00FE802FA818080808E630E722C002A818C7
:10A96A000808E6F4FA08E6F4A2E713CA13CAFBC316
:10A97A00E49AFAE49BFB8A078B06D00280047F00E4
:10A98A007E00EF4E6052C0028F039066F9E0FC90A1
:10A99A0066F9EB2CF09066F9E0906661F09066BA81
:10A9AA00E0FB9066BBE0FC906661E0FAC003C0047D
:10A9BA008A82783D79B97A021200B3AA8215811582
:10A9CA0081906661EAF0C002121D40D002A8180800
:10A9DA00087600087600D002A818088603A8180886
:10A9EA0006BB2000500302A8F8A818080876000839
:10A9FA0076007B00C002C003782179AB7A0112008D
:10AA0A00B3AC82D003D0028C05C3ED64808AF063B4
:10AA1A00F08095F0500CA818080816B6FF02081620
:10AA2A008017C3EA64808DF063F08095F0500AA81D
:10AA3A0018080806B600020806A8180808C3E4960B
:10AA4A0074800886F063F08095F0501CA8180808F6
:10AA5A00860708E6C4CFC4540F6FCF540FCF6FCF09
:10AA6A0030E30244F0FE8037A818080808E630E709
:10AA7A002AA8180808E6F4FC08E6F4FDC4CCC45475
:10AA8A000F6CCC540FCC6CCC30E30244F0FDC3E421
:10AA9A009CFCE49DFD8C078D0680047F007E00EF00
:10AAAA004E60509066F9E0FC9066F9EF2CF09066E3
:10AABA00F9E0906661F09066BAE0FC9066BBE0FD52
:10AACA00906661E0FEC002C003C004C0058E8278B1
:10AADA003D79B97A021200B3AC821581158190666C
:10AAEA0061ECF0121D40D003D002A81808087600C5
:10AAFA000876008B040BBC8000500302A9FE906705
:10AB0A0094E0FB7005906069EAF0906794E4F08540
:10AB1A001881D0180200C5781479977A011200B307
:10AB2A00906794E0FA6009906657E0FAF582800728
:10AB3A00906646E0FAF5820200C59060F8E0FA9065
:10AB4A0022B4EAF09060F8E0FABAAAF890E6D0E007
:10AB5A00FABAAAF09060F8E0FA9022B4EAF090E625
:10AB6A0050E0FA7401B50200500590E650E4F09006
:10AB7A002234E4F0902200E0FA90E650E0FBEAB5D5
:10AB8A00030C90A2B4E4F090E605E04402F0C2029D
:10AB9A00C20EC20F90678EE4F090678F74FFF0C206
:10ABAA0010C212C213C214C20CC20DC215C211C203
:10ABBA0000C201C227C226C224906710E4F090E6C0
:10ABCA001E74FFF090E61F74FFF0906792E4F002A3
:10ABDA0000C590E650E0FA7401B50200500590E60F
:10ABEA0050E4F090A316E05407FABA0302801090DA
:10ABFA00A316E05407FABA050280047A0080027AA2
:10AC0A0001EA60027401FA906714EAF090E607E03C
:10AC1A0030E40D90E606E0FB43033090E606EBF0E5
:10AC2A0090A234E0FB90E606E0420390A234EBF0F7
:10AC3A0090A238E0FB90E606E0420390A238EBF0DF
:10AC4A00902210E0035401FB90E606E0035401FC55
:10AC5A00D3EC4B7001C39214902200E0FB90E650B3
:10AC6A00E0FCEBB504519066257401F090E603E42C
:10AC7A00F090E602740CF090E6017416F090E6008B
:10AC8A007456F09022B47460F09022B5E4F09022E9
:10AC9A00B6740CF09022B77416F09022B87456F07D
:10ACAA0090A316E05407FBBB030790E628E0440193
:10ACBA00F090A2B774FFF0C2169067B1E4F0906703
:10ACCA00ACF0EA602490605AE0547FF0E04440F02F
:10ACDA0090605AE04420F0906028740AF0A3E4F0EF
:10ACEA0090602C7417F0A3E4F0906713E4F0906579
:10ACFA00F6E090E62B540FF5F0E054F045F0F090B2
:10AD0A00671C7401F0906044E0C4235401FA906710
:10AD1A00A2F090E64EE054FEF090E64FE04401F0D7
:10AD2A009060777406F09060CDE4F09060CFF09078
:10AD3A0061787420F09061797420F090617A7420BF
:10AD4A00F090617B7420F09061987420F090619982
:10AD5A007420F090619A7420F090619B7420F00244
:10AD6A0000C5902620E054FDF0902620E054FEF025
:10AD7A00902143E054BFF0902621E054FDF090204A
:10AD8A001BE054F7F090202BE4F090201BF0902069
:10AD9A001AF0902288F090A2E4E4F090A316E0540E
:10ADAA0007FABA0302800A90A316E05407FABA0512
:10ADBA002190214BE04440F090201E743CF09020FA
:10ADCA001F74E5F090201EE0547FF090201EE0549E
:10ADDA00BFF090224EE04408F090224EE04404F086
:10ADEA0090A316E05407FABA0302800A90A316E069
:10ADFA005407FABA051C902264E054FEF0902246E9
:10AE0A00E04402F0902247E04401F0902261E044DD
:10AE1A0040F0902248E04402F090226DE04401F0B4
:10AE2A00902255E04402F090226AE04401F090A397
:10AE3A0016E05407FABA030790A316E030E7079022
:10AE4A00225DE04408F090A314E020E30790224733
:10AE5A00E04408F09022CAE04410F0902200E0FAA0
:10AE6A0090E650E0FBEAB50307902253E04410F065
:10AE7A00902253E04440F00200C590A3FCE0FA534C
:10AE8A000203E4BA020104FB6009908344E04440EF
:10AE9A00F0800ABA0307908344E054BFF0908348D5
:10AEAA00E04401F090E62CE0540FFA906300E0FCD5
:10AEBA00C3EA64808CF063F08095F0500B90E62C26
:10AECA00E0540FFA906300F090A316E05407FABA20
:10AEDA000502D21590A316E05407FABA032ED22619
:10AEEA00D22790604DE04480F0902636E04420F06E
:10AEFA00902003E04480F0902103E04480F09040E9
:10AF0A000FE04410F090822CE054EFF090A316E08A
:10AF1A005407FABA0302800890A316E05407703E59
:10AF2A0090603AE054FDF090608EE054EFF090604B
:10AF3A008EE054DFF090608FE0540F44C0F09060D0
:10AF4A008EE054F7F0906044E054CFF0906044E013
:10AF5A0054BFF0E04480F0906088E04402F09082B0
:10AF6A00D4E0235401FABA011A90A316E05407FA5E
:10AF7A00C374818AF063F08095F0400790A318E0CB
:10AF8A004404F0906046741EF09082BCE054F04491
:10AF9A0007F09082BCE0540F4460F0900264E054E1
:10AFAA00E74408F0900050E04418F0900050E04464
:10AFBA0006F0900050E04401F0900054E04480F024
:10AFCA00902421E054F04402F0902421E0540F44EC
:10AFDA0020F0902422E054F04402F0902426E05419
:10AFEA000F4440F0902427E054F04404F0902427C2
:10AFFA00E0540F4440F0902424E054F04406F090CA
:10B00A002424E0540F44A0F0902425E054F0440690
:10B01A00F090241FE054F04405F090241CE054F012
:10B02A004406F0902420E054F0F0902420E0540FDD
:10B03A004470F0902425E0540F4430F0902426E028
:10B04A0054F04405F090A110E054E04405F090A1BA
:10B05A0010E044E0F090A111E054FCF090A119E056
:10B06A004410F090A316E05407700E902026E04496
:10B07A0001F090214BE04410F090A00BE023235400
:10B08A0001FA90A01313E092E6F0900258E04420EF
:10B09A00F0908304E0547FF090833CE04402F09007
:10B0AA008224E054E34418F090E613E020E159903A
:10B0BA00821CE04418F0EB60269082D0E0541F44D2
:10B0CA00A0F09082B0E0541F4460F09082CCE0542B
:10B0DA00E34410F09082CCE0541F44A0F08020900A
:10B0EA0082D0E044E0F09082B0E0541FF09082CC2D
:10B0FA00E054E34410F09082CCE0541F44A0F09056
:10B10A00E612E054E3440CF090A316E05407FAC3A5
:10B11A0074818AF063F08095F04009902618E4F073
:10B12A00A37440F09022DC7424F0A374F4F0A374A6
:10B13A0020F0A3E4F09022DFE04480F0908220E047
:10B14A0054F14402F0908224E0541F44C0F09083EA
:10B15A0048E054E34410F0908314E054CF4420F0C4
