:020000040001F9
:10800000AA82AB837C00BC0800502AEC2CFDFE90B9
:1080100083DF93CEA393FFED9083EF93CDA393F8EB
:10802000EA5205EB5200EEB50508EFB50004758283
:1080300001220C80D175820022C018E581F5182438
:1080400008F581E5182404F87600087600E5182480
:1080500006F87600900030E00354079083FF939079
:10806000661DF0900034E00303543F90661EF090CC
:108070000034E003540190661FF0781979997A0270
:108080001200B3AD829022B6EDF0906008E0FEBE23
:1080900001047E0880027E01A818080876BC0876D4
:1080A000029022B5EEF030165CED6009906614E0A7
:1080B0002401F08009906614E014906614F0906634
:1080C00014E0FC700CFD90E643E0FF906614F08035
:1080D00034C00690E643E0FFE4CF25E0CF33FE7ADC
:1080E00000C3EC9FEA64808EF063F08095F0D006C8
:1080F000400D7D0190E643E0FA906614F08006752D
:108100008201028224BD0111C006788A79997A021F
:108110001200B3AA82D0068011C0067831799A7A0B
:10812000021200B3AB82D0068B02EA600302821D0A
:10813000C006788779837A011200B3D00630160A18
:10814000E5182406F8760102821DC006781979998F
:108150007A021200B3AA82D0068A059022B6EDF008
:10816000A81808E6B505028011A81808A605BE08DB
:10817000047E028005BE02027E01E5182404F80890
:10818000E618C625E0C63308F68D027B00E5182404
:1081900004F8EA46F6EB0846F6E5182404F8E51874
:1081A0002407F9E6F70809E6F77C00BC0800503B15
:1081B000C006EC2CFFFE9083DF93CEA393FAEFFB77
:1081C0009083EF93CBA393FFE5182407F8E65203BF
:1081D00008E65207EEB50306EAB507028004D006AA
:1081E0008006D0067A0180050C80C07A00EA601013
:1081F000E5182406F87601906006E04408F0801D3A
:1082000090E649E020E00AA818080816B6FF020820
:1082100016A8180808E6084660030280A1E518249D
:1082200006F88682851881D0180200C5A20EE433B4
:10823000FA902230740FF0900228E003035407FBF9
:10824000530304E4BB000104FB906006E054F7F024
:10825000906001E054FDF090E60AE003035401FC55
:10826000BC0102800A906003E05401FCBC0144EAB6
:108270002AFC24AAFDE43465FEEB2DF582E43EF5EC
:1082800083E090661EF0EC24B2FDE43465FEEB2D35
:10829000F582E43EF583E0906620F0EC24A2FCE455
:1082A0003465FDEB2CF582E43DF583E0FC90661F20
:1082B000F0801290661E7431F09066207405F09084
:1082C000661F7401F0906620E09083FF9390661D16
:1082D000F0C002C003788779837A011200B3D0031B
:1082E000D002906008E0600302837490E60AE030F8
:1082F000E203028374C002C003783979807A0112E4
:1083000000B3AC82D003D002906005EC13E092E1A0
:10831000F0900030E0035407FCEA2433FDE43466B7
:10832000FEEC9083FF938D828E83F0EA2AFA24AAD2
:10833000FCE43465FDEB2CFCE43DFD90661EE08C16
:10834000828D83F0EA24B2FCE43465FDEB2CFCE47E
:108350003DFD906620E0FE8C828D83F0EA24A2FA37
:10836000E43465FCEB2AFBE43CFD90661FE0FA8BED
:10837000828D83F0906001E04402F090E643E0FAE1
:10838000906614F00200C590661EE090003425E06F
:1083900025E054FCF5F0E0540345F0F090661FE052
:1083A00090003413E092E1F090661DE0FAC313628E
:1083B00002906620EAF0900030EA2A540EF5F0E0D0
:1083C00054F145F0F0900034E04401F0780C79C8A5
:1083D0007A021200B3900034E054FEF00200C505AA
:1083E000000A003300CC00C701380E0F0FF0F00F69
:1083F000000F00FF00FF00FF0FFF0FFFFFFFFF0058
:1084000001030207060405C018858118058105814E
:108410009061707401F09066F7E0FABA0102800B87
:1084200090E607E0035401FABA0106200803028C23
:108430003C9060A2E4F09060A3F0906797E0FA901F
:108440006174E0FBA3E0FCEB20E00302853990605F
:10845000A27401F0902163E0547FF090240CE0546A
:108460007FF0902102E04480F0E0547FF0C0027879
:108470000C79C87A021200B3902403E054BFF0755F
:108480008E07902410E04404F0E054FBF0758E0059
:108490009022D0E04480F09022D4E04480F09022FA
:1084A000D0E0547FF09022D4E0547FF07844798C6F
:1084B0007A011200B3D0029060A27402F09060A022
:1084C000E030E175C002781779847A021200B37542
:1084D0008200784179847A021200B3758210784163
:1084E00079847A021200B3758212784179847A0213
:1084F0001200B3D00290049CE0541FFB900498E05B
:10850000541FFC2BFB9067D0F0900498E020E50707
:108510009067D074402BF090089CE0541FFB9008AB
:1085200098E0541FFC2BFB9067D1F0900898E02056
:10853000E5079067D174402BF0906174E0FBA3E0F5
:10854000FCEB30E12A9060A27403F0C00274FFC01B
:10855000E090000078C6798A7A021200B31581D0C3
:1085600002902163E04480F090240CE04480F0907D
:108570006174E0FBA3E0FCEB20E2030286939060D1
:10858000A27404F0758201C00278B679897A021269
:1085900000B3758200784A798E7A021200B3D00255
:1085A000906174E0FBA3E0FCEB30E51B9060A274EB
:1085B00005F0C002E4C0E0900A0178C6798A7A0228
:1085C0001200B31581D002758B18758DFCD28EC246
:1085D000039060A27406F0C0027401C0E0900A012A
:1085E00078C6798A7A021200B31581D0029066614A
:1085F000E0FBB50202806E9060A27408F0EBFC33E1
:1086000095E0FDEC24FEFEED34FFFFA81808A6025D
:10861000EA3395E008F6A81808C3E69E08E66480E9
:108620008FF063F08095F050040A0A802074022CC9
:10863000FCE43DFDA81808C3EC96ED64800886F0C4
:1086400063F08095F050041A1A80028B02906662E3
:10865000E0FBC002C0038A821224C41581D002202C
:1086600003030285D130030F9060A3E0FA430202B6
:108670009060A3EAF0C203C28EC28F758200784177
:1086800079847A021200B3758210784179847A0273
:108690001200B3906174E0FAA3E0FBEA20E4030265
:1086A00088569060A2740AF0902401E054FDF09086
:1086B0002401E054FEF0906174E0FAA3E0FBEA309C
:1086C000E53A9060A2740BF075820178B679897AE8
:1086D000021200B3758200784A798E7A021200B3D2
:1086E00090240BE04480F0E054BFF0E4C0E0900A36
:1086F0000178C6798A7A021200B31581906174E01C
:10870000FAA3E0FBEA30E6499060A2740CF020275F
:108710001875820178B679897A021200B3758200E1
:10872000784A798E7A021200B390240BE04480F0EC
:10873000E054BFF0902402E04408F0E054FBF074F1
:1087400002C0E0900A0178C6798A7A021200B31555
:1087500081906174E0FAA3E0FBEA30E7609060A2E8
:10876000740DF020271875820078B679897A021284
:1087700000B3758202784A798E7A021200B390248F
:108780000BE04480F0E054BFF0902402E04408F095
:10879000E054FBF03008147402C0E090000078C68A
:1087A000798A7A021200B3158180127402C0E090B7
:1087B000030278C6798A7A021200B3158190617437
:1087C000E0FAA3E0FB20E0030288569060A2740E5A
:1087D000F020271875820078B679897A021200B3E2
:1087E000758202784A798E7A021200B390240BE0E7
:1087F000547FF090240BE054BFF0902402E054F733
:10880000F0902402E054FBF0906715E0FA601474D5
:1088100004C0E090020478C6798A7A021200B31587
:108820008180127402C0E090020478C6798A7A02CC
:108830001200B31581781779847A021200B3758219
:1088400010784179847A021200B3758200784179F8
:10885000847A021200B3906174E0FAA3E0FB20E195
:10886000030289309060A27410F0902401E054FD5E
:10887000F0902401E054FEF09060A27411F0902476
:108880000BE0547FF0E04440F0902402E054F7F015
:10889000E04404F07403C0E0900A0178C6798A7A53
:1088A000021200B315819060A27412F090240BE0C4
:1088B000547FF090240BE054BFF0902402E054F772
:1088C000F0902402E054FBF07403C0E090030278BF
:1088D000C6798A7A021200B315819060A27413F0EF
:1088E00090049CE0541FFA900498E0541FFB2AFA6D
:1088F0009067D0F0900498E020E5079067D074402E
:108900002AF090089CE0541FFA900898E0541FFB4E
:108910002AFA9067D1F0900898E020E5079067D197
:1089200074402AF0758212784179847A021200B379
:10893000906174E0FAA3E0FB20E2030289BD90603D
:10894000A27414F075820078B679897A021200B3A5
:10895000758202784A798E7A021200B39060A2740E
:1089600015F0902401E04402F090240BE04480F0E4
:10897000E054BFF0E4C0E090080278C6798A7A0239
:108980001200B315819060A27416F090240BE0548D
:108990007FF090240BE054BFF0E4C0E09004047832
:1089A000C6798A7A021200B31581758201784179FD
:1089B000847A021200B3902401E054FDF0906174B7
:1089C000E0FAA3E0FB20E403028B649060A2741839
:1089D000F020271875820078B679897A021200B3E0
:1089E000758202784A798E7A021200B3902404E0EC
:1089F00054BFF0902401E04401F07A007B007582BE
:108A000002C002C003780979837A021200B3D0034E
:108A1000D0029060A27419F090240BE04480F0E042
:108A200054BFF020271BC002C003E4C0E0900A023C
:108A300078C6798A7A021200B31581D003D00280F9
:108A400019C002C003E4C0E090080278C6798A7AAF
:108A5000021200B31581D003D0029060A2741AF004
:108A600090240BE0547FF0E04440F020271BC0022C
:108A7000C003E4C0E090080478C6798A7A02120044
:108A8000B31581D003D0028019C002C003E4C0E056
:108A900090060478C6798A7A021200B31581D00351
:108AA000D0029060A2741CF0EB7016758202C002B6
:108AB000C003784179847A021200B3D003D00280D7
:108AC0002DEA7016758203C002C003784179847A5A
:108AD000021200B3D003D0028014758204C002C019
:108AE00003784179847A021200B3D003D0029060F7
:108AF000A2741BF09060A0E030E35BEB701F7B0181
:108B0000906661E0FCC002C003906700E0C0E08CAA
:108B1000821224C41581D003D0020289FEEA701F9C
:108B20007A01906661E0FCC002C003906702E0C079
:108B3000E08C821224C41581D003D0020289FE90F9
:108B40006701E0FA906662F0906661E0FBC0028B1C
:108B5000821224C41581902401E054FEF090240474
:108B6000E04440F0906174E0FAA3E0FB20E60302E9
:108B70008C1390604FE030E603028C139060A27477
:108B800021F0902580E04401F090605AE020E2203E
:108B9000758201780979837A021200B37889798C19
:108BA0007A011200B3788479827A021200B3800FBE
:108BB000906039E0F582788479827A021200B3906D
:108BC00060A27422F0902580E04404F0E054FBF0B1
:108BD00090605AE030E21474FFC0E090200878C63C
:108BE000798A7A021200B31581801274FFC0E09076
:108BF0000A0578C6798A7A021200B315819060A2BC
:108C00007423F0783C79807A021200B3AA829061D2
:108C100070EAF090605AE020E21C2008199060A2EF
:108C20007424F0758201780979837A021200B39076
:108C30002580E054FEF09060A27425F0851881D064
:108C4000180200C5902403E04420F0E054DFF0E077
:108C50004402F0902403E054FDF0E04401F0E054BD
:108C6000FEF0758B9C758DFFD28EC203200317908A
:108C7000240BE030E5F6780C79C87A021200B39044
:108C8000240BE030E5E60200C5906158E0FA9061FF
:108C900059E0FBC0038A82784279C87A021200B395
:108CA000AB8215818B0290615AE0FBC0038A827807
:108CB0004279C87A021200B3AB8215818B029061AF
:108CC0005BE0FBC0038A82784279C87A021200B363
:108CD000AB8215818B0290615CE0FBC0038A8278D5
:108CE0004279C87A021200B3AB8215818B0290617F
:108CF0005DE0FBC0038A82784279C87A021200B331
:108D0000AB8215818B0290615EE0FBC0038A8278A2
:108D10004279C87A021200B3AB8215818B0290614E
:108D20005FE0FBC0038A82784279C87A021200B3FE
:108D3000AB8215818B0290E6AFE0C4540FFB8BF041
:108D400005F0EA8002C313D5F0FBFA90E6AFE054D9
:098D50000FFB2AFAF5820200C5AE
:020000040000FA
:1000E300D315D3111003D77590550040000280013A
:0A00F3000010D3019300D755D30588
:020000040001F9
:108D5900902402E054EFF0900054E04408F09000B1
:108D690054E04404F0900054E04402F0900054E0D0
:108D79004401F0902401E04404F0902418E054EFF9
:108D8900F0902418E054DFF0902405E054FEF090B0
:108D99002405E054F7F0302710902400E0540F44E4
:108DA900C0F0902405E04402F00200C590604CE058
:108DB90020E403028E9690604CE030E303028E9625
:108DC90090604CE030E503028E969066F7E0FA6019
:108DD90003028E96906725E0FA6003028E969066EC
:108DE9003AE02401F090663AE0FA7403B5020040D3
:108DF90003028E9690663AE4F075820178097983C8
:108E09007A021200B3786B79887A021200B390243F
:108E190009E4F0902408E0FA53020D902408EAF0DE
:108E290090240AE04440F0902405E054FDF0902499
:108E390005E054FEF0902405E054F7F0902400E09A
:108E490044F0F07404C0E090101078C6798A7A0270
:108E59001200B31581786B79887A021200B39024D5
:108E690008E0FA5302F0902408EAF090240AE0544A
:108E7900BFF07404C0E090100178C6798A7A0212B2
:108E890000B31581781779847A021200B30200C5FC
:108E990090604CE030E02B900264E030E2099002EF
:108EA90064E054FBF0802D900264E04404F078B54E
:108EB900798D7A011200B378A179967A021200B3FA
:108EC900801278B5798D7A011200B378A179967AF2
:078ED900021200B30200C504
:020000040002F8
:10800000C018858118AA82AB83ACF0FDE51824F96D
:10801000F8C3E69A08E69B08E69C08E69D50098AA4
:10802000828B838CF0ED800FE51824F9F8868208A6
:1080300086830886F008E6D0180200C5C018E581DE
:10804000F5182408F581902560E0FAA3E0FBA3E091
:10805000FCA3E0FDE5182405F8A60208A60308A67F
:108060000408A605902564E0FEA3E0FFA3E0FAA3C0
:10807000E0FBC006C007C002C003E5182405F8866F
:10808000820886830886F008E6780079807A0212F2
:1080900000B3AA82AB83ACF0FDE58124FCF581E559
:1080A000182405F8A60208A60308A60408A6059049
:1080B0002568E0FAA3E0FBA3E0FCA3E0FDC002C05A
:1080C00003C004C005E5182405F8868208868308E5
:1080D00086F008E6780079807A021200B3AA82ABB3
:1080E00083ACF0FDE58124FCF581E5182405F8A6B4
:1080F0000208A60308A60408A60590256CE0FAA3CA
:10810000E0FBA3E0FCA3E0FDC002C003C004C00587
:10811000E5182405F886820886830886F008E67844
:108120000079807A021200B3AA82AB83ACF0FDE53D
:108130008124FCF581E5182405F8A60208A60308A9
:10814000A60408A605902570E0FAA3E0FBA3E0FCD6
:10815000A3E0FDA81808A60208A60308A60408A61E
:1081600005902574E0FEA3E0FFA3E0FAA3E0FBC0C6
:1081700006C007C002C003A81808868208868308C4
:1081800086F008E6780079807A021200B3AA82AB02
:1081900083ACF0FDE58124FCF581A81808A602084F
:1081A000A60308A60408A605902578E0FAA3E0FB3C
:1081B000A3E0FCA3E0FDC002C003C004C005A818F2
:1081C0000886820886830886F008E6780079807A37
:1081D000021200B3AA82AB83ACF0FDE58124FCF56A
:1081E00081A81808A60208A60308A60408A60590F8
:1081F000257CE0FAA3E0FBA3E0FCA3E0FDC002C005
:1082000003C004C005A8180886820886830886F083
:1082100008E6780079807A021200B3AA82AB83ACB8
:10822000F0FDE58124FCF581A81808A60208A60344
:1082300008A60408A60590E6AEE0FAE4FBFCFDE51E
:10824000182405F8C3E69A08E69B08E69C08E69D14
:108250005005758200802590E6ACE0FAA3E0FB7C37
:10826000007D00A81808C3EA96EB0896EC0896ED86
:10827000089650057582008003758201851881D0AB
:10828000180200C5AA82902440EA543FF5F0E05459
:10829000C045F0F0902441EA543FF5F0E054C04569
:1082A000F0F0902442EA543FF5F0E054C045F0F07D
:1082B000902443EA543FF5F0E054C045F0F0902498
:1082C00060EA543FF5F0E054C045F0F0902461EAD4
:1082D000543FF5F0E054C045F0F0902462EA543F7A
:1082E000F5F0E054C045F0F0902463EA543FF5F017
:1082F000E054C045F0F0902430740FF0E4F0902486
:1083000034740FF0E4F00200C5AA82BA01028008BA
:10831000BA0202805F02840D7440C0E0E4C0E074E1
:1083200078C0E07461C0E0E4C0E090244075F000E3
:10833000787F79C97A021200B3E58124FBF5819038
:10834000243074FFF0A3F0A3F0A3747FF0902430E6
:10835000E4F0A3F0A3F0A3F090243474FFF0A3F0B2
:10836000A3F0A3747FF0902434E4F0A3F0A3F0A36F
:10837000F002840D906178E0902440543FF5F0E0E5
:1083800054C045F0F0906179E0902441543FF5F0FD
:10839000E054C045F0F090617AE0902442543FF5FB
:1083A000F0E054C045F0F090617BE0902443543FEE
:1083B000F5F0E054C045F0F0906198E090246054EE
:1083C0003FF5F0E054C045F0F0906199E0902461F1
:1083D000543FF5F0E054C045F0F090619AE09024ED
:1083E00062543FF5F0E054C045F0F090619BE0FA34
:1083F000902463543FF5F0E054C045F0F0902430F1
:10840000740FF0E4F0902434740FF0E4F090240B37
:10841000E030E5F90200C57440C0E0E4C0E07480DB
:10842000C0E07424C0E0E4C0E090617875F00078AA
:108430007F79C97A021200B3E58124FBF58102003D
:10844000C5AA82BA00028027BA01030284C5BA0213
:1084500003028509BA030302854DBA04030285911C
:10846000BA10030285D5BA12030285FF0286D8909E
:1084700024D0E0906148F09024D1E0906149F090E0
:1084800024D2E090614AF09024D3E090614BF090C8
:1084900024F0E090614CF09024F1E090614DF09078
:1084A00024F2E090614EF09024F3E0FA90614FF0F6
:1084B00090240BE030E2047A0180027A009061712E
:1084C000EAF00286D89024D0E0906150F09024D158
:1084D000E0906151F09024D2E0906152F09024D36A
:1084E000E0906153F09024F0E0906154F09024F11A
:1084F000E0906155F09024F2E0906156F09024F302
:10850000E0FA906157F00286D89024D0E09061584C
:10851000F09024D1E0906159F09024D2E090615A1B
:10852000F09024D3E090615BF09024F0E090615CE7
:10853000F09024F1E090615DF09024F2E090615EB3
:10854000F09024F3E0FA90615FF00286D89024D096
:10855000E0906160F09024D1E0906161F09024D2CD
:10856000E0906162F09024D3E0906163F09024F099
:10857000E0906164F09024F1E0906165F09024F265
:10858000E0906166F09024F3E0FA906167F0028673
:10859000D89024D0E0906168F09024D1E090616997
:1085A000F09024D2E090616AF09024D3E090616B67
:1085B000F09024F0E090616CF09024F1E090616D17
:1085C000F09024F2E090616EF09024F3E0FA906174
:1085D0006FF00286D87440C0E0E4C0E074D0C0E020
:1085E0007424C0E0E4C0E090610075F000787F7909
:1085F000C97A021200B3E58124FBF5810286D89086
:1086000024C0E0547F9061B8547FF5F0E054804579
:10861000F0F09024C1E0547F9061B9547FF5F0E010
:10862000548045F0F09024C2E0547F9061BA547FAA
:10863000F5F0E0548045F0F09024C3E0547F906161
:10864000BB547FF5F0E0548045F0F09024C4E05432
:108650007F9061BC547FF5F0E0548045F0F09024A9
:10866000C5E0547F9061BD547FF5F0E0548045F043
:10867000F09024C6E0547F9061BE547FF5F0E05442
:108680008045F0F09024C7E0547F9061BF547FF59F
:10869000F0E0548045F0F0902510E0906140F090BB
:1086A0002511E0906141F0902512E0906142F09038
:1086B0002513E0906143F0902514E0906144F09020
:1086C0002515E0906145F0902516E0906146F09008
:1086D0002517E0FA906147F00200C5AA82BA0002AD
:1086E0008009BA0203028777028800906148E0900F
:1086F0002440543FF5F0E054C045F0F0906149E06B
:10870000902441543FF5F0E054C045F0F090614AA8
:10871000E0902442543FF5F0E054C045F0F0906101
:108720004BE0902443543FF5F0E054C045F0F09006
:10873000614CE0902460543FF5F0E054C045F0F007
:1087400090614DE0902461543FF5F0E054C045F055
:10875000F090614EE0902462543FF5F0E054C04543
:10876000F0F090614FE0FA902463543FF5F0E0544C
:10877000C045F0F0028800906158E0902440543FDA
:10878000F5F0E054C045F0F0906159E09024415478
:108790003FF5F0E054C045F0F090615AE09024427B
:1087A000543FF5F0E054C045F0F090615BE0902458
:1087B00043543FF5F0E054C045F0F090615CE09028
:1087C0002460543FF5F0E054C045F0F090615DE066
:1087D000902461543FF5F0E054C045F0F090615EA4
:1087E000E0902462543FF5F0E054C045F0F0906111
:1087F0005FE0FA902463543FF5F0E054C045F0F098
:10880000902430740FF0E4F0902434740FF0E4F00E
:1088100090240BE030E5F90200C5E582FA602B9068
:10882000604CE030E010900264E054E7F090020CFD
:10883000E0548FF08026900264E054E74408F09002
:10884000020CE0548F4430F08012900264E054E750
:108850004410F090020CE0548F4420F090000A780D
:108860003279C47A021200B30200C59060A4E030ED
:10887000E4119024087455F0A3F090240AE054C049
:10888000F0800F90240874FFF0A3F090240AE044D5
:108890003FF0902401E054FDF0902401E054FEF0FC
:1088A00090240AE054BFF0902402E054F7F09024A2
:1088B00002E054FBF090240BE0547FF090240BE096
:1088C00054BFF00200C5902401E0C4035401FABA79
:1088D0000126758B18758DFCD28EC203902401E0A1
:1088E00054DFF0902402E020E1033003F6902402EC
:1088F000E054FEF0C28EC28F0200C590E607E03061
:10890000E2030289B3902401E030E5030289B390C9
:1089100066F7E0FABA01030289B390604CE020E404
:108920000790604CE030E3030289B3758201780957
:1089300079837A021200B3902406E0543F4480F019
:108940009024077405F0786B79887A021200B3904E
:108950002408E0FA5302FD902408EAF090240AE08B
:108960004440F0902405E054FDF0902405E054FECE
:10897000F0902405E054F7F0D20DD20C7582007807
:10898000B679897A021200B3902401E04420F09075
:108990002402E054FEF0E04401F090604EE030E745
:1089A00012902401E054FBF0E04410F0902401E028
:1089B0004401F00200C5AA82300C07200D047B0C94
:1089C0008013200C07300D047B038009BA01047B5F
:1089D0000C80027B0F9060A4E0540FF4FA520390D5
:1089E0002400EBC454F0F5F0E0540F45F0F0020021
:1089F000C5900228E003035407FA5302039060A4D1
:108A0000E054EFF09067947420F09060A4E054DF9D
:108A1000F0BA0313902402E0547FF0E04440F09059
:108A200067937408F0804EBA0213902402E04480E9
:108A3000F0E054BFF09067937404F08038BA0121DD
:108A4000902402E0547FF0E04440F0906793740279
:108A5000F09060A4E04410F09060A4E04420F08026
:108A600014902402E04480F0902402E04440F0900E
:108A700067937401F0900228E003035407FB30E28F
:108A80000B906793E025E0FB906793F09066F7E02A
:108A9000FB700D906793E0C42354E0FB906794F063
:108AA000EA7010902402E04420F09060A4E054F0BA
:108AB000F08010902402E054DFF09060A4E054F0C5
:108AC0004405F00200C5C018858118AA82AB8390C6
:108AD0006038E023235401FCBC010280119066F74A
:108AE000E0FCBC01028007902411E020E103028D2C
:108AF0005E90604FE030E71C902405E0540FF0904A
:108B00002406E054C0F0902406E0543FF09024077F
:108B1000E4F0804A8B04740F5C902405C454F0F593
:108B2000F0E0540F45F0F0ECC4540FFC53043F90B8
:108B30002406EC543FF5F0E054C045F0F074035ABD
:108B4000FB902406030354C0F5F0E0543F45F0F0D9
:108B5000EA0303543FFA53023F902407EAF0E51872
:108B600024FCF8E624F95003028C42E51824FCF8B2
:108B7000E625E026908B7873028B8D028BA9028B01
:108B8000C6028BDF028BF5028C0E028C2790240824
:108B90007401F0902409E4F090240AE054C0F090AD
:108BA000240AE054BFF0028C5990240874FFF0901E
:108BB000240974FFF090240AE054C0F090240AE0E5
:108BC00054BFF0028C5990240874FFF0902409746B
:108BD000FFF090240AE0443FF0E054BFF0807A9028
:108BE0002408E4F0902409F090240AE054C0F0E056
:108BF0004440F0806490240874FDF090240974FFD0
:108C0000F090240AE0443FF0E054BFF0804B902401
:108C10000874F0F090240974FFF090240AE0443FB7
:108C2000F0E054BFF08032902408740DF0902409D5
:108C3000E4F090240AE0443FF090240AE04440F03D
:108C40008017902408E4F0902409F090240AE0545E
:108C5000C0F090240AE054BFF0E51824FCF8B6FFF9
:108C600002804D9060A0E030E21B902408E0FA53AF
:108C70000201902408EAF0902409E4F090240AE02C
:108C800054C0F0802B9060A4E030E50790240AE007
:108C900054C0F09060A4E030E416902408E0FAA3F9
:108CA000E0FB530255530355902408EAF0A3EBF080
:108CB000900264E0C4235403FABA0202800D9024A7
:108CC00008E0FA5302FD902408EAF0902402E054F0
:108CD000FEF0E04401F0780C79C87A021200B390FB
:108CE0006098E020E45330080C758BF8758DFFD246
:108CF0008EC203800A758B18758DFCD28EC20390CC
:108D00002402E020E1033003F6902402E054FEF058
:108D10003003209022C2E0FA0A9022C2EAF090606A
:108D2000A3E0FA4302019060A3EAF0C203906799BE
:108D30007401F0C28EC28F800E902402E030E1F9FF
:108D4000902402E054FEF0902408E4F0902409F00E
:108D500090240AE054C0F090240AE054BFF0D018E8
:108D60000200C5AA82906016E0FB900224C423543E
:108D700060F5F0E0549F45F0F0BA01028003028EE6
:108D800013902403E04440F09061B8E090243854FC
:108D90007FF5F0E0548045F0F09061B9E09024391F
:108DA000547FF5F0E0548045F0F09061BAE09024F3
:108DB0003A547FF5F0E0548045F0F09061BBE090CC
:108DC000243B547FF5F0E0548045F0F09061BCE026
:108DD00090243C547FF5F0E0548045F0F09061BD64
:108DE000E090243D547FF5F0E0548045F0F0906130
:108DF000BEE090243E547FF5F0E0548045F0F090C2
:108E000061BFE0FA90243F547FF5F0E0548045F0D4
:108E1000F08007902403E054BFF0902403E0442046
:108E2000F0E054DFF0758B9C758DFFD28EC203206D
:108E3000031590240BE0C4035401FA90240BE0C402
:108E4000035401FB5A60E80200C5AA82BA000280FE
:108E500005BA012D8017902405E04408F090240500
:108E6000E04401F0902405E04402F0803D902405A8
:108E7000E04408F0E054FEF0902405E054FDF0805A
:108E800029902405E054F7F0902400E0C4540FFA30
:108E9000BA0F09902405E054FDF08007902405E006
:108EA0004402F0902405E054FEF00200C59066F8FC
:108EB000E0FA7403B502004072EA2A2A908EC07369
:108EC000028ECC028EE3028F05028F19900058E0CB
:108ED00054DFF0900058E054BFF0900058E054EF99
:108EE000F08048A20DE43390005813E092E5F0A220
:108EF0000CE433FA90005813E092E6F0900058E04A
:108F000054EFF08026900058E04420F0900058E0A4
:108F10004440F0E054EFF08012900058E054DFF04D
:0E8F2000900058E054BFF0E04410F00200C58D
:020000040000FA
:1000FD00906099E0FABA1709782A79B87A02120055
:0F010D00B3906098E054FEF0902230742BF022F3
:10022100C018858118058105819022D8E04420F00D
:10023100E054DFF09022B47414F09022E4E020E066
:100241000A906033E054FEF00204ED7A0290601FE0
:10025100E0FBA81808A60390601CE0FC906023E076
:10026100FD530580A8180808E4BD800104F69060DC
:1002710020E0FEA3E0FFA3E0FDA3E0FB906024EEFD
:10028100F0A3EFF0A3EDF0A3EBF0906023E0FB53BC
:10029100030FBB050040057A040204B5A81808083D
:1002A100E660027B80C0029022B47413F09022B504
:1002B100A81808E6F09022B6ECF0906020E0FDA3CB
:1002C100E0FEA3E0FFA3E0FA9022C4EDF0A3EEF07C
:1002D100A3EFF0A3EAF0A81808B660028004D002E8
:1002E100800FD002902600E020E0030204B5020452
:1002F100EDA81808B68071740BB504005003020410
:10030100B5EC2C2C9003097302032D02032D02037B
:100311006602036602036602036602033D02033DB1
:1003210002034D02034D02035D02035DC0048B8293
:100331001204F3AD8215818D020204B5C0048B82D3
:10034100120D0AAD8215818D020204B5C0048B82A3
:1003510012126AAD8215818D020204B58C821210CF
:10036100FAAD828D020204B5A81808B6814774055A
:10037100B5040050030204B5EC2C2C9003807302E9
:10038100039202039202039E02039E0203AA020346
:10039100AA8C82121137AD828D020204B58C8212B1
:1003A1001183AD828D020204B58C82121215AD82C9
:1003B1008D020204B5A81808B682697407B5040055
:1003C10050030204B5EC2C2C9003CD730203E5021B
:1003D10003E50203F50203F5020405020405020424
:1003E10015020415C0048B82120F53AD8215818D45
:1003F100020204B5C0048B82120B32AD8215818DCD
:10040100020204B5C0048B8212099CAD8215818D54
:10041100020204B5C0048B82120C24AD8215818DB9
:10042100020204B5A81808B683487405B504005043
:10043100030204B5EC2C2C90043C7302044E02041C
:100441004E02045D02045D020468020468C0048B6C
:1004510082120E55AB8215818B0280588C82120F4D
:1004610006AB828B02804D8C82120F2CAB828B02E9
:100471008042A81808B6843CBC00028005BC013447
:10048100801A906020E0FB530303902200E0FCEB14
:10049100B504211213F0AB828B028018906020E02A
:1004A100FB530303902200E0FCEBB5040712142177
:1004B100AB828B0290602EEAF0906033E04401F051
:1004C1009022B4740FF090602EE0FA9022B5EAF019
:1004D100906024E0FAA3E0FBA3E0FCA3E0FD9022FE
:1004E100C4EAF0A3EBF0A3ECF0A3EDF0851881D002
:1004F1001822C018858118C082E581240CF581A8D5
:100501001808B6800280030205F6E51824FDF8B646
:100511000167902634E0906024F0902635E0FB904E
:100521006025F0902636E030E70D906024E0FB4333
:100531000308906024EBF0902636E030E60D9060E1
:1005410024E0FB430304906024EBF0902636E03076
:10055100E50D906024E0FB430302906024EBF090F2
:1005610067A4E0FB7003020993906024E0FB43035E
:1005710001906024EBF0020993902637E04420F0CB
:10058100906020E0902634F0906021E0902635F0D4
:10059100906020E0FB530308BB0803D38001C392A2
:1005A10028E43390263613E092E7F0906020E0FBD8
:1005B100530304BB0403D38001C39228E433902680
:1005C1003613E092E6F0906020E0FB530302BB0299
:1005D10003D38001C39228E43390263613E092E5D9
:1005E100F0906020E0FB5303019067A4E4BB01019C
:1005F10004F0020993E51824FDF8B6010280030214
:100601000761A81808E675F050A4FBACF02404FDBE
:10061100EC3463FE740B2DF582E43EF583E0C454A3
:10062100F0906024F0A8180886F005F07A017D00AA
:100631008006EA2AFAED33FDD5F0F79060CBE51894
:100641002405F8E0F6A3E008F6A3E008F6A3E00825
:10065100F6EDFE3395E0FDFFE5182405F8E65202BC
:1006610008E6520608E6520508E65207EA4E4D4FE3
:10067100600D906024E0FD430508906024EDF0EBEF
:100681002404FDEC3463FE74082DFDE43EFE8D82EE
:100691008E83E0600D906024E0FD430504906024AA
:1006A100EDF0EB2404FDEC3463FE740A2DFDE43E11
:1006B100FE8D828E83E0600D906024E0FD43050293
:1006C100906024EDF0A81808E625E024D0F582E436
:1006D1003460F583E0FD30E00D906024E0FD4305DA
:1006E10001906024EDF0A81808E624FB404BA818FF
:1006F10008E625E0269006FA7302070902071202AE
:10070100071D0207270207329060C8E0540FFD80E1
:10071100289060C8E0C4540FFEFD801D9060C9E0C0
:10072100540FFEFD80139060C9E0C4540FFEFD809C
:10073100089060CAE0540FFEFDEDC454F0906025AE
:10074100F0E0FEEB2404FBEC3463FC74092BF5822E
:10075100E43CF583E0FB4206906025EEF00209934C
:10076100A81808E5182403F9E675F050A4F709A7BD
:10077100F0E5182403F8E62404FE08E63463FF7468
:100781000B2EFEE43FFF906020E0C4540F8E828F59
:1007910083F0906020E0FA530208BA0850A81808C4
:1007A10086F005F07B017A008006EB2BFBEA33FA39
:1007B100D5F0F79060CBE5182409F8E0F6A3E0083E
:1007C100F6A3E008F6A3E008F68B07EA3395E0FB11
:1007D100FCE5182409F89060CBEF46F0EA0846A33F
:1007E100F0EB0846A3F0EC0846A3F08062A81808D5
:1007F10086F005F07A017E008006EA2AFAEE33FEE1
:10080100D5F0F7E5182409F8EAF4F6EEF408F690C5
:1008110060CBE5182405F8E0F6A3E008F6A3E008AC
:10082100F6A3E008F6E5182409F88604088602E62E
:100831003395E0FBFEE5182405F89060CBEC56F00B
:10084100EA0856A3F0EB0856A3F0EE0856A3F0E52C
:10085100182403F8E62404FA08E63463FB74082A32
:10086100FAE43BFB906020E0FC530404E4BC040187
:10087100048A828B83F0E5182403F8E62404FA083D
:10088100E63463FB740A2AFAE43BFB906020E0FC47
:10089100530402E4BC020104FC8A828B83F0906061
:1008A10020E0FA530201BA0125A81808E625E0FA6A
:1008B10024D0FBE43460FCEA24D0F582E43460F512
:1008C10083E0FA4302018B828C83EAF08023A8182B
:1008D10008E625E0FA24D0FBE43460FCEA24D0F5F4
:1008E10082E43460F583E0FA5302FE8B828C83EA62
:1008F100F0906021E0C4540FFA740F5AFDA8180853
:10090100E624FB406AA81808E625E0269009117341
:1009110002092002093002094102095102096290CB
:1009210060C8ED540FF5F0E054F045F0F0804090D0
:1009310060C8EDC454F0F5F0E0540F45F0F0802F9D
:100941009060C9ED540FF5F0E054F045F0F0801FD0
:100951009060C9EDC454F0F5F0E0540F45F0F0801B
:100961000E9060CAED540FF5F0E054F045F0F0E55B
:10097100182403F8E62404FA08E63463FB74092A10
:10098100FAE43BFB906021E0FC53040F8A828B83E5
:10099100ECF0758200851881D01822C01885811865
:1009A100AA82BA80028003020A4EE51824FDF8B635
:1009B1000538900050E0FB53031F906024EBF0E0FA
:1009C100FB900054E0FC74E05C4203906024EBF087
:1009D100902411E0035401906025F0900058E02329
:1009E1005401FB906026F0020B2C906020E09000F7
:1009F10050F0900054E0FB53031F900054EBF0E0E3
:100A0100FB906020E0FC74E05C4203900054EBF04A
:100A1100906021E0540190241013E092E4F09024BE
:100A210010E0C4540190240CE0232354019066F794
:100A3100F0906022E0FB30E00A900058E04480F042
:100A4100020B2C900058E0547FF0020B2CE5182487
:100A5100FDF8B60561EA2A25E024B4F582E43460A4
:100A6100F583E0906024F0EA75F050A42404FB744F
:100A71006335F0FC74412BF582E43CF583E0FBE443
:100A8100BB000104906025F0906087E0FB8AF005CF
:100A9100F07C017D008006EC2CFCED33FDD5F0F7F8
:100AA1007E00EB5204EE5205EC4D60027401FB90A6
:100AB1006026EBF08075EA2A25E024B4FBE434607B
:100AC100FC906020E08B828C83F0EA75F050A424C6
:100AD10004FB746335F0FC74412BFBE43CFC906037
:100AE10021E0FD530501E4BD000104FD8B828C83EF
:100AF100F08AF005F07401800225E0D5F0FBFA9050
:100B010067A8E04AF0906022E0FB30E00F90608738
:100B1100E0FBEA4203906087EBF0800F906087E092
:100B2100FBEAF4FA5203906087EBF0758200D0186B
:100B310022C018858118AA82BA8040E51824FDF8E0
:100B4100B60317900200E0FB906024EBF0900204E2
:100B5100E0FB906026EBF0020C1E906020E0FB9021
:100B61000200EBF0906022E0FB900000EBF090605F
:100B710022E0FB900204EBF0020C1EE51824FDF8C4
:100B8100B60330EA2A25E0FB24B4FCE43460FD8C92
:100B9100828D83A3E0FC906024ECF0EB24B4FBE4B1
:100BA1003460FC8B828C83A3A3A3E0FB906026EBD3
:100BB100F0806AEA2A25E0FB24B4FCE43460FD0CF1
:100BC100BC00010D906020E0FE8C828D83EEF0EB85
:100BD10024B4FCE43460FD74022CFCE43DFD90601F
:100BE10022E0FE8C828D83EEF0EB24B4FBE43460D2
:100BF100FC74032BFBE43CFC906022E0FD8B828CB7
:100C010083EDF09060CDE0FB8AF005F07401800285
:100C110025E0D5F0FBFA42039060CDEBF075820040
:100C2100D01822C018858118AA82BA8002800302D6
:100C31000CBFE51824FDF8B6070C9067A6E0FB9001
:100C41006024F0020D04906013E0FB53031F7C004D
:100C5100906020E0FD53053F9067A6EDF0ED70191F
:100C6100906013E0FE90001025E025E054FCF5F0C3
:100C7100E0540345F0F0020D047E00C005C0068B70
:100C8100828C831270CDAD82AE83158115818D0367
:100C9100EEC403CBC40354076BCB5407CB6BCBFC23
:100CA100906013E0FD530520EB4205900010ED2DFF
:100CB10025E054FCF5F0E0540345F0F08045E518DB
:100CC10024FDF8B60712EA247CF582E43460F5834A
:100CD100E0FB906024F0802BEA247CFBE43460FC90
:100CE100906020E0FD53053F8B828C83EDF08AF00C
:100CF10005F07401800225E0D5F0FBFA9067A7E0CA
:100D0100FB4AF0758200D01822C018858118AA828A
:100D1100BA80028003020D98E51824FDF8B6072C6D
:100D210090004CE0C45403FB906024EBF090004C25
:100D3100E003035403FB906025EBF090004CE023AB
:100D4100235403FB906026EBF0020E4F906020E0ED
:100D5100FB53030390004CEBC45430F5F0E054CF47
:100D610045F0F0906021E0FB53030390004CEB2B26
:100D710025E0540CF5F0E054F345F0F0906022E0EA
:100D8100FB53030390004CEB030354C0F5F0E05414
:100D91003F45F0F0020E4FE51824FDF8B6065FEA74
:100DA10075F050A4FBACF0EB2404FDEC3463FE744D
:100DB1000E2DFDE43EFE906020E0FF5307038D827F
:100DC1008E83EFF0EB2404FDEC3463FE740D2DFDF6
:100DD100E43EFE906021E0FF5307038D828E83EF96
:100DE100F0EB2404FBEC3463FC740C2BFBE43CFCC3
:100DF100906022E0FD5305038B828C83EDF0EA7550
:100E0100F050A4FAABF0EA2404FCEB3463FD740E59
:100E11002CF582E43DF583E0FC906024ECF0EA24BB
:100E210004FCEB3463FD740D2CF582E43DF583E0A5
:100E3100FC906025ECF0EA2404FAEB3463FB740CBB
:100E41002AF582E43BF583E0FA906026EAF07582A8
:100E510000D01822C018858118AA82BA8024E5180A
:100E610024FDF8B6010D9067CCE0FB906024EBF017
:100E7100020F00906020E0FB9067CC74015BF002F0
:100E81000F00E51824FDF8B601369060F7E0FB8A03
:100E9100F005F07C017D008006EC2CFCED33FDD5E6
:100EA100F0F77E00EB5204EE5205E4BC0004BD00F5
:100EB1000104FCB40100E433FC906024ECF0803FB9
:100EC100906020E0FB30E01C9060F7E0FB8AF005C9
:100ED100F07401800225E0D5F0FBFC42039060F73D
:100EE100EBF0801B9060F7E0FB8AF005F074018065
:100EF1000225E0D5F0FBF4FA52039060F7EBF075B0
:100F01008200D01822AA82BA030E906076E0C454FF
:100F110001FA906024F0800F906020E05401FA9073
:100F2100607613E092E4F075820022AA82BA050F7E
:100F3100906076E0C4035401FA906024F0800F9031
:100F41006020E05401FA90607613E092E5F075823A
:100F51000022C018858118AA82BA8002800302107B
:100F610006E51824FDF8B6013A902165E003035423
:100F710007FB902165E0C4035407C454F0FCEB4225
:100F810004906024ECF090022CE0540FFB900230AE
:100F9100E0C4540FC454F0FCEB4204906025ECF023
:100FA1000210F4906020E0FB530307902165EB2BC6
:100FB10025E0541CF5F0E054E345F0F0906020E0AA
:100FC1005470C4540F902165C42354E0F5F0E054EB
:100FD1001F45F0F0906021E0FB53030F90022CEBD2
:100FE100540FF5F0E054F045F0F0906021E054F03A
:100FF100C4540FFB900230C454F0F5F0E0540F4597
:10100100F0F00210F4E51824FDF8E6707CEA75F0C2
:1010110050A4FBACF02404FDEC3463FE74222DFDDE
:10102100E43EFE906020E0FF5307078D828E83EF40
:10103100F0EB2404FDEC3463FE74232DFDE43EFE4D
:10104100906020E05470C4540F8D828E83F0EB24A5
:1010510004FDEC3463FE74242DFDE43EFE9060211A
:10106100E0FF53070F8D828E83EFF0EB2404FBEC3E
:101071003463FC74252BFBE43CFC906021E054F0CC
:10108100C4540FFD8B828C83F0EA75F050A4FAAB47
:10109100F02404FCEB3463FD74222CFCE43DFDEAF6
:1010A1002404FEEB3463FF74232EF582E43FF583C1
:1010B100E0C454F0FE8C828D83E04206906024EE01
:1010C100F0EA2404FCEB3463FD74242CFCE43DFDC4
:1010D100EA2404FAEB3463FB74252AF582E43BF538
:1010E10083E0C454F0FA8C828D83E0FC420290606C
:1010F10025EAF0758200D01822AA8290A316E05446
:1011010007FBBB030475820222BA0A18906020E033
:10111100FA530207902013EAC42354E0F5F0E05497
:101121001F45F0F0902013E0C4035407FA906024A7
:10113100EAF075820022AA8290A316E05407FBBB55
:101141000302800A90A316E05407FBBB05047582D5
:101151000222EA701F906020E0FA7403B502004099
:1011610006906020E0700475820422906020E0FA0D
:101171009065F6F09065F6E0FA906024EAF07582E9
:101181000022AA8290A316E05407FBBB0302800A47
:1011910090A316E05407FBBB050475820122906001
:1011A10023E0FB53030F7405B503004003EB700408
:1011B10075820422BA022DEB2BFA24B0FCE434E64A
:1011C100FD0CBC00010D906021E0FE8C828D83EE50
:1011D100F0EA24B0FAE434E6FC906020E0FD8A8273
:1011E1008C83EDF0906027EBF0EB2BFB24B0FAE45D
:1011F10034E6FC8A828C83A3E0FA906025EAF0EB66
:1012010024B0F582E434E6F583E0FA906024EAF054
:1012110075820022AA8290A316E05407FBBB030249
:10122100800A90A316E05407FBBB050475820222D5
:10123100BA0428906020E0FA7405B50200400690D7
:101241006020E0700475820422906020E0FA90E64C
:101251002B540FF5F0E054F045F0F090E62BE054FC
:101261000F906024F075820022C018858118AA822F
:10127100BA80028003021330E51824FDF8B609454F
:1012810090200CE003035401FB906026F030101B0A
:1012910090A013E023235401906025F090A01BE05F
:1012A10003547FFB906024F00213EA90A00BE0232B
:1012B100235401906025F090A012E0547FFB9060D0
:1012C10024F00213EA90200CE04402F0906022E046
:1012D100FB30E00990200CE04404F0800790200CE2
:1012E100E054FBF0301025906021E0540190A013F0
:1012F10013E092E6F0906020E0FB90A01B25E05403
:10130100FEF5F0E0540145F0F00213EA906021E0AF
:10131100540190A00B13E092E6F0906020E0FB9066
:10132100A012547FF5F0E0548045F0F00213EAE595
:101331001824FDF8B6086E90E613E04410F0EA2A8E
:1013410025E0FB2498FCE434E6FD906022E0FE53A6
:101351000601BE0103D38001C39228E4338C828D40
:101361008313E092E0F0EB2484FCE434E6FD7403A3
:101371002CFCE43DFD906020E0FE8C828D83547F47
:10138100F5F0E0548045F0F0EB2484FBE434E6FC16
:1013910074032BFBE43CFC906021E0FD8B828C8389
:1013A10013E092E7F0EA2A25E0FA2484FBE434E62C
:1013B100FC8B828C83A3A3A3E0235401906025F0CE
:1013C100EA2484FBE434E6FC8B828C83A3A3A3E0B0
:1013D100547FFB906024F0EA2498F582E434E6F52A
:1013E10083E05401FA906026F0758200D018227AC9
:1013F10000902102E020E6047A028021908200E040
:101401004404F0C00278AA79C27A021200B3D00271
:10141100908200E054FBF0902230742BF08A8222FB
:101421007A00902102E020E6047A02802190820075
:10143100E04408F0C00278F579BB7A021200B3D01B
:1014410002908200E054F7F0902230742BF08A82EF
:101451002275880575895175A91C75B906D2ABD25B
:10146100ADD2A8D2AAC2A975B83F75C878759A3EFF
:10147100C205C206C207C208906711E4F0C209C2E0
:0F1481000AD203D204C21DC21E9067A5E4F02256
:020000040001F9
:108EE000906038E0547FF0906098E030E11090603E
:108EF0009CE0FAA3E0FB906174EAF0A3EBF09067CA
:108F000099E4F07A03C002780779847A011200B3F9
:108F1000D002906799E0FB6027906037E0FBBB01CF
:108F2000109060407401F0906040E0FBBB01028053
:108F3000F68A031AC374808BF063F08095F040C505
:108F4000787B79947A011200B37852799D7A011274
:108F500000B3906038E04480F0906658E0FA90608A
:108F60004AEAF0906659E0FA906049EAF090665F4C
:108F7000E0FA906048EAF090665AE0FA90604BEAB6
:108F8000F00200C590614AE0FA90614BE0FBC0023C
:108F90008B82781979C87A021200B3AB8215818B63
:108FA0000290614EE0FBC0028B82781979C87A0288
:108FB0001200B3AB8215818B0290614FE0FBC002BF
:108FC0008B82781979C87A021200B3AB821581902E
:108FD0006643EBF0906148E0FA906149E0FBC00223
:108FE0008B82781979C87A021200B3AB8215818B13
:108FF0000290614CE0FBC0028B82781979C87A023A
:109000001200B3AB8215818B0290614DE0FBC00270
:109010008B82781979C87A021200B3AA82158190DE
:109020006642EAF090614AE0FA7B0090614BE0FC16
:109030007D00EC2AFAED3BFB90614EE0FC7D00ECFC
:109040002AFAED3BFB90614FE0FC7D00EC2AFAED43
:109050003BA2E713CA13CAA2E713CA13CA90664118
:10906000EAF0906148E0FA7B00906149E0FC7D0005
:10907000EC2AFAED3BFB90614CE0FC7D00EC2AFA17
:10908000ED3BFB90614DE0FC7D00EC2AFAED3BA24C
:10909000E713CA13CAA2E713CA13CA906640EAF0DC
:1090A000906152E0FA7B00906153E0FC7D00EC2A75
:1090B000FAED3BFB906156E0FC7D00EC2AFAED3BBB
:1090C000FB906157E0FC7D00EC2AFAED3BA2E71330
:1090D000CA13CAA2E713CA13CA906645EAF09061A0
:1090E00050E0FA7B00906151E0FC7D00EC2AFAED43
:1090F0003BFB906154E0FC7D00EC2AFAED3BFB90D9
:109100006155E0FC7D00EC2AFAED3BA2E713CA139F
:10911000CAA2E713CA13CA906644EAF090610CE051
:10912000FA3395E0FB90612CE0FC3395E0FDEC2AEE
:10913000FAED3BA2E713CA13CA906646EAF09061C3
:1091400004E0FA3395E0FB906105E0FC3395E0FD27
:10915000EC2AFAED3BFB906124E0FC3395E0FDEC5A
:109160002AFAED3BFB906125E0FC3395E0FDEC2A0B
:10917000FAED3BA2E713CA13CAA2E713CA13CA90B7
:109180006647EAF0906106E0FA3395E0FB906107EC
:10919000E0FC3395E0FDEC2AFAED3BFB906126E024
:1091A000FC3395E0FDEC2AFAED3BFB906127E0FCF7
:1091B0003395E0FDEC2AFAED3BA2E713CA13CAA2ED
:1091C000E713CA13CA906648EAF0906108E0FA33E0
:1091D00095E0FB906109E0FC3395E0FDEC2AFAEDA7
:1091E0003BFB906128E0FC3395E0FDEC2AFAED3B77
:1091F000FB906129E0FC3395E0FDEC2AFAED3BA2FF
:10920000E713CA13CAA2E713CA13CA906649EAF061
:1092100090610AE0FA3395E0FB90610BE0FC339536
:10922000E0FDEC2AFAED3BFB90612AE0FC3395E08F
:10923000FDEC2AFAED3BFB90612BE0FC3395E0FD61
:10924000EC2AFAED3BA2E713CA13CAA2E713CA132A
:10925000CA90664AEAF090610DE0FA3395E0FB901F
:10926000612DE0FC3395E0FDEC2AFAED3BA2E7131B
:10927000CA13CA90664BEAF090610EE0FA3395E0AB
:10928000FB90612EE0FC3395E0FDEC2AFAED3BA269
:10929000E713CA13CA90664CEAF090610FE0FA3304
:1092A00095E0FB90612FE0FC3395E0FDEC2AFAEDB0
:1092B0003BA2E713CA13CA90664DEAF0906110E032
:1092C000FA3395E0FB906130E0FC3395E0FDEC2A49
:1092D000FAED3BA2E713CA13CA90664EEAF090611A
:1092E0005AE0FA7B0090615BE0FC7D00EC2AFAED2D
:1092F0003BFB90615EE0FC7D00EC2AFAED3BFB90CD
:10930000615FE0FC7D00EC2AFAED3BA2E713CA1393
:10931000CAA2E713CA13CA906650EAF0906158E0F7
:10932000FA7B00906159E0FC7D00EC2AFAED3BFBF2
:1093300090615CE0FC7D00EC2AFAED3BFB90615D06
:10934000E0FC7D00EC2AFAED3BA2E713CA13CAA2A7
:10935000E713CA13CAFB90664FEAF09060A0E020C2
:10936000E3030293E2906162E0FA7B00906163E0C4
:10937000FC7D00EC2AFAED3BFB906166E0FC7D0091
:10938000EC2AFAED3BFB906167E0FC7D00EC2AFAE9
:10939000ED3BA2E713CA13CAA2E713CA13CA906629
:1093A00052EAF090616AE0FA7B0090616BE0FC7D2C
:1093B00000EC2AFAED3BFB90616EE0FC7D00EC2AAC
:1093C000FAED3BFB90616FE0FC7D00EC2AFAED3B8F
:1093D000A2E713CA13CAA2E713CA13CAFB906654C2
:1093E000EAF0906170E0906655F0906174E0FAA345
:1093F000E0FB20E103029478902510E0FA3395E039
:10940000FB902511E0FC3395E0FDEAC39CFAEB9D4F
:10941000FB902514E0FC3395E0FDEC2AFAED3BFBD4
:10942000902515E0FC3395E0FDEAC39CFAEB9D8A9C
:1094300004906656ECF0902512E0FA3395E0FB902C
:109440002513E0FC3395E0FDEAC39CFAEB9DFB900D
:109450002516E0FC3395E0FDEC2AFAED3BFB902568
:1094600017E0FC3395E0FDEAC39CFAEB9DFB9066A8
:1094700057EAF0906796E4F00200C5C0188581189D
:1094800005817884798F7A011200B3300D37200C72
:1094900034906644E090665AF0906640E0906659D9
:1094A000F0906642E0906658F0906647E090665B08
:1094B000F0906649E090665CF090664FE0FA906646
:1094C0005FF00295DE200D37300C34906645E09059
:1094D000665AF0906641E0906659F0906643E090DD
:1094E0006658F0906648E090665BF090664AE090BF
:1094F000665CF0906650E0FA90665FF00295DE9050
:109500006644E0FA7B00906645E0FC7D002AFAEDB7
:109510003BFB0ABA00010BEBA2E713CA13CA906621
:109520005AEAF0906640E0FA7B00906641E0FC7DEC
:10953000002AFAED3BFB0ABA00010BEBA2E713CAC3
:1095400013CA906659EAF0906643E0FA906642E0EA
:10955000FBC0028B82781979C87A021200B3AA8202
:109560001581906658EAF0906647E0FA3395E0FB83
:10957000906648E0FC3395E0FDEC2AFAED3BFB0AEF
:10958000BA00010BEBA2E713CA13CA90665BEAF0BC
:10959000906649E0FA3395E0FB90664AE0FC33952B
:1095A000E0FDEC2AFAED3BFB0ABA00010BEBA2E767
:1095B00013CA13CA90665CEAF090664FE0FA7B002B
:1095C000906650E0FC7D002AFAED3BFB0ABA0001F0
:1095D0000BEBA2E713CA13CAFB90665FEAF0906632
:1095E0005AE0FA906659E0FBEAC39B90665DF09002
:1095F000665DE0FA74C1C0E0743FC0E08A82786BB7
:1096000079C87A021200B3AA821581158190665D2D
:10961000EAF0906646E0F582784879C97A0212004D
:10962000B3E582FA3395E0FB90665BE0F582C00219
:10963000C003784879C97A021200B3AC82D003D053
:1096400002EC3395E0FDEC2AFAED3BFB90665CE022
:10965000F582C002C003784879C97A021200B3AC1F
:1096600082D003D002EC3395E0FDEC2AFAED3BFB0F
:1096700090664BE0F582C002C003784879C97A024F
:109680001200B3AC82D003D002EC3395E0FDEC2A9B
:10969000FAED3BFB90664CE0F582C002C0037848CF
:1096A00079C97A021200B3AC82D003D002EC3395B0
:1096B000E0FDEC2AFAED3BFB90604DE023235401E2
:1096C000FCB40100E433FC604A906658E0FC906012
:1096D00067E0FDECB50500B3E433FD703190606EDA
:1096E000E0FDECB50500B3E433FC601690606DE07E
:1096F000FC7D00C3EA9CEB64808DF063F08095F004
:1097000040047A0080027A01EA7003FA80027A014A
:10971000EA70047A0080027A01906666EAF090604E
:109720004DE023235401FAB40100E433FA60489079
:109730006646E0F582784879C97A021200B3AA82B7
:10974000906066E0FBEAB50300B3E433FB7023905E
:10975000665BE0F582784879C97A021200B3AA8282
:1097600090606FE0FBEAB50300B3E433FB7003FAEB
:1097700080027A01EA70047A0080027A01906667BA
:10978000EAF0906666E07009906667E07003FA8020
:10979000027A01906668EAF090665FE0FA90604FA6
:1097A000E0543FFB8A04C3EB64808CF063F0809547
:1097B000F05006906655E070047B0080027B0190BB
:1097C0006669EBF090604DE0541FFB8A04C3EC64C3
:1097D000808BF063F08095F0B3E433FC6006906614
:1097E00055E070047B0080027B0190666AEBF0908C
:1097F000665AE0FB906659E0FCEBB5040040048C2F
:10980000058007EB2BFEC39CFCFD906655E06010C5
:1098100090600AE020E2028D0290665EEAF0800528
:1098200090665EE4F0906088E05401FA906089E010
:109830005401FCE4CC25E0CC33FDEC24FFF582EDB3
:1098400034FFF5837C00C002C003C0041270CDABAE
:1098500082AC8315811581900050E0C4235403909D
:109860009DB093FD3395E0FEC005C0068B828C83CE
:109870001270CDAB82AC8315811581D0027D00C002
:1098800003C0048A828D831270CDAA82AB831581B6
:10989000158190666DEAF0A3EBF0906088A8180837
:1098A000E0035401F6906089E0035401FDE4CD2506
:1098B000E0CD33FE1DBDFF011E906646E0FF3395EF
:1098C000E0FCC002C003C007C0048D828E8312700A
:1098D000CDAC82AD8315811581900050E003540317
:1098E000909DB493FE3395E0FFC006C0078C828D37
:1098F000831270CDAC82AD8315811581A8180886BE
:10990000067F00C004C0058E828F831270CDAC82AA
:10991000AD8315811581D003D002EC2AFAED3BFB13
:1099200090666DEAF0A3EBF0906088A81808E00359
:10993000035401F6906089E003035401FDE4CD2552
:10994000E0CD33FE1DBDFF011E90665BE0FF339549
:10995000E0FCC002C003C007C0048D828E83127079
:10996000CDAC82AD8315811581900050E0540190FB
:109970009DB893FE3395E0FFC006C0078C828D83AF
:109980001270CDAC82AD8315811581A818088606AA
:109990007F00C004C0058E828F831270CDAC82AD73
:1099A0008315811581D003D002EC2AFAED3BFB90A0
:1099B000666DEAF0A3EBF0906088A81808E0C42375
:1099C0005401F6906089E0C4235401FDE4CD25E004
:1099D000CD33FE1DBDFF011E90665CE0FF3395E0B8
:1099E000FCC002C003C007C0048D828E831270CDFC
:1099F000AC82AD8315811581900050E05401909D9B
:109A0000BA93FE3395E0FFC006C0078C828D8312A7
:109A100070CDAC82AD8315811581A8180886067FAC
:109A200000C004C0058E828F831270CDAC82AD83DE
:109A300015811581D003D002EC2AFAED3BFB90662C
:109A40006DEAF0A3EBF0906088A81808E0C4540118
:109A5000F6906089E0C45401FDE4CD25E0CD33FEED
:109A60001DBDFF011E90664BE0FF3395E0FCC00278
:109A7000C003C007C0048D828E831270CDAC82AD4E
:109A80008315811581900050E05401909DBC93FE98
:109A90003395E0FFC006C0078C828D831270CDAC79
:109AA00082AD8315811581A8180886067F00C00441
:109AB000C0058E828F831270CDAC82AD8315811567
:109AC00081D003D002EC2AFAED3BFB90666DEAF000
:109AD000A3EBF0906088A81808E0C4035401F69046
:109AE0006089E0C4035401FDE4CD25E0CD33FE1DC3
:109AF000BDFF011E90664CE0FF3395E0FCC002C044
:109B000003C007C0048D828E831270CDAC82AD83FA
:109B100015811581900054E0235401909DBE93FE61
:109B20003395E0FFC006C0078C828D831270CDACE8
:109B300082AD8315811581A8180886067F00C004B0
:109B4000C0058E828F831270CDAC82AD83158115D6
:109B500081D003D002EC2AFAED3BFB90666DEAF06F
:109B6000A3EBF0906088A81808E023235401F69036
:109B70006089E023235401FDE4CD25E0CD33FE1DB3
:109B8000BDFF011E90664DE0FF3395E0FCC002C0B2
:109B900003C007C0048D828E831270CDAC82AD836A
:109BA00015811581900054E0235401909DBE93FED1
:109BB0003395E0FFC006C0078C828D831270CDAC58
:109BC00082AD8315811581A8180886067F00C00420
:109BD000C0058E828F831270CDAC82AD8315811546
:109BE00081D003D002EC2AFAED3BFB90666DEAF0DF
:109BF000A3EBF0906088A81808E0235401F6906069
:109C000089E0235401FDE4CD25E0CD33FE1DBDFFE9
:109C1000011E90664EE0FF3395E0FCC002C003C019
:109C200007C0048D828E831270CDAC82AD83158106
:109C30001581900054E0235401909DBE93FE33950E
:109C4000E0FFC006C0078C828D831270CDAC82AD60
:109C50008315811581A8180886067F00C004C005F9
:109C60008E828F831270CDAC82AD8315811581D029
:109C700003D002EC2AFAED3BFB90666DEAF0A3EB11
:109C8000F0E4C0E074FCC0E0E4C0E07404C0E08A2A
:109C9000828B8378EC79C87A021200B3AA82AB83F4
:109CA000E58124FCF58190666DEAF0A3EBF0906607
:109CB0006DE0FAA3E0FB906057E0FC906659E0FD90
:109CC000C2D58DF0EC30E704B2D5F404A430D50A47
:109CD000F42401C5F0F43400C5F0FCAEF09000505F
:109CE000E0C4235403909DB093FD3395E0FFC00280
:109CF000C003C005C0078C828E831270CDAC82ADCC
:109D00008315811581D003D002EDC4CCC4540F6CEF
:109D1000CC540FCC6CCC30E30244F0FDEAC39CFA87
:109D2000EB9DFB9066CAE0FC3395E0FDEAC39CF531
:109D300082EB9DF583785F79C97A021200B3AA821B
:109D4000AB8390666BEAF0A3EBF0851881D0180224
:109D500000C5906655E07003FA804D90665FE0FBA9
:109D600090604EE05407FC8B05C3ED64808CF0637B
:109D7000F08095F050047A01802E90604DE0541FE1
:109D8000FCC3EB64808CF063F08095F050047A02A1
:109D90008016906668E060047A03800C906669E043
:109DA00070047A0480027A05906663EAF00200C5C6
:109DB0000304060703040607030503050203010263
:109DC000C018E581F5182405F581900228E0030309
:109DD0005407FA53020390605AE003035401FBBB9B
:109DE00001028003029F7A906038E030E303029F13
:109DF0007AC00278C679887A021200B3D002900045
:109E000060E0C403540190671DF090005CE00354CF
:109E10000190671EF0902400E0C4540F90671FF07B
:109E2000902406E0543FFBE4CBC4CB6BCB54F0CB87
:109E30006BFC902405E0C4540FFD7E009067CDEDCF
:109E40004BF0EE4CA3F0900058E0232354019067B0
:109E500022F0900058E0C4035401906723F090244E
:109E600010E0C45401906724F09066F7E0FB90671F
:109E70009AF09066F7E4F0BA0309900060E044209D
:109E8000F0800ABA020790005CE04402F090605A49
:109E9000E030E01DD20CC20DEA700B902400E054BB
:109EA0000F44C0F08026902400E0540F4480F080DE
:109EB0001BC20CD20DEA700B902400E0540F44300A
:109EC000F08009902400E0540F4420F0902408E42E
:109ED000F0A3F090240AE054C0F090240AE054BFAC
:109EE000F0902406E0543F4480F09024077402F080
:109EF000902405E0540F4450F0902406E054C0F044
:109F0000781779847A021200B3782A79B87A021223
:109F100000B3900028E003547F906045F090223019
:109F2000742BF0A20DE43390005813E092E5F0A2F8
:109F30000CE43390005813E092E6F0900058E0549F
:109F4000EFF078CD79A87A011200B3902580E04433
:109F500001F0906059E054FCF0906058E4F0906794
:109F60000EF0A3F09067257401F0906038E044088B
:109F7000F0902230742BF002A38C90605AE003031F
:109F80005401FABA0102800302A2A3906038E0C42F
:109F9000235401FABA0102800302A2A3906038E0C0
:109FA000C45401FABA0102800302A2A3906059E0EE
:109FB0005403FA30E11A906059E05403FB7A0043ED
:109FC00003FC906058E0FC7D004202ED42038019E2
:109FD000906059E05403FD7C00906058E0FE7F00E3
:109FE0004204EF42058C028D0390670EE0FCA3E073
:109FF000FDEAC39CF582EB9DF583C002C0031228E5
:10A0000053D003D00290670EEAF0A3EBF09060B05B
:10A01000E4F09060ACF0A3F0A3F0A3F09060B2E4A1
:10A02000F09060A8F0A3F0A3F0A3F09060B1E4F08A
:10A030009060E0F0A3F0A3F0A3F09060B3E4F090A0
:10A0400060DCF0A3F0A3F0A3F09060A5E0540FFA59
:10A05000BA030050047B03800F740CB50200500457
:10A060007C0C80028A048C038B021A1A1AEA2A25B5
:10A07000E02456FAE434A4FB9000EDE493FCA3E45E
:10A0800093FD906174ECF0A3EDF0C002C00378077B
:10A0900079847A011200B3D003D002A818087600A0
:10A0A000A81808B60200400302A221C002C0039013
:10A0B00060B0E0FDA81808E675F002A4FEE5F0CE59
:10A0C00025E0CE33CE25E0CE33FFEE2470FAEF3418
:10A0D00025FB7C00C003C005C006C007C002C0034A
:10A0E000C0049060AC75F000789479A37A011200F6
:10A0F000B3AA82158115811581D007D006D005D06D
:10A1000003EA2D9060B0F09060B2E0FAEE2460FEB9
:10A11000EF3425FF7B00C002C006C007C00390607B
:10A12000A875F000789479A37A011200B3AB821578
:10A130008115811581D002EB2AFA9060B2F0E0FE21
:10A14000A81808E6B40100E433D003D002600790F9
:10A1500025F3E0FC80069025F1E0FDFCC002C00381
:10A16000EC2E9060B2F09060B1E0FCA81808E675A3
:10A17000F002A4FDE5F0CD25E0CD33CD25E0CD33D3
:10A18000FEED2474FFEE3425FA7B00C003C004C04A
:10A1900005C006C007C002C0039060E075F00078FB
:10A1A0009479A37A011200B3AA82158115811581D1
:10A1B000D006D005D004D003EA2C9060B1F09060B6
:10A1C000B3E0FAED2464FDEE3425FE7B00C002C04E
:10A1D00005C006C0039060DC75F000789479A37A1E
:10A1E000011200B3AB82158115811581D002EB2AD3
:10A1F000FA9060B3F0E0FEA81808E6B40100E4337A
:10A20000D003D00260079025F2E0FC80069025F094
:10A21000E0FDFCEC2EFC9060B3F0A818080602A04C
:10A22000A09060B2E0FCA8180808A6040876000810
:10A230007600087600A8180808E6080808F6181836
:10A240001876000876000876009060A8E0A3E0FD8C
:10A25000A3E0FEA3E0FF8D048E058F067F00A81803
:10A260000808EC46F6ED0846F6EE0846F6EF084616
:10A27000F68A828B83E493FCA3E493FDA3E493FE2C
:10A28000A3E493FFA8180808C3E69C08E69D08E627
:10A290009E08E69F500302A078906038E054EFF0EB
:10A2A00002A38C906725E0FABA0102800302A38C16
:10A2B00090605AE030E20302A38C902580E054FEC7
:10A2C000F0906038E054F7F0906038E054EFF09090
:10A2D0006725E4F0906722E090005813E092E6F0E2
:10A2E000906723E090005813E092E5F0782A79B85F
:10A2F0007A021200B390671DE090006013E092E5CF
:10A30000F090671EE090005C13E092E1F090671F10
:10A31000E0902400C454F0F5F0E0540F45F0F090C4
:10A3200067CDE0FAA3E0FB740F5A902405C454F003
:10A33000F5F0E0540F45F0F0EBC4CAC4540F6ACAFC
:10A34000540FCA6ACA53023F902406EA543FF5F0FC
:10A35000E054C045F0F0906724E090241013E092A0
:10A36000E4F090679AE09066F7F0758202780979D8
:10A37000837A021200B3902230742BF090604CE08C
:10A3800020E50978FB79887A021200B3851881D01C
:10A39000180200C5C018858118C082C083C0F0E5CE
:10A3A00081240BF581A8180886820886830886F028
:10A3B000E5182404F91271B2F7A31271B209F7A3D8
:10A3C0001271B209F7A31271B209F7E51824FAF86D
:10A3D00086030886040886028B828C838AF0E5183F
:10A3E0002408F81271B2F6A31271B208F6A3127122
:10A3F000B208F6A31271B208F6E5182404F8E518BD
:10A400002408F9E726FE09E70836FF09E70836FAC7
:10A4100009E70836FBA8180886820886830886F0B4
:10A42000EE1270B4A3EF1270B4A3EA1270B4A3EBEF
:10A430001270B4E5182408F8C3EE96EF0896EA08FF
:10A4400096EB089650057582018003758200851889
:10A4500081D0180200C50400000028000000870118
:10A460000000430F000096980000E2F50500CB9A2B
:0EA470003B00E50B5402E876481711A5D4E82E
:020000040000FA
:0500DB009067B8E4F09D
:101490007A147B00000000000000000000001ABA6F
:1014A000FF011BEA4B60030214942290223374FF65
:1014B000F090220BE0547FF075F70175F70122C020
:1014C000E0C082C083C0D075D010C2AF9022337408
:1014D000F0F0C28DC28C90223374FFF0D2AFD0D026
:1014E000D083D082D0E032C0D075D010C2AFC28ECF
:1014F000C28FD203D2AFD0D032C0E0C082C083C08E
:10150000D075D010C2AF90223374F2F075C878C293
:10151000C6D204906033E020E5030215B72006032D
:101520000215B79066CCE0FA70030215B790260357
:10153000E020E410902600E0547FF0902601E04483
:1015400001F08032902609E0FA20E71C90A316E013
:101550005407FABA03028010902600E04480F0900D
:101560002601E04401F0800E902600E04480F090D7
:101570002601E054FEF0902603E020E71C9021268F
:10158000E020E215906083E04480F0902600E05473
:101590007FF0902601E054FEF0906083E04440F03C
:1015A000906083E04402F0902603E04408F09060ED
:1015B00083E04408F0802D902603E020E0263007E9
:1015C000239066CCE0FA601C902602E04480F09004
:1015D0006083E04401F0906083E04410F090608309
:1015E000E04420F090223374FFF0D2AFD0D0D0830B
:1015F000D082D0E032C0E0C082C083C0D075D010AD
:10160000902233740DF074FFF0D0D0D083D082D00C
:10161000E032C0E0C082C083C0D075D010C2AF90AD
:1016200022337403F090201BE030E10890205374C3
:1016300002F0E4F090201BE030E236902053740476
:10164000F0E4F090A31BE020E527902007E020E5E0
:1016500020902200E0FA90E650E0FBEAB5131290E9
:10166000A34E740EF0740CF07408F0E4F09022367F
:10167000F090224EE054F7F090224EE054FBF0E060
:101680004408F090224EE04404F090223374FFF0BE
:10169000D2AFD0D0D083D082D0E032C0E0C082C000
:1016A00083C0D075D0107A00C2AF9022337401F09D
:1016B00090201AE030E1679020527402F0E4F0903C
:1016C0002200E0700E902034E05401FB90E651EBD4
:1016D000F0800C902034E05401FB90E652EBF09047
:1016E0002034E020E01790A02FE054EFF090A02FDE
:1016F000E054DFF090A327E054F7F0802190E6510A
:10170000E0601B90E652E0601590A02FE04410F0DE
:1017100090A02FE04420F090A327E04408F0902010
:101720001BE030E010902200E0FB90E650E0FCEB84
:10173000B514027A0190201BE020E40302191F90E7
:101740002053741BF0E4F0902007E0C4035401FB25
:10175000BB01089022367401F08005902236E4F037
:1017600090A318E030E50B90223374FFF0D2AF0263
:101770001955902230E0FBBB1B02802BBB2002805E
:101780005FBB21028021BB2202806BBB23028066EB
:10179000BB2402804BBB25028046BB26028041BB96
:1017A0003302805202184D902007E0C4035401FB1D
:1017B000BB010BD20590A2B67401F002191FEA70AA
:1017C0000302191F9022317421F090223374FFF02C
:1017D00090220BE0547FF075F70175F70102191F95
:1017E000902007E0C4035401FABA010280030219F1
:1017F0001FD20502191F902007E020E52390200248
:10180000E054FBF09022317421F090223374FFF009
:1018100090220BE0547FF075F70175F70102191F54
:10182000902102E003035401FABA0105D20502191E
:101830001F9022317422F090223374FFF090220B1B
:10184000E0547FF075F70175F70102191F9020072A
:10185000E030E507902007E020E42A902002E054E1
:10186000FBF0902102E054BFF09022317421F090FF
:10187000223374FFF090220BE0547FF075F701756E
:10188000F70102191F902102E020E254902102E0AA
:1018900054BFF090E604E020E31B9022317422F064
:1018A00090223374FFF090220BE0547FF075F70123
:1018B00075F701806A902007E030E31C902007E074
:1018C0004440F0902007E04440F0902007E044407E
:1018D000F0902007E04480F090223A7401F0803FBD
:1018E000902102E030E23890E604E030E3319020CD
:1018F00007E020E323902007E030E71C902007E07A
:10190000547FF0902007E0547FF0902007E0547F50
:10191000F0902007E054BFF0902102E04440F090A6
:101920002246E054FDF0902247E054FEF09022461B
:10193000E04402F0902247E04401F090A314E0203C
:10194000E30B902247E054F7F0E04408F090223394
:1019500074FFF0D2AFD0D0D083D082D0E032C0E0DC
:10196000C082C083C0D075D010C2AF90223374083B
:10197000F090201AE030E77A9020527480F0E4F082
:10198000902007E05401FABA0168902230E0FABAD8
:101990001B02800FBA2102800ABA22028020BA23D9
:1019A00038801B9022317420F090223374FFF09025
:1019B000220BE0547FF075F70175F701802190222A
:1019C000317433F090223374FFF090220BE0547F97
:1019D000F075F70175F7018006902231741FF090C1
:1019E000223374FFF090220BE0547FF075F70175FD
:1019F000F70190201AE030E6339020527440F0E472
:101A0000F0902007E020E514902236E4F0902006C4
:101A1000E0235401FABA01028002D205902006E0C8
:101A2000235401FA90200013E092E6F0902261E046
:101A300054BFF0E04440F090223374FFF0D2AFD0B6
:101A4000D0D083D082D0E032C0D075D010D0D03288
:101A5000C0E0C082C083C0D075D010C2AF90223326
:101A60007402F07A0090202BE030E6239020577427
:101A700040F0E4F090214CE030E014902102E0547A
:101A8000BFF0902053E04408F0E054F7F07A019062
:101A9000202BE030E7189020577480F0E4F090207D
:101AA00003E030E609902002E054FBF07A01EA609E
:101AB0003890A316E05407FABA0415902231740343
:101AC000F0902238E0FA431201902238EAF08006C2
:101AD0009022317419F090223374FFF090220BE0C1
:101AE000547FF075F70175F70190223374FFF0D23F
:101AF000AFD0D0D083D082D0E032C0E0C082C083EB
:101B0000C0D075D010C2AF902233740BF090262055
:101B1000E020E003021B889026447401F0E4F0A268
:101B200007E433FA9022B4EAF0902002E030E25861
:101B3000200724902601E030E54E902603E044047F
:101B4000F0D2079066CCE4F0C20375C860C2C690BC
:101B500022317428F08031902231E0FABA2910C283
:101B600007902603E054FEF0902603E054FBF0902B
:101B70002231742AF090223374FFF090220BE0544B
:101B80007FF075F70175F701902143E030E52B9068
:101B9000215BE04420F0E054DFF0902603E020E7F2
:101BA00019902601E030E612902126E020E20B9009
:101BB0002274E054F7F0E04408F090223374FFF010
:101BC00090226CE030E60B90226CE054BFF0E044D1
:101BD00040F090226DE054FEF0E04401F0D2AFD02E
:101BE000D0D083D082D0E032C0E0C082C083C0D0E9
:101BF00075D010C2AF9022337405F0902644740261
:101C0000F0E4F0A206E433FA9022B4EAF090260160
:101C1000E030E67220066F902603E04402F0902246
:101C2000317428F0D20690A316E05407FABA0302E2
:101C30008007902636E04480F0906711E4F0C203FC
:101C400075C860C2C6902250E054DFF09066CCE4C4
:101C5000F0902143E054DFF0902143E054BFF09036
:101C600022D8E04408F0E054F7F0902603E030E793
:101C700007902604E4F0A3F0902602E04420F0E070
:101C800054DFF0021D82902601E030E63E30063B34
:101C9000902603E0C45401FABA013090223174282E
:101CA000F0906711E4F0C20375C860C2C6902600C8
:101CB000E054FBF0902603E054EFF0202603021DD1
:101CC00082902601E0547FF0021D82902601E020E0
:101CD000E64E30064B902603E020E444902231E0AB
:101CE000FABA2A21C206902600E054FBF09026039F
:101CF000E054EFF0302607902601E0547FF0902664
:101D000003E054FDF09022317429F090223374FFE7
:101D1000F090220BE0547FF075F70175F7018062B7
:101D2000902601E030E65B300658906711E4F0C27F
:101D30000375C860C2C6902250E054DFF090227450
:101D4000E054F7F0902600E054FBF0902603E054B6
:101D5000EFF0302607902601E0547FF0902603E054
:101D600054FDF09067107401F09022317429F090C6
:101D7000223374FFF090220BE0547FF075F7017569
:101D8000F70190223374FFF0D2AFD0D0D083D0824D
:101D9000D0E032C0E0C082C083C0D075D010C2AFE6
:101DA000902102E054F7F0902233740AF090223A26
:101DB000E0600E90223AE4F0902102E04408F080C6
:101DC00008D208902231742CF090223374FFF0D2A4
:101DD000AFD0D0D083D082D0E032C025C0E0C08266
:101DE000C083C0D075D008C2AF9022337407F0C250
:101DF00028C2299067B9E4F0902621E030E108D2AA
:101E0000289026457402F0902621E030E008D2297F
:101E10009026457401F0902645E4F090260AE0FAF9
:101E2000A3E0FB9067C4E0FCA3E0FDEC620AED6276
:101E30000BEA4B701A902608E0FAA3E0FB9067C605
:101E4000E0FCA3E0FDEC620AED620BEA4B607490EB
:101E5000260AE0FAA3E0FB9067C4EAF0A3EBF09057
:101E60002608E0FAA3E0FB9067C6EAF0A3EBF09047
:101E7000260AE0FAA3E0FB9067C4E0FCA3E0FDECD7
:101E8000620AED620BEA4B701A902608E0FAA3E0B2
:101E9000FB9067C6E0FCA3E0FDEC620AED620BEA92
:101EA0004B602090260AE0FAA3E0FB9067C4EAF0BA
:101EB000A3EBF0902608E0FAA3E0FB9067C6EAF0F7
:101EC000A3EBF0202803302968902603E020E107E7
:101ED000902600E030E05A9067C4E0A3E09067C02D
:101EE000F09067C4E0FAA3E09067C1EAF09067C69B
:101EF000E0A3E09067C2F09067C6E0FAA3E0FB9031
:101F000067C3EAF0A206E433FA9022B6EAF0A20A26
:101F1000E433FA9022B7EAF0D2AF9067BAE4F090D7
:101F200067BFF03029069067C87401F0200602A24E
:101F30000A90225DE054F7F0E04408F0E054FBF032
:101F4000E04404F090223374FFF0D2AFD0D0D083BD
:101F5000D082D0E0D02532C0D075D010C2AFD2AF81
:101F6000D0D032C0E0C082C083C0D075D010C2AF24
:101F70009022E1E054EFF0E04410F0902270E03065
:101F8000E70B902270E0547FF0E04480F0D2AFD0B5
:101F9000D0D083D082D0E032C0E0C0F0C082C08315
:101FA000C0D075D010C2AF9022337404F090228854
:101FB000E030E3609022D8E04408F0E054F7F0907D
:101FC0006033E030E44E30064B9066CCE0FA60447B
:101FD000902603E020E73D902126E020E23690A302
:101FE00016E05407FAC374818AF063F08095F040DC
:101FF00015906083E04480F0902600E0547FF090DC
:102000002601E054FEF0902603E04408F09060833F
:10201000E04440F0902288E030E5199022D8E04476
:1020200020F0E054DFF09022E4E020E007906033FD
:10203000E054FEF090A2E4E020E2030220FC90A233
:10204000F4E04404F0E054FBF0902200E0FA90E663
:1020500050E0FBEAB5130280030220FC90A2FCE0F2
:10206000700890A2FAE4F00220E690A2FCE0FABA2E
:10207000020790A31BE020E25B90A2FCE0FABA0307
:102080000790A34FE020E04C90A2FCE0FABA0407CE
:1020900090A319E020E63D90A2FCE0FABA05079073
:1020A000A34EE020E52E90A2FCE0FABA06089022AA
:1020B00038E0FA20E11E90A2FCE0FABA0707906728
:1020C000C9E0FA700F90A2FCE0FABA08139067C951
:1020D000E0FA700C90A2FCE0FA90A2FAEAF0800616
:1020E00090A2FA7401F090A2FCE0600990A2FBE0DB
:1020F0004401F0800790A2FBE054FEF0902233747C
:10210000FFF0902250E030E50B902250E054DFF0D9
:10211000E04420F0902253E054BFF0E04440F090BF
:102120002200E0FA90E650E0FBEAB5130B90225350
:10213000E054EFF0E04410F0D2AFD0D0D083D082A2
:10214000D0F0D0E032C0D075D010C2AF109802806D
:10215000001099028000D2AFD0D032000405080AE6
:062160001428020120100A
:020000040001F9
:10A47E00C018858118058105810581902401E0C4ED
:10A48E00035401FA902400E0C4540F90671FF0901B
:10A49E002402E0235401906720F0902402E023234D
:10A4AE005401906721F0900058E0232354019067E7
:10A4BE0022F0900058E0C4035401906723F09024DA
:10A4CE0010E0C45401906724F0902580E05401FB05
:10A4DE0090604FE0235401FC900218E003035401F6
:10A4EE00FD90604FE023235401FE9024A2E0543FE0
:10A4FE00FFA81808A607902482E0543FFFA818086A
:10A50E0008A6079024A3E0543FFFE5182403F8A6FD
:10A51E0007902483E0543FFFEA603D902401E0540D
:10A52E00DFF0C002C003C004C005C006C007780C2F
:10A53E0079C87A021200B3D007D006D005D004D065
:10A54E0003D002902401E04440F0902402E030E178
:10A55E00F9902402E054FEF0C007902580E054F7F5
:10A56E00F0902405E0540FF0902406E054C0F090D3
:10A57E000218E04404F090604FE054BFF090E60AF9
:10A58E00E054F7F0C002C003C004C005C006C00707
:10A59E00782A79B87A021200B3900058E054DFF0AE
:10A5AE00E04440F0E054EFF078CD79A87A01120043
:10A5BE00B3D0079067A5E0FF4401F0902230743BC2
:10A5CE00F0902580E04408F0C00778A479A77A01BE
:10A5DE001200B3D007D006D005D004D003D002D0DD
:10A5EE00079025F5E030E0679025F5E030E4F29035
:10A5FE002401E054DFF0C002C003C004C005C00651
:10A60E00C007780C79C87A021200B3D007D006D0F2
:10A61E0005D004D003D002902401E04440F09024F1
:10A62E0002E030E1F9902402E054FEF0C002C003D3
:10A63E00C004C005C006C00778A479A77A0112002D
:10A64E00B3D007D006D005D004D003D002809290AC
:10A65E0025F4E030E70B906662E4F09066F8740142
:10A66E00F0902430740CF0902434740CF09024305C
:10A67E00EF13E092E3F0902430A8180808E613E0F8
:10A68E0092E2F0902434E5182403F8E613E092E306
:10A69E00F0902434A81808E613E092E2F0902430EB
:10A6AE00E4F0902434F0902401E054DFF090240282
:10A6BE00E030E1F9902402E054FEF0902401EA1318
:10A6CE00E092E5F0906722E090005813E092E6F0F9
:10A6DE00906723E090005813E092E5F090671FE03A
:10A6EE00902400C454F0F5F0E0540F45F0F090675C
:10A6FE0020E090240213E092E7F0906721E090248E
:10A70E000213E092E6F0906724E090241013E0929A
:10A71E00E4F0902580EB13E092E0F090604FEC13A4
:10A72E00E092E7F0900218ED13E092E2F090604FA5
:10A73E00EE13E092E6F0906662E4F0E0FB90666164
:10A74E00E0FCC002C0038C821224C41581D002909A
:10A75E0025F5E04408F09025F5E030E2F99025F576
:10A76E00E054F7F0EA6012902401E04420F09024C7
:10A77E0002E054FEF0E04401F0902580E054F7F042
:10A78E009067A5E0FA54FEF0902230742BF08518F5
:10A79E0081D0180200C578E479A77A011200B3902F
:10A7AE002401E054BFF0E04420F0780C79C87A021E
:10A7BE001200B3902402E054FEF0E04401F0902524
:10A7CE00F5E04408F09025F5E030E2F99025F5E04B
:10A7DE0054F7F00200C5C20DD20C9025F4E030E71C
:10A7EE005F902430740CF0902434740CF090244359
:10A7FE00E054C0F0902442E054C0F0902463E05442
:10A80E00C0F0902462E054C0F0902430E4F0902424
:10A81E0034F09066F87401F09025F5E030E10D907B
:10A82E0025F4E0547FFA906662F0800F9025F4E0F4
:10A83E00547FFAC3E49AFA906662F01224B08057FD
:10A84E00902430740CF0902434740CF09025F4E0C5
:10A85E00547F0303543FFA902443543FF5F0E054E1
:10A86E00C045F0F0902442EA543FF5F0E054C04564
:10A87E00F0F0902463EA543FF5F0E054C045F0F058
:10A88E00902462EA543FF5F0E054C045F0F0902475
:10A89E0030E4F0902434F0902400E0540F44C0F0E3
:10A8AE00902408E4F0A3F090240AE054C0F0902421
:0FA8BE000AE054BFF0902580E04401F00200C58D
:020000040000FA
:060000000200C80215F524
:03000B000214BF1D
:0300130002169B37
:03001B000214E7E5
:0300230002214572
:03002B000214F9C3
:01003300329A
:01003B003292
:03004300021DDAC1
:03004B00021A5046
:0300530002161280
:03005B00021F98E9
:03006300021BE895
:03006B00021F571A
:01007300325A
:01007B003252
:01008300324A
:03008B0002195EF9
:03009300021A4806
:03009B00021D93B0
:0300A300021AFA44
:0300AB00021F63CE
:0300E0000200AE6D
:0500AE0012216A80FE32
:1021660090000122758E00C2AF9022067401F078AD
:102176000C79C87A021200B3902206E4F0121452C7
:10218600902231E0902230F0902231E4F090223417
:10219600F090E649E0035401FA9067B6F090A32068
:1021A600E030E66490223CE0FA530201BA013B902B
:1021B600A318E04420F090662B7401F0781879B4E7
:1021C6007A011200B3780579F37A011200B390E62A
:1021D60049E04402F090E651E4F090E652F090E6D1
:1021E6002EE030E6059060CDE4F0902200E0FA9013
:1021F600E650E0FBEAB5030B90A320E04480F0E054
:10220600547FF0902230E4F090223CE0FA43020141
:1022160090223CEAF0902230E07014787D79AC7A16
:10222600011200B378D379E47A011200B3800978F9
:10223600C879DB7A011200B390220BE04480F0D219
:10224600AF902230E0FABA0303022343BA190280A0
:1022560064BA1B030222F1BA1E030222FCBA1F0350
:10226600022307BA200302231DBA21028071BA2273
:10227600028048BA2302804FBA2603022328BA27CF
:1022860003022377BA2803022333BA29030223332E
:10229600BA2A03022333BA2B03022359BA2C0302A8
:1022A6002338BA3202802CBA33028060BA3B03026A
:1022B600234E0223771257C8022377786979E87A82
:1022C600011200B302237778AE79EB7A011200B3DC
:1022D600022377783679EC7A011200B302237778F5
:1022E6006F79E97A011200B3022377784079EA7AA6
:1022F600011200B3807B789C79F27A011200B380D8
:1023060070783B79F17A011200B38065787A79F1B9
:102316007A011200B3805A781979F27A011200B361
:10232600804F786F79ED7A011200B380441229D973
:10233600803F78F379C07A011200B380347833791C
:10234600CF7A011200B38029787E79A47A0112002F
:10235600B3801E78B879D67A011200B3902231E0A4
:10236600700F7899798E7A011200B3902230742B0F
:10237600F020080790201BE030E34890223AE06006
:1023860039902102E054F7F0902053E04408F0E041
:1023960054F7F090A316E05407FABA030C900064C1
:1023A600783279C47A021200B390223AE4F0C20875
:1023B600902102E04408F0022448902230742CF068
:1023C600022448A206720750089022307428F08032
:1023D60071200618902601E030E6119022B4749818
