:1000D500C018858118C082E581240AF5819005D470
:1000E500E0C4035401FB900608E0C403540125E075
:1000F500FCEB4204900660E0C403540125E025E0D2
:100105004204900690E0C4035401C40354F8420429
:100115009006BCE0C4035401C454F042049006E8C0
:10012500E0C4035401C42354E04204900714E023BF
:10013500235401030354C0FB4204E518240AF8A61E
:100145000490063CE0C4035407FC906091E030E65F
:100155000302043C906091E030E731906096E0FD49
:10016500530507900640EDC42354E0F5F0E0541F15
:1001750045F0F0ECC42354E0FD906096E0C42354B0
:100185001FFE420590063CEDF002043C9005D4E0CC
:100195004420F0900608E04420F0900660E04420FA
:1001A500F0900690E04420F09006BCE04420F090EA
:1001B50006E8E04420F0900714E04440F09005CCB8
:1001C500E054F7F09005D0E030E6F9A81808E6709D
:1001D5000BE5182407F876007E007FFFECC4235456
:1001E500E0FC7B0090216DE04420F090216DE03033
:1001F500E6F9C00490216DE054DFF090216EE0FC3B
:10020500A3E0FAA8180808A60408A602906092E0E0
:10021500FAA3E0FCE5182404F8A60208A604900653
:100225003CE0541FC40354F8FA900640E0C403545C
:10023500072AFAE5182406F8A602A8180808E518FA
:100245002404F9C3E79609E764800886F063F08023
:1002550095F0D004501A906095E0FAE5182406F858
:10026500E6B502005046E5182406F8067B01803CF9
:10027500C004E5182404F8C3E496FA08E496FCA83B
:10028500180808C3E69A08E664808CF063F0809548
:10029500F0D0045017906094E0FAE5182406F8C3EE
:1002A500EA965008E5182406F8167B01EB6053E53D
:1002B500182406F8740756900640C42354E0F5F058
:1002C500E0541F45F0F0E5182406F8E6C423541F52
:1002D5002C90063CF09005CCE04410F090000AC04C
:1002E50004C006C007787A799F7A021200A3D00766
:1002F500D006D0049005D0E030E7F99005CCE05465
:10030500EFF0A81808E660030203BAE5182407F819
:1003150006E5182406F8C3EE965007E5182406F8F6
:100325008606E5182406F8E6B507005007E5182403
:1003350006F88607906097E0FAE5182407F8E6B511
:1003450002004022C0048E027C008F057B00EAC3B8
:100355009DFAEC9BFCC374029A74808CF063F08068
:1003650095F0D004504FC0048E027B008F057C00B1
:10037500EAC39DFAEB9CFBC374029A74808BF0630D
:10038500F08095F0D004500BE5182407F876007E30
:10039500007FFF906095E0FAE5182406F8E6B502BF
:1003A500005012906094E0FAE5182406F8C3EA9626
:1003B50050030201E7E518240AF8E654019005D434
:1003C50013E092E5F0E518240AF8E60354019006D7
:1003D5000813E092E5F0E518240AF8E60303540152
:1003E50090066013E092E5F0E518240AF8E6A2E32A
:1003F500E43390069013E092E5F0E518240AF8E658
:10040500C454019006BC13E092E5F0E518240AF8FF
:10041500E6A2E5E4339006E813E092E5F0E518245A
:100425000AF8E623235401FA90071413E092E6F044
:0D0435009005CCE04408F0851881D0182215
:020000040002F8
:10800000906044E04480F0906044E04440F0906030
:1080100044E023540190631513E092E3F090604430
:10802000E02323540190631513E092E2F090604F37
:10803000E054C0441FF090210FE04420F0900194E0
:10804000E054F34404F0900194E04410F090019463
:10805000E054FC4401F090016CE04460F090017049
:10806000E04460F0900174E04460F0900178E044F6
:1080700060F090017CE04460F0900190E04460F09A
:1080800090240FE04410F090240FE04420F0902161
:1080900061E04440F090241CE054FEF090604FE01A
:1080A000547FF0900038E054F84403F0902163E0EE
:1080B00054BFF0902161E04402F090604DE054BF65
:1080C000F090605BE0540F4430F0906301E0448036
:1080D000F0906301E04410F0906304E054FDF090F0
:1080E0006304E054CFF0E0440CF09022C1743AF005
:1080F0009022C3E4F0906044E04401F09060C0E05E
:10810000FA4302809060C0EAF0906CE8E0FABA0EA0
:1081100002800DBA0F028008BA130280030281CBDD
:10812000908070E0541F4440F0900194E04410F0BF
:10813000900194E04403F0900194E0440CF090240A
:108140000CE04460F09000C4E054F04405F090214D
:1081500000E0540F4470F0900038E04407F09024A1
:1081600011E054FC4402F090242BE04440F0906075
:108170004DE054BFF0906301E04410F0906304E0E0
:1081800054FDF0906044E04401F09022C17464F02A
:1081900090605BE054F04407F090605BE0540F4463
:1081A00070F0906056740FF090605AE04420F090A8
:1081B000605AE04440F090605AE04410F09060440F
:1081C000E04440F0906044E04480F00200B57582E5
:1081D0000078B979997A021200A378E379EB7A02F0
:1081E0001200A390E605E054FEF0906003E054F71F
:1081F000F0902033E0C423541FFA906CE7F090E62F
:108200002CE0541FFBC0038A8278D9799E7A02122F
:1082100000A3AA821581906CE7EAF0902117E0C4D0
:1082200023541FFA906CE8F090E62CE0541FFBC03A
:10823000038A8278D9799E7A021200A3AA821581D4
:10824000906CE8EAF0902200E0FABAC002801F3099
:10825000121C90E60874FCF0A374FFF0A3F0A37462
:108260000FF0785F79887A021200A302861490805A
:1082700068E04407F090E613E04404F0902088E0C2
:10828000440FF0902161E04402F0902200E0FABA3D
:10829000C0028020902102E054F7F0902003E044D7
:1082A00004F0E054FEF0900090E04408F090A32920
:1082B000E030E2F9902200E0FABAC0030283A39012
:1082C0002073E054FEF0906CE7E075F044A42424A1
:1082D000F582746635F0F583E0906CE9F090210248
:1082E000E054BFF0902002E054FBF0783D79CD7A65
:1082F000021200A3906CE9E0F582782479DD7A021D
:108300001200A390204FE0547FF090E609E020E2B5
:108310003878C779C37A021200A3902091E054BF45
:10832000F090208BE04480F090E60EE0C40354010E
:10833000FABA0115900218E054FDF0900204E054DE
:108340007FF0900770E054F7F0902073E04401F064
:1083500090E609E020E125785879F37A021200A32B
:1083600090E60EE030E415900238E04401F090020F
:1083700000E04408F0900924E04404F0788479CDCA
:108380007A021200A375820178B979997A021200F3
:10839000A3788B79E27A021200A378B479C57A01C6
:1083A0001200A3902200E0FABAC00302861490E6FD
:1083B0000BE020E109787979EC7A021200A390E6CB
:1083C00009E020E409780879677A001200A390E6B2
:1083D0000AE020E009789079EE7A021200A390E694
:1083E0000AE020E109786E79F07A021200A3902069
:1083F0006CE020E50A90E608E020E0030286149095
:10840000E60AE020E409787479D97A021200A39090
:10841000E60BE020E31278D679F77A021200A3780F
:10842000CD79F87A021200A390E60AE030E6030262
:10843000851E902200E0FA7403B502004035EA2A56
:108440002A9084457302845102845A028463028410
:108450006C90E64EE04401F0801990E64EE0440254
:10846000F0801090E64EE04404F0800790E64EE085
:108470004408F078EF799C7A021200A390A200E001
:1084800030E01E902200E0701890A214E0FA30E074
:10849000F878D979F27A021200A390E64EE054FE01
:1084A000F090A200E030E122902200E0FABA011A36
:1084B00090A214E0035401FA60F678D979F27A02B6
:1084C0001200A390E64EE054FDF090A200E030E2EE
:1084D00023902200E0FABA021B90A214E003035496
:1084E00001FA60F578D979F27A021200A390E64E8B
:1084F000E054FBF090A200E030E323902200E0FA89
:10850000BA031B90A214E0A2E3E433FA60F578D931
:1085100079F27A021200A390E64EE054F7F090E66A
:108520000AE030E503028614902200E0FA7403B5F5
:1085300002004035EA2A2A90853B7302854702856E
:108540005002855902856290E64EE04401F08019A0
:1085500090E64EE04402F0801090E64EE04404F0D5
:10856000800790E64EE04408F078EF799C7A02129A
:1085700000A390A200E030E01E902200E07018906E
:10858000A214E0FA30E0F8789279F27A021200A3AD
:1085900090E64EE054FEF090A200E030E1229022FE
:1085A00000E0FABA011A90A214E0035401FA60F64E
:1085B000789279F27A021200A390E64EE054FDF030
:1085C00090A200E030E223902200E0FABA021B9071
:1085D000A214E003035401FA60F5789279F27A026A
:1085E0001200A390E64EE054FBF090A200E030E3CE
:1085F00023902200E0FABA031B90A214E0A2E3E465
:1086000033FA60F5789279F27A021200A390E64E7E
:10861000E054F7F090E605E04401F090E608E054FD
:10862000FEF0906003E04408F0786579877A0212E2
:1086300000A3902200E0FABAC00302875C902003F6
:10864000E054FEF0902003E054FBF0902102E0544F
:10865000FEF0902163E054BFF0906CF6E4F09020BF
:108660006CE054DFF0902107E020E66478C679D60C
:108670007A021200A39000E8E05407FAC3648094E1
:1086800086500E75820178C079D57A021200A380D7
:108690000C75820078C079D57A021200A3781D7912
:1086A000D87A021200A39000E8E05407FAC364806D
:1086B0009486500E758201784379D67A021200A30F
:1086C000803F758200784379D67A021200A3803108
:1086D000781D79D87A021200A39000E8E05407FAD6
:1086E000C364809486500E758201784379D67A02ED
:1086F0001200A3800C758200784379D67A021200AA
:10870000A378F579CC7A021200A390211FE04404EB
:10871000F090000A787A799F7A021200A390211FC4
:10872000E054FBF075820378B979997A021200A3BC
:10873000902231E0FABA1A028022902231E0FABA8D
:108740001D028018902231E0FABA1C02800E90219E
:1087500002E04440F0902002E04404F090223074A3
:1087600027F00200B590E60EE0235401FABA014B5F
:108770009000FCE04402F090010CE04401F0900411
:1087800000E054FDF0900408E04440F0900464E000
:108790004440F0900488E04440F0902107E0232317
:1087A0005401FABA010E900408E054BFF09004643A
:1087B000E054BFF0900400E04402F090E60EE003C5
:1087C0005401FABA0110789779667A001200A390E2
:1087D0000540E04402F090E60FE0035401FABA01CC
:1087E0000E9000D0E04420F09005CCE04408F090DA
:1087F000E60FE05401FABA010790089CE04410F03B
:108800000200B50200B5902200E0700790E64EE04D
:1088100054FEF0902200E0FABA010790E64EE054D0
:10882000FDF0902200E0FABA020790E64EE054FB19
:10883000F0902200E0FABA030790E64EE054F7F019
:1088400090E64EE020E0BF90E64EE020E1B890E6F2
:108850004EE020E2B190E64EE020E3AA0200B5909F
:108860002200E0FABAC002804D902073E054FEF07E
:10887000906CE7E075F044A42424F582746635F02A
:10888000F583E0906CE9F0783D79CD7A021200A38F
:10889000906CE9E0F582782479DD7A021200A390E9
:1088A000204FE0547FF0902073E04401F0788B7902
:0C88B000E27A021200A30200B50200B53B
:020000040001F9
:10800000C018858118C082C083C0F0C0E0058130EF
:1080100015047E0080027E307F00EEF4FEEFF4FF58
:108020003395E0FAFBA81808EE56F6EF0856F6EA84
:108030000856F6EB0856F690E605E030E5030291A7
:10804000C0906302E4F0906303F0758203785C797A
:108050009C7A011200A3A81808E620E00302813DE3
:108060009063027401F0902163E0547FF09024103B
:10807000E0547FF0902161E054BFF0902102E04491
:1080800020F0E054DFF078EF799C7A021200A390A0
:108090002161E04440F0758E0790241CE04404F018
:1080A000E054FBF0758E009022D0E04480F0E05464
:1080B0007FF0906301E030E0089000001210F5803E
:1080C0000F90630CE0FAA3E0FB8A828B831210F519
:1080D000906306E030E50E75820178FA79B07A0196
:1080E0001200A3800C75820978FA79B07A01120027
:1080F000A39063027402F0906301E030E13F90636B
:10810000027416F078CF79B07A011200A37582005C
:108110007851799D7A011200A37582107851799D6A
:108120007A011200A37582127851799D7A011200AA
:10813000A37582147851799D7A011200A3A81808BA
:10814000E630E1459063027403F0900038E054F8A3
:10815000F0902163E0547FF0902410E0547FF0759C
:1081600082A078FA79987A011200A3906322E0FA4B
:10817000A3E0FBE4C0E0C0E08A828B83786C79C323
:108180007A011200A315811581A81808E630E23B98
:108190009063027404F0900038E054F84402F090C8
:1081A0002163E0547FF0902410E0547FF09063202E
:1081B000E0FAA3E0FBE4C0E0C0E08A828B83786C45
:1081C00079C37A011200A315811581A81808E63039
:1081D000E30C9063027405F07582001200D5A818B4
:1081E00008E620E4030282759063027406F0902191
:1081F00063E04480F0902410E04480F0902401E09B
:108200004404F07582A078FA79987A011200A37577
:10821000820078D9799B7A011200A3758200785C7C
:10822000799C7A011200A3902403E054F34404F0F3
:10823000902412E04402F0906305E030E60B78DE13
:1082400079A57A011200A38020906326E0FAA3E0CA
:10825000FB7402C0E0E4C0E08A828B83786C79C34F
:108260007A011200A3158115817582147851799DC8
:108270007A011200A3A81808E620E50302834590BE
:108280006305E030E6030283459063027407F090D3
:108290002163E04480F0902410E04480F0902401B9
:1082A000E04404F07582F078FA79987A011200A31C
:1082B00075820078D9799B7A011200A375820178C2
:1082C0005C799C7A011200A3902403E054F34408E3
:1082D000F0902412E04402F0902411E04480F090E9
:1082E0006324E0FAA3E0FB7403C0E0E4C0E08A8208
:1082F0008B83786C79C37A011200A3158115819064
:108300002412E054FDF0902411E0547FF090632497
:10831000E0FAA3E0FB7403C0E0E4C0E08A828B8350
:10832000786C79C37A011200A315811581758200DA
:108330007851799D7A011200A37582147851799D44
:108340007A011200A3A81808E620E60302853390FC
:1083500063027408F0906301E030E70C75820178E5
:10836000FA79B07A011200A3902163E04480F09082
:108370002410E04480F0902401E04404F0902403B1
:10838000E054F3F07582F078FA79987A011200A33C
:1083900075820078D9799B7A011200A375820078E2
:1083A0005C799C7A011200A3902412E04402F090C0
:1083B0002411E04480F0902412E04420F0A8180832
:1083C00008E630E1269063027409F090632EE0FA2B
:1083D000A3E0FB7403C0E0E4C0E08A828B83786C86
:1083E00079C37A011200A315811581758BF0758D03
:1083F000D8D28EC203906302740AF0906332E0FA1E
:10840000A3E0FB740BC0E0E4C0E08A828B83786C4D
:1084100079C37A011200A31581158190630CE0FAEB
:10842000A3E0FB90630EE0FCA3E0FDEAB50407EBDC
:10843000B505030284F7906302740BF090630EE0BD
:10844000FAA3E0FB90630CE0FCA3E0FDC3EA9CEB25
:1084500064808DF063F08095F0504C90630CE0FAEE
:10846000A3E0FB90630EE0FCA3E0FDEAC39CFAEB03
:108470009DFBC374029A74808BF063F08095F0507A
:108480001490630EE0FAA3E0FB8A828B83A3A3120D
:1084900010F50283F590630CE0FAA3E0FB8A828B6F
:1084A000831210F50283F590630EE0FAA3E0FB90CF
:1084B000630CE0FCA3E0FDEAC39CFAEB9DFBC374F4
:1084C000029A74808BF063F08095F0501890630EE0
:1084D000E0FAA3E0FBEA24FEF582EB34FFF5831219
:1084E00010F50283F590630CE0FAA3E0FB8A828B1F
:1084F000831210F50283F530030F906303E0FA4313
:108500000202906303EAF0C203C28EC28F7582003A
:108510007851799D7A011200A37582107851799D66
:108520007A011200A37582147851799D7A011200A4
:10853000A3802D906FC4E0FABA01028023906302F9
:10854000740CF0902163E04480F0902410E04480AB
:10855000F090630CE0FAA3E0FB8A828B831210F5A3
:10856000A81808E620E70302862E906302740DF037
:10857000902403E04440F0900108E04404F090248B
:1085800003E054F3F0902401E04404F07582007895
:10859000D9799B7A011200A3758200785C799C7A64
:1085A000011200A37582F078FA79987A011200A37B
:1085B000906302740EF0902412E04408F090632A55
:1085C000E0FAA3E0FB7420C0E0E4C0E08A828B8381
:1085D000786C79C37A011200A3158115819063022A
:1085E000740FF0902412E054F7F0E04404F090632C
:1085F00028E0FAA3E0FB7420C0E0E4C0E08A828BAC
:1086000083786C79C37A011200A315811581906378
:10861000027410F0902403E054BFF0900108E0547D
:10862000FBF07582137851799D7A011200A3A81886
:108630000808E620E0030288FA9063027411F090C3
:108640006301E030E70C75820178FA79B07A0112A3
:1086500000A3902401E04404F0E054FDF0902401D4
:10866000E054FEF0902403E054F3F0A8180808E664
:1086700030E1589063027412F07582F078FA7998BC
:108680007A011200A375820078D9799B7A011200D1
:10869000A3758200785C799C7A011200A390241261
:1086A000E04402F0902411E04480F090632CE0FA62
:1086B000A3E0FB7403C0E0E4C0E08A828B83786CA3
:1086C00079C37A011200A315811581A8180808E65C
:1086D00030E25F9063027413F07582F078FA799853
:1086E0007A011200A375820078D9799B7A01120071
:1086F000A3758200785C799C7A011200A390241201
:10870000E04402F0902411E04480F0902412E04410
:1087100020F0906330E0FAA3E0FB741BC0E0E4C0FB
:10872000E08A828B83786C79C37A011200A3158169
:108730001581A8180808E620E3030287FB9063026E
:108740007414F07582FF78FA79987A011200A37593
:10875000820078D9799B7A011200A3758200785C37
:10876000799C7A011200A3902412E054FDF0E044B9
:1087700001F0902411E0547FF0E04440F090241286
:10878000E054DFF0E04410F0906FC4E0FABA012248
:10879000906336E0FAA3E0FB7419C0E0E4C0E08A1D
:1087A000828B83786C79C37A011200A315811581BD
:1087B0008049906306E030E422906336E0FAA3E05B
:1087C000FB741BC0E0E4C0E08A828B83786C79C3C1
:1087D0007A011200A3158115818020906336E0FA9A
:1087E000A3E0FB749BC0E0E4C0E08A828B83786CDA
:1087F00079C37A011200A315811581A8180808E62B
:1088000020E4030288CD9063027415F07582FF782E
:10881000FA79987A011200A375820078D9799B7A47
:10882000011200A3758200785C799C7A011200A382
:10883000902412E054FDF0902412E054FEF09024B5
:1088400011E0547FF0902411E054BFF0902412E026
:1088500054DFF0902412E054EFF0906FC4E0FABAC5
:108860000122906336E0FAA3E0FB7419C0E0E4C093
:10887000E08A828B83786C79C37A011200A3158118
:1088800015818049906306E030E422906334E0FA79
:10889000A3E0FB741BC0E0E4C0E08A828B83786CA9
:1088A00079C37A011200A315811581802090633469
:1088B000E0FAA3E0FB749BC0E0E4C0E08A828B8313
:1088C000786C79C37A011200A31581158178CF796C
:1088D000B07A011200A37582107851799D7A011245
:1088E00000A37582007851799D7A011200A37582E8
:1088F000147851799D7A011200A3A8180808E6207F
:10890000E503028A2E9063027417F0906301E03051
:10891000E70C75820178FA79B07A011200A39024ED
:1089200001E04404F0E054FDF0902401E054FEF036
:10893000902403E054F3F07582FF78FA79987A0175
:108940001200A375820078D9799B7A011200A37571
:108950008200785C799C7A011200A3902411E05483
:108960007FF0902412E054DFF0902412E054F7F0EE
:10897000902412E054FDF09063027418F0902411DA
:10898000E04440F0902412E04410F0902412E044BF
:1089900004F0902412E04401F090634EE0FAA3E06A
:1089A000FB7404C0E0E4C0E08A828B83786C79C3F6
:1089B0007A011200A3158115819063027419F09059
:1089C0002411E054BFF0902412E054EFF0902412F0
:1089D000E054FBF0902412E054FEF090634CE0FA77
:1089E000A3E0FB7404C0E0E4C0E08A828B83786C6F
:1089F00079C37A011200A315811581906302741A5C
:108A0000F078CF79B07A011200A37582007851799D
:108A10009D7A011200A37582107851799D7A011216
:108A200000A37582127851799D7A011200A3A818CB
:108A30000808E620E603028AF4906302741BF090B3
:108A40006301E030E70C75820178FA79B07A01129F
:108A500000A37582FF78FA79987A011200A37582D3
:108A60000078D9799B7A011200A3758200785C792D
:108A70009C7A011200A3902401E04402F09063026A
:108A8000741CF0902411E054DFF0E04410F0906387
:108A90003AE0FAA3E0FB7401C0E0E4C0E08A828B14
:108AA00083786C79C37A011200A3158115819063D4
:108AB00002741DF0902411E054EFF0906338E0FA56
:108AC000A3E0FB7401C0E0E4C0E08A828B83786C91
:108AD00079C37A011200A315811581906302741E77
:108AE000F07582017851799D7A011200A3902401DA
:108AF000E054FDF0A8180808E620E703028BBA90BE
:108B00006302741FF0906301E030E70C7582017816
:108B1000FA79B07A011200A37582FF78FA79987A0F
:108B2000011200A375820078D9799B7A011200A303
:108B3000758200785C799C7A011200A3902401E090
:108B40004480F09063027420F090247BE0547FF026
:108B5000E04440F0906352E0FAA3E0FB7401C0E00F
:108B6000E4C0E08A828B83786C79C37A011200A317
:108B7000158115819063027421F090247BE054BF2D
:108B8000F0906350E0FAA3E0FB7401C0E0E4C0E0C1
:108B90008A828B83786C79C37A011200A3158115C0
:108BA000819063027422F07582067851799D7A0172
:108BB0001200A3902401E0547FF0A818080808E6EA
:108BC00020E003028CBD9063027423F0906301E007
:108BD00030E70C75820178FA79B07A011200A3901F
:108BE0006304E030E11F90006CE0C45403FA90632A
:108BF00004E003035403FB90006CC45430F5F0E030
:108C000054CF45F0F07582FFC00278FA79987A0166
:108C10001200A375820278D9799B7A011200A3759C
:108C20008200785C799C7A011200A3902401E044D0
:108C300008F09063027424F0902411E04404F09052
:108C4000633EE0FBA3E0FC7401C0E0E4C0E08B8283
:108C50008C83786C79C37A011200A31581158190F9
:108C600063027425F0902411E054FBF090633CE023
:108C7000FBA3E0FC7401C0E0E4C0E08B828C83784D
:108C80006C79C37A011200A3158115819063027477
:108C900026F07582057851799D7A011200A3D002E1
:108CA000902401E054F7F0906304E030E10F90006D
:108CB0006CEAC45430F5F0E054CF45F0F0A8180841
:108CC0000808E620E103028EAE9063027427F0905C
:108CD0006310E0F582C0021212637582FF78FA79A0
:108CE000987A011200A375820078D9799B7A0112D3
:108CF00000A3758200785C799C7A011200A3D002EF
:108D0000906304E030E11E90006CE0C45403FA90DC
:108D10006304E0C45403FB90006CC45430F5F0E0ED
:108D200054CF45F0F0902403E054F3F090240CE08D
:108D3000549FF0902401E04401F07B007C00758298
:108D400005C002C003C004785379A67A011200A3BB
:108D5000D004D003D002906301E030E7187582019F
:108D6000C002C003C00478FA79B07A011200A3D01F
:108D700004D003D0029063027428F0902411E044E0
:108D800008F0906342E0FDA3E0FEC002C003C0040F
:108D90007401C0E0E4C0E08D828E83786C79C37A80
:108DA000011200A3158115819063027429F09024AB
:108DB00011E054F7F0906340E0FDA3E0FE7401C0C1
:108DC000E0E4C0E08D828E83786C79C37A01120072
:108DD000A315811581D004D003D002906302742BB7
:108DE000F0EC701A758202C002C003C00478517999
:108DF0009D7A011200A3D004D003D0028035EB701D
:108E00001A758203C002C003C0047851799D7A01AB
:108E10001200A3D004D003D0028018758204C002CF
:108E2000C003C0047851799D7A011200A3D004D008
:108E300003D002906302742AF0906301E030E348AB
:108E4000EC701C7C01906310E024FCF582C002C031
:108E500003C004121263D004D003D002028D3EEB93
:108E6000701C7B01906310E02404F582C002C003F3
:108E7000C004121263D004D003D002028D3E75826A
:108E800000C002121263D002902401E054FEF09060
:108E90006304E030E10F90006CEAC45430F5F0E078
:108EA00054CF45F0F090240CE0549F4420F0A818D3
:108EB000080808E620E203029060906302742CF038
:108EC000902163E04480F0902410E04480F09063AF
:108ED00001E030E70C75820178FA79B07A0112006E
:108EE000A3A818080808E630E30C758202785379C5
:108EF000A67A011200A3902401E054FBF0E04401A3
:108F0000F0902403E054F3F07582FF78FA79987AB0
:108F1000011200A375820178D9799B7A011200A30E
:108F2000758202785C799C7A011200A3A81808085F
:108F300008E630E474906302742DF0902411E0543C
:108F40007FF0E04440F0902412E054DFF0E0441061
:108F5000F0E054FDF0E04401F0902411E04408F00A
:108F6000906306E030E422906346E0FAA3E0FB74ED
:108F70001BC0E0E4C0E08A828B83786C79C37A01FD
:108F80001200A3158115818020906346E0FAA3E0CA
:108F9000FB749BC0E0E4C0E08A828B83786C79C369
:108FA0007A011200A315811581A818080808E63077
:108FB000E537906302742EF0902411E0547FF09016
:108FC0002411E054BFF0902412E054FDF0902412DC
:108FD000E054FEF0902412E054DFF0902412E054AC
:108FE000EFF0902411E054F7F0902412E054EFF0E9
:108FF000906306E030E422906344E0FAA3E0FB745F
:109000001BC0E0E4C0E08A828B83786C79C37A016C
:109010001200A3158115818020906344E0FAA3E03B
:10902000FB749BC0E0E4C0E08A828B83786C79C3D8
:109030007A011200A315811581906302742FF078D4
:10904000CF79B07A011200A37582107851799D7A98
:10905000011200A37582027851799D7A011200A352
:10906000A818080808E620E60302919890630274A5
:1090700030F0906E5DE4F0902403E04480F09024A2
:1090800001E054FEF0902403E054F3F0902401E05A
:1090900054FBF0906301E030E70C75820178FA79B7
:1090A000B07A011200A37582FF78FA79987A0112DA
:1090B00000A375820078D9799B7A011200A375828A
:1090C00000785C799C7A011200A3902941E0440168
:1090D000F0E054FEF090605AE030E211906039E028
:1090E000F58278C479BC7A011200A38012783A79AB
:1090F000B87A011200A378C479BC7A011200A39057
:1091000063027431F090605AE030E246906038E0DB
:1091100030E328906079E0FB7A00906078E07D0091
:109120004AF582ED4BF583E4C0E0C0E0786C79C38A
:109130007A011200A3158115818035E4C0E0C0E0FA
:10914000902008786C79C37A011200A315811581EB
:10915000801E90634AE0FAA3E0FBE4C0E0C0E08A2E
:10916000828B83786C79C37A011200A315811581F3
:109170009063027432F0902403E0547FF078C97950
:10918000BF7A011200A3E582906E5DF075821178BE
:1091900051799D7A011200A3A818080808E630E763
:1091A000199063027433F0906301E030E70C75822C
:1091B0000178FA79B07A011200A39063027434F056
:1091C000851881D0180200B5C018E581F518240E65
:1091D000F58190605AE003035401FABA0103029446
:1091E000E2902401E003035401FA902401E00354C7
:1091F00001FB902401E05401FCA81808A604902467
:1092000003E003035403FD902400E0FEA8180808BF
:10921000A606902404E0235401FFE5182403F8A6D1
:1092200007902404E023235401FFE5182404F8A642
:1092300007902404E003035401FFE5182405F8A671
:1092400007902404E0C4235401FFE5182406F8A67F
:1092500007902406E05401FFE5182407F8A60790BC
:109260002406E0C45401FFE5182408F8A60790245A
:1092700005E0C45401FFE5182409F8A60790240569
:10928000E0C4035401FFE518240AF8A6079024055A
:10929000E023235401FFE518240BF8A607902405CA
:1092A000E0235401FFE518240CF8A607902406E0FB
:1092B00003035401FFE518240DF8A607902406E0E7
:1092C000035401FFE518240EF8A607902401E0C41A
:1092D000035401FF601C758200C002C003C005C0BA
:1092E0000778EA79947A011200A3D007D005D00359
:1092F000D002758201C002C003C005C00778FA79A8
:10930000B07A011200A3D007D005D003D0027E00AE
:10931000C3EE6480948840030293C2C00590240188
:10932000E04404F0E054FDF0902401E054FEF0909D
:109330002403E054F3F08EF005F07401800225E080
:10934000D5F0FB902400F0902404E0547FF09024AA
:1093500004E054BFF0902400E0FD906300E0F4527C
:1093600005902400EDF0758200C002C003C005C066
:1093700006C00778D9799B7A011200A3758200781C
:109380005C799C7A011200A3D007D006D0059063C7
:109390004EE0FCA3E0FDC005C006C007E4C0E0C08D
:1093A000E08C828D83786C79C37A011200A31581D9
:1093B0001581D007D006D005D003D0020ED005020B
:1093C0009310C002C003C005C00778CF79B07A01FE
:1093D0001200A37582127851799D7A011200A3754B
:1093E00082147851799D7A011200A3D007D005D05C
:1093F00003D002902401EA13E092E2F0902401EB02
:1094000013E092E1F0902401A81808E613E092E03E
:10941000F0902403ED2D25E0540CF5F0E054F345D5
:10942000F0F0902400A8180808E6F0902404E5184D
:109430002403F8E613E092E7F0902404E5182404EE
:10944000F8E613E092E6F0902404E5182405F8E627
:1094500013E092E2F0902404E5182406F8E613E005
:1094600092E3F0902406E5182407F8E613E092E072
:10947000F0902406E5182408F8E613E092E4F09052
:109480002405E5182409F8E613E092E4F090240599
:10949000E518240AF8E613E092E5F0902405E518B3
:1094A000240BF8E613E092E6F0902405E518240C6E
:1094B000F8E613E092E7F0902406E518240DF8E6AC
:1094C00013E092E2F0902406E518240EF8E613E08B
:1094D00092E1F0EF600C75820178EA79947A0112DA
:1094E00000A3851881D0180200B5AA8290E605E095
:1094F00030E50302967BEA700302961B9024087401
:10950000FFF090240974FFF090240A74FFF0902477
:109510000BE0447FF090240EE04440F090240FE0F4
:1095200054FDF0902411E05403703F902408E0FAB9
:10953000530255902408EAF0902409E0FA530255AA
:10954000902409EAF090240AE0FA53025590240A84
:10955000EAF090240BE0547FFA53025590240BEA72
:10956000547FF5F0E0548045F0F0902411E054036E
:10957000FABA013F902408E0FA530211902408EA55
:10958000F0902409E0FA530211902409EAF09024A3
:109590000AE0FA53021190240AEAF090240BE054F6
:1095A0007FFA53021190240BEA547FF5F0E05480C7
:1095B00045F0F0906304E020E032902409E0FA43A3
:1095C0000280902409EAF090240AE0FA4302AA906B
:1095D000240AEAF090240BE0547FFA43022A9024F4
:1095E0000BEA547FF5F0E0548045F0F0902401E060
:1095F0004420F0902418E4F090634CE0FAA3E07B60
:1096000000902419EA2A25E054FCF5F0E0540345C3
:10961000F0F0902402E04401F08060902401E030FA
:10962000E559902401E054DFF0902402E020E10E9F
:1096300090000A787A799F7A021200A380EB902436
:109640000BE020E70E90000A787A799F7A021200E8
:10965000A380EB90240BE020E70E90000A787A7943
:109660009F7A021200A380EB902402E054FEF09057
:10967000000A787A799F7A021200A30200B5C01816
:1096800085811805817A007B00A818087600A81843
:1096900008B60403029887A81808C2D575F04CE6EE
:1096A00030E704B2D5F404A430D50AF42401C5F09F
:1096B000F43400C5F0FDAEF0ED2400FFEE3461FCA3
:1096C00074382FF582E43CF583E0F582C002C003D4
:1096D000C005C00678D2799D7A021200A3AC82D070
:1096E00006D005D003D002EC3395E0FFEC2AFAEF68
:1096F0003BFBED2400FCEE3461FF743B2CF582E46F
:109700003FF583E0F582C002C003C005C00678D2F1
:10971000799D7A021200A3AC82D006D005D003D086
:1097200002EC3395E0FFEC2AFAEF3BFBED2400FC62
:10973000EE3461FF743E2CF582E43FF583E0F58260
:10974000C002C003C005C00678D2799D7A0212001B
:10975000A3AC82D006D005D003D002EC3395E0FF55
:10976000EC2AFAEF3BFBED2400FCEE3461FF744180
:109770002CF582E43FF583E0F582C002C003C0050A
:10978000C00678D2799D7A021200A3AC82D006D0AE
:1097900005D003D002EC3395E0FFEC2AFAEF3BFB57
:1097A000ED2400FCEE3461FF74432CF582E43FF5B8
:1097B00083E0F582C002C003C005C00678D2799D5F
:1097C0007A021200A3AC82D006D005D003D002ECFE
:1097D0003395E0FFEC2AFAEF3BFBED2400FCEE347E
:1097E00061FF74452CF582E43FF583E0F582C00209
:1097F000C003C005C00678D2799D7A021200A3ACDE
:1098000082D006D005D003D002EC3395E0FFEC2ADD
:10981000FAEF3BFBED2400FCEE3461FF74472CF5BE
:1098200082E43FF583E0F582C002C003C005C006B4
:1098300078D2799D7A021200A3AC82D006D005D0EE
:1098400003D002EC3395E0FFEC2AFAEF3BFBED246A
:1098500000FDEE3461FE74492DF582E43EF583E0AF
:10986000F582C002C00378D2799D7A021200A3ACBF
:1098700082D003D002EC3395E0FDEC2AFAED3BFBFD
:10988000A818080602968E758201C002C00378EA05
:1098900079947A011200A3D003D002906DC3E0FC4A
:1098A000740FB50400504B74FC2B4046902408E024
:1098B000FA530255902408EAF0902409E0FA530282
:1098C00055902409EAF090240AE0FA5302559024B6
:1098D0000AEAF090240BE0547FFA53025590240BCF
:1098E000EA547FF5F0E0548045F0F090008CE054AD
:1098F000F7F0851881D0180200B5C01885811805C9
:10990000810581AA82906315E003035401FB9063F3
:1099100015E0C4235401FCEBB5040474018001E498
:10992000FBB40100E433FB60027401FB906315E0BB
:109930005401FC906315E0035401FDECB50504747B
:10994000018001E4FCB40100E433FC60027401FC1A
:109950007D017E01A81808087600BA3303029A2117
:10996000BAA003029A77BAF002805EBAFF028003BF
:10997000029AACEB6021906315E030E2047A01803A
:10998000027A00906315E030E3047F0180027F00DB
:10999000A81808A60780077A01A818087601EC60C5
:1099A00021906315E030E0047F0180027F008F0585
:1099B000906315E030E1047F0180027F008F060292
:1099C0009ABD7D017E01029ABDEB6023906315E094
:1099D00030E2047F0180027F008F02906315E03047
:1099E000E3047F0180027F00A81808A60780077A99
:1099F00000A818087601EC6021906315E030E004BF
:109A00007F0180027F008F05906315E030E1047FC5
:109A10000180027F008F06029ABD7D017E01029ABD
:109A2000BDEB6023906315E030E2047F0180027F8C
:109A3000008F02906315E030E3047F0180027F0015
:109A4000A81808A60780077A01A818087601EC6014
:109A500020906315E030E0047C0180027C008C05DE
:109A6000906315E030E1047C0180027C008C06806C
:109A70004C7D017E008046EB6023906315E030E270
:109A8000047B0180027B008B02906315E030E304CD
:109A90007B0180027B00A81808A60380077A00A833
:109AA00018087601A8180808760180117A01A8180C
:109AB0000876017D017E01A8180808760090240030
:109AC000E4F0A8180808E67054EA6010ED600D9004
:109AD0002400E0FB430303902400EBF0EA6010EE67
:109AE000600D902400E0FB43030C902400EBF0A8F1
:109AF0001808E66010ED600D902400E0FB43033091
:109B0000902400EBF0A81808E66035EE603290244F
:109B100000E0FB4303C0902400EBF08023EA600DDB
:109B2000902400E0FB430308902400EBF0A8180801
:109B3000E6600D902400E0FB430380902400EBF0EE
:109B4000EA6006A81808E67004C2288002D228B28B
:109B500028A228E433FA90240413E092E7F0ED60A1
:109B600003EE7004C2288002D228102802800280EE
:109B70000C9000E8E05407FAB401009228A228E40F
:109B80003390240413E092E6F090605AE00303540B
:109B900001FABA012A906059E0543C602290605961
:109BA000E00303540FC454F0FA906059E0030354E7
:109BB0000F4202902400E0FB5202902400EAF09051
:109BC0002400E0FA906300E0F4FB5202902400EAE3
:109BD000F0851881D0180200B5AA827403B502007E
:109BE000405BEA2A2A909BE973029BF5029C0502DE
:109BF0009C12029C1F902404E054FBF0902404E08B
:109C000054F7F08054902404E054FBF0E04408F052
:109C10008047902404E04404F0E054F7F0803A9048
:109C20002405E04401F0902405E04402F09024046F
:109C3000E04440F0902404E04480F0801C9024052F
:109C4000E054FEF0902405E054FDF0902404E0542C
:109C5000BFF0902404E0547FF00200B5AA82BA005D
:109C600002800DBA01028040BA0202806F029D1686
:109C7000902406E054FEF0E04410F0902405E054F7
:109C8000EFF0902405E054DFF0902405E054BFF09D
:109C9000902405E0547FF0902406E054FBF09024DB
:109CA00006E054FDF0029D4E902406E054FEF0E0E4
:109CB0004410F0902405E04410F0902405E0442086
:109CC000F0902405E04440F0902405E04480F090BA
:109CD0002406E054FBF0E04402F08072902406E099
:109CE0004401F0902406E04410F0902405E054EF85
:109CF000F0902405E054DFF0902405E054BFF0908C
:109D00002405E0547FF0902406E054FBF0902406F4
:109D1000E054FDF08038902406E054FEF0902406D4
:109D2000E054EFF0902405E054EFF0902405E05467
:109D3000DFF0902405E054BFF0902405E0547FF05C
:109D4000902406E054FBF0902406E054FDF002005D
:109D5000B5AA827414B50200500302A5DBEA2409F7
:109D600083C0E0EA241883C0E02294AB84776A9130
:109D70009EDBDBDBDBDBDBDBDBDB5DD2884C6F9D83
:109D80009EA1A2A3A09FA5A5A5A5A5A5A5A5A5A49F
:109D9000A5A4A5A590273CE0FA906230EAF09027B0
:109DA0003BE0FA906231EAF090273AE0FA906232B2
:109DB000EAF0902788E0FA906236EAF0902787E090
:109DC000FA906237EAF0902786E0FA906238EAF07B
:109DD0009027D4E0FA90623CEAF09027D3E0FA9022
:109DE000623DEAF09027D2E0FA90623EEAF09028D5
:109DF00020E0FA906242EAF090281FE0FA90624375
:109E0000EAF090281EE0FA906244EAF090273FE0E2
:109E1000FA906233EAF090273EE0FA906234EAF07A
:109E200090273DE0FA906235EAF090278BE0FA90B7
:109E30006239EAF090278AE0FA90623AEAF09027D5
:109E400089E0FA90623BEAF09027D7E0FA90623F0F
:109E5000EAF09027D6E0FA906240EAF09027D5E049
:109E6000FA906241EAF0902823E0FA906245EAF025
:109E7000902822E0FA906246EAF0902821E0FA90D9
:109E80006247EAF0902413E030E6047A0180027A17
:109E9000009062D9EAF0902413E030E5047A018062
:109EA000027A009062DAEAF002A5DB90273CE0FA41
:109EB000906248EAF090273BE0FA906249EAF0901D
:109EC000273AE0FA90624AEAF0902788E0FA906236
:109ED0004EEAF0902787E0FA90624FEAF0902786EA
:109EE000E0FA906250EAF09027D4E0FA906254EAE7
:109EF000F09027D3E0FA906255EAF09027D2E0FA8A
:109F0000906256EAF0902820E0FA90625AEAF090C7
:109F1000281FE0FA90625BEAF090281EE0FA906257
:109F20005CEAF090273FE0FA90624BEAF090273E1F
:109F3000E0FA90624CEAF090273DE0FA90624DEA38
:109F4000F090278BE0FA906251EAF090278AE0FACD
:109F5000906252EAF0902789E0FA906253EAF0901A
:109F600027D7E0FA906257EAF09027D6E0FA90629D
:109F700058EAF09027D5E0FA906259EAF090282349
:109F8000E0FA90625DEAF0902822E0FA90625EEAE0
:109F9000F0902821E0FA90625FEAF002A5DB9027BA
:109FA0003CE0FA906278EAF090273BE0FA90627920
:109FB000EAF090273AE0FA90627AEAF0902788E097
:109FC000FA90627EEAF0902787E0FA90627FEAF0EA
:109FD000902786E0FA906280EAF09027D4E0FA9029
:109FE0006284EAF09027D3E0FA906285EAF0902745
:109FF000D2E0FA906286EAF0902820E0FA90628A35
:10A00000EAF090281FE0FA90628BEAF090281EE0B8
:10A01000FA90628CEAF090273FE0FA90627BEAF0D7
:10A0200090273EE0FA90627CEAF090273DE0FA90BB
:10A03000627DEAF090278BE0FA906281EAF0902747
:10A040008AE0FA906282EAF0902789E0FA906283CF
:10A05000EAF09027D7E0FA906287EAF09027D6E0FE
:10A06000FA906288EAF09027D5E0FA906289EAF0E7
:10A07000902823E0FA90628DEAF0902822E0FA908E
:10A08000628EEAF0902821E0FA90628FEAF002A551
:10A09000DB90273CE0FA906260EAF090273BE0FA20
:10A0A000906261EAF090273AE0FA906262EAF090FA
:10A0B0002788E0FA906266EAF0902787E0FA9062DB
:10A0C00067EAF0902786E0FA906268EAF09027D479
:10A0D000E0FA90626CEAF09027D3E0FA90626DEAC1
:10A0E000F09027D2E0FA90626EEAF0902820E0FA31
:10A0F000906272EAF090281FE0FA906273EAF090A2
:10A10000281EE0FA906274EAF090273FE0FA90622D
:10A1100063EAF090273EE0FA906264EAF090273D0F
:10A12000E0FA906265EAF090278BE0FA906269EAC3
:10A13000F090278AE0FA90626AEAF0902789E0FAC4
:10A1400090626BEAF09027D7E0FA90626FEAF090A5
:10A1500027D6E0FA906270EAF09027D5E0FA906294
:10A1600071EAF0902823E0FA906275EAF0902822D4
:10A17000E0FA906276EAF0902821E0FA906277EABD
:10A18000F002A5DB90273CE0FA906290EAF090277D
:10A190003BE0FA906291EAF090273AE0FA906292FE
:10A1A000EAF0902788E0FA906296EAF0902787E03C
:10A1B000FA906297EAF0902786E0FA906298EAF0C7
:10A1C0009027D4E0FA90629CEAF09027D3E0FA90CE
:10A1D000629DEAF09027D2E0FA90629EEAF0902821
:10A1E00020E0FA9062A2EAF090281FE0FA9062A3C1
:10A1F000EAF090281EE0FA9062A4EAF090273FE08F
:10A20000FA906293EAF090273EE0FA906294EAF0C6
:10A2100090273DE0FA906295EAF090278BE0FA9063
:10A220006299EAF090278AE0FA90629AEAF0902721
:10A2300089E0FA90629BEAF09027D7E0FA90629F5B
:10A24000EAF09027D6E0FA9062A0EAF09027D5E0F5
:10A25000FA9062A1EAF0902823E0FA9062A5EAF071
:10A26000902822E0FA9062A6EAF0902821E0FA9085
:10A2700062A7EAF002A5DB90273CE0FA9062A8EA28
:10A28000F090273BE0FA9062A9EAF090273AE0FAD2
:10A290009062AAEAF0902788E0FA9062AEEAF09025
:10A2A0002787E0FA9062AFEAF0902786E0FA9062A2
:10A2B000B0EAF09027D4E0FA9062B4EAF09027D3A5
:10A2C000E0FA9062B5EAF09027D2E0FA9062B6EA3E
:10A2D000F0902820E0FA9062BAEAF090281FE0FAA5
:10A2E0009062BBEAF090281EE0FA9062BCEAF0901F
:10A2F000273FE0FA9062ABEAF090273EE0FA9062E6
:10A30000ACEAF090273DE0FA9062ADEAF090278B3E
:10A31000E0FA9062B1EAF090278AE0FA9062B2EA3D
:10A32000F0902789E0FA9062B3EAF09027D7E0FA3C
:10A330009062B7EAF09027D6E0FA9062B8EAF0901F
:10A3400027D5E0FA9062B9EAF0902823E0FA90620B
:10A35000BDEAF0902822E0FA9062BEEAF09028214F
:10A36000E0FA9062BFEAF002A5DB90273CE0FA90A9
:10A3700062C0EAF090273BE0FA9062C1EAF09027D1
:10A380003AE0FA9062C2EAF0902788E0FA9062C65A
:10A39000EAF0902787E0FA9062C7EAF0902786E01B
:10A3A000FA9062C8EAF09027D4E0FA9062CCEAF022
:10A3B0009027D3E0FA9062CDEAF09027D2E0FA90AD
:10A3C00062CEEAF0902820E0FA9062D2EAF090287B
:10A3D0001FE0FA9062D3EAF090281EE0FA9062D46F
:10A3E000EAF090273FE0FA9062C3EAF090273EE05F
:10A3F000FA9062C4EAF090273DE0FA9062C5EAF074
:10A4000090278BE0FA9062C9EAF090278AE0FA90F0
:10A4100062CAEAF0902789E0FA9062CBEAF09027CE
:10A42000D7E0FA9062CFEAF09027D6E0FA9062D0B7
:10A43000EAF09027D5E0FA9062D1EAF0902823E084
:10A44000FA9062D5EAF0902822E0FA9062D6EAF01B
:10A45000902821E0FA9062D7EAF002A5DB7430C0C0
:10A46000E07401C0E07430C0E07427C0E0E4C0E0F4
:10A4700090610075F0007826799E7A021200A3E5BB
:10A480008124FBF58102A5DB902733E0906103F086
:10A49000902734E0906104F0902735E0906105F05A
:10A4A000902730E0906100F0902731E0906101F05A
:10A4B000902732E0906102F090277FE090614FF0AA
:10A4C000902780E0906150F0902781E0906151F0FA
:10A4D00090277CE090614CF090277DE090614DF0FA
:10A4E00090277EE090614EF09027CBE090619BF04A
:10A4F0009027CCE090619CF09027CDE090619DF09A
:10A500009027C8E0906198F09027C9E0906199F099
:10A510009027CAE090619AF0902817E09061E7F0E8
:10A52000902818E09061E8F0902819E09061E9F037
:10A53000902814E09061E4F0902815E09061E5F037
:10A54000902816E0FA9061E6F002A5DB902736E04D
:10A55000906106F0902782E0906152F09027CEE063
:10A5600090619EF090281AE0FA9061EAF0806C9079
:10A570002739E0906109F0902738E0906108F09069
:10A580002737E0906107F0902785E0906155F090C3
:10A590002784E0906154F0902783E0906153F0901D
:10A5A00027D1E09061A1F09027D0E09061A0F090D9
:10A5B00027CFE090619FF090281DE09061EDF09032
:10A5C000281CE09061ECF090281BE0FA9061EBF021
:10A5D0008009906E5DE0FA9062D8F00200B5902597
:10A5E000A7E054804401F0902507E054804401F036
:10A5F000902557E054804401F09025A7E054804412
:10A6000001F0906305E0543FFA9024B9547FF5F0CF
:10A61000E0548045F0F0902509EA547FF5F0E054CD
:10A620008045F0F0902559EA547FF5F0E0548045DC
:10A63000F0F09025A9EA547FF5F0E0548045F0F061
:10A64000783279BF7A011200A390240BE030E7F949
:10A650000200B5AA827405B50200500302AFD3EA26
:10A660002A2A90A6667302A67802A81402A9B0024C
:10A67000AB4C02ACE802AE84906230E09024BC5453
:10A680003FF5F0E054C045F0F0906231E09024BB1B
:10A69000543FF5F0E054C045F0F0906232E0902471
:10A6A000BA543FF5F0E054C045F0F0906233E090CA
:10A6B00024BF543FF5F0E054C045F0F0906234E020
:10A6C0009024BE543FF5F0E054C045F0F090623560
:10A6D000E09024BD543FF5F0E054C045F0F09062A6
:10A6E00036E090250C543FF5F0E054C045F0F09072
:10A6F0006237E090250B543FF5F0E054C045F0F090
:10A70000906238E090250A543FF5F0E054C045F0DF
:10A71000F0906239E090250F543FF5F0E054C045C9
:10A72000F0F090623AE090250E543FF5F0E054C00E
:10A7300045F0F090623BE090250D543FF5F0E05479
:10A74000C045F0F090623CE090255C543FF5F0E0AD
:10A7500054C045F0F090623DE090255B543FF5F029
:10A76000E054C045F0F090623EE090255A543FF529
:10A77000F0E054C045F0F090623FE090255F543F18
:10A78000F5F0E054C045F0F0906240E090255E5452
:10A790003FF5F0E054C045F0F0906241E090255D57
:10A7A000543FF5F0E054C045F0F0906242E090254F
:10A7B000AC543FF5F0E054C045F0F0906243E090B7
:10A7C00025AB543FF5F0E054C045F0F0906244E012
:10A7D0009025AA543FF5F0E054C045F0F090624552
:10A7E000E09025AF543FF5F0E054C045F0F09062A2
:10A7F00046E09025AE543FF5F0E054C045F0F090AF
:10A800006247E0FA9025AD543FF5F0E054C045F0C2
:10A81000F002AFD3906248E09024BC543FF5F0E0E2
:10A8200054C045F0F0906249E09024BB543FF5F0ED
:10A83000E054C045F0F090624AE09024BA543FF5ED
:10A84000F0E054C045F0F090624BE09024BF543FDC
:10A85000F5F0E054C045F0F090624CE09024BE5416
:10A860003FF5F0E054C045F0F090624DE09024BD1B
:10A87000543FF5F0E054C045F0F090624EE0902572
:10A880000C543FF5F0E054C045F0F090624FE0907A
:10A89000250B543FF5F0E054C045F0F0906250E0D5
:10A8A00090250A543FF5F0E054C045F0F090625115
:10A8B000E090250F543FF5F0E054C045F0F0906271
:10A8C00052E090250E543FF5F0E054C045F0F09072
:10A8D0006253E090250D543FF5F0E054C045F0F090
:10A8E000906254E090255C543FF5F0E054C045F090
:10A8F000F0906255E090255B543FF5F0E054C04580
:10A90000F0F0906256E090255A543FF5F0E054C0C4
:10A9100045F0F0906257E090255F543FF5F0E05429
:10A92000C045F0F0906258E090255E543FF5F0E0AD
:10A9300054C045F0F0906259E090255D543FF5F029
:10A94000E054C045F0F090625AE09025AC543FF5D9
:10A95000F0E054C045F0F090625BE09025AB543FCE
:10A96000F5F0E054C045F0F090625CE09025AA5408
:10A970003FF5F0E054C045F0F090625DE09025AF07
:10A98000543FF5F0E054C045F0F090625EE0902551
:10A99000AE543FF5F0E054C045F0F090625FE0FA4D
:10A9A0009025AD543FF5F0E054C045F0F002AFD330
:10A9B000906290E09024BC543FF5F0E054C045F024
:10A9C000F0906291E09024BB543FF5F0E054C04514
:10A9D000F0F0906292E09024BA543FF5F0E054C059
:10A9E00045F0F0906293E09024BF543FF5F0E054BE
:10A9F000C045F0F0906294E09024BE543FF5F0E042
:10AA000054C045F0F0906295E09024BD543FF5F0BD
:10AA1000E054C045F0F0906296E090250C543FF56C
:10AA2000F0E054C045F0F0906297E090250B543F61
:10AA3000F5F0E054C045F0F0906298E090250A549B
:10AA40003FF5F0E054C045F0F0906299E090250F9A
:10AA5000543FF5F0E054C045F0F090629AE0902544
:10AA60000E543FF5F0E054C045F0F090629BE0904A
:10AA7000250D543FF5F0E054C045F0F090629CE0A5
:10AA800090255C543FF5F0E054C045F0F090629D95
:10AA9000E090255B543FF5F0E054C045F0F0906243
:10AAA0009EE090255A543FF5F0E054C045F0F090F8
:10AAB000629FE090255F543FF5F0E054C045F0F010
:10AAC0009062A0E090255E543FF5F0E054C045F060
:10AAD000F09062A1E090255D543FF5F0E054C04550
:10AAE000F0F09062A2E09025AC543FF5F0E054C045
:10AAF00045F0F09062A3E09025AB543FF5F0E054B0
:10AB0000C045F0F09062A4E09025AA543FF5F0E033
:10AB100054C045F0F09062A5E09025AF543FF5F0A9
:10AB2000E054C045F0F09062A6E09025AE543FF5A9
:10AB3000F0E054C045F0F09062A7E0FA9025AD54E3
:10AB40003FF5F0E054C045F0F002AFD3906260E012
:10AB50009024BC543FF5F0E054C045F0F0906261A1
:10AB6000E09024BB543FF5F0E054C045F0F0906213
:10AB700062E09024BA543FF5F0E054C045F0F09004
:10AB80006263E09024BF543FF5F0E054C045F0F01C
:10AB9000906264E09024BE543FF5F0E054C045F06C
:10ABA000F0906265E09024BD543FF5F0E054C0455C
:10ABB000F0F0906266E090250C543FF5F0E054C050
:10ABC00045F0F0906267E090250B543FF5F0E054BB
:10ABD000C045F0F0906268E090250A543FF5F0E03F
:10ABE00054C045F0F0906269E090250F543FF5F0B5
:10ABF000E054C045F0F090626AE090250E543FF5B5
:10AC0000F0E054C045F0F090626BE090250D543FA9
:10AC1000F5F0E054C045F0F090626CE090255C5493
:10AC20003FF5F0E054C045F0F090626DE090255B98
:10AC3000543FF5F0E054C045F0F090626EE090258E
:10AC40005A543FF5F0E054C045F0F090626FE09048
:10AC5000255F543FF5F0E054C045F0F0906270E09D
:10AC600090255E543FF5F0E054C045F0F0906271DD
:10AC7000E090255D543FF5F0E054C045F0F090625F
:10AC800072E09025AC543FF5F0E054C045F0F090F0
:10AC90006273E09025AB543FF5F0E054C045F0F00E
:10ACA000906274E09025AA543FF5F0E054C045F05E
:10ACB000F0906275E09025AF543FF5F0E054C04548
:10ACC000F0F0906276E09025AE543FF5F0E054C08D
:10ACD00045F0F0906277E0FA9025AD543FF5F0E052
:10ACE00054C045F0F002AFD3906278E09024BC5499
:10ACF0003FF5F0E054C045F0F0906279E09024BB5D
:10AD0000543FF5F0E054C045F0F090627AE09024B2
:10AD1000BA543FF5F0E054C045F0F090627BE0900B
:10AD200024BF543FF5F0E054C045F0F090627CE061
:10AD30009024BE543FF5F0E054C045F0F090627DA1
:10AD4000E09024BD543FF5F0E054C045F0F090622F
:10AD50007EE090250C543FF5F0E054C045F0F090B3
:10AD6000627FE090250B543FF5F0E054C045F0F0D1
:10AD7000906280E090250A543FF5F0E054C045F021
:10AD8000F0906281E090250F543FF5F0E054C0450B
:10AD9000F0F0906282E090250E543FF5F0E054C050
:10ADA00045F0F0906283E090250D543FF5F0E054BB
:10ADB000C045F0F0906284E090255C543FF5F0E0EF
:10ADC00054C045F0F0906285E090255B543FF5F06B
:10ADD000E054C045F0F0906286E090255A543FF56B
:10ADE000F0E054C045F0F0906287E090255F543F5A
:10ADF000F5F0E054C045F0F0906288E090255E5494
:10AE00003FF5F0E054C045F0F0906289E090255D98
:10AE1000543FF5F0E054C045F0F090628AE0902590
:10AE2000AC543FF5F0E054C045F0F090628BE090F8
:10AE300025AB543FF5F0E054C045F0F090628CE053
:10AE40009025AA543FF5F0E054C045F0F090628D93
:10AE5000E09025AF543FF5F0E054C045F0F090622B
:10AE60008EE09025AE543FF5F0E054C045F0F090F0
:10AE7000628FE0FA9025AD543FF5F0E054C045F004
:10AE8000F002AFD39024BCE054C04420F09024BB27
:10AE9000E054C04420F09024BAE054C04420F09024
:10AEA00024BFE054C04420F09024BEE054C04420AD
:10AEB000F09024BDE054C04420F090250CE054C034
:10AEC0004420F090250BE054C04420F090250AE087
:10AED00054C04420F090250FE054C04420F0902549
:10AEE0000EE054C04420F090250DE054C04420F002
:10AEF00090255CE054C04420F090255BE054C044B1
:10AF000020F090255AE054C04420F090255FE05492
:10AF1000C04420F090255EE054C04420F090255DB0
:10AF2000E054C04420F09025ACE054C04420F090A0
:10AF300025ABE054C04420F09025AAE054C0442042
:10AF4000F09025AFE054C04420F09025AEE054C00E
:10AF50004420F09025ADE054C04420F0902402E05D
:10AF600030E5709024BAE054C0F090250AE054C057
:10AF7000F090255AE054C0F09025AAE054C0F0901B
:10AF800024BCE054C0F090250CE054C0F090255C47
:10AF9000E054C0F09025ACE054C0F09024BDE054E3
:10AFA000C0F090250DE054C0F090255DE054C0F055
:10AFB0009025ADE054C0F09024BFE054C0F090253F
:10AFC0000FE054C0F090255FE054C0F09025AFE052
:10AFD00054C0F078D779BE7A011200A390240BE018
:10AFE00030E7F90200B5906306E0540FFA9024C6EA
:10AFF000540FF5F0E054F045F0F09024C8EA540FF7
:10B00000F5F0E054F045F0F09024C7EA540FF5F065
:10B01000E054F045F0F09024C9EA540FF5F0E05404
:10B02000F045F0F0902516EA540FF5F0E054F045A5
:10B03000F0F0902518EA540FF5F0E054F045F0F0E8
:10B04000902517EA540FF5F0E054F045F0F0902504
:10B0500019EA540FF5F0E054F045F0F0902566EA57
:10B06000540FF5F0E054F045F0F0902568EA540FE5
:10B07000F5F0E054F045F0F0902567EA540FF5F054
:10B08000E054F045F0F0902569EA540FF5F0E054F3
:10B09000F045F0F09025B6EA540FF5F0E054F04595
:10B0A000F0F09025B8EA540FF5F0E054F045F0F0D8
:10B0B0009025B7EA540FF5F0E054F045F0F09025F4
:10B0C000B9EA540FF5F0E054F045F0F00200B57421
:10B0D00040C0E07401C0E074F0C0E07425C0E0E45A
:10B0E000C0E090638075F0007826799E7A021200A5
:10B0F000A3E58124FBF5810200B5AA82BA00028093
:10B100003CBA0102800FBA020302B254BA09030228
:10B11000B3F802B54F7440C0E07401C0E07480C061
:10B12000E07463C0E0E4C0E09024B075F0007826DD
:10B13000799E7A021200A3E58124FBF58190248098
:10B1400074FFF0A3F0A3F0A3F090248474FFF0A3A5
:10B15000F0A3F0A3F090248874FFF0A3F0A3F0A371
:10B16000F090248C74FFF0A3F0A3F0A3F09024904F
:10B1700074FFF0A3F0A3F0A3F090249474FFF0A365
:10B18000F0A3F0A3F090249874FFF0A3F0A3F0A331
:10B19000F090249C74FFF0A3F0A3F0A3F09024A0FF
:10B1A00074FFF0A3F0A3F0A3F09024A474FFF0A325
:10B1B000F0A3F0A3F09024A874FFF0A3F0A3F0A3F1
:10B1C000F09024AC74FFF0A3F0A3F0A3F0902480DF
:10B1D000E4F0A3F0A3F0A3F0902484E4F0A3F0A3A0
:10B1E000F0A3F0902488E4F0A3F0A3F0A3F090245F
:10B1F0008CE4F0A3F0A3F0A3F0902490E4F0A3F08B
:10B20000A3F0A3F0902494E4F0A3F0A3F0A3F090B3
:10B210002498E4F0A3F0A3F0A3F090249CE4F0A31E
:10B22000F0A3F0A3F09024A0E4F0A3F0A3F0A3F027
:10B230009024A4E4F0A3F0A3F0A3F09024A8E4F0F9
:10B24000A3F0A3F0A3F09024ACE4F0A3F0A3F0A348
:10B25000F002B54F90638CE09024BC543FF5F0E0D1
:10B2600054C045F0F090638BE09024BB543FF5F060
:10B27000E054C045F0F090638AE09024BA543FF562
:10B28000F0E054C045F0F090638FE09024BF543F4D
:10B29000F5F0E054C045F0F090638EE09024BE5489
:10B2A0003FF5F0E054C045F0F090638DE09024BD90
:10B2B000543FF5F0E054C045F0F09063DCE0902599
:10B2C0000C543FF5F0E054C045F0F09063DBE090A3
:10B2D000250B543FF5F0E054C045F0F09063DAE000
:10B2E00090250A543FF5F0E054C045F0F09063DF3C
:10B2F000E090250F543FF5F0E054C045F0F0906326
:10B30000DEE090250E543FF5F0E054C045F0F0909B
:10B3100063DDE090250D543FF5F0E054C045F0F0BA
:10B3200090642CE090255C543FF5F0E054C045F06B
:10B33000F090642BE090255B543FF5F0E054C0455D
:10B34000F0F090642AE090255A543FF5F0E054C0A4
:10B3500045F0F090642FE090255F543FF5F0E05405
:10B36000C045F0F090642EE090255E543FF5F0E08B
:10B3700054C045F0F090642DE090255D543FF5F009
:10B38000E054C045F0F090647CE09025AC543FF56B
:10B39000F0E054C045F0F090647BE09025AB543F62
:10B3A000F5F0E054C045F0F090647AE09025AA549E
:10B3B0003FF5F0E054C045F0F090647FE09025AF99
:10B3C000543FF5F0E054C045F0F090647EE09025E5
:10B3D000AE543FF5F0E054C045F0F090647DE0904D
:10B3E00025AD543FF5F0E054C045F0F078D779BE74
:10B3F0007A011200A302B54F7440C0E07401C0E0AE
:10B400009024B075F000786C799E7A021200A31532
:10B41000811581906306E030E40978E679AF7A011E
:10B420001200A390248074FFF0A3F0A3F0A3F09087
:10B43000248474FFF0A3F0A3F0A3F090248874FF99
:10B44000F0A3F0A3F0A3F090248C74FFF0A3F0A37A
:10B45000F0A3F090249074FFF0A3F0A3F0A3F09079
:10B46000249474FFF0A3F0A3F0A3F090249874FF49
:10B47000F0A3F0A3F0A3F090249C74FFF0A3F0A33A
:10B48000F0A3F09024A074FFF0A3F0A3F0A3F09039
:10B4900024A474FFF0A3F0A3F0A3F09024A874FFF9
:10B4A000F0A3F0A3F0A3F09024AC74FFF0A3F0A3FA
:10B4B000F0A3F0902480E4F0A3F0A3F0A3F0902494
:10B4C00084E4F0A3F0A3F0A3F0902488E4F0A3F0C8
:10B4D000A3F0A3F090248CE4F0A3F0A3F0A3F090E9
:10B4E0002490E4F0A3F0A3F0A3F0902494E4F0A35C
:10B4F000F0A3F0A3F0902498E4F0A3F0A3F0A3F05D
:10B5000090249CE4F0A3F0A3F0A3F09024A0E4F036
:10B51000A3F0A3F0A3F09024A4E4F0A3F0A3F0A37D
:10B52000F09024A8E4F0A3F0A3F0A3F09024ACE4FE
:10B53000F0A3F0A3F0A3F0758205785379A67A0101
:10B540001200A3758200789179B57A011200A39058
:10B55000240BE030E7F90200B5E582A2E713FAC355
:10B56000E49AFA20E7048A038008C3E49AFAFB43CA
:10B5700003208B820200B5AA82C3E49AFA20E70472
:10B580008A038008C3E49AFAFB4303408B820200DB
:10B59000B5E582FA703990602AE090007013E0926D
:10B5A000E0F078C679D67A021200A375820178C0DD
:10B5B00079D57A021200A3781D79D87A021200A3F5
:10B5C000758201784379D67A021200A302B7AC9053
:10B5D0006382E09024B2543FF5F0E054C045F0F0AF
:10B5E000906381E09024B1543FF5F0E054C045F001
:10B5F000F0906380E09024B0543FF5F0E054C045F3
:10B60000F0F09063D2E0902502543FF5F0E054C092
:10B6100045F0F09063D1E0902501543FF5F0E054FF
:10B62000C045F0F09063D0E0902500543FF5F0E085
:10B6300054C045F0F0906422E0902552543FF5F05C
:10B64000E054C045F0F0906421E0902551543FF55E
:10B65000F0E054C045F0F0906420E0902550543F55
:10B66000F5F0E054C045F0F0906472E09025A254EB
:10B670003FF5F0E054C045F0F0906471E09025A1F2
:10B68000543FF5F0E054C045F0F0906470E0902530
:10B69000A0543FF5F0E054C045F0F0906385E09091
:10B6A00024B5543FF5F0E054C045F0F0906384E0D9
:10B6B0009024B4543FF5F0E054C045F0F09063831B
:10B6C000E09024B3543FF5F0E054C045F0F09063AF
:10B6D000D5E0902505543FF5F0E054C045F0F090DA
:10B6E00063D4E0902504543FF5F0E054C045F0F0F9
:10B6F0009063D3E0902503543FF5F0E054C045F04B
:10B70000F0906425E0902555543FF5F0E054C04595
:10B71000F0F0906424E0902554543FF5F0E054C0DC
:10B7200045F0F0906423E0902553543FF5F0E05449
:10B73000C045F0F0906475E09025A5543FF5F0E029
:10B7400054C045F0F0906474E09025A4543FF5F0A7
:10B75000E054C045F0F0906473E09025A3543FF5A9
:10B76000F0E054C045F0F0906386E09024B6547F3A
:10B77000F5F0E0548045F0F09063D6E09025065453
:10B780007FF5F0E0548045F0F0906426E090255677
:10B79000547FF5F0E0548045F0F0906476E0FA9044
:10B7A00025A6547FF5F0E0548045F0F0902480E029
:10B7B0004407F0E054F8F090248CE04407F0E054A3
:10B7C000F8F0902498E04407F0E054F8F09024A4B6
:10B7D000E04407F0E054F8F0902480E04438F0E0D2
:10B7E00054C7F090248CE04438F0E054C7F0902423
:10B7F00098E04438F0E054C7F09024A4E04438F0D6
:10B80000E054C7F0902480E04440F0E054BFF09052
:10B81000248CE04440F0E054BFF0902498E0444091
:10B82000F0E054BFF09024A4E04440F0E054BFF0B6
:10B8300090240BE030E7F90200B5906301E020E4CA
:10B840000302BA74906290E0FA906291E0FBC00348
:10B850008A8278D9799E7A021200A3AB8215818BF5
:10B8600002906292E0FBC0038A8278D9799E7A02C4
:10B870001200A3AB8215818B02906293E0FBC003A0
:10B880008A8278D9799E7A021200A3AB8215818BC5
:10B8900002906294E0FBC0038A8278D9799E7A0292
:10B8A0001200A3AB8215818B02906295E0FBC0036E
:10B8B0008A8278D9799E7A021200A3AB8215818B95
:10B8C00002906296E0FBC0038A8278D9799E7A0260
:10B8D0001200A3AB8215818B02906297E0FBC0033C
:10B8E0008A8278D9799E7A021200A3AB8215818B65
:10B8F00002906298E0FBC0038A8278D9799E7A022E
:10B900001200A3AB8215818B02906299E0FBC00309
:10B910008A8278D9799E7A021200A3AB8215818B34
:10B920000290629AE0FBC0038A8278D9799E7A02FB
:10B930001200A3AB8215818B0290629BE0FBC003D7
:10B940008A8278D9799E7A021200A3AB8215818B04
:10B950000290629CE0FBC0038A8278D9799E7A02C9
:10B960001200A3AB8215818B0290629DE0FBC003A5
:10B970008A8278D9799E7A021200A3AB8215818BD4
:10B980000290629EE0FBC0038A8278D9799E7A0297
:10B990001200A3AB8215818B0290629FE0FBC00373
:10B9A0008A8278D9799E7A021200A3AB8215818BA4
:10B9B000029062A0E0FBC0038A8278D9799E7A0265
:10B9C0001200A3AB8215818B029062A1E0FBC00341
:10B9D0008A8278D9799E7A021200A3AB8215818B74
:10B9E000029062A2E0FBC0038A8278D9799E7A0233
:10B9F0001200A3AB8215818B029062A3E0FBC0030F
:10BA00008A8278D9799E7A021200A3AB8215818B43
:10BA1000029062A4E0FBC0038A8278D9799E7A0200
:10BA20001200A3AB8215818B029062A5E0FBC003DC
:10BA30008A8278D9799E7A021200A3AB8215818B13
:10BA4000029062A6E0FBC0038A8278D9799E7A02CE
:10BA50001200A3AB8215818B029062A7E0FBC003AA
:10BA60008A8278D9799E7A021200A3AB8215818BE3
:10BA70000202BCA1906230E0FA906231E0FBC003A8
:10BA80008A8278D9799E7A021200A3AB8215818BC3
:10BA900002906232E0FBC0038A8278D9799E7A02F2
:10BAA0001200A3AB8215818B02906233E0FBC003CE
:10BAB0008A8278D9799E7A021200A3AB8215818B93
:10BAC00002906234E0FBC0038A8278D9799E7A02C0
:10BAD0001200A3AB8215818B02906235E0FBC0039C
:10BAE0008A8278D9799E7A021200A3AB8215818B63
:10BAF00002906236E0FBC0038A8278D9799E7A028E
:10BB00001200A3AB8215818B02906237E0FBC00369
:10BB10008A8278D9799E7A021200A3AB8215818B32
:10BB200002906238E0FBC0038A8278D9799E7A025B
:10BB30001200A3AB8215818B02906239E0FBC00337
:10BB40008A8278D9799E7A021200A3AB8215818B02
:10BB50000290623AE0FBC0038A8278D9799E7A0229
:10BB60001200A3AB8215818B0290623BE0FBC00305
:10BB70008A8278D9799E7A021200A3AB8215818BD2
:10BB80000290623CE0FBC0038A8278D9799E7A02F7
:10BB90001200A3AB8215818B0290623DE0FBC003D3
:10BBA0008A8278D9799E7A021200A3AB8215818BA2
:10BBB0000290623EE0FBC0038A8278D9799E7A02C5
:10BBC0001200A3AB8215818B0290623FE0FBC003A1
:10BBD0008A8278D9799E7A021200A3AB8215818B72
:10BBE00002906240E0FBC0038A8278D9799E7A0293
:10BBF0001200A3AB8215818B02906241E0FBC0036F
:10BC00008A8278D9799E7A021200A3AB8215818B41
:10BC100002906242E0FBC0038A8278D9799E7A0260
:10BC20001200A3AB8215818B02906243E0FBC0033C
:10BC30008A8278D9799E7A021200A3AB8215818B11
:10BC400002906244E0FBC0038A8278D9799E7A022E
:10BC50001200A3AB8215818B02906245E0FBC0030A
:10BC60008A8278D9799E7A021200A3AB8215818BE1
:10BC700002906246E0FBC0038A8278D9799E7A02FC
:10BC80001200A3AB8215818B02906247E0FBC003D8
:10BC90008A8278D9799E7A021200A3AB8215818BB1
:10BCA00002906308E0C4540FFB8BF005F0EA8002B9
:10BCB000C313D5F0FBFA906308E0540FFB2AFAF5A2
:10BCC000820200B5AA8290605AE020E00302BDCF54
:10BCD0009024BCE054C0F09024BBE054C0F0902409
:10BCE000BAE054C0F090250CE054C0F090250BE071
:10BCF00054C0F090250AE054C0F090255CE054C098
:10BD0000F090255BE054C0F090255AE054C0F090CC
:10BD100025ACE054C0F09025ABE054C0F09025AACB
:10BD2000E054C0F09024BFEA543FF5F0E054C04521
:10BD3000F0F09024BEEA543FF5F0E054C045F0F036
:10BD40009024BDEA543FF5F0E054C045F0F0902552
:10BD50000FEA543FF5F0E054C045F0F090250EEAAC
:10BD6000543FF5F0E054C045F0F090250DEA543F03
:10BD7000F5F0E054C045F0F090255FEA543FF5F04F
:10BD8000E054C045F0F090255EEA543FF5F0E054F1
:10BD9000C045F0F090255DEA543FF5F0E054C04511
:10BDA000F0F09025AFEA543FF5F0E054C045F0F0D4
:10BDB0009025AEEA543FF5F0E054C045F0F09025F0
:10BDC000ADEA543FF5F0E054C045F0F002BECB9030
:10BDD00024BCEA543FF5F0E054C045F0F09024BB99
:10BDE000EA543FF5F0E054C045F0F09024BAEA542C
:10BDF0003FF5F0E054C045F0F090250CEA543FF5D3
:10BE0000F0E054C045F0F090250BEA543FF5F0E027
:10BE100054C045F0F090250AEA543FF5F0E054C0D4
:10BE200045F0F090255CEA543FF5F0E054C045F051
:10BE3000F090255BEA543FF5F0E054C045F0F090F7
:10BE4000255AEA543FF5F0E054C045F0F09025AC97
:10BE5000EA543FF5F0E054C045F0F09025ABEA54C9
:10BE60003FF5F0E054C045F0F09025AAEA543FF5C4
:10BE7000F0E054C045F0F09024BFE054C0F09024AE
:10BE8000BEE054C0F09024BDE054C0F090250FE017
:10BE900054C0F090250EE054C0F090250DE054C041
:10BEA000F090255FE054C0F090255EE054C0F09023
:10BEB000255DE054C0F09025AFE054C0F09025AE71
:10BEC000E054C0F09025ADE054C0F078D779BE7A48
:10BED000011200A30200B5902481E044E0F0E05498
:10BEE0001FF0E0441CF0902481E054E3F090248D96
:10BEF000E044E0F0E0541FF0E0441CF090248DE0BA
:10BF000054E3F0902499E044E0F0E0541FF0E04462
:10BF10001CF0902499E054E3F09024A5E044E0F074
:10BF2000E0541FF0E0441CF09024A5E054E3F0023C
:10BF300000B5902480E04480F0E0547FF0902481AC
:10BF4000E04403F0E054FCF090248CE04480F0E006
:10BF5000547FF090248DE04403F0E054FCF09024F2
:10BF600098E04480F0E0547FF0902499E04403F09E
:10BF7000E054FCF09024A4E04480F0E0547FF09082
:10BF800024A5E04403F0E054FCF00200B5C018859D
:10BF90008118AA82AB83ACF0FDE51824F9F8C3E65A
:10BFA0009A08E69B08E69C08E69D50098A828B83E6
:10BFB0008CF0ED800FE51824F9F886820886830856
:10BFC00086F008E6D0180200B5C018E581F51824FF
:10BFD00008F581906301E030E50675820102C364D3
:10BFE000902920E0FAA3E0FBA3E0FCA3E0FDE51824
:10BFF0002405F8A60208A60308A60408A6059029A9
:10C0000024E0FEA3E0FFA3E0FAA3E0FBC006C00724
:10C01000C002C003E5182405F886820886830886D6
:10C02000F008E6788D79BF7A011200A3AA82AB836B
:10C03000ACF0FDE58124FCF581E5182405F8A602A5
:10C0400008A60308A60408A605902928E0FAA3E09C
:10C05000FBA3E0FCA3E0FDC002C003C004C005E5F3
:10C06000182405F886820886830886F008E6788D0D
:10C0700079BF7A011200A3AA82AB83ACF0FDE581FF
:10C0800024FCF581E5182405F8A60208A60308A6F5
:10C090000408A60590292CE0FAA3E0FBA3E0FCA38A
:10C0A000E0FDC002C003C004C005E5182405F88601
:10C0B000820886830886F008E6788D79BF7A0112B7
:10C0C00000A3AA82AB83ACF0FDE58124FCF581E5F9
:10C0D000182405F8A60208A60308A60408A60590D9
:10C0E0002930E0FAA3E0FBA3E0FCA3E0FDC002C01E
:10C0F00003C004C005E5182405F886820886830875
:10C1000086F008E6788D79BF7A011200A3AA82AB87
:10C1100083ACF0FDE58124FCF581E5182405F8A643
:10C120000208A60308A60408A605902934E0FAA38D
:10C13000E0FBA3E0FCA3E0FDC002C003C004C00517
:10C14000E5182405F886820886830886F008E678D4
:10C150008D79BF7A011200A3AA82AB83ACF0FDE512
:10C160008124FCF581E5182405F8A60208A6030839
:10C17000A60408A605902900E0FAA3E0FBA3E0FCD2
:10C18000A3E0FDA81808A60208A60308A60408A6AE
:10C1900005902904E0FEA3E0FFA3E0FAA3E0FBC0C2
:10C1A00006C007C002C003A8180886820886830854
:10C1B00086F008E6788D79BF7A011200A3AA82ABD7
:10C1C00083ACF0FDE58124FCF581A81808A60208DF
:10C1D000A60308A60408A605902908E0FAA3E0FB38
:10C1E000A3E0FCA3E0FDC002C003C004C005A81882
:10C1F0000886820886830886F008E6788D79BF7AFB
:10C20000011200A3AA82AB83ACF0FDE58124FCF50A
:10C2100081A81808A60208A60308A60408A6059087
:10C22000290CE0FAA3E0FBA3E0FCA3E0FDC002C000
:10C2300003C004C005A8180886820886830886F013
:10C2400008E6788D79BF7A011200A3AA82AB83AC8D
:10C25000F0FDE58124FCF581A81808A60208A603D4
:10C2600008A60408A605902910E0FAA3E0FBA3E0C5
:10C27000FCA3E0FDC002C003C004C005A8180886E6
:10C28000820886830886F008E6788D79BF7A0112E5
:10C2900000A3AA82AB83ACF0FDE58124FCF581A864
:10C2A0001808A60208A60308A60408A605902914E3
:10C2B000E0FAA3E0FBA3E0FCA3E0FDC002C003C0E2
:10C2C00004C005A8180886820886830886F008E658
:10C2D000788D79BF7A011200A3AA82AB83ACF0FDFE
:10C2E000E58124FCF581A81808A60208A60308A683
:10C2F0000408A605906309E0FAE4FBFCFDE51824B8
:10C3000005F8C3E69A08E69B08E69C08E69D5005FA
:10C31000758200804F90605AE003035401FABA011D
:10C320001E906038E020E317A81808C3E496741044
:10C330000896E40896E408965027758200802590B8
:10C34000630AE0FAA3E0FB7C007D00A81808C3EABA
:10C3500096EB0896EC0896ED0896500575820080DD
:10C3600003758201851881D0180200B5C018858137
:10C3700018AA82AB8390241CE020E40302C5AF8B93
:10C38000047B0090604FE030E71C902418E4F090AC
:10C390002419E054FCF0902419E05403F090241A7E
:10C3A000E054F0F08029902418ECF0902419EA2A47
:10C3B00025E054FCF5F0E0540345F0F0EA23235463
:10C3C00003FA90241A540FF5F0E054F045F0F09081
:10C3D0002408E4F0902409F090240AF090240BE063
:10C3E0005480F090240EE054BFF090240FE054FDF0
:10C3F000F090240FE054DFF090240FE054EFF09021
:10C40000240EE0547FF090240FE054F7F090240FB6
:10C41000E054FBF0E51824FBF8E630E00D9024082A
:10C42000E0FA430201902408EAF0E51824FBF8E65C
:10C4300030E10790240FE04402F0E51824FBF8E611
:10C4400030E20790240EE04440F0E51824FBF8E6C3
:10C4500030E320906301E020E21990240874FFF09B
:10C4600090240974FFF090240A74FFF090240BE0EC
:10C47000447FF0902411E05403703F902408E0FAC8
:10C48000530255902408EAF0902409E0FA5302552B
:10C49000902409EAF090240AE0FA53025590240A05
:10C4A000EAF090240BE0547FFA53025590240BEAF3
:10C4B000547FF5F0E0548045F0F0902411E05403EF
:10C4C000FABA013F902408E0FA530211902408EAD6
:10C4D000F0902409E0FA530211902409EAF0902424
:10C4E0000AE0FA53021190240AEAF090240BE05477
:10C4F0007FFA53021190240BEA547FF5F0E0548048
:10C5000045F0F0E51824FBF8E630E440906301E0E4
:10C5100020E239906304E020E032902409E0FA43FD
:10C520000280902409EAF090240AE0FA4302AA90DB
:10C53000240AEAF090240BE0547FFA43022A902464
:10C540000BEA547FF5F0E0548045F0F0E51824FB49
:10C55000F8E630E50790240EE04480F0E51824FB6F
:10C56000F8E630E60E90240FE04404F090240FE04B
:10C570004408F0E51824FBF8E630E70E90240FE0BD
:10C580004420F090240FE04410F0902402E0440195
:10C59000F0902402E04401F078EF799C7A021200D6
:10C5A000A3902402E030E1F9902402E054FEF0D0A0
:10C5B000180200B590241CE003035401FAE4BA0108
:10C5C0000104FA700790241CE04404F0C002744097
:10C5D000C0E07401C0E09024B075F000786C799EE2
:10C5E0007A021200A315811581D0029024BCE05478
:10C5F000C04420F09024BBE054C04420F09024BA02
:10C60000E054C04420F09024BFE054C04420F09097
:10C6100024BEE054C04420F09024BDE054C0442027
:10C62000F090250CE054C04420F090250BE054C05D
:10C630004420F090250AE054C04420F090250FE0FB
:10C6400054C04420F090250EE054C04420F09025C2
:10C650000DE054C04420F090255CE054C04420F02C
:10C6600090255BE054C04420F090255AE054C0442B
:10C6700020F090255FE054C04420F090255EE05407
:10C68000C04420F090255DE054C04420F09025ACDB
:10C69000E054C04420F09025ABE054C04420F0901A
:10C6A00025AAE054C04420F09025AFE054C04420B7
:10C6B000F09025AEE054C04420F09025ADE054C089
:10C6C0004420F0902107E020E612758200C0027835
:10C6D0006979C77A011200A3D00280489000E8E08F
:10C6E0005407FB54036002802B902107E020E512E1
:10C6F000758201C002786979C77A011200A3D0025D
:10C700008022758202C002786979C77A011200A37B
:10C71000D0028010758203C002786979C77A01124D
:10C7200000A3D0029000E8E05407FBBB061275821C
:10C7300000C002785D79CA7A011200A3D00280108D
:10C74000758201C002785D79CA7A011200A3D00215
:10C75000EA700790241CE054FBF09003E8787A79A3
:10C760009F7A021200A30200B5AA829000C0E044A2
:10C7700038F09000D4E04438F09000C0E04407F076
:10C780009000D4E04407F09000C8E04438F09000F6
:10C79000D8E04438F09000C8E04407F09000D8E0BA
:10C7A0004407F07403B50200500302CA5AEA2A2A69
:10C7B00090C7B47302C7C002C7F402C84302C94F8E
:10C7C000902411E054FC4402F0906300E4F0906384
:10C7D00004E04401F0902402E054BFF0902402E011
:10C7E00054DFF0900068E054EFF090242BE04440D8
:10C7F000F002CA5A902411E054FCF0906300745582
:10C80000F0906304E054FEF0902402E054BFF090F6
:10C810002402E054DFF0900068E054EFF09000C094
:10C82000E054C7F09000C0E054F8F09000C8E05425
:10C83000C7F09000C8E054F8F090242BE054BFF00B
:10C8400002CA5A902411E054FCF09063007455F031
:10C85000906304E054FEF0902402E04440F0900025
:10C8600068E04410F09000C0E054C7F09000C0E0D1
:10C8700054F8F09000C8E054C7F09000C8E054F8B5
:10C88000F090242BE054BFF0902402E020E5030256
:10C89000CA5A902428E054C74428F0902429E05430
:10C8A000F1440AF0902429E04480F090242AE054D6
:10C8B000FC4402F090242AE0541F4480F090242588
:10C8C000E0543FF0902426E04401F0902426E05408
:10C8D000F14408F0902421E04402F0902421E04447
:10C8E00008F0902421E04420F0902421E04480F0DE
:10C8F000902422E04440F0902422E04480F0900014
:10C90000D4E054C74410F09000D4E054F84402F04E
:10C910009000D8E054C74410F09000D8E054F84498
:10C9200002F0902421E054FDF0902421E054F7F02F
:10C93000902421E054DFF0902421E0547FF09024F3
:10C9400022E054BFF0902422E0547FF002CA5A90B3
:10C950002411E054FC4401F09063007477F090637C
:10C9600004E04401F0902402E04440F0900068E0CC
:10C970004410F09000C0E054C7F09000D4E054C7D9
:10C980004410F09000C0E054F8F09000C8E054C7A4
:10C99000F09000D8E054C74410F09000C8E054F87C
:10C9A000F090242BE054BFF0902402E020E5030235
:10C9B000CA5A902428E054C74428F0902429E0540F
:10C9C000F1440AF0902429E04480F090242AE054B5
:10C9D000FC4402F090242AE0541F4480F090242567
:10C9E000E0543FF0902426E04401F0902426E054E7
:10C9F000F14408F0902421E04402F0902421E04426
:10CA000008F0902421E04420F0902421E04480F0BC
:10CA1000902422E04440F0902422E04480F09000F2
:10CA2000D4E054F84402F09000D8E054F84402F006
:10CA3000902421E054FDF0902421E054F7F090245C
:10CA400021E054DFF0902421E0547FF0902422E094
:10CA500054BFF0902422E0547FF00200B5E582FA42
:10CA6000603A90241FE04480F090241CE04410F0D1
:10CA7000900074E04401F0900068E04408F09000F9
:10CA800074E04402F0900074E04404F0900068E028
:10CA90004420F090008CE04408F0803890241FE09F
:10CAA0004480F090241CE054EFF0900074E054FEB9
:10CAB000F0900068E054F7F0900074E054FDF090BE
:10CAC0000074E054FBF0900068E054DFF090008CBC
:10CAD000E054F7F00200B5906322E4F0A37403F091
:10CAE000906320E4F0A37403F09063267404F0A331
:10CAF0007403F09063247407F0A37402F090632A27
:10CB0000740FF0A3740AF0906328740FF0A3740AF2
:10CB1000F090632E7401F0A3740AF090632C7401FA
:10CB2000F0A3740AF09063307407F0A3740FF090D0
:10CB300063327404F0A37402F09063367407F0A3B8
:10CB4000740FF09063347407F0A3740FF090633A9D
:10CB50007402F0A37408F09063387404F0A3F090AA
:10CB600063527402F0A37408F09063507404F0A34D
:10CB7000F090633E7402F0A3740AF090633C740476
:10CB8000F0A37408F09063427402F0A3740AF0906A
:10CB900063407404F0A37408F09063467402F0A339
:10CBA0007403F09063447404F0A37402F090634A39
:10CBB0007405F0A3740AF090634E740FF0A374032D
:10CBC000F090634C740FF0A37403F090604FE05446
:10CBD0007FF0906301E04401F0906301E04402F0D3
:10CBE000906301E04480F0E054FBF0906301E05476
:10CBF000F7F0906301E054DFF0906308E0540F44D5
:10CC000030F0906308E054F04402F090630AE4F0DE
:10CC1000A37404F09063097464F00200B59060A3FB
:10CC2000E0235401FABA010302CD8E90241DE020C6
:10CC3000E10302CD8EC2AF90241CE05401906F42FC
:10CC400013E092E0F09000B8E0C4235401906F42EA
:10CC500013E092E1F09000D8E0C4235407906F42B3
:10CC600025E025E0541CF5F0E054E345F0F0900099
:10CC7000D8E05407906F42C42354E0F5F0E0541F0D
:10CC800045F0F0900104E05401906F4313E092E00E
:10CC9000F09000C8E0C4235407906F4325E0540E81
:10CCA000F5F0E054F145F0F09000C8E05407906FC3
:10CCB00043C45470F5F0E0548F45F0F0902401E047
:10CCC000C4035401FA906F4313E092E7F090241CE0
:10CCD000E054FEF0902401E030E520902401E0547F
:10CCE000DFF078EF799C7A021200A3902401E044EF
:10CCF00040F078EF799C7A021200A3902402E0447D
:10CD000001F0902402E030E1F9902402E054FEF0BA
:10CD1000902401E054BFF09000D8E054C7F078EFC1
:10CD2000799C7A021200A39000D8E054F8F078EFD2
:10CD3000799C7A021200A39000B8E04408F078EFE2
:10CD4000799C7A021200A3902037E020E630900010
:10CD5000C8E054C7F078EF799C7A021200A39000E3
:10CD6000C8E054F8F078EF799C7A021200A39001A1
:10CD700004E04401F078EF799C7A021200A3902439
:10CD80001CE04401F09060A3E04480F0D2AF0200C8
:10CD9000B59060A3E020E70302CE7E90241DE02042
:10CDA000E10302CE7EC2AF906F42E0540190241C9A
:10CDB00013E092E0F0906F42E00354019000B8134A
:10CDC000E092E3F078EF799C7A021200A3906F4230
:10CDD000E0030354079000D8C4035438F5F0E0543E
:10CDE000C745F0F078EF799C7A021200A3906F4269
:10CDF000E0C40354079000D85407F5F0E054F84518
:10CE0000F0F078EF799C7A021200A3906F43E0541F
:10CE10000190010413E092E0F078EF799C7A02121D
:10CE200000A3906F43E00354079000C8C403543834
:10CE3000F5F0E054C745F0F078EF799C7A021200E3
:10CE4000A3906F43E0C454079000C85407F5F0E086
:10CE500054F845F0F078EF799C7A021200A3906FB5
:10CE600043E0235401FA90240113E092E5F090246A
:10CE700002E04401F09060A3E0547FF0D2AF0200E2
:10CE8000B5BFDFC3003F1D0200FFDDC3007F5D7E35
:10CE9000003FDFC3008FDF83000FDF830000D94234
:10CEA0000000004000002000000020000000000200
